{"abi":[{"type":"constructor","inputs":[],"stateMutability":"nonpayable"},{"type":"function","name":"DEFAULT_ADMIN_ROLE","inputs":[],"outputs":[{"name":"","type":"bytes32","internalType":"bytes32"}],"stateMutability":"view"},{"type":"function","name":"ORACLE_ROLE","inputs":[],"outputs":[{"name":"","type":"bytes32","internalType":"bytes32"}],"stateMutability":"view"},{"type":"function","name":"getData","inputs":[{"name":"id","type":"bytes32","internalType":"bytes32"}],"outputs":[{"name":"","type":"string","internalType":"string"}],"stateMutability":"view"},{"type":"function","name":"getNonce","inputs":[],"outputs":[{"name":"","type":"uint256","internalType":"uint256"}],"stateMutability":"view"},{"type":"function","name":"getRoleAdmin","inputs":[{"name":"role","type":"bytes32","internalType":"bytes32"}],"outputs":[{"name":"","type":"bytes32","internalType":"bytes32"}],"stateMutability":"view"},{"type":"function","name":"grantRole","inputs":[{"name":"role","type":"bytes32","internalType":"bytes32"},{"name":"account","type":"address","internalType":"address"}],"outputs":[],"stateMutability":"nonpayable"},{"type":"function","name":"hasRole","inputs":[{"name":"role","type":"bytes32","internalType":"bytes32"},{"name":"account","type":"address","internalType":"address"}],"outputs":[{"name":"","type":"bool","internalType":"bool"}],"stateMutability":"view"},{"type":"function","name":"renounceRole","inputs":[{"name":"role","type":"bytes32","internalType":"bytes32"},{"name":"callerConfirmation","type":"address","internalType":"address"}],"outputs":[],"stateMutability":"nonpayable"},{"type":"function","name":"revokeRole","inputs":[{"name":"role","type":"bytes32","internalType":"bytes32"},{"name":"account","type":"address","internalType":"address"}],"outputs":[],"stateMutability":"nonpayable"},{"type":"function","name":"setData","inputs":[{"name":"data","type":"string","internalType":"string"}],"outputs":[],"stateMutability":"nonpayable"},{"type":"function","name":"supportsInterface","inputs":[{"name":"interfaceId","type":"bytes4","internalType":"bytes4"}],"outputs":[{"name":"","type":"bool","internalType":"bool"}],"stateMutability":"view"},{"type":"event","name":"RoleAdminChanged","inputs":[{"name":"role","type":"bytes32","indexed":true,"internalType":"bytes32"},{"name":"previousAdminRole","type":"bytes32","indexed":true,"internalType":"bytes32"},{"name":"newAdminRole","type":"bytes32","indexed":true,"internalType":"bytes32"}],"anonymous":false},{"type":"event","name":"RoleGranted","inputs":[{"name":"role","type":"bytes32","indexed":true,"internalType":"bytes32"},{"name":"account","type":"address","indexed":true,"internalType":"address"},{"name":"sender","type":"address","indexed":true,"internalType":"address"}],"anonymous":false},{"type":"event","name":"RoleRevoked","inputs":[{"name":"role","type":"bytes32","indexed":true,"internalType":"bytes32"},{"name":"account","type":"address","indexed":true,"internalType":"address"},{"name":"sender","type":"address","indexed":true,"internalType":"address"}],"anonymous":false},{"type":"event","name":"UpdatedData","inputs":[{"name":"id","type":"bytes32","indexed":false,"internalType":"bytes32"},{"name":"data","type":"string","indexed":false,"internalType":"string"},{"name":"nonce","type":"uint256","indexed":false,"internalType":"uint256"}],"anonymous":false},{"type":"error","name":"AccessControlBadConfirmation","inputs":[]},{"type":"error","name":"AccessControlUnauthorizedAccount","inputs":[{"name":"account","type":"address","internalType":"address"},{"name":"neededRole","type":"bytes32","internalType":"bytes32"}]}],"bytecode":{"object":"0x6080604052600060025534801561001557600080fd5b506100296000801b3361006060201b60201c565b5061005a7f68e79a7bf1e0bc45d0a330c573bc367f9cf464fd326078812f301165fbda4ef13361006060201b60201c565b506101cf565b6000610072838361015d60201b60201c565b61015257600160008085815260200190815260200160002060000160008473ffffffffffffffffffffffffffffffffffffffff1673ffffffffffffffffffffffffffffffffffffffff16815260200190815260200160002060006101000a81548160ff0219169083151502179055506100ef6101c760201b60201c565b73ffffffffffffffffffffffffffffffffffffffff168273ffffffffffffffffffffffffffffffffffffffff16847f2f8788117e7eff1d82e926ec794901d17c78024a50270940304540a733656f0d60405160405180910390a460019050610157565b600090505b92915050565b600080600084815260200190815260200160002060000160008373ffffffffffffffffffffffffffffffffffffffff1673ffffffffffffffffffffffffffffffffffffffff16815260200190815260200160002060009054906101000a900460ff16905092915050565b600033905090565b611239806101de6000396000f3fe608060405234801561001057600080fd5b50600436106100a95760003560e01c806347064d6a1161007157806347064d6a1461016457806354f6127f1461018057806391d14854146101b0578063a217fddf146101e0578063d087d288146101fe578063d547741f1461021c576100a9565b806301ffc9a7146100ae57806307e2cea5146100de578063248a9ca3146100fc5780632f2ff15d1461012c57806336568abe14610148575b600080fd5b6100c860048036038101906100c39190610987565b610238565b6040516100d591906109cf565b60405180910390f35b6100e66102b2565b6040516100f39190610a03565b60405180910390f35b61011660048036038101906101119190610a4a565b6102d6565b6040516101239190610a03565b60405180910390f35b61014660048036038101906101419190610ad5565b6102f5565b005b610162600480360381019061015d9190610ad5565b610317565b005b61017e60048036038101906101799190610c5b565b610392565b005b61019a60048036038101906101959190610a4a565b61047c565b6040516101a79190610d23565b60405180910390f35b6101ca60048036038101906101c59190610ad5565b61057f565b6040516101d791906109cf565b60405180910390f35b6101e86105e9565b6040516101f59190610a03565b60405180910390f35b6102066105f0565b6040516102139190610d5e565b60405180910390f35b61023660048036038101906102319190610ad5565b6105fa565b005b60007f7965db0b000000000000000000000000000000000000000000000000000000007bffffffffffffffffffffffffffffffffffffffffffffffffffffffff1916827bffffffffffffffffffffffffffffffffffffffffffffffffffffffff191614806102ab57506102aa8261061c565b5b9050919050565b7f68e79a7bf1e0bc45d0a330c573bc367f9cf464fd326078812f301165fbda4ef181565b6000806000838152602001908152602001600020600101549050919050565b6102fe826102d6565b61030781610686565b610311838361069a565b50505050565b61031f61078b565b73ffffffffffffffffffffffffffffffffffffffff168173ffffffffffffffffffffffffffffffffffffffff1614610383576040517f6697b23200000000000000000000000000000000000000000000000000000000815260040160405180910390fd5b61038d8282610793565b505050565b7f68e79a7bf1e0bc45d0a330c573bc367f9cf464fd326078812f301165fbda4ef16103bc81610686565b6000826040516020016103cf9190610db5565b6040516020818303038152906040528051906020012090506040518060400160405280828152602001848152506001600083815260200190815260200160002060008201518160000155602082015181600101908161042e9190610fd8565b5090505061043a610885565b7f5b3a25e3ed3193b2faaddbd057f69843f115c62a4cd660ef6e67bb5397e111bf818460025460405161046f939291906110aa565b60405180910390a1505050565b60606000801b6001600084815260200190815260200160002060000154036104d9576040517f08c379a00000000000000000000000000000000000000000000000000000000081526004016104d090611134565b60405180910390fd5b6001600083815260200190815260200160002060010180546104fa90610dfb565b80601f016020809104026020016040519081016040528092919081815260200182805461052690610dfb565b80156105735780601f1061054857610100808354040283529160200191610573565b820191906000526020600020905b81548152906001019060200180831161055657829003601f168201915b50505050509050919050565b600080600084815260200190815260200160002060000160008373ffffffffffffffffffffffffffffffffffffffff1673ffffffffffffffffffffffffffffffffffffffff16815260200190815260200160002060009054906101000a900460ff16905092915050565b6000801b81565b6000600254905090565b610603826102d6565b61060c81610686565b6106168383610793565b50505050565b60007f01ffc9a7000000000000000000000000000000000000000000000000000000007bffffffffffffffffffffffffffffffffffffffffffffffffffffffff1916827bffffffffffffffffffffffffffffffffffffffffffffffffffffffff1916149050919050565b6106978161069261078b565b6108ca565b50565b60006106a6838361057f565b61078057600160008085815260200190815260200160002060000160008473ffffffffffffffffffffffffffffffffffffffff1673ffffffffffffffffffffffffffffffffffffffff16815260200190815260200160002060006101000a81548160ff02191690831515021790555061071d61078b565b73ffffffffffffffffffffffffffffffffffffffff168273ffffffffffffffffffffffffffffffffffffffff16847f2f8788117e7eff1d82e926ec794901d17c78024a50270940304540a733656f0d60405160405180910390a460019050610785565b600090505b92915050565b600033905090565b600061079f838361057f565b1561087a57600080600085815260200190815260200160002060000160008473ffffffffffffffffffffffffffffffffffffffff1673ffffffffffffffffffffffffffffffffffffffff16815260200190815260200160002060006101000a81548160ff02191690831515021790555061081761078b565b73ffffffffffffffffffffffffffffffffffffffff168273ffffffffffffffffffffffffffffffffffffffff16847ff6391f5c32d9c69d2a47ea670b442974b53935d1edc7fd64eb21e047a839171b60405160405180910390a46001905061087f565b600090505b92915050565b7f68e79a7bf1e0bc45d0a330c573bc367f9cf464fd326078812f301165fbda4ef16108af81610686565b600260008154809291906108c290611183565b919050555050565b6108d4828261057f565b6109175780826040517fe2517d3f00000000000000000000000000000000000000000000000000000000815260040161090e9291906111da565b60405180910390fd5b5050565b6000604051905090565b600080fd5b600080fd5b60007fffffffff0000000000000000000000000000000000000000000000000000000082169050919050565b6109648161092f565b811461096f57600080fd5b50565b6000813590506109818161095b565b92915050565b60006020828403121561099d5761099c610925565b5b60006109ab84828501610972565b91505092915050565b60008115159050919050565b6109c9816109b4565b82525050565b60006020820190506109e460008301846109c0565b92915050565b6000819050919050565b6109fd816109ea565b82525050565b6000602082019050610a1860008301846109f4565b92915050565b610a27816109ea565b8114610a3257600080fd5b50565b600081359050610a4481610a1e565b92915050565b600060208284031215610a6057610a5f610925565b5b6000610a6e84828501610a35565b91505092915050565b600073ffffffffffffffffffffffffffffffffffffffff82169050919050565b6000610aa282610a77565b9050919050565b610ab281610a97565b8114610abd57600080fd5b50565b600081359050610acf81610aa9565b92915050565b60008060408385031215610aec57610aeb610925565b5b6000610afa85828601610a35565b9250506020610b0b85828601610ac0565b9150509250929050565b600080fd5b600080fd5b6000601f19601f8301169050919050565b7f4e487b7100000000000000000000000000000000000000000000000000000000600052604160045260246000fd5b610b6882610b1f565b810181811067ffffffffffffffff82111715610b8757610b86610b30565b5b80604052505050565b6000610b9a61091b565b9050610ba68282610b5f565b919050565b600067ffffffffffffffff821115610bc657610bc5610b30565b5b610bcf82610b1f565b9050602081019050919050565b82818337600083830152505050565b6000610bfe610bf984610bab565b610b90565b905082815260208101848484011115610c1a57610c19610b1a565b5b610c25848285610bdc565b509392505050565b600082601f830112610c4257610c41610b15565b5b8135610c52848260208601610beb565b91505092915050565b600060208284031215610c7157610c70610925565b5b600082013567ffffffffffffffff811115610c8f57610c8e61092a565b5b610c9b84828501610c2d565b91505092915050565b600081519050919050565b600082825260208201905092915050565b60005b83811015610cde578082015181840152602081019050610cc3565b60008484015250505050565b6000610cf582610ca4565b610cff8185610caf565b9350610d0f818560208601610cc0565b610d1881610b1f565b840191505092915050565b60006020820190508181036000830152610d3d8184610cea565b905092915050565b6000819050919050565b610d5881610d45565b82525050565b6000602082019050610d736000830184610d4f565b92915050565b600081905092915050565b6000610d8f82610ca4565b610d998185610d79565b9350610da9818560208601610cc0565b80840191505092915050565b6000610dc18284610d84565b915081905092915050565b7f4e487b7100000000000000000000000000000000000000000000000000000000600052602260045260246000fd5b60006002820490506001821680610e1357607f821691505b602082108103610e2657610e25610dcc565b5b50919050565b60008190508160005260206000209050919050565b60006020601f8301049050919050565b600082821b905092915050565b600060088302610e8e7fffffffffffffffffffffffffffffffffffffffffffffffffffffffffffffffff82610e51565b610e988683610e51565b95508019841693508086168417925050509392505050565b6000819050919050565b6000610ed5610ed0610ecb84610d45565b610eb0565b610d45565b9050919050565b6000819050919050565b610eef83610eba565b610f03610efb82610edc565b848454610e5e565b825550505050565b600090565b610f18610f0b565b610f23818484610ee6565b505050565b5b81811015610f4757610f3c600082610f10565b600181019050610f29565b5050565b601f821115610f8c57610f5d81610e2c565b610f6684610e41565b81016020851015610f75578190505b610f89610f8185610e41565b830182610f28565b50505b505050565b600082821c905092915050565b6000610faf60001984600802610f91565b1980831691505092915050565b6000610fc88383610f9e565b9150826002028217905092915050565b610fe182610ca4565b67ffffffffffffffff811115610ffa57610ff9610b30565b5b6110048254610dfb565b61100f828285610f4b565b600060209050601f8311600181146110425760008415611030578287015190505b61103a8582610fbc565b8655506110a2565b601f19841661105086610e2c565b60005b8281101561107857848901518255600182019150602085019450602081019050611053565b868310156110955784890151611091601f891682610f9e565b8355505b6001600288020188555050505b505050505050565b60006060820190506110bf60008301866109f4565b81810360208301526110d18185610cea565b90506110e06040830184610d4f565b949350505050565b7f44617461206e6f7420666f756e64000000000000000000000000000000000000600082015250565b600061111e600e83610caf565b9150611129826110e8565b602082019050919050565b6000602082019050818103600083015261114d81611111565b9050919050565b7f4e487b7100000000000000000000000000000000000000000000000000000000600052601160045260246000fd5b600061118e82610d45565b91507fffffffffffffffffffffffffffffffffffffffffffffffffffffffffffffffff82036111c0576111bf611154565b5b600182019050919050565b6111d481610a97565b82525050565b60006040820190506111ef60008301856111cb565b6111fc60208301846109f4565b939250505056fea264697066735822122013561f1c6b20ef956d24e192d318c43b5ffe609724f11f5410699a333437575864736f6c63430008140033","linkReferences":{}},"methodIdentifiers":{"DEFAULT_ADMIN_ROLE()":"a217fddf","ORACLE_ROLE()":"07e2cea5","getData(bytes32)":"54f6127f","getNonce()":"d087d288","getRoleAdmin(bytes32)":"248a9ca3","grantRole(bytes32,address)":"2f2ff15d","hasRole(bytes32,address)":"91d14854","renounceRole(bytes32,address)":"36568abe","revokeRole(bytes32,address)":"d547741f","setData(string)":"47064d6a","supportsInterface(bytes4)":"01ffc9a7"},"id":14}