{"abi":[{"type":"constructor","inputs":[{"name":"_owner","type":"address","internalType":"address"}],"stateMutability":"nonpayable"},{"type":"function","name":"BRIDGE_ROLE","inputs":[],"outputs":[{"name":"","type":"bytes32","internalType":"bytes32"}],"stateMutability":"view"},{"type":"function","name":"DEFAULT_ADMIN_ROLE","inputs":[],"outputs":[{"name":"","type":"bytes32","internalType":"bytes32"}],"stateMutability":"view"},{"type":"function","name":"OWNER_ROLE","inputs":[],"outputs":[{"name":"","type":"bytes32","internalType":"bytes32"}],"stateMutability":"view"},{"type":"function","name":"approve","inputs":[{"name":"to","type":"address","internalType":"address"},{"name":"tokenId","type":"uint256","internalType":"uint256"}],"outputs":[],"stateMutability":"nonpayable"},{"type":"function","name":"approveAsset","inputs":[{"name":"recipient","type":"address","internalType":"address"},{"name":"tokenId","type":"uint256","internalType":"uint256"}],"outputs":[{"name":"success","type":"bool","internalType":"bool"}],"stateMutability":"nonpayable"},{"type":"function","name":"balanceOf","inputs":[{"name":"owner","type":"address","internalType":"address"}],"outputs":[{"name":"","type":"uint256","internalType":"uint256"}],"stateMutability":"view"},{"type":"function","name":"bridgeTransferFrom","inputs":[{"name":"from","type":"address","internalType":"address"},{"name":"to","type":"address","internalType":"address"},{"name":"tokenId","type":"uint256","internalType":"uint256"}],"outputs":[{"name":"success","type":"bool","internalType":"bool"}],"stateMutability":"nonpayable"},{"type":"function","name":"burn","inputs":[{"name":"tokenId","type":"uint256","internalType":"uint256"}],"outputs":[{"name":"success","type":"bool","internalType":"bool"}],"stateMutability":"nonpayable"},{"type":"function","name":"checkAssignment","inputs":[{"name":"spender","type":"address","internalType":"address"},{"name":"tokenId","type":"uint256","internalType":"uint256"}],"outputs":[{"name":"success","type":"bool","internalType":"bool"}],"stateMutability":"nonpayable"},{"type":"function","name":"getApproved","inputs":[{"name":"tokenId","type":"uint256","internalType":"uint256"}],"outputs":[{"name":"","type":"address","internalType":"address"}],"stateMutability":"view"},{"type":"function","name":"getRoleAdmin","inputs":[{"name":"role","type":"bytes32","internalType":"bytes32"}],"outputs":[{"name":"","type":"bytes32","internalType":"bytes32"}],"stateMutability":"view"},{"type":"function","name":"grantBridgeRole","inputs":[{"name":"account","type":"address","internalType":"address"}],"outputs":[{"name":"success","type":"bool","internalType":"bool"}],"stateMutability":"nonpayable"},{"type":"function","name":"grantRole","inputs":[{"name":"role","type":"bytes32","internalType":"bytes32"},{"name":"account","type":"address","internalType":"address"}],"outputs":[],"stateMutability":"nonpayable"},{"type":"function","name":"hasBridgeRole","inputs":[{"name":"account","type":"address","internalType":"address"}],"outputs":[{"name":"success","type":"bool","internalType":"bool"}],"stateMutability":"view"},{"type":"function","name":"hasPermission","inputs":[{"name":"account","type":"address","internalType":"address"},{"name":"tokenId","type":"uint256","internalType":"uint256"}],"outputs":[{"name":"success","type":"bool","internalType":"bool"}],"stateMutability":"nonpayable"},{"type":"function","name":"hasRole","inputs":[{"name":"role","type":"bytes32","internalType":"bytes32"},{"name":"account","type":"address","internalType":"address"}],"outputs":[{"name":"","type":"bool","internalType":"bool"}],"stateMutability":"view"},{"type":"function","name":"isApprovedForAll","inputs":[{"name":"owner","type":"address","internalType":"address"},{"name":"operator","type":"address","internalType":"address"}],"outputs":[{"name":"","type":"bool","internalType":"bool"}],"stateMutability":"view"},{"type":"function","name":"lock","inputs":[{"name":"from","type":"address","internalType":"address"},{"name":"to","type":"address","internalType":"address"},{"name":"tokenId","type":"uint256","internalType":"uint256"}],"outputs":[{"name":"success","type":"bool","internalType":"bool"}],"stateMutability":"nonpayable"},{"type":"function","name":"mint","inputs":[{"name":"account","type":"address","internalType":"address"},{"name":"tokenId","type":"uint256","internalType":"uint256"}],"outputs":[{"name":"success","type":"bool","internalType":"bool"}],"stateMutability":"nonpayable"},{"type":"function","name":"name","inputs":[],"outputs":[{"name":"","type":"string","internalType":"string"}],"stateMutability":"view"},{"type":"function","name":"onERC721Received","inputs":[{"name":"operator","type":"address","internalType":"address"},{"name":"from","type":"address","internalType":"address"},{"name":"tokenId","type":"uint256","internalType":"uint256"},{"name":"data","type":"bytes","internalType":"bytes"}],"outputs":[{"name":"","type":"bytes4","internalType":"bytes4"}],"stateMutability":"nonpayable"},{"type":"function","name":"ownerOf","inputs":[{"name":"tokenId","type":"uint256","internalType":"uint256"}],"outputs":[{"name":"","type":"address","internalType":"address"}],"stateMutability":"view"},{"type":"function","name":"renounceRole","inputs":[{"name":"role","type":"bytes32","internalType":"bytes32"},{"name":"callerConfirmation","type":"address","internalType":"address"}],"outputs":[],"stateMutability":"nonpayable"},{"type":"function","name":"revokeRole","inputs":[{"name":"role","type":"bytes32","internalType":"bytes32"},{"name":"account","type":"address","internalType":"address"}],"outputs":[],"stateMutability":"nonpayable"},{"type":"function","name":"safeTransferFrom","inputs":[{"name":"from","type":"address","internalType":"address"},{"name":"to","type":"address","internalType":"address"},{"name":"tokenId","type":"uint256","internalType":"uint256"}],"outputs":[],"stateMutability":"nonpayable"},{"type":"function","name":"safeTransferFrom","inputs":[{"name":"from","type":"address","internalType":"address"},{"name":"to","type":"address","internalType":"address"},{"name":"tokenId","type":"uint256","internalType":"uint256"},{"name":"data","type":"bytes","internalType":"bytes"}],"outputs":[],"stateMutability":"nonpayable"},{"type":"function","name":"setApprovalForAll","inputs":[{"name":"operator","type":"address","internalType":"address"},{"name":"approved","type":"bool","internalType":"bool"}],"outputs":[],"stateMutability":"nonpayable"},{"type":"function","name":"supportsInterface","inputs":[{"name":"interfaceId","type":"bytes4","internalType":"bytes4"}],"outputs":[{"name":"","type":"bool","internalType":"bool"}],"stateMutability":"view"},{"type":"function","name":"symbol","inputs":[],"outputs":[{"name":"","type":"string","internalType":"string"}],"stateMutability":"view"},{"type":"function","name":"tokenURI","inputs":[{"name":"tokenId","type":"uint256","internalType":"uint256"}],"outputs":[{"name":"","type":"string","internalType":"string"}],"stateMutability":"view"},{"type":"function","name":"transfer","inputs":[{"name":"to","type":"address","internalType":"address"},{"name":"tokenId","type":"uint256","internalType":"uint256"}],"outputs":[{"name":"success","type":"bool","internalType":"bool"}],"stateMutability":"nonpayable"},{"type":"function","name":"transferFrom","inputs":[{"name":"from","type":"address","internalType":"address"},{"name":"to","type":"address","internalType":"address"},{"name":"tokenId","type":"uint256","internalType":"uint256"}],"outputs":[],"stateMutability":"nonpayable"},{"type":"function","name":"unlock","inputs":[{"name":"to","type":"address","internalType":"address"},{"name":"tokenId","type":"uint256","internalType":"uint256"}],"outputs":[{"name":"success","type":"bool","internalType":"bool"}],"stateMutability":"nonpayable"},{"type":"event","name":"Approval","inputs":[{"name":"owner","type":"address","indexed":true,"internalType":"address"},{"name":"approved","type":"address","indexed":true,"internalType":"address"},{"name":"tokenId","type":"uint256","indexed":true,"internalType":"uint256"}],"anonymous":false},{"type":"event","name":"ApprovalForAll","inputs":[{"name":"owner","type":"address","indexed":true,"internalType":"address"},{"name":"operator","type":"address","indexed":true,"internalType":"address"},{"name":"approved","type":"bool","indexed":false,"internalType":"bool"}],"anonymous":false},{"type":"event","name":"RoleAdminChanged","inputs":[{"name":"role","type":"bytes32","indexed":true,"internalType":"bytes32"},{"name":"previousAdminRole","type":"bytes32","indexed":true,"internalType":"bytes32"},{"name":"newAdminRole","type":"bytes32","indexed":true,"internalType":"bytes32"}],"anonymous":false},{"type":"event","name":"RoleGranted","inputs":[{"name":"role","type":"bytes32","indexed":true,"internalType":"bytes32"},{"name":"account","type":"address","indexed":true,"internalType":"address"},{"name":"sender","type":"address","indexed":true,"internalType":"address"}],"anonymous":false},{"type":"event","name":"RoleRevoked","inputs":[{"name":"role","type":"bytes32","indexed":true,"internalType":"bytes32"},{"name":"account","type":"address","indexed":true,"internalType":"address"},{"name":"sender","type":"address","indexed":true,"internalType":"address"}],"anonymous":false},{"type":"event","name":"Transfer","inputs":[{"name":"from","type":"address","indexed":true,"internalType":"address"},{"name":"to","type":"address","indexed":true,"internalType":"address"},{"name":"tokenId","type":"uint256","indexed":true,"internalType":"uint256"}],"anonymous":false},{"type":"error","name":"AccessControlBadConfirmation","inputs":[]},{"type":"error","name":"AccessControlUnauthorizedAccount","inputs":[{"name":"account","type":"address","internalType":"address"},{"name":"neededRole","type":"bytes32","internalType":"bytes32"}]},{"type":"error","name":"ERC721IncorrectOwner","inputs":[{"name":"sender","type":"address","internalType":"address"},{"name":"tokenId","type":"uint256","internalType":"uint256"},{"name":"owner","type":"address","internalType":"address"}]},{"type":"error","name":"ERC721InsufficientApproval","inputs":[{"name":"operator","type":"address","internalType":"address"},{"name":"tokenId","type":"uint256","internalType":"uint256"}]},{"type":"error","name":"ERC721InvalidApprover","inputs":[{"name":"approver","type":"address","internalType":"address"}]},{"type":"error","name":"ERC721InvalidOperator","inputs":[{"name":"operator","type":"address","internalType":"address"}]},{"type":"error","name":"ERC721InvalidOwner","inputs":[{"name":"owner","type":"address","internalType":"address"}]},{"type":"error","name":"ERC721InvalidReceiver","inputs":[{"name":"receiver","type":"address","internalType":"address"}]},{"type":"error","name":"ERC721InvalidSender","inputs":[{"name":"sender","type":"address","internalType":"address"}]},{"type":"error","name":"ERC721NonexistentToken","inputs":[{"name":"tokenId","type":"uint256","internalType":"uint256"}]},{"type":"error","name":"noPermission","inputs":[{"name":"adr","type":"address","internalType":"address"}]}],"bytecode":{"object":"0x60806040523480156200001157600080fd5b50604051620021c1380380620021c18339810160408190526200003491620001b1565b6040518060400160405280600b81526020016a29a0aa2827232a37b5b2b760a91b8152506040518060400160405280600781526020016614d0551413919560ca1b815250816001908162000089919062000288565b50600262000098828262000288565b505050620000cd7fb19546dff01e856fb3f010c267a7b1c60363cf8a4664e21cc89c26224620214e826200010260201b60201c565b50620000fa7f52ba824bfabc2bcfcdf7f0edbb486ebb05e1836c90e78047efeb949990f72e5f8262000102565b505062000354565b6000828152602081815260408083206001600160a01b038516845290915281205460ff16620001a7576000838152602081815260408083206001600160a01b03861684529091529020805460ff191660011790556200015e3390565b6001600160a01b0316826001600160a01b0316847f2f8788117e7eff1d82e926ec794901d17c78024a50270940304540a733656f0d60405160405180910390a4506001620001ab565b5060005b92915050565b600060208284031215620001c457600080fd5b81516001600160a01b0381168114620001dc57600080fd5b9392505050565b634e487b7160e01b600052604160045260246000fd5b600181811c908216806200020e57607f821691505b6020821081036200022f57634e487b7160e01b600052602260045260246000fd5b50919050565b601f8211156200028357600081815260208120601f850160051c810160208610156200025e5750805b601f850160051c820191505b818110156200027f578281556001016200026a565b5050505b505050565b81516001600160401b03811115620002a457620002a4620001e3565b620002bc81620002b58454620001f9565b8462000235565b602080601f831160018114620002f45760008415620002db5750858301515b600019600386901b1c1916600185901b1785556200027f565b600085815260208120601f198616915b82811015620003255788860151825594840194600190910190840162000304565b5085821015620003445787850151600019600388901b60f8161c191681555b5050505050600190811b01905550565b611e5d80620003646000396000f3fe608060405234801561001057600080fd5b506004361061020b5760003560e01c80637750c9f01161012a578063a9059cbb116100bd578063c87b56dd1161008c578063e58378bb11610071578063e58378bb146104f9578063e985e9c514610520578063ea1340711461055c57600080fd5b8063c87b56dd146104d3578063d547741f146104e657600080fd5b8063a9059cbb14610473578063b11cd4a614610486578063b5bfddea14610499578063b88d4fde146104c057600080fd5b806395d89b41116100f957806395d89b411461043d578063a217fddf14610445578063a22cb4651461044d578063a5e99b8e1461046057600080fd5b80637750c9f0146103cd5780637eee288d146103e05780638d944fd9146103f357806391d148541461040657600080fd5b806336568abe116101a257806343f967931161017157806343f9679314610381578063497a8125146103945780636352211e146103a757806370a08231146103ba57600080fd5b806336568abe1461033557806340c10f191461034857806342842e0e1461035b57806342966c681461036e57600080fd5b8063150b7a02116101de578063150b7a021461028e57806323b872dd146102de578063248a9ca3146102f15780632f2ff15d1461032257600080fd5b806301ffc9a71461021057806306fdde0314610239578063081812fc1461024e578063095ea7b314610279575b600080fd5b61022461021e366004611a16565b50600190565b60405190151581526020015b60405180910390f35b61024161056f565b6040516102309190611a83565b61026161025c366004611a96565b610601565b6040516001600160a01b039091168152602001610230565b61028c610287366004611acb565b61062c565b005b6102ad61029c366004611af5565b630a85bd0160e11b95945050505050565b6040517fffffffff000000000000000000000000000000000000000000000000000000009091168152602001610230565b61028c6102ec366004611b90565b610640565b6103146102ff366004611a96565b60009081526020819052604090206001015490565b604051908152602001610230565b61028c610330366004611bcc565b6106d0565b61028c610343366004611bcc565b6106f5565b610224610356366004611acb565b610746565b61028c610369366004611b90565b610786565b61022461037c366004611a96565b6107a1565b61022461038f366004611b90565b610805565b6102246103a2366004611acb565b610847565b6102616103b5366004611a96565b610900565b6103146103c8366004611bf8565b61090b565b6102246103db366004611b90565b61096c565b6102246103ee366004611acb565b610ab1565b610224610401366004611acb565b610b2c565b610224610414366004611bcc565b6000918252602082815260408084206001600160a01b0393909316845291905290205460ff1690565b610241610b7b565b610314600081565b61028c61045b366004611c13565b610b8a565b61022461046e366004611bf8565b610b95565b610224610481366004611acb565b610beb565b610224610494366004611acb565b610bf8565b6103147f52ba824bfabc2bcfcdf7f0edbb486ebb05e1836c90e78047efeb949990f72e5f81565b61028c6104ce366004611c65565b610d2f565b6102416104e1366004611a96565b610d46565b61028c6104f4366004611bcc565b610dbb565b6103147fb19546dff01e856fb3f010c267a7b1c60363cf8a4664e21cc89c26224620214e81565b61022461052e366004611d41565b6001600160a01b03918216600090815260066020908152604080832093909416825291909152205460ff1690565b61022461056a366004611bf8565b610de0565b60606001805461057e90611d6b565b80601f01602080910402602001604051908101604052809291908181526020018280546105aa90611d6b565b80156105f75780601f106105cc576101008083540402835291602001916105f7565b820191906000526020600020905b8154815290600101906020018083116105da57829003601f168201915b5050505050905090565b600061060c82610e65565b506000828152600560205260409020546001600160a01b03165b92915050565b61063c828233610e9e565b610e9e565b5050565b6001600160a01b03821661066f57604051633250574960e11b8152600060048201526024015b60405180910390fd5b600061067c838333610eab565b9050836001600160a01b0316816001600160a01b0316146106ca576040516364283d7b60e01b81526001600160a01b0380861660048301526024820184905282166044820152606401610666565b50505050565b6000828152602081905260409020600101546106eb81610fb1565b6106ca8383610fbe565b6001600160a01b0381163314610737576040517f6697b23200000000000000000000000000000000000000000000000000000000815260040160405180910390fd5b6107418282611068565b505050565b60007f52ba824bfabc2bcfcdf7f0edbb486ebb05e1836c90e78047efeb949990f72e5f61077281610fb1565b61077c84846110eb565b5060019392505050565b61074183838360405180602001604052806000815250610d2f565b60007f52ba824bfabc2bcfcdf7f0edbb486ebb05e1836c90e78047efeb949990f72e5f6107cd81610fb1565b6000838152600360205260409020546001600160a01b03166107f0813386611105565b6107f984611182565b60019250505b50919050565b60007f52ba824bfabc2bcfcdf7f0edbb486ebb05e1836c90e78047efeb949990f72e5f61083181610fb1565b61083c8585856111bd565b506001949350505050565b6000818152600360205260408120546001600160a01b031633146108d35760405162461bcd60e51b815260206004820152603060248201527f41646472657373206e6f74206f776e696e672074686520746f6b656e2074727960448201527f696e6720746f2061737369676e206974000000000000000000000000000000006064820152608401610666565b6108f78383610637856000908152600360205260409020546001600160a01b031690565b50600192915050565b600061062682610e65565b60006001600160a01b038216610950576040517f89c62b6400000000000000000000000000000000000000000000000000000000815260006004820152602401610666565b506001600160a01b031660009081526004602052604090205490565b60007f52ba824bfabc2bcfcdf7f0edbb486ebb05e1836c90e78047efeb949990f72e5f61099881610fb1565b6109d66040518060400160405280601081526020017f0a4c4f434b494e4720414e204e46540a000000000000000000000000000000008152506111d8565b6000838152600360205260409020546109f7906001600160a01b0316611249565b610a356040518060400160405280600481526020017f66726f6d000000000000000000000000000000000000000000000000000000008152506111d8565b610a3e85611249565b6000838152600360205260409020546001600160a01b038681169116146108315760405162461bcd60e51b815260206004820152602160248201527f5573696e672074686520696e636f7272656374206f776e6572206164647265736044820152607360f81b6064820152608401610666565b6000818152600360205260408120546001600160a01b03163314610b215760405162461bcd60e51b815260206004820152602160248201527f5573696e672074686520696e636f7272656374206f776e6572206164647265736044820152607360f81b6064820152608401610666565b6108f73384846111bd565b60007f52ba824bfabc2bcfcdf7f0edbb486ebb05e1836c90e78047efeb949990f72e5f610b5881610fb1565b6000838152600360205260409020546001600160a01b031661083c818686611105565b60606002805461057e90611d6b565b61063c3383836112bf565b60007fb19546dff01e856fb3f010c267a7b1c60363cf8a4664e21cc89c26224620214e610bc181610fb1565b61077c7f52ba824bfabc2bcfcdf7f0edbb486ebb05e1836c90e78047efeb949990f72e5f84610fbe565b60006108f7338484611377565b60007f52ba824bfabc2bcfcdf7f0edbb486ebb05e1836c90e78047efeb949990f72e5f610c2481610fb1565b6000838152600360205260409020546001600160a01b031633819003610cb25760405162461bcd60e51b815260206004820152603160248201527f506572666f726d696e6720616e2061737369676e6d656e7420636865636b206f60448201527f6e2074686520746f6b656e206f776e65720000000000000000000000000000006064820152608401610666565b610cbd818686611427565b61083c5760405162461bcd60e51b815260206004820152602660248201527f5370656e646572206e6f7420617574686f72697a656420746f20616374206f6e60448201527f20746f6b656e00000000000000000000000000000000000000000000000000006064820152608401610666565b610d3a848484610640565b6106ca848484846114ad565b6060610d5182610e65565b506000610d6960408051602081019091526000815290565b90506000815111610d895760405180602001604052806000815250610db4565b80610d93846115ee565b604051602001610da4929190611d9f565b6040516020818303038152906040525b9392505050565b600082815260208190526040902060010154610dd681610fb1565b6106ca8383611068565b6001600160a01b03811660009081527f7dcd276b72586271b4623598c6b3ecb5f3594881d1da5ce0d28e8f8adbf67787602052604081205460ff1615610e2857506001919050565b6040517f1aee145f0000000000000000000000000000000000000000000000000000000081526001600160a01b0383166004820152602401610666565b6000818152600360205260408120546001600160a01b03168061062657604051637e27328960e01b815260048101849052602401610666565b610741838383600161168e565b6000828152600360205260408120546001600160a01b0390811690831615610ed857610ed8818486611105565b6001600160a01b03811615610f1657610ef560008560008061168e565b6001600160a01b038116600090815260046020526040902080546000190190555b6001600160a01b03851615610f45576001600160a01b0385166000908152600460205260409020805460010190555b600084815260036020526040808220805473ffffffffffffffffffffffffffffffffffffffff19166001600160a01b0389811691821790925591518793918516917fddf252ad1be2c89b69c2b068fc378daa952ba7f163c4a11628f55a4df523b3ef91a4949350505050565b610fbb81336117d9565b50565b6000828152602081815260408083206001600160a01b038516845290915281205460ff16611060576000838152602081815260408083206001600160a01b03861684529091529020805460ff191660011790556110183390565b6001600160a01b0316826001600160a01b0316847f2f8788117e7eff1d82e926ec794901d17c78024a50270940304540a733656f0d60405160405180910390a4506001610626565b506000610626565b6000828152602081815260408083206001600160a01b038516845290915281205460ff1615611060576000838152602081815260408083206001600160a01b0386168085529252808320805460ff1916905551339286917ff6391f5c32d9c69d2a47ea670b442974b53935d1edc7fd64eb21e047a839171b9190a4506001610626565b61063c828260405180602001604052806000815250611845565b611110838383611427565b610741576001600160a01b03831661113e57604051637e27328960e01b815260048101829052602401610666565b6040517f177e802f0000000000000000000000000000000000000000000000000000000081526001600160a01b038316600482015260248101829052604401610666565b60006111916000836000610eab565b90506001600160a01b03811661063c57604051637e27328960e01b815260048101839052602401610666565b6107418383836040518060200160405280600081525061185c565b610fbb816040516024016111ec9190611a83565b60408051601f198184030181529190526020810180517bffffffffffffffffffffffffffffffffffffffffffffffffffffffff167f41304fac00000000000000000000000000000000000000000000000000000000179052611867565b6040516001600160a01b0382166024820152610fbb9060440160408051601f198184030181529190526020810180517bffffffffffffffffffffffffffffffffffffffffffffffffffffffff167f2c2ecbc200000000000000000000000000000000000000000000000000000000179052611867565b6001600160a01b03821661130a576040517f5b08ba180000000000000000000000000000000000000000000000000000000081526001600160a01b0383166004820152602401610666565b6001600160a01b03838116600081815260066020908152604080832094871680845294825291829020805460ff191686151590811790915591519182527f17307eab39ab6107e8899845ad3d59bd9653f200f220920489ca2b5937696c31910160405180910390a3505050565b6001600160a01b0382166113a157604051633250574960e11b815260006004820152602401610666565b60006113af83836000610eab565b90506001600160a01b0381166113db57604051637e27328960e01b815260048101839052602401610666565b836001600160a01b0316816001600160a01b0316146106ca576040516364283d7b60e01b81526001600160a01b0380861660048301526024820184905282166044820152606401610666565b60006001600160a01b038316158015906114a55750826001600160a01b0316846001600160a01b0316148061148157506001600160a01b0380851660009081526006602090815260408083209387168352929052205460ff165b806114a557506000828152600560205260409020546001600160a01b038481169116145b949350505050565b6001600160a01b0383163b156106ca57604051630a85bd0160e11b81526001600160a01b0384169063150b7a02906114ef903390889087908790600401611dce565b6020604051808303816000875af192505050801561152a575060408051601f3d908101601f1916820190925261152791810190611e0a565b60015b611593573d808015611558576040519150601f19603f3d011682016040523d82523d6000602084013e61155d565b606091505b50805160000361158b57604051633250574960e11b81526001600160a01b0385166004820152602401610666565b805181602001fd5b7fffffffff000000000000000000000000000000000000000000000000000000008116630a85bd0160e11b146115e757604051633250574960e11b81526001600160a01b0385166004820152602401610666565b5050505050565b606060006115fb83611888565b600101905060008167ffffffffffffffff81111561161b5761161b611c4f565b6040519080825280601f01601f191660200182016040528015611645576020820181803683370190505b5090508181016020015b600019017f3031323334353637383961626364656600000000000000000000000000000000600a86061a8153600a850494508461164f57509392505050565b80806116a257506001600160a01b03821615155b1561179c5760006116b284610e65565b90506001600160a01b038316158015906116de5750826001600160a01b0316816001600160a01b031614155b801561171057506001600160a01b0380821660009081526006602090815260408083209387168352929052205460ff16155b15611752576040517fa9fbf51f0000000000000000000000000000000000000000000000000000000081526001600160a01b0384166004820152602401610666565b811561179a5783856001600160a01b0316826001600160a01b03167f8c5be1e5ebec7d5bd14f71427d1e84f3dd0314c0f7b2291e5b200ac8c7c3b92560405160405180910390a45b505b50506000908152600560205260409020805473ffffffffffffffffffffffffffffffffffffffff19166001600160a01b0392909216919091179055565b6000828152602081815260408083206001600160a01b038516845290915290205460ff1661063c576040517fe2517d3f0000000000000000000000000000000000000000000000000000000081526001600160a01b038216600482015260248101839052604401610666565b61184f838361196a565b61074160008484846114ad565b610d3a848484611377565b80516a636f6e736f6c652e6c6f67602083016000808483855afa5050505050565b6000807a184f03e93ff9f4daa797ed6e38ed64bf6a1f01000000000000000083106118d1577a184f03e93ff9f4daa797ed6e38ed64bf6a1f010000000000000000830492506040015b6d04ee2d6d415b85acef810000000083106118fd576d04ee2d6d415b85acef8100000000830492506020015b662386f26fc10000831061191b57662386f26fc10000830492506010015b6305f5e1008310611933576305f5e100830492506008015b612710831061194757612710830492506004015b60648310611959576064830492506002015b600a83106106265760010192915050565b6001600160a01b03821661199457604051633250574960e11b815260006004820152602401610666565b60006119a283836000610eab565b90506001600160a01b03811615610741576040517f73c6ac6e00000000000000000000000000000000000000000000000000000000815260006004820152602401610666565b7fffffffff0000000000000000000000000000000000000000000000000000000081168114610fbb57600080fd5b600060208284031215611a2857600080fd5b8135610db4816119e8565b60005b83811015611a4e578181015183820152602001611a36565b50506000910152565b60008151808452611a6f816020860160208601611a33565b601f01601f19169290920160200192915050565b602081526000610db46020830184611a57565b600060208284031215611aa857600080fd5b5035919050565b80356001600160a01b0381168114611ac657600080fd5b919050565b60008060408385031215611ade57600080fd5b611ae783611aaf565b946020939093013593505050565b600080600080600060808688031215611b0d57600080fd5b611b1686611aaf565b9450611b2460208701611aaf565b935060408601359250606086013567ffffffffffffffff80821115611b4857600080fd5b818801915088601f830112611b5c57600080fd5b813581811115611b6b57600080fd5b896020828501011115611b7d57600080fd5b9699959850939650602001949392505050565b600080600060608486031215611ba557600080fd5b611bae84611aaf565b9250611bbc60208501611aaf565b9150604084013590509250925092565b60008060408385031215611bdf57600080fd5b82359150611bef60208401611aaf565b90509250929050565b600060208284031215611c0a57600080fd5b610db482611aaf565b60008060408385031215611c2657600080fd5b611c2f83611aaf565b915060208301358015158114611c4457600080fd5b809150509250929050565b634e487b7160e01b600052604160045260246000fd5b60008060008060808587031215611c7b57600080fd5b611c8485611aaf565b9350611c9260208601611aaf565b925060408501359150606085013567ffffffffffffffff80821115611cb657600080fd5b818701915087601f830112611cca57600080fd5b813581811115611cdc57611cdc611c4f565b604051601f8201601f19908116603f01168101908382118183101715611d0457611d04611c4f565b816040528281528a6020848701011115611d1d57600080fd5b82602086016020830137600060208483010152809550505050505092959194509250565b60008060408385031215611d5457600080fd5b611d5d83611aaf565b9150611bef60208401611aaf565b600181811c90821680611d7f57607f821691505b6020821081036107ff57634e487b7160e01b600052602260045260246000fd5b60008351611db1818460208801611a33565b835190830190611dc5818360208801611a33565b01949350505050565b60006001600160a01b03808716835280861660208401525083604083015260806060830152611e006080830184611a57565b9695505050505050565b600060208284031215611e1c57600080fd5b8151610db4816119e856fea2646970667358221220590949a6fb9bdaa8ec24fd5c119ea072c92a5bf78ecafe8afd6792f40ecfdf8d64736f6c63430008140033","linkReferences":{}},"methodIdentifiers":{"BRIDGE_ROLE()":"b5bfddea","DEFAULT_ADMIN_ROLE()":"a217fddf","OWNER_ROLE()":"e58378bb","approve(address,uint256)":"095ea7b3","approveAsset(address,uint256)":"497a8125","balanceOf(address)":"70a08231","bridgeTransferFrom(address,address,uint256)":"43f96793","burn(uint256)":"42966c68","checkAssignment(address,uint256)":"b11cd4a6","getApproved(uint256)":"081812fc","getRoleAdmin(bytes32)":"248a9ca3","grantBridgeRole(address)":"a5e99b8e","grantRole(bytes32,address)":"2f2ff15d","hasBridgeRole(address)":"ea134071","hasPermission(address,uint256)":"8d944fd9","hasRole(bytes32,address)":"91d14854","isApprovedForAll(address,address)":"e985e9c5","lock(address,address,uint256)":"7750c9f0","mint(address,uint256)":"40c10f19","name()":"06fdde03","onERC721Received(address,address,uint256,bytes)":"150b7a02","ownerOf(uint256)":"6352211e","renounceRole(bytes32,address)":"36568abe","revokeRole(bytes32,address)":"d547741f","safeTransferFrom(address,address,uint256)":"42842e0e","safeTransferFrom(address,address,uint256,bytes)":"b88d4fde","setApprovalForAll(address,bool)":"a22cb465","supportsInterface(bytes4)":"01ffc9a7","symbol()":"95d89b41","tokenURI(uint256)":"c87b56dd","transfer(address,uint256)":"a9059cbb","transferFrom(address,address,uint256)":"23b872dd","unlock(address,uint256)":"7eee288d"},"id":37}