{"abi":[{"type":"function","name":"createOrder","inputs":[{"name":"orderId","type":"string","internalType":"string"},{"name":"productId","type":"string","internalType":"string"}],"outputs":[],"stateMutability":"payable"},{"type":"function","name":"getAllOrders","inputs":[],"outputs":[{"name":"","type":"tuple[]","internalType":"struct ProductRegistry.Order[]","components":[{"name":"id","type":"string","internalType":"string"},{"name":"productId","type":"string","internalType":"string"},{"name":"buyer","type":"address","internalType":"address"},{"name":"amount","type":"uint256","internalType":"uint256"},{"name":"status","type":"string","internalType":"string"},{"name":"timestamp","type":"uint256","internalType":"uint256"}]}],"stateMutability":"view"},{"type":"function","name":"getAllProducts","inputs":[],"outputs":[{"name":"","type":"tuple[]","internalType":"struct ProductRegistry.Product[]","components":[{"name":"id","type":"string","internalType":"string"},{"name":"name","type":"string","internalType":"string"},{"name":"origin","type":"string","internalType":"string"},{"name":"manufacturer","type":"address","internalType":"address"},{"name":"price","type":"uint256","internalType":"uint256"},{"name":"status","type":"string","internalType":"string"},{"name":"timestamp","type":"uint256","internalType":"uint256"}]}],"stateMutability":"view"},{"type":"function","name":"getOrder","inputs":[{"name":"orderId","type":"string","internalType":"string"}],"outputs":[{"name":"","type":"tuple","internalType":"struct ProductRegistry.Order","components":[{"name":"id","type":"string","internalType":"string"},{"name":"productId","type":"string","internalType":"string"},{"name":"buyer","type":"address","internalType":"address"},{"name":"amount","type":"uint256","internalType":"uint256"},{"name":"status","type":"string","internalType":"string"},{"name":"timestamp","type":"uint256","internalType":"uint256"}]}],"stateMutability":"view"},{"type":"function","name":"getProduct","inputs":[{"name":"productId","type":"string","internalType":"string"}],"outputs":[{"name":"","type":"tuple","internalType":"struct ProductRegistry.Product","components":[{"name":"id","type":"string","internalType":"string"},{"name":"name","type":"string","internalType":"string"},{"name":"origin","type":"string","internalType":"string"},{"name":"manufacturer","type":"address","internalType":"address"},{"name":"price","type":"uint256","internalType":"uint256"},{"name":"status","type":"string","internalType":"string"},{"name":"timestamp","type":"uint256","internalType":"uint256"}]}],"stateMutability":"view"},{"type":"function","name":"listProduct","inputs":[{"name":"id","type":"string","internalType":"string"},{"name":"name","type":"string","internalType":"string"},{"name":"origin","type":"string","internalType":"string"},{"name":"price","type":"uint256","internalType":"uint256"}],"outputs":[],"stateMutability":"nonpayable"},{"type":"function","name":"updateOrderStatus","inputs":[{"name":"orderId","type":"string","internalType":"string"},{"name":"status","type":"string","internalType":"string"}],"outputs":[],"stateMutability":"nonpayable"},{"type":"event","name":"OrderCreated","inputs":[{"name":"orderId","type":"string","indexed":false,"internalType":"string"},{"name":"productId","type":"string","indexed":false,"internalType":"string"},{"name":"buyer","type":"address","indexed":false,"internalType":"address"}],"anonymous":false},{"type":"event","name":"OrderStatusUpdated","inputs":[{"name":"orderId","type":"string","indexed":false,"internalType":"string"},{"name":"status","type":"string","indexed":false,"internalType":"string"}],"anonymous":false},{"type":"event","name":"ProductListed","inputs":[{"name":"id","type":"string","indexed":false,"internalType":"string"},{"name":"name","type":"string","indexed":false,"internalType":"string"},{"name":"price","type":"uint256","indexed":false,"internalType":"uint256"}],"anonymous":false},{"type":"event","name":"ProductStatusUpdated","inputs":[{"name":"productId","type":"string","indexed":false,"internalType":"string"},{"name":"status","type":"string","indexed":false,"internalType":"string"}],"anonymous":false}],"bytecode":{"object":"0x608060405234801561001057600080fd5b50611d4b806100206000396000f3fe6080604052600436106100705760003560e01c8063712ca0f81161004e578063712ca0f8146100e25780637bea0d1c1461010f578063c72da5d914610131578063edfa77d01461015157600080fd5b806302ee3a5214610075578063591fc296146100a057806368111cce146100b5575b600080fd5b34801561008157600080fd5b5061008a610171565b60405161009791906116ec565b60405180910390f35b6100b36100ae3660046117f1565b6104c9565b005b3480156100c157600080fd5b506100d56100d0366004611855565b6108f0565b6040516100979190611892565b3480156100ee57600080fd5b506101026100fd366004611855565b610c0e565b6040516100979190611927565b34801561011b57600080fd5b50610124610e99565b604051610097919061193a565b34801561013d57600080fd5b506100b361014c36600461198f565b611159565b34801561015d57600080fd5b506100b361016c3660046117f1565b61137f565b60025460609060009067ffffffffffffffff8111156101925761019261174e565b6040519080825280602002602001820160405280156101cb57816020015b6101b8611582565b8152602001906001900390816101b05790505b50905060005b6002548110156104c3576000600282815481106101f0576101f0611a1f565b906000526020600020016040516102079190611adc565b90815260200160405180910390206040518060e001604052908160008201805461023090611a35565b80601f016020809104026020016040519081016040528092919081815260200182805461025c90611a35565b80156102a95780601f1061027e576101008083540402835291602001916102a9565b820191906000526020600020905b81548152906001019060200180831161028c57829003601f168201915b505050505081526020016001820180546102c290611a35565b80601f01602080910402602001604051908101604052809291908181526020018280546102ee90611a35565b801561033b5780601f106103105761010080835404028352916020019161033b565b820191906000526020600020905b81548152906001019060200180831161031e57829003601f168201915b5050505050815260200160028201805461035490611a35565b80601f016020809104026020016040519081016040528092919081815260200182805461038090611a35565b80156103cd5780601f106103a2576101008083540402835291602001916103cd565b820191906000526020600020905b8154815290600101906020018083116103b057829003601f168201915b505050918352505060038201546001600160a01b031660208201526004820154604082015260058201805460609092019161040790611a35565b80601f016020809104026020016040519081016040528092919081815260200182805461043390611a35565b80156104805780601f1061045557610100808354040283529160200191610480565b820191906000526020600020905b81548152906001019060200180831161046357829003601f168201915b505050505081526020016006820154815250508282815181106104a5576104a5611a1f565b602002602001018190525080806104bb90611ae8565b9150506101d1565b50919050565b600081511161051f5760405162461bcd60e51b815260206004820152601a60248201527f50726f647563742049442063616e6e6f7420626520656d70747900000000000060448201526064015b60405180910390fd5b600080826040516105309190611b0f565b908152604051908190036020019020805461054a90611a35565b9050116105925760405162461bcd60e51b8152602060048201526016602482015275141c9bd91d58dd08191bd95cc81b9bdd08195e1a5cdd60521b6044820152606401610516565b6040805180820182526009815268417661696c61626c6560b81b602090910152517fb8cd97c047a11c48778228c38d769e1137628c57d635c6d0777138618f4dddb6906000906105e3908490611b0f565b90815260200160405180910390206005016040516106019190611adc565b60405180910390201461064e5760405162461bcd60e51b815260206004820152601560248201527450726f64756374206e6f7420617661696c61626c6560581b6044820152606401610516565b60008160405161065e9190611b0f565b9081526020016040518091039020600401543410156106b65760405162461bcd60e51b8152602060048201526014602482015273125b9cdd59999a58da595b9d081c185e5b595b9d60621b6044820152606401610516565b6040518060c00160405280838152602001828152602001336001600160a01b031681526020013481526020016040518060400160405280600481526020016314185a5960e21b8152508152602001428152506001836040516107189190611b0f565b908152604051908190036020019020815181906107359082611b7a565b506020820151600182019061074a9082611b7a565b5060408201516002820180546001600160a01b0319166001600160a01b03909216919091179055606082015160038201556080820151600482019061078f9082611b7a565b5060a082015181600501559050506040518060400160405280600481526020016314dbdb1960e21b8152506000826040516107ca9190611b0f565b908152602001604051809103902060050190816107e79190611b7a565b50600380546001810182556000919091527fc2575a0e9e593c00f959f8c92f12db2869c3395a3b0502d05e2516446f71f85b016108248382611b7a565b506000816040516108359190611b0f565b908152604051908190036020018120600301546001600160a01b0316903480156108fc02916000818181858888f19350505050158015610879573d6000803e3d6000fd5b507ff0ed212d3cb290b2279eaad8d43f0e87273bcf14927e7befe2ae14dc981fde368282336040516108ad93929190611c3a565b60405180910390a17f62f7ff77fd29d365844e8ba8542fff45d3f22cada9bf007bdc1dab706bb8bc24816040516108e49190611c78565b60405180910390a15050565b6108f8611582565b600080836040516109099190611b0f565b908152604051908190036020019020805461092390611a35565b90501161096b5760405162461bcd60e51b8152602060048201526016602482015275141c9bd91d58dd08191bd95cc81b9bdd08195e1a5cdd60521b6044820152606401610516565b60008260405161097b9190611b0f565b90815260200160405180910390206040518060e00160405290816000820180546109a490611a35565b80601f01602080910402602001604051908101604052809291908181526020018280546109d090611a35565b8015610a1d5780601f106109f257610100808354040283529160200191610a1d565b820191906000526020600020905b815481529060010190602001808311610a0057829003601f168201915b50505050508152602001600182018054610a3690611a35565b80601f0160208091040260200160405190810160405280929190818152602001828054610a6290611a35565b8015610aaf5780601f10610a8457610100808354040283529160200191610aaf565b820191906000526020600020905b815481529060010190602001808311610a9257829003601f168201915b50505050508152602001600282018054610ac890611a35565b80601f0160208091040260200160405190810160405280929190818152602001828054610af490611a35565b8015610b415780601f10610b1657610100808354040283529160200191610b41565b820191906000526020600020905b815481529060010190602001808311610b2457829003601f168201915b505050918352505060038201546001600160a01b0316602082015260048201546040820152600582018054606090920191610b7b90611a35565b80601f0160208091040260200160405190810160405280929190818152602001828054610ba790611a35565b8015610bf45780601f10610bc957610100808354040283529160200191610bf4565b820191906000526020600020905b815481529060010190602001808311610bd757829003601f168201915b505050505081526020016006820154815250509050919050565b610c166115c8565b6000600183604051610c289190611b0f565b9081526040519081900360200190208054610c4290611a35565b905011610c885760405162461bcd60e51b815260206004820152601460248201527313dc99195c88191bd95cc81b9bdd08195e1a5cdd60621b6044820152606401610516565b600182604051610c989190611b0f565b90815260200160405180910390206040518060c0016040529081600082018054610cc190611a35565b80601f0160208091040260200160405190810160405280929190818152602001828054610ced90611a35565b8015610d3a5780601f10610d0f57610100808354040283529160200191610d3a565b820191906000526020600020905b815481529060010190602001808311610d1d57829003601f168201915b50505050508152602001600182018054610d5390611a35565b80601f0160208091040260200160405190810160405280929190818152602001828054610d7f90611a35565b8015610dcc5780601f10610da157610100808354040283529160200191610dcc565b820191906000526020600020905b815481529060010190602001808311610daf57829003601f168201915b505050918352505060028201546001600160a01b0316602082015260038201546040820152600482018054606090920191610e0690611a35565b80601f0160208091040260200160405190810160405280929190818152602001828054610e3290611a35565b8015610e7f5780601f10610e5457610100808354040283529160200191610e7f565b820191906000526020600020905b815481529060010190602001808311610e6257829003601f168201915b505050505081526020016005820154815250509050919050565b60035460609060009067ffffffffffffffff811115610eba57610eba61174e565b604051908082528060200260200182016040528015610ef357816020015b610ee06115c8565b815260200190600190039081610ed85790505b50905060005b6003548110156104c357600160038281548110610f1857610f18611a1f565b90600052602060002001604051610f2f9190611adc565b90815260200160405180910390206040518060c0016040529081600082018054610f5890611a35565b80601f0160208091040260200160405190810160405280929190818152602001828054610f8490611a35565b8015610fd15780601f10610fa657610100808354040283529160200191610fd1565b820191906000526020600020905b815481529060010190602001808311610fb457829003601f168201915b50505050508152602001600182018054610fea90611a35565b80601f016020809104026020016040519081016040528092919081815260200182805461101690611a35565b80156110635780601f1061103857610100808354040283529160200191611063565b820191906000526020600020905b81548152906001019060200180831161104657829003601f168201915b505050918352505060028201546001600160a01b031660208201526003820154604082015260048201805460609092019161109d90611a35565b80601f01602080910402602001604051908101604052809291908181526020018280546110c990611a35565b80156111165780601f106110eb57610100808354040283529160200191611116565b820191906000526020600020905b8154815290600101906020018083116110f957829003601f168201915b5050505050815260200160058201548152505082828151811061113b5761113b611a1f565b6020026020010181905250808061115190611ae8565b915050610ef9565b60008451116111aa5760405162461bcd60e51b815260206004820152601a60248201527f50726f647563742049442063616e6e6f7420626520656d7074790000000000006044820152606401610516565b600081116111fa5760405162461bcd60e51b815260206004820152601c60248201527f5072696365206d7573742062652067726561746572207468616e2030000000006044820152606401610516565b6040518060e00160405280858152602001848152602001838152602001336001600160a01b0316815260200182815260200160405180604001604052806009815260200168417661696c61626c6560b81b8152508152602001428152506000856040516112679190611b0f565b908152604051908190036020019020815181906112849082611b7a565b50602082015160018201906112999082611b7a565b50604082015160028201906112ae9082611b7a565b5060608201516003820180546001600160a01b0319166001600160a01b039092169190911790556080820151600482015560a082015160058201906112f39082611b7a565b5060c09190910151600690910155600280546001810182556000919091527f405787fa12a823e0f2b7631cc41b3ba8828b3321ca811111fa75cd3aa3bb5ace0161133d8582611b7a565b507f9adc016373f0bc3e64b8967bfbc894236ce61602914706415590ebdf17c3504b84848360405161137193929190611cb1565b60405180910390a150505050565b60018260405161138f9190611b0f565b908152602001604051809103902060010180546113ab90611a35565b80601f01602080910402602001604051908101604052809291908181526020018280546113d790611a35565b80156114245780601f106113f957610100808354040283529160200191611424565b820191906000526020600020905b81548152906001019060200180831161140757829003601f168201915b5050505050336001600160a01b03166000826040516114439190611b0f565b908152604051908190036020019020600301546001600160a01b0316146114a35760405162461bcd60e51b81526020600482015260146024820152732737ba103a34329036b0b73ab330b1ba3ab932b960611b6044820152606401610516565b60006001846040516114b59190611b0f565b90815260405190819003602001902080546114cf90611a35565b9050116115155760405162461bcd60e51b815260206004820152601460248201527313dc99195c88191bd95cc81b9bdd08195e1a5cdd60621b6044820152606401610516565b816001846040516115269190611b0f565b908152602001604051809103902060040190816115439190611b7a565b507f168d0b8e285b1987bbbf8bd0b9f0e85b32303300dce94cab856695d678c040068383604051611575929190611ce7565b60405180910390a1505050565b6040518060e0016040528060608152602001606081526020016060815260200160006001600160a01b031681526020016000815260200160608152602001600081525090565b6040518060c00160405280606081526020016060815260200160006001600160a01b031681526020016000815260200160608152602001600081525090565b60005b8381101561162257818101518382015260200161160a565b50506000910152565b60008151808452611643816020860160208601611607565b601f01601f19169290920160200192915050565b6000815160e0845261166c60e085018261162b565b905060208301518482036020860152611685828261162b565b9150506040830151848203604086015261169f828261162b565b91505060018060a01b0360608401511660608501526080830151608085015260a083015184820360a08601526116d5828261162b565b91505060c083015160c08501528091505092915050565b6000602080830181845280855180835260408601915060408160051b870101925083870160005b8281101561174157603f1988860301845261172f858351611657565b94509285019290850190600101611713565b5092979650505050505050565b634e487b7160e01b600052604160045260246000fd5b600082601f83011261177557600080fd5b813567ffffffffffffffff808211156117905761179061174e565b604051601f8301601f19908116603f011681019082821181831017156117b8576117b861174e565b816040528381528660208588010111156117d157600080fd5b836020870160208301376000602085830101528094505050505092915050565b6000806040838503121561180457600080fd5b823567ffffffffffffffff8082111561181c57600080fd5b61182886838701611764565b9350602085013591508082111561183e57600080fd5b5061184b85828601611764565b9150509250929050565b60006020828403121561186757600080fd5b813567ffffffffffffffff81111561187e57600080fd5b61188a84828501611764565b949350505050565b6020815260006118a56020830184611657565b9392505050565b6000815160c084526118c160c085018261162b565b9050602083015184820360208601526118da828261162b565b91505060018060a01b0360408401511660408501526060830151606085015260808301518482036080860152611910828261162b565b91505060a083015160a08501528091505092915050565b6020815260006118a560208301846118ac565b6000602080830181845280855180835260408601915060408160051b870101925083870160005b8281101561174157603f1988860301845261197d8583516118ac565b94509285019290850190600101611961565b600080600080608085870312156119a557600080fd5b843567ffffffffffffffff808211156119bd57600080fd5b6119c988838901611764565b955060208701359150808211156119df57600080fd5b6119eb88838901611764565b94506040870135915080821115611a0157600080fd5b50611a0e87828801611764565b949793965093946060013593505050565b634e487b7160e01b600052603260045260246000fd5b600181811c90821680611a4957607f821691505b6020821081036104c357634e487b7160e01b600052602260045260246000fd5b60008154611a7681611a35565b60018281168015611a8e5760018114611aa357611ad2565b60ff1984168752821515830287019450611ad2565b8560005260208060002060005b85811015611ac95781548a820152908401908201611ab0565b50505082870194505b5050505092915050565b60006118a58284611a69565b600060018201611b0857634e487b7160e01b600052601160045260246000fd5b5060010190565b60008251611b21818460208701611607565b9190910192915050565b601f821115611b7557600081815260208120601f850160051c81016020861015611b525750805b601f850160051c820191505b81811015611b7157828155600101611b5e565b5050505b505050565b815167ffffffffffffffff811115611b9457611b9461174e565b611ba881611ba28454611a35565b84611b2b565b602080601f831160018114611bdd5760008415611bc55750858301515b600019600386901b1c1916600185901b178555611b71565b600085815260208120601f198616915b82811015611c0c57888601518255948401946001909101908401611bed565b5085821015611c2a5787850151600019600388901b60f8161c191681555b5050505050600190811b01905550565b606081526000611c4d606083018661162b565b8281036020840152611c5f818661162b565b91505060018060a01b0383166040830152949350505050565b604081526000611c8b604083018461162b565b8281036020840152600481526314dbdb1960e21b60208201526040810191505092915050565b606081526000611cc4606083018661162b565b8281036020840152611cd6818661162b565b915050826040830152949350505050565b604081526000611cfa604083018561162b565b8281036020840152611d0c818561162b565b9594505050505056fea264697066735822122083c590414f29a7c37e3ad104a498f41b1f746f6a32fa3d25c42f16a0228100fc64736f6c63430008130033","linkReferences":{}},"methodIdentifiers":{"createOrder(string,string)":"591fc296","getAllOrders()":"7bea0d1c","getAllProducts()":"02ee3a52","getOrder(string)":"712ca0f8","getProduct(string)":"68111cce","listProduct(string,string,string,uint256)":"c72da5d9","updateOrderStatus(string,string)":"edfa77d0"},"id":3}