{"abi":[{"type":"constructor","inputs":[{"name":"_bridge_address","type":"address","internalType":"address"}],"stateMutability":"nonpayable"},{"type":"function","name":"assign","inputs":[{"name":"tokenId","type":"string","internalType":"string"},{"name":"receiver_account","type":"address","internalType":"address"},{"name":"amount","type":"uint256","internalType":"uint256"}],"outputs":[{"name":"success","type":"bool","internalType":"bool"}],"stateMutability":"nonpayable"},{"type":"function","name":"bridge_address","inputs":[],"outputs":[{"name":"","type":"address","internalType":"address"}],"stateMutability":"view"},{"type":"function","name":"burn","inputs":[{"name":"tokenId","type":"string","internalType":"string"},{"name":"amount","type":"uint256","internalType":"uint256"}],"outputs":[{"name":"success","type":"bool","internalType":"bool"}],"stateMutability":"nonpayable"},{"type":"function","name":"getAllAssetsIDs","inputs":[],"outputs":[{"name":"","type":"string[]","internalType":"string[]"}],"stateMutability":"view"},{"type":"function","name":"getToken","inputs":[{"name":"tokenId","type":"string","internalType":"string"}],"outputs":[{"name":"token","type":"tuple","internalType":"struct Token","components":[{"name":"contractAddress","type":"address","internalType":"address"},{"name":"tokenType","type":"uint8","internalType":"enum TokenType"},{"name":"tokenId","type":"string","internalType":"string"},{"name":"owner","type":"address","internalType":"address"},{"name":"amount","type":"uint256","internalType":"uint256"}]}],"stateMutability":"view"},{"type":"function","name":"lock","inputs":[{"name":"tokenId","type":"string","internalType":"string"},{"name":"amount","type":"uint256","internalType":"uint256"}],"outputs":[{"name":"success","type":"bool","internalType":"bool"}],"stateMutability":"nonpayable"},{"type":"function","name":"mint","inputs":[{"name":"tokenId","type":"string","internalType":"string"},{"name":"amount","type":"uint256","internalType":"uint256"}],"outputs":[{"name":"success","type":"bool","internalType":"bool"}],"stateMutability":"nonpayable"},{"type":"function","name":"owner","inputs":[],"outputs":[{"name":"","type":"address","internalType":"address"}],"stateMutability":"view"},{"type":"function","name":"renounceOwnership","inputs":[],"outputs":[],"stateMutability":"nonpayable"},{"type":"function","name":"tokens","inputs":[{"name":"","type":"string","internalType":"string"}],"outputs":[{"name":"contractAddress","type":"address","internalType":"address"},{"name":"tokenType","type":"uint8","internalType":"enum TokenType"},{"name":"tokenId","type":"string","internalType":"string"},{"name":"owner","type":"address","internalType":"address"},{"name":"amount","type":"uint256","internalType":"uint256"}],"stateMutability":"view"},{"type":"function","name":"tokensInteractions","inputs":[{"name":"","type":"string","internalType":"string"},{"name":"","type":"uint8","internalType":"enum InteractionType"}],"outputs":[{"name":"interactionType","type":"uint8","internalType":"enum InteractionType"},{"name":"available","type":"bool","internalType":"bool"}],"stateMutability":"view"},{"type":"function","name":"transferOwnership","inputs":[{"name":"newOwner","type":"address","internalType":"address"}],"outputs":[],"stateMutability":"nonpayable"},{"type":"function","name":"unlock","inputs":[{"name":"tokenId","type":"string","internalType":"string"},{"name":"amount","type":"uint256","internalType":"uint256"}],"outputs":[{"name":"success","type":"bool","internalType":"bool"}],"stateMutability":"nonpayable"},{"type":"function","name":"unwrap","inputs":[{"name":"tokenId","type":"string","internalType":"string"}],"outputs":[{"name":"success","type":"bool","internalType":"bool"}],"stateMutability":"nonpayable"},{"type":"function","name":"wrap","inputs":[{"name":"contractAddress","type":"address","internalType":"address"},{"name":"tokenType","type":"uint8","internalType":"enum TokenType"},{"name":"tokenId","type":"string","internalType":"string"},{"name":"owner","type":"address","internalType":"address"},{"name":"interactions","type":"tuple[]","internalType":"struct InteractionSignature[]","components":[{"name":"interactionType","type":"uint8","internalType":"enum InteractionType"},{"name":"functionsSignature","type":"string[]","internalType":"string[]"},{"name":"variables","type":"uint8[][]","internalType":"enum VarType[][]"},{"name":"available","type":"bool","internalType":"bool"}]}],"outputs":[{"name":"wrapSuccess","type":"bool","internalType":"bool"}],"stateMutability":"nonpayable"},{"type":"function","name":"wrap","inputs":[{"name":"contractAddress","type":"address","internalType":"address"},{"name":"tokenType","type":"uint8","internalType":"enum TokenType"},{"name":"tokenId","type":"string","internalType":"string"},{"name":"owner","type":"address","internalType":"address"}],"outputs":[{"name":"wrapSuccess","type":"bool","internalType":"bool"}],"stateMutability":"nonpayable"},{"type":"event","name":"Assign","inputs":[{"name":"tokenId","type":"string","indexed":true,"internalType":"string"},{"name":"receiver_account","type":"address","indexed":false,"internalType":"address"},{"name":"amount","type":"uint256","indexed":false,"internalType":"uint256"}],"anonymous":false},{"type":"event","name":"Burn","inputs":[{"name":"tokenId","type":"string","indexed":true,"internalType":"string"},{"name":"amount","type":"uint256","indexed":false,"internalType":"uint256"}],"anonymous":false},{"type":"event","name":"Changed","inputs":[{"name":"id","type":"string","indexed":true,"internalType":"string"},{"name":"value","type":"bytes[]","indexed":false,"internalType":"bytes[]"}],"anonymous":false},{"type":"event","name":"Lock","inputs":[{"name":"tokenId","type":"string","indexed":true,"internalType":"string"},{"name":"amount","type":"uint256","indexed":false,"internalType":"uint256"}],"anonymous":false},{"type":"event","name":"Mint","inputs":[{"name":"tokenId","type":"string","indexed":true,"internalType":"string"},{"name":"amount","type":"uint256","indexed":false,"internalType":"uint256"}],"anonymous":false},{"type":"event","name":"OwnershipTransferred","inputs":[{"name":"previousOwner","type":"address","indexed":true,"internalType":"address"},{"name":"newOwner","type":"address","indexed":true,"internalType":"address"}],"anonymous":false},{"type":"event","name":"Unlock","inputs":[{"name":"tokenId","type":"string","indexed":true,"internalType":"string"},{"name":"amount","type":"uint256","indexed":false,"internalType":"uint256"}],"anonymous":false},{"type":"event","name":"Unwrap","inputs":[{"name":"tokenId","type":"string","indexed":true,"internalType":"string"}],"anonymous":false},{"type":"event","name":"Wrap","inputs":[{"name":"tokenId","type":"string","indexed":true,"internalType":"string"},{"name":"contractAddress","type":"address","indexed":false,"internalType":"address"},{"name":"tokenType","type":"uint8","indexed":false,"internalType":"enum TokenType"},{"name":"owner","type":"address","indexed":false,"internalType":"address"}],"anonymous":false},{"type":"error","name":"InsuficientAmountLocked","inputs":[{"name":"tokenId","type":"string","internalType":"string"},{"name":"amount","type":"uint256","internalType":"uint256"}]},{"type":"error","name":"OwnableInvalidOwner","inputs":[{"name":"owner","type":"address","internalType":"address"}]},{"type":"error","name":"OwnableUnauthorizedAccount","inputs":[{"name":"account","type":"address","internalType":"address"}]},{"type":"error","name":"TokenAlreadyWrapped","inputs":[{"name":"tokenId","type":"string","internalType":"string"}]},{"type":"error","name":"TokenLocked","inputs":[{"name":"tokenId","type":"string","internalType":"string"}]},{"type":"error","name":"TokenNotAvailable","inputs":[{"name":"tokenId","type":"string","internalType":"string"}]},{"type":"error","name":"TokenNotLocked","inputs":[{"name":"tokenId","type":"string","internalType":"string"}]},{"type":"error","name":"TokenNotUnlocked","inputs":[{"name":"tokenId","type":"string","internalType":"string"}]}],"bytecode":{"object":"0x60806040523480156200001157600080fd5b5060405162002caf38038062002caf8339810160408190526200003491620000e6565b806001600160a01b0381166200006457604051631e4fbdf760e01b81526000600482015260240160405180910390fd5b6200006f8162000096565b50600480546001600160a01b0319166001600160a01b039290921691909117905562000118565b600080546001600160a01b038381166001600160a01b0319831681178455604051919092169283917f8be0079c531659141344cd1fd0a4f28419497f9722a3daafe3b4186f6b6457e09190a35050565b600060208284031215620000f957600080fd5b81516001600160a01b03811681146200011157600080fd5b9392505050565b612b8780620001286000396000f3fe608060405234801561001057600080fd5b50600436106101005760003560e01c80638da5cb5b11610097578063d9cf884c11610066578063d9cf884c1461022f578063e1efb59614610242578063ea8f547f14610255578063f2fde38b146102ac57600080fd5b80638da5cb5b146101d8578063a1bc17c5146101e9578063b48272cc146101fc578063c1733f681461020f57600080fd5b80635137b8a7116100d35780635137b8a714610193578063623662ad146101a8578063715018a6146101bb57806372d4c33b146101c557600080fd5b806304c2320b14610105578063056b01ce146101325780631255c189146101555780634534ba1714610180575b600080fd5b610118610113366004611e8b565b6102bf565b604051610129959493929190611f39565b60405180910390f35b610145610140366004611f7d565b61039f565b6040519015158152602001610129565b600454610168906001600160a01b031681565b6040516001600160a01b039091168152602001610129565b61014561018e366004611fd8565b6104ce565b61019b610639565b604051610129919061202e565b6101456101b63660046121e0565b610712565b6101c36109c7565b005b6101456101d336600461244a565b6109db565b6000546001600160a01b0316610168565b6101456101f7366004611e8b565b610abc565b61014561020a366004611f7d565b610caf565b61022261021d366004611e8b565b610df6565b60405161012991906124b8565b61014561023d366004611f7d565b610f49565b610145610250366004611f7d565b6110a7565b61029e61026336600461251d565b8151602081840181018051600282529282019482019490942091909352909152600090815260409020805460039091015460ff918216911682565b60405161012992919061257a565b6101c36102ba366004612597565b6111b1565b805160208183018101805160018083529383019290940191909120929052815490820180546001600160a01b03831693600160a01b90930460ff16929190610306906125b2565b80601f0160208091040260200160405190810160405280929190818152602001828054610332906125b2565b801561037f5780601f106103545761010080835404028352916020019161037f565b820191906000526020600020905b81548152906001019060200180831161036257829003601f168201915b50505050600283015460039093015491926001600160a01b031691905085565b60006103a96111ef565b60006001600160a01b03166001846040516103c491906125ec565b908152604051908190036020019020546001600160a01b031603610406578260405163c0bab25f60e01b81526004016103fd9190612608565b60405180910390fd5b6104128360008461121c565b6104575760405162461bcd60e51b81526020600482015260166024820152751b5a5b9d08185cdcd95d0818d85b1b0819985a5b195960521b60448201526064016103fd565b8160018460405161046891906125ec565b908152604051908190036020018120600301919091556104899084906125ec565b604051908190038120838252907f0a4e1e5035320483d096cf114513007c4eda3853a4dca806da2d9faec60470a6906020015b60405180910390a25060015b92915050565b60006104d86111ef565b816001856040516104e991906125ec565b90815260200160405180910390206003015410156105495760405162461bcd60e51b815260206004820181905260248201527f61737369676e206173736574206173736574206973206e6f74206c6f636b656460448201526064016103fd565b6105568460028486611227565b6105a25760405162461bcd60e51b815260206004820152601860248201527f61737369676e2061737365742063616c6c206661696c6564000000000000000060448201526064016103fd565b816001856040516105b391906125ec565b908152602001604051809103902060030160008282546105d39190612631565b90915550506040516105e69085906125ec565b604080519182900382206001600160a01b038616835260208301859052917f0b3112bdbedc0251766a323a5c6ad4df77174bbc08bd61b944815ad9efe8d54c910160405180910390a25060019392505050565b60606003805480602002602001604051908101604052809291908181526020016000905b8282101561070957838290600052602060002001805461067c906125b2565b80601f01602080910402602001604051908101604052809291908181526020018280546106a8906125b2565b80156106f55780601f106106ca576101008083540402835291602001916106f5565b820191906000526020600020905b8154815290600101906020018083116106d857829003601f168201915b50505050508152602001906001019061065d565b50505050905090565b600061071c6111ef565b60006001600160a01b031660018560405161073791906125ec565b908152604051908190036020019020546001600160a01b03161461077057836040516319eac8d160e21b81526004016103fd9190612608565b61077a8483611540565b60028460405161078a91906125ec565b9081526040805160209281900383019020600360008181529190935220015460ff161561082e576107bc846003611660565b61082e5760405162461bcd60e51b815260206004820152603c60248201527f436f6e747261637420646f6573206e6f742068617665207065726d697373696f60448201527f6e20746f20696e74657261637420776974682074686520746f6b656e0000000060648201526084016103fd565b6040518060a00160405280876001600160a01b0316815260200186600381111561085a5761085a611ebf565b8152602001858152602001846001600160a01b03168152602001600081525060018560405161088991906125ec565b908152604051908190036020908101909120825181546001600160a01b039091166001600160a01b031982168117835592840151919283916001600160a81b03191617600160a01b8360038111156108e3576108e3611ebf565b0217905550604082015160018201906108fc9082612692565b5060608201516002820180546001600160a01b0319166001600160a01b0390921691909117905560809091015160039182015580546001810182556000919091527fc2575a0e9e593c00f959f8c92f12db2869c3395a3b0502d05e2516446f71f85b016109698582612692565b508360405161097891906125ec565b60405180910390207fdb9aba559597d42589517445706b719df3e068de14750a8d3a384c12fa6b82e68787866040516109b393929190612751565b60405180910390a250600195945050505050565b6109cf6111ef565b6109d96000611676565b565b60006109e56111ef565b3063623662ad868686866000604051908082528060200260200182016040528015610a4d57816020015b610a3a6040805160808101909152806000815260606020820181905260408201819052600091015290565b815260200190600190039081610a0f5790505b506040518663ffffffff1660e01b8152600401610a6e95949392919061280d565b6020604051808303816000875af1158015610a8d573d6000803e3d6000fd5b505050506040513d601f19601f82011682018060405250810190610ab1919061293b565b90505b949350505050565b6000610ac66111ef565b60006001600160a01b0316600183604051610ae191906125ec565b908152604051908190036020019020546001600160a01b031603610b1a578160405163c0bab25f60e01b81526004016103fd9190612608565b6000600183604051610b2c91906125ec565b9081526020016040518091039020600301541115610b5f5781604051635be9608560e11b81526004016103fd9190612608565b610c11600183604051610b7291906125ec565b90815260200160405180910390206001018054610b8e906125b2565b80601f0160208091040260200160405190810160405280929190818152602001828054610bba906125b2565b8015610c075780601f10610bdc57610100808354040283529160200191610c07565b820191906000526020600020905b815481529060010190602001808311610bea57829003601f168201915b50505050506116c6565b600182604051610c2191906125ec565b90815260405190819003602001902080546001600160a81b03191681556000610c4d6001830182611ba1565b506002810180546001600160a01b03191690556000600390910155604051610c769083906125ec565b604051908190038120907f3855d31914452a5e7361730662e60834555d7cb26d380140894d85fd0d13b85490600090a25060015b919050565b6000610cb96111ef565b81600184604051610cca91906125ec565b9081526020016040518091039020600301541015610d2a5760405162461bcd60e51b815260206004820152601e60248201527f6275726e206173736574206173736574206973206e6f74206c6f636b6564000060448201526064016103fd565b610d368360018461121c565b610d7b5760405162461bcd60e51b8152602060048201526016602482015275189d5c9b88185cdcd95d0818d85b1b0819985a5b195960521b60448201526064016103fd565b81600184604051610d8c91906125ec565b90815260200160405180910390206003016000828254610dac9190612631565b9091555050604051610dbf9084906125ec565b604051908190038120838252907fa0237080cf48d9e1fbb9ef1f82e33b11170d047b2b540a73b457d0916d53ee99906020016104bc565b610e286040805160a0810190915260008082526020820190815260606020820181905260006040830181905291015290565b600182604051610e3891906125ec565b908152604080516020928190038301812060a0820190925281546001600160a01b03811682529092830190600160a01b900460ff166003811115610e7e57610e7e611ebf565b6003811115610e8f57610e8f611ebf565b8152602001600182018054610ea3906125b2565b80601f0160208091040260200160405190810160405280929190818152602001828054610ecf906125b2565b8015610f1c5780601f10610ef157610100808354040283529160200191610f1c565b820191906000526020600020905b815481529060010190602001808311610eff57829003601f168201915b505050918352505060028201546001600160a01b0316602082015260039091015460409091015292915050565b6000610f536111ef565b60006001600160a01b0316600184604051610f6e91906125ec565b908152604051908190036020019020546001600160a01b031603610fa7578260405163c0bab25f60e01b81526004016103fd9190612608565b81600184604051610fb891906125ec565b9081526020016040518091039020600301541015610fed57828260405163076abcf360e51b81526004016103fd929190612958565b6000610ffb8460058561121c565b9050801561108c578260018560405161101491906125ec565b908152602001604051809103902060030160008282546110349190612631565b90915550506040516110479085906125ec565b604051908190038120848252907f7b3c894115251262b174b7aeab24a57e00bc2e8853d1ef2f57a217edaa69c06e906020015b60405180910390a260019150506104c8565b836040516358300fe760e01b81526004016103fd9190612608565b60006110b16111ef565b60006001600160a01b03166001846040516110cc91906125ec565b908152604051908190036020019020546001600160a01b031603611105578260405163c0bab25f60e01b81526004016103fd9190612608565b60006111138460048561121c565b90508015611196578260018560405161112c91906125ec565b9081526020016040518091039020600301600082825461114c919061297a565b909155505060405161115f9085906125ec565b604051908190038120848252907fc480ef4e831b2ca5eb0b2f95c6564d9a56af5b3fe2383393008e3f1708dc97979060200161107a565b8360405163412204b560e11b81526004016103fd9190612608565b6111b96111ef565b6001600160a01b0381166111e357604051631e4fbdf760e01b8152600060048201526024016103fd565b6111ec81611676565b50565b6000546001600160a01b031633146109d95760405163118cdaa760e01b81523360048201526024016103fd565b6000610ab484848460005b600060028560405161123991906125ec565b9081526020016040518091039020600085600581111561125b5761125b611ebf565b600581111561126c5761126c611ebf565b815260208101919091526040016000206003015460ff1661128f57506000610ab4565b60005b6002866040516112a291906125ec565b908152602001604051809103902060008660058111156112c4576112c4611ebf565b60058111156112d5576112d5611ebf565b815260208101919091526040016000206001015481101561153457600060028760405161130291906125ec565b9081526020016040518091039020600087600581111561132457611324611ebf565b600581111561133557611335611ebf565b815260200190815260200160002060010182815481106113575761135761298d565b9060005260206000200160405160200161137191906129a3565b604051602081830303815290604052805190602001209050600061148d8261148860028b6040516113a291906125ec565b908152602001604051809103902060008b60058111156113c4576113c4611ebf565b60058111156113d5576113d5611ebf565b815260200190815260200160002060020186815481106113f7576113f761298d565b9060005260206000200180548060200260200160405190810160405280929190818152602001828054801561147b57602002820191906000526020600020906000905b82829054906101000a900460ff16600681111561145957611459611ebf565b81526020600192830181810494850194909303909202910180841161143a5790505b50505050508b898b611824565b611af3565b905060006001896040516114a191906125ec565b908152604051908190036020018120546001600160a01b0316906114c69084906125ec565b6000604051808303816000865af19150503d8060008114611503576040519150601f19603f3d011682016040523d82523d6000602084013e611508565b606091505b505090508061151e576000945050505050610ab4565b505050808061152c90612a19565b915050611292565b50600195945050505050565b60005b815181101561165b5781818151811061155e5761155e61298d565b602002602001015160028460405161157691906125ec565b908152602001604051809103902060008484815181106115985761159861298d565b60200260200101516000015160058111156115b5576115b5611ebf565b60058111156115c6576115c6611ebf565b8152602081019190915260400160002081518154829060ff191660018360058111156115f4576115f4611ebf565b021790555060208281015180516116119260018501920190611bdb565b506040820151805161162d916002840191602090910190611c31565b50606091909101516003909101805460ff19169115159190911790558061165381612a19565b915050611543565b505050565b600061166f8383600080611227565b9392505050565b600080546001600160a01b038381166001600160a01b0319831681178455604051919092169283917f8be0079c531659141344cd1fd0a4f28419497f9722a3daafe3b4186f6b6457e09190a35050565b60005b60035481101561182057611782600382815481106116e9576116e961298d565b9060005260206000200180546116fe906125b2565b80601f016020809104026020016040519081016040528092919081815260200182805461172a906125b2565b80156117775780601f1061174c57610100808354040283529160200191611777565b820191906000526020600020905b81548152906001019060200180831161175a57829003601f168201915b505050505083611b7c565b1561180e576003805461179790600190612631565b815481106117a7576117a761298d565b90600052602060002001600382815481106117c4576117c461298d565b9060005260206000200190816117da9190612a32565b5060038054806117ec576117ec612b0c565b6001900381819060005260206000200160006118089190611ba1565b90555050565b8061181881612a19565b9150506116c9565b5050565b6060600085516001600160401b0381111561184157611841611dae565b60405190808252806020026020018201604052801561187457816020015b606081526020019060019003908161185f5790505b50905060005b8651811015611ae95760058782815181106118975761189761298d565b602002602001015160068111156118b0576118b0611ebf565b036118f25760408051306020820152015b6040516020818303038152906040528282815181106118e2576118e261298d565b6020026020010181905250611ad7565b60028782815181106119065761190661298d565b6020026020010151600681111561191f5761191f611ebf565b0361193557856040516020016118c19190612608565b60048782815181106119495761194961298d565b6020026020010151600681111561196257611962611ebf565b03611978576040805160208101869052016118c1565b600387828151811061198c5761198c61298d565b602002602001015160068111156119a5576119a5611ebf565b036119e3576001866040516119ba91906125ec565b908152604080519182900360209081018320600201546001600160a01b031690830152016118c1565b60008782815181106119f7576119f761298d565b60200260200101516006811115611a1057611a10611ebf565b03611a4b57600186604051611a2591906125ec565b908152604080519182900360209081018320546001600160a01b031690830152016118c1565b6006878281518110611a5f57611a5f61298d565b60200260200101516006811115611a7857611a78611ebf565b03611a9657604080516001600160a01b0387166020820152016118c1565b60405162461bcd60e51b815260206004820152601660248201527515985c9a58589b19481b9bdd081cdd5c1c1bdc9d195960521b60448201526064016103fd565b80611ae181612a19565b91505061187a565b5095945050505050565b604080516001600160e01b03198416602082015281516004818303018152602490910190915260005b8251811015611b755781838281518110611b3857611b3861298d565b6020026020010151604051602001611b51929190612b22565b60405160208183030381529060405291508080611b6d90612a19565b915050611b1c565b5092915050565b60008151835114801561166f5750508051602091820120825192909101919091201490565b508054611bad906125b2565b6000825580601f10611bbd575050565b601f0160209004906000526020600020908101906111ec9190611c8a565b828054828255906000526020600020908101928215611c21579160200282015b82811115611c215782518290611c119082612692565b5091602001919060010190611bfb565b50611c2d929150611c9f565b5090565b828054828255906000526020600020908101928215611c7e579160200282015b82811115611c7e5782518051611c6e918491602090910190611cbc565b5091602001919060010190611c51565b50611c2d929150611d6c565b5b80821115611c2d5760008155600101611c8b565b80821115611c2d576000611cb38282611ba1565b50600101611c9f565b82805482825590600052602060002090601f01602090048101928215611d605791602002820160005b83821115611d3157835183826101000a81548160ff02191690836006811115611d1057611d10611ebf565b02179055509260200192600101602081600001049283019260010302611ce5565b8015611d5e5782816101000a81549060ff0219169055600101602081600001049283019260010302611d31565b505b50611c2d929150611c8a565b80821115611c2d576000611d808282611d89565b50600101611d6c565b50805460008255601f0160209004906000526020600020908101906111ec9190611c8a565b634e487b7160e01b600052604160045260246000fd5b604051608081016001600160401b0381118282101715611de657611de6611dae565b60405290565b604051601f8201601f191681016001600160401b0381118282101715611e1457611e14611dae565b604052919050565b600082601f830112611e2d57600080fd5b81356001600160401b03811115611e4657611e46611dae565b611e59601f8201601f1916602001611dec565b818152846020838601011115611e6e57600080fd5b816020850160208301376000918101602001919091529392505050565b600060208284031215611e9d57600080fd5b81356001600160401b03811115611eb357600080fd5b610ab484828501611e1c565b634e487b7160e01b600052602160045260246000fd5b60048110611ee557611ee5611ebf565b9052565b60005b83811015611f04578181015183820152602001611eec565b50506000910152565b60008151808452611f25816020860160208601611ee9565b601f01601f19169290920160200192915050565b6001600160a01b038681168252600090611f566020840188611ed5565b60a06040840152611f6a60a0840187611f0d565b9416606083015250608001529392505050565b60008060408385031215611f9057600080fd5b82356001600160401b03811115611fa657600080fd5b611fb285828601611e1c565b95602094909401359450505050565b80356001600160a01b0381168114610caa57600080fd5b600080600060608486031215611fed57600080fd5b83356001600160401b0381111561200357600080fd5b61200f86828701611e1c565b93505061201e60208501611fc1565b9150604084013590509250925092565b6000602080830181845280855180835260408601915060408160051b870101925083870160005b8281101561208357603f19888603018452612071858351611f0d565b94509285019290850190600101612055565b5092979650505050505050565b803560048110610caa57600080fd5b60006001600160401b038211156120b8576120b8611dae565b5060051b60200190565b803560068110610caa57600080fd5b600082601f8301126120e257600080fd5b813560206120f76120f28361209f565b611dec565b828152600592831b850182019282820191908785111561211657600080fd5b8387015b858110156121ba5780356001600160401b038111156121395760008081fd5b8801603f81018a1361214b5760008081fd5b85810135604061215d6120f28361209f565b82815291851b8301810191888101908d84111561217a5760008081fd5b938201935b838510156121a95784359250600783106121995760008081fd5b828252938901939089019061217f565b88525050509385019350840161211a565b5090979650505050505050565b80151581146111ec57600080fd5b8035610caa816121c7565b600080600080600060a086880312156121f857600080fd5b61220186611fc1565b945061220f60208701612090565b93506001600160401b036040870135111561222957600080fd5b6122398760408801358801611e1c565b925061224760608701611fc1565b91506001600160401b036080870135111561226157600080fd5b86601f60808801358801011261227657600080fd5b6122896120f2608088013588013561209f565b6080870135870180358083526020808401939260059290921b909101018910156122b257600080fd5b602060808901358901015b60808901358901803560051b0160200181101561243a576001600160401b03813511156122e957600080fd5b803560808a01358a01016080601f19828d0301121561230757600080fd5b61230f611dc4565b61231b602083016120c2565b81526001600160401b036040830135111561233557600080fd5b8b603f60408401358401011261234a57600080fd5b6123606120f2602060408501358501013561209f565b6020604084810135850182810135808552928401939260051b01018e101561238757600080fd5b6040808501358501015b6040858101358601602081013560051b01018110156123e3576001600160401b03813511156123bf57600080fd5b6123d58f60408335604089013589010101611e1c565b835260209283019201612391565b506020830152506001600160401b036060830135111561240257600080fd5b6124158c602060608501358501016120d1565b6040820152612426608083016121d5565b6060820152845250602092830192016122bd565b5080925050509295509295909350565b6000806000806080858703121561246057600080fd5b61246985611fc1565b935061247760208601612090565b925060408501356001600160401b0381111561249257600080fd5b61249e87828801611e1c565b9250506124ad60608601611fc1565b905092959194509250565b60208152600060018060a01b0380845116602084015260208401516124e06040850182611ed5565b50604084015160a060608501526124fa60c0850182611f0d565b9050816060860151166080850152608085015160a0850152809250505092915050565b6000806040838503121561253057600080fd5b82356001600160401b0381111561254657600080fd5b61255285828601611e1c565b925050612561602084016120c2565b90509250929050565b60068110611ee557611ee5611ebf565b60408101612588828561256a565b82151560208301529392505050565b6000602082840312156125a957600080fd5b61166f82611fc1565b600181811c908216806125c657607f821691505b6020821081036125e657634e487b7160e01b600052602260045260246000fd5b50919050565b600082516125fe818460208701611ee9565b9190910192915050565b60208152600061166f6020830184611f0d565b634e487b7160e01b600052601160045260246000fd5b818103818111156104c8576104c861261b565b601f82111561165b57600081815260208120601f850160051c8101602086101561266b5750805b601f850160051c820191505b8181101561268a57828155600101612677565b505050505050565b81516001600160401b038111156126ab576126ab611dae565b6126bf816126b984546125b2565b84612644565b602080601f8311600181146126f457600084156126dc5750858301515b600019600386901b1c1916600185901b17855561268a565b600085815260208120601f198616915b8281101561272357888601518255948401946001909101908401612704565b50858210156127415787850151600019600388901b60f8161c191681555b5050505050600190811b01905550565b6001600160a01b03848116825260608201906127706020840186611ed5565b808416604084015250949350505050565b600081518084526020808501808196508360051b810191508286016000805b868110156127ff578385038a52825180518087529087019087870190845b818110156127ea578351600781106127d8576127d8611ebf565b835292890192918901916001016127be565b50509a87019a955050918501916001016127a0565b509298975050505050505050565b6001600160a01b03868116825260009060a090602061282e8186018a611ed5565b604083818701526128418487018a611f0d565b6060848a168189015260809450878203858901528189518084528584019150858160051b850101868c0160005b8381101561292357601f1987840301855281518a840161288f85835161256a565b818b0151858c018d9052805191829052600582901b86018e0191908c01908e87019060005b818110156128e257609f198986030183526128d0858551611f0d565b9450928e0192918e01916001016128b4565b50505050898201518582038b8701526128fb8282612781565b92890151801515878b01529291506129109050565b958a01959350509088019060010161286e565b50508099505050505050505050509695505050505050565b60006020828403121561294d57600080fd5b815161166f816121c7565b60408152600061296b6040830185611f0d565b90508260208301529392505050565b808201808211156104c8576104c861261b565b634e487b7160e01b600052603260045260246000fd5b60008083546129b1816125b2565b600182811680156129c957600181146129de57612a0d565b60ff1984168752821515830287019450612a0d565b8760005260208060002060005b85811015612a045781548a8201529084019082016129eb565b50505082870194505b50929695505050505050565b600060018201612a2b57612a2b61261b565b5060010190565b818103612a3d575050565b612a4782546125b2565b6001600160401b03811115612a5e57612a5e611dae565b612a6c816126b984546125b2565b6000601f821160018114612aa05760008315612a885750848201545b600019600385901b1c1916600184901b178455612b05565b600085815260209020601f19841690600086815260209020845b83811015612ada5782860154825560019586019590910190602001612aba565b5085831015612af85781850154600019600388901b60f8161c191681555b50505060018360011b0184555b5050505050565b634e487b7160e01b600052603160045260246000fd5b60008351612b34818460208801611ee9565b835190830190612b48818360208801611ee9565b0194935050505056fea26469706673582212209f8c248896d6909e8ae94619c8cacd6a2bfafb79dd2931bf07993ef4b6a8816e64736f6c63430008140033","linkReferences":{}},"methodIdentifiers":{"assign(string,address,uint256)":"4534ba17","bridge_address()":"1255c189","burn(string,uint256)":"b48272cc","getAllAssetsIDs()":"5137b8a7","getToken(string)":"c1733f68","lock(string,uint256)":"e1efb596","mint(string,uint256)":"056b01ce","owner()":"8da5cb5b","renounceOwnership()":"715018a6","tokens(string)":"04c2320b","tokensInteractions(string,uint8)":"ea8f547f","transferOwnership(address)":"f2fde38b","unlock(string,uint256)":"d9cf884c","unwrap(string)":"a1bc17c5","wrap(address,uint8,string,address)":"72d4c33b","wrap(address,uint8,string,address,(uint8,string[],uint8[][],bool)[])":"623662ad"},"id":7}