{"abi":[{"type":"constructor","inputs":[{"name":"_bridge_address","type":"address","internalType":"address"}],"stateMutability":"nonpayable"},{"type":"function","name":"assign","inputs":[{"name":"tokenId","type":"string","internalType":"string"},{"name":"receiver_account","type":"address","internalType":"address"},{"name":"amount","type":"uint256","internalType":"uint256"}],"outputs":[{"name":"success","type":"bool","internalType":"bool"}],"stateMutability":"nonpayable"},{"type":"function","name":"bridge_address","inputs":[],"outputs":[{"name":"","type":"address","internalType":"address"}],"stateMutability":"view"},{"type":"function","name":"burn","inputs":[{"name":"tokenId","type":"string","internalType":"string"},{"name":"amount","type":"uint256","internalType":"uint256"}],"outputs":[{"name":"success","type":"bool","internalType":"bool"}],"stateMutability":"nonpayable"},{"type":"function","name":"getAllAssetsIDs","inputs":[],"outputs":[{"name":"","type":"string[]","internalType":"string[]"}],"stateMutability":"view"},{"type":"function","name":"getToken","inputs":[{"name":"tokenId","type":"string","internalType":"string"}],"outputs":[{"name":"token","type":"tuple","internalType":"struct Token","components":[{"name":"contractAddress","type":"address","internalType":"address"},{"name":"tokenType","type":"uint8","internalType":"enum TokenType"},{"name":"tokenId","type":"string","internalType":"string"},{"name":"owner","type":"address","internalType":"address"},{"name":"amount","type":"uint256","internalType":"uint256"}]}],"stateMutability":"view"},{"type":"function","name":"lock","inputs":[{"name":"tokenId","type":"string","internalType":"string"},{"name":"amount","type":"uint256","internalType":"uint256"}],"outputs":[{"name":"success","type":"bool","internalType":"bool"}],"stateMutability":"nonpayable"},{"type":"function","name":"mint","inputs":[{"name":"tokenId","type":"string","internalType":"string"},{"name":"amount","type":"uint256","internalType":"uint256"}],"outputs":[{"name":"success","type":"bool","internalType":"bool"}],"stateMutability":"nonpayable"},{"type":"function","name":"owner","inputs":[],"outputs":[{"name":"","type":"address","internalType":"address"}],"stateMutability":"view"},{"type":"function","name":"renounceOwnership","inputs":[],"outputs":[],"stateMutability":"nonpayable"},{"type":"function","name":"tokens","inputs":[{"name":"","type":"string","internalType":"string"}],"outputs":[{"name":"contractAddress","type":"address","internalType":"address"},{"name":"tokenType","type":"uint8","internalType":"enum TokenType"},{"name":"tokenId","type":"string","internalType":"string"},{"name":"owner","type":"address","internalType":"address"},{"name":"amount","type":"uint256","internalType":"uint256"}],"stateMutability":"view"},{"type":"function","name":"tokensInteractions","inputs":[{"name":"","type":"string","internalType":"string"},{"name":"","type":"uint8","internalType":"enum InteractionType"}],"outputs":[{"name":"interactionType","type":"uint8","internalType":"enum InteractionType"},{"name":"available","type":"bool","internalType":"bool"}],"stateMutability":"view"},{"type":"function","name":"transferOwnership","inputs":[{"name":"newOwner","type":"address","internalType":"address"}],"outputs":[],"stateMutability":"nonpayable"},{"type":"function","name":"unlock","inputs":[{"name":"tokenId","type":"string","internalType":"string"},{"name":"amount","type":"uint256","internalType":"uint256"}],"outputs":[{"name":"success","type":"bool","internalType":"bool"}],"stateMutability":"nonpayable"},{"type":"function","name":"unwrap","inputs":[{"name":"tokenId","type":"string","internalType":"string"}],"outputs":[{"name":"success","type":"bool","internalType":"bool"}],"stateMutability":"nonpayable"},{"type":"function","name":"wrap","inputs":[{"name":"contractAddress","type":"address","internalType":"address"},{"name":"tokenType","type":"uint8","internalType":"enum TokenType"},{"name":"tokenId","type":"string","internalType":"string"},{"name":"owner","type":"address","internalType":"address"},{"name":"interactions","type":"tuple[]","internalType":"struct InteractionSignature[]","components":[{"name":"interactionType","type":"uint8","internalType":"enum InteractionType"},{"name":"functionsSignature","type":"string[]","internalType":"string[]"},{"name":"variables","type":"uint8[][]","internalType":"enum VarType[][]"},{"name":"available","type":"bool","internalType":"bool"}]}],"outputs":[{"name":"wrapSuccess","type":"bool","internalType":"bool"}],"stateMutability":"nonpayable"},{"type":"function","name":"wrap","inputs":[{"name":"contractAddress","type":"address","internalType":"address"},{"name":"tokenType","type":"uint8","internalType":"enum TokenType"},{"name":"tokenId","type":"string","internalType":"string"},{"name":"owner","type":"address","internalType":"address"}],"outputs":[{"name":"wrapSuccess","type":"bool","internalType":"bool"}],"stateMutability":"nonpayable"},{"type":"event","name":"Assign","inputs":[{"name":"tokenId","type":"string","indexed":true,"internalType":"string"},{"name":"receiver_account","type":"address","indexed":false,"internalType":"address"},{"name":"amount","type":"uint256","indexed":false,"internalType":"uint256"}],"anonymous":false},{"type":"event","name":"Burn","inputs":[{"name":"tokenId","type":"string","indexed":true,"internalType":"string"},{"name":"amount","type":"uint256","indexed":false,"internalType":"uint256"}],"anonymous":false},{"type":"event","name":"Changed","inputs":[{"name":"id","type":"string","indexed":true,"internalType":"string"},{"name":"value","type":"bytes[]","indexed":false,"internalType":"bytes[]"}],"anonymous":false},{"type":"event","name":"Lock","inputs":[{"name":"tokenId","type":"string","indexed":true,"internalType":"string"},{"name":"amount","type":"uint256","indexed":false,"internalType":"uint256"}],"anonymous":false},{"type":"event","name":"Mint","inputs":[{"name":"tokenId","type":"string","indexed":true,"internalType":"string"},{"name":"amount","type":"uint256","indexed":false,"internalType":"uint256"}],"anonymous":false},{"type":"event","name":"OwnershipTransferred","inputs":[{"name":"previousOwner","type":"address","indexed":true,"internalType":"address"},{"name":"newOwner","type":"address","indexed":true,"internalType":"address"}],"anonymous":false},{"type":"event","name":"Unlock","inputs":[{"name":"tokenId","type":"string","indexed":true,"internalType":"string"},{"name":"amount","type":"uint256","indexed":false,"internalType":"uint256"}],"anonymous":false},{"type":"event","name":"Unwrap","inputs":[{"name":"tokenId","type":"string","indexed":true,"internalType":"string"}],"anonymous":false},{"type":"event","name":"Wrap","inputs":[{"name":"tokenId","type":"string","indexed":true,"internalType":"string"},{"name":"contractAddress","type":"address","indexed":false,"internalType":"address"},{"name":"tokenType","type":"uint8","indexed":false,"internalType":"enum TokenType"},{"name":"owner","type":"address","indexed":false,"internalType":"address"}],"anonymous":false},{"type":"error","name":"InsuficientAmountLocked","inputs":[{"name":"tokenId","type":"string","internalType":"string"},{"name":"amount","type":"uint256","internalType":"uint256"}]},{"type":"error","name":"OwnableInvalidOwner","inputs":[{"name":"owner","type":"address","internalType":"address"}]},{"type":"error","name":"OwnableUnauthorizedAccount","inputs":[{"name":"account","type":"address","internalType":"address"}]},{"type":"error","name":"TokenAlreadyWrapped","inputs":[{"name":"tokenId","type":"string","internalType":"string"}]},{"type":"error","name":"TokenLocked","inputs":[{"name":"tokenId","type":"string","internalType":"string"}]},{"type":"error","name":"TokenNotAvailable","inputs":[{"name":"tokenId","type":"string","internalType":"string"}]},{"type":"error","name":"TokenNotLocked","inputs":[{"name":"tokenId","type":"string","internalType":"string"}]},{"type":"error","name":"TokenNotUnlocked","inputs":[{"name":"tokenId","type":"string","internalType":"string"}]}],"bytecode":{"object":"0x60806040523480156200001157600080fd5b50604051620046ae380380620046ae833981810160405281019062000037919062000235565b80600073ffffffffffffffffffffffffffffffffffffffff168173ffffffffffffffffffffffffffffffffffffffff1603620000ad5760006040517f1e4fbdf7000000000000000000000000000000000000000000000000000000008152600401620000a4919062000278565b60405180910390fd5b620000be816200010760201b60201c565b5080600460006101000a81548173ffffffffffffffffffffffffffffffffffffffff021916908373ffffffffffffffffffffffffffffffffffffffff1602179055505062000295565b60008060009054906101000a900473ffffffffffffffffffffffffffffffffffffffff169050816000806101000a81548173ffffffffffffffffffffffffffffffffffffffff021916908373ffffffffffffffffffffffffffffffffffffffff1602179055508173ffffffffffffffffffffffffffffffffffffffff168173ffffffffffffffffffffffffffffffffffffffff167f8be0079c531659141344cd1fd0a4f28419497f9722a3daafe3b4186f6b6457e060405160405180910390a35050565b600080fd5b600073ffffffffffffffffffffffffffffffffffffffff82169050919050565b6000620001fd82620001d0565b9050919050565b6200020f81620001f0565b81146200021b57600080fd5b50565b6000815190506200022f8162000204565b92915050565b6000602082840312156200024e576200024d620001cb565b5b60006200025e848285016200021e565b91505092915050565b6200027281620001f0565b82525050565b60006020820190506200028f600083018462000267565b92915050565b61440980620002a56000396000f3fe608060405234801561001057600080fd5b50600436106101005760003560e01c80638da5cb5b11610097578063d9cf884c11610066578063d9cf884c146102ed578063e1efb5961461031d578063ea8f547f1461034d578063f2fde38b1461037e57610100565b80638da5cb5b1461023f578063a1bc17c51461025d578063b48272cc1461028d578063c1733f68146102bd57610100565b80635137b8a7116100d35780635137b8a7146101b7578063623662ad146101d5578063715018a61461020557806372d4c33b1461020f57610100565b806304c2320b14610105578063056b01ce146101395780631255c189146101695780634534ba1714610187575b600080fd5b61011f600480360381019061011a9190612871565b61039a565b604051610130959493929190612a0a565b60405180910390f35b610153600480360381019061014e9190612a90565b6104bb565b6040516101609190612b07565b60405180910390f35b61017161063f565b60405161017e9190612b22565b60405180910390f35b6101a1600480360381019061019c9190612b69565b610665565b6040516101ae9190612b07565b60405180910390f35b6101bf6107b1565b6040516101cc9190612ce4565b60405180910390f35b6101ef60048036038101906101ea91906131c6565b61088a565b6040516101fc9190612b07565b60405180910390f35b61020d610bfd565b005b61022960048036038101906102249190613279565b610c11565b6040516102369190612b07565b60405180910390f35b610247610cfd565b6040516102549190612b22565b60405180910390f35b61027760048036038101906102729190612871565b610d26565b6040516102849190612b07565b60405180910390f35b6102a760048036038101906102a29190612a90565b610fe1565b6040516102b49190612b07565b60405180910390f35b6102d760048036038101906102d29190612871565b611129565b6040516102e4919061339f565b60405180910390f35b61030760048036038101906103029190612a90565b6112e4565b6040516103149190612b07565b60405180910390f35b61033760048036038101906103329190612a90565b6114f0565b6040516103449190612b07565b60405180910390f35b610367600480360381019061036291906133c1565b611694565b604051610375929190613465565b60405180910390f35b6103986004803603810190610393919061348e565b6116f5565b005b6001818051602081018201805184825260208301602085012081835280955050505050506000915090508060000160009054906101000a900473ffffffffffffffffffffffffffffffffffffffff16908060000160149054906101000a900460ff169080600101805461040c906134ea565b80601f0160208091040260200160405190810160405280929190818152602001828054610438906134ea565b80156104855780601f1061045a57610100808354040283529160200191610485565b820191906000526020600020905b81548152906001019060200180831161046857829003601f168201915b5050505050908060020160009054906101000a900473ffffffffffffffffffffffffffffffffffffffff16908060030154905085565b60006104c561177b565b600073ffffffffffffffffffffffffffffffffffffffff166001846040516104ed9190613557565b908152602001604051809103902060000160009054906101000a900473ffffffffffffffffffffffffffffffffffffffff1673ffffffffffffffffffffffffffffffffffffffff160361057757826040517fc0bab25f00000000000000000000000000000000000000000000000000000000815260040161056e919061356e565b60405180910390fd5b61058383600084611802565b6105c2576040517f08c379a00000000000000000000000000000000000000000000000000000000081526004016105b9906135dc565b60405180910390fd5b816001846040516105d39190613557565b908152602001604051809103902060030181905550826040516105f69190613557565b60405180910390207f0a4e1e5035320483d096cf114513007c4eda3853a4dca806da2d9faec60470a68360405161062d91906135fc565b60405180910390a26001905092915050565b600460009054906101000a900473ffffffffffffffffffffffffffffffffffffffff1681565b600061066f61177b565b816001856040516106809190613557565b90815260200160405180910390206003015410156106d3576040517f08c379a00000000000000000000000000000000000000000000000000000000081526004016106ca90613663565b60405180910390fd5b6106e0846002848661181a565b61071f576040517f08c379a0000000000000000000000000000000000000000000000000000000008152600401610716906136cf565b60405180910390fd5b816001856040516107309190613557565b90815260200160405180910390206003016000828254610750919061371e565b92505081905550836040516107659190613557565b60405180910390207f0b3112bdbedc0251766a323a5c6ad4df77174bbc08bd61b944815ad9efe8d54c848460405161079e929190613752565b60405180910390a2600190509392505050565b60606003805480602002602001604051908101604052809291908181526020016000905b828210156108815783829060005260206000200180546107f4906134ea565b80601f0160208091040260200160405190810160405280929190818152602001828054610820906134ea565b801561086d5780601f106108425761010080835404028352916020019161086d565b820191906000526020600020905b81548152906001019060200180831161085057829003601f168201915b5050505050815260200190600101906107d5565b50505050905090565b600061089461177b565b600073ffffffffffffffffffffffffffffffffffffffff166001856040516108bc9190613557565b908152602001604051809103902060000160009054906101000a900473ffffffffffffffffffffffffffffffffffffffff1673ffffffffffffffffffffffffffffffffffffffff161461094657836040517f67ab234400000000000000000000000000000000000000000000000000000000815260040161093d919061356e565b60405180910390fd5b6109508483611b7f565b6002846040516109609190613557565b9081526020016040518091039020600060036005811115610984576109836128fb565b5b6005811115610996576109956128fb565b5b815260200190815260200160002060030160009054906101000a900460ff1615610a05576109c5846003611cbc565b610a04576040517f08c379a00000000000000000000000000000000000000000000000000000000081526004016109fb906137ed565b60405180910390fd5b5b6040518060a001604052808773ffffffffffffffffffffffffffffffffffffffff168152602001866004811115610a3f57610a3e6128fb565b5b81526020018581526020018473ffffffffffffffffffffffffffffffffffffffff1681526020016000815250600185604051610a7b9190613557565b908152602001604051809103902060008201518160000160006101000a81548173ffffffffffffffffffffffffffffffffffffffff021916908373ffffffffffffffffffffffffffffffffffffffff16021790555060208201518160000160146101000a81548160ff02191690836004811115610afb57610afa6128fb565b5b02179055506040820151816001019081610b1591906139b9565b5060608201518160020160006101000a81548173ffffffffffffffffffffffffffffffffffffffff021916908373ffffffffffffffffffffffffffffffffffffffff16021790555060808201518160030155905050600384908060018154018082558091505060019003906000526020600020016000909190919091509081610b9e91906139b9565b5083604051610bad9190613557565b60405180910390207fdb9aba559597d42589517445706b719df3e068de14750a8d3a384c12fa6b82e6878786604051610be893929190613a8b565b60405180910390a26001905095945050505050565b610c0561177b565b610c0f6000611cd3565b565b6000610c1b61177b565b3073ffffffffffffffffffffffffffffffffffffffff1663623662ad86868686600067ffffffffffffffff811115610c5657610c55612746565b5b604051908082528060200260200182016040528015610c8f57816020015b610c7c612432565b815260200190600190039081610c745790505b506040518663ffffffff1660e01b8152600401610cb0959493929190613e4b565b6020604051808303816000875af1158015610ccf573d6000803e3d6000fd5b505050506040513d601f19601f82011682018060405250810190610cf39190613ec1565b9050949350505050565b60008060009054906101000a900473ffffffffffffffffffffffffffffffffffffffff16905090565b6000610d3061177b565b600073ffffffffffffffffffffffffffffffffffffffff16600183604051610d589190613557565b908152602001604051809103902060000160009054906101000a900473ffffffffffffffffffffffffffffffffffffffff1673ffffffffffffffffffffffffffffffffffffffff1603610de257816040517fc0bab25f000000000000000000000000000000000000000000000000000000008152600401610dd9919061356e565b60405180910390fd5b6000600183604051610df49190613557565b9081526020016040518091039020600301541115610e4957816040517fb7d2c10a000000000000000000000000000000000000000000000000000000008152600401610e40919061356e565b60405180910390fd5b610efb600183604051610e5c9190613557565b90815260200160405180910390206001018054610e78906134ea565b80601f0160208091040260200160405190810160405280929190818152602001828054610ea4906134ea565b8015610ef15780601f10610ec657610100808354040283529160200191610ef1565b820191906000526020600020905b815481529060010190602001808311610ed457829003601f168201915b5050505050611d97565b600182604051610f0b9190613557565b9081526020016040518091039020600080820160006101000a81549073ffffffffffffffffffffffffffffffffffffffff02191690556000820160146101000a81549060ff0219169055600182016000610f65919061246e565b6002820160006101000a81549073ffffffffffffffffffffffffffffffffffffffff02191690556003820160009055505081604051610fa49190613557565b60405180910390207f3855d31914452a5e7361730662e60834555d7cb26d380140894d85fd0d13b85460405160405180910390a260019050919050565b6000610feb61177b565b81600184604051610ffc9190613557565b908152602001604051809103902060030154101561104f576040517f08c379a000000000000000000000000000000000000000000000000000000000815260040161104690613f3a565b60405180910390fd5b61105b83600184611802565b61109a576040517f08c379a000000000000000000000000000000000000000000000000000000000815260040161109190613fa6565b60405180910390fd5b816001846040516110ab9190613557565b908152602001604051809103902060030160008282546110cb919061371e565b92505081905550826040516110e09190613557565b60405180910390207fa0237080cf48d9e1fbb9ef1f82e33b11170d047b2b540a73b457d0916d53ee998360405161111791906135fc565b60405180910390a26001905092915050565b6111316124ae565b6001826040516111419190613557565b90815260200160405180910390206040518060a00160405290816000820160009054906101000a900473ffffffffffffffffffffffffffffffffffffffff1673ffffffffffffffffffffffffffffffffffffffff1673ffffffffffffffffffffffffffffffffffffffff1681526020016000820160149054906101000a900460ff1660048111156111d5576111d46128fb565b5b60048111156111e7576111e66128fb565b5b81526020016001820180546111fb906134ea565b80601f0160208091040260200160405190810160405280929190818152602001828054611227906134ea565b80156112745780601f1061124957610100808354040283529160200191611274565b820191906000526020600020905b81548152906001019060200180831161125757829003601f168201915b505050505081526020016002820160009054906101000a900473ffffffffffffffffffffffffffffffffffffffff1673ffffffffffffffffffffffffffffffffffffffff1673ffffffffffffffffffffffffffffffffffffffff1681526020016003820154815250509050919050565b60006112ee61177b565b600073ffffffffffffffffffffffffffffffffffffffff166001846040516113169190613557565b908152602001604051809103902060000160009054906101000a900473ffffffffffffffffffffffffffffffffffffffff1673ffffffffffffffffffffffffffffffffffffffff16036113a057826040517fc0bab25f000000000000000000000000000000000000000000000000000000008152600401611397919061356e565b60405180910390fd5b816001846040516113b19190613557565b90815260200160405180910390206003015410156114085782826040517fed579e600000000000000000000000000000000000000000000000000000000081526004016113ff929190613fc6565b60405180910390fd5b600061141684600585611802565b905080156114ad578260018560405161142f9190613557565b9081526020016040518091039020600301600082825461144f919061371e565b92505081905550836040516114649190613557565b60405180910390207f7b3c894115251262b174b7aeab24a57e00bc2e8853d1ef2f57a217edaa69c06e8460405161149b91906135fc565b60405180910390a260019150506114ea565b836040517f58300fe70000000000000000000000000000000000000000000000000000000081526004016114e1919061356e565b60405180910390fd5b92915050565b60006114fa61177b565b600073ffffffffffffffffffffffffffffffffffffffff166001846040516115229190613557565b908152602001604051809103902060000160009054906101000a900473ffffffffffffffffffffffffffffffffffffffff1673ffffffffffffffffffffffffffffffffffffffff16036115ac57826040517fc0bab25f0000000000000000000000000000000000000000000000000000000081526004016115a3919061356e565b60405180910390fd5b60006115ba84600485611802565b9050801561165157826001856040516115d39190613557565b908152602001604051809103902060030160008282546115f39190613ff6565b92505081905550836040516116089190613557565b60405180910390207fc480ef4e831b2ca5eb0b2f95c6564d9a56af5b3fe2383393008e3f1708dc97978460405161163f91906135fc565b60405180910390a2600191505061168e565b836040517f8244096a000000000000000000000000000000000000000000000000000000008152600401611685919061356e565b60405180910390fd5b92915050565b600282805160208101820180518482526020830160208501208183528095505050505050602052806000526040600020600091509150508060000160009054906101000a900460ff16908060030160009054906101000a900460ff16905082565b6116fd61177b565b600073ffffffffffffffffffffffffffffffffffffffff168173ffffffffffffffffffffffffffffffffffffffff160361176f5760006040517f1e4fbdf70000000000000000000000000000000000000000000000000000000081526004016117669190612b22565b60405180910390fd5b61177881611cd3565b50565b611783611f02565b73ffffffffffffffffffffffffffffffffffffffff166117a1610cfd565b73ffffffffffffffffffffffffffffffffffffffff1614611800576117c4611f02565b6040517f118cdaa70000000000000000000000000000000000000000000000000000000081526004016117f79190612b22565b60405180910390fd5b565b6000611811848484600061181a565b90509392505050565b600060028560405161182c9190613557565b9081526020016040518091039020600085600581111561184f5761184e6128fb565b5b6005811115611861576118606128fb565b5b815260200190815260200160002060030160009054906101000a900460ff1661188d5760009050611b77565b60005b6002866040516118a09190613557565b908152602001604051809103902060008660058111156118c3576118c26128fb565b5b60058111156118d5576118d46128fb565b5b815260200190815260200160002060010180549050811015611b715760006002876040516119039190613557565b90815260200160405180910390206000876005811115611926576119256128fb565b5b6005811115611938576119376128fb565b5b8152602001908152602001600020600101828154811061195b5761195a61402a565b5b9060005260206000200160405160200161197591906140dc565b6040516020818303038152906040528051906020012090506000611a9982611a9460028b6040516119a69190613557565b908152602001604051809103902060008b60058111156119c9576119c86128fb565b5b60058111156119db576119da6128fb565b5b815260200190815260200160002060020186815481106119fe576119fd61402a565b5b90600052602060002001805480602002602001604051908101604052809291908181526020018280548015611a8757602002820191906000526020600020906000905b82829054906101000a900460ff166006811115611a6157611a606128fb565b5b81526020019060010190602082600001049283019260010382029150808411611a415790505b50505050508b898b611f0a565b612382565b90506000600189604051611aad9190613557565b908152602001604051809103902060000160009054906101000a900473ffffffffffffffffffffffffffffffffffffffff1673ffffffffffffffffffffffffffffffffffffffff1682604051611b03919061413a565b6000604051808303816000865af19150503d8060008114611b40576040519150601f19603f3d011682016040523d82523d6000602084013e611b45565b606091505b5050905080611b5b576000945050505050611b77565b5050508080611b6990614151565b915050611890565b50600190505b949350505050565b60005b8151811015611cb757818181518110611b9e57611b9d61402a565b5b6020026020010151600284604051611bb69190613557565b90815260200160405180910390206000848481518110611bd957611bd861402a565b5b6020026020010151600001516005811115611bf757611bf66128fb565b5b6005811115611c0957611c086128fb565b5b815260200190815260200160002060008201518160000160006101000a81548160ff02191690836005811115611c4257611c416128fb565b5b02179055506020820151816001019080519060200190611c6392919061251b565b506040820151816002019080519060200190611c80929190612574565b5060608201518160030160006101000a81548160ff0219169083151502179055509050508080611caf90614151565b915050611b82565b505050565b6000611ccb838360008061181a565b905092915050565b60008060009054906101000a900473ffffffffffffffffffffffffffffffffffffffff169050816000806101000a81548173ffffffffffffffffffffffffffffffffffffffff021916908373ffffffffffffffffffffffffffffffffffffffff1602179055508173ffffffffffffffffffffffffffffffffffffffff168173ffffffffffffffffffffffffffffffffffffffff167f8be0079c531659141344cd1fd0a4f28419497f9722a3daafe3b4186f6b6457e060405160405180910390a35050565b60005b600380549050811015611efe57611e5760038281548110611dbe57611dbd61402a565b5b906000526020600020018054611dd3906134ea565b80601f0160208091040260200160405190810160405280929190818152602001828054611dff906134ea565b8015611e4c5780601f10611e2157610100808354040283529160200191611e4c565b820191906000526020600020905b815481529060010190602001808311611e2f57829003601f168201915b50505050508361240a565b15611eeb5760036001600380549050611e70919061371e565b81548110611e8157611e8061402a565b5b9060005260206000200160038281548110611e9f57611e9e61402a565b5b906000526020600020019081611eb591906141c4565b506003805480611ec857611ec76142ac565b5b600190038181906000526020600020016000611ee4919061246e565b9055611efe565b8080611ef690614151565b915050611d9a565b5050565b600033905090565b60606000855167ffffffffffffffff811115611f2957611f28612746565b5b604051908082528060200260200182016040528015611f5c57816020015b6060815260200190600190039081611f475790505b50905060005b86518110156123755760056006811115611f7f57611f7e6128fb565b5b878281518110611f9257611f9161402a565b5b60200260200101516006811115611fac57611fab6128fb565b5b03611ff45730604051602001611fc29190612b22565b604051602081830303815290604052828281518110611fe457611fe361402a565b5b6020026020010181905250612362565b60026006811115612008576120076128fb565b5b87828151811061201b5761201a61402a565b5b60200260200101516006811115612035576120346128fb565b5b0361207d578560405160200161204b919061356e565b60405160208183030381529060405282828151811061206d5761206c61402a565b5b6020026020010181905250612361565b60046006811115612091576120906128fb565b5b8782815181106120a4576120a361402a565b5b602002602001015160068111156120be576120bd6128fb565b5b0361210657836040516020016120d491906135fc565b6040516020818303038152906040528282815181106120f6576120f561402a565b5b6020026020010181905250612360565b6003600681111561211a576121196128fb565b5b87828151811061212d5761212c61402a565b5b60200260200101516006811115612147576121466128fb565b5b036121d05760018660405161215c9190613557565b908152602001604051809103902060020160009054906101000a900473ffffffffffffffffffffffffffffffffffffffff1660405160200161219e9190612b22565b6040516020818303038152906040528282815181106121c0576121bf61402a565b5b602002602001018190525061235f565b600060068111156121e4576121e36128fb565b5b8782815181106121f7576121f661402a565b5b60200260200101516006811115612211576122106128fb565b5b0361229a576001866040516122269190613557565b908152602001604051809103902060000160009054906101000a900473ffffffffffffffffffffffffffffffffffffffff166040516020016122689190612b22565b60405160208183030381529060405282828151811061228a5761228961402a565b5b602002602001018190525061235e565b6006808111156122ad576122ac6128fb565b5b8782815181106122c0576122bf61402a565b5b602002602001015160068111156122da576122d96128fb565b5b0361232257846040516020016122f09190612b22565b6040516020818303038152906040528282815181106123125761231161402a565b5b602002602001018190525061235d565b6040517f08c379a000000000000000000000000000000000000000000000000000000000815260040161235490614327565b60405180910390fd5b5b5b5b5b5b808061236d90614151565b915050611f62565b5080915050949350505050565b6060826040516020016123959190614394565b604051602081830303815290604052905060005b825181101561240357818382815181106123c6576123c561402a565b5b60200260200101516040516020016123df9291906143af565b604051602081830303815290604052915080806123fb90614151565b9150506123a9565b5092915050565b60008151835114801561242a575081805190602001208380519060200120145b905092915050565b604051806080016040528060006005811115612451576124506128fb565b5b815260200160608152602001606081526020016000151581525090565b50805461247a906134ea565b6000825580601f1061248c57506124ab565b601f0160209004906000526020600020908101906124aa91906125d4565b5b50565b6040518060a00160405280600073ffffffffffffffffffffffffffffffffffffffff168152602001600060048111156124ea576124e96128fb565b5b815260200160608152602001600073ffffffffffffffffffffffffffffffffffffffff168152602001600081525090565b828054828255906000526020600020908101928215612563579160200282015b8281111561256257825182908161255291906139b9565b509160200191906001019061253b565b5b50905061257091906125f1565b5090565b8280548282559060005260206000209081019282156125c3579160200282015b828111156125c25782518290805190602001906125b2929190612615565b5091602001919060010190612594565b5b5090506125d091906126cb565b5090565b5b808211156125ed5760008160009055506001016125d5565b5090565b5b808211156126115760008181612608919061246e565b506001016125f2565b5090565b82805482825590600052602060002090601f016020900481019282156126ba5791602002820160005b8382111561268b57835183826101000a81548160ff0219169083600681111561266a576126696128fb565b5b0217905550926020019260010160208160000104928301926001030261263e565b80156126b85782816101000a81549060ff021916905560010160208160000104928301926001030261268b565b505b5090506126c791906125d4565b5090565b5b808211156126eb57600081816126e291906126ef565b506001016126cc565b5090565b50805460008255601f01602090049060005260206000209081019061271491906125d4565b50565b6000604051905090565b600080fd5b600080fd5b600080fd5b600080fd5b6000601f19601f8301169050919050565b7f4e487b7100000000000000000000000000000000000000000000000000000000600052604160045260246000fd5b61277e82612735565b810181811067ffffffffffffffff8211171561279d5761279c612746565b5b80604052505050565b60006127b0612717565b90506127bc8282612775565b919050565b600067ffffffffffffffff8211156127dc576127db612746565b5b6127e582612735565b9050602081019050919050565b82818337600083830152505050565b600061281461280f846127c1565b6127a6565b9050828152602081018484840111156128305761282f612730565b5b61283b8482856127f2565b509392505050565b600082601f8301126128585761285761272b565b5b8135612868848260208601612801565b91505092915050565b60006020828403121561288757612886612721565b5b600082013567ffffffffffffffff8111156128a5576128a4612726565b5b6128b184828501612843565b91505092915050565b600073ffffffffffffffffffffffffffffffffffffffff82169050919050565b60006128e5826128ba565b9050919050565b6128f5816128da565b82525050565b7f4e487b7100000000000000000000000000000000000000000000000000000000600052602160045260246000fd5b6005811061293b5761293a6128fb565b5b50565b600081905061294c8261292a565b919050565b600061295c8261293e565b9050919050565b61296c81612951565b82525050565b600081519050919050565b600082825260208201905092915050565b60005b838110156129ac578082015181840152602081019050612991565b60008484015250505050565b60006129c382612972565b6129cd818561297d565b93506129dd81856020860161298e565b6129e681612735565b840191505092915050565b6000819050919050565b612a04816129f1565b82525050565b600060a082019050612a1f60008301886128ec565b612a2c6020830187612963565b8181036040830152612a3e81866129b8565b9050612a4d60608301856128ec565b612a5a60808301846129fb565b9695505050505050565b612a6d816129f1565b8114612a7857600080fd5b50565b600081359050612a8a81612a64565b92915050565b60008060408385031215612aa757612aa6612721565b5b600083013567ffffffffffffffff811115612ac557612ac4612726565b5b612ad185828601612843565b9250506020612ae285828601612a7b565b9150509250929050565b60008115159050919050565b612b0181612aec565b82525050565b6000602082019050612b1c6000830184612af8565b92915050565b6000602082019050612b3760008301846128ec565b92915050565b612b46816128da565b8114612b5157600080fd5b50565b600081359050612b6381612b3d565b92915050565b600080600060608486031215612b8257612b81612721565b5b600084013567ffffffffffffffff811115612ba057612b9f612726565b5b612bac86828701612843565b9350506020612bbd86828701612b54565b9250506040612bce86828701612a7b565b9150509250925092565b600081519050919050565b600082825260208201905092915050565b6000819050602082019050919050565b600082825260208201905092915050565b6000612c2082612972565b612c2a8185612c04565b9350612c3a81856020860161298e565b612c4381612735565b840191505092915050565b6000612c5a8383612c15565b905092915050565b6000602082019050919050565b6000612c7a82612bd8565b612c848185612be3565b935083602082028501612c9685612bf4565b8060005b85811015612cd25784840389528151612cb38582612c4e565b9450612cbe83612c62565b925060208a01995050600181019050612c9a565b50829750879550505050505092915050565b60006020820190508181036000830152612cfe8184612c6f565b905092915050565b60058110612d1357600080fd5b50565b600081359050612d2581612d06565b92915050565b600067ffffffffffffffff821115612d4657612d45612746565b5b602082029050602081019050919050565b600080fd5b600080fd5b600080fd5b60068110612d7357600080fd5b50565b600081359050612d8581612d66565b92915050565b600067ffffffffffffffff821115612da657612da5612746565b5b602082029050602081019050919050565b6000612dca612dc584612d8b565b6127a6565b90508083825260208201905060208402830185811115612ded57612dec612d57565b5b835b81811015612e3457803567ffffffffffffffff811115612e1257612e1161272b565b5b808601612e1f8982612843565b85526020850194505050602081019050612def565b5050509392505050565b600082601f830112612e5357612e5261272b565b5b8135612e63848260208601612db7565b91505092915050565b600067ffffffffffffffff821115612e8757612e86612746565b5b602082029050602081019050919050565b600067ffffffffffffffff821115612eb357612eb2612746565b5b602082029050602081019050919050565b60078110612ed157600080fd5b50565b600081359050612ee381612ec4565b92915050565b6000612efc612ef784612e98565b6127a6565b90508083825260208201905060208402830185811115612f1f57612f1e612d57565b5b835b81811015612f485780612f348882612ed4565b845260208401935050602081019050612f21565b5050509392505050565b600082601f830112612f6757612f6661272b565b5b8135612f77848260208601612ee9565b91505092915050565b6000612f93612f8e84612e6c565b6127a6565b90508083825260208201905060208402830185811115612fb657612fb5612d57565b5b835b81811015612ffd57803567ffffffffffffffff811115612fdb57612fda61272b565b5b808601612fe88982612f52565b85526020850194505050602081019050612fb8565b5050509392505050565b600082601f83011261301c5761301b61272b565b5b813561302c848260208601612f80565b91505092915050565b61303e81612aec565b811461304957600080fd5b50565b60008135905061305b81613035565b92915050565b60006080828403121561307757613076612d5c565b5b61308160806127a6565b9050600061309184828501612d76565b600083015250602082013567ffffffffffffffff8111156130b5576130b4612d61565b5b6130c184828501612e3e565b602083015250604082013567ffffffffffffffff8111156130e5576130e4612d61565b5b6130f184828501613007565b60408301525060606131058482850161304c565b60608301525092915050565b600061312461311f84612d2b565b6127a6565b9050808382526020820190506020840283018581111561314757613146612d57565b5b835b8181101561318e57803567ffffffffffffffff81111561316c5761316b61272b565b5b8086016131798982613061565b85526020850194505050602081019050613149565b5050509392505050565b600082601f8301126131ad576131ac61272b565b5b81356131bd848260208601613111565b91505092915050565b600080600080600060a086880312156131e2576131e1612721565b5b60006131f088828901612b54565b955050602061320188828901612d16565b945050604086013567ffffffffffffffff81111561322257613221612726565b5b61322e88828901612843565b935050606061323f88828901612b54565b925050608086013567ffffffffffffffff8111156132605761325f612726565b5b61326c88828901613198565b9150509295509295909350565b6000806000806080858703121561329357613292612721565b5b60006132a187828801612b54565b94505060206132b287828801612d16565b935050604085013567ffffffffffffffff8111156132d3576132d2612726565b5b6132df87828801612843565b92505060606132f087828801612b54565b91505092959194509250565b613305816128da565b82525050565b61331481612951565b82525050565b613323816129f1565b82525050565b600060a08301600083015161334160008601826132fc565b506020830151613354602086018261330b565b506040830151848203604086015261336c8282612c15565b915050606083015161338160608601826132fc565b506080830151613394608086018261331a565b508091505092915050565b600060208201905081810360008301526133b98184613329565b905092915050565b600080604083850312156133d8576133d7612721565b5b600083013567ffffffffffffffff8111156133f6576133f5612726565b5b61340285828601612843565b925050602061341385828601612d76565b9150509250929050565b6006811061342e5761342d6128fb565b5b50565b600081905061343f8261341d565b919050565b600061344f82613431565b9050919050565b61345f81613444565b82525050565b600060408201905061347a6000830185613456565b6134876020830184612af8565b9392505050565b6000602082840312156134a4576134a3612721565b5b60006134b284828501612b54565b91505092915050565b7f4e487b7100000000000000000000000000000000000000000000000000000000600052602260045260246000fd5b6000600282049050600182168061350257607f821691505b602082108103613515576135146134bb565b5b50919050565b600081905092915050565b600061353182612972565b61353b818561351b565b935061354b81856020860161298e565b80840191505092915050565b60006135638284613526565b915081905092915050565b6000602082019050818103600083015261358881846129b8565b905092915050565b7f6d696e742061737365742063616c6c206661696c656400000000000000000000600082015250565b60006135c660168361297d565b91506135d182613590565b602082019050919050565b600060208201905081810360008301526135f5816135b9565b9050919050565b600060208201905061361160008301846129fb565b92915050565b7f61737369676e206173736574206173736574206973206e6f74206c6f636b6564600082015250565b600061364d60208361297d565b915061365882613617565b602082019050919050565b6000602082019050818103600083015261367c81613640565b9050919050565b7f61737369676e2061737365742063616c6c206661696c65640000000000000000600082015250565b60006136b960188361297d565b91506136c482613683565b602082019050919050565b600060208201905081810360008301526136e8816136ac565b9050919050565b7f4e487b7100000000000000000000000000000000000000000000000000000000600052601160045260246000fd5b6000613729826129f1565b9150613734836129f1565b925082820390508181111561374c5761374b6136ef565b5b92915050565b600060408201905061376760008301856128ec565b61377460208301846129fb565b9392505050565b7f436f6e747261637420646f6573206e6f742068617665207065726d697373696f60008201527f6e20746f20696e74657261637420776974682074686520746f6b656e00000000602082015250565b60006137d7603c8361297d565b91506137e28261377b565b604082019050919050565b60006020820190508181036000830152613806816137ca565b9050919050565b60008190508160005260206000209050919050565b60006020601f8301049050919050565b600082821b905092915050565b60006008830261386f7fffffffffffffffffffffffffffffffffffffffffffffffffffffffffffffffff82613832565b6138798683613832565b95508019841693508086168417925050509392505050565b6000819050919050565b60006138b66138b16138ac846129f1565b613891565b6129f1565b9050919050565b6000819050919050565b6138d08361389b565b6138e46138dc826138bd565b84845461383f565b825550505050565b600090565b6138f96138ec565b6139048184846138c7565b505050565b5b818110156139285761391d6000826138f1565b60018101905061390a565b5050565b601f82111561396d5761393e8161380d565b61394784613822565b81016020851015613956578190505b61396a61396285613822565b830182613909565b50505b505050565b600082821c905092915050565b600061399060001984600802613972565b1980831691505092915050565b60006139a9838361397f565b9150826002028217905092915050565b6139c282612972565b67ffffffffffffffff8111156139db576139da612746565b5b6139e582546134ea565b6139f082828561392c565b600060209050601f831160018114613a235760008415613a11578287015190505b613a1b858261399d565b865550613a83565b601f198416613a318661380d565b60005b82811015613a5957848901518255600182019150602085019450602081019050613a34565b86831015613a765784890151613a72601f89168261397f565b8355505b6001600288020188555050505b505050505050565b6000606082019050613aa060008301866128ec565b613aad6020830185612963565b613aba60408301846128ec565b949350505050565b600081519050919050565b600082825260208201905092915050565b6000819050602082019050919050565b613af781613444565b82525050565b600082825260208201905092915050565b6000613b1982612bd8565b613b238185613afd565b935083602082028501613b3585612bf4565b8060005b85811015613b715784840389528151613b528582612c4e565b9450613b5d83612c62565b925060208a01995050600181019050613b39565b50829750879550505050505092915050565b600081519050919050565b600082825260208201905092915050565b6000819050602082019050919050565b600081519050919050565b600082825260208201905092915050565b6000819050602082019050919050565b60078110613bec57613beb6128fb565b5b50565b6000819050613bfd82613bdb565b919050565b6000613c0d82613bef565b9050919050565b613c1d81613c02565b82525050565b6000613c2f8383613c14565b60208301905092915050565b6000602082019050919050565b6000613c5382613baf565b613c5d8185613bba565b9350613c6883613bcb565b8060005b83811015613c99578151613c808882613c23565b9750613c8b83613c3b565b925050600181019050613c6c565b5085935050505092915050565b6000613cb28383613c48565b905092915050565b6000602082019050919050565b6000613cd282613b83565b613cdc8185613b8e565b935083602082028501613cee85613b9f565b8060005b85811015613d2a5784840389528151613d0b8582613ca6565b9450613d1683613cba565b925060208a01995050600181019050613cf2565b50829750879550505050505092915050565b613d4581612aec565b82525050565b6000608083016000830151613d636000860182613aee565b5060208301518482036020860152613d7b8282613b0e565b91505060408301518482036040860152613d958282613cc7565b9150506060830151613daa6060860182613d3c565b508091505092915050565b6000613dc18383613d4b565b905092915050565b6000602082019050919050565b6000613de182613ac2565b613deb8185613acd565b935083602082028501613dfd85613ade565b8060005b85811015613e395784840389528151613e1a8582613db5565b9450613e2583613dc9565b925060208a01995050600181019050613e01565b50829750879550505050505092915050565b600060a082019050613e6060008301886128ec565b613e6d6020830187612963565b8181036040830152613e7f81866129b8565b9050613e8e60608301856128ec565b8181036080830152613ea08184613dd6565b90509695505050505050565b600081519050613ebb81613035565b92915050565b600060208284031215613ed757613ed6612721565b5b6000613ee584828501613eac565b91505092915050565b7f6275726e206173736574206173736574206973206e6f74206c6f636b65640000600082015250565b6000613f24601e8361297d565b9150613f2f82613eee565b602082019050919050565b60006020820190508181036000830152613f5381613f17565b9050919050565b7f6275726e2061737365742063616c6c206661696c656400000000000000000000600082015250565b6000613f9060168361297d565b9150613f9b82613f5a565b602082019050919050565b60006020820190508181036000830152613fbf81613f83565b9050919050565b60006040820190508181036000830152613fe081856129b8565b9050613fef60208301846129fb565b9392505050565b6000614001826129f1565b915061400c836129f1565b9250828201905080821115614024576140236136ef565b5b92915050565b7f4e487b7100000000000000000000000000000000000000000000000000000000600052603260045260246000fd5b60008154614066816134ea565b614070818661351b565b9450600182166000811461408b57600181146140a0576140d3565b60ff19831686528115158202860193506140d3565b6140a98561380d565b60005b838110156140cb578154818901526001820191506020810190506140ac565b838801955050505b50505092915050565b60006140e88284614059565b915081905092915050565b600081519050919050565b600081905092915050565b6000614114826140f3565b61411e81856140fe565b935061412e81856020860161298e565b80840191505092915050565b60006141468284614109565b915081905092915050565b600061415c826129f1565b91507fffffffffffffffffffffffffffffffffffffffffffffffffffffffffffffffff820361418e5761418d6136ef565b5b600182019050919050565b6000815490506141a8816134ea565b9050919050565b60008190508160005260206000209050919050565b8181036141d25750506142aa565b6141db82614199565b67ffffffffffffffff8111156141f4576141f3612746565b5b6141fe82546134ea565b61420982828561392c565b6000601f8311600181146142385760008415614226578287015490505b614230858261399d565b8655506142a3565b601f198416614246876141af565b96506142518661380d565b60005b8281101561427957848901548255600182019150600185019450602081019050614254565b868310156142965784890154614292601f89168261397f565b8355505b6001600288020188555050505b5050505050505b565b7f4e487b7100000000000000000000000000000000000000000000000000000000600052603160045260246000fd5b7f5661726961626c65206e6f7420737570706f7274656400000000000000000000600082015250565b600061431160168361297d565b915061431c826142db565b602082019050919050565b6000602082019050818103600083015261434081614304565b9050919050565b60007fffffffff0000000000000000000000000000000000000000000000000000000082169050919050565b6000819050919050565b61438e61438982614347565b614373565b82525050565b60006143a0828461437d565b60048201915081905092915050565b60006143bb8285614109565b91506143c78284614109565b9150819050939250505056fea264697066735822122077d09322a17549add4f110c2acef5c4a900a4d7cbc9aa229c1c6b6266cc1ca1364736f6c63430008140033","linkReferences":{}},"methodIdentifiers":{"assign(string,address,uint256)":"4534ba17","bridge_address()":"1255c189","burn(string,uint256)":"b48272cc","getAllAssetsIDs()":"5137b8a7","getToken(string)":"c1733f68","lock(string,uint256)":"e1efb596","mint(string,uint256)":"056b01ce","owner()":"8da5cb5b","renounceOwnership()":"715018a6","tokens(string)":"04c2320b","tokensInteractions(string,uint8)":"ea8f547f","transferOwnership(address)":"f2fde38b","unlock(string,uint256)":"d9cf884c","unwrap(string)":"a1bc17c5","wrap(address,uint8,string,address)":"72d4c33b","wrap(address,uint8,string,address,(uint8,string[],uint8[][],bool)[])":"623662ad"},"id":6}