{
  "contractName": "HashedTimeLockContract",
  "abi": [
    {
      "anonymous": false,
      "inputs": [
        {
          "indexed": false,
          "internalType": "uint256",
          "name": "inputAmount",
          "type": "uint256"
        },
        {
          "indexed": false,
          "internalType": "uint256",
          "name": "outputAmount",
          "type": "uint256"
        },
        {
          "indexed": false,
          "internalType": "uint256",
          "name": "expiration",
          "type": "uint256"
        },
        {
          "indexed": false,
          "internalType": "bytes32",
          "name": "id",
          "type": "bytes32"
        },
        {
          "indexed": false,
          "internalType": "bytes32",
          "name": "hashLock",
          "type": "bytes32"
        },
        {
          "indexed": true,
          "internalType": "address",
          "name": "tokenAddress",
          "type": "address"
        },
        {
          "indexed": true,
          "internalType": "address",
          "name": "sender",
          "type": "address"
        },
        {
          "indexed": true,
          "internalType": "address",
          "name": "receiver",
          "type": "address"
        },
        {
          "indexed": false,
          "internalType": "string",
          "name": "outputNetwork",
          "type": "string"
        },
        {
          "indexed": false,
          "internalType": "string",
          "name": "outputAddress",
          "type": "string"
        }
      ],
      "name": "NewContract",
      "type": "event"
    },
    {
      "anonymous": false,
      "inputs": [
        {
          "indexed": false,
          "internalType": "bytes32",
          "name": "id",
          "type": "bytes32"
        },
        {
          "indexed": false,
          "internalType": "bytes32",
          "name": "hashLock",
          "type": "bytes32"
        },
        {
          "indexed": true,
          "internalType": "address",
          "name": "tokenAddress",
          "type": "address"
        },
        {
          "indexed": true,
          "internalType": "address",
          "name": "sender",
          "type": "address"
        },
        {
          "indexed": true,
          "internalType": "address",
          "name": "receiver",
          "type": "address"
        }
      ],
      "name": "Refund",
      "type": "event"
    },
    {
      "anonymous": false,
      "inputs": [
        {
          "indexed": false,
          "internalType": "bytes32",
          "name": "id",
          "type": "bytes32"
        },
        {
          "indexed": false,
          "internalType": "bytes32",
          "name": "secret",
          "type": "bytes32"
        },
        {
          "indexed": false,
          "internalType": "bytes32",
          "name": "hashLock",
          "type": "bytes32"
        },
        {
          "indexed": true,
          "internalType": "address",
          "name": "tokenAddress",
          "type": "address"
        },
        {
          "indexed": true,
          "internalType": "address",
          "name": "sender",
          "type": "address"
        },
        {
          "indexed": true,
          "internalType": "address",
          "name": "receiver",
          "type": "address"
        }
      ],
      "name": "Withdraw",
      "type": "event"
    },
    {
      "inputs": [],
      "name": "ACTIVE",
      "outputs": [
        {
          "internalType": "uint256",
          "name": "",
          "type": "uint256"
        }
      ],
      "stateMutability": "view",
      "type": "function"
    },
    {
      "inputs": [],
      "name": "EXPIRED",
      "outputs": [
        {
          "internalType": "uint256",
          "name": "",
          "type": "uint256"
        }
      ],
      "stateMutability": "view",
      "type": "function"
    },
    {
      "inputs": [],
      "name": "INVALID",
      "outputs": [
        {
          "internalType": "uint256",
          "name": "",
          "type": "uint256"
        }
      ],
      "stateMutability": "view",
      "type": "function"
    },
    {
      "inputs": [],
      "name": "REFUNDED",
      "outputs": [
        {
          "internalType": "uint256",
          "name": "",
          "type": "uint256"
        }
      ],
      "stateMutability": "view",
      "type": "function"
    },
    {
      "inputs": [],
      "name": "WITHDRAWN",
      "outputs": [
        {
          "internalType": "uint256",
          "name": "",
          "type": "uint256"
        }
      ],
      "stateMutability": "view",
      "type": "function"
    },
    {
      "inputs": [
        {
          "internalType": "bytes32",
          "name": "",
          "type": "bytes32"
        }
      ],
      "name": "contracts",
      "outputs": [
        {
          "internalType": "uint256",
          "name": "inputAmount",
          "type": "uint256"
        },
        {
          "internalType": "uint256",
          "name": "outputAmount",
          "type": "uint256"
        },
        {
          "internalType": "uint256",
          "name": "expiration",
          "type": "uint256"
        },
        {
          "internalType": "uint256",
          "name": "status",
          "type": "uint256"
        },
        {
          "internalType": "bytes32",
          "name": "hashLock",
          "type": "bytes32"
        },
        {
          "internalType": "address",
          "name": "tokenAddress",
          "type": "address"
        },
        {
          "internalType": "address",
          "name": "sender",
          "type": "address"
        },
        {
          "internalType": "address",
          "name": "receiver",
          "type": "address"
        },
        {
          "internalType": "string",
          "name": "outputNetwork",
          "type": "string"
        },
        {
          "internalType": "string",
          "name": "outputAddress",
          "type": "string"
        }
      ],
      "stateMutability": "view",
      "type": "function"
    },
    {
      "inputs": [
        {
          "internalType": "uint256",
          "name": "inputAmount",
          "type": "uint256"
        },
        {
          "internalType": "uint256",
          "name": "outputAmount",
          "type": "uint256"
        },
        {
          "internalType": "uint256",
          "name": "expiration",
          "type": "uint256"
        },
        {
          "internalType": "bytes32",
          "name": "hashLock",
          "type": "bytes32"
        },
        {
          "internalType": "address",
          "name": "tokenAddress",
          "type": "address"
        },
        {
          "internalType": "address",
          "name": "receiver",
          "type": "address"
        },
        {
          "internalType": "string",
          "name": "outputNetwork",
          "type": "string"
        },
        {
          "internalType": "string",
          "name": "outputAddress",
          "type": "string"
        }
      ],
      "name": "newContract",
      "outputs": [],
      "stateMutability": "nonpayable",
      "type": "function"
    },
    {
      "inputs": [
        {
          "internalType": "bytes32",
          "name": "id",
          "type": "bytes32"
        },
        {
          "internalType": "bytes32",
          "name": "secret",
          "type": "bytes32"
        }
      ],
      "name": "withdraw",
      "outputs": [],
      "stateMutability": "nonpayable",
      "type": "function"
    },
    {
      "inputs": [
        {
          "internalType": "bytes32",
          "name": "id",
          "type": "bytes32"
        }
      ],
      "name": "refund",
      "outputs": [],
      "stateMutability": "nonpayable",
      "type": "function"
    },
    {
      "inputs": [
        {
          "internalType": "bytes32[]",
          "name": "ids",
          "type": "bytes32[]"
        }
      ],
      "name": "getStatus",
      "outputs": [
        {
          "internalType": "uint256[]",
          "name": "",
          "type": "uint256[]"
        }
      ],
      "stateMutability": "view",
      "type": "function"
    },
    {
      "inputs": [
        {
          "internalType": "bytes32",
          "name": "id",
          "type": "bytes32"
        }
      ],
      "name": "getSingleStatus",
      "outputs": [
        {
          "internalType": "uint256",
          "name": "result",
          "type": "uint256"
        }
      ],
      "stateMutability": "view",
      "type": "function"
    }
  ],
  "bytecode": "608060405234801561001057600080fd5b50611f8a806100206000396000f3fe608060405234801561001057600080fd5b50600436106100a95760003560e01c806394e15c8f1161007157806394e15c8f14610152578063af78feef14610170578063c90bd0471461018e578063d2fd8b76146101ac578063ec56a373146101c8578063fbdf3b4314610201576100a9565b80632f21a663146100ae578063414ac85b146100de57806363615149146100fc5780637249fbb6146101185780637fcce2a914610134575b600080fd5b6100c860048036038101906100c39190611423565b610231565b6040516100d591906119d6565b60405180910390f35b6100e661035e565b6040516100f39190611af8565b60405180910390f35b610116600480360381019061011191906114df565b610363565b005b610132600480360381019061012d919061148d565b610693565b005b61013c61090d565b6040516101499190611af8565b60405180910390f35b61015a610912565b6040516101679190611af8565b60405180910390f35b610178610917565b6040516101859190611af8565b60405180910390f35b61019661091c565b6040516101a39190611af8565b60405180910390f35b6101c660048036038101906101c1919061151b565b610921565b005b6101e260048036038101906101dd919061148d565b610dc5565b6040516101f89a99989796959493929190611b94565b60405180910390f35b61021b6004803603810190610216919061148d565b610f89565b6040516102289190611af8565b60405180910390f35b60606000825167ffffffffffffffff811115610276577f4e487b7100000000000000000000000000000000000000000000000000000000600052604160045260246000fd5b6040519080825280602002602001820160405280156102a45781602001602082028036833780820191505090505b50905060005b8351811015610354576102fc8482815181106102ef577f4e487b7100000000000000000000000000000000000000000000000000000000600052603260045260246000fd5b6020026020010151610f89565b828281518110610335577f4e487b7100000000000000000000000000000000000000000000000000000000600052603260045260246000fd5b602002602001018181525050808061034c90611dcc565b9150506102aa565b5080915050919050565b600481565b6000806000848152602001908152602001600020905060018160030154146103c0576040517f08c379a00000000000000000000000000000000000000000000000000000000081526004016103b790611a98565b60405180910390fd5b42816002015411610406576040517f08c379a00000000000000000000000000000000000000000000000000000000081526004016103fd90611ab8565b60405180910390fd5b6002826040516020016104199190611944565b604051602081830303815290604052604051610435919061195f565b602060405180830381855afa158015610452573d6000803e3d6000fd5b5050506040513d601f19601f8201168201806040525081019061047591906114b6565b8160040154146104ba576040517f08c379a00000000000000000000000000000000000000000000000000000000081526004016104b190611a78565b60405180910390fd5b600381600301819055508060050160009054906101000a900473ffffffffffffffffffffffffffffffffffffffff1673ffffffffffffffffffffffffffffffffffffffff1663a9059cbb8260070160009054906101000a900473ffffffffffffffffffffffffffffffffffffffff1683600001546040518363ffffffff1660e01b815260040161054b9291906119ad565b602060405180830381600087803b15801561056557600080fd5b505af1158015610579573d6000803e3d6000fd5b505050506040513d601f19601f8201168201806040525081019061059d9190611464565b508060070160009054906101000a900473ffffffffffffffffffffffffffffffffffffffff1673ffffffffffffffffffffffffffffffffffffffff168160060160009054906101000a900473ffffffffffffffffffffffffffffffffffffffff1673ffffffffffffffffffffffffffffffffffffffff168260050160009054906101000a900473ffffffffffffffffffffffffffffffffffffffff1673ffffffffffffffffffffffffffffffffffffffff167fbab3eb11a71b2cd82a010d4d5b2c3df5cd25ee8c9f1a75baff879a1b87942cb88686866004015460405161068693929190611a21565b60405180910390a4505050565b6000806000838152602001908152602001600020905060018160030154146106f0576040517f08c379a00000000000000000000000000000000000000000000000000000000081526004016106e790611a98565b60405180910390fd5b4281600201541115610737576040517f08c379a000000000000000000000000000000000000000000000000000000000815260040161072e90611ab8565b60405180910390fd5b600281600301819055508060050160009054906101000a900473ffffffffffffffffffffffffffffffffffffffff1673ffffffffffffffffffffffffffffffffffffffff1663a9059cbb8260060160009054906101000a900473ffffffffffffffffffffffffffffffffffffffff1683600001546040518363ffffffff1660e01b81526004016107c89291906119ad565b602060405180830381600087803b1580156107e257600080fd5b505af11580156107f6573d6000803e3d6000fd5b505050506040513d601f19601f8201168201806040525081019061081a9190611464565b508060070160009054906101000a900473ffffffffffffffffffffffffffffffffffffffff1673ffffffffffffffffffffffffffffffffffffffff168160060160009054906101000a900473ffffffffffffffffffffffffffffffffffffffff1673ffffffffffffffffffffffffffffffffffffffff168260050160009054906101000a900473ffffffffffffffffffffffffffffffffffffffff1673ffffffffffffffffffffffffffffffffffffffff167f0d4cdc2fe2a785f03bf5481e13bee5cdcb7743166bcadafebfd3f09db61081178585600401546040516109019291906119f8565b60405180910390a45050565b600081565b600281565b600381565b600181565b428811610963576040517f08c379a000000000000000000000000000000000000000000000000000000000815260040161095a90611ab8565b60405180910390fd5b60008a116109a6576040517f08c379a000000000000000000000000000000000000000000000000000000000815260040161099d90611ad8565b60405180910390fd5b8573ffffffffffffffffffffffffffffffffffffffff166323b872dd33308d6040518463ffffffff1660e01b81526004016109e393929190611976565b602060405180830381600087803b1580156109fd57600080fd5b505af1158015610a11573d6000803e3d6000fd5b505050506040513d601f19601f82011682018060405250810190610a359190611464565b50600033868c8a8c8b604051602001610a53969594939291906118d4565b60405160208183030381529060405280519060200120905060008060008381526020019081526020016000206003015414610ac3576040517f08c379a0000000000000000000000000000000000000000000000000000000008152600401610aba90611a58565b60405180910390fd5b6040518061014001604052808c81526020018b81526020018a8152602001600181526020018981526020018873ffffffffffffffffffffffffffffffffffffffff1681526020013373ffffffffffffffffffffffffffffffffffffffff1681526020018773ffffffffffffffffffffffffffffffffffffffff16815260200186868080601f016020809104026020016040519081016040528093929190818152602001838380828437600081840152601f19601f82011690508083019250505050505050815260200184848080601f016020809104026020016040519081016040528093929190818152602001838380828437600081840152601f19601f82011690508083019250505050505050815250600080838152602001908152602001600020600082015181600001556020820151816001015560408201518160020155606082015181600301556080820151816004015560a08201518160050160006101000a81548173ffffffffffffffffffffffffffffffffffffffff021916908373ffffffffffffffffffffffffffffffffffffffff16021790555060c08201518160060160006101000a81548173ffffffffffffffffffffffffffffffffffffffff021916908373ffffffffffffffffffffffffffffffffffffffff16021790555060e08201518160070160006101000a81548173ffffffffffffffffffffffffffffffffffffffff021916908373ffffffffffffffffffffffffffffffffffffffff160217905550610100820151816008019080519060200190610d0a929190611237565b50610120820151816009019080519060200190610d28929190611237565b509050508573ffffffffffffffffffffffffffffffffffffffff163373ffffffffffffffffffffffffffffffffffffffff168873ffffffffffffffffffffffffffffffffffffffff167f448581ece7da63e54a320119f9f2b80c868a954c441e70c88ecdfc95919751248e8e8e878f8d8d8d8d604051610db099989796959493929190611b13565b60405180910390a45050505050505050505050565b60006020528060005260406000206000915090508060000154908060010154908060020154908060030154908060040154908060050160009054906101000a900473ffffffffffffffffffffffffffffffffffffffff16908060060160009054906101000a900473ffffffffffffffffffffffffffffffffffffffff16908060070160009054906101000a900473ffffffffffffffffffffffffffffffffffffffff1690806008018054610e7890611d9a565b80601f0160208091040260200160405190810160405280929190818152602001828054610ea490611d9a565b8015610ef15780601f10610ec657610100808354040283529160200191610ef1565b820191906000526020600020905b815481529060010190602001808311610ed457829003601f168201915b505050505090806009018054610f0690611d9a565b80601f0160208091040260200160405190810160405280929190818152602001828054610f3290611d9a565b8015610f7f5780601f10610f5457610100808354040283529160200191610f7f565b820191906000526020600020905b815481529060010190602001808311610f6257829003601f168201915b505050505090508a565b6000806000808481526020019081526020016000206040518061014001604052908160008201548152602001600182015481526020016002820154815260200160038201548152602001600482015481526020016005820160009054906101000a900473ffffffffffffffffffffffffffffffffffffffff1673ffffffffffffffffffffffffffffffffffffffff1673ffffffffffffffffffffffffffffffffffffffff1681526020016006820160009054906101000a900473ffffffffffffffffffffffffffffffffffffffff1673ffffffffffffffffffffffffffffffffffffffff1673ffffffffffffffffffffffffffffffffffffffff1681526020016007820160009054906101000a900473ffffffffffffffffffffffffffffffffffffffff1673ffffffffffffffffffffffffffffffffffffffff1673ffffffffffffffffffffffffffffffffffffffff1681526020016008820180546110ee90611d9a565b80601f016020809104026020016040519081016040528092919081815260200182805461111a90611d9a565b80156111675780601f1061113c57610100808354040283529160200191611167565b820191906000526020600020905b81548152906001019060200180831161114a57829003601f168201915b5050505050815260200160098201805461118090611d9a565b80601f01602080910402602001604051908101604052809291908181526020018280546111ac90611d9a565b80156111f95780601f106111ce576101008083540402835291602001916111f9565b820191906000526020600020905b8154815290600101906020018083116111dc57829003601f168201915b50505050508152505090506001816060015114801561121b5750428160400151105b156112295760049150611231565b806060015191505b50919050565b82805461124390611d9a565b90600052602060002090601f01602090048101928261126557600085556112ac565b82601f1061127e57805160ff19168380011785556112ac565b828001600101855582156112ac579182015b828111156112ab578251825591602001919060010190611290565b5b5090506112b991906112bd565b5090565b5b808211156112d65760008160009055506001016112be565b5090565b60006112ed6112e884611c6f565b611c3e565b9050808382526020820190508285602086028201111561130c57600080fd5b60005b8581101561133c5781611322888261139a565b84526020840193506020830192505060018101905061130f565b5050509392505050565b60008135905061135581611ef8565b92915050565b600082601f83011261136c57600080fd5b813561137c8482602086016112da565b91505092915050565b60008151905061139481611f0f565b92915050565b6000813590506113a981611f26565b92915050565b6000815190506113be81611f26565b92915050565b60008083601f8401126113d657600080fd5b8235905067ffffffffffffffff8111156113ef57600080fd5b60208301915083600182028301111561140757600080fd5b9250929050565b60008135905061141d81611f3d565b92915050565b60006020828403121561143557600080fd5b600082013567ffffffffffffffff81111561144f57600080fd5b61145b8482850161135b565b91505092915050565b60006020828403121561147657600080fd5b600061148484828501611385565b91505092915050565b60006020828403121561149f57600080fd5b60006114ad8482850161139a565b91505092915050565b6000602082840312156114c857600080fd5b60006114d6848285016113af565b91505092915050565b600080604083850312156114f257600080fd5b60006115008582860161139a565b92505060206115118582860161139a565b9150509250929050565b6000806000806000806000806000806101008b8d03121561153b57600080fd5b60006115498d828e0161140e565b9a5050602061155a8d828e0161140e565b995050604061156b8d828e0161140e565b985050606061157c8d828e0161139a565b975050608061158d8d828e01611346565b96505060a061159e8d828e01611346565b95505060c08b013567ffffffffffffffff8111156115bb57600080fd5b6115c78d828e016113c4565b945094505060e08b013567ffffffffffffffff8111156115e657600080fd5b6115f28d828e016113c4565b92509250509295989b9194979a5092959850565b6000611612838361189f565b60208301905092915050565b61162781611d06565b82525050565b61163e61163982611d06565b611e15565b82525050565b600061164f82611cab565b6116598185611cd9565b935061166483611c9b565b8060005b8381101561169557815161167c8882611606565b975061168783611ccc565b925050600181019050611668565b5085935050505092915050565b6116ab81611d24565b82525050565b6116c26116bd82611d24565b611e27565b82525050565b60006116d382611cb6565b6116dd8185611cea565b93506116ed818560208601611d67565b80840191505092915050565b60006117058385611cf5565b9350611712838584611d58565b61171b83611eda565b840190509392505050565b600061173182611cc1565b61173b8185611cf5565b935061174b818560208601611d67565b61175481611eda565b840191505092915050565b600061176c600b83611cf5565b91507f535741505f4558495354530000000000000000000000000000000000000000006000830152602082019050919050565b60006117ac600e83611cf5565b91507f494e56414c49445f5345435245540000000000000000000000000000000000006000830152602082019050919050565b60006117ec600f83611cf5565b91507f535741505f4e4f545f41435449564500000000000000000000000000000000006000830152602082019050919050565b600061182c600c83611cf5565b91507f494e56414c49445f54494d4500000000000000000000000000000000000000006000830152602082019050919050565b600061186c600e83611cf5565b91507f494e56414c49445f414d4f554e540000000000000000000000000000000000006000830152602082019050919050565b6118a881611d4e565b82525050565b6118b781611d4e565b82525050565b6118ce6118c982611d4e565b611e43565b82525050565b60006118e0828961162d565b6014820191506118f0828861162d565b60148201915061190082876118bd565b60208201915061191082866116b1565b60208201915061192082856118bd565b602082019150611930828461162d565b601482019150819050979650505050505050565b600061195082846116b1565b60208201915081905092915050565b600061196b82846116c8565b915081905092915050565b600060608201905061198b600083018661161e565b611998602083018561161e565b6119a560408301846118ae565b949350505050565b60006040820190506119c2600083018561161e565b6119cf60208301846118ae565b9392505050565b600060208201905081810360008301526119f08184611644565b905092915050565b6000604082019050611a0d60008301856116a2565b611a1a60208301846116a2565b9392505050565b6000606082019050611a3660008301866116a2565b611a4360208301856116a2565b611a5060408301846116a2565b949350505050565b60006020820190508181036000830152611a718161175f565b9050919050565b60006020820190508181036000830152611a918161179f565b9050919050565b60006020820190508181036000830152611ab1816117df565b9050919050565b60006020820190508181036000830152611ad18161181f565b9050919050565b60006020820190508181036000830152611af18161185f565b9050919050565b6000602082019050611b0d60008301846118ae565b92915050565b600060e082019050611b28600083018c6118ae565b611b35602083018b6118ae565b611b42604083018a6118ae565b611b4f60608301896116a2565b611b5c60808301886116a2565b81810360a0830152611b6f8186886116f9565b905081810360c0830152611b848184866116f9565b90509a9950505050505050505050565b600061014082019050611baa600083018d6118ae565b611bb7602083018c6118ae565b611bc4604083018b6118ae565b611bd1606083018a6118ae565b611bde60808301896116a2565b611beb60a083018861161e565b611bf860c083018761161e565b611c0560e083018661161e565b818103610100830152611c188185611726565b9050818103610120830152611c2d8184611726565b90509b9a5050505050505050505050565b6000604051905081810181811067ffffffffffffffff82111715611c6557611c64611eab565b5b8060405250919050565b600067ffffffffffffffff821115611c8a57611c89611eab565b5b602082029050602081019050919050565b6000819050602082019050919050565b600081519050919050565b600081519050919050565b600081519050919050565b6000602082019050919050565b600082825260208201905092915050565b600081905092915050565b600082825260208201905092915050565b6000611d1182611d2e565b9050919050565b60008115159050919050565b6000819050919050565b600073ffffffffffffffffffffffffffffffffffffffff82169050919050565b6000819050919050565b82818337600083830152505050565b60005b83811015611d85578082015181840152602081019050611d6a565b83811115611d94576000848401525b50505050565b60006002820490506001821680611db257607f821691505b60208210811415611dc657611dc5611e7c565b5b50919050565b6000611dd782611d4e565b91507fffffffffffffffffffffffffffffffffffffffffffffffffffffffffffffffff821415611e0a57611e09611e4d565b5b600182019050919050565b6000611e2082611e31565b9050919050565b6000819050919050565b6000611e3c82611eeb565b9050919050565b6000819050919050565b7f4e487b7100000000000000000000000000000000000000000000000000000000600052601160045260246000fd5b7f4e487b7100000000000000000000000000000000000000000000000000000000600052602260045260246000fd5b7f4e487b7100000000000000000000000000000000000000000000000000000000600052604160045260246000fd5b6000601f19601f8301169050919050565b60008160601b9050919050565b611f0181611d06565b8114611f0c57600080fd5b50565b611f1881611d18565b8114611f2357600080fd5b50565b611f2f81611d24565b8114611f3a57600080fd5b50565b611f4681611d4e565b8114611f5157600080fd5b5056fea26469706673582212203474e3dc7efee77e857e5c03e2a82e12688650f31a9fbe65e28797b2545cca1064736f6c63430008000033",
  "immutableReferences": {},
  "source": "pragma solidity ^0.8.0;\n\n\n\n/**\n * @dev Collection of functions related to the address type\n */\nlibrary Address {\n    /**\n     * @dev Returns true if `account` is a contract.\n     *\n     * [IMPORTANT]\n     * ====\n     * It is unsafe to assume that an address for which this function returns\n     * false is an externally-owned account (EOA) and not a contract.\n     *\n     * Among others, `isContract` will return false for the following\n     * types of addresses:\n     *\n     *  - an externally-owned account\n     *  - a contract in construction\n     *  - an address where a contract will be created\n     *  - an address where a contract lived, but was destroyed\n     * ====\n     */\n    function isContract(address account) internal view returns (bool) {\n        // This method relies on extcodesize, which returns 0 for contracts in\n        // construction, since the code is only stored at the end of the\n        // constructor execution.\n\n        uint256 size;\n        // solhint-disable-next-line no-inline-assembly\n        assembly { size := extcodesize(account) }\n        return size > 0;\n    }\n\n    /**\n     * @dev Replacement for Solidity's `transfer`: sends `amount` wei to\n     * `recipient`, forwarding all available gas and reverting on errors.\n     *\n     * https://eips.ethereum.org/EIPS/eip-1884[EIP1884] increases the gas cost\n     * of certain opcodes, possibly making contracts go over the 2300 gas limit\n     * imposed by `transfer`, making them unable to receive funds via\n     * `transfer`. {sendValue} removes this limitation.\n     *\n     * https://diligence.consensys.net/posts/2019/09/stop-using-soliditys-transfer-now/[Learn more].\n     *\n     * IMPORTANT: because control is transferred to `recipient`, care must be\n     * taken to not create reentrancy vulnerabilities. Consider using\n     * {ReentrancyGuard} or the\n     * https://solidity.readthedocs.io/en/v0.5.11/security-considerations.html#use-the-checks-effects-interactions-pattern[checks-effects-interactions pattern].\n     */\n    function sendValue(address payable recipient, uint256 amount) internal {\n        require(address(this).balance >= amount, \"Address: insufficient balance\");\n\n        // solhint-disable-next-line avoid-low-level-calls, avoid-call-value\n        (bool success, ) = recipient.call{ value: amount }(\"\");\n        require(success, \"Address: unable to send value, recipient may have reverted\");\n    }\n\n    /**\n     * @dev Performs a Solidity function call using a low level `call`. A\n     * plain`call` is an unsafe replacement for a function call: use this\n     * function instead.\n     *\n     * If `target` reverts with a revert reason, it is bubbled up by this\n     * function (like regular Solidity function calls).\n     *\n     * Returns the raw returned data. To convert to the expected return value,\n     * use https://solidity.readthedocs.io/en/latest/units-and-global-variables.html?highlight=abi.decode#abi-encoding-and-decoding-functions[`abi.decode`].\n     *\n     * Requirements:\n     *\n     * - `target` must be a contract.\n     * - calling `target` with `data` must not revert.\n     *\n     * _Available since v3.1._\n     */\n    function functionCall(address target, bytes memory data) internal returns (bytes memory) {\n      return functionCall(target, data, \"Address: low-level call failed\");\n    }\n\n    /**\n     * @dev Same as {xref-Address-functionCall-address-bytes-}[`functionCall`], but with\n     * `errorMessage` as a fallback revert reason when `target` reverts.\n     *\n     * _Available since v3.1._\n     */\n    function functionCall(address target, bytes memory data, string memory errorMessage) internal returns (bytes memory) {\n        return functionCallWithValue(target, data, 0, errorMessage);\n    }\n\n    /**\n     * @dev Same as {xref-Address-functionCall-address-bytes-}[`functionCall`],\n     * but also transferring `value` wei to `target`.\n     *\n     * Requirements:\n     *\n     * - the calling contract must have an ETH balance of at least `value`.\n     * - the called Solidity function must be `payable`.\n     *\n     * _Available since v3.1._\n     */\n    function functionCallWithValue(address target, bytes memory data, uint256 value) internal returns (bytes memory) {\n        return functionCallWithValue(target, data, value, \"Address: low-level call with value failed\");\n    }\n\n    /**\n     * @dev Same as {xref-Address-functionCallWithValue-address-bytes-uint256-}[`functionCallWithValue`], but\n     * with `errorMessage` as a fallback revert reason when `target` reverts.\n     *\n     * _Available since v3.1._\n     */\n    function functionCallWithValue(address target, bytes memory data, uint256 value, string memory errorMessage) internal returns (bytes memory) {\n        require(address(this).balance >= value, \"Address: insufficient balance for call\");\n        require(isContract(target), \"Address: call to non-contract\");\n\n        // solhint-disable-next-line avoid-low-level-calls\n        (bool success, bytes memory returndata) = target.call{ value: value }(data);\n        return _verifyCallResult(success, returndata, errorMessage);\n    }\n\n    /**\n     * @dev Same as {xref-Address-functionCall-address-bytes-}[`functionCall`],\n     * but performing a static call.\n     *\n     * _Available since v3.3._\n     */\n    function functionStaticCall(address target, bytes memory data) internal view returns (bytes memory) {\n        return functionStaticCall(target, data, \"Address: low-level static call failed\");\n    }\n\n    /**\n     * @dev Same as {xref-Address-functionCall-address-bytes-string-}[`functionCall`],\n     * but performing a static call.\n     *\n     * _Available since v3.3._\n     */\n    function functionStaticCall(address target, bytes memory data, string memory errorMessage) internal view returns (bytes memory) {\n        require(isContract(target), \"Address: static call to non-contract\");\n\n        // solhint-disable-next-line avoid-low-level-calls\n        (bool success, bytes memory returndata) = target.staticcall(data);\n        return _verifyCallResult(success, returndata, errorMessage);\n    }\n\n    /**\n     * @dev Same as {xref-Address-functionCall-address-bytes-}[`functionCall`],\n     * but performing a delegate call.\n     *\n     * _Available since v3.4._\n     */\n    function functionDelegateCall(address target, bytes memory data) internal returns (bytes memory) {\n        return functionDelegateCall(target, data, \"Address: low-level delegate call failed\");\n    }\n\n    /**\n     * @dev Same as {xref-Address-functionCall-address-bytes-string-}[`functionCall`],\n     * but performing a delegate call.\n     *\n     * _Available since v3.4._\n     */\n    function functionDelegateCall(address target, bytes memory data, string memory errorMessage) internal returns (bytes memory) {\n        require(isContract(target), \"Address: delegate call to non-contract\");\n\n        // solhint-disable-next-line avoid-low-level-calls\n        (bool success, bytes memory returndata) = target.delegatecall(data);\n        return _verifyCallResult(success, returndata, errorMessage);\n    }\n\n    function _verifyCallResult(bool success, bytes memory returndata, string memory errorMessage) private pure returns(bytes memory) {\n        if (success) {\n            return returndata;\n        } else {\n            // Look for revert reason and bubble it up if present\n            if (returndata.length > 0) {\n                // The easiest way to bubble the revert reason is using memory via assembly\n\n                // solhint-disable-next-line no-inline-assembly\n                assembly {\n                    let returndata_size := mload(returndata)\n                    revert(add(32, returndata), returndata_size)\n                }\n            } else {\n                revert(errorMessage);\n            }\n        }\n    }\n}\n\n/**\n * @dev Interface of the ERC20 standard as defined in the EIP.\n */\ninterface IERC20 {\n    /**\n     * @dev Returns the amount of tokens in existence.\n     */\n    function totalSupply() external view returns (uint256);\n\n    /**\n     * @dev Returns the amount of tokens owned by `account`.\n     */\n    function balanceOf(address account) external view returns (uint256);\n\n    /**\n     * @dev Moves `amount` tokens from the caller's account to `recipient`.\n     *\n     * Returns a boolean value indicating whether the operation succeeded.\n     *\n     * Emits a {Transfer} event.\n     */\n    function transfer(address recipient, uint256 amount) external returns (bool);\n\n    /**\n     * @dev Returns the remaining number of tokens that `spender` will be\n     * allowed to spend on behalf of `owner` through {transferFrom}. This is\n     * zero by default.\n     *\n     * This value changes when {approve} or {transferFrom} are called.\n     */\n    function allowance(address owner, address spender) external view returns (uint256);\n\n    /**\n     * @dev Sets `amount` as the allowance of `spender` over the caller's tokens.\n     *\n     * Returns a boolean value indicating whether the operation succeeded.\n     *\n     * IMPORTANT: Beware that changing an allowance with this method brings the risk\n     * that someone may use both the old and the new allowance by unfortunate\n     * transaction ordering. One possible solution to mitigate this race\n     * condition is to first reduce the spender's allowance to 0 and set the\n     * desired value afterwards:\n     * https://github.com/ethereum/EIPs/issues/20#issuecomment-263524729\n     *\n     * Emits an {Approval} event.\n     */\n    function approve(address spender, uint256 amount) external returns (bool);\n\n    /**\n     * @dev Moves `amount` tokens from `sender` to `recipient` using the\n     * allowance mechanism. `amount` is then deducted from the caller's\n     * allowance.\n     *\n     * Returns a boolean value indicating whether the operation succeeded.\n     *\n     * Emits a {Transfer} event.\n     */\n    function transferFrom(address sender, address recipient, uint256 amount) external returns (bool);\n\n    /**\n     * @dev Emitted when `value` tokens are moved from one account (`from`) to\n     * another (`to`).\n     *\n     * Note that `value` may be zero.\n     */\n    event Transfer(address indexed from, address indexed to, uint256 value);\n\n    /**\n     * @dev Emitted when the allowance of a `spender` for an `owner` is set by\n     * a call to {approve}. `value` is the new allowance.\n     */\n    event Approval(address indexed owner, address indexed spender, uint256 value);\n}\n\n/**\n * @title SafeERC20\n * @dev Wrappers around ERC20 operations that throw on failure (when the token\n * contract returns false). Tokens that return no value (and instead revert or\n * throw on failure) are also supported, non-reverting calls are assumed to be\n * successful.\n * To use this library you can add a `using SafeERC20 for IERC20;` statement to your contract,\n * which allows you to call the safe operations as `token.safeTransfer(...)`, etc.\n */\nlibrary SafeERC20 {\n    using Address for address;\n\n    function safeTransfer(IERC20 token, address to, uint256 value) internal {\n        _callOptionalReturn(token, abi.encodeWithSelector(token.transfer.selector, to, value));\n    }\n\n    function safeTransferFrom(IERC20 token, address from, address to, uint256 value) internal {\n        _callOptionalReturn(token, abi.encodeWithSelector(token.transferFrom.selector, from, to, value));\n    }\n\n    /**\n     * @dev Deprecated. This function has issues similar to the ones found in\n     * {IERC20-approve}, and its usage is discouraged.\n     *\n     * Whenever possible, use {safeIncreaseAllowance} and\n     * {safeDecreaseAllowance} instead.\n     */\n    function safeApprove(IERC20 token, address spender, uint256 value) internal {\n        // safeApprove should only be called when setting an initial allowance,\n        // or when resetting it to zero. To increase and decrease it, use\n        // 'safeIncreaseAllowance' and 'safeDecreaseAllowance'\n        // solhint-disable-next-line max-line-length\n        require((value == 0) || (token.allowance(address(this), spender) == 0),\n            \"SafeERC20: approve from non-zero to non-zero allowance\"\n        );\n        _callOptionalReturn(token, abi.encodeWithSelector(token.approve.selector, spender, value));\n    }\n\n    function safeIncreaseAllowance(IERC20 token, address spender, uint256 value) internal {\n        uint256 newAllowance = token.allowance(address(this), spender) + value;\n        _callOptionalReturn(token, abi.encodeWithSelector(token.approve.selector, spender, newAllowance));\n    }\n\n    function safeDecreaseAllowance(IERC20 token, address spender, uint256 value) internal {\n            uint256 oldAllowance = token.allowance(address(this), spender);\n            require(oldAllowance >= value, \"SafeERC20: decreased allowance below zero\");\n            uint256 newAllowance = oldAllowance - value;\n            _callOptionalReturn(token, abi.encodeWithSelector(token.approve.selector, spender, newAllowance));\n    }\n\n    /**\n     * @dev Imitates a Solidity high-level call (i.e. a regular function call to a contract), relaxing the requirement\n     * on the return value: the return value is optional (but if data is returned, it must not be false).\n     * @param token The token targeted by the call.\n     * @param data The call data (encoded using abi.encode or one of its variants).\n     */\n    function _callOptionalReturn(IERC20 token, bytes memory data) private {\n        // We need to perform a low level call here, to bypass Solidity's return data size checking mechanism, since\n        // we're implementing it ourselves. We use {Address.functionCall} to perform this call, which verifies that\n        // the target address contains contract code and also asserts for success in the low-level call.\n\n        bytes memory returndata = address(token).functionCall(data, \"SafeERC20: low-level call failed\");\n        if (returndata.length > 0) { // Return data is optional\n            // solhint-disable-next-line max-line-length\n            require(abi.decode(returndata, (bool)), \"SafeERC20: ERC20 operation did not succeed\");\n        }\n    }\n}\n\ncontract HashedTimeLockContract {\n    using SafeERC20 for IERC20;\n    mapping(bytes32 => LockContract) public contracts;\n\n    //                   / - WITHDRAWN\n    // INVALID - ACTIVE |\n    //                   \\ - EXPIRED - REFUNDED\n\n    uint256 public constant INVALID = 0; // Uninitialized  swap -> can go to ACTIVE\n    uint256 public constant ACTIVE = 1; // Active swap -> can go to WITHDRAWN or EXPIRED\n    uint256 public constant REFUNDED = 2; // Swap is refunded -> final state.\n    uint256 public constant WITHDRAWN = 3; // Swap is withdrawn -> final state.\n    uint256 public constant EXPIRED = 4; // Swap is expired -> can go to REFUNDED\n\n    struct LockContract {\n        uint256 inputAmount;\n        uint256 outputAmount;\n        uint256 expiration;\n        uint256 status;\n        bytes32 hashLock;\n        address tokenAddress;\n        address sender;\n        address receiver;\n        string outputNetwork;\n        string outputAddress;\n    }\n\n    event Withdraw(\n        bytes32 id,\n        bytes32 secret,\n        bytes32 hashLock,\n        address indexed tokenAddress,\n        address indexed sender,\n        address indexed receiver\n    );\n\n    event Refund(\n        bytes32 id,\n        bytes32 hashLock,\n        address indexed tokenAddress,\n        address indexed sender,\n        address indexed receiver\n    );\n\n    event NewContract(\n        uint256 inputAmount,\n        uint256 outputAmount,\n        uint256 expiration,\n        bytes32 id,\n        bytes32 hashLock,\n        address indexed tokenAddress,\n        address indexed sender,\n        address indexed receiver,\n        string outputNetwork,\n        string outputAddress\n    );\n\n    function newContract(\n        uint256 inputAmount,\n        uint256 outputAmount,\n        uint256 expiration,\n        bytes32 hashLock,\n        address tokenAddress,\n        address receiver,\n        string calldata outputNetwork,\n        string calldata outputAddress\n    ) external {\n        require(expiration > block.timestamp, \"INVALID_TIME\");\n\n        require(inputAmount > 0, \"INVALID_AMOUNT\");\n\n        IERC20(tokenAddress).transferFrom(msg.sender, address(this), inputAmount);\n\n        bytes32 id = keccak256(\n            abi.encodePacked(\n                msg.sender,\n                receiver,\n                inputAmount,\n                hashLock,\n                expiration,\n                tokenAddress\n            )\n        );\n\n        require(contracts[id].status == INVALID, \"SWAP_EXISTS\");\n\n        contracts[id] = LockContract(\n            inputAmount,\n            outputAmount,\n            expiration,\n            ACTIVE,\n            hashLock,\n            tokenAddress,\n            msg.sender,\n            receiver,\n            outputNetwork,\n            outputAddress\n        );\n\n        emit NewContract(\n            inputAmount,\n            outputAmount,\n            expiration,\n            id,\n            hashLock,\n            tokenAddress,\n            msg.sender,\n            receiver,\n            outputNetwork,\n            outputAddress\n        );\n    }\n\n    function withdraw(bytes32 id, bytes32 secret)\n        external\n    {\n        LockContract storage c = contracts[id];\n\n        require(c.status == ACTIVE, \"SWAP_NOT_ACTIVE\");\n\n        require(c.expiration > block.timestamp, \"INVALID_TIME\");\n\n        require(\n            c.hashLock == sha256(abi.encodePacked(secret)),\n            \"INVALID_SECRET\"\n        );\n\n        c.status = WITHDRAWN;\n\n        IERC20(c.tokenAddress).transfer(c.receiver, c.inputAmount);\n\n        emit Withdraw(\n            id,\n            secret,\n            c.hashLock,\n            c.tokenAddress,\n            c.sender,\n            c.receiver\n        );\n    }\n\n    function refund(bytes32 id) external {\n        LockContract storage c = contracts[id];\n\n        require(c.status == ACTIVE, \"SWAP_NOT_ACTIVE\");\n\n        require(c.expiration <= block.timestamp, \"INVALID_TIME\");\n\n        c.status = REFUNDED;\n\n        IERC20(c.tokenAddress).transfer(c.sender, c.inputAmount);\n\n        emit Refund(id, c.hashLock, c.tokenAddress, c.sender, c.receiver);\n    }\n\n    function getStatus(bytes32[] memory ids)\n        public\n        view\n        returns (uint256[] memory)\n    {\n        uint256[] memory result = new uint256[](ids.length);\n\n        for (uint256 index = 0; index < ids.length; index++) {\n            result[index] = getSingleStatus(ids[index]);\n        }\n\n        return result;\n    }\n\n    function getSingleStatus(bytes32 id) public view returns (uint256 result) {\n        LockContract memory tempContract = contracts[id];\n\n        if (\n            tempContract.status == ACTIVE &&\n            tempContract.expiration < block.timestamp\n        ) {\n            result = EXPIRED;\n        } else {\n            result = tempContract.status;\n        }\n    }\n}",
  "sourcePath": "/Users/jordigironamezcua/pruebas/contracts/HashTimeLock.sol",
  "compiler": {
    "name": "solc",
    "version": "0.8.0+commit.c7dfd78e.Emscripten.clang"
  },
  "schemaVersion": "3.3.3",
  "updatedAt": "2021-02-09T19:02:21.044Z",
  "devdoc": {
    "kind": "dev",
    "methods": {},
    "version": 1
  },
  "userdoc": {
    "kind": "user",
    "methods": {},
    "version": 1
  }
}