{
    "contractName": "CBDCcontract",
    "abi": [
        {
            "inputs": [],
            "stateMutability": "nonpayable",
            "type": "constructor"
        },
        {
            "anonymous": false,
            "inputs": [
                {
                    "indexed": true,
                    "internalType": "address",
                    "name": "owner",
                    "type": "address"
                },
                {
                    "indexed": true,
                    "internalType": "address",
                    "name": "spender",
                    "type": "address"
                },
                {
                    "indexed": false,
                    "internalType": "uint256",
                    "name": "value",
                    "type": "uint256"
                }
            ],
            "name": "Approval",
            "type": "event"
        },
        {
            "anonymous": false,
            "inputs": [
                {
                    "indexed": true,
                    "internalType": "address",
                    "name": "previousOwner",
                    "type": "address"
                },
                {
                    "indexed": true,
                    "internalType": "address",
                    "name": "newOwner",
                    "type": "address"
                }
            ],
            "name": "OwnershipTransferred",
            "type": "event"
        },
        {
            "anonymous": false,
            "inputs": [
                {
                    "indexed": true,
                    "internalType": "address",
                    "name": "from",
                    "type": "address"
                },
                {
                    "indexed": true,
                    "internalType": "address",
                    "name": "to",
                    "type": "address"
                },
                {
                    "indexed": false,
                    "internalType": "uint256",
                    "name": "value",
                    "type": "uint256"
                }
            ],
            "name": "Transfer",
            "type": "event"
        },
        {
            "inputs": [
                {
                    "internalType": "address",
                    "name": "owner",
                    "type": "address"
                },
                {
                    "internalType": "address",
                    "name": "spender",
                    "type": "address"
                }
            ],
            "name": "allowance",
            "outputs": [
                {
                    "internalType": "uint256",
                    "name": "",
                    "type": "uint256"
                }
            ],
            "stateMutability": "view",
            "type": "function"
        },
        {
            "inputs": [
                {
                    "internalType": "address",
                    "name": "spender",
                    "type": "address"
                },
                {
                    "internalType": "uint256",
                    "name": "amount",
                    "type": "uint256"
                }
            ],
            "name": "approve",
            "outputs": [
                {
                    "internalType": "bool",
                    "name": "",
                    "type": "bool"
                }
            ],
            "stateMutability": "nonpayable",
            "type": "function"
        },
        {
            "inputs": [
                {
                    "internalType": "address",
                    "name": "account",
                    "type": "address"
                }
            ],
            "name": "balanceOf",
            "outputs": [
                {
                    "internalType": "uint256",
                    "name": "",
                    "type": "uint256"
                }
            ],
            "stateMutability": "view",
            "type": "function"
        },
        {
            "inputs": [
                {
                    "internalType": "uint256",
                    "name": "amount",
                    "type": "uint256"
                }
            ],
            "name": "burn",
            "outputs": [],
            "stateMutability": "nonpayable",
            "type": "function"
        },
        {
            "inputs": [],
            "name": "decimals",
            "outputs": [
                {
                    "internalType": "uint8",
                    "name": "",
                    "type": "uint8"
                }
            ],
            "stateMutability": "view",
            "type": "function"
        },
        {
            "inputs": [
                {
                    "internalType": "address",
                    "name": "spender",
                    "type": "address"
                },
                {
                    "internalType": "uint256",
                    "name": "subtractedValue",
                    "type": "uint256"
                }
            ],
            "name": "decreaseAllowance",
            "outputs": [
                {
                    "internalType": "bool",
                    "name": "",
                    "type": "bool"
                }
            ],
            "stateMutability": "nonpayable",
            "type": "function"
        },
        {
            "inputs": [
                {
                    "internalType": "uint256",
                    "name": "amount",
                    "type": "uint256"
                },
                {
                    "internalType": "string",
                    "name": "asset_ref_id",
                    "type": "string"
                }
            ],
            "name": "escrow",
            "outputs": [],
            "stateMutability": "nonpayable",
            "type": "function"
        },
        {
            "inputs": [
                {
                    "internalType": "address",
                    "name": "spender",
                    "type": "address"
                },
                {
                    "internalType": "uint256",
                    "name": "addedValue",
                    "type": "uint256"
                }
            ],
            "name": "increaseAllowance",
            "outputs": [
                {
                    "internalType": "bool",
                    "name": "",
                    "type": "bool"
                }
            ],
            "stateMutability": "nonpayable",
            "type": "function"
        },
        {
            "inputs": [
                {
                    "internalType": "address",
                    "name": "account",
                    "type": "address"
                },
                {
                    "internalType": "uint256",
                    "name": "amount",
                    "type": "uint256"
                }
            ],
            "name": "mint",
            "outputs": [],
            "stateMutability": "nonpayable",
            "type": "function"
        },
        {
            "inputs": [],
            "name": "name",
            "outputs": [
                {
                    "internalType": "string",
                    "name": "",
                    "type": "string"
                }
            ],
            "stateMutability": "view",
            "type": "function"
        },
        {
            "inputs": [],
            "name": "owner",
            "outputs": [
                {
                    "internalType": "address",
                    "name": "",
                    "type": "address"
                }
            ],
            "stateMutability": "view",
            "type": "function"
        },
        {
            "inputs": [],
            "name": "renounceOwnership",
            "outputs": [],
            "stateMutability": "nonpayable",
            "type": "function"
        },
        {
            "inputs": [
                {
                    "internalType": "address[]",
                    "name": "accounts",
                    "type": "address[]"
                }
            ],
            "name": "resetBalanceOf",
            "outputs": [],
            "stateMutability": "nonpayable",
            "type": "function"
        },
        {
            "inputs": [
                {
                    "internalType": "address",
                    "name": "contract_address",
                    "type": "address"
                }
            ],
            "name": "setAssetReferenceContract",
            "outputs": [],
            "stateMutability": "nonpayable",
            "type": "function"
        },
        {
            "inputs": [],
            "name": "symbol",
            "outputs": [
                {
                    "internalType": "string",
                    "name": "",
                    "type": "string"
                }
            ],
            "stateMutability": "view",
            "type": "function"
        },
        {
            "inputs": [],
            "name": "totalSupply",
            "outputs": [
                {
                    "internalType": "uint256",
                    "name": "",
                    "type": "uint256"
                }
            ],
            "stateMutability": "view",
            "type": "function"
        },
        {
            "inputs": [
                {
                    "internalType": "address",
                    "name": "recipient",
                    "type": "address"
                },
                {
                    "internalType": "uint256",
                    "name": "amount",
                    "type": "uint256"
                }
            ],
            "name": "transfer",
            "outputs": [
                {
                    "internalType": "bool",
                    "name": "",
                    "type": "bool"
                }
            ],
            "stateMutability": "nonpayable",
            "type": "function"
        },
        {
            "inputs": [
                {
                    "internalType": "address",
                    "name": "sender",
                    "type": "address"
                },
                {
                    "internalType": "address",
                    "name": "recipient",
                    "type": "address"
                },
                {
                    "internalType": "uint256",
                    "name": "amount",
                    "type": "uint256"
                }
            ],
            "name": "transferFrom",
            "outputs": [
                {
                    "internalType": "bool",
                    "name": "",
                    "type": "bool"
                }
            ],
            "stateMutability": "nonpayable",
            "type": "function"
        },
        {
            "inputs": [
                {
                    "internalType": "address",
                    "name": "newOwner",
                    "type": "address"
                }
            ],
            "name": "transferOwnership",
            "outputs": [],
            "stateMutability": "nonpayable",
            "type": "function"
        }
    ],
    "bytecode": "6080604052600680546001600160a01b031990811673f28d5769171bfbd2b3628d722e58129a6ae15022179091556007805490911690553480156200004357600080fd5b506040518060400160405280601a81526020017f43656e7472616c42616e6b4469676974616c43757272656e6379000000000000815250604051806040016040528060048152602001634342444360e01b815250620000b1620000ab620000d760201b60201c565b620000db565b6004620000bf8382620001d0565b506005620000ce8282620001d0565b5050506200029c565b3390565b600080546001600160a01b038381166001600160a01b0319831681178455604051919092169283917f8be0079c531659141344cd1fd0a4f28419497f9722a3daafe3b4186f6b6457e09190a35050565b634e487b7160e01b600052604160045260246000fd5b600181811c908216806200015657607f821691505b6020821081036200017757634e487b7160e01b600052602260045260246000fd5b50919050565b601f821115620001cb57600081815260208120601f850160051c81016020861015620001a65750805b601f850160051c820191505b81811015620001c757828155600101620001b2565b5050505b505050565b81516001600160401b03811115620001ec57620001ec6200012b565b6200020481620001fd845462000141565b846200017d565b602080601f8311600181146200023c5760008415620002235750858301515b600019600386901b1c1916600185901b178555620001c7565b600085815260208120601f198616915b828110156200026d578886015182559484019460019091019084016200024c565b50858210156200028c5787850151600019600388901b60f8161c191681555b5050505050600190811b01905550565b6111c980620002ac6000396000f3fe608060405234801561001057600080fd5b50600436106101215760003560e01c806342966c68116100ad57806395d89b411161007157806395d89b411461025b578063a457c2d714610263578063a9059cbb14610276578063dd62ed3e14610289578063f2fde38b146102c257600080fd5b806342966c68146101e957806370a08231146101fc578063715018a6146102255780638d1a450d1461022d5780638da5cb5b1461024057600080fd5b8063313ce567116100f4578063313ce5671461018c5780633459feb21461019b57806339509351146101b057806340c10f19146101c3578063417d11af146101d657600080fd5b806306fdde0314610126578063095ea7b31461014457806318160ddd1461016757806323b872dd14610179575b600080fd5b61012e6102d5565b60405161013b9190610e40565b60405180910390f35b610157610152366004610e8f565b610367565b604051901515815260200161013b565b6003545b60405190815260200161013b565b610157610187366004610eb9565b61037e565b6040516012815260200161013b565b6101ae6101a9366004610ef5565b61042d565b005b6101576101be366004610e8f565b6104ad565b6101ae6101d1366004610e8f565b6104e9565b6101ae6101e4366004610f6a565b610521565b6101ae6101f7366004610fe6565b61062f565b61016b61020a366004610fff565b6001600160a01b031660009081526001602052604090205490565b6101ae610672565b6101ae61023b366004610fff565b6106a8565b6000546040516001600160a01b03909116815260200161013b565b61012e6106f4565b610157610271366004610e8f565b610703565b610157610284366004610e8f565b61079c565b61016b610297366004611021565b6001600160a01b03918216600090815260026020908152604080832093909416825291909152205490565b6101ae6102d0366004610fff565b6107a9565b6060600480546102e490611054565b80601f016020809104026020016040519081016040528092919081815260200182805461031090611054565b801561035d5780601f106103325761010080835404028352916020019161035d565b820191906000526020600020905b81548152906001019060200180831161034057829003601f168201915b5050505050905090565b6000610374338484610841565b5060015b92915050565b600061038b848484610966565b6001600160a01b0384166000908152600260209081526040808320338452909152902054828110156104155760405162461bcd60e51b815260206004820152602860248201527f45524332303a207472616e7366657220616d6f756e74206578636565647320616044820152676c6c6f77616e636560c01b60648201526084015b60405180910390fd5b6104228533858403610841565b506001949350505050565b6000805b828110156104a75761046384848381811061044e5761044e61108e565b905060200201602081019061020a9190610fff565b915061049584848381811061047a5761047a61108e565b905060200201602081019061048f9190610fff565b83610b34565b8061049f816110ba565b915050610431565b50505050565b3360008181526002602090815260408083206001600160a01b038716845290915281205490916103749185906104e49086906110d3565b610841565b6000546001600160a01b031633146105135760405162461bcd60e51b815260040161040c906110e6565b61051d8282610c7a565b5050565b610529610d59565b60065461053f906001600160a01b03168461079c565b506007546040516000916001600160a01b03169061056790859085908890339060240161111b565b60408051601f198184030181529181526020820180516001600160e01b031663331de64960e11b1790525161059c9190611164565b6000604051808303816000865af19150503d80600081146105d9576040519150601f19603f3d011682016040523d82523d6000602084013e6105de565b606091505b50509050806104a75760405162461bcd60e51b815260206004820181905260248201527f63726561746541737365745265666572656e63652063616c6c206661696c6564604482015260640161040c565b6000546001600160a01b031633146106595760405162461bcd60e51b815260040161040c906110e6565b60065461066f906001600160a01b031682610b34565b50565b6000546001600160a01b0316331461069c5760405162461bcd60e51b815260040161040c906110e6565b6106a66000610dcc565b565b6000546001600160a01b031633146106d25760405162461bcd60e51b815260040161040c906110e6565b600780546001600160a01b0319166001600160a01b0392909216919091179055565b6060600580546102e490611054565b3360009081526002602090815260408083206001600160a01b0386168452909152812054828110156107855760405162461bcd60e51b815260206004820152602560248201527f45524332303a2064656372656173656420616c6c6f77616e63652062656c6f77604482015264207a65726f60d81b606482015260840161040c565b6107923385858403610841565b5060019392505050565b6000610374338484610966565b6000546001600160a01b031633146107d35760405162461bcd60e51b815260040161040c906110e6565b6001600160a01b0381166108385760405162461bcd60e51b815260206004820152602660248201527f4f776e61626c653a206e6577206f776e657220697320746865207a65726f206160448201526564647265737360d01b606482015260840161040c565b61066f81610dcc565b6001600160a01b0383166108a35760405162461bcd60e51b8152602060048201526024808201527f45524332303a20617070726f76652066726f6d20746865207a65726f206164646044820152637265737360e01b606482015260840161040c565b6001600160a01b0382166109045760405162461bcd60e51b815260206004820152602260248201527f45524332303a20617070726f766520746f20746865207a65726f206164647265604482015261737360f01b606482015260840161040c565b6001600160a01b0383811660008181526002602090815260408083209487168084529482529182902085905590518481527f8c5be1e5ebec7d5bd14f71427d1e84f3dd0314c0f7b2291e5b200ac8c7c3b92591015b60405180910390a3505050565b6001600160a01b0383166109ca5760405162461bcd60e51b815260206004820152602560248201527f45524332303a207472616e736665722066726f6d20746865207a65726f206164604482015264647265737360d81b606482015260840161040c565b6001600160a01b038216610a2c5760405162461bcd60e51b815260206004820152602360248201527f45524332303a207472616e7366657220746f20746865207a65726f206164647260448201526265737360e81b606482015260840161040c565b6001600160a01b03831660009081526001602052604090205481811015610aa45760405162461bcd60e51b815260206004820152602660248201527f45524332303a207472616e7366657220616d6f756e7420657863656564732062604482015265616c616e636560d01b606482015260840161040c565b6001600160a01b03808516600090815260016020526040808220858503905591851681529081208054849290610adb9084906110d3565b92505081905550826001600160a01b0316846001600160a01b03167fddf252ad1be2c89b69c2b068fc378daa952ba7f163c4a11628f55a4df523b3ef84604051610b2791815260200190565b60405180910390a36104a7565b6001600160a01b038216610b945760405162461bcd60e51b815260206004820152602160248201527f45524332303a206275726e2066726f6d20746865207a65726f206164647265736044820152607360f81b606482015260840161040c565b6001600160a01b03821660009081526001602052604090205481811015610c085760405162461bcd60e51b815260206004820152602260248201527f45524332303a206275726e20616d6f756e7420657863656564732062616c616e604482015261636560f01b606482015260840161040c565b6001600160a01b0383166000908152600160205260408120838303905560038054849290610c37908490611180565b90915550506040518281526000906001600160a01b038516907fddf252ad1be2c89b69c2b068fc378daa952ba7f163c4a11628f55a4df523b3ef90602001610959565b6001600160a01b038216610cd05760405162461bcd60e51b815260206004820152601f60248201527f45524332303a206d696e7420746f20746865207a65726f206164647265737300604482015260640161040c565b8060036000828254610ce291906110d3565b90915550506001600160a01b03821660009081526001602052604081208054839290610d0f9084906110d3565b90915550506040518181526001600160a01b038316906000907fddf252ad1be2c89b69c2b068fc378daa952ba7f163c4a11628f55a4df523b3ef9060200160405180910390a35050565b6007546001600160a01b03166106a65760405162461bcd60e51b815260206004820152603260248201527f43424443636f6e74726163743a206173736574207265666572656e636520636f6044820152711b9d1c9858dd081b9bdd081919599a5b995960721b606482015260840161040c565b600080546001600160a01b038381166001600160a01b0319831681178455604051919092169283917f8be0079c531659141344cd1fd0a4f28419497f9722a3daafe3b4186f6b6457e09190a35050565b60005b83811015610e37578181015183820152602001610e1f565b50506000910152565b6020815260008251806020840152610e5f816040850160208701610e1c565b601f01601f19169190910160400192915050565b80356001600160a01b0381168114610e8a57600080fd5b919050565b60008060408385031215610ea257600080fd5b610eab83610e73565b946020939093013593505050565b600080600060608486031215610ece57600080fd5b610ed784610e73565b9250610ee560208501610e73565b9150604084013590509250925092565b60008060208385031215610f0857600080fd5b823567ffffffffffffffff80821115610f2057600080fd5b818501915085601f830112610f3457600080fd5b813581811115610f4357600080fd5b8660208260051b8501011115610f5857600080fd5b60209290920196919550909350505050565b600080600060408486031215610f7f57600080fd5b83359250602084013567ffffffffffffffff80821115610f9e57600080fd5b818601915086601f830112610fb257600080fd5b813581811115610fc157600080fd5b876020828501011115610fd357600080fd5b6020830194508093505050509250925092565b600060208284031215610ff857600080fd5b5035919050565b60006020828403121561101157600080fd5b61101a82610e73565b9392505050565b6000806040838503121561103457600080fd5b61103d83610e73565b915061104b60208401610e73565b90509250929050565b600181811c9082168061106857607f821691505b60208210810361108857634e487b7160e01b600052602260045260246000fd5b50919050565b634e487b7160e01b600052603260045260246000fd5b634e487b7160e01b600052601160045260246000fd5b6000600182016110cc576110cc6110a4565b5060010190565b80820180821115610378576103786110a4565b6020808252818101527f4f776e61626c653a2063616c6c6572206973206e6f7420746865206f776e6572604082015260600190565b60608152836060820152838560808301376000608085830181019190915260208201939093526001600160a01b03919091166040820152601f909201601f191690910101919050565b60008251611176818460208701610e1c565b9190910192915050565b81810381811115610378576103786110a456fea26469706673582212208e0d27b796e78bc197361bd99b802d95e06f14b4ad47842414086729e5f6ad7c64736f6c63430008100033",
    "sourcePath": "/home/andre_9a/cactus/examples/cactus-example-cbdc-bridging-backend/src/solidity/cbdc-erc-20/cbdc-erc-20.sol",
    "compiler": {
        "name": "solc",
        "version": "0.8.16+commit.07a7930e"
    },
    "functionHashes": {
        "allowance(address,address)": "dd62ed3e",
        "approve(address,uint256)": "095ea7b3",
        "balanceOf(address)": "70a08231",
        "burn(uint256)": "42966c68",
        "decimals()": "313ce567",
        "decreaseAllowance(address,uint256)": "a457c2d7",
        "escrow(uint256,string)": "417d11af",
        "increaseAllowance(address,uint256)": "39509351",
        "mint(address,uint256)": "40c10f19",
        "name()": "06fdde03",
        "owner()": "8da5cb5b",
        "renounceOwnership()": "715018a6",
        "resetBalanceOf(address[])": "3459feb2",
        "setAssetReferenceContract(address)": "8d1a450d",
        "symbol()": "95d89b41",
        "totalSupply()": "18160ddd",
        "transfer(address,uint256)": "a9059cbb",
        "transferFrom(address,address,uint256)": "23b872dd",
        "transferOwnership(address)": "f2fde38b"
    },
    "gasEstimates": {
        "creation": {
            "codeDepositCost": "910600",
            "executionCost": "infinite",
            "totalCost": "infinite"
        },
        "external": {
            "allowance(address,address)": "infinite",
            "approve(address,uint256)": "24644",
            "balanceOf(address)": "2582",
            "burn(uint256)": "55148",
            "decimals()": "200",
            "decreaseAllowance(address,uint256)": "26933",
            "escrow(uint256,string)": "infinite",
            "increaseAllowance(address,uint256)": "infinite",
            "mint(address,uint256)": "infinite",
            "name()": "infinite",
            "owner()": "2412",
            "renounceOwnership()": "28181",
            "resetBalanceOf(address[])": "infinite",
            "setAssetReferenceContract(address)": "26800",
            "symbol()": "infinite",
            "totalSupply()": "2349",
            "transfer(address,uint256)": "infinite",
            "transferFrom(address,address,uint256)": "infinite",
            "transferOwnership(address)": "28419"
        },
        "internal": {
            "_checkAssetRefContract()": "infinite"
        }
    }
}