{"abi":[{"type":"function","name":"arithmeticError","inputs":[],"outputs":[{"name":"","type":"bytes","internalType":"bytes"}],"stateMutability":"view"},{"type":"function","name":"assertionError","inputs":[],"outputs":[{"name":"","type":"bytes","internalType":"bytes"}],"stateMutability":"view"},{"type":"function","name":"divisionError","inputs":[],"outputs":[{"name":"","type":"bytes","internalType":"bytes"}],"stateMutability":"view"},{"type":"function","name":"encodeStorageError","inputs":[],"outputs":[{"name":"","type":"bytes","internalType":"bytes"}],"stateMutability":"view"},{"type":"function","name":"enumConversionError","inputs":[],"outputs":[{"name":"","type":"bytes","internalType":"bytes"}],"stateMutability":"view"},{"type":"function","name":"indexOOBError","inputs":[],"outputs":[{"name":"","type":"bytes","internalType":"bytes"}],"stateMutability":"view"},{"type":"function","name":"memOverflowError","inputs":[],"outputs":[{"name":"","type":"bytes","internalType":"bytes"}],"stateMutability":"view"},{"type":"function","name":"popError","inputs":[],"outputs":[{"name":"","type":"bytes","internalType":"bytes"}],"stateMutability":"view"},{"type":"function","name":"zeroVarError","inputs":[],"outputs":[{"name":"","type":"bytes","internalType":"bytes"}],"stateMutability":"view"}],"bytecode":{"object":"0x61028d61003a600b82828239805160001a60731461002d57634e487b7160e01b600052600060045260246000fd5b30600052607381538281f3fe73000000000000000000000000000000000000000030146080604052600436106100ad5760003560e01c8063986c5f6811610080578063b67689da11610065578063b67689da146100f8578063d160e4de14610100578063fa784a441461010857600080fd5b8063986c5f68146100e8578063b22dc54d146100f057600080fd5b806305ee8612146100b257806310332977146100d05780631de45560146100d85780638995290f146100e0575b600080fd5b6100ba610110565b6040516100c79190610209565b60405180910390f35b6100ba610179565b6100ba61018b565b6100ba61019d565b6100ba6101af565b6100ba6101c1565b6100ba6101d3565b6100ba6101e5565b6100ba6101f7565b604051603260248201526044015b60408051601f198184030181529190526020810180517bffffffffffffffffffffffffffffffffffffffffffffffffffffffff167f4e487b710000000000000000000000000000000000000000000000000000000017905281565b6040516001602482015260440161011e565b6040516021602482015260440161011e565b6040516011602482015260440161011e565b6040516041602482015260440161011e565b6040516031602482015260440161011e565b6040516051602482015260440161011e565b6040516022602482015260440161011e565b6040516012602482015260440161011e565b600060208083528351808285015260005b818110156102365785810183015185820160400152820161021a565b506000604082860101526040601f19601f830116850101925050509291505056fea264697066735822122076ed256f3379a5260c3b0cc58765decec110893db549a8deaaeef2a1bc37bbd764736f6c63430008140033","linkReferences":{}},"methodIdentifiers":{"arithmeticError()":"8995290f","assertionError()":"10332977","divisionError()":"fa784a44","encodeStorageError()":"d160e4de","enumConversionError()":"1de45560","indexOOBError()":"05ee8612","memOverflowError()":"986c5f68","popError()":"b22dc54d","zeroVarError()":"b67689da"},"id":22}