{"abi":[{"type":"function","name":"excludeArtifacts","inputs":[],"outputs":[{"name":"excludedArtifacts_","type":"string[]","internalType":"string[]"}],"stateMutability":"view"},{"type":"function","name":"excludeContracts","inputs":[],"outputs":[{"name":"excludedContracts_","type":"address[]","internalType":"address[]"}],"stateMutability":"view"},{"type":"function","name":"excludeSenders","inputs":[],"outputs":[{"name":"excludedSenders_","type":"address[]","internalType":"address[]"}],"stateMutability":"view"},{"type":"function","name":"targetArtifactSelectors","inputs":[],"outputs":[{"name":"targetedArtifactSelectors_","type":"tuple[]","internalType":"struct StdInvariant.FuzzSelector[]","components":[{"name":"addr","type":"address","internalType":"address"},{"name":"selectors","type":"bytes4[]","internalType":"bytes4[]"}]}],"stateMutability":"view"},{"type":"function","name":"targetArtifacts","inputs":[],"outputs":[{"name":"targetedArtifacts_","type":"string[]","internalType":"string[]"}],"stateMutability":"view"},{"type":"function","name":"targetContracts","inputs":[],"outputs":[{"name":"targetedContracts_","type":"address[]","internalType":"address[]"}],"stateMutability":"view"},{"type":"function","name":"targetSelectors","inputs":[],"outputs":[{"name":"targetedSelectors_","type":"tuple[]","internalType":"struct StdInvariant.FuzzSelector[]","components":[{"name":"addr","type":"address","internalType":"address"},{"name":"selectors","type":"bytes4[]","internalType":"bytes4[]"}]}],"stateMutability":"view"},{"type":"function","name":"targetSenders","inputs":[],"outputs":[{"name":"targetedSenders_","type":"address[]","internalType":"address[]"}],"stateMutability":"view"}],"bytecode":{"object":"0x608060405234801561000f575f80fd5b506108298061001d5f395ff3fe608060405234801561000f575f80fd5b5060043610610085575f3560e01c806385226c811161005857806385226c81146100cc578063916a17c6146100e1578063b5508aa9146100e9578063e20c9f71146100f1575f80fd5b80631ed7831c146100895780633e5e3c23146100a75780633f7286f4146100af57806366d9a9a0146100b7575b5f80fd5b6100916100f9565b60405161009e91906105fd565b60405180910390f35b610091610159565b6100916101b7565b6100bf610215565b60405161009e9190610649565b6100d4610314565b60405161009e9190610712565b6100bf6103df565b6100d46104d5565b6100916105a0565b6060600180548060200260200160405190810160405280929190818152602001828054801561014f57602002820191905f5260205f20905b81546001600160a01b03168152600190910190602001808311610131575b5050505050905090565b6060600380548060200260200160405190810160405280929190818152602001828054801561014f57602002820191905f5260205f209081546001600160a01b03168152600190910190602001808311610131575050505050905090565b6060600280548060200260200160405190810160405280929190818152602001828054801561014f57602002820191905f5260205f209081546001600160a01b03168152600190910190602001808311610131575050505050905090565b60606006805480602002602001604051908101604052809291908181526020015f905b8282101561030b575f8481526020908190206040805180820182526002860290920180546001600160a01b031683526001810180548351818702810187019094528084529394919385830193928301828280156102f357602002820191905f5260205f20905f905b82829054906101000a900460e01b7bffffffffffffffffffffffffffffffffffffffffffffffffffffffff1916815260200190600401906020826003010492830192600103820291508084116102a05790505b50505050508152505081526020019060010190610238565b50505050905090565b60606005805480602002602001604051908101604052809291908181526020015f905b8282101561030b578382905f5260205f20018054610354906107a2565b80601f0160208091040260200160405190810160405280929190818152602001828054610380906107a2565b80156103cb5780601f106103a2576101008083540402835291602001916103cb565b820191905f5260205f20905b8154815290600101906020018083116103ae57829003601f168201915b505050505081526020019060010190610337565b60606007805480602002602001604051908101604052809291908181526020015f905b8282101561030b575f8481526020908190206040805180820182526002860290920180546001600160a01b031683526001810180548351818702810187019094528084529394919385830193928301828280156104bd57602002820191905f5260205f20905f905b82829054906101000a900460e01b7bffffffffffffffffffffffffffffffffffffffffffffffffffffffff19168152602001906004019060208260030104928301926001038202915080841161046a5790505b50505050508152505081526020019060010190610402565b60606004805480602002602001604051908101604052809291908181526020015f905b8282101561030b578382905f5260205f20018054610515906107a2565b80601f0160208091040260200160405190810160405280929190818152602001828054610541906107a2565b801561058c5780601f106105635761010080835404028352916020019161058c565b820191905f5260205f20905b81548152906001019060200180831161056f57829003601f168201915b5050505050815260200190600101906104f8565b60605f80548060200260200160405190810160405280929190818152602001828054801561014f57602002820191905f5260205f209081546001600160a01b03168152600190910190602001808311610131575050505050905090565b602080825282518282018190525f9190848201906040850190845b8181101561063d5783516001600160a01b031683529284019291840191600101610618565b50909695505050505050565b5f6020808301818452808551808352604092508286019150828160051b8701018488015f805b8481101561070357898403603f19018652825180516001600160a01b03168552880151888501889052805188860181905290890190839060608701905b808310156106ee5783517fffffffff00000000000000000000000000000000000000000000000000000000168252928b019260019290920191908b01906106ac565b50978a0197955050509187019160010161066f565b50919998505050505050505050565b5f602080830181845280855180835260408601915060408160051b87010192508387015f805b8381101561079457888603603f1901855282518051808852835b8181101561076d578281018a01518982018b01528901610752565b508781018901849052601f01601f1916909601870195509386019391860191600101610738565b509398975050505050505050565b600181811c908216806107b657607f821691505b6020821081036107ed577f4e487b71000000000000000000000000000000000000000000000000000000005f52602260045260245ffd5b5091905056fea264697066735822122048aff44189617230cc0ebd7a5c941bd5464f79ee9d38bf0d48af164cebd89b4864736f6c63430008140033","linkReferences":{}},"methodIdentifiers":{"excludeArtifacts()":"b5508aa9","excludeContracts()":"e20c9f71","excludeSenders()":"1ed7831c","targetArtifactSelectors()":"66d9a9a0","targetArtifacts()":"85226c81","targetContracts()":"3f7286f4","targetSelectors()":"916a17c6","targetSenders()":"3e5e3c23"},"id":19}