{"abi":[{"type":"function","name":"excludeArtifacts","inputs":[],"outputs":[{"name":"excludedArtifacts_","type":"string[]","internalType":"string[]"}],"stateMutability":"view"},{"type":"function","name":"excludeContracts","inputs":[],"outputs":[{"name":"excludedContracts_","type":"address[]","internalType":"address[]"}],"stateMutability":"view"},{"type":"function","name":"excludeSenders","inputs":[],"outputs":[{"name":"excludedSenders_","type":"address[]","internalType":"address[]"}],"stateMutability":"view"},{"type":"function","name":"targetArtifactSelectors","inputs":[],"outputs":[{"name":"targetedArtifactSelectors_","type":"tuple[]","internalType":"struct StdInvariant.FuzzSelector[]","components":[{"name":"addr","type":"address","internalType":"address"},{"name":"selectors","type":"bytes4[]","internalType":"bytes4[]"}]}],"stateMutability":"view"},{"type":"function","name":"targetArtifacts","inputs":[],"outputs":[{"name":"targetedArtifacts_","type":"string[]","internalType":"string[]"}],"stateMutability":"view"},{"type":"function","name":"targetContracts","inputs":[],"outputs":[{"name":"targetedContracts_","type":"address[]","internalType":"address[]"}],"stateMutability":"view"},{"type":"function","name":"targetSelectors","inputs":[],"outputs":[{"name":"targetedSelectors_","type":"tuple[]","internalType":"struct StdInvariant.FuzzSelector[]","components":[{"name":"addr","type":"address","internalType":"address"},{"name":"selectors","type":"bytes4[]","internalType":"bytes4[]"}]}],"stateMutability":"view"},{"type":"function","name":"targetSenders","inputs":[],"outputs":[{"name":"targetedSenders_","type":"address[]","internalType":"address[]"}],"stateMutability":"view"}],"bytecode":{"object":"0x608060405234801561001057600080fd5b50610851806100206000396000f3fe608060405234801561001057600080fd5b50600436106100885760003560e01c806385226c811161005b57806385226c81146100d0578063916a17c6146100e5578063b5508aa9146100ed578063e20c9f71146100f557600080fd5b80631ed7831c1461008d5780633e5e3c23146100ab5780633f7286f4146100b357806366d9a9a0146100bb575b600080fd5b6100956100fd565b6040516100a2919061061e565b60405180910390f35b61009561015f565b6100956101bf565b6100c361021f565b6040516100a2919061066b565b6100d8610323565b6040516100a29190610736565b6100c36103f3565b6100d86104ee565b6100956105be565b6060600180548060200260200160405190810160405280929190818152602001828054801561015557602002820191906000526020600020905b81546001600160a01b03168152600190910190602001808311610137575b5050505050905090565b60606003805480602002602001604051908101604052809291908181526020018280548015610155576020028201919060005260206000209081546001600160a01b03168152600190910190602001808311610137575050505050905090565b60606002805480602002602001604051908101604052809291908181526020018280548015610155576020028201919060005260206000209081546001600160a01b03168152600190910190602001808311610137575050505050905090565b60606006805480602002602001604051908101604052809291908181526020016000905b8282101561031a5760008481526020908190206040805180820182526002860290920180546001600160a01b0316835260018101805483518187028101870190945280845293949193858301939283018282801561030257602002820191906000526020600020906000905b82829054906101000a900460e01b7bffffffffffffffffffffffffffffffffffffffffffffffffffffffff1916815260200190600401906020826003010492830192600103820291508084116102af5790505b50505050508152505081526020019060010190610243565b50505050905090565b60606005805480602002602001604051908101604052809291908181526020016000905b8282101561031a578382906000526020600020018054610366906107c8565b80601f0160208091040260200160405190810160405280929190818152602001828054610392906107c8565b80156103df5780601f106103b4576101008083540402835291602001916103df565b820191906000526020600020905b8154815290600101906020018083116103c257829003601f168201915b505050505081526020019060010190610347565b60606007805480602002602001604051908101604052809291908181526020016000905b8282101561031a5760008481526020908190206040805180820182526002860290920180546001600160a01b031683526001810180548351818702810187019094528084529394919385830193928301828280156104d657602002820191906000526020600020906000905b82829054906101000a900460e01b7bffffffffffffffffffffffffffffffffffffffffffffffffffffffff1916815260200190600401906020826003010492830192600103820291508084116104835790505b50505050508152505081526020019060010190610417565b60606004805480602002602001604051908101604052809291908181526020016000905b8282101561031a578382906000526020600020018054610531906107c8565b80601f016020809104026020016040519081016040528092919081815260200182805461055d906107c8565b80156105aa5780601f1061057f576101008083540402835291602001916105aa565b820191906000526020600020905b81548152906001019060200180831161058d57829003601f168201915b505050505081526020019060010190610512565b60606000805480602002602001604051908101604052809291908181526020018280548015610155576020028201919060005260206000209081546001600160a01b03168152600190910190602001808311610137575050505050905090565b6020808252825182820181905260009190848201906040850190845b8181101561065f5783516001600160a01b03168352928401929184019160010161063a565b50909695505050505050565b60006020808301818452808551808352604092508286019150828160051b8701018488016000805b8481101561072757898403603f19018652825180516001600160a01b03168552880151888501889052805188860181905290890190839060608701905b808310156107125783517fffffffff00000000000000000000000000000000000000000000000000000000168252928b019260019290920191908b01906106d0565b50978a01979550505091870191600101610693565b50919998505050505050505050565b6000602080830181845280855180835260408601915060408160051b87010192508387016000805b838110156107ba57888603603f1901855282518051808852835b81811015610793578281018a01518982018b01528901610778565b508781018901849052601f01601f191690960187019550938601939186019160010161075e565b509398975050505050505050565b600181811c908216806107dc57607f821691505b602082108103610815577f4e487b7100000000000000000000000000000000000000000000000000000000600052602260045260246000fd5b5091905056fea2646970667358221220f7f844bb21a67fba8d32085e7751c494e2be08ed68cf922ef52f90305d861c5a64736f6c63430008140033","linkReferences":{}},"methodIdentifiers":{"excludeArtifacts()":"b5508aa9","excludeContracts()":"e20c9f71","excludeSenders()":"1ed7831c","targetArtifactSelectors()":"66d9a9a0","targetArtifacts()":"85226c81","targetContracts()":"3f7286f4","targetSelectors()":"916a17c6","targetSenders()":"3e5e3c23"},"id":23}