{
  "contractName": "HashTimeLock",
  "abi": [
    {
      "anonymous": false,
      "inputs": [
        {
          "indexed": false,
          "internalType": "uint256",
          "name": "inputAmount",
          "type": "uint256"
        },
        {
          "indexed": false,
          "internalType": "uint256",
          "name": "outputAmount",
          "type": "uint256"
        },
        {
          "indexed": false,
          "internalType": "uint256",
          "name": "expiration",
          "type": "uint256"
        },
        {
          "indexed": true,
          "internalType": "bytes32",
          "name": "id",
          "type": "bytes32"
        },
        {
          "indexed": false,
          "internalType": "bytes32",
          "name": "hashLock",
          "type": "bytes32"
        },
        {
          "indexed": true,
          "internalType": "address",
          "name": "sender",
          "type": "address"
        },
        {
          "indexed": true,
          "internalType": "address",
          "name": "receiver",
          "type": "address"
        },
        {
          "indexed": false,
          "internalType": "string",
          "name": "outputNetwork",
          "type": "string"
        },
        {
          "indexed": false,
          "internalType": "string",
          "name": "outputAddress",
          "type": "string"
        }
      ],
      "name": "NewContract",
      "type": "event"
    },
    {
      "anonymous": false,
      "inputs": [
        {
          "indexed": true,
          "internalType": "bytes32",
          "name": "id",
          "type": "bytes32"
        },
        {
          "indexed": false,
          "internalType": "bytes32",
          "name": "hashLock",
          "type": "bytes32"
        },
        {
          "indexed": true,
          "internalType": "address",
          "name": "sender",
          "type": "address"
        },
        {
          "indexed": true,
          "internalType": "address",
          "name": "receiver",
          "type": "address"
        }
      ],
      "name": "Refund",
      "type": "event"
    },
    {
      "anonymous": false,
      "inputs": [
        {
          "indexed": true,
          "internalType": "bytes32",
          "name": "id",
          "type": "bytes32"
        },
        {
          "indexed": false,
          "internalType": "bytes32",
          "name": "secret",
          "type": "bytes32"
        },
        {
          "indexed": false,
          "internalType": "bytes32",
          "name": "hashLock",
          "type": "bytes32"
        },
        {
          "indexed": true,
          "internalType": "address",
          "name": "sender",
          "type": "address"
        },
        {
          "indexed": true,
          "internalType": "address",
          "name": "receiver",
          "type": "address"
        }
      ],
      "name": "Withdraw",
      "type": "event"
    },
    {
      "inputs": [],
      "name": "ACTIVE",
      "outputs": [
        {
          "internalType": "uint256",
          "name": "",
          "type": "uint256"
        }
      ],
      "stateMutability": "view",
      "type": "function"
    },
    {
      "inputs": [],
      "name": "EXPIRED",
      "outputs": [
        {
          "internalType": "uint256",
          "name": "",
          "type": "uint256"
        }
      ],
      "stateMutability": "view",
      "type": "function"
    },
    {
      "inputs": [],
      "name": "INVALID",
      "outputs": [
        {
          "internalType": "uint256",
          "name": "",
          "type": "uint256"
        }
      ],
      "stateMutability": "view",
      "type": "function"
    },
    {
      "inputs": [],
      "name": "REFUNDED",
      "outputs": [
        {
          "internalType": "uint256",
          "name": "",
          "type": "uint256"
        }
      ],
      "stateMutability": "view",
      "type": "function"
    },
    {
      "inputs": [],
      "name": "WITHDRAWN",
      "outputs": [
        {
          "internalType": "uint256",
          "name": "",
          "type": "uint256"
        }
      ],
      "stateMutability": "view",
      "type": "function"
    },
    {
      "inputs": [
        {
          "internalType": "bytes32",
          "name": "",
          "type": "bytes32"
        }
      ],
      "name": "contracts",
      "outputs": [
        {
          "internalType": "uint256",
          "name": "inputAmount",
          "type": "uint256"
        },
        {
          "internalType": "uint256",
          "name": "outputAmount",
          "type": "uint256"
        },
        {
          "internalType": "uint256",
          "name": "expiration",
          "type": "uint256"
        },
        {
          "internalType": "uint256",
          "name": "status",
          "type": "uint256"
        },
        {
          "internalType": "bytes32",
          "name": "hashLock",
          "type": "bytes32"
        },
        {
          "internalType": "address payable",
          "name": "sender",
          "type": "address"
        },
        {
          "internalType": "address payable",
          "name": "receiver",
          "type": "address"
        },
        {
          "internalType": "string",
          "name": "outputNetwork",
          "type": "string"
        },
        {
          "internalType": "string",
          "name": "outputAddress",
          "type": "string"
        }
      ],
      "stateMutability": "view",
      "type": "function"
    },
    {
      "inputs": [
        {
          "internalType": "uint256",
          "name": "outputAmount",
          "type": "uint256"
        },
        {
          "internalType": "uint256",
          "name": "expiration",
          "type": "uint256"
        },
        {
          "internalType": "bytes32",
          "name": "hashLock",
          "type": "bytes32"
        },
        {
          "internalType": "address payable",
          "name": "receiver",
          "type": "address"
        },
        {
          "internalType": "string",
          "name": "outputNetwork",
          "type": "string"
        },
        {
          "internalType": "string",
          "name": "outputAddress",
          "type": "string"
        }
      ],
      "name": "newContract",
      "outputs": [],
      "stateMutability": "payable",
      "type": "function"
    },
    {
      "inputs": [
        {
          "internalType": "bytes32",
          "name": "id",
          "type": "bytes32"
        },
        {
          "internalType": "bytes32",
          "name": "secret",
          "type": "bytes32"
        }
      ],
      "name": "withdraw",
      "outputs": [],
      "stateMutability": "nonpayable",
      "type": "function"
    },
    {
      "inputs": [
        {
          "internalType": "bytes32",
          "name": "id",
          "type": "bytes32"
        }
      ],
      "name": "refund",
      "outputs": [],
      "stateMutability": "nonpayable",
      "type": "function"
    },
    {
      "inputs": [
        {
          "internalType": "bytes32[]",
          "name": "ids",
          "type": "bytes32[]"
        }
      ],
      "name": "getStatus",
      "outputs": [
        {
          "internalType": "uint256[]",
          "name": "",
          "type": "uint256[]"
        }
      ],
      "stateMutability": "view",
      "type": "function"
    },
    {
      "inputs": [
        {
          "internalType": "bytes32",
          "name": "id",
          "type": "bytes32"
        }
      ],
      "name": "getSingleStatus",
      "outputs": [
        {
          "internalType": "uint256",
          "name": "result",
          "type": "uint256"
        }
      ],
      "stateMutability": "view",
      "type": "function"
    },
    {
      "inputs": [
        {
          "internalType": "bytes32",
          "name": "id",
          "type": "bytes32"
        }
      ],
      "name": "contractExists",
      "outputs": [
        {
          "internalType": "bool",
          "name": "result",
          "type": "bool"
        }
      ],
      "stateMutability": "view",
      "type": "function"
    }
  ],
  "bytecode": "608060405234801561001057600080fd5b5061130e806100206000396000f3fe6080604052600436106100a75760003560e01c806394e15c8f1161006457806394e15c8f14610188578063af78feef1461019d578063c90bd047146101b2578063d3632095146101c7578063ec56a373146101da578063fbdf3b431461020f576100a7565b80632f21a663146100ac578063414ac85b146100e257806363615149146101045780636c8244b8146101265780637249fbb6146101535780637fcce2a914610173575b600080fd5b3480156100b857600080fd5b506100cc6100c7366004610e57565b61022f565b6040516100d991906110a6565b60405180910390f35b3480156100ee57600080fd5b506100f76102c7565b6040516100d99190611081565b34801561011057600080fd5b5061012461011f366004610f28565b6102cc565b005b34801561013257600080fd5b50610146610141366004610ef8565b61045b565b6040516100d991906110ea565b34801561015f57600080fd5b5061012461016e366004610ef8565b61061d565b34801561017f57600080fd5b506100f7610714565b34801561019457600080fd5b506100f7610719565b3480156101a957600080fd5b506100f761071e565b3480156101be57600080fd5b506100f7610723565b6101246101d5366004610f49565b610728565b3480156101e657600080fd5b506101fa6101f5366004610ef8565b6109e5565b6040516100d999989796959493929190611215565b34801561021b57600080fd5b506100f761022a366004610ef8565b610b52565b606080825167ffffffffffffffff8111801561024a57600080fd5b50604051908082528060200260200182016040528015610274578160200160208202803683370190505b50905060005b83518110156102be5761029f84828151811061029257fe5b6020026020010151610b52565b8282815181106102ab57fe5b602090810291909101015260010161027a565b5090505b919050565b600481565b600082815260208190526040902060038101546001146103075760405162461bcd60e51b81526004016102fe90611150565b60405180910390fd5b4281600201541161032a5760405162461bcd60e51b81526004016102fe90611179565b60028260405160200161033d9190611081565b60408051601f19818403018152908290526103579161108a565b602060405180830381855afa158015610374573d6000803e3d6000fd5b5050506040513d601f19601f820116820180604052508101906103979190610f10565b8160040154146103b95760405162461bcd60e51b81526004016102fe90611128565b600381810155600681015481546040516001600160a01b039092169181156108fc0291906000818181858888f193505050501580156103fc573d6000803e3d6000fd5b506006810154600582015460048301546040516001600160a01b03938416939092169186917f2d3a5ed13d0553389b4078e01264416362e34d23520fda797fbc17f3905ed1319161044e9188916110f5565b60405180910390a4505050565b6000610465610d1c565b60008381526020818152604091829020825161012081018452815481526001808301548285015260028084015483870152600384015460608401526004840154608084015260058401546001600160a01b0390811660a085015260068501541660c084015260078401805487516101009482161594909402600019011691909104601f81018690048602830186019096528582529194929360e0860193919291908301828280156105575780601f1061052c57610100808354040283529160200191610557565b820191906000526020600020905b81548152906001019060200180831161053a57829003601f168201915b505050918352505060088201805460408051602060026001851615610100026000190190941693909304601f81018490048402820184019092528181529382019392918301828280156105eb5780601f106105c0576101008083540402835291602001916105eb565b820191906000526020600020905b8154815290600101906020018083116105ce57829003601f168201915b505050505081525050905060008160600151141561060d5760009150506102c2565b60019150506102c2565b50919050565b6000818152602081905260409020600381015460011461064f5760405162461bcd60e51b81526004016102fe90611150565b42816002015411156106735760405162461bcd60e51b81526004016102fe90611179565b60026003820155600581015481546040516001600160a01b039092169181156108fc0291906000818181858888f193505050501580156106b7573d6000803e3d6000fd5b506006810154600582015460048301546040516001600160a01b03938416939092169185917f6fa50d56c31f3efe0cb6ff06232bffce8fe8c4155e3cbb6f2d79dd12631c2522916107089190611081565b60405180910390a45050565b600081565b600281565b600381565b600181565b33344289116107495760405162461bcd60e51b81526004016102fe90611179565b600081116107695760405162461bcd60e51b81526004016102fe9061119f565b600060028389848c8e604051602001610786959493929190611046565b60408051601f19818403018152908290526107a09161108a565b602060405180830381855afa1580156107bd573d6000803e3d6000fd5b5050506040513d601f19601f820116820180604052508101906107e09190610f10565b600081815260208190526040902060030154909150156108125760405162461bcd60e51b81526004016102fe90611103565b6040518061012001604052808381526020018c81526020018b8152602001600181526020018a8152602001846001600160a01b03168152602001896001600160a01b0316815260200188888080601f016020809104026020016040519081016040528093929190818152602001838380828437600092019190915250505090825250604080516020601f8901819004810282018101909252878152918101919088908890819084018382808284376000920182905250939094525050838152602081815260409182902084518155848201516001820155918401516002830155606084015160038301556080840151600483015560a08401516005830180546001600160a01b039283166001600160a01b03199182161790915560c086015160068501805491909316911617905560e0840151805192935061095d9260078501929190910190610d7d565b50610100820151805161097a916008840191602090910190610d7d565b50905050876001600160a01b0316836001600160a01b0316827f767d0ffbc3d16cc51fc05770a22976e4b0fda9198e37878b76979429b2d5d88c858f8f8f8e8e8e8e6040516109d09897969594939291906111c7565b60405180910390a45050505050505050505050565b600060208181529181526040908190208054600180830154600280850154600386015460048701546005880154600689015460078a0180548c51601f6000199b831615610100029b909b01909116979097049889018d90048d0287018d01909b52878652979a95999398929791966001600160a01b03918216969290911694929391830182828015610ab85780601f10610a8d57610100808354040283529160200191610ab8565b820191906000526020600020905b815481529060010190602001808311610a9b57829003601f168201915b5050505060088301805460408051602060026001851615610100026000190190941693909304601f8101849004840282018401909252818152949594935090830182828015610b485780601f10610b1d57610100808354040283529160200191610b48565b820191906000526020600020905b815481529060010190602001808311610b2b57829003601f168201915b5050505050905089565b6000610b5c610d1c565b60008381526020818152604091829020825161012081018452815481526001808301548285015260028084015483870152600384015460608401526004840154608084015260058401546001600160a01b0390811660a085015260068501541660c084015260078401805487516101009482161594909402600019011691909104601f81018690048602830186019096528582529194929360e086019391929190830182828015610c4e5780601f10610c2357610100808354040283529160200191610c4e565b820191906000526020600020905b815481529060010190602001808311610c3157829003601f168201915b505050918352505060088201805460408051602060026001851615610100026000190190941693909304601f8101849004840282018401909252818152938201939291830182828015610ce25780601f10610cb757610100808354040283529160200191610ce2565b820191906000526020600020905b815481529060010190602001808311610cc557829003601f168201915b505050505081525050905060018160600151148015610d045750428160400151105b15610d125760049150610617565b6060015192915050565b604051806101200160405280600081526020016000815260200160008152602001600081526020016000801916815260200160006001600160a01b0316815260200160006001600160a01b0316815260200160608152602001606081525090565b828054600181600116156101000203166002900490600052602060002090601f016020900481019282601f10610dbe57805160ff1916838001178555610deb565b82800160010185558215610deb579182015b82811115610deb578251825591602001919060010190610dd0565b50610df7929150610dfb565b5090565b5b80821115610df75760008155600101610dfc565b60008083601f840112610e21578182fd5b50813567ffffffffffffffff811115610e38578182fd5b602083019150836020828501011115610e5057600080fd5b9250929050565b60006020808385031215610e69578182fd5b823567ffffffffffffffff80821115610e80578384fd5b818501915085601f830112610e93578384fd5b813581811115610e9f57fe5b8381029150610eaf848301611284565b8181528481019084860184860187018a1015610ec9578788fd5b8795505b83861015610eeb578035835260019590950194918601918601610ecd565b5098975050505050505050565b600060208284031215610f09578081fd5b5035919050565b600060208284031215610f21578081fd5b5051919050565b60008060408385031215610f3a578081fd5b50508035926020909101359150565b60008060008060008060008060c0898b031215610f64578384fd5b88359750602089013596506040890135955060608901356001600160a01b0381168114610f8f578485fd5b9450608089013567ffffffffffffffff80821115610fab578586fd5b610fb78c838d01610e10565b909650945060a08b0135915080821115610fcf578384fd5b50610fdc8b828c01610e10565b999c989b5096995094979396929594505050565b60008284528282602086013780602084860101526020601f19601f85011685010190509392505050565b600081518084526110328160208601602086016112a8565b601f01601f19169290920160200192915050565b6bffffffffffffffffffffffff19606096871b811682529490951b909316601485015260288401919091526048830152606882015260880190565b90815260200190565b6000825161109c8184602087016112a8565b9190910192915050565b6020808252825182820181905260009190848201906040850190845b818110156110de578351835292840192918401916001016110c2565b50909695505050505050565b901515815260200190565b918252602082015260400190565b6020808252600b908201526a535741505f45584953545360a81b604082015260600190565b6020808252600e908201526d1253959053125117d4d150d4915560921b604082015260600190565b6020808252600f908201526e535741505f4e4f545f41435449564560881b604082015260600190565b6020808252600c908201526b494e56414c49445f54494d4560a01b604082015260600190565b6020808252600e908201526d1253959053125117d05353d5539560921b604082015260600190565b600089825288602083015287604083015286606083015260c060808301526111f360c083018688610ff0565b82810360a0840152611206818587610ff0565b9b9a5050505050505050505050565b60006101208b83528a602084015289604084015288606084015287608084015260018060a01b0380881660a085015280871660c0850152508060e084015261125f8184018661101a565b9050828103610100840152611274818561101a565b9c9b505050505050505050505050565b60405181810167ffffffffffffffff811182821017156112a057fe5b604052919050565b60005b838110156112c35781810151838201526020016112ab565b838111156112d2576000848401525b5050505056fea2646970667358221220f45fcebb51fe0bb2f5eebdfc22644001de72db0c3650561269787579053629dc64736f6c63430007030033",
  "immutableReferences": {},
  "source": "pragma solidity ^0.7.3;\npragma experimental ABIEncoderV2;\n\ncontract HashTimeLock {\n\n    mapping(bytes32 => LockContract) public contracts;\n\n    //                   / - WITHDRAWN\n    // INVALID - ACTIVE |\n    //                   \\ - EXPIRED - REFUNDED\n\n    uint256 public constant INVALID = 0; // Uninitialized  swap -> can go to ACTIVE\n    uint256 public constant ACTIVE = 1; // Active swap -> can go to WITHDRAWN or EXPIRED\n    uint256 public constant REFUNDED = 2; // Swap is refunded -> final state.\n    uint256 public constant WITHDRAWN = 3; // Swap is withdrawn -> final state.\n    uint256 public constant EXPIRED = 4; // Swap is expired -> can go to REFUNDED\n\n    struct LockContract {\n        uint256 inputAmount;\n        uint256 outputAmount;\n        uint256 expiration;\n        uint256 status;\n        bytes32 hashLock;\n        address payable sender;\n        address payable receiver;\n        string outputNetwork;\n        string outputAddress;\n    }\n\n    event Withdraw(\n        bytes32 indexed id,\n        bytes32 secret,\n        bytes32 hashLock,\n        address indexed sender,\n        address indexed receiver\n    );\n\n    event Refund(\n        bytes32 indexed id,\n        bytes32 hashLock,\n        address indexed sender,\n        address indexed receiver\n    );\n\n    event NewContract(\n        uint256 inputAmount,\n        uint256 outputAmount,\n        uint256 expiration,\n        bytes32 indexed id,\n        bytes32 hashLock,\n        address indexed sender,\n        address indexed receiver,\n        string outputNetwork,\n        string outputAddress\n    );\n\n    function newContract(\n        uint256 outputAmount,\n        uint256 expiration,\n        bytes32 hashLock,\n        address payable receiver,\n        string calldata outputNetwork,\n        string calldata outputAddress\n    ) external payable {\n        address payable sender = msg.sender;\n        uint256 inputAmount = msg.value;\n\n        require(expiration > block.timestamp, 'INVALID_TIME');\n\n        require(inputAmount > 0, 'INVALID_AMOUNT');\n\n        bytes32 id = sha256(\n            abi.encodePacked(sender, receiver, inputAmount, hashLock, expiration)\n        );\n\n        require(contracts[id].status == INVALID, \"SWAP_EXISTS\");\n\n        contracts[id] = LockContract(\n            inputAmount,\n            outputAmount,\n            expiration,\n            ACTIVE,\n            hashLock,\n            sender,\n            receiver,\n            outputNetwork,\n            outputAddress\n        );\n\n        emit NewContract(\n            inputAmount,\n            outputAmount,\n            expiration,\n            id,\n            hashLock,\n            sender,\n            receiver,\n            outputNetwork,\n            outputAddress\n        );\n    }\n\n    function withdraw(bytes32 id, bytes32 secret) external {\n        LockContract storage c = contracts[id];\n\n        require(c.status == ACTIVE, \"SWAP_NOT_ACTIVE\");\n\n        require(c.expiration > block.timestamp, \"INVALID_TIME\");\n\n        require(c.hashLock == sha256(abi.encodePacked(secret)),\"INVALID_SECRET\");\n\n        c.status = WITHDRAWN;\n\n        c.receiver.transfer(c.inputAmount);\n\n        emit Withdraw(id, secret, c.hashLock, c.sender, c.receiver);\n    }\n\n    function refund(bytes32 id) external {\n        LockContract storage c = contracts[id];\n\n        require(c.status == ACTIVE, \"SWAP_NOT_ACTIVE\");\n\n        require(c.expiration <= block.timestamp, \"INVALID_TIME\");\n\n        c.status = REFUNDED;\n\n        c.sender.transfer(c.inputAmount);\n\n        emit Refund(id, c.hashLock, c.sender, c.receiver);\n    }\n\n    function getStatus(bytes32[] memory ids) public view returns (uint256[] memory) {\n        uint256[] memory result = new uint256[](ids.length);\n\n        for (uint256 index = 0; index < ids.length; index++) {\n            result[index] = getSingleStatus(ids[index]);\n        }\n\n        return result;\n    }\n\n    function getSingleStatus(bytes32 id) public view returns (uint256 result) {\n        LockContract memory tempContract = contracts[id];\n\n        if (\n            tempContract.status == ACTIVE &&\n            tempContract.expiration < block.timestamp\n        ) {\n            result = EXPIRED;\n        } else {\n            result = tempContract.status;\n        }\n    }\n\n    function contractExists(bytes32 id) public view returns (bool result) {\n        LockContract memory tempContract = contracts[id];\n\n        if (tempContract.status == INVALID) {\n            return false;\n        } else {\n            return true;\n        }\n    }\n}\n",
  "sourcePath": "/Users/jordigironamezcua/Workspace/src/github.com/fork/cactus/extensions/cactus-plugin-htlc-eth-besu/src/main/contracts/contracts/HashTimeLock.sol",
  "compiler": {
    "name": "solc",
    "version": "0.7.3+commit.9bfce1f6.Emscripten.clang"
  },
  "schemaVersion": "3.3.3",
  "updatedAt": "2021-05-28T07:20:06.056Z",
  "devdoc": {
    "kind": "dev",
    "methods": {},
    "version": 1
  },
  "userdoc": {
    "kind": "user",
    "methods": {},
    "version": 1
  }
}