{
    "contractName": "HashTimeLock",
    "abi": [
        {
            "anonymous": false,
            "inputs": [
                {
                    "indexed": false,
                    "internalType": "uint256",
                    "name": "inputAmount",
                    "type": "uint256"
                },
                {
                    "indexed": false,
                    "internalType": "uint256",
                    "name": "outputAmount",
                    "type": "uint256"
                },
                {
                    "indexed": false,
                    "internalType": "uint256",
                    "name": "expiration",
                    "type": "uint256"
                },
                {
                    "indexed": true,
                    "internalType": "bytes32",
                    "name": "id",
                    "type": "bytes32"
                },
                {
                    "indexed": false,
                    "internalType": "bytes32",
                    "name": "hashLock",
                    "type": "bytes32"
                },
                {
                    "indexed": true,
                    "internalType": "address",
                    "name": "sender",
                    "type": "address"
                },
                {
                    "indexed": true,
                    "internalType": "address",
                    "name": "receiver",
                    "type": "address"
                },
                {
                    "indexed": false,
                    "internalType": "string",
                    "name": "outputNetwork",
                    "type": "string"
                },
                {
                    "indexed": false,
                    "internalType": "string",
                    "name": "outputAddress",
                    "type": "string"
                }
            ],
            "name": "NewContract",
            "type": "event"
        },
        {
            "anonymous": false,
            "inputs": [
                {
                    "indexed": true,
                    "internalType": "bytes32",
                    "name": "id",
                    "type": "bytes32"
                },
                {
                    "indexed": false,
                    "internalType": "bytes32",
                    "name": "hashLock",
                    "type": "bytes32"
                },
                {
                    "indexed": true,
                    "internalType": "address",
                    "name": "sender",
                    "type": "address"
                },
                {
                    "indexed": true,
                    "internalType": "address",
                    "name": "receiver",
                    "type": "address"
                }
            ],
            "name": "Refund",
            "type": "event"
        },
        {
            "anonymous": false,
            "inputs": [
                {
                    "indexed": true,
                    "internalType": "bytes32",
                    "name": "id",
                    "type": "bytes32"
                },
                {
                    "indexed": false,
                    "internalType": "bytes32",
                    "name": "secret",
                    "type": "bytes32"
                },
                {
                    "indexed": false,
                    "internalType": "bytes32",
                    "name": "hashLock",
                    "type": "bytes32"
                },
                {
                    "indexed": true,
                    "internalType": "address",
                    "name": "sender",
                    "type": "address"
                },
                {
                    "indexed": true,
                    "internalType": "address",
                    "name": "receiver",
                    "type": "address"
                }
            ],
            "name": "Withdraw",
            "type": "event"
        },
        {
            "inputs": [
                {
                    "internalType": "bytes32",
                    "name": "id",
                    "type": "bytes32"
                }
            ],
            "name": "contractExists",
            "outputs": [
                {
                    "internalType": "bool",
                    "name": "result",
                    "type": "bool"
                }
            ],
            "stateMutability": "view",
            "type": "function"
        },
        {
            "inputs": [
                {
                    "internalType": "bytes32",
                    "name": "",
                    "type": "bytes32"
                }
            ],
            "name": "contracts",
            "outputs": [
                {
                    "internalType": "uint256",
                    "name": "inputAmount",
                    "type": "uint256"
                },
                {
                    "internalType": "uint256",
                    "name": "outputAmount",
                    "type": "uint256"
                },
                {
                    "internalType": "uint256",
                    "name": "expiration",
                    "type": "uint256"
                },
                {
                    "internalType": "uint256",
                    "name": "status",
                    "type": "uint256"
                },
                {
                    "internalType": "bytes32",
                    "name": "hashLock",
                    "type": "bytes32"
                },
                {
                    "internalType": "address payable",
                    "name": "sender",
                    "type": "address"
                },
                {
                    "internalType": "address payable",
                    "name": "receiver",
                    "type": "address"
                },
                {
                    "internalType": "string",
                    "name": "outputNetwork",
                    "type": "string"
                },
                {
                    "internalType": "string",
                    "name": "outputAddress",
                    "type": "string"
                }
            ],
            "stateMutability": "view",
            "type": "function"
        },
        {
            "inputs": [
                {
                    "internalType": "bytes32",
                    "name": "id",
                    "type": "bytes32"
                }
            ],
            "name": "getSingleStatus",
            "outputs": [
                {
                    "internalType": "uint256",
                    "name": "result",
                    "type": "uint256"
                }
            ],
            "stateMutability": "view",
            "type": "function"
        },
        {
            "inputs": [
                {
                    "internalType": "bytes32[]",
                    "name": "ids",
                    "type": "bytes32[]"
                }
            ],
            "name": "getStatus",
            "outputs": [
                {
                    "internalType": "uint256[]",
                    "name": "",
                    "type": "uint256[]"
                }
            ],
            "stateMutability": "view",
            "type": "function"
        },
        {
            "inputs": [
                {
                    "internalType": "uint256",
                    "name": "outputAmount",
                    "type": "uint256"
                },
                {
                    "internalType": "uint256",
                    "name": "expiration",
                    "type": "uint256"
                },
                {
                    "internalType": "bytes32",
                    "name": "hashLock",
                    "type": "bytes32"
                },
                {
                    "internalType": "address payable",
                    "name": "receiver",
                    "type": "address"
                },
                {
                    "internalType": "string",
                    "name": "outputNetwork",
                    "type": "string"
                },
                {
                    "internalType": "string",
                    "name": "outputAddress",
                    "type": "string"
                }
            ],
            "name": "newContract",
            "outputs": [],
            "stateMutability": "payable",
            "type": "function"
        },
        {
            "inputs": [
                {
                    "internalType": "bytes32",
                    "name": "id",
                    "type": "bytes32"
                }
            ],
            "name": "refund",
            "outputs": [],
            "stateMutability": "nonpayable",
            "type": "function"
        },
        {
            "inputs": [
                {
                    "internalType": "bytes32",
                    "name": "id",
                    "type": "bytes32"
                },
                {
                    "internalType": "bytes32",
                    "name": "secret",
                    "type": "bytes32"
                }
            ],
            "name": "withdraw",
            "outputs": [],
            "stateMutability": "nonpayable",
            "type": "function"
        }
    ],
    "bytecode": "608060405234801561001057600080fd5b5061126d806100206000396000f3fe6080604052600436106100705760003560e01c80637249fbb61161004e5780637249fbb6146100fd578063d36320951461011d578063ec56a37314610130578063fbdf3b431461016557600080fd5b80632f21a6631461007557806363615149146100ab5780636c8244b8146100cd575b600080fd5b34801561008157600080fd5b50610095610090366004610cf5565b610193565b6040516100a29190610db3565b60405180910390f35b3480156100b757600080fd5b506100cb6100c6366004610df7565b610241565b005b3480156100d957600080fd5b506100ed6100e8366004610e19565b6103cc565b60405190151581526020016100a2565b34801561010957600080fd5b506100cb610118366004610e19565b610586565b6100cb61012b366004610e7b565b61069b565b34801561013c57600080fd5b5061015061014b366004610e19565b6109b1565b6040516100a299989796959493929190610f76565b34801561017157600080fd5b50610185610180366004610e19565b610b1a565b6040519081526020016100a2565b60606000825167ffffffffffffffff8111156101b1576101b1610cdf565b6040519080825280602002602001820160405280156101da578160200160208202803683370190505b50905060005b835181101561023a5761020b8482815181106101fe576101fe610fe5565b6020026020010151610b1a565b82828151811061021d5761021d610fe5565b60209081029190910101528061023281610ffb565b9150506101e0565b5092915050565b6000828152602081905260409020600381015460011461029a5760405162461bcd60e51b815260206004820152600f60248201526e535741505f4e4f545f41435449564560881b60448201526064015b60405180910390fd5b428160020154116102bd5760405162461bcd60e51b815260040161029190611022565b604080516020810184905201604051602081830303815290604052805190602001208160040154146103225760405162461bcd60e51b815260206004820152600e60248201526d1253959053125117d4d150d4915560921b6044820152606401610291565b600381810155600681015481546040516001600160a01b039092169181156108fc0291906000818181858888f19350505050158015610365573d6000803e3d6000fd5b506006810154600582015460048301546040516001600160a01b0393841693929092169186917f2d3a5ed13d0553389b4078e01264416362e34d23520fda797fbc17f3905ed131916103bf91888252602082015260400190565b60405180910390a4505050565b60008181526020818152604080832081516101208101835281548152600182015493810193909352600281015491830191909152600381015460608301526004810154608083015260058101546001600160a01b0390811660a084015260068201541660c08301526007810180548493929160e084019161044c90611048565b80601f016020809104026020016040519081016040528092919081815260200182805461047890611048565b80156104c55780601f1061049a576101008083540402835291602001916104c5565b820191906000526020600020905b8154815290600101906020018083116104a857829003601f168201915b505050505081526020016008820180546104de90611048565b80601f016020809104026020016040519081016040528092919081815260200182805461050a90611048565b80156105575780601f1061052c57610100808354040283529160200191610557565b820191906000526020600020905b81548152906001019060200180831161053a57829003601f168201915b505050505081525050905060008160600151036105775750600092915050565b50600192915050565b50919050565b600081815260208190526040902060038101546001146105da5760405162461bcd60e51b815260206004820152600f60248201526e535741505f4e4f545f41435449564560881b6044820152606401610291565b42816002015411156105fe5760405162461bcd60e51b815260040161029190611022565b60026003820155600581015481546040516001600160a01b039092169181156108fc0291906000818181858888f19350505050158015610642573d6000803e3d6000fd5b506006810154600582015460048301546040519081526001600160a01b03928316929091169084907f6fa50d56c31f3efe0cb6ff06232bffce8fe8c4155e3cbb6f2d79dd12631c25229060200160405180910390a45050565b33344289116106bc5760405162461bcd60e51b815260040161029190611022565b600081116106fd5760405162461bcd60e51b815260206004820152600e60248201526d1253959053125117d05353d5539560921b6044820152606401610291565b6040516bffffffffffffffffffffffff19606084811b8216602084015289901b1660348201526048810182905260688101899052608881018a905260009060029060a80160408051601f198184030181529082905261075b9161107c565b602060405180830381855afa158015610778573d6000803e3d6000fd5b5050506040513d601f19601f8201168201806040525081019061079b9190611098565b600081815260208190526040902060030154909150156107eb5760405162461bcd60e51b815260206004820152600b60248201526a535741505f45584953545360a81b6044820152606401610291565b6040518061012001604052808381526020018c81526020018b8152602001600181526020018a8152602001846001600160a01b03168152602001896001600160a01b0316815260200188888080601f016020809104026020016040519081016040528093929190818152602001838380828437600092019190915250505090825250604080516020601f8901819004810282018101909252878152918101919088908890819084018382808284376000920182905250939094525050838152602081815260409182902084518155908401516001820155908301516002820155606083015160038201556080830151600482015560a08301516005820180546001600160a01b039283166001600160a01b03199182161790915560c085015160068401805491909316911617905560e083015190915060078201906109309082611100565b5061010082015160088201906109469082611100565b50905050876001600160a01b0316836001600160a01b0316827f767d0ffbc3d16cc51fc05770a22976e4b0fda9198e37878b76979429b2d5d88c858f8f8f8e8e8e8e60405161099c9897969594939291906111e9565b60405180910390a45050505050505050505050565b60006020819052908152604090208054600182015460028301546003840154600485015460058601546006870154600788018054979896979596949593946001600160a01b03938416949390921692610a0990611048565b80601f0160208091040260200160405190810160405280929190818152602001828054610a3590611048565b8015610a825780601f10610a5757610100808354040283529160200191610a82565b820191906000526020600020905b815481529060010190602001808311610a6557829003601f168201915b505050505090806008018054610a9790611048565b80601f0160208091040260200160405190810160405280929190818152602001828054610ac390611048565b8015610b105780601f10610ae557610100808354040283529160200191610b10565b820191906000526020600020905b815481529060010190602001808311610af357829003601f168201915b5050505050905089565b60008181526020818152604080832081516101208101835281548152600182015493810193909352600281015491830191909152600381015460608301526004810154608083015260058101546001600160a01b0390811660a084015260068201541660c08301526007810180548493929160e0840191610b9a90611048565b80601f0160208091040260200160405190810160405280929190818152602001828054610bc690611048565b8015610c135780601f10610be857610100808354040283529160200191610c13565b820191906000526020600020905b815481529060010190602001808311610bf657829003601f168201915b50505050508152602001600882018054610c2c90611048565b80601f0160208091040260200160405190810160405280929190818152602001828054610c5890611048565b8015610ca55780601f10610c7a57610100808354040283529160200191610ca5565b820191906000526020600020905b815481529060010190602001808311610c8857829003601f168201915b505050505081525050905060018160600151148015610cc75750428160400151105b15610cd55760049150610580565b6060015192915050565b634e487b7160e01b600052604160045260246000fd5b60006020808385031215610d0857600080fd5b823567ffffffffffffffff80821115610d2057600080fd5b818501915085601f830112610d3457600080fd5b813581811115610d4657610d46610cdf565b8060051b604051601f19603f83011681018181108582111715610d6b57610d6b610cdf565b604052918252848201925083810185019188831115610d8957600080fd5b938501935b82851015610da757843584529385019392850192610d8e565b98975050505050505050565b6020808252825182820181905260009190848201906040850190845b81811015610deb57835183529284019291840191600101610dcf565b50909695505050505050565b60008060408385031215610e0a57600080fd5b50508035926020909101359150565b600060208284031215610e2b57600080fd5b5035919050565b60008083601f840112610e4457600080fd5b50813567ffffffffffffffff811115610e5c57600080fd5b602083019150836020828501011115610e7457600080fd5b9250929050565b60008060008060008060008060c0898b031215610e9757600080fd5b88359750602089013596506040890135955060608901356001600160a01b0381168114610ec357600080fd5b9450608089013567ffffffffffffffff80821115610ee057600080fd5b610eec8c838d01610e32565b909650945060a08b0135915080821115610f0557600080fd5b50610f128b828c01610e32565b999c989b5096995094979396929594505050565b60005b83811015610f41578181015183820152602001610f29565b50506000910152565b60008151808452610f62816020860160208601610f26565b601f01601f19169290920160200192915050565b60006101208b83528a602084015289604084015288606084015287608084015260018060a01b0380881660a085015280871660c0850152508060e0840152610fc081840186610f4a565b9050828103610100840152610fd58185610f4a565b9c9b505050505050505050505050565b634e487b7160e01b600052603260045260246000fd5b60006001820161101b57634e487b7160e01b600052601160045260246000fd5b5060010190565b6020808252600c908201526b494e56414c49445f54494d4560a01b604082015260600190565b600181811c9082168061105c57607f821691505b60208210810361058057634e487b7160e01b600052602260045260246000fd5b6000825161108e818460208701610f26565b9190910192915050565b6000602082840312156110aa57600080fd5b5051919050565b601f8211156110fb57600081815260208120601f850160051c810160208610156110d85750805b601f850160051c820191505b818110156110f7578281556001016110e4565b5050505b505050565b815167ffffffffffffffff81111561111a5761111a610cdf565b61112e816111288454611048565b846110b1565b602080601f831160018114611163576000841561114b5750858301515b600019600386901b1c1916600185901b1785556110f7565b600085815260208120601f198616915b8281101561119257888601518255948401946001909101908401611173565b50858210156111b05787850151600019600388901b60f8161c191681555b5050505050600190811b01905550565b81835281816020850137506000828201602090810191909152601f909101601f19169091010190565b88815287602082015286604082015285606082015260c06080820152600061121560c0830186886111c0565b82810360a08401526112288185876111c0565b9b9a505050505050505050505056fea2646970667358221220c627a3bba4baa947ef5e6c36a4506e0dd9730e5317965ee38ec3030fbe154cf264736f6c63430008130033",
    "sourcePath": "/workspaces/cacti/packages/cactus-plugin-htlc-eth-besu/src/main/solidity/contracts/HashTimeLock.sol",
    "compiler": {
        "name": "solc",
        "version": "0.8.19+commit.7dd6d404"
    },
    "functionHashes": {
        "contractExists(bytes32)": "6c8244b8",
        "contracts(bytes32)": "ec56a373",
        "getSingleStatus(bytes32)": "fbdf3b43",
        "getStatus(bytes32[])": "2f21a663",
        "newContract(uint256,uint256,bytes32,address,string,string)": "d3632095",
        "refund(bytes32)": "7249fbb6",
        "withdraw(bytes32,bytes32)": "63615149"
    },
    "gasEstimates": {
        "creation": {
            "codeDepositCost": "943400",
            "executionCost": "981",
            "totalCost": "944381"
        },
        "external": {
            "contractExists(bytes32)": "infinite",
            "contracts(bytes32)": "infinite",
            "getSingleStatus(bytes32)": "infinite",
            "getStatus(bytes32[])": "infinite",
            "newContract(uint256,uint256,bytes32,address,string,string)": "infinite",
            "refund(bytes32)": "infinite",
            "withdraw(bytes32,bytes32)": "infinite"
        }
    }
}