{
    "contractName": "PrivateHashTimeLock",
    "abi": [
        {
            "anonymous": false,
            "inputs": [
                {
                    "indexed": false,
                    "internalType": "uint256",
                    "name": "inputAmount",
                    "type": "uint256"
                },
                {
                    "indexed": false,
                    "internalType": "uint256",
                    "name": "outputAmount",
                    "type": "uint256"
                },
                {
                    "indexed": false,
                    "internalType": "uint256",
                    "name": "expiration",
                    "type": "uint256"
                },
                {
                    "indexed": true,
                    "internalType": "bytes32",
                    "name": "id",
                    "type": "bytes32"
                },
                {
                    "indexed": false,
                    "internalType": "bytes32",
                    "name": "hashSecret",
                    "type": "bytes32"
                },
                {
                    "indexed": true,
                    "internalType": "address",
                    "name": "sender",
                    "type": "address"
                },
                {
                    "indexed": true,
                    "internalType": "address",
                    "name": "receiver",
                    "type": "address"
                },
                {
                    "indexed": false,
                    "internalType": "string",
                    "name": "outputNetwork",
                    "type": "string"
                },
                {
                    "indexed": false,
                    "internalType": "string",
                    "name": "outputAddress",
                    "type": "string"
                },
                {
                    "components": [
                        {
                            "internalType": "uint256",
                            "name": "generator",
                            "type": "uint256"
                        },
                        {
                            "internalType": "uint256",
                            "name": "modulus",
                            "type": "uint256"
                        }
                    ],
                    "indexed": false,
                    "internalType": "struct PrivateHashTimeLock.PrivateEnhancing",
                    "name": "priv",
                    "type": "tuple"
                }
            ],
            "name": "NewContract",
            "type": "event"
        },
        {
            "anonymous": false,
            "inputs": [
                {
                    "indexed": true,
                    "internalType": "bytes32",
                    "name": "id",
                    "type": "bytes32"
                },
                {
                    "indexed": false,
                    "internalType": "bytes32",
                    "name": "hashSecret",
                    "type": "bytes32"
                },
                {
                    "indexed": true,
                    "internalType": "address",
                    "name": "sender",
                    "type": "address"
                },
                {
                    "indexed": true,
                    "internalType": "address",
                    "name": "receiver",
                    "type": "address"
                }
            ],
            "name": "Refund",
            "type": "event"
        },
        {
            "anonymous": false,
            "inputs": [
                {
                    "indexed": true,
                    "internalType": "bytes32",
                    "name": "id",
                    "type": "bytes32"
                },
                {
                    "indexed": false,
                    "internalType": "bytes32",
                    "name": "secret",
                    "type": "bytes32"
                },
                {
                    "indexed": false,
                    "internalType": "bytes32",
                    "name": "hashSecret",
                    "type": "bytes32"
                },
                {
                    "indexed": true,
                    "internalType": "address",
                    "name": "sender",
                    "type": "address"
                },
                {
                    "indexed": true,
                    "internalType": "address",
                    "name": "receiver",
                    "type": "address"
                }
            ],
            "name": "Withdraw",
            "type": "event"
        },
        {
            "inputs": [
                {
                    "internalType": "bytes32",
                    "name": "id",
                    "type": "bytes32"
                }
            ],
            "name": "contractExists",
            "outputs": [
                {
                    "internalType": "bool",
                    "name": "result",
                    "type": "bool"
                }
            ],
            "stateMutability": "view",
            "type": "function"
        },
        {
            "inputs": [
                {
                    "internalType": "bytes32",
                    "name": "id",
                    "type": "bytes32"
                }
            ],
            "name": "getSingleStatus",
            "outputs": [
                {
                    "internalType": "uint256",
                    "name": "result",
                    "type": "uint256"
                }
            ],
            "stateMutability": "view",
            "type": "function"
        },
        {
            "inputs": [
                {
                    "internalType": "bytes32[]",
                    "name": "ids",
                    "type": "bytes32[]"
                }
            ],
            "name": "getStatus",
            "outputs": [
                {
                    "internalType": "uint256[]",
                    "name": "",
                    "type": "uint256[]"
                }
            ],
            "stateMutability": "view",
            "type": "function"
        },
        {
            "inputs": [
                {
                    "internalType": "uint256",
                    "name": "outputAmount",
                    "type": "uint256"
                },
                {
                    "internalType": "uint256",
                    "name": "expiration",
                    "type": "uint256"
                },
                {
                    "internalType": "bytes32",
                    "name": "hashLock",
                    "type": "bytes32"
                },
                {
                    "internalType": "address payable",
                    "name": "receiver",
                    "type": "address"
                },
                {
                    "internalType": "string",
                    "name": "outputNetwork",
                    "type": "string"
                },
                {
                    "internalType": "string",
                    "name": "outputAddress",
                    "type": "string"
                },
                {
                    "components": [
                        {
                            "internalType": "uint256",
                            "name": "generator",
                            "type": "uint256"
                        },
                        {
                            "internalType": "uint256",
                            "name": "modulus",
                            "type": "uint256"
                        }
                    ],
                    "internalType": "struct PrivateHashTimeLock.PrivateEnhancing",
                    "name": "priv",
                    "type": "tuple"
                }
            ],
            "name": "newPrivateContract",
            "outputs": [],
            "stateMutability": "payable",
            "type": "function"
        },
        {
            "inputs": [
                {
                    "internalType": "bytes32",
                    "name": "id",
                    "type": "bytes32"
                }
            ],
            "name": "refund",
            "outputs": [],
            "stateMutability": "nonpayable",
            "type": "function"
        },
        {
            "inputs": [
                {
                    "internalType": "bytes32",
                    "name": "id",
                    "type": "bytes32"
                },
                {
                    "internalType": "bytes32",
                    "name": "secret",
                    "type": "bytes32"
                }
            ],
            "name": "withdraw",
            "outputs": [],
            "stateMutability": "nonpayable",
            "type": "function"
        }
    ],
    "bytecode": "608060405234801561001057600080fd5b50611266806100206000396000f3fe6080604052600436106100555760003560e01c80632f21a6631461005a57806363615149146100905780636c8244b8146100b25780637249fbb6146100e25780639b0bcdcb14610102578063fbdf3b4314610115575b600080fd5b34801561006657600080fd5b5061007a610075366004610c41565b610143565b6040516100879190610ce7565b60405180910390f35b34801561009c57600080fd5b506100b06100ab366004610d2b565b6101f1565b005b3480156100be57600080fd5b506100d26100cd366004610d4d565b610370565b6040519015158152602001610087565b3480156100ee57600080fd5b506100b06100fd366004610d4d565b610549565b6100b0610110366004610dd6565b61065e565b34801561012157600080fd5b50610135610130366004610d4d565b610923565b604051908152602001610087565b60606000825167ffffffffffffffff81111561016157610161610bfa565b60405190808252806020026020018201604052801561018a578160200160208202803683370190505b50905060005b83518110156101ea576101bb8482815181106101ae576101ae610ec1565b6020026020010151610923565b8282815181106101cd576101cd610ec1565b6020908102919091010152806101e281610eed565b915050610190565b5092915050565b6000828152602081905260409020600381015460011461024a5760405162461bcd60e51b815260206004820152600f60248201526e535741505f4e4f545f41435449564560881b60448201526064015b60405180910390fd5b4281600201541161026d5760405162461bcd60e51b815260040161024190610f06565b6009810154600a82015461028391908490610b0a565b8160040154146102c65760405162461bcd60e51b815260206004820152600e60248201526d1253959053125117d4d150d4915560921b6044820152606401610241565b600381810155600681015481546040516001600160a01b039092169181156108fc0291906000818181858888f19350505050158015610309573d6000803e3d6000fd5b506006810154600582015460048301546040516001600160a01b0393841693929092169186917f2d3a5ed13d0553389b4078e01264416362e34d23520fda797fbc17f3905ed1319161036391888252602082015260400190565b60405180910390a4505050565b60008181526020818152604080832081516101408101835281548152600182015493810193909352600281015491830191909152600381015460608301526004810154608083015260058101546001600160a01b0390811660a084015260068201541660c08301526007810180548493929160e08401916103f090610f2c565b80601f016020809104026020016040519081016040528092919081815260200182805461041c90610f2c565b80156104695780601f1061043e57610100808354040283529160200191610469565b820191906000526020600020905b81548152906001019060200180831161044c57829003601f168201915b5050505050815260200160088201805461048290610f2c565b80601f01602080910402602001604051908101604052809291908181526020018280546104ae90610f2c565b80156104fb5780601f106104d0576101008083540402835291602001916104fb565b820191906000526020600020905b8154815290600101906020018083116104de57829003601f168201915b50505091835250506040805180820190915260098301548152600a909201546020838101919091520152606081015190915061053a5750600092915050565b50600192915050565b50919050565b6000818152602081905260409020600381015460011461059d5760405162461bcd60e51b815260206004820152600f60248201526e535741505f4e4f545f41435449564560881b6044820152606401610241565b42816002015411156105c15760405162461bcd60e51b815260040161024190610f06565b60026003820155600581015481546040516001600160a01b039092169181156108fc0291906000818181858888f19350505050158015610605573d6000803e3d6000fd5b506006810154600582015460048301546040519081526001600160a01b03928316929091169084907f6fa50d56c31f3efe0cb6ff06232bffce8fe8c4155e3cbb6f2d79dd12631c25229060200160405180910390a45050565b333442881161067f5760405162461bcd60e51b815260040161024190610f06565b600081116106c05760405162461bcd60e51b815260206004820152600e60248201526d1253959053125117d05353d5539560921b6044820152606401610241565b604080516001600160a01b038085166020830152881691810191909152606081018290526080810188905260a0810189905260009060c00160408051601f1981840301815291815281516020928301206000818152928390529120600301549091501561075d5760405162461bcd60e51b815260206004820152600b60248201526a535741505f45584953545360a81b6044820152606401610241565b835161076857600080fd5b600084602001511161077957600080fd5b6040518061014001604052808381526020018b81526020018a815260200160018152602001898152602001846001600160a01b03168152602001886001600160a01b0316815260200187815260200186815260200185815250600080838152602001908152602001600020600082015181600001556020820151816001015560408201518160020155606082015181600301556080820151816004015560a08201518160050160006101000a8154816001600160a01b0302191690836001600160a01b0316021790555060c08201518160060160006101000a8154816001600160a01b0302191690836001600160a01b0316021790555060e08201518160070190816108859190610faf565b50610100820151600882019061089b9082610faf565b506101208201518160090160008201518160000155602082015181600101555050905050866001600160a01b0316836001600160a01b0316827f1d31774ea86d945735b69a4af1ba1a0a71287ba386bc3fe658ae84927d2995c7858e8e8e8d8d8d60405161090f97969594939291906110b5565b60405180910390a450505050505050505050565b60008181526020818152604080832081516101408101835281548152600182015493810193909352600281015491830191909152600381015460608301526004810154608083015260058101546001600160a01b0390811660a084015260068201541660c08301526007810180548493929160e08401916109a390610f2c565b80601f01602080910402602001604051908101604052809291908181526020018280546109cf90610f2c565b8015610a1c5780601f106109f157610100808354040283529160200191610a1c565b820191906000526020600020905b8154815290600101906020018083116109ff57829003601f168201915b50505050508152602001600882018054610a3590610f2c565b80601f0160208091040260200160405190810160405280929190818152602001828054610a6190610f2c565b8015610aae5780601f10610a8357610100808354040283529160200191610aae565b820191906000526020600020905b815481529060010190602001808311610a9157829003601f168201915b50505091835250506040805180820190915260098301548152600a90920154602083810191909152015260608101519091506001148015610af25750428160400151105b15610b005760049150610543565b6060015192915050565b6000808211610b515760405162461bcd60e51b815260206004820152601360248201527204d6f64756c75732063616e6e6f74206265203606c1b6044820152606401610241565b60008411610b945760405162461bcd60e51b815260206004820152601060248201526f0626173652063616e6e6f7420626520360841b6044820152606401610241565b60008311610bdd5760405162461bcd60e51b815260206004820152601660248201527506578706f6e656e745f312063616e6e6f7420626520360541b6044820152606401610241565b81610be884866111fb565b610bf2919061120e565b949350505050565b634e487b7160e01b600052604160045260246000fd5b604051601f8201601f1916810167ffffffffffffffff81118282101715610c3957610c39610bfa565b604052919050565b60006020808385031215610c5457600080fd5b823567ffffffffffffffff80821115610c6c57600080fd5b818501915085601f830112610c8057600080fd5b813581811115610c9257610c92610bfa565b8060051b9150610ca3848301610c10565b8181529183018401918481019088841115610cbd57600080fd5b938501935b83851015610cdb57843582529385019390850190610cc2565b98975050505050505050565b6020808252825182820181905260009190848201906040850190845b81811015610d1f57835183529284019291840191600101610d03565b50909695505050505050565b60008060408385031215610d3e57600080fd5b50508035926020909101359150565b600060208284031215610d5f57600080fd5b5035919050565b600082601f830112610d7757600080fd5b813567ffffffffffffffff811115610d9157610d91610bfa565b610da4601f8201601f1916602001610c10565b818152846020838601011115610db957600080fd5b816020850160208301376000918101602001919091529392505050565b6000806000806000806000878903610100811215610df357600080fd5b88359750602089013596506040890135955060608901356001600160a01b0381168114610e1f57600080fd5b9450608089013567ffffffffffffffff80821115610e3c57600080fd5b610e488c838d01610d66565b955060a08b0135915080821115610e5e57600080fd5b610e6a8c838d01610d66565b9450604060bf1984011215610e7e57600080fd5b60405192506040830191508282108183111715610e9d57610e9d610bfa565b5060405260c0890135815260e0909801356020890152509497939650919490939192565b634e487b7160e01b600052603260045260246000fd5b634e487b7160e01b600052601160045260246000fd5b600060018201610eff57610eff610ed7565b5060010190565b6020808252600c908201526b494e56414c49445f54494d4560a01b604082015260600190565b600181811c90821680610f4057607f821691505b60208210810361054357634e487b7160e01b600052602260045260246000fd5b601f821115610faa57600081815260208120601f850160051c81016020861015610f875750805b601f850160051c820191505b81811015610fa657828155600101610f93565b5050505b505050565b815167ffffffffffffffff811115610fc957610fc9610bfa565b610fdd81610fd78454610f2c565b84610f60565b602080601f8311600181146110125760008415610ffa5750858301515b600019600386901b1c1916600185901b178555610fa6565b600085815260208120601f198616915b8281101561104157888601518255948401946001909101908401611022565b508582101561105f5787850151600019600388901b60f8161c191681555b5050505050600190811b01905550565b6000815180845260005b8181101561109557602081850181015186830182015201611079565b506000602082860101526020601f19601f83011685010191505092915050565b60006101008983528860208401528760408401528660608401528060808401526110e18184018761106f565b905082810360a08401526110f5818661106f565b915050825160c0830152602083015160e083015298975050505050505050565b600181815b8085111561115057816000190482111561113657611136610ed7565b8085161561114357918102915b93841c939080029061111a565b509250929050565b600082611167575060016111f5565b81611174575060006111f5565b816001811461118a5760028114611194576111b0565b60019150506111f5565b60ff8411156111a5576111a5610ed7565b50506001821b6111f5565b5060208310610133831016604e8410600b84101617156111d3575081810a6111f5565b6111dd8383611115565b80600019048211156111f1576111f1610ed7565b0290505b92915050565b60006112078383611158565b9392505050565b60008261122b57634e487b7160e01b600052601260045260246000fd5b50069056fea26469706673582212201394af3c806f40ac6e19a695e00b9e526948e3236a710a5c9d21625c9c979f1f64736f6c63430008130033",
    "sourcePath": "/home/peter/a/cacti-1/packages/cactus-plugin-htlc-eth-besu/src/main/solidity/contracts/PrivateHashTimeLock.sol",
    "compiler": {
        "name": "solc",
        "version": "0.8.19+commit.7dd6d404"
    },
    "functionHashes": {
        "contractExists(bytes32)": "6c8244b8",
        "getSingleStatus(bytes32)": "fbdf3b43",
        "getStatus(bytes32[])": "2f21a663",
        "newPrivateContract(uint256,uint256,bytes32,address,string,string,(uint256,uint256))": "9b0bcdcb",
        "refund(bytes32)": "7249fbb6",
        "withdraw(bytes32,bytes32)": "63615149"
    },
    "gasEstimates": {
        "creation": {
            "codeDepositCost": "942000",
            "executionCost": "981",
            "totalCost": "942981"
        },
        "external": {
            "contractExists(bytes32)": "infinite",
            "getSingleStatus(bytes32)": "infinite",
            "getStatus(bytes32[])": "infinite",
            "newPrivateContract(uint256,uint256,bytes32,address,string,string,(uint256,uint256))": "infinite",
            "refund(bytes32)": "infinite",
            "withdraw(bytes32,bytes32)": "infinite"
        },
        "internal": {
            "calculateHashSecret(uint256,uint256,uint256)": "infinite"
        }
    }
}