{"abi":[{"type":"constructor","inputs":[{"name":"_bridge_address","type":"address","internalType":"address"}],"stateMutability":"nonpayable"},{"type":"function","name":"assign","inputs":[{"name":"tokenId","type":"string","internalType":"string"},{"name":"receiver_account","type":"address","internalType":"address"},{"name":"assetAttribute","type":"uint256","internalType":"uint256"}],"outputs":[{"name":"success","type":"bool","internalType":"bool"}],"stateMutability":"nonpayable"},{"type":"function","name":"bridge_address","inputs":[],"outputs":[{"name":"","type":"address","internalType":"address"}],"stateMutability":"view"},{"type":"function","name":"burn","inputs":[{"name":"tokenId","type":"string","internalType":"string"},{"name":"assetAttribute","type":"uint256","internalType":"uint256"}],"outputs":[{"name":"success","type":"bool","internalType":"bool"}],"stateMutability":"nonpayable"},{"type":"function","name":"getAllAssetsIDs","inputs":[],"outputs":[{"name":"","type":"string[]","internalType":"string[]"}],"stateMutability":"view"},{"type":"function","name":"getToken","inputs":[{"name":"tokenId","type":"string","internalType":"string"}],"outputs":[{"name":"token","type":"tuple","internalType":"struct Token","components":[{"name":"contractName","type":"string","internalType":"string"},{"name":"contractAddress","type":"address","internalType":"address"},{"name":"tokenType","type":"uint8","internalType":"enum TokenType"},{"name":"tokenId","type":"string","internalType":"string"},{"name":"referenceId","type":"string","internalType":"string"},{"name":"owner","type":"address","internalType":"address"},{"name":"tokenAttribute","type":"uint256","internalType":"uint256"}]}],"stateMutability":"view"},{"type":"function","name":"lock","inputs":[{"name":"tokenId","type":"string","internalType":"string"},{"name":"assetAttribute","type":"uint256","internalType":"uint256"}],"outputs":[{"name":"success","type":"bool","internalType":"bool"}],"stateMutability":"nonpayable"},{"type":"function","name":"mint","inputs":[{"name":"tokenId","type":"string","internalType":"string"},{"name":"assetAttribute","type":"uint256","internalType":"uint256"}],"outputs":[{"name":"success","type":"bool","internalType":"bool"}],"stateMutability":"nonpayable"},{"type":"function","name":"onERC721Received","inputs":[{"name":"operator","type":"address","internalType":"address"},{"name":"from","type":"address","internalType":"address"},{"name":"tokenId","type":"uint256","internalType":"uint256"},{"name":"data","type":"bytes","internalType":"bytes"}],"outputs":[{"name":"","type":"bytes4","internalType":"bytes4"}],"stateMutability":"nonpayable"},{"type":"function","name":"owner","inputs":[],"outputs":[{"name":"","type":"address","internalType":"address"}],"stateMutability":"view"},{"type":"function","name":"renounceOwnership","inputs":[],"outputs":[],"stateMutability":"nonpayable"},{"type":"function","name":"tokens","inputs":[{"name":"","type":"string","internalType":"string"}],"outputs":[{"name":"contractName","type":"string","internalType":"string"},{"name":"contractAddress","type":"address","internalType":"address"},{"name":"tokenType","type":"uint8","internalType":"enum TokenType"},{"name":"tokenId","type":"string","internalType":"string"},{"name":"referenceId","type":"string","internalType":"string"},{"name":"owner","type":"address","internalType":"address"},{"name":"tokenAttribute","type":"uint256","internalType":"uint256"}],"stateMutability":"view"},{"type":"function","name":"tokensInteractions","inputs":[{"name":"","type":"string","internalType":"string"},{"name":"","type":"uint8","internalType":"enum InteractionType"}],"outputs":[{"name":"interactionType","type":"uint8","internalType":"enum InteractionType"},{"name":"available","type":"bool","internalType":"bool"}],"stateMutability":"view"},{"type":"function","name":"transferOwnership","inputs":[{"name":"newOwner","type":"address","internalType":"address"}],"outputs":[],"stateMutability":"nonpayable"},{"type":"function","name":"unlock","inputs":[{"name":"tokenId","type":"string","internalType":"string"},{"name":"assetAttribute","type":"uint256","internalType":"uint256"}],"outputs":[{"name":"success","type":"bool","internalType":"bool"}],"stateMutability":"nonpayable"},{"type":"function","name":"unwrap","inputs":[{"name":"tokenId","type":"string","internalType":"string"}],"outputs":[{"name":"success","type":"bool","internalType":"bool"}],"stateMutability":"nonpayable"},{"type":"function","name":"wrap","inputs":[{"name":"contractName","type":"string","internalType":"string"},{"name":"contractAddress","type":"address","internalType":"address"},{"name":"tokenType","type":"uint8","internalType":"enum TokenType"},{"name":"tokenId","type":"string","internalType":"string"},{"name":"referenceId","type":"string","internalType":"string"},{"name":"owner","type":"address","internalType":"address"}],"outputs":[{"name":"wrapSuccess","type":"bool","internalType":"bool"}],"stateMutability":"nonpayable"},{"type":"function","name":"wrap","inputs":[{"name":"contractName","type":"string","internalType":"string"},{"name":"contractAddress","type":"address","internalType":"address"},{"name":"tokenType","type":"uint8","internalType":"enum TokenType"},{"name":"tokenId","type":"string","internalType":"string"},{"name":"referenceId","type":"string","internalType":"string"},{"name":"owner","type":"address","internalType":"address"},{"name":"interactions","type":"tuple[]","internalType":"struct InteractionSignature[]","components":[{"name":"interactionType","type":"uint8","internalType":"enum InteractionType"},{"name":"functionsSignature","type":"string[]","internalType":"string[]"},{"name":"variables","type":"uint8[][]","internalType":"enum VarType[][]"},{"name":"available","type":"bool","internalType":"bool"}]}],"outputs":[{"name":"wrapSuccess","type":"bool","internalType":"bool"}],"stateMutability":"nonpayable"},{"type":"event","name":"Assign","inputs":[{"name":"tokenId","type":"string","indexed":true,"internalType":"string"},{"name":"receiver_account","type":"address","indexed":false,"internalType":"address"},{"name":"tokenAttribute","type":"uint256","indexed":false,"internalType":"uint256"}],"anonymous":false},{"type":"event","name":"Burn","inputs":[{"name":"tokenId","type":"string","indexed":true,"internalType":"string"},{"name":"tokenAttribute","type":"uint256","indexed":false,"internalType":"uint256"}],"anonymous":false},{"type":"event","name":"Changed","inputs":[{"name":"id","type":"string","indexed":true,"internalType":"string"},{"name":"value","type":"bytes[]","indexed":false,"internalType":"bytes[]"}],"anonymous":false},{"type":"event","name":"Lock","inputs":[{"name":"tokenId","type":"string","indexed":true,"internalType":"string"},{"name":"tokenAttribute","type":"uint256","indexed":false,"internalType":"uint256"}],"anonymous":false},{"type":"event","name":"Mint","inputs":[{"name":"tokenId","type":"string","indexed":true,"internalType":"string"},{"name":"tokenAttribute","type":"uint256","indexed":false,"internalType":"uint256"}],"anonymous":false},{"type":"event","name":"OwnershipTransferred","inputs":[{"name":"previousOwner","type":"address","indexed":true,"internalType":"address"},{"name":"newOwner","type":"address","indexed":true,"internalType":"address"}],"anonymous":false},{"type":"event","name":"Unlock","inputs":[{"name":"tokenId","type":"string","indexed":true,"internalType":"string"},{"name":"tokenAttribute","type":"uint256","indexed":false,"internalType":"uint256"}],"anonymous":false},{"type":"event","name":"Unwrap","inputs":[{"name":"tokenId","type":"string","indexed":true,"internalType":"string"}],"anonymous":false},{"type":"event","name":"Wrap","inputs":[{"name":"tokenId","type":"string","indexed":true,"internalType":"string"},{"name":"contractName","type":"string","indexed":false,"internalType":"string"},{"name":"contractAddress","type":"address","indexed":false,"internalType":"address"},{"name":"tokenType","type":"uint8","indexed":false,"internalType":"enum TokenType"},{"name":"owner","type":"address","indexed":false,"internalType":"address"}],"anonymous":false},{"type":"error","name":"InsuficientAmountLocked","inputs":[{"name":"tokenId","type":"string","internalType":"string"},{"name":"amount","type":"uint256","internalType":"uint256"}]},{"type":"error","name":"OwnableInvalidOwner","inputs":[{"name":"owner","type":"address","internalType":"address"}]},{"type":"error","name":"OwnableUnauthorizedAccount","inputs":[{"name":"account","type":"address","internalType":"address"}]},{"type":"error","name":"TokenAlreadyWrapped","inputs":[{"name":"tokenId","type":"string","internalType":"string"}]},{"type":"error","name":"TokenLocked","inputs":[{"name":"tokenId","type":"string","internalType":"string"}]},{"type":"error","name":"TokenNotAvailable","inputs":[{"name":"tokenId","type":"string","internalType":"string"}]},{"type":"error","name":"TokenNotLocked","inputs":[{"name":"tokenId","type":"string","internalType":"string"}]},{"type":"error","name":"TokenNotUnlocked","inputs":[{"name":"tokenId","type":"string","internalType":"string"}]},{"type":"error","name":"TokenTypeNotSupported","inputs":[{"name":"tokenId","type":"string","internalType":"string"}]}],"bytecode":{"object":"0x60806040523480156200001157600080fd5b5060405162004060380380620040608339810160408190526200003491620000e6565b806001600160a01b0381166200006457604051631e4fbdf760e01b81526000600482015260240160405180910390fd5b6200006f8162000096565b50600580546001600160a01b0319166001600160a01b039290921691909117905562000118565b600080546001600160a01b038381166001600160a01b0319831681178455604051919092169283917f8be0079c531659141344cd1fd0a4f28419497f9722a3daafe3b4186f6b6457e09190a35050565b600060208284031215620000f957600080fd5b81516001600160a01b03811681146200011157600080fd5b9392505050565b613f3880620001286000396000f3fe608060405234801561001057600080fd5b506004361061011b5760003560e01c80638da5cb5b116100b2578063d9cf884c11610081578063ea8f547f11610066578063ea8f547f146102c8578063f272660b1461031d578063f2fde38b1461033057600080fd5b8063d9cf884c146102a2578063e1efb596146102b557600080fd5b80638da5cb5b1461024b578063a1bc17c51461025c578063b48272cc1461026f578063c1733f681461028257600080fd5b80634534ba17116100ee5780634534ba17146102065780635137b8a7146102195780636a0876e01461022e578063715018a61461024157600080fd5b806304c2320b14610120578063056b01ce1461014f5780631255c18914610172578063150b7a021461019d575b600080fd5b61013361012e36600461303a565b610343565b60405161014697969594939291906130e5565b60405180910390f35b61016261015d366004613153565b61053c565b6040519015158152602001610146565b600554610185906001600160a01b031681565b6040516001600160a01b039091168152602001610146565b6101d56101ab3660046131af565b7f150b7a020000000000000000000000000000000000000000000000000000000095945050505050565b6040517fffffffff000000000000000000000000000000000000000000000000000000009091168152602001610146565b61016261021436600461324a565b6106bf565b6102216109f3565b60405161014691906132f6565b61016261023c366004613321565b610acc565b610249610bb1565b005b6000546001600160a01b0316610185565b61016261026a36600461303a565b610bc5565b61016261027d366004613153565b610f10565b61029561029036600461303a565b611271565b60405161014691906133de565b6101626102b0366004613153565b6114f5565b6101626102c3366004613153565b611896565b61030f6102d6366004613491565b815160208184018101805160038083529383019583019590952094905292909252600090815260409020805491015460ff918216911682565b6040516101469291906134e3565b61016261032b3660046137ae565b611afb565b61024961033e36600461388d565b611e2d565b8051602081830181018051600182529282019190930120915280548190610369906138a8565b80601f0160208091040260200160405190810160405280929190818152602001828054610395906138a8565b80156103e25780601f106103b7576101008083540402835291602001916103e2565b820191906000526020600020905b8154815290600101906020018083116103c557829003601f168201915b50505050600183015460028401805493946001600160a01b03831694600160a01b90930460ff16935091610415906138a8565b80601f0160208091040260200160405190810160405280929190818152602001828054610441906138a8565b801561048e5780601f106104635761010080835404028352916020019161048e565b820191906000526020600020905b81548152906001019060200180831161047157829003601f168201915b5050505050908060030180546104a3906138a8565b80601f01602080910402602001604051908101604052809291908181526020018280546104cf906138a8565b801561051c5780601f106104f15761010080835404028352916020019161051c565b820191906000526020600020905b8154815290600101906020018083116104ff57829003601f168201915b50505050600483015460059093015491926001600160a01b031691905087565b6000610546611e84565b60006001600160a01b031660018460405161056191906138e2565b908152604051908190036020019020600101546001600160a01b0316036105a6578260405163c0bab25f60e01b815260040161059d91906138fe565b60405180910390fd5b6105c7604051806060016040528060278152602001613e4e60279139611eca565b6105e86040518060600160405280602c8152602001613ed7602c9139611eca565b6105f183611eca565b6105fd83600084611f26565b6106495760405162461bcd60e51b815260206004820152601660248201527f6d696e742061737365742063616c6c206661696c656400000000000000000000604482015260640161059d565b8160018460405161065a91906138e2565b9081526040519081900360200181206005019190915561067b9084906138e2565b604051908190038120838252907f0a4e1e5035320483d096cf114513007c4eda3853a4dca806da2d9faec60470a69060200160405180910390a25060015b92915050565b60006106c9611e84565b60006001856040516106db91906138e2565b90815260405190819003602001902060019081015460ff600160a01b90910416915081600681111561070f5761070f6130bf565b148061072c5750600581600681111561072a5761072a6130bf565b145b156108b8578260018660405161074291906138e2565b90815260200160405180910390206005015410156107c85760405162461bcd60e51b815260206004820152602760248201527f41737369676e696e67206d6f726520617373657473207468616e2074686f736560448201527f206c6f636b656400000000000000000000000000000000000000000000000000606482015260840161059d565b6107d58560028587611f3d565b6108215760405162461bcd60e51b815260206004820152601860248201527f61737369676e2061737365742063616c6c206661696c65640000000000000000604482015260640161059d565b8260018660405161083291906138e2565b908152602001604051809103902060050160008282546108529190613927565b90915550506040516108659086906138e2565b604080519182900382206001600160a01b038716835260208301869052917f0b3112bdbedc0251766a323a5c6ad4df77174bbc08bd61b944815ad9efe8d54c910160405180910390a260019150506109ec565b60028160068111156108cc576108cc6130bf565b14806108e9575060068160068111156108e7576108e76130bf565b145b156109ea57826001866040516108ff91906138e2565b9081526020016040518091039020600501541461095e5760405162461bcd60e51b815260206004820181905260248201527f41737369676e206e6674202d206173736574206973206e6f74206c6f636b6564604482015260640161059d565b61096b8560028587611f3d565b6109b75760405162461bcd60e51b815260206004820152601660248201527f61737369676e206e66742063616c6c206661696c656400000000000000000000604482015260640161059d565b60006001866040516109c991906138e2565b908152604051908190036020018120600501919091556108659086906138e2565b505b9392505050565b60606004805480602002602001604051908101604052809291908181526020016000905b82821015610ac3578382906000526020600020018054610a36906138a8565b80601f0160208091040260200160405190810160405280929190818152602001828054610a62906138a8565b8015610aaf5780601f10610a8457610100808354040283529160200191610aaf565b820191906000526020600020905b815481529060010190602001808311610a9257829003601f168201915b505050505081526020019060010190610a17565b50505050905090565b6000610ad6611e84565b3063f272660b8888888888886000604051908082528060200260200182016040528015610b4057816020015b610b2d6040805160808101909152806000815260606020820181905260408201819052600091015290565b815260200190600190039081610b025790505b506040518863ffffffff1660e01b8152600401610b63979695949392919061393a565b6020604051808303816000875af1158015610b82573d6000803e3d6000fd5b505050506040513d601f19601f82011682018060405250810190610ba69190613ae1565b979650505050505050565b610bb9611e84565b610bc360006123c1565b565b6000610bcf611e84565b60006001600160a01b0316600183604051610bea91906138e2565b908152604051908190036020019020600101546001600160a01b031603610c26578160405163c0bab25f60e01b815260040161059d91906138fe565b6000600183604051610c3891906138e2565b9081526040519081900360200190206001015460ff600160a01b9091041690506005816006811115610c6c57610c6c6130bf565b1480610c8957506001816006811115610c8757610c876130bf565b145b15610cd8576000600184604051610ca091906138e2565b9081526020016040518091039020600501541115610cd35782604051635be9608560e11b815260040161059d91906138fe565b610d86565b6006816006811115610cec57610cec6130bf565b1480610d0957506002816006811115610d0757610d076130bf565b145b15610d5257600183604051610d1e91906138e2565b908152602001604051809103902060050154600014610cd35782604051635be9608560e11b815260040161059d91906138fe565b826040517f7ab5c90f00000000000000000000000000000000000000000000000000000000815260040161059d91906138fe565b610e38600184604051610d9991906138e2565b90815260200160405180910390206002018054610db5906138a8565b80601f0160208091040260200160405190810160405280929190818152602001828054610de1906138a8565b8015610e2e5780601f10610e0357610100808354040283529160200191610e2e565b820191906000526020600020905b815481529060010190602001808311610e1157829003601f168201915b505050505061241e565b600183604051610e4891906138e2565b9081526040519081900360200190206000610e638282612d4d565b60018201805474ffffffffffffffffffffffffffffffffffffffffff19169055610e91600283016000612d4d565b610e9f600383016000612d4d565b5060048101805473ffffffffffffffffffffffffffffffffffffffff191690556000600590910155604051610ed59084906138e2565b604051908190038120907f3855d31914452a5e7361730662e60834555d7cb26d380140894d85fd0d13b85490600090a260019150505b919050565b6000610f1a611e84565b6000600184604051610f2c91906138e2565b90815260405190819003602001902060019081015460ff600160a01b909104169150816006811115610f6057610f606130bf565b1480610f7d57506005816006811115610f7b57610f7b6130bf565b145b156110fa5782600185604051610f9391906138e2565b90815260200160405180910390206005015410156110195760405162461bcd60e51b815260206004820152602860248201527f4275726e696e67206d6f726520617373657473207468616e206c6f636b65642060448201527f7175616e74697479000000000000000000000000000000000000000000000000606482015260840161059d565b61102584600185611f26565b6110715760405162461bcd60e51b815260206004820152601660248201527f6275726e2061737365742063616c6c206661696c656400000000000000000000604482015260640161059d565b8260018560405161108291906138e2565b908152602001604051809103902060050160008282546110a29190613927565b90915550506040516110b59085906138e2565b604051908190038120848252907fa0237080cf48d9e1fbb9ef1f82e33b11170d047b2b540a73b457d0916d53ee99906020015b60405180910390a260019150506106b9565b600281600681111561110e5761110e6130bf565b148061112b57506006816006811115611129576111296130bf565b145b1561126a5760018460405161114091906138e2565b9081526020016040518091039020600501546000036111a15760405162461bcd60e51b815260206004820152601660248201527f4275726e696e6720756e6d696e74656420617373657400000000000000000000604482015260640161059d565b826001856040516111b291906138e2565b908152602001604051809103902060050154146112375760405162461bcd60e51b815260206004820152602c60248201527f4275726e696e67204e4654206661696c65642064756520746f20556e6971756560448201527f4944206d6973736d617463680000000000000000000000000000000000000000606482015260840161059d565b600060018560405161124991906138e2565b908152604051908190036020018120600501919091556110b59085906138e2565b5092915050565b6040805160e0810182526060808252600060208301819052928201839052808201819052608082015260a0810182905260c08101919091526001826040516112b991906138e2565b90815260200160405180910390206040518060e00160405290816000820180546112e2906138a8565b80601f016020809104026020016040519081016040528092919081815260200182805461130e906138a8565b801561135b5780601f106113305761010080835404028352916020019161135b565b820191906000526020600020905b81548152906001019060200180831161133e57829003601f168201915b505050918352505060018201546001600160a01b0381166020830152604090910190600160a01b900460ff166006811115611398576113986130bf565b60068111156113a9576113a96130bf565b81526020016002820180546113bd906138a8565b80601f01602080910402602001604051908101604052809291908181526020018280546113e9906138a8565b80156114365780601f1061140b57610100808354040283529160200191611436565b820191906000526020600020905b81548152906001019060200180831161141957829003601f168201915b5050505050815260200160038201805461144f906138a8565b80601f016020809104026020016040519081016040528092919081815260200182805461147b906138a8565b80156114c85780601f1061149d576101008083540402835291602001916114c8565b820191906000526020600020905b8154815290600101906020018083116114ab57829003601f168201915b505050918352505060048201546001600160a01b0316602082015260059091015460409091015292915050565b60006114ff611e84565b600060018460405161151191906138e2565b90815260405190819003602001902060019081015460ff600160a01b909104169150816006811115611545576115456130bf565b148061156257506005816006811115611560576115606130bf565b145b15611699578260018560405161157891906138e2565b90815260200160405180910390206005015410156115c65783836040517fed579e6000000000000000000000000000000000000000000000000000000000815260040161059d929190613afe565b6115d284600585611f26565b61161e5760405162461bcd60e51b815260206004820152601a60248201527f556e6c6f636b696e6720616d6f756e74206173206661696c6564000000000000604482015260640161059d565b8260018560405161162f91906138e2565b9081526020016040518091039020600501600082825461164f9190613927565b90915550506040516116629085906138e2565b604051908190038120848252907f7b3c894115251262b174b7aeab24a57e00bc2e8853d1ef2f57a217edaa69c06e906020016110e8565b60028160068111156116ad576116ad6130bf565b14806116ca575060068160068111156116c8576116c86130bf565b145b15611862576001846040516116df91906138e2565b9081526020016040518091039020600501546000036117665760405162461bcd60e51b815260206004820152602c60248201527f547279696e6720746f20556e6c6f636b20616e2061737365742074686174206960448201527f73206e6f74206c6f636b65640000000000000000000000000000000000000000606482015260840161059d565b8260018560405161177791906138e2565b908152602001604051809103902060050154146117fc5760405162461bcd60e51b815260206004820152603260248201527f556e6c6f636b696e67204e46542063616e6e6f7420626520646f6e652064756560448201527f20746f2077726f6e6720756e6971756549440000000000000000000000000000606482015260840161059d565b61180884600585611f26565b6118545760405162461bcd60e51b815260206004820152601460248201527f556e6c6f636b696e67204e4654206661696c6564000000000000000000000000604482015260640161059d565b8360405161166291906138e2565b836040517f58300fe700000000000000000000000000000000000000000000000000000000815260040161059d91906138fe565b60006118a0611e84565b60006001600160a01b03166001846040516118bb91906138e2565b908152604051908190036020019020600101546001600160a01b0316036119355761191a6040518060400160405280601781526020017f0a0a546f6b656e206e6f7420617661696c61626c650a0a000000000000000000815250611eca565b8260405163c0bab25f60e01b815260040161059d91906138fe565b600061194384600485611f26565b90508015611ac75761196c6040518060600160405280603b8152602001613e75603b9139611eca565b600060018560405161197e91906138e2565b90815260405190819003602001902060019081015460ff600160a01b9091041691508160068111156119b2576119b26130bf565b14806119cf575060058160068111156119cd576119cd6130bf565b145b15611a5d57836001866040516119e591906138e2565b90815260200160405180910390206005016000828254611a059190613b20565b9091555050604051611a189086906138e2565b604051908190038120858252907fc480ef4e831b2ca5eb0b2f95c6564d9a56af5b3fe2383393008e3f1708dc97979060200160405180910390a26001925050506106b9565b6002816006811115611a7157611a716130bf565b1480611a8e57506006816006811115611a8c57611a8c6130bf565b145b15611ac55783600186604051611aa491906138e2565b90815260405190819003602001812060050191909155611a189086906138e2565b505b836040517f8244096a00000000000000000000000000000000000000000000000000000000815260040161059d91906138fe565b6000611b05611e84565b60006001600160a01b0316600186604051611b2091906138e2565b908152604051908190036020019020600101546001600160a01b031614611b7557846040517f67ab234400000000000000000000000000000000000000000000000000000000815260040161059d91906138fe565b611b7f858361257c565b50600385604051611b9091906138e2565b9081526040805160209281900383019020600360008181529190935220015460ff1615611c3457611bc28560036126a2565b611c345760405162461bcd60e51b815260206004820152603c60248201527f436f6e747261637420646f6573206e6f742068617665207065726d697373696f60448201527f6e20746f20696e74657261637420776974682074686520746f6b656e00000000606482015260840161059d565b6040518060e00160405280898152602001886001600160a01b03168152602001876006811115611c6657611c666130bf565b8152602001868152602001858152602001846001600160a01b031681526020016000815250600186604051611c9b91906138e2565b90815260405190819003602001902081518190611cb89082613b82565b5060208201516001820180546001600160a01b0390921673ffffffffffffffffffffffffffffffffffffffff1983168117825560408501519274ffffffffffffffffffffffffffffffffffffffffff191617600160a01b836006811115611d2157611d216130bf565b021790555060608201516002820190611d3a9082613b82565b5060808201516003820190611d4f9082613b82565b5060a08201516004828101805473ffffffffffffffffffffffffffffffffffffffff19166001600160a01b039093169290921790915560c09092015160059091015580546001810182556000919091527f8a35acfbc15ff81a39ae7d344fd709f28e8600b4aa8c65c6b64bfe7fe36bd19b01611dcb8682613b82565b5084604051611dda91906138e2565b60405180910390207f1455a30f034090309f76768ab435a6bd3c547427fc31dbe48477cfb5b9f47dda89898987604051611e179493929190613c42565b60405180910390a2506001979650505050505050565b611e35611e84565b6001600160a01b038116611e78576040517f1e4fbdf70000000000000000000000000000000000000000000000000000000081526000600482015260240161059d565b611e81816123c1565b50565b6000546001600160a01b03163314610bc3576040517f118cdaa700000000000000000000000000000000000000000000000000000000815233600482015260240161059d565b611e8181604051602401611ede91906138fe565b60408051601f198184030181529190526020810180516001600160e01b03167f41304fac000000000000000000000000000000000000000000000000000000001790526126b1565b6000611f358484846000611f3d565b949350505050565b6000600385604051611f4f91906138e2565b90815260200160405180910390206000856006811115611f7157611f716130bf565b6006811115611f8257611f826130bf565b815260208101919091526040016000206003015460ff16611fc657611fbe604051806060016040528060278152602001613eb060279139611eca565b506000611f35565b611fcf826126d2565b61200d6040518060400160405280600a81526020017f0a636f6e74696e75650a00000000000000000000000000000000000000000000815250611eca565b60005b60038660405161202091906138e2565b90815260200160405180910390206000866006811115612042576120426130bf565b6006811115612053576120536130bf565b81526020810191909152604001600020600101548110156123b55761216e60038760405161208191906138e2565b908152602001604051809103902060008760068111156120a3576120a36130bf565b60068111156120b4576120b46130bf565b815260200190815260200160002060010182815481106120d6576120d6613c88565b9060005260206000200180546120eb906138a8565b80601f0160208091040260200160405190810160405280929190818152602001828054612117906138a8565b80156121645780601f1061213957610100808354040283529160200191612164565b820191906000526020600020905b81548152906001019060200180831161214757829003601f168201915b5050505050611eca565b600060038760405161218091906138e2565b908152602001604051809103902060008760068111156121a2576121a26130bf565b60068111156121b3576121b36130bf565b815260200190815260200160002060010182815481106121d5576121d5613c88565b906000526020600020016040516020016121ef9190613c9e565b604051602081830303815290604052805190602001209050600061230b8261230660038b60405161222091906138e2565b908152602001604051809103902060008b6006811115612242576122426130bf565b6006811115612253576122536130bf565b8152602001908152602001600020600201868154811061227557612275613c88565b906000526020600020018054806020026020016040519081016040528092919081815260200182805480156122f957602002820191906000526020600020906000905b82829054906101000a900460ff1660078111156122d7576122d76130bf565b8152602060019283018181049485019490930390920291018084116122b85790505b50505050508b898b612733565b612c30565b9050600060018960405161231f91906138e2565b908152604051908190036020018120600101546001600160a01b0316906123479084906138e2565b6000604051808303816000865af19150503d8060008114612384576040519150601f19603f3d011682016040523d82523d6000602084013e612389565b606091505b505090508061239f576000945050505050611f35565b50505080806123ad90613d14565b915050612010565b50600195945050505050565b600080546001600160a01b0383811673ffffffffffffffffffffffffffffffffffffffff19831681178455604051919092169283917f8be0079c531659141344cd1fd0a4f28419497f9722a3daafe3b4186f6b6457e09190a35050565b60005b600454811015612578576124da6004828154811061244157612441613c88565b906000526020600020018054612456906138a8565b80601f0160208091040260200160405190810160405280929190818152602001828054612482906138a8565b80156124cf5780601f106124a4576101008083540402835291602001916124cf565b820191906000526020600020905b8154815290600101906020018083116124b257829003601f168201915b505050505083612cca565b1561256657600480546124ef90600190613927565b815481106124ff576124ff613c88565b906000526020600020016004828154811061251c5761251c613c88565b9060005260206000200190816125329190613d2d565b50600480548061254457612544613e08565b6001900381819060005260206000200160006125609190612d4d565b90555050565b8061257081613d14565b915050612421565b5050565b6000805b82518110156126985782818151811061259b5761259b613c88565b60200260200101516003856040516125b391906138e2565b908152602001604051809103902060008584815181106125d5576125d5613c88565b60200260200101516000015160068111156125f2576125f26130bf565b6006811115612603576126036130bf565b8152602081019190915260400160002081518154829060ff19166001836006811115612631576126316130bf565b0217905550602082810151805161264e9260018501920190612d87565b506040820151805161266a916002840191602090910190612ddd565b50606091909101516003909101805460ff19169115159190911790558061269081613d14565b915050612580565b5060019392505050565b60006109ec8383600080611f3d565b80516a636f6e736f6c652e6c6f67602083016000808483855afa5050505050565b6040516001600160a01b0382166024820152611e819060440160408051601f198184030181529190526020810180516001600160e01b03167f2c2ecbc2000000000000000000000000000000000000000000000000000000001790526126b1565b60606000855167ffffffffffffffff81111561275157612751612f5a565b60405190808252806020026020018201604052801561278457816020015b606081526020019060019003908161276f5790505b50905060005b8651811015612c265760058782815181106127a7576127a7613c88565b602002602001015160078111156127c0576127c06130bf565b03612849576127ce81612cef565b61280c6040518060400160405280600e81526020017f4272696467652061646472657373000000000000000000000000000000000000815250611eca565b60408051306020820152015b60405160208183030381529060405282828151811061283957612839613c88565b6020026020010181905250612c14565b600287828151811061285d5761285d613c88565b60200260200101516007811115612876576128766130bf565b036128d35761288481612cef565b6128c26040518060400160405280600781526020017f746f6b656e496400000000000000000000000000000000000000000000000000815250611eca565b8560405160200161281891906138fe565b60048782815181106128e7576128e7613c88565b60200260200101516007811115612900576129006130bf565b0361295d5761290e81612cef565b61294c6040518060400160405280600681526020017f616d6f756e740000000000000000000000000000000000000000000000000000815250611eca565b604080516020810186905201612818565b600387828151811061297157612971613c88565b6020026020010151600781111561298a5761298a6130bf565b03612a0f5761299881612cef565b6129d66040518060400160405280600d81526020017f6f776e6572206164647265737300000000000000000000000000000000000000815250611eca565b6001866040516129e691906138e2565b908152604080519182900360209081018320600401546001600160a01b03169083015201612818565b6000878281518110612a2357612a23613c88565b60200260200101516007811115612a3c57612a3c6130bf565b03612ac157612a4a81612cef565b612a886040518060400160405280601081526020017f636f6e7472616374206164647265737300000000000000000000000000000000815250611eca565b600186604051612a9891906138e2565b908152604080519182900360209081018320600101546001600160a01b03169083015201612818565b6006878281518110612ad557612ad5613c88565b60200260200101516007811115612aee57612aee6130bf565b03612b5357612afc81612cef565b612b3a6040518060400160405280601081526020017f7265636569766572206164647265737300000000000000000000000000000000815250611eca565b604080516001600160a01b038716602082015201612818565b6007878281518110612b6757612b67613c88565b60200260200101516007811115612b8057612b806130bf565b03612bcc57612b8e81612cef565b61294c6040518060400160405280601181526020017f756e697175652064657363726970746f72000000000000000000000000000000815250611eca565b60405162461bcd60e51b815260206004820152601660248201527f5661726961626c65206e6f7420737570706f7274656400000000000000000000604482015260640161059d565b80612c1e81613d14565b91505061278a565b5095945050505050565b604080517fffffffff000000000000000000000000000000000000000000000000000000008416602082015281516004818303018152602490910190915260005b825181101561126a5781838281518110612c8d57612c8d613c88565b6020026020010151604051602001612ca6929190613e1e565b60405160208183030381529060405291508080612cc290613d14565b915050612c71565b6000815183511480156109ec5750508051602091820120825192909101919091201490565b611e8181604051602401612d0591815260200190565b60408051601f198184030181529190526020810180516001600160e01b03167ff5b1bba9000000000000000000000000000000000000000000000000000000001790526126b1565b508054612d59906138a8565b6000825580601f10612d69575050565b601f016020900490600052602060002090810190611e819190612e36565b828054828255906000526020600020908101928215612dcd579160200282015b82811115612dcd5782518290612dbd9082613b82565b5091602001919060010190612da7565b50612dd9929150612e4b565b5090565b828054828255906000526020600020908101928215612e2a579160200282015b82811115612e2a5782518051612e1a918491602090910190612e68565b5091602001919060010190612dfd565b50612dd9929150612f18565b5b80821115612dd95760008155600101612e37565b80821115612dd9576000612e5f8282612d4d565b50600101612e4b565b82805482825590600052602060002090601f01602090048101928215612f0c5791602002820160005b83821115612edd57835183826101000a81548160ff02191690836007811115612ebc57612ebc6130bf565b02179055509260200192600101602081600001049283019260010302612e91565b8015612f0a5782816101000a81549060ff0219169055600101602081600001049283019260010302612edd565b505b50612dd9929150612e36565b80821115612dd9576000612f2c8282612f35565b50600101612f18565b50805460008255601f016020900490600052602060002090810190611e819190612e36565b634e487b7160e01b600052604160045260246000fd5b6040516080810167ffffffffffffffff81118282101715612f9357612f93612f5a565b60405290565b604051601f8201601f1916810167ffffffffffffffff81118282101715612fc257612fc2612f5a565b604052919050565b600082601f830112612fdb57600080fd5b813567ffffffffffffffff811115612ff557612ff5612f5a565b613008601f8201601f1916602001612f99565b81815284602083860101111561301d57600080fd5b816020850160208301376000918101602001919091529392505050565b60006020828403121561304c57600080fd5b813567ffffffffffffffff81111561306357600080fd5b611f3584828501612fca565b60005b8381101561308a578181015183820152602001613072565b50506000910152565b600081518084526130ab81602086016020860161306f565b601f01601f19169290920160200192915050565b634e487b7160e01b600052602160045260246000fd5b60078110611e8157611e816130bf565b60e0815260006130f860e083018a613093565b6001600160a01b03808a166020850152613111896130d5565b88604085015283820360608501526131298289613093565b9150838203608085015261313d8288613093565b951660a0840152505060c0015295945050505050565b6000806040838503121561316657600080fd5b823567ffffffffffffffff81111561317d57600080fd5b61318985828601612fca565b95602094909401359450505050565b80356001600160a01b0381168114610f0b57600080fd5b6000806000806000608086880312156131c757600080fd5b6131d086613198565b94506131de60208701613198565b935060408601359250606086013567ffffffffffffffff8082111561320257600080fd5b818801915088601f83011261321657600080fd5b81358181111561322557600080fd5b89602082850101111561323757600080fd5b9699959850939650602001949392505050565b60008060006060848603121561325f57600080fd5b833567ffffffffffffffff81111561327657600080fd5b61328286828701612fca565b93505061329160208501613198565b9150604084013590509250925092565b600081518084526020808501808196508360051b8101915082860160005b858110156132e95782840389526132d7848351613093565b988501989350908401906001016132bf565b5091979650505050505050565b6020815260006109ec60208301846132a1565b60078110611e8157600080fd5b8035610f0b81613309565b60008060008060008060c0878903121561333a57600080fd5b863567ffffffffffffffff8082111561335257600080fd5b61335e8a838b01612fca565b975061336c60208a01613198565b96506040890135915061337e82613309565b9094506060880135908082111561339457600080fd5b6133a08a838b01612fca565b945060808901359150808211156133b657600080fd5b506133c389828a01612fca565b9250506133d260a08801613198565b90509295509295509295565b602081526000825160e060208401526133fb610100840182613093565b90506001600160a01b036020850151166040840152604084015161341e816130d5565b806060850152506060840151601f19808584030160808601526134418383613093565b925060808601519150808584030160a08601525061345f8282613093565b91505060a084015161347c60c08501826001600160a01b03169052565b5060c084015160e08401528091505092915050565b600080604083850312156134a457600080fd5b823567ffffffffffffffff8111156134bb57600080fd5b6134c785828601612fca565b92505060208301356134d881613309565b809150509250929050565b604081016134f0846130d5565b92815290151560209091015290565b600067ffffffffffffffff82111561351957613519612f5a565b5060051b60200190565b600082601f83011261353457600080fd5b81356020613549613544836134ff565b612f99565b828152600592831b850182019282820191908785111561356857600080fd5b8387015b8581101561360d57803567ffffffffffffffff81111561358c5760008081fd5b8801603f81018a1361359e5760008081fd5b8581013560406135b0613544836134ff565b82815291851b8301810191888101908d8411156135cd5760008081fd5b938201935b838510156135fc5784359250600883106135ec5760008081fd5b82825293890193908901906135d2565b88525050509385019350840161356c565b5090979650505050505050565b8015158114611e8157600080fd5b8035610f0b8161361a565b600082601f83011261364457600080fd5b61365161354483356134ff565b82358082526020808301929160051b8501018581111561367057600080fd5b602085015b818110156137a35767ffffffffffffffff808235111561369457600080fd5b813587016080818a03601f190112156136ac57600080fd5b6136b4612f70565b60208201356136c281613309565b81526040820135838111156136d657600080fd5b8201603f81018b136136e757600080fd5b60208101356136f8613544826134ff565b81815260059190911b82016040019060208101908d83111561371957600080fd5b604084015b8381101561375257878135111561373457600080fd5b6137448f60408335880101612fca565b83526020928301920161371e565b50602085015250505060608201358381111561376d57600080fd5b61377c8b602083860101613523565b60408301525061378e60808301613628565b60608201528652505060209384019301613675565b509095945050505050565b600080600080600080600060e0888a0312156137c957600080fd5b873567ffffffffffffffff808211156137e157600080fd5b6137ed8b838c01612fca565b98506137fb60208b01613198565b975061380960408b01613316565b965060608a013591508082111561381f57600080fd5b61382b8b838c01612fca565b955060808a013591508082111561384157600080fd5b61384d8b838c01612fca565b945061385b60a08b01613198565b935060c08a013591508082111561387157600080fd5b5061387e8a828b01613633565b91505092959891949750929550565b60006020828403121561389f57600080fd5b6109ec82613198565b600181811c908216806138bc57607f821691505b6020821081036138dc57634e487b7160e01b600052602260045260246000fd5b50919050565b600082516138f481846020870161306f565b9190910192915050565b6020815260006109ec6020830184613093565b634e487b7160e01b600052601160045260246000fd5b818103818111156106b9576106b9613911565b60e08152600061394d60e083018a613093565b6001600160a01b0389166020840152613965886130d5565b876040840152828103606084015261397d8188613093565b905082810360808401526139918187613093565b90506001600160a01b03851660a084015282810360c084015280845180835260208301915060208160051b8401016020870160005b83811015613ace57601f1980878503018652825180516139e5816130d5565b80865250602081015160806020870152613a0260808701826132a1565b90506040820151868203604088015281815180845260208401915060208160051b85010160208401935060005b82811015613a9757858203880184528451805180845260209182019184019060005b81811015613a7f57835160088110613a6b57613a6b6130bf565b835260209384019390920191600101613a51565b50506020968701969590950194925050600101613a2f565b5060608601519650613aad60608b018815159052565b809950505050505050506020820191506020850194506001810190506139c6565b50909d9c50505050505050505050505050565b600060208284031215613af357600080fd5b81516109ec8161361a565b604081526000613b116040830185613093565b90508260208301529392505050565b808201808211156106b9576106b9613911565b601f821115613b7d57600081815260208120601f850160051c81016020861015613b5a5750805b601f850160051c820191505b81811015613b7957828155600101613b66565b5050505b505050565b815167ffffffffffffffff811115613b9c57613b9c612f5a565b613bb081613baa84546138a8565b84613b33565b602080601f831160018114613be55760008415613bcd5750858301515b600019600386901b1c1916600185901b178555613b79565b600085815260208120601f198616915b82811015613c1457888601518255948401946001909101908401613bf5565b5085821015613c325787850151600019600388901b60f8161c191681555b5050505050600190811b01905550565b608081526000613c556080830187613093565b90506001600160a01b038086166020840152613c70856130d5565b84604084015280841660608401525095945050505050565b634e487b7160e01b600052603260045260246000fd5b6000808354613cac816138a8565b60018281168015613cc45760018114613cd957613d08565b60ff1984168752821515830287019450613d08565b8760005260208060002060005b85811015613cff5781548a820152908401908201613ce6565b50505082870194505b50929695505050505050565b600060018201613d2657613d26613911565b5060010190565b818103613d38575050565b613d4282546138a8565b67ffffffffffffffff811115613d5a57613d5a612f5a565b613d6881613baa84546138a8565b6000601f821160018114613d9c5760008315613d845750848201545b600019600385901b1c1916600184901b178455613e01565b600085815260209020601f19841690600086815260209020845b83811015613dd65782860154825560019586019590910190602001613db6565b5085831015613df45781850154600019600388901b60f8161c191681555b50505060018360011b0184555b5050505050565b634e487b7160e01b600052603160045260246000fd5b60008351613e3081846020880161306f565b835190830190613e4481836020880161306f565b0194935050505056fe4d696e74696e67206173736574207769746820746f6b656e49643a2c206174747269627574653a0a0a5472616e73666572206f6363757272656420636f72726563746c792066726f6d2074686520746f6b656e436f6e747261637420736964650a0a0a0a496e746572616374696f6e73206e6f7420617661696c61626c6520666f7220746f6b656e0a0a0a686168616861686861686168616861686168616861686168616861686168616861686168686168610a0aa2646970667358221220ae750690629db88f4a5a0e82c927b38fa30b3d2e39f0ee5ece893a6b50dd4e7464736f6c63430008140033","linkReferences":{}},"methodIdentifiers":{"assign(string,address,uint256)":"4534ba17","bridge_address()":"1255c189","burn(string,uint256)":"b48272cc","getAllAssetsIDs()":"5137b8a7","getToken(string)":"c1733f68","lock(string,uint256)":"e1efb596","mint(string,uint256)":"056b01ce","onERC721Received(address,address,uint256,bytes)":"150b7a02","owner()":"8da5cb5b","renounceOwnership()":"715018a6","tokens(string)":"04c2320b","tokensInteractions(string,uint8)":"ea8f547f","transferOwnership(address)":"f2fde38b","unlock(string,uint256)":"d9cf884c","unwrap(string)":"a1bc17c5","wrap(string,address,uint8,string,string,address)":"6a0876e0","wrap(string,address,uint8,string,string,address,(uint8,string[],uint8[][],bool)[])":"f272660b"},"id":35}