{"abi":[{"type":"constructor","inputs":[{"name":"_bridge_address","type":"address","internalType":"address"}],"stateMutability":"nonpayable"},{"type":"function","name":"NFT_IDs","inputs":[{"name":"","type":"string","internalType":"string"},{"name":"","type":"uint256","internalType":"uint256"}],"outputs":[{"name":"","type":"bool","internalType":"bool"}],"stateMutability":"view"},{"type":"function","name":"assign","inputs":[{"name":"tokenId","type":"string","internalType":"string"},{"name":"receiver_account","type":"address","internalType":"address"},{"name":"assetAttribute","type":"uint256","internalType":"uint256"}],"outputs":[{"name":"success","type":"bool","internalType":"bool"}],"stateMutability":"nonpayable"},{"type":"function","name":"bridge_address","inputs":[],"outputs":[{"name":"","type":"address","internalType":"address"}],"stateMutability":"view"},{"type":"function","name":"burn","inputs":[{"name":"tokenId","type":"string","internalType":"string"},{"name":"assetAttribute","type":"uint256","internalType":"uint256"}],"outputs":[{"name":"success","type":"bool","internalType":"bool"}],"stateMutability":"nonpayable"},{"type":"function","name":"getAllAssetsIDs","inputs":[],"outputs":[{"name":"","type":"string[]","internalType":"string[]"}],"stateMutability":"view"},{"type":"function","name":"getToken","inputs":[{"name":"tokenId","type":"string","internalType":"string"},{"name":"assetAttribute","type":"uint256","internalType":"uint256"}],"outputs":[{"name":"token","type":"tuple","internalType":"struct Token","components":[{"name":"contractName","type":"string","internalType":"string"},{"name":"contractAddress","type":"address","internalType":"address"},{"name":"tokenType","type":"uint8","internalType":"enum TokenType"},{"name":"tokenId","type":"string","internalType":"string"},{"name":"referenceId","type":"string","internalType":"string"},{"name":"owner","type":"address","internalType":"address"},{"name":"amount","type":"uint256","internalType":"uint256"},{"name":"ercTokenStandard","type":"uint8","internalType":"enum ERCTokenStandard"}]}],"stateMutability":"view"},{"type":"function","name":"getToken","inputs":[{"name":"tokenId","type":"string","internalType":"string"}],"outputs":[{"name":"token","type":"tuple","internalType":"struct Token","components":[{"name":"contractName","type":"string","internalType":"string"},{"name":"contractAddress","type":"address","internalType":"address"},{"name":"tokenType","type":"uint8","internalType":"enum TokenType"},{"name":"tokenId","type":"string","internalType":"string"},{"name":"referenceId","type":"string","internalType":"string"},{"name":"owner","type":"address","internalType":"address"},{"name":"amount","type":"uint256","internalType":"uint256"},{"name":"ercTokenStandard","type":"uint8","internalType":"enum ERCTokenStandard"}]}],"stateMutability":"view"},{"type":"function","name":"lock","inputs":[{"name":"tokenId","type":"string","internalType":"string"},{"name":"assetAttribute","type":"uint256","internalType":"uint256"}],"outputs":[{"name":"success","type":"bool","internalType":"bool"}],"stateMutability":"nonpayable"},{"type":"function","name":"mint","inputs":[{"name":"tokenId","type":"string","internalType":"string"},{"name":"assetAttribute","type":"uint256","internalType":"uint256"}],"outputs":[{"name":"success","type":"bool","internalType":"bool"}],"stateMutability":"nonpayable"},{"type":"function","name":"onERC721Received","inputs":[{"name":"","type":"address","internalType":"address"},{"name":"","type":"address","internalType":"address"},{"name":"","type":"uint256","internalType":"uint256"},{"name":"","type":"bytes","internalType":"bytes"}],"outputs":[{"name":"","type":"bytes4","internalType":"bytes4"}],"stateMutability":"pure"},{"type":"function","name":"owner","inputs":[],"outputs":[{"name":"","type":"address","internalType":"address"}],"stateMutability":"view"},{"type":"function","name":"renounceOwnership","inputs":[],"outputs":[],"stateMutability":"nonpayable"},{"type":"function","name":"tokens","inputs":[{"name":"","type":"string","internalType":"string"}],"outputs":[{"name":"contractName","type":"string","internalType":"string"},{"name":"contractAddress","type":"address","internalType":"address"},{"name":"tokenType","type":"uint8","internalType":"enum TokenType"},{"name":"tokenId","type":"string","internalType":"string"},{"name":"referenceId","type":"string","internalType":"string"},{"name":"owner","type":"address","internalType":"address"},{"name":"amount","type":"uint256","internalType":"uint256"},{"name":"ercTokenStandard","type":"uint8","internalType":"enum ERCTokenStandard"}],"stateMutability":"view"},{"type":"function","name":"tokensInteractions","inputs":[{"name":"","type":"string","internalType":"string"},{"name":"","type":"uint8","internalType":"enum InteractionType"}],"outputs":[{"name":"interactionType","type":"uint8","internalType":"enum InteractionType"},{"name":"available","type":"bool","internalType":"bool"}],"stateMutability":"view"},{"type":"function","name":"transferOwnership","inputs":[{"name":"newOwner","type":"address","internalType":"address"}],"outputs":[],"stateMutability":"nonpayable"},{"type":"function","name":"unlock","inputs":[{"name":"tokenId","type":"string","internalType":"string"},{"name":"assetAttribute","type":"uint256","internalType":"uint256"}],"outputs":[{"name":"success","type":"bool","internalType":"bool"}],"stateMutability":"nonpayable"},{"type":"function","name":"unwrap","inputs":[{"name":"tokenId","type":"string","internalType":"string"}],"outputs":[{"name":"success","type":"bool","internalType":"bool"}],"stateMutability":"nonpayable"},{"type":"function","name":"wrap","inputs":[{"name":"contractName","type":"string","internalType":"string"},{"name":"contractAddress","type":"address","internalType":"address"},{"name":"tokenType","type":"uint8","internalType":"enum TokenType"},{"name":"tokenId","type":"string","internalType":"string"},{"name":"referenceId","type":"string","internalType":"string"},{"name":"owner","type":"address","internalType":"address"},{"name":"interactions","type":"tuple[]","internalType":"struct InteractionSignature[]","components":[{"name":"interactionType","type":"uint8","internalType":"enum InteractionType"},{"name":"functionsSignature","type":"string[]","internalType":"string[]"},{"name":"variables","type":"uint8[][]","internalType":"enum AssetParameterIdentifier[][]"},{"name":"available","type":"bool","internalType":"bool"}]},{"name":"ercTokenStandard","type":"uint8","internalType":"enum ERCTokenStandard"}],"outputs":[{"name":"wrapSuccess","type":"bool","internalType":"bool"}],"stateMutability":"nonpayable"},{"type":"function","name":"wrap","inputs":[{"name":"contractName","type":"string","internalType":"string"},{"name":"contractAddress","type":"address","internalType":"address"},{"name":"tokenType","type":"uint8","internalType":"enum TokenType"},{"name":"tokenId","type":"string","internalType":"string"},{"name":"referenceId","type":"string","internalType":"string"},{"name":"owner","type":"address","internalType":"address"},{"name":"ercTokenStandard","type":"uint8","internalType":"enum ERCTokenStandard"}],"outputs":[{"name":"wrapSuccess","type":"bool","internalType":"bool"}],"stateMutability":"nonpayable"},{"type":"event","name":"Approve","inputs":[{"name":"tokenId","type":"string","indexed":true,"internalType":"string"},{"name":"spender","type":"address","indexed":false,"internalType":"address"},{"name":"amount","type":"uint256","indexed":false,"internalType":"uint256"}],"anonymous":false},{"type":"event","name":"Assign","inputs":[{"name":"tokenId","type":"string","indexed":true,"internalType":"string"},{"name":"receiver_account","type":"address","indexed":false,"internalType":"address"},{"name":"amount","type":"uint256","indexed":false,"internalType":"uint256"}],"anonymous":false},{"type":"event","name":"Burn","inputs":[{"name":"tokenId","type":"string","indexed":true,"internalType":"string"},{"name":"amount","type":"uint256","indexed":false,"internalType":"uint256"}],"anonymous":false},{"type":"event","name":"Changed","inputs":[{"name":"id","type":"string","indexed":true,"internalType":"string"},{"name":"value","type":"bytes[]","indexed":false,"internalType":"bytes[]"}],"anonymous":false},{"type":"event","name":"Lock","inputs":[{"name":"tokenId","type":"string","indexed":true,"internalType":"string"},{"name":"amount","type":"uint256","indexed":false,"internalType":"uint256"}],"anonymous":false},{"type":"event","name":"Mint","inputs":[{"name":"tokenId","type":"string","indexed":true,"internalType":"string"},{"name":"amount","type":"uint256","indexed":false,"internalType":"uint256"}],"anonymous":false},{"type":"event","name":"OwnershipTransferred","inputs":[{"name":"previousOwner","type":"address","indexed":true,"internalType":"address"},{"name":"newOwner","type":"address","indexed":true,"internalType":"address"}],"anonymous":false},{"type":"event","name":"Unlock","inputs":[{"name":"tokenId","type":"string","indexed":true,"internalType":"string"},{"name":"amount","type":"uint256","indexed":false,"internalType":"uint256"}],"anonymous":false},{"type":"event","name":"Unwrap","inputs":[{"name":"tokenId","type":"string","indexed":true,"internalType":"string"}],"anonymous":false},{"type":"event","name":"Wrap","inputs":[{"name":"tokenId","type":"string","indexed":true,"internalType":"string"},{"name":"contractName","type":"string","indexed":false,"internalType":"string"},{"name":"contractAddress","type":"address","indexed":false,"internalType":"address"},{"name":"tokenType","type":"uint8","indexed":false,"internalType":"enum TokenType"},{"name":"owner","type":"address","indexed":false,"internalType":"address"}],"anonymous":false},{"type":"error","name":"InsuficientAmountLocked","inputs":[{"name":"tokenId","type":"string","internalType":"string"},{"name":"amount","type":"uint256","internalType":"uint256"}]},{"type":"error","name":"OwnableInvalidOwner","inputs":[{"name":"owner","type":"address","internalType":"address"}]},{"type":"error","name":"OwnableUnauthorizedAccount","inputs":[{"name":"account","type":"address","internalType":"address"}]},{"type":"error","name":"TokenAlreadyWrapped","inputs":[{"name":"tokenId","type":"string","internalType":"string"}]},{"type":"error","name":"TokenLocked","inputs":[{"name":"tokenId","type":"string","internalType":"string"}]},{"type":"error","name":"TokenNotAvailable","inputs":[{"name":"tokenId","type":"string","internalType":"string"}]},{"type":"error","name":"TokenNotSupported","inputs":[{"name":"tokenId","type":"string","internalType":"string"}]}],"bytecode":{"object":"0x60806040523480156200001157600080fd5b50604051620046fa380380620046fa8339810160408190526200003491620000e6565b806001600160a01b0381166200006457604051631e4fbdf760e01b81526000600482015260240160405180910390fd5b6200006f8162000096565b50600580546001600160a01b0319166001600160a01b039290921691909117905562000118565b600080546001600160a01b038381166001600160a01b0319831681178455604051919092169283917f8be0079c531659141344cd1fd0a4f28419497f9722a3daafe3b4186f6b6457e09190a35050565b600060208284031215620000f957600080fd5b81516001600160a01b03811681146200011157600080fd5b9392505050565b6145d280620001286000396000f3fe608060405234801561001057600080fd5b50600436106101515760003560e01c8063715018a6116100cd578063d9cf884c11610081578063e1efb59611610066578063e1efb59614610350578063ea8f547f14610363578063f2fde38b146103ba57600080fd5b8063d9cf884c1461032a578063dbf156391461033d57600080fd5b8063a1bc17c5116100b2578063a1bc17c5146102f1578063b48272cc14610304578063c1733f681461031757600080fd5b8063715018a6146102d65780638da5cb5b146102e057600080fd5b806319d09bc911610124578063433f60ac11610109578063433f60ac1461029b5780634534ba17146102ae5780635137b8a7146102c157600080fd5b806319d09bc91461023d578063324980b51461027b57600080fd5b806304c2320b14610156578063056b01ce146101865780631255c189146101a9578063150b7a02146101d4575b600080fd5b61016961016436600461370f565b6103cd565b60405161017d9897969594939291906137ce565b60405180910390f35b610199610194366004613853565b6105d1565b604051901515815260200161017d565b6005546101bc906001600160a01b031681565b6040516001600160a01b03909116815260200161017d565b61020c6101e23660046138af565b7f150b7a020000000000000000000000000000000000000000000000000000000095945050505050565b6040517fffffffff00000000000000000000000000000000000000000000000000000000909116815260200161017d565b61019961024b366004613853565b81516020818401810180516003825292820194820194909420919093529091526000908152604090205460ff1681565b61028e610289366004613853565b61092b565b60405161017d919061394a565b6101996102a9366004613cf0565b61114d565b6101996102bc366004613de0565b6114c0565b6102c961191b565b60405161017d9190613e8c565b6102de6119f4565b005b6000546001600160a01b03166101bc565b6101996102ff36600461370f565b611a08565b610199610312366004613853565b611c59565b61028e61032536600461370f565b61209c565b610199610338366004613853565b6120eb565b61019961034b366004613e9f565b612568565b61019961035e366004613853565b612650565b6103ac610371366004613f6a565b8151602081840181018051600282529282019482019490942091909352909152600090815260409020805460039091015460ff918216911682565b60405161017d929190613fc8565b6102de6103c8366004613fe5565b612985565b80516020818301810180516001825292820191909301209152805481906103f390614000565b80601f016020809104026020016040519081016040528092919081815260200182805461041f90614000565b801561046c5780601f106104415761010080835404028352916020019161046c565b820191906000526020600020905b81548152906001019060200180831161044f57829003601f168201915b50505050600183015460028401805493946001600160a01b03831694600160a01b90930460ff1693509161049f90614000565b80601f01602080910402602001604051908101604052809291908181526020018280546104cb90614000565b80156105185780601f106104ed57610100808354040283529160200191610518565b820191906000526020600020905b8154815290600101906020018083116104fb57829003601f168201915b50505050509080600301805461052d90614000565b80601f016020809104026020016040519081016040528092919081815260200182805461055990614000565b80156105a65780601f1061057b576101008083540402835291602001916105a6565b820191906000526020600020905b81548152906001019060200180831161058957829003601f168201915b505050506004830154600584015460069094015492936001600160a01b039091169290915060ff1688565b60006105db6129dc565b60006001600160a01b03166001846040516105f6919061403a565b908152604051908190036020019020600101546001600160a01b03160361063b578260405163c0bab25f60e01b81526004016106329190614056565b60405180910390fd5b6000821161068b5760405162461bcd60e51b815260206004820152601760248201527f496e76616c6964206173736574206174747269627574650000000000000000006044820152606401610632565b600060018460405161069d919061403a565b90815260405190819003602001902060019081015460ff600160a01b9091041691508160028111156106d1576106d1613794565b03610757576106e284600085612a22565b61072e5760405162461bcd60e51b815260206004820152601660248201527f6d696e742061737365742063616c6c206661696c6564000000000000000000006044820152606401610632565b8260018560405161073f919061403a565b908152604051908190036020019020600501556108d6565b600281600281111561076b5761076b613794565b036108bb57600384604051610780919061403a565b90815260408051602092819003830190206000868152925290205460ff16156107eb5760405162461bcd60e51b815260206004820181905260248201527f556e697175652044657363726970746f7220616c7265616479206578697374736044820152606401610632565b6107f784600085612a22565b6108435760405162461bcd60e51b815260206004820152601660248201527f6d696e742061737365742063616c6c206661696c6564000000000000000000006044820152606401610632565b60018085604051610854919061403a565b90815260200160405180910390206005016000828254610874919061407f565b92505081905550600160038560405161088d919061403a565b9081526040805160209281900383019020600087815292529020805460ff19169115159190911790556108d6565b8360405163c16fc3ad60e01b81526004016106329190614056565b836040516108e4919061403a565b604051908190038120848252907f0a4e1e5035320483d096cf114513007c4eda3853a4dca806da2d9faec60470a6906020015b60405180910390a260019150505b92915050565b61096f60408051610100810182526060808252600060208301819052928201839052808201819052608082015260a0810182905260c081018290529060e082015290565b6000600184604051610981919061403a565b90815260405190819003602001902060019081015460ff600160a01b9091041691508160028111156109b5576109b5613794565b03610c3b576001846040516109ca919061403a565b9081526020016040518091039020604051806101000160405290816000820180546109f490614000565b80601f0160208091040260200160405190810160405280929190818152602001828054610a2090614000565b8015610a6d5780601f10610a4257610100808354040283529160200191610a6d565b820191906000526020600020905b815481529060010190602001808311610a5057829003601f168201915b505050918352505060018201546001600160a01b0381166020830152604090910190600160a01b900460ff166002811115610aaa57610aaa613794565b6002811115610abb57610abb613794565b8152602001600282018054610acf90614000565b80601f0160208091040260200160405190810160405280929190818152602001828054610afb90614000565b8015610b485780601f10610b1d57610100808354040283529160200191610b48565b820191906000526020600020905b815481529060010190602001808311610b2b57829003601f168201915b50505050508152602001600382018054610b6190614000565b80601f0160208091040260200160405190810160405280929190818152602001828054610b8d90614000565b8015610bda5780601f10610baf57610100808354040283529160200191610bda565b820191906000526020600020905b815481529060010190602001808311610bbd57829003601f168201915b505050918352505060048201546001600160a01b0316602082015260058201546040820152600682015460609091019060ff166003811115610c1e57610c1e613794565b6003811115610c2f57610c2f613794565b81525050915050610925565b6002816002811115610c4f57610c4f613794565b0361114657600384604051610c64919061403a565b90815260408051602092819003830190206000868152925290205460ff1615610ef757604051806101000160405280600186604051610ca3919061403a565b9081526040519081900360200190208054610cbd90614000565b80601f0160208091040260200160405190810160405280929190818152602001828054610ce990614000565b8015610d365780601f10610d0b57610100808354040283529160200191610d36565b820191906000526020600020905b815481529060010190602001808311610d1957829003601f168201915b50505050508152602001600186604051610d50919061403a565b908152602001604051809103902060010160009054906101000a90046001600160a01b03166001600160a01b03168152602001600186604051610d93919061403a565b9081526040519081900360200190206001015460ff600160a01b909104166002811115610dc257610dc2613794565b8152602001858152602001600186604051610ddd919061403a565b90815260200160405180910390206003018054610df990614000565b80601f0160208091040260200160405190810160405280929190818152602001828054610e2590614000565b8015610e725780601f10610e4757610100808354040283529160200191610e72565b820191906000526020600020905b815481529060010190602001808311610e5557829003601f168201915b50505050508152602001600186604051610e8c919061403a565b9081526040805160209281900383019020600401546001600160a01b031683529082018690528051910190600190610ec590889061403a565b9081526040519081900360200190206006015460ff166003811115610eec57610eec613794565b815250915050610925565b604051806101000160405280600186604051610f13919061403a565b9081526040519081900360200190208054610f2d90614000565b80601f0160208091040260200160405190810160405280929190818152602001828054610f5990614000565b8015610fa65780601f10610f7b57610100808354040283529160200191610fa6565b820191906000526020600020905b815481529060010190602001808311610f8957829003601f168201915b50505050508152602001600186604051610fc0919061403a565b908152602001604051809103902060010160009054906101000a90046001600160a01b03166001600160a01b03168152602001600186604051611003919061403a565b9081526040519081900360200190206001015460ff600160a01b90910416600281111561103257611032613794565b815260200185815260200160018660405161104d919061403a565b9081526020016040518091039020600301805461106990614000565b80601f016020809104026020016040519081016040528092919081815260200182805461109590614000565b80156110e25780601f106110b7576101008083540402835291602001916110e2565b820191906000526020600020905b8154815290600101906020018083116110c557829003601f168201915b505050505081526020016001866040516110fc919061403a565b908152602001604051809103902060040160009054906101000a90046001600160a01b03166001600160a01b0316815260200160008152602001600186604051610ec5919061403a565b5092915050565b60006111576129dc565b60006001600160a01b0316600187604051611172919061403a565b908152604051908190036020019020600101546001600160a01b0316146111c757856040517f67ab23440000000000000000000000000000000000000000000000000000000081526004016106329190614056565b6111d18684612a39565b6002866040516111e1919061403a565b9081526040805160209281900383019020600360008181529190935220015460ff161561128557611213866003612b59565b6112855760405162461bcd60e51b815260206004820152603c60248201527f436f6e747261637420646f6573206e6f742068617665207065726d697373696f60448201527f6e20746f20696e74657261637420776974682074686520746f6b656e000000006064820152608401610632565b6040518061010001604052808a8152602001896001600160a01b031681526020018860028111156112b8576112b8613794565b8152602001878152602001868152602001856001600160a01b03168152602001600081526020018360038111156112f1576112f1613794565b815250600187604051611304919061403a565b9081526040519081900360200190208151819061132190826140e0565b5060208201516001820180546001600160a01b0390921673ffffffffffffffffffffffffffffffffffffffff1983168117825560408501519274ffffffffffffffffffffffffffffffffffffffffff191617600160a01b83600281111561138a5761138a613794565b0217905550606082015160028201906113a390826140e0565b50608082015160038201906113b890826140e0565b5060a082015160048201805473ffffffffffffffffffffffffffffffffffffffff19166001600160a01b0390921691909117905560c0820151600582015560e082015160068201805460ff1916600183600381111561141957611419613794565b021790555050600480546001810182556000919091527f8a35acfbc15ff81a39ae7d344fd709f28e8600b4aa8c65c6b64bfe7fe36bd19b01905061145d87826140e0565b508560405161146c919061403a565b60405180910390207f1455a30f034090309f76768ab435a6bd3c547427fc31dbe48477cfb5b9f47dda8a8a8a886040516114a994939291906141a0565b60405180910390a250600198975050505050505050565b60006114ca6129dc565b60006001600160a01b03166001856040516114e5919061403a565b908152604051908190036020019020600101546001600160a01b031603611521578360405163c0bab25f60e01b81526004016106329190614056565b600082116115715760405162461bcd60e51b815260206004820152601760248201527f496e76616c6964206173736574206174747269627574650000000000000000006044820152606401610632565b6000600185604051611583919061403a565b90815260405190819003602001902060019081015460ff600160a01b9091041691508160028111156115b7576115b7613794565b036116c257826001866040516115cd919061403a565b908152602001604051809103902060050154101561162d5760405162461bcd60e51b815260206004820181905260248201527f61737369676e206173736574206173736574206973206e6f74206c6f636b65646044820152606401610632565b61163a8560028587612b6f565b6116865760405162461bcd60e51b815260206004820152601860248201527f61737369676e2061737365742063616c6c206661696c656400000000000000006044820152606401610632565b82600186604051611697919061403a565b908152602001604051809103902060050160008282546116b791906141e4565b909155506118b99050565b60028160028111156116d6576116d6613794565b0361189e5760006001866040516116ed919061403a565b9081526020016040518091039020600501541161174c5760405162461bcd60e51b815260206004820181905260248201527f41737369676e206e6674202d206173736574206973206e6f74206c6f636b65646044820152606401610632565b60038560405161175c919061403a565b908152604080519182900360209081019092206000868152925290205460ff1615156001146117cd5760405162461bcd60e51b815260206004820181905260248201527f556e697175652044657363726970746f7220646f6573206e6f742065786973746044820152606401610632565b6117da8560028587612b6f565b6118265760405162461bcd60e51b815260206004820152601660248201527f61737369676e206e66742063616c6c206661696c6564000000000000000000006044820152606401610632565b60018086604051611837919061403a565b9081526020016040518091039020600501600082825461185791906141e4565b925050819055506000600386604051611870919061403a565b9081526040805160209281900383019020600087815292529020805460ff19169115159190911790556118b9565b8460405163c16fc3ad60e01b81526004016106329190614056565b846040516118c7919061403a565b604080519182900382206001600160a01b038716835260208301869052917f0b3112bdbedc0251766a323a5c6ad4df77174bbc08bd61b944815ad9efe8d54c910160405180910390a2506001949350505050565b60606004805480602002602001604051908101604052809291908181526020016000905b828210156119eb57838290600052602060002001805461195e90614000565b80601f016020809104026020016040519081016040528092919081815260200182805461198a90614000565b80156119d75780601f106119ac576101008083540402835291602001916119d7565b820191906000526020600020905b8154815290600101906020018083116119ba57829003601f168201915b50505050508152602001906001019061193f565b50505050905090565b6119fc6129dc565b611a066000612e8b565b565b6000611a126129dc565b60006001600160a01b0316600183604051611a2d919061403a565b908152604051908190036020019020600101546001600160a01b031603611a69578160405163c0bab25f60e01b81526004016106329190614056565b6000600183604051611a7b919061403a565b9081526020016040518091039020600501541115611ac757816040517fb7d2c10a0000000000000000000000000000000000000000000000000000000081526004016106329190614056565b611b79600183604051611ada919061403a565b90815260200160405180910390206002018054611af690614000565b80601f0160208091040260200160405190810160405280929190818152602001828054611b2290614000565b8015611b6f5780601f10611b4457610100808354040283529160200191611b6f565b820191906000526020600020905b815481529060010190602001808311611b5257829003601f168201915b5050505050612ee8565b600182604051611b89919061403a565b9081526040519081900360200190206000611ba48282613422565b60018201805474ffffffffffffffffffffffffffffffffffffffffff19169055611bd2600283016000613422565b611be0600383016000613422565b5060048101805473ffffffffffffffffffffffffffffffffffffffff1916905560006005820155600601805460ff19169055604051611c2090839061403a565b604051908190038120907f3855d31914452a5e7361730662e60834555d7cb26d380140894d85fd0d13b85490600090a25060015b919050565b6000611c636129dc565b60006001600160a01b0316600184604051611c7e919061403a565b908152604051908190036020019020600101546001600160a01b031603611cba578260405163c0bab25f60e01b81526004016106329190614056565b60008211611d0a5760405162461bcd60e51b815260206004820152601760248201527f496e76616c6964206173736574206174747269627574650000000000000000006044820152606401610632565b6000600184604051611d1c919061403a565b90815260405190819003602001902060019081015460ff600160a01b909104169150816002811115611d5057611d50613794565b03611e5a5782600185604051611d66919061403a565b9081526020016040518091039020600501541015611dc65760405162461bcd60e51b815260206004820152601e60248201527f6275726e206173736574206173736574206973206e6f74206c6f636b656400006044820152606401610632565b611dd284600185612a22565b611e1e5760405162461bcd60e51b815260206004820152601660248201527f6275726e2061737365742063616c6c206661696c6564000000000000000000006044820152606401610632565b82600185604051611e2f919061403a565b90815260200160405180910390206005016000828254611e4f91906141e4565b909155506120579050565b6002816002811115611e6e57611e6e613794565b036108bb576000600185604051611e85919061403a565b90815260200160405180910390206005015411611f0a5760405162461bcd60e51b815260206004820152602360248201527f547279696e6720746f206275726e20616e20756e6163636f756e74656420417360448201527f73657400000000000000000000000000000000000000000000000000000000006064820152608401610632565b600384604051611f1a919061403a565b908152604080519182900360209081019092206000868152925290205460ff161515600114611f8b5760405162461bcd60e51b815260206004820181905260248201527f556e697175652044657363726970746f7220646f6573206e6f742065786973746044820152606401610632565b611f9784600185612a22565b611fe35760405162461bcd60e51b815260206004820152601660248201527f6275726e2061737365742063616c6c206661696c6564000000000000000000006044820152606401610632565b60018085604051611ff4919061403a565b9081526020016040518091039020600501600082825461201491906141e4565b92505081905550600060038560405161202d919061403a565b9081526040805160209281900383019020600087815292529020805460ff19169115159190911790555b83604051612065919061403a565b604051908190038120848252907fa0237080cf48d9e1fbb9ef1f82e33b11170d047b2b540a73b457d0916d53ee9990602001610917565b6120e060408051610100810182526060808252600060208301819052928201839052808201819052608082015260a0810182905260c081018290529060e082015290565b61092582600061092b565b60006120f56129dc565b60006001600160a01b0316600184604051612110919061403a565b908152604051908190036020019020600101546001600160a01b03160361214c578260405163c0bab25f60e01b81526004016106329190614056565b6000821161219c5760405162461bcd60e51b815260206004820152601760248201527f496e76616c6964206173736574206174747269627574650000000000000000006044820152606401610632565b60006001846040516121ae919061403a565b90815260405190819003602001902060019081015460ff600160a01b9091041691508160028111156121e2576121e2613794565b0361230057826001856040516121f8919061403a565b90815260200160405180910390206005015410156122465783836040517fed579e600000000000000000000000000000000000000000000000000000000081526004016106329291906141f7565b61225284600585612a22565b6122c45760405162461bcd60e51b815260206004820152602160248201527f556e6c6f636b2066756e6769626c652061737365742063616c6c206661696c6560448201527f64000000000000000000000000000000000000000000000000000000000000006064820152608401610632565b826001856040516122d5919061403a565b908152602001604051809103902060050160008282546122f591906141e4565b909155506125239050565b600281600281111561231457612314613794565b036108bb57600384604051612329919061403a565b908152604080519182900360209081019092206000868152925290205460ff16151560011461239a5760405162461bcd60e51b815260206004820152601060248201527f546f6b656e204e6f74204c6f636b6564000000000000000000000000000000006044820152606401610632565b60006001856040516123ac919061403a565b908152602001604051809103902060050154116124315760405162461bcd60e51b815260206004820152603360248201527f547279696e6720746f20556e6c6f636b20616e2061737365742074686174206960448201527f73206e6f74206163636f756e74656420666f72000000000000000000000000006064820152608401610632565b61243d84600585612a22565b6124af5760405162461bcd60e51b815260206004820152602560248201527f556e6c6f636b206e6f6e2066756e6769626c652061737365742063616c6c206660448201527f61696c65640000000000000000000000000000000000000000000000000000006064820152608401610632565b600180856040516124c0919061403a565b908152602001604051809103902060050160008282546124e091906141e4565b9250508190555060006003856040516124f9919061403a565b9081526040805160209281900383019020600087815292529020805460ff19169115159190911790555b83604051612531919061403a565b604051908190038120848252907f7b3c894115251262b174b7aeab24a57e00bc2e8853d1ef2f57a217edaa69c06e90602001610917565b60006125726129dc565b3063433f60ac89898989898960006040519080825280602002602001820160405280156125dc57816020015b6125c96040805160808101909152806000815260606020820181905260408201819052600091015290565b81526020019060019003908161259e5790505b508a6040518963ffffffff1660e01b8152600401612601989796959493929190614219565b6020604051808303816000875af1158015612620573d6000803e3d6000fd5b505050506040513d601f19601f8201168201806040525081019061264491906143ba565b98975050505050505050565b600061265a6129dc565b60006001600160a01b0316600184604051612675919061403a565b908152604051908190036020019020600101546001600160a01b0316036126b1578260405163c0bab25f60e01b81526004016106329190614056565b600082116127015760405162461bcd60e51b815260206004820152601760248201527f496e76616c6964206173736574206174747269627574650000000000000000006044820152606401610632565b6000600184604051612713919061403a565b90815260405190819003602001902060019081015460ff600160a01b90910416915081600281111561274757612747613794565b036127e05761275884600485612a22565b6127a45760405162461bcd60e51b815260206004820152601160248201527f546f6b656e204c6f636b204661696c65640000000000000000000000000000006044820152606401610632565b826001856040516127b5919061403a565b908152602001604051809103902060050160008282546127d5919061407f565b909155506129409050565b60028160028111156127f4576127f4613794565b036108bb57600384604051612809919061403a565b90815260408051602092819003830190206000868152925290205460ff16156128745760405162461bcd60e51b815260206004820152601460248201527f546f6b656e20416c7265616479204c6f636b65640000000000000000000000006044820152606401610632565b61288084600485612a22565b6128cc5760405162461bcd60e51b815260206004820152601160248201527f546f6b656e204c6f636b204661696c65640000000000000000000000000000006044820152606401610632565b600180856040516128dd919061403a565b908152602001604051809103902060050160008282546128fd919061407f565b925050819055506001600385604051612916919061403a565b9081526040805160209281900383019020600087815292529020805460ff19169115159190911790555b8360405161294e919061403a565b604051908190038120848252907fc480ef4e831b2ca5eb0b2f95c6564d9a56af5b3fe2383393008e3f1708dc979790602001610917565b61298d6129dc565b6001600160a01b0381166129d0576040517f1e4fbdf700000000000000000000000000000000000000000000000000000000815260006004820152602401610632565b6129d981612e8b565b50565b6000546001600160a01b03163314611a06576040517f118cdaa7000000000000000000000000000000000000000000000000000000008152336004820152602401610632565b6000612a318484846000612b6f565b949350505050565b60005b8151811015612b5457818181518110612a5757612a576143d7565b6020026020010151600284604051612a6f919061403a565b90815260200160405180910390206000848481518110612a9157612a916143d7565b6020026020010151600001516006811115612aae57612aae613794565b6006811115612abf57612abf613794565b8152602081019190915260400160002081518154829060ff19166001836006811115612aed57612aed613794565b02179055506020828101518051612b0a926001850192019061345c565b5060408201518051612b269160028401916020909101906134b2565b50606091909101516003909101805460ff191691151591909117905580612b4c816143ed565b915050612a3c565b505050565b6000612b688383600080612b6f565b9392505050565b6000600285604051612b81919061403a565b90815260200160405180910390206000856006811115612ba357612ba3613794565b6006811115612bb457612bb4613794565b815260208101919091526040016000206003015460ff16612bd757506000612a31565b60005b600286604051612bea919061403a565b90815260200160405180910390206000866006811115612c0c57612c0c613794565b6006811115612c1d57612c1d613794565b8152602081019190915260400160002060010154811015612e7f576000600287604051612c4a919061403a565b90815260200160405180910390206000876006811115612c6c57612c6c613794565b6006811115612c7d57612c7d613794565b81526020019081526020016000206001018281548110612c9f57612c9f6143d7565b90600052602060002001604051602001612cb99190614406565b6040516020818303038152906040528051906020012090506000612dd582612dd060028b604051612cea919061403a565b908152602001604051809103902060008b6006811115612d0c57612d0c613794565b6006811115612d1d57612d1d613794565b81526020019081526020016000206002018681548110612d3f57612d3f6143d7565b90600052602060002001805480602002602001604051908101604052809291908181526020018280548015612dc357602002820191906000526020600020906000905b82829054906101000a900460ff166007811115612da157612da1613794565b815260206001928301818104948501949093039092029101808411612d825790505b50505050508b898b613046565b613363565b90506000600189604051612de9919061403a565b908152604051908190036020018120600101546001600160a01b031690612e1190849061403a565b6000604051808303816000865af19150503d8060008114612e4e576040519150601f19603f3d011682016040523d82523d6000602084013e612e53565b606091505b5050905080612e69576000945050505050612a31565b5050508080612e77906143ed565b915050612bda565b50600195945050505050565b600080546001600160a01b0383811673ffffffffffffffffffffffffffffffffffffffff19831681178455604051919092169283917f8be0079c531659141344cd1fd0a4f28419497f9722a3daafe3b4186f6b6457e09190a35050565b60005b60045481101561304257612fa460048281548110612f0b57612f0b6143d7565b906000526020600020018054612f2090614000565b80601f0160208091040260200160405190810160405280929190818152602001828054612f4c90614000565b8015612f995780601f10612f6e57610100808354040283529160200191612f99565b820191906000526020600020905b815481529060010190602001808311612f7c57829003601f168201915b5050505050836133fd565b156130305760048054612fb9906001906141e4565b81548110612fc957612fc96143d7565b9060005260206000200160048281548110612fe657612fe66143d7565b906000526020600020019081612ffc919061447c565b50600480548061300e5761300e614557565b60019003818190600052602060002001600061302a9190613422565b90555050565b8061303a816143ed565b915050612eeb565b5050565b60606000855167ffffffffffffffff8111156130645761306461362f565b60405190808252806020026020018201604052801561309757816020015b60608152602001906001900390816130825790505b50905060005b86518110156133595760058782815181106130ba576130ba6143d7565b602002602001015160078111156130d3576130d3613794565b036131155760408051306020820152015b604051602081830303815290604052828281518110613105576131056143d7565b6020026020010181905250613347565b6002878281518110613129576131296143d7565b6020026020010151600781111561314257613142613794565b0361315857856040516020016130e49190614056565b600487828151811061316c5761316c6143d7565b6020026020010151600781111561318557613185613794565b0361319b576040805160208101869052016130e4565b60038782815181106131af576131af6143d7565b602002602001015160078111156131c8576131c8613794565b03613206576001866040516131dd919061403a565b908152604080519182900360209081018320600401546001600160a01b031690830152016130e4565b600087828151811061321a5761321a6143d7565b6020026020010151600781111561323357613233613794565b0361327157600186604051613248919061403a565b908152604080519182900360209081018320600101546001600160a01b031690830152016130e4565b6006878281518110613285576132856143d7565b6020026020010151600781111561329e5761329e613794565b036132bc57604080516001600160a01b0387166020820152016130e4565b60078782815181106132d0576132d06143d7565b602002602001015160078111156132e9576132e9613794565b036132ff576040805160208101869052016130e4565b60405162461bcd60e51b815260206004820152601660248201527f5661726961626c65206e6f7420737570706f72746564000000000000000000006044820152606401610632565b80613351816143ed565b91505061309d565b5095945050505050565b604080517fffffffff000000000000000000000000000000000000000000000000000000008416602082015281516004818303018152602490910190915260005b825181101561114657818382815181106133c0576133c06143d7565b60200260200101516040516020016133d992919061456d565b604051602081830303815290604052915080806133f5906143ed565b9150506133a4565b600081518351148015612b685750508051602091820120825192909101919091201490565b50805461342e90614000565b6000825580601f1061343e575050565b601f0160209004906000526020600020908101906129d9919061350b565b8280548282559060005260206000209081019282156134a2579160200282015b828111156134a2578251829061349290826140e0565b509160200191906001019061347c565b506134ae929150613520565b5090565b8280548282559060005260206000209081019282156134ff579160200282015b828111156134ff57825180516134ef91849160209091019061353d565b50916020019190600101906134d2565b506134ae9291506135ed565b5b808211156134ae576000815560010161350c565b808211156134ae5760006135348282613422565b50600101613520565b82805482825590600052602060002090601f016020900481019282156135e15791602002820160005b838211156135b257835183826101000a81548160ff0219169083600781111561359157613591613794565b02179055509260200192600101602081600001049283019260010302613566565b80156135df5782816101000a81549060ff02191690556001016020816000010492830192600103026135b2565b505b506134ae92915061350b565b808211156134ae576000613601828261360a565b506001016135ed565b50805460008255601f0160209004906000526020600020908101906129d9919061350b565b634e487b7160e01b600052604160045260246000fd5b6040516080810167ffffffffffffffff811182821017156136685761366861362f565b60405290565b604051601f8201601f1916810167ffffffffffffffff811182821017156136975761369761362f565b604052919050565b600082601f8301126136b057600080fd5b813567ffffffffffffffff8111156136ca576136ca61362f565b6136dd601f8201601f191660200161366e565b8181528460208386010111156136f257600080fd5b816020850160208301376000918101602001919091529392505050565b60006020828403121561372157600080fd5b813567ffffffffffffffff81111561373857600080fd5b612a318482850161369f565b60005b8381101561375f578181015183820152602001613747565b50506000910152565b60008151808452613780816020860160208601613744565b601f01601f19169290920160200192915050565b634e487b7160e01b600052602160045260246000fd5b600381106137ba576137ba613794565b9052565b600481106137ba576137ba613794565b60006101008083526137e28184018c613768565b90506001600160a01b03808b166020850152613801604085018b6137aa565b8382036060850152613813828a613768565b915083820360808501526138278289613768565b925080871660a085015250508360c083015261384660e08301846137be565b9998505050505050505050565b6000806040838503121561386657600080fd5b823567ffffffffffffffff81111561387d57600080fd5b6138898582860161369f565b95602094909401359450505050565b80356001600160a01b0381168114611c5457600080fd5b6000806000806000608086880312156138c757600080fd5b6138d086613898565b94506138de60208701613898565b935060408601359250606086013567ffffffffffffffff8082111561390257600080fd5b818801915088601f83011261391657600080fd5b81358181111561392557600080fd5b89602082850101111561393757600080fd5b9699959850939650602001949392505050565b6020815260008251610100806020850152613969610120850183613768565b9150602085015161398560408601826001600160a01b03169052565b50604085015161399860608601826137aa565b506060850151601f19808685030160808701526139b58483613768565b935060808701519150808685030160a0870152506139d38382613768565b92505060a08501516139f060c08601826001600160a01b03169052565b5060c085015160e085015260e0850151613a0c828601826137be565b5090949350505050565b803560038110611c5457600080fd5b600067ffffffffffffffff821115613a3f57613a3f61362f565b5060051b60200190565b803560078110611c5457600080fd5b600082601f830112613a6957600080fd5b81356020613a7e613a7983613a25565b61366e565b828152600592831b8501820192828201919087851115613a9d57600080fd5b8387015b85811015613b4257803567ffffffffffffffff811115613ac15760008081fd5b8801603f81018a13613ad35760008081fd5b858101356040613ae5613a7983613a25565b82815291851b8301810191888101908d841115613b025760008081fd5b938201935b83851015613b31578435925060088310613b215760008081fd5b8282529389019390890190613b07565b885250505093850193508401613aa1565b5090979650505050505050565b80151581146129d957600080fd5b8035611c5481613b4f565b600082601f830112613b7957600080fd5b613b86613a798335613a25565b82358082526020808301929160051b85010185811115613ba557600080fd5b602085015b81811015613cd65767ffffffffffffffff8082351115613bc957600080fd5b813587016080818a03601f19011215613be157600080fd5b613be9613645565b613bf560208301613a49565b8152604082013583811115613c0957600080fd5b8201603f81018b13613c1a57600080fd5b6020810135613c2b613a7982613a25565b81815260059190911b82016040019060208101908d831115613c4c57600080fd5b604084015b83811015613c85578781351115613c6757600080fd5b613c778f6040833588010161369f565b835260209283019201613c51565b506020850152505050606082013583811115613ca057600080fd5b613caf8b602083860101613a58565b604083015250613cc160808301613b5d565b60608201528652505060209384019301613baa565b509095945050505050565b803560048110611c5457600080fd5b600080600080600080600080610100898b031215613d0d57600080fd5b883567ffffffffffffffff80821115613d2557600080fd5b613d318c838d0161369f565b9950613d3f60208c01613898565b9850613d4d60408c01613a16565b975060608b0135915080821115613d6357600080fd5b613d6f8c838d0161369f565b965060808b0135915080821115613d8557600080fd5b613d918c838d0161369f565b9550613d9f60a08c01613898565b945060c08b0135915080821115613db557600080fd5b50613dc28b828c01613b68565b925050613dd160e08a01613ce1565b90509295985092959890939650565b600080600060608486031215613df557600080fd5b833567ffffffffffffffff811115613e0c57600080fd5b613e188682870161369f565b935050613e2760208501613898565b9150604084013590509250925092565b600081518084526020808501808196508360051b8101915082860160005b85811015613e7f578284038952613e6d848351613768565b98850198935090840190600101613e55565b5091979650505050505050565b602081526000612b686020830184613e37565b600080600080600080600060e0888a031215613eba57600080fd5b873567ffffffffffffffff80821115613ed257600080fd5b613ede8b838c0161369f565b9850613eec60208b01613898565b9750613efa60408b01613a16565b965060608a0135915080821115613f1057600080fd5b613f1c8b838c0161369f565b955060808a0135915080821115613f3257600080fd5b50613f3f8a828b0161369f565b935050613f4e60a08901613898565b9150613f5c60c08901613ce1565b905092959891949750929550565b60008060408385031215613f7d57600080fd5b823567ffffffffffffffff811115613f9457600080fd5b613fa08582860161369f565b925050613faf60208401613a49565b90509250929050565b600781106137ba576137ba613794565b60408101613fd68285613fb8565b82151560208301529392505050565b600060208284031215613ff757600080fd5b612b6882613898565b600181811c9082168061401457607f821691505b60208210810361403457634e487b7160e01b600052602260045260246000fd5b50919050565b6000825161404c818460208701613744565b9190910192915050565b602081526000612b686020830184613768565b634e487b7160e01b600052601160045260246000fd5b8082018082111561092557610925614069565b601f821115612b5457600081815260208120601f850160051c810160208610156140b95750805b601f850160051c820191505b818110156140d8578281556001016140c5565b505050505050565b815167ffffffffffffffff8111156140fa576140fa61362f565b61410e816141088454614000565b84614092565b602080601f831160018114614143576000841561412b5750858301515b600019600386901b1c1916600185901b1785556140d8565b600085815260208120601f198616915b8281101561417257888601518255948401946001909101908401614153565b50858210156141905787850151600019600388901b60f8161c191681555b5050505050600190811b01905550565b6080815260006141b36080830187613768565b90506001600160a01b0380861660208401526141d260408401866137aa565b80841660608401525095945050505050565b8181038181111561092557610925614069565b60408152600061420a6040830185613768565b90508260208301529392505050565b6101008152600061422e61010083018b613768565b6001600160a01b03808b16602085015261424b604085018b6137aa565b838203606085015261425d828a613768565b915083820360808501526142718289613768565b915080871660a08501525082810360c084015280855180835260208301915060208160051b8401016020880160005b838110156143a457601f198087850301865282516142bf858251613fb8565b6020810151608060208701526142d86080870182613e37565b90506040820151868203604088015281815180845260208401915060208160051b85010160208401935060005b8281101561436d57858203880184528451805180845260209182019184019060005b818110156143555783516008811061434157614341613794565b835260209384019390920191600101614327565b50506020968701969590950194925050600101614305565b506060860151965061438360608b018815159052565b809950505050505050506020820191506020850194506001810190506142a0565b50508094505050505061384660e08301846137be565b6000602082840312156143cc57600080fd5b8151612b6881613b4f565b634e487b7160e01b600052603260045260246000fd5b6000600182016143ff576143ff614069565b5060010190565b600080835461441481614000565b6001828116801561442c576001811461444157614470565b60ff1984168752821515830287019450614470565b8760005260208060002060005b858110156144675781548a82015290840190820161444e565b50505082870194505b50929695505050505050565b818103614487575050565b6144918254614000565b67ffffffffffffffff8111156144a9576144a961362f565b6144b7816141088454614000565b6000601f8211600181146144eb57600083156144d35750848201545b600019600385901b1c1916600184901b178455614550565b600085815260209020601f19841690600086815260209020845b838110156145255782860154825560019586019590910190602001614505565b50858310156145435781850154600019600388901b60f8161c191681555b50505060018360011b0184555b5050505050565b634e487b7160e01b600052603160045260246000fd5b6000835161457f818460208801613744565b835190830190614593818360208801613744565b0194935050505056fea2646970667358221220cc545097d62ab752192a515a53206f325e79a54a4fe781e2769cb76ecb844be064736f6c63430008140033","linkReferences":{}},"methodIdentifiers":{"NFT_IDs(string,uint256)":"19d09bc9","assign(string,address,uint256)":"4534ba17","bridge_address()":"1255c189","burn(string,uint256)":"b48272cc","getAllAssetsIDs()":"5137b8a7","getToken(string)":"c1733f68","getToken(string,uint256)":"324980b5","lock(string,uint256)":"e1efb596","mint(string,uint256)":"056b01ce","onERC721Received(address,address,uint256,bytes)":"150b7a02","owner()":"8da5cb5b","renounceOwnership()":"715018a6","tokens(string)":"04c2320b","tokensInteractions(string,uint8)":"ea8f547f","transferOwnership(address)":"f2fde38b","unlock(string,uint256)":"d9cf884c","unwrap(string)":"a1bc17c5","wrap(string,address,uint8,string,string,address,(uint8,string[],uint8[][],bool)[],uint8)":"433f60ac","wrap(string,address,uint8,string,string,address,uint8)":"dbf15639"},"id":35}