{"abi":[{"type":"constructor","inputs":[{"name":"_bridge_address","type":"address","internalType":"address"}],"stateMutability":"nonpayable"},{"type":"function","name":"assign","inputs":[{"name":"tokenId","type":"string","internalType":"string"},{"name":"receiver_account","type":"address","internalType":"address"},{"name":"assetAttribute","type":"uint256","internalType":"uint256"}],"outputs":[{"name":"success","type":"bool","internalType":"bool"}],"stateMutability":"nonpayable"},{"type":"function","name":"bridge_address","inputs":[],"outputs":[{"name":"","type":"address","internalType":"address"}],"stateMutability":"view"},{"type":"function","name":"burn","inputs":[{"name":"tokenId","type":"string","internalType":"string"},{"name":"assetAttribute","type":"uint256","internalType":"uint256"}],"outputs":[{"name":"success","type":"bool","internalType":"bool"}],"stateMutability":"nonpayable"},{"type":"function","name":"getAllAssetsIDs","inputs":[],"outputs":[{"name":"","type":"string[]","internalType":"string[]"}],"stateMutability":"view"},{"type":"function","name":"getToken","inputs":[{"name":"tokenId","type":"string","internalType":"string"}],"outputs":[{"name":"token","type":"tuple","internalType":"struct Token","components":[{"name":"contractName","type":"string","internalType":"string"},{"name":"contractAddress","type":"address","internalType":"address"},{"name":"tokenType","type":"uint8","internalType":"enum TokenType"},{"name":"tokenId","type":"string","internalType":"string"},{"name":"referenceId","type":"string","internalType":"string"},{"name":"owner","type":"address","internalType":"address"},{"name":"tokenAttribute","type":"uint256","internalType":"uint256"}]}],"stateMutability":"view"},{"type":"function","name":"lock","inputs":[{"name":"tokenId","type":"string","internalType":"string"},{"name":"assetAttribute","type":"uint256","internalType":"uint256"}],"outputs":[{"name":"success","type":"bool","internalType":"bool"}],"stateMutability":"nonpayable"},{"type":"function","name":"mint","inputs":[{"name":"tokenId","type":"string","internalType":"string"},{"name":"assetAttribute","type":"uint256","internalType":"uint256"}],"outputs":[{"name":"success","type":"bool","internalType":"bool"}],"stateMutability":"nonpayable"},{"type":"function","name":"onERC721Received","inputs":[{"name":"operator","type":"address","internalType":"address"},{"name":"from","type":"address","internalType":"address"},{"name":"tokenId","type":"uint256","internalType":"uint256"},{"name":"data","type":"bytes","internalType":"bytes"}],"outputs":[{"name":"","type":"bytes4","internalType":"bytes4"}],"stateMutability":"nonpayable"},{"type":"function","name":"owner","inputs":[],"outputs":[{"name":"","type":"address","internalType":"address"}],"stateMutability":"view"},{"type":"function","name":"renounceOwnership","inputs":[],"outputs":[],"stateMutability":"nonpayable"},{"type":"function","name":"tokens","inputs":[{"name":"","type":"string","internalType":"string"}],"outputs":[{"name":"contractName","type":"string","internalType":"string"},{"name":"contractAddress","type":"address","internalType":"address"},{"name":"tokenType","type":"uint8","internalType":"enum TokenType"},{"name":"tokenId","type":"string","internalType":"string"},{"name":"referenceId","type":"string","internalType":"string"},{"name":"owner","type":"address","internalType":"address"},{"name":"tokenAttribute","type":"uint256","internalType":"uint256"}],"stateMutability":"view"},{"type":"function","name":"tokensInteractions","inputs":[{"name":"","type":"string","internalType":"string"},{"name":"","type":"uint8","internalType":"enum InteractionType"}],"outputs":[{"name":"interactionType","type":"uint8","internalType":"enum InteractionType"},{"name":"available","type":"bool","internalType":"bool"}],"stateMutability":"view"},{"type":"function","name":"transferOwnership","inputs":[{"name":"newOwner","type":"address","internalType":"address"}],"outputs":[],"stateMutability":"nonpayable"},{"type":"function","name":"unlock","inputs":[{"name":"tokenId","type":"string","internalType":"string"},{"name":"assetAttribute","type":"uint256","internalType":"uint256"}],"outputs":[{"name":"success","type":"bool","internalType":"bool"}],"stateMutability":"nonpayable"},{"type":"function","name":"unwrap","inputs":[{"name":"tokenId","type":"string","internalType":"string"}],"outputs":[{"name":"success","type":"bool","internalType":"bool"}],"stateMutability":"nonpayable"},{"type":"function","name":"wrap","inputs":[{"name":"contractName","type":"string","internalType":"string"},{"name":"contractAddress","type":"address","internalType":"address"},{"name":"tokenType","type":"uint8","internalType":"enum TokenType"},{"name":"tokenId","type":"string","internalType":"string"},{"name":"referenceId","type":"string","internalType":"string"},{"name":"owner","type":"address","internalType":"address"}],"outputs":[{"name":"wrapSuccess","type":"bool","internalType":"bool"}],"stateMutability":"nonpayable"},{"type":"function","name":"wrap","inputs":[{"name":"contractName","type":"string","internalType":"string"},{"name":"contractAddress","type":"address","internalType":"address"},{"name":"tokenType","type":"uint8","internalType":"enum TokenType"},{"name":"tokenId","type":"string","internalType":"string"},{"name":"referenceId","type":"string","internalType":"string"},{"name":"owner","type":"address","internalType":"address"},{"name":"interactions","type":"tuple[]","internalType":"struct InteractionSignature[]","components":[{"name":"interactionType","type":"uint8","internalType":"enum InteractionType"},{"name":"functionsSignature","type":"string[]","internalType":"string[]"},{"name":"variables","type":"uint8[][]","internalType":"enum VarType[][]"},{"name":"available","type":"bool","internalType":"bool"}]}],"outputs":[{"name":"wrapSuccess","type":"bool","internalType":"bool"}],"stateMutability":"nonpayable"},{"type":"event","name":"Assign","inputs":[{"name":"tokenId","type":"string","indexed":true,"internalType":"string"},{"name":"receiver_account","type":"address","indexed":false,"internalType":"address"},{"name":"tokenAttribute","type":"uint256","indexed":false,"internalType":"uint256"}],"anonymous":false},{"type":"event","name":"Burn","inputs":[{"name":"tokenId","type":"string","indexed":true,"internalType":"string"},{"name":"tokenAttribute","type":"uint256","indexed":false,"internalType":"uint256"}],"anonymous":false},{"type":"event","name":"Changed","inputs":[{"name":"id","type":"string","indexed":true,"internalType":"string"},{"name":"value","type":"bytes[]","indexed":false,"internalType":"bytes[]"}],"anonymous":false},{"type":"event","name":"Lock","inputs":[{"name":"tokenId","type":"string","indexed":true,"internalType":"string"},{"name":"tokenAttribute","type":"uint256","indexed":false,"internalType":"uint256"}],"anonymous":false},{"type":"event","name":"Mint","inputs":[{"name":"tokenId","type":"string","indexed":true,"internalType":"string"},{"name":"tokenAttribute","type":"uint256","indexed":false,"internalType":"uint256"}],"anonymous":false},{"type":"event","name":"OwnershipTransferred","inputs":[{"name":"previousOwner","type":"address","indexed":true,"internalType":"address"},{"name":"newOwner","type":"address","indexed":true,"internalType":"address"}],"anonymous":false},{"type":"event","name":"Unlock","inputs":[{"name":"tokenId","type":"string","indexed":true,"internalType":"string"},{"name":"tokenAttribute","type":"uint256","indexed":false,"internalType":"uint256"}],"anonymous":false},{"type":"event","name":"Unwrap","inputs":[{"name":"tokenId","type":"string","indexed":true,"internalType":"string"}],"anonymous":false},{"type":"event","name":"Wrap","inputs":[{"name":"tokenId","type":"string","indexed":true,"internalType":"string"},{"name":"contractName","type":"string","indexed":false,"internalType":"string"},{"name":"contractAddress","type":"address","indexed":false,"internalType":"address"},{"name":"tokenType","type":"uint8","indexed":false,"internalType":"enum TokenType"},{"name":"owner","type":"address","indexed":false,"internalType":"address"}],"anonymous":false},{"type":"error","name":"InsuficientAmountLocked","inputs":[{"name":"tokenId","type":"string","internalType":"string"},{"name":"amount","type":"uint256","internalType":"uint256"}]},{"type":"error","name":"OwnableInvalidOwner","inputs":[{"name":"owner","type":"address","internalType":"address"}]},{"type":"error","name":"OwnableUnauthorizedAccount","inputs":[{"name":"account","type":"address","internalType":"address"}]},{"type":"error","name":"TokenAlreadyWrapped","inputs":[{"name":"tokenId","type":"string","internalType":"string"}]},{"type":"error","name":"TokenLocked","inputs":[{"name":"tokenId","type":"string","internalType":"string"}]},{"type":"error","name":"TokenNotAvailable","inputs":[{"name":"tokenId","type":"string","internalType":"string"}]},{"type":"error","name":"TokenNotLocked","inputs":[{"name":"tokenId","type":"string","internalType":"string"}]},{"type":"error","name":"TokenNotUnlocked","inputs":[{"name":"tokenId","type":"string","internalType":"string"}]},{"type":"error","name":"TokenTypeNotSupported","inputs":[{"name":"tokenId","type":"string","internalType":"string"}]}],"bytecode":{"object":"0x60806040523480156200001157600080fd5b5060405162003fc638038062003fc68339810160408190526200003491620000e6565b806001600160a01b0381166200006457604051631e4fbdf760e01b81526000600482015260240160405180910390fd5b6200006f8162000096565b50600580546001600160a01b0319166001600160a01b039290921691909117905562000118565b600080546001600160a01b038381166001600160a01b0319831681178455604051919092169283917f8be0079c531659141344cd1fd0a4f28419497f9722a3daafe3b4186f6b6457e09190a35050565b600060208284031215620000f957600080fd5b81516001600160a01b03811681146200011157600080fd5b9392505050565b613e9e80620001286000396000f3fe608060405234801561001057600080fd5b506004361061011b5760003560e01c80638da5cb5b116100b2578063d9cf884c11610081578063ea8f547f11610066578063ea8f547f146102c8578063f272660b1461031d578063f2fde38b1461033057600080fd5b8063d9cf884c146102a2578063e1efb596146102b557600080fd5b80638da5cb5b1461024b578063a1bc17c51461025c578063b48272cc1461026f578063c1733f681461028257600080fd5b80634534ba17116100ee5780634534ba17146102065780635137b8a7146102195780636a0876e01461022e578063715018a61461024157600080fd5b806304c2320b14610120578063056b01ce1461014f5780631255c18914610172578063150b7a021461019d575b600080fd5b61013361012e366004612fdb565b610343565b6040516101469796959493929190613086565b60405180910390f35b61016261015d3660046130f4565b61053c565b6040519015158152602001610146565b600554610185906001600160a01b031681565b6040516001600160a01b039091168152602001610146565b6101d56101ab366004613150565b7f150b7a020000000000000000000000000000000000000000000000000000000095945050505050565b6040517fffffffff000000000000000000000000000000000000000000000000000000009091168152602001610146565b6101626102143660046131eb565b6106bf565b6102216109f3565b6040516101469190613297565b61016261023c3660046132c2565b610acc565b610249610bb1565b005b6000546001600160a01b0316610185565b61016261026a366004612fdb565b610bc5565b61016261027d3660046130f4565b610f10565b610295610290366004612fdb565b611271565b604051610146919061337f565b6101626102b03660046130f4565b6114f5565b6101626102c33660046130f4565b611896565b61030f6102d6366004613432565b815160208184018101805160038083529383019583019590952094905292909252600090815260409020805491015460ff918216911682565b604051610146929190613484565b61016261032b36600461374f565b611a9c565b61024961033e36600461382e565b611dce565b805160208183018101805160018252928201919093012091528054819061036990613849565b80601f016020809104026020016040519081016040528092919081815260200182805461039590613849565b80156103e25780601f106103b7576101008083540402835291602001916103e2565b820191906000526020600020905b8154815290600101906020018083116103c557829003601f168201915b50505050600183015460028401805493946001600160a01b03831694600160a01b90930460ff1693509161041590613849565b80601f016020809104026020016040519081016040528092919081815260200182805461044190613849565b801561048e5780601f106104635761010080835404028352916020019161048e565b820191906000526020600020905b81548152906001019060200180831161047157829003601f168201915b5050505050908060030180546104a390613849565b80601f01602080910402602001604051908101604052809291908181526020018280546104cf90613849565b801561051c5780601f106104f15761010080835404028352916020019161051c565b820191906000526020600020905b8154815290600101906020018083116104ff57829003601f168201915b50505050600483015460059093015491926001600160a01b031691905087565b6000610546611e25565b60006001600160a01b03166001846040516105619190613883565b908152604051908190036020019020600101546001600160a01b0316036105a6578260405163c0bab25f60e01b815260040161059d919061389f565b60405180910390fd5b6105c7604051806060016040528060278152602001613def60279139611e6b565b6105e86040518060600160405280602c8152602001613e3d602c9139611e6b565b6105f183611e6b565b6105fd83600084611ec7565b6106495760405162461bcd60e51b815260206004820152601660248201527f6d696e742061737365742063616c6c206661696c656400000000000000000000604482015260640161059d565b8160018460405161065a9190613883565b9081526040519081900360200181206005019190915561067b908490613883565b604051908190038120838252907f0a4e1e5035320483d096cf114513007c4eda3853a4dca806da2d9faec60470a69060200160405180910390a25060015b92915050565b60006106c9611e25565b60006001856040516106db9190613883565b90815260405190819003602001902060019081015460ff600160a01b90910416915081600681111561070f5761070f613060565b148061072c5750600581600681111561072a5761072a613060565b145b156108b857826001866040516107429190613883565b90815260200160405180910390206005015410156107c85760405162461bcd60e51b815260206004820152602760248201527f41737369676e696e67206d6f726520617373657473207468616e2074686f736560448201527f206c6f636b656400000000000000000000000000000000000000000000000000606482015260840161059d565b6107d58560028587611ede565b6108215760405162461bcd60e51b815260206004820152601860248201527f61737369676e2061737365742063616c6c206661696c65640000000000000000604482015260640161059d565b826001866040516108329190613883565b9081526020016040518091039020600501600082825461085291906138c8565b9091555050604051610865908690613883565b604080519182900382206001600160a01b038716835260208301869052917f0b3112bdbedc0251766a323a5c6ad4df77174bbc08bd61b944815ad9efe8d54c910160405180910390a260019150506109ec565b60028160068111156108cc576108cc613060565b14806108e9575060068160068111156108e7576108e7613060565b145b156109ea57826001866040516108ff9190613883565b9081526020016040518091039020600501541461095e5760405162461bcd60e51b815260206004820181905260248201527f41737369676e206e6674202d206173736574206973206e6f74206c6f636b6564604482015260640161059d565b61096b8560028587611ede565b6109b75760405162461bcd60e51b815260206004820152601660248201527f61737369676e206e66742063616c6c206661696c656400000000000000000000604482015260640161059d565b60006001866040516109c99190613883565b90815260405190819003602001812060050191909155610865908690613883565b505b9392505050565b60606004805480602002602001604051908101604052809291908181526020016000905b82821015610ac3578382906000526020600020018054610a3690613849565b80601f0160208091040260200160405190810160405280929190818152602001828054610a6290613849565b8015610aaf5780601f10610a8457610100808354040283529160200191610aaf565b820191906000526020600020905b815481529060010190602001808311610a9257829003601f168201915b505050505081526020019060010190610a17565b50505050905090565b6000610ad6611e25565b3063f272660b8888888888886000604051908082528060200260200182016040528015610b4057816020015b610b2d6040805160808101909152806000815260606020820181905260408201819052600091015290565b815260200190600190039081610b025790505b506040518863ffffffff1660e01b8152600401610b6397969594939291906138db565b6020604051808303816000875af1158015610b82573d6000803e3d6000fd5b505050506040513d601f19601f82011682018060405250810190610ba69190613a82565b979650505050505050565b610bb9611e25565b610bc36000612362565b565b6000610bcf611e25565b60006001600160a01b0316600183604051610bea9190613883565b908152604051908190036020019020600101546001600160a01b031603610c26578160405163c0bab25f60e01b815260040161059d919061389f565b6000600183604051610c389190613883565b9081526040519081900360200190206001015460ff600160a01b9091041690506005816006811115610c6c57610c6c613060565b1480610c8957506001816006811115610c8757610c87613060565b145b15610cd8576000600184604051610ca09190613883565b9081526020016040518091039020600501541115610cd35782604051635be9608560e11b815260040161059d919061389f565b610d86565b6006816006811115610cec57610cec613060565b1480610d0957506002816006811115610d0757610d07613060565b145b15610d5257600183604051610d1e9190613883565b908152602001604051809103902060050154600003610cd35782604051635be9608560e11b815260040161059d919061389f565b826040517f7ab5c90f00000000000000000000000000000000000000000000000000000000815260040161059d919061389f565b610e38600184604051610d999190613883565b90815260200160405180910390206002018054610db590613849565b80601f0160208091040260200160405190810160405280929190818152602001828054610de190613849565b8015610e2e5780601f10610e0357610100808354040283529160200191610e2e565b820191906000526020600020905b815481529060010190602001808311610e1157829003601f168201915b50505050506123bf565b600183604051610e489190613883565b9081526040519081900360200190206000610e638282612cee565b60018201805474ffffffffffffffffffffffffffffffffffffffffff19169055610e91600283016000612cee565b610e9f600383016000612cee565b5060048101805473ffffffffffffffffffffffffffffffffffffffff191690556000600590910155604051610ed5908490613883565b604051908190038120907f3855d31914452a5e7361730662e60834555d7cb26d380140894d85fd0d13b85490600090a260019150505b919050565b6000610f1a611e25565b6000600184604051610f2c9190613883565b90815260405190819003602001902060019081015460ff600160a01b909104169150816006811115610f6057610f60613060565b1480610f7d57506005816006811115610f7b57610f7b613060565b145b156110fa5782600185604051610f939190613883565b90815260200160405180910390206005015410156110195760405162461bcd60e51b815260206004820152602860248201527f4275726e696e67206d6f726520617373657473207468616e206c6f636b65642060448201527f7175616e74697479000000000000000000000000000000000000000000000000606482015260840161059d565b61102584600185611ec7565b6110715760405162461bcd60e51b815260206004820152601660248201527f6275726e2061737365742063616c6c206661696c656400000000000000000000604482015260640161059d565b826001856040516110829190613883565b908152602001604051809103902060050160008282546110a291906138c8565b90915550506040516110b5908590613883565b604051908190038120848252907fa0237080cf48d9e1fbb9ef1f82e33b11170d047b2b540a73b457d0916d53ee99906020015b60405180910390a260019150506106b9565b600281600681111561110e5761110e613060565b148061112b5750600681600681111561112957611129613060565b145b1561126a576001846040516111409190613883565b9081526020016040518091039020600501546000036111a15760405162461bcd60e51b815260206004820152601660248201527f4275726e696e6720756e6d696e74656420617373657400000000000000000000604482015260640161059d565b826001856040516111b29190613883565b908152602001604051809103902060050154146112375760405162461bcd60e51b815260206004820152602c60248201527f4275726e696e67204e4654206661696c65642064756520746f20556e6971756560448201527f4944206d6973736d617463680000000000000000000000000000000000000000606482015260840161059d565b60006001856040516112499190613883565b908152604051908190036020018120600501919091556110b5908590613883565b5092915050565b6040805160e0810182526060808252600060208301819052928201839052808201819052608082015260a0810182905260c08101919091526001826040516112b99190613883565b90815260200160405180910390206040518060e00160405290816000820180546112e290613849565b80601f016020809104026020016040519081016040528092919081815260200182805461130e90613849565b801561135b5780601f106113305761010080835404028352916020019161135b565b820191906000526020600020905b81548152906001019060200180831161133e57829003601f168201915b505050918352505060018201546001600160a01b0381166020830152604090910190600160a01b900460ff16600681111561139857611398613060565b60068111156113a9576113a9613060565b81526020016002820180546113bd90613849565b80601f01602080910402602001604051908101604052809291908181526020018280546113e990613849565b80156114365780601f1061140b57610100808354040283529160200191611436565b820191906000526020600020905b81548152906001019060200180831161141957829003601f168201915b5050505050815260200160038201805461144f90613849565b80601f016020809104026020016040519081016040528092919081815260200182805461147b90613849565b80156114c85780601f1061149d576101008083540402835291602001916114c8565b820191906000526020600020905b8154815290600101906020018083116114ab57829003601f168201915b505050918352505060048201546001600160a01b0316602082015260059091015460409091015292915050565b60006114ff611e25565b60006001846040516115119190613883565b90815260405190819003602001902060019081015460ff600160a01b90910416915081600681111561154557611545613060565b14806115625750600581600681111561156057611560613060565b145b1561169957826001856040516115789190613883565b90815260200160405180910390206005015410156115c65783836040517fed579e6000000000000000000000000000000000000000000000000000000000815260040161059d929190613a9f565b6115d284600585611ec7565b61161e5760405162461bcd60e51b815260206004820152601a60248201527f556e6c6f636b696e6720616d6f756e74206173206661696c6564000000000000604482015260640161059d565b8260018560405161162f9190613883565b9081526020016040518091039020600501600082825461164f91906138c8565b9091555050604051611662908590613883565b604051908190038120848252907f7b3c894115251262b174b7aeab24a57e00bc2e8853d1ef2f57a217edaa69c06e906020016110e8565b60028160068111156116ad576116ad613060565b14806116ca575060068160068111156116c8576116c8613060565b145b15611862576001846040516116df9190613883565b9081526020016040518091039020600501546000036117665760405162461bcd60e51b815260206004820152602c60248201527f547279696e6720746f20556e6c6f636b20616e2061737365742074686174206960448201527f73206e6f74206c6f636b65640000000000000000000000000000000000000000606482015260840161059d565b826001856040516117779190613883565b908152602001604051809103902060050154146117fc5760405162461bcd60e51b815260206004820152603260248201527f556e6c6f636b696e67204e46542063616e6e6f7420626520646f6e652064756560448201527f20746f2077726f6e6720756e6971756549440000000000000000000000000000606482015260840161059d565b61180884600585611ec7565b6118545760405162461bcd60e51b815260206004820152601460248201527f556e6c6f636b696e67204e4654206661696c6564000000000000000000000000604482015260640161059d565b836040516116629190613883565b836040517f58300fe700000000000000000000000000000000000000000000000000000000815260040161059d919061389f565b60006118a0611e25565b60006001600160a01b03166001846040516118bb9190613883565b908152604051908190036020019020600101546001600160a01b0316036118f7578260405163c0bab25f60e01b815260040161059d919061389f565b600061190584600485611ec7565b90508015611a6857600060018560405161191f9190613883565b90815260405190819003602001902060019081015460ff600160a01b90910416915081600681111561195357611953613060565b14806119705750600581600681111561196e5761196e613060565b145b156119fe57836001866040516119869190613883565b908152602001604051809103902060050160008282546119a69190613ac1565b90915550506040516119b9908690613883565b604051908190038120858252907fc480ef4e831b2ca5eb0b2f95c6564d9a56af5b3fe2383393008e3f1708dc97979060200160405180910390a26001925050506106b9565b6002816006811115611a1257611a12613060565b1480611a2f57506006816006811115611a2d57611a2d613060565b145b15611a665783600186604051611a459190613883565b908152604051908190036020018120600501919091556119b9908690613883565b505b836040517f8244096a00000000000000000000000000000000000000000000000000000000815260040161059d919061389f565b6000611aa6611e25565b60006001600160a01b0316600186604051611ac19190613883565b908152604051908190036020019020600101546001600160a01b031614611b1657846040517f67ab234400000000000000000000000000000000000000000000000000000000815260040161059d919061389f565b611b20858361251d565b50600385604051611b319190613883565b9081526040805160209281900383019020600360008181529190935220015460ff1615611bd557611b63856003612643565b611bd55760405162461bcd60e51b815260206004820152603c60248201527f436f6e747261637420646f6573206e6f742068617665207065726d697373696f60448201527f6e20746f20696e74657261637420776974682074686520746f6b656e00000000606482015260840161059d565b6040518060e00160405280898152602001886001600160a01b03168152602001876006811115611c0757611c07613060565b8152602001868152602001858152602001846001600160a01b031681526020016000815250600186604051611c3c9190613883565b90815260405190819003602001902081518190611c599082613b23565b5060208201516001820180546001600160a01b0390921673ffffffffffffffffffffffffffffffffffffffff1983168117825560408501519274ffffffffffffffffffffffffffffffffffffffffff191617600160a01b836006811115611cc257611cc2613060565b021790555060608201516002820190611cdb9082613b23565b5060808201516003820190611cf09082613b23565b5060a08201516004828101805473ffffffffffffffffffffffffffffffffffffffff19166001600160a01b039093169290921790915560c09092015160059091015580546001810182556000919091527f8a35acfbc15ff81a39ae7d344fd709f28e8600b4aa8c65c6b64bfe7fe36bd19b01611d6c8682613b23565b5084604051611d7b9190613883565b60405180910390207f1455a30f034090309f76768ab435a6bd3c547427fc31dbe48477cfb5b9f47dda89898987604051611db89493929190613be3565b60405180910390a2506001979650505050505050565b611dd6611e25565b6001600160a01b038116611e19576040517f1e4fbdf70000000000000000000000000000000000000000000000000000000081526000600482015260240161059d565b611e2281612362565b50565b6000546001600160a01b03163314610bc3576040517f118cdaa700000000000000000000000000000000000000000000000000000000815233600482015260240161059d565b611e2281604051602401611e7f919061389f565b60408051601f198184030181529190526020810180516001600160e01b03167f41304fac00000000000000000000000000000000000000000000000000000000179052612652565b6000611ed68484846000611ede565b949350505050565b6000600385604051611ef09190613883565b90815260200160405180910390206000856006811115611f1257611f12613060565b6006811115611f2357611f23613060565b815260208101919091526040016000206003015460ff16611f6757611f5f604051806060016040528060278152602001613e1660279139611e6b565b506000611ed6565b611f7082612673565b611fae6040518060400160405280600a81526020017f0a636f6e74696e75650a00000000000000000000000000000000000000000000815250611e6b565b60005b600386604051611fc19190613883565b90815260200160405180910390206000866006811115611fe357611fe3613060565b6006811115611ff457611ff4613060565b81526020810191909152604001600020600101548110156123565761210f6003876040516120229190613883565b9081526020016040518091039020600087600681111561204457612044613060565b600681111561205557612055613060565b8152602001908152602001600020600101828154811061207757612077613c29565b90600052602060002001805461208c90613849565b80601f01602080910402602001604051908101604052809291908181526020018280546120b890613849565b80156121055780601f106120da57610100808354040283529160200191612105565b820191906000526020600020905b8154815290600101906020018083116120e857829003601f168201915b5050505050611e6b565b60006003876040516121219190613883565b9081526020016040518091039020600087600681111561214357612143613060565b600681111561215457612154613060565b8152602001908152602001600020600101828154811061217657612176613c29565b906000526020600020016040516020016121909190613c3f565b60405160208183030381529060405280519060200120905060006122ac826122a760038b6040516121c19190613883565b908152602001604051809103902060008b60068111156121e3576121e3613060565b60068111156121f4576121f4613060565b8152602001908152602001600020600201868154811061221657612216613c29565b9060005260206000200180548060200260200160405190810160405280929190818152602001828054801561229a57602002820191906000526020600020906000905b82829054906101000a900460ff16600781111561227857612278613060565b8152602060019283018181049485019490930390920291018084116122595790505b50505050508b898b6126d4565b612bd1565b905060006001896040516122c09190613883565b908152604051908190036020018120600101546001600160a01b0316906122e8908490613883565b6000604051808303816000865af19150503d8060008114612325576040519150601f19603f3d011682016040523d82523d6000602084013e61232a565b606091505b5050905080612340576000945050505050611ed6565b505050808061234e90613cb5565b915050611fb1565b50600195945050505050565b600080546001600160a01b0383811673ffffffffffffffffffffffffffffffffffffffff19831681178455604051919092169283917f8be0079c531659141344cd1fd0a4f28419497f9722a3daafe3b4186f6b6457e09190a35050565b60005b6004548110156125195761247b600482815481106123e2576123e2613c29565b9060005260206000200180546123f790613849565b80601f016020809104026020016040519081016040528092919081815260200182805461242390613849565b80156124705780601f1061244557610100808354040283529160200191612470565b820191906000526020600020905b81548152906001019060200180831161245357829003601f168201915b505050505083612c6b565b156125075760048054612490906001906138c8565b815481106124a0576124a0613c29565b90600052602060002001600482815481106124bd576124bd613c29565b9060005260206000200190816124d39190613cce565b5060048054806124e5576124e5613da9565b6001900381819060005260206000200160006125019190612cee565b90555050565b8061251181613cb5565b9150506123c2565b5050565b6000805b82518110156126395782818151811061253c5761253c613c29565b60200260200101516003856040516125549190613883565b9081526020016040518091039020600085848151811061257657612576613c29565b602002602001015160000151600681111561259357612593613060565b60068111156125a4576125a4613060565b8152602081019190915260400160002081518154829060ff191660018360068111156125d2576125d2613060565b021790555060208281015180516125ef9260018501920190612d28565b506040820151805161260b916002840191602090910190612d7e565b50606091909101516003909101805460ff19169115159190911790558061263181613cb5565b915050612521565b5060019392505050565b60006109ec8383600080611ede565b80516a636f6e736f6c652e6c6f67602083016000808483855afa5050505050565b6040516001600160a01b0382166024820152611e229060440160408051601f198184030181529190526020810180516001600160e01b03167f2c2ecbc200000000000000000000000000000000000000000000000000000000179052612652565b60606000855167ffffffffffffffff8111156126f2576126f2612efb565b60405190808252806020026020018201604052801561272557816020015b60608152602001906001900390816127105790505b50905060005b8651811015612bc757600587828151811061274857612748613c29565b6020026020010151600781111561276157612761613060565b036127ea5761276f81612c90565b6127ad6040518060400160405280600e81526020017f4272696467652061646472657373000000000000000000000000000000000000815250611e6b565b60408051306020820152015b6040516020818303038152906040528282815181106127da576127da613c29565b6020026020010181905250612bb5565b60028782815181106127fe576127fe613c29565b6020026020010151600781111561281757612817613060565b036128745761282581612c90565b6128636040518060400160405280600781526020017f746f6b656e496400000000000000000000000000000000000000000000000000815250611e6b565b856040516020016127b9919061389f565b600487828151811061288857612888613c29565b602002602001015160078111156128a1576128a1613060565b036128fe576128af81612c90565b6128ed6040518060400160405280600681526020017f616d6f756e740000000000000000000000000000000000000000000000000000815250611e6b565b6040805160208101869052016127b9565b600387828151811061291257612912613c29565b6020026020010151600781111561292b5761292b613060565b036129b05761293981612c90565b6129776040518060400160405280600d81526020017f6f776e6572206164647265737300000000000000000000000000000000000000815250611e6b565b6001866040516129879190613883565b908152604080519182900360209081018320600401546001600160a01b031690830152016127b9565b60008782815181106129c4576129c4613c29565b602002602001015160078111156129dd576129dd613060565b03612a62576129eb81612c90565b612a296040518060400160405280601081526020017f636f6e7472616374206164647265737300000000000000000000000000000000815250611e6b565b600186604051612a399190613883565b908152604080519182900360209081018320600101546001600160a01b031690830152016127b9565b6006878281518110612a7657612a76613c29565b60200260200101516007811115612a8f57612a8f613060565b03612af457612a9d81612c90565b612adb6040518060400160405280601081526020017f7265636569766572206164647265737300000000000000000000000000000000815250611e6b565b604080516001600160a01b0387166020820152016127b9565b6007878281518110612b0857612b08613c29565b60200260200101516007811115612b2157612b21613060565b03612b6d57612b2f81612c90565b6128ed6040518060400160405280601181526020017f756e697175652064657363726970746f72000000000000000000000000000000815250611e6b565b60405162461bcd60e51b815260206004820152601660248201527f5661726961626c65206e6f7420737570706f7274656400000000000000000000604482015260640161059d565b80612bbf81613cb5565b91505061272b565b5095945050505050565b604080517fffffffff000000000000000000000000000000000000000000000000000000008416602082015281516004818303018152602490910190915260005b825181101561126a5781838281518110612c2e57612c2e613c29565b6020026020010151604051602001612c47929190613dbf565b60405160208183030381529060405291508080612c6390613cb5565b915050612c12565b6000815183511480156109ec5750508051602091820120825192909101919091201490565b611e2281604051602401612ca691815260200190565b60408051601f198184030181529190526020810180516001600160e01b03167ff5b1bba900000000000000000000000000000000000000000000000000000000179052612652565b508054612cfa90613849565b6000825580601f10612d0a575050565b601f016020900490600052602060002090810190611e229190612dd7565b828054828255906000526020600020908101928215612d6e579160200282015b82811115612d6e5782518290612d5e9082613b23565b5091602001919060010190612d48565b50612d7a929150612dec565b5090565b828054828255906000526020600020908101928215612dcb579160200282015b82811115612dcb5782518051612dbb918491602090910190612e09565b5091602001919060010190612d9e565b50612d7a929150612eb9565b5b80821115612d7a5760008155600101612dd8565b80821115612d7a576000612e008282612cee565b50600101612dec565b82805482825590600052602060002090601f01602090048101928215612ead5791602002820160005b83821115612e7e57835183826101000a81548160ff02191690836007811115612e5d57612e5d613060565b02179055509260200192600101602081600001049283019260010302612e32565b8015612eab5782816101000a81549060ff0219169055600101602081600001049283019260010302612e7e565b505b50612d7a929150612dd7565b80821115612d7a576000612ecd8282612ed6565b50600101612eb9565b50805460008255601f016020900490600052602060002090810190611e229190612dd7565b634e487b7160e01b600052604160045260246000fd5b6040516080810167ffffffffffffffff81118282101715612f3457612f34612efb565b60405290565b604051601f8201601f1916810167ffffffffffffffff81118282101715612f6357612f63612efb565b604052919050565b600082601f830112612f7c57600080fd5b813567ffffffffffffffff811115612f9657612f96612efb565b612fa9601f8201601f1916602001612f3a565b818152846020838601011115612fbe57600080fd5b816020850160208301376000918101602001919091529392505050565b600060208284031215612fed57600080fd5b813567ffffffffffffffff81111561300457600080fd5b611ed684828501612f6b565b60005b8381101561302b578181015183820152602001613013565b50506000910152565b6000815180845261304c816020860160208601613010565b601f01601f19169290920160200192915050565b634e487b7160e01b600052602160045260246000fd5b60078110611e2257611e22613060565b60e08152600061309960e083018a613034565b6001600160a01b03808a1660208501526130b289613076565b88604085015283820360608501526130ca8289613034565b915083820360808501526130de8288613034565b951660a0840152505060c0015295945050505050565b6000806040838503121561310757600080fd5b823567ffffffffffffffff81111561311e57600080fd5b61312a85828601612f6b565b95602094909401359450505050565b80356001600160a01b0381168114610f0b57600080fd5b60008060008060006080868803121561316857600080fd5b61317186613139565b945061317f60208701613139565b935060408601359250606086013567ffffffffffffffff808211156131a357600080fd5b818801915088601f8301126131b757600080fd5b8135818111156131c657600080fd5b8960208285010111156131d857600080fd5b9699959850939650602001949392505050565b60008060006060848603121561320057600080fd5b833567ffffffffffffffff81111561321757600080fd5b61322386828701612f6b565b93505061323260208501613139565b9150604084013590509250925092565b600081518084526020808501808196508360051b8101915082860160005b8581101561328a578284038952613278848351613034565b98850198935090840190600101613260565b5091979650505050505050565b6020815260006109ec6020830184613242565b60078110611e2257600080fd5b8035610f0b816132aa565b60008060008060008060c087890312156132db57600080fd5b863567ffffffffffffffff808211156132f357600080fd5b6132ff8a838b01612f6b565b975061330d60208a01613139565b96506040890135915061331f826132aa565b9094506060880135908082111561333557600080fd5b6133418a838b01612f6b565b9450608089013591508082111561335757600080fd5b5061336489828a01612f6b565b92505061337360a08801613139565b90509295509295509295565b602081526000825160e0602084015261339c610100840182613034565b90506001600160a01b03602085015116604084015260408401516133bf81613076565b806060850152506060840151601f19808584030160808601526133e28383613034565b925060808601519150808584030160a0860152506134008282613034565b91505060a084015161341d60c08501826001600160a01b03169052565b5060c084015160e08401528091505092915050565b6000806040838503121561344557600080fd5b823567ffffffffffffffff81111561345c57600080fd5b61346885828601612f6b565b9250506020830135613479816132aa565b809150509250929050565b6040810161349184613076565b92815290151560209091015290565b600067ffffffffffffffff8211156134ba576134ba612efb565b5060051b60200190565b600082601f8301126134d557600080fd5b813560206134ea6134e5836134a0565b612f3a565b828152600592831b850182019282820191908785111561350957600080fd5b8387015b858110156135ae57803567ffffffffffffffff81111561352d5760008081fd5b8801603f81018a1361353f5760008081fd5b8581013560406135516134e5836134a0565b82815291851b8301810191888101908d84111561356e5760008081fd5b938201935b8385101561359d57843592506008831061358d5760008081fd5b8282529389019390890190613573565b88525050509385019350840161350d565b5090979650505050505050565b8015158114611e2257600080fd5b8035610f0b816135bb565b600082601f8301126135e557600080fd5b6135f26134e583356134a0565b82358082526020808301929160051b8501018581111561361157600080fd5b602085015b818110156137445767ffffffffffffffff808235111561363557600080fd5b813587016080818a03601f1901121561364d57600080fd5b613655612f11565b6020820135613663816132aa565b815260408201358381111561367757600080fd5b8201603f81018b1361368857600080fd5b60208101356136996134e5826134a0565b81815260059190911b82016040019060208101908d8311156136ba57600080fd5b604084015b838110156136f35787813511156136d557600080fd5b6136e58f60408335880101612f6b565b8352602092830192016136bf565b50602085015250505060608201358381111561370e57600080fd5b61371d8b6020838601016134c4565b60408301525061372f608083016135c9565b60608201528652505060209384019301613616565b509095945050505050565b600080600080600080600060e0888a03121561376a57600080fd5b873567ffffffffffffffff8082111561378257600080fd5b61378e8b838c01612f6b565b985061379c60208b01613139565b97506137aa60408b016132b7565b965060608a01359150808211156137c057600080fd5b6137cc8b838c01612f6b565b955060808a01359150808211156137e257600080fd5b6137ee8b838c01612f6b565b94506137fc60a08b01613139565b935060c08a013591508082111561381257600080fd5b5061381f8a828b016135d4565b91505092959891949750929550565b60006020828403121561384057600080fd5b6109ec82613139565b600181811c9082168061385d57607f821691505b60208210810361387d57634e487b7160e01b600052602260045260246000fd5b50919050565b60008251613895818460208701613010565b9190910192915050565b6020815260006109ec6020830184613034565b634e487b7160e01b600052601160045260246000fd5b818103818111156106b9576106b96138b2565b60e0815260006138ee60e083018a613034565b6001600160a01b038916602084015261390688613076565b876040840152828103606084015261391e8188613034565b905082810360808401526139328187613034565b90506001600160a01b03851660a084015282810360c084015280845180835260208301915060208160051b8401016020870160005b83811015613a6f57601f19808785030186528251805161398681613076565b808652506020810151608060208701526139a36080870182613242565b90506040820151868203604088015281815180845260208401915060208160051b85010160208401935060005b82811015613a3857858203880184528451805180845260209182019184019060005b81811015613a2057835160088110613a0c57613a0c613060565b8352602093840193909201916001016139f2565b505060209687019695909501949250506001016139d0565b5060608601519650613a4e60608b018815159052565b80995050505050505050602082019150602085019450600181019050613967565b50909d9c50505050505050505050505050565b600060208284031215613a9457600080fd5b81516109ec816135bb565b604081526000613ab26040830185613034565b90508260208301529392505050565b808201808211156106b9576106b96138b2565b601f821115613b1e57600081815260208120601f850160051c81016020861015613afb5750805b601f850160051c820191505b81811015613b1a57828155600101613b07565b5050505b505050565b815167ffffffffffffffff811115613b3d57613b3d612efb565b613b5181613b4b8454613849565b84613ad4565b602080601f831160018114613b865760008415613b6e5750858301515b600019600386901b1c1916600185901b178555613b1a565b600085815260208120601f198616915b82811015613bb557888601518255948401946001909101908401613b96565b5085821015613bd35787850151600019600388901b60f8161c191681555b5050505050600190811b01905550565b608081526000613bf66080830187613034565b90506001600160a01b038086166020840152613c1185613076565b84604084015280841660608401525095945050505050565b634e487b7160e01b600052603260045260246000fd5b6000808354613c4d81613849565b60018281168015613c655760018114613c7a57613ca9565b60ff1984168752821515830287019450613ca9565b8760005260208060002060005b85811015613ca05781548a820152908401908201613c87565b50505082870194505b50929695505050505050565b600060018201613cc757613cc76138b2565b5060010190565b818103613cd9575050565b613ce38254613849565b67ffffffffffffffff811115613cfb57613cfb612efb565b613d0981613b4b8454613849565b6000601f821160018114613d3d5760008315613d255750848201545b600019600385901b1c1916600184901b178455613da2565b600085815260209020601f19841690600086815260209020845b83811015613d775782860154825560019586019590910190602001613d57565b5085831015613d955781850154600019600388901b60f8161c191681555b50505060018360011b0184555b5050505050565b634e487b7160e01b600052603160045260246000fd5b60008351613dd1818460208801613010565b835190830190613de5818360208801613010565b0194935050505056fe4d696e74696e67206173736574207769746820746f6b656e49643a2c206174747269627574653a0a0a496e746572616374696f6e73206e6f7420617661696c61626c6520666f7220746f6b656e0a0a0a686168616861686861686168616861686168616861686168616861686168616861686168686168610a0aa264697066735822122066b6b241c616baf1f575805b7f79649aea4b59129f090c31ef9f8257a258635d64736f6c63430008140033","linkReferences":{}},"methodIdentifiers":{"assign(string,address,uint256)":"4534ba17","bridge_address()":"1255c189","burn(string,uint256)":"b48272cc","getAllAssetsIDs()":"5137b8a7","getToken(string)":"c1733f68","lock(string,uint256)":"e1efb596","mint(string,uint256)":"056b01ce","onERC721Received(address,address,uint256,bytes)":"150b7a02","owner()":"8da5cb5b","renounceOwnership()":"715018a6","tokens(string)":"04c2320b","tokensInteractions(string,uint8)":"ea8f547f","transferOwnership(address)":"f2fde38b","unlock(string,uint256)":"d9cf884c","unwrap(string)":"a1bc17c5","wrap(string,address,uint8,string,string,address)":"6a0876e0","wrap(string,address,uint8,string,string,address,(uint8,string[],uint8[][],bool)[])":"f272660b"},"id":35}