{"abi":[{"type":"constructor","inputs":[{"name":"_bridge_address","type":"address","internalType":"address"}],"stateMutability":"nonpayable"},{"type":"function","name":"assign","inputs":[{"name":"tokenId","type":"string","internalType":"string"},{"name":"receiver_account","type":"address","internalType":"address"},{"name":"amount","type":"uint256","internalType":"uint256"}],"outputs":[{"name":"success","type":"bool","internalType":"bool"}],"stateMutability":"nonpayable"},{"type":"function","name":"bridge_address","inputs":[],"outputs":[{"name":"","type":"address","internalType":"address"}],"stateMutability":"view"},{"type":"function","name":"burn","inputs":[{"name":"tokenId","type":"string","internalType":"string"},{"name":"amount","type":"uint256","internalType":"uint256"}],"outputs":[{"name":"success","type":"bool","internalType":"bool"}],"stateMutability":"nonpayable"},{"type":"function","name":"getAllAssetsIDs","inputs":[],"outputs":[{"name":"","type":"string[]","internalType":"string[]"}],"stateMutability":"view"},{"type":"function","name":"getToken","inputs":[{"name":"tokenId","type":"string","internalType":"string"}],"outputs":[{"name":"token","type":"tuple","internalType":"struct Token","components":[{"name":"contractName","type":"string","internalType":"string"},{"name":"contractAddress","type":"address","internalType":"address"},{"name":"tokenType","type":"uint8","internalType":"enum TokenType"},{"name":"tokenId","type":"string","internalType":"string"},{"name":"referenceId","type":"string","internalType":"string"},{"name":"owner","type":"address","internalType":"address"},{"name":"amount","type":"uint256","internalType":"uint256"}]}],"stateMutability":"view"},{"type":"function","name":"lock","inputs":[{"name":"tokenId","type":"string","internalType":"string"},{"name":"amount","type":"uint256","internalType":"uint256"}],"outputs":[{"name":"success","type":"bool","internalType":"bool"}],"stateMutability":"nonpayable"},{"type":"function","name":"mint","inputs":[{"name":"tokenId","type":"string","internalType":"string"},{"name":"amount","type":"uint256","internalType":"uint256"}],"outputs":[{"name":"success","type":"bool","internalType":"bool"}],"stateMutability":"nonpayable"},{"type":"function","name":"owner","inputs":[],"outputs":[{"name":"","type":"address","internalType":"address"}],"stateMutability":"view"},{"type":"function","name":"renounceOwnership","inputs":[],"outputs":[],"stateMutability":"nonpayable"},{"type":"function","name":"tokens","inputs":[{"name":"","type":"string","internalType":"string"}],"outputs":[{"name":"contractName","type":"string","internalType":"string"},{"name":"contractAddress","type":"address","internalType":"address"},{"name":"tokenType","type":"uint8","internalType":"enum TokenType"},{"name":"tokenId","type":"string","internalType":"string"},{"name":"referenceId","type":"string","internalType":"string"},{"name":"owner","type":"address","internalType":"address"},{"name":"amount","type":"uint256","internalType":"uint256"}],"stateMutability":"view"},{"type":"function","name":"tokensInteractions","inputs":[{"name":"","type":"string","internalType":"string"},{"name":"","type":"uint8","internalType":"enum InteractionType"}],"outputs":[{"name":"interactionType","type":"uint8","internalType":"enum InteractionType"},{"name":"available","type":"bool","internalType":"bool"}],"stateMutability":"view"},{"type":"function","name":"transferOwnership","inputs":[{"name":"newOwner","type":"address","internalType":"address"}],"outputs":[],"stateMutability":"nonpayable"},{"type":"function","name":"unlock","inputs":[{"name":"tokenId","type":"string","internalType":"string"},{"name":"amount","type":"uint256","internalType":"uint256"}],"outputs":[{"name":"success","type":"bool","internalType":"bool"}],"stateMutability":"nonpayable"},{"type":"function","name":"unwrap","inputs":[{"name":"tokenId","type":"string","internalType":"string"}],"outputs":[{"name":"success","type":"bool","internalType":"bool"}],"stateMutability":"nonpayable"},{"type":"function","name":"wrap","inputs":[{"name":"contractName","type":"string","internalType":"string"},{"name":"contractAddress","type":"address","internalType":"address"},{"name":"tokenType","type":"uint8","internalType":"enum TokenType"},{"name":"tokenId","type":"string","internalType":"string"},{"name":"referenceId","type":"string","internalType":"string"},{"name":"owner","type":"address","internalType":"address"}],"outputs":[{"name":"wrapSuccess","type":"bool","internalType":"bool"}],"stateMutability":"nonpayable"},{"type":"function","name":"wrap","inputs":[{"name":"contractName","type":"string","internalType":"string"},{"name":"contractAddress","type":"address","internalType":"address"},{"name":"tokenType","type":"uint8","internalType":"enum TokenType"},{"name":"tokenId","type":"string","internalType":"string"},{"name":"referenceId","type":"string","internalType":"string"},{"name":"owner","type":"address","internalType":"address"},{"name":"interactions","type":"tuple[]","internalType":"struct InteractionSignature[]","components":[{"name":"interactionType","type":"uint8","internalType":"enum InteractionType"},{"name":"functionsSignature","type":"string[]","internalType":"string[]"},{"name":"variables","type":"uint8[][]","internalType":"enum VarType[][]"},{"name":"available","type":"bool","internalType":"bool"}]}],"outputs":[{"name":"wrapSuccess","type":"bool","internalType":"bool"}],"stateMutability":"nonpayable"},{"type":"event","name":"Assign","inputs":[{"name":"tokenId","type":"string","indexed":true,"internalType":"string"},{"name":"receiver_account","type":"address","indexed":false,"internalType":"address"},{"name":"amount","type":"uint256","indexed":false,"internalType":"uint256"}],"anonymous":false},{"type":"event","name":"Burn","inputs":[{"name":"tokenId","type":"string","indexed":true,"internalType":"string"},{"name":"amount","type":"uint256","indexed":false,"internalType":"uint256"}],"anonymous":false},{"type":"event","name":"Changed","inputs":[{"name":"id","type":"string","indexed":true,"internalType":"string"},{"name":"value","type":"bytes[]","indexed":false,"internalType":"bytes[]"}],"anonymous":false},{"type":"event","name":"Lock","inputs":[{"name":"tokenId","type":"string","indexed":true,"internalType":"string"},{"name":"amount","type":"uint256","indexed":false,"internalType":"uint256"}],"anonymous":false},{"type":"event","name":"Mint","inputs":[{"name":"tokenId","type":"string","indexed":true,"internalType":"string"},{"name":"amount","type":"uint256","indexed":false,"internalType":"uint256"}],"anonymous":false},{"type":"event","name":"OwnershipTransferred","inputs":[{"name":"previousOwner","type":"address","indexed":true,"internalType":"address"},{"name":"newOwner","type":"address","indexed":true,"internalType":"address"}],"anonymous":false},{"type":"event","name":"Unlock","inputs":[{"name":"tokenId","type":"string","indexed":true,"internalType":"string"},{"name":"amount","type":"uint256","indexed":false,"internalType":"uint256"}],"anonymous":false},{"type":"event","name":"Unwrap","inputs":[{"name":"tokenId","type":"string","indexed":true,"internalType":"string"}],"anonymous":false},{"type":"event","name":"Wrap","inputs":[{"name":"tokenId","type":"string","indexed":true,"internalType":"string"},{"name":"contractName","type":"string","indexed":false,"internalType":"string"},{"name":"contractAddress","type":"address","indexed":false,"internalType":"address"},{"name":"tokenType","type":"uint8","indexed":false,"internalType":"enum TokenType"},{"name":"owner","type":"address","indexed":false,"internalType":"address"}],"anonymous":false},{"type":"error","name":"InsuficientAmountLocked","inputs":[{"name":"tokenId","type":"string","internalType":"string"},{"name":"amount","type":"uint256","internalType":"uint256"}]},{"type":"error","name":"OwnableInvalidOwner","inputs":[{"name":"owner","type":"address","internalType":"address"}]},{"type":"error","name":"OwnableUnauthorizedAccount","inputs":[{"name":"account","type":"address","internalType":"address"}]},{"type":"error","name":"TokenAlreadyWrapped","inputs":[{"name":"tokenId","type":"string","internalType":"string"}]},{"type":"error","name":"TokenLocked","inputs":[{"name":"tokenId","type":"string","internalType":"string"}]},{"type":"error","name":"TokenNotAvailable","inputs":[{"name":"tokenId","type":"string","internalType":"string"}]},{"type":"error","name":"TokenNotLocked","inputs":[{"name":"tokenId","type":"string","internalType":"string"}]},{"type":"error","name":"TokenNotUnlocked","inputs":[{"name":"tokenId","type":"string","internalType":"string"}]}],"bytecode":{"object":"0x60806040523480156200001157600080fd5b506040516200318e3803806200318e8339810160408190526200003491620000e6565b806001600160a01b0381166200006457604051631e4fbdf760e01b81526000600482015260240160405180910390fd5b6200006f8162000096565b50600480546001600160a01b0319166001600160a01b039290921691909117905562000118565b600080546001600160a01b038381166001600160a01b0319831681178455604051919092169283917f8be0079c531659141344cd1fd0a4f28419497f9722a3daafe3b4186f6b6457e09190a35050565b600060208284031215620000f957600080fd5b81516001600160a01b03811681146200011157600080fd5b9392505050565b61306680620001286000396000f3fe608060405234801561001057600080fd5b50600436106101005760003560e01c8063a1bc17c511610097578063e1efb59611610066578063e1efb59614610231578063ea8f547f14610244578063f272660b1461029b578063f2fde38b146102ae57600080fd5b8063a1bc17c5146101d8578063b48272cc146101eb578063c1733f68146101fe578063d9cf884c1461021e57600080fd5b80635137b8a7116100d35780635137b8a7146101955780636a0876e0146101aa578063715018a6146101bd5780638da5cb5b146101c757600080fd5b806304c2320b14610105578063056b01ce146101345780631255c189146101575780634534ba1714610182575b600080fd5b610118610113366004612281565b6102c1565b60405161012b9796959493929190612330565b60405180910390f35b61014761014236600461239c565b6104ba565b604051901515815260200161012b565b60045461016a906001600160a01b031681565b6040516001600160a01b03909116815260200161012b565b6101476101903660046123f8565b6105f3565b61019d61075e565b60405161012b919061244f565b6101476101b83660046124c0565b610837565b6101c561091c565b005b6000546001600160a01b031661016a565b6101476101e6366004612281565b610930565b6101476101f936600461239c565b610b77565b61021161020c366004612281565b610cc5565b60405161012b9190612579565b61014761022c36600461239c565b610f49565b61014761023f36600461239c565b6110dc565b61028d610252366004612630565b8151602081840181018051600282529282019482019490942091909352909152600090815260409020805460039091015460ff918216911682565b60405161012b92919061268e565b6101476102a9366004612958565b611202565b6101c56102bc366004612a37565b611533565b80516020818301810180516001825292820191909301209152805481906102e790612a52565b80601f016020809104026020016040519081016040528092919081815260200182805461031390612a52565b80156103605780601f1061033557610100808354040283529160200191610360565b820191906000526020600020905b81548152906001019060200180831161034357829003601f168201915b50505050600183015460028401805493946001600160a01b03831694600160a01b90930460ff1693509161039390612a52565b80601f01602080910402602001604051908101604052809291908181526020018280546103bf90612a52565b801561040c5780601f106103e15761010080835404028352916020019161040c565b820191906000526020600020905b8154815290600101906020018083116103ef57829003601f168201915b50505050509080600301805461042190612a52565b80601f016020809104026020016040519081016040528092919081815260200182805461044d90612a52565b801561049a5780601f1061046f5761010080835404028352916020019161049a565b820191906000526020600020905b81548152906001019060200180831161047d57829003601f168201915b50505050600483015460059093015491926001600160a01b031691905087565b60006104c461158a565b60006001600160a01b03166001846040516104df9190612a8c565b908152604051908190036020019020600101546001600160a01b031603610524578260405163c0bab25f60e01b815260040161051b9190612aa8565b60405180910390fd5b610530836000846115d0565b61057c5760405162461bcd60e51b815260206004820152601660248201527f6d696e742061737365742063616c6c206661696c656400000000000000000000604482015260640161051b565b8160018460405161058d9190612a8c565b908152604051908190036020018120600501919091556105ae908490612a8c565b604051908190038120838252907f0a4e1e5035320483d096cf114513007c4eda3853a4dca806da2d9faec60470a6906020015b60405180910390a25060015b92915050565b60006105fd61158a565b8160018560405161060e9190612a8c565b908152602001604051809103902060050154101561066e5760405162461bcd60e51b815260206004820181905260248201527f61737369676e206173736574206173736574206973206e6f74206c6f636b6564604482015260640161051b565b61067b84600284866115e7565b6106c75760405162461bcd60e51b815260206004820152601860248201527f61737369676e2061737365742063616c6c206661696c65640000000000000000604482015260640161051b565b816001856040516106d89190612a8c565b908152602001604051809103902060050160008282546106f89190612ad1565b909155505060405161070b908590612a8c565b604080519182900382206001600160a01b038616835260208301859052917f0b3112bdbedc0251766a323a5c6ad4df77174bbc08bd61b944815ad9efe8d54c910160405180910390a25060019392505050565b60606003805480602002602001604051908101604052809291908181526020016000905b8282101561082e5783829060005260206000200180546107a190612a52565b80601f01602080910402602001604051908101604052809291908181526020018280546107cd90612a52565b801561081a5780601f106107ef5761010080835404028352916020019161081a565b820191906000526020600020905b8154815290600101906020018083116107fd57829003601f168201915b505050505081526020019060010190610782565b50505050905090565b600061084161158a565b3063f272660b88888888888860006040519080825280602002602001820160405280156108ab57816020015b6108986040805160808101909152806000815260606020820181905260408201819052600091015290565b81526020019060019003908161086d5790505b506040518863ffffffff1660e01b81526004016108ce9796959493929190612b70565b6020604051808303816000875af11580156108ed573d6000803e3d6000fd5b505050506040513d601f19601f820116820180604052508101906109119190612cc7565b979650505050505050565b61092461158a565b61092e6000611903565b565b600061093a61158a565b60006001600160a01b03166001836040516109559190612a8c565b908152604051908190036020019020600101546001600160a01b031603610991578160405163c0bab25f60e01b815260040161051b9190612aa8565b60006001836040516109a39190612a8c565b90815260200160405180910390206005015411156109ef57816040517fb7d2c10a00000000000000000000000000000000000000000000000000000000815260040161051b9190612aa8565b610aa1600183604051610a029190612a8c565b90815260200160405180910390206002018054610a1e90612a52565b80601f0160208091040260200160405190810160405280929190818152602001828054610a4a90612a52565b8015610a975780601f10610a6c57610100808354040283529160200191610a97565b820191906000526020600020905b815481529060010190602001808311610a7a57829003601f168201915b5050505050611960565b600182604051610ab19190612a8c565b9081526040519081900360200190206000610acc8282611f94565b60018201805474ffffffffffffffffffffffffffffffffffffffffff19169055610afa600283016000611f94565b610b08600383016000611f94565b5060048101805473ffffffffffffffffffffffffffffffffffffffff191690556000600590910155604051610b3e908390612a8c565b604051908190038120907f3855d31914452a5e7361730662e60834555d7cb26d380140894d85fd0d13b85490600090a25060015b919050565b6000610b8161158a565b81600184604051610b929190612a8c565b9081526020016040518091039020600501541015610bf25760405162461bcd60e51b815260206004820152601e60248201527f6275726e206173736574206173736574206973206e6f74206c6f636b65640000604482015260640161051b565b610bfe836001846115d0565b610c4a5760405162461bcd60e51b815260206004820152601660248201527f6275726e2061737365742063616c6c206661696c656400000000000000000000604482015260640161051b565b81600184604051610c5b9190612a8c565b90815260200160405180910390206005016000828254610c7b9190612ad1565b9091555050604051610c8e908490612a8c565b604051908190038120838252907fa0237080cf48d9e1fbb9ef1f82e33b11170d047b2b540a73b457d0916d53ee99906020016105e1565b6040805160e0810182526060808252600060208301819052928201839052808201819052608082015260a0810182905260c0810191909152600182604051610d0d9190612a8c565b90815260200160405180910390206040518060e0016040529081600082018054610d3690612a52565b80601f0160208091040260200160405190810160405280929190818152602001828054610d6290612a52565b8015610daf5780601f10610d8457610100808354040283529160200191610daf565b820191906000526020600020905b815481529060010190602001808311610d9257829003601f168201915b505050918352505060018201546001600160a01b0381166020830152604090910190600160a01b900460ff166004811115610dec57610dec612306565b6004811115610dfd57610dfd612306565b8152602001600282018054610e1190612a52565b80601f0160208091040260200160405190810160405280929190818152602001828054610e3d90612a52565b8015610e8a5780601f10610e5f57610100808354040283529160200191610e8a565b820191906000526020600020905b815481529060010190602001808311610e6d57829003601f168201915b50505050508152602001600382018054610ea390612a52565b80601f0160208091040260200160405190810160405280929190818152602001828054610ecf90612a52565b8015610f1c5780601f10610ef157610100808354040283529160200191610f1c565b820191906000526020600020905b815481529060010190602001808311610eff57829003601f168201915b505050918352505060048201546001600160a01b0316602082015260059091015460409091015292915050565b6000610f5361158a565b60006001600160a01b0316600184604051610f6e9190612a8c565b908152604051908190036020019020600101546001600160a01b031603610faa578260405163c0bab25f60e01b815260040161051b9190612aa8565b81600184604051610fbb9190612a8c565b90815260200160405180910390206005015410156110095782826040517fed579e6000000000000000000000000000000000000000000000000000000000815260040161051b929190612ce4565b6000611017846005856115d0565b905080156110a857826001856040516110309190612a8c565b908152602001604051809103902060050160008282546110509190612ad1565b9091555050604051611063908590612a8c565b604051908190038120848252907f7b3c894115251262b174b7aeab24a57e00bc2e8853d1ef2f57a217edaa69c06e906020015b60405180910390a260019150506105ed565b836040517f58300fe700000000000000000000000000000000000000000000000000000000815260040161051b9190612aa8565b60006110e661158a565b60006001600160a01b03166001846040516111019190612a8c565b908152604051908190036020019020600101546001600160a01b03160361113d578260405163c0bab25f60e01b815260040161051b9190612aa8565b600061114b846004856115d0565b905080156111ce57826001856040516111649190612a8c565b908152602001604051809103902060050160008282546111849190612d06565b9091555050604051611197908590612a8c565b604051908190038120848252907fc480ef4e831b2ca5eb0b2f95c6564d9a56af5b3fe2383393008e3f1708dc979790602001611096565b836040517f8244096a00000000000000000000000000000000000000000000000000000000815260040161051b9190612aa8565b600061120c61158a565b60006001600160a01b03166001866040516112279190612a8c565b908152604051908190036020019020600101546001600160a01b03161461127c57846040517f67ab234400000000000000000000000000000000000000000000000000000000815260040161051b9190612aa8565b6112868583611abe565b6002856040516112969190612a8c565b9081526040805160209281900383019020600360008181529190935220015460ff161561133a576112c8856003611bde565b61133a5760405162461bcd60e51b815260206004820152603c60248201527f436f6e747261637420646f6573206e6f742068617665207065726d697373696f60448201527f6e20746f20696e74657261637420776974682074686520746f6b656e00000000606482015260840161051b565b6040518060e00160405280898152602001886001600160a01b0316815260200187600481111561136c5761136c612306565b8152602001868152602001858152602001846001600160a01b0316815260200160008152506001866040516113a19190612a8c565b908152604051908190036020019020815181906113be9082612d67565b5060208201516001820180546001600160a01b0390921673ffffffffffffffffffffffffffffffffffffffff1983168117825560408501519274ffffffffffffffffffffffffffffffffffffffffff191617600160a01b83600481111561142757611427612306565b0217905550606082015160028201906114409082612d67565b50608082015160038201906114559082612d67565b5060a082015160048201805473ffffffffffffffffffffffffffffffffffffffff19166001600160a01b0390921691909117905560c090910151600590910155600380546001810182556000919091527fc2575a0e9e593c00f959f8c92f12db2869c3395a3b0502d05e2516446f71f85b016114d18682612d67565b50846040516114e09190612a8c565b60405180910390207f1455a30f034090309f76768ab435a6bd3c547427fc31dbe48477cfb5b9f47dda8989898760405161151d9493929190612e27565b60405180910390a2506001979650505050505050565b61153b61158a565b6001600160a01b03811661157e576040517f1e4fbdf70000000000000000000000000000000000000000000000000000000081526000600482015260240161051b565b61158781611903565b50565b6000546001600160a01b0316331461092e576040517f118cdaa700000000000000000000000000000000000000000000000000000000815233600482015260240161051b565b60006115df84848460006115e7565b949350505050565b60006002856040516115f99190612a8c565b9081526020016040518091039020600085600581111561161b5761161b612306565b600581111561162c5761162c612306565b815260208101919091526040016000206003015460ff1661164f575060006115df565b60005b6002866040516116629190612a8c565b9081526020016040518091039020600086600581111561168457611684612306565b600581111561169557611695612306565b81526020810191909152604001600020600101548110156118f75760006002876040516116c29190612a8c565b908152602001604051809103902060008760058111156116e4576116e4612306565b60058111156116f5576116f5612306565b8152602001908152602001600020600101828154811061171757611717612e6b565b906000526020600020016040516020016117319190612e81565b604051602081830303815290604052805190602001209050600061184d8261184860028b6040516117629190612a8c565b908152602001604051809103902060008b600581111561178457611784612306565b600581111561179557611795612306565b815260200190815260200160002060020186815481106117b7576117b7612e6b565b9060005260206000200180548060200260200160405190810160405280929190818152602001828054801561183b57602002820191906000526020600020906000905b82829054906101000a900460ff16600681111561181957611819612306565b8152602060019283018181049485019490930390920291018084116117fa5790505b50505050508b898b611bf4565b611ece565b905060006001896040516118619190612a8c565b908152604051908190036020018120600101546001600160a01b031690611889908490612a8c565b6000604051808303816000865af19150503d80600081146118c6576040519150601f19603f3d011682016040523d82523d6000602084013e6118cb565b606091505b50509050806118e15760009450505050506115df565b50505080806118ef90612ef7565b915050611652565b50600195945050505050565b600080546001600160a01b0383811673ffffffffffffffffffffffffffffffffffffffff19831681178455604051919092169283917f8be0079c531659141344cd1fd0a4f28419497f9722a3daafe3b4186f6b6457e09190a35050565b60005b600354811015611aba57611a1c6003828154811061198357611983612e6b565b90600052602060002001805461199890612a52565b80601f01602080910402602001604051908101604052809291908181526020018280546119c490612a52565b8015611a115780601f106119e657610100808354040283529160200191611a11565b820191906000526020600020905b8154815290600101906020018083116119f457829003601f168201915b505050505083611f6f565b15611aa85760038054611a3190600190612ad1565b81548110611a4157611a41612e6b565b9060005260206000200160038281548110611a5e57611a5e612e6b565b906000526020600020019081611a749190612f10565b506003805480611a8657611a86612feb565b600190038181906000526020600020016000611aa29190611f94565b90555050565b80611ab281612ef7565b915050611963565b5050565b60005b8151811015611bd957818181518110611adc57611adc612e6b565b6020026020010151600284604051611af49190612a8c565b90815260200160405180910390206000848481518110611b1657611b16612e6b565b6020026020010151600001516005811115611b3357611b33612306565b6005811115611b4457611b44612306565b8152602081019190915260400160002081518154829060ff19166001836005811115611b7257611b72612306565b02179055506020828101518051611b8f9260018501920190611fce565b5060408201518051611bab916002840191602090910190612024565b50606091909101516003909101805460ff191691151591909117905580611bd181612ef7565b915050611ac1565b505050565b6000611bed83836000806115e7565b9392505050565b60606000855167ffffffffffffffff811115611c1257611c126121a1565b604051908082528060200260200182016040528015611c4557816020015b6060815260200190600190039081611c305790505b50905060005b8651811015611ec4576005878281518110611c6857611c68612e6b565b60200260200101516006811115611c8157611c81612306565b03611cc35760408051306020820152015b604051602081830303815290604052828281518110611cb357611cb3612e6b565b6020026020010181905250611eb2565b6002878281518110611cd757611cd7612e6b565b60200260200101516006811115611cf057611cf0612306565b03611d065785604051602001611c929190612aa8565b6004878281518110611d1a57611d1a612e6b565b60200260200101516006811115611d3357611d33612306565b03611d4957604080516020810186905201611c92565b6003878281518110611d5d57611d5d612e6b565b60200260200101516006811115611d7657611d76612306565b03611db457600186604051611d8b9190612a8c565b908152604080519182900360209081018320600401546001600160a01b03169083015201611c92565b6000878281518110611dc857611dc8612e6b565b60200260200101516006811115611de157611de1612306565b03611e1f57600186604051611df69190612a8c565b908152604080519182900360209081018320600101546001600160a01b03169083015201611c92565b6006878281518110611e3357611e33612e6b565b60200260200101516006811115611e4c57611e4c612306565b03611e6a57604080516001600160a01b038716602082015201611c92565b60405162461bcd60e51b815260206004820152601660248201527f5661726961626c65206e6f7420737570706f7274656400000000000000000000604482015260640161051b565b80611ebc81612ef7565b915050611c4b565b5095945050505050565b604080517fffffffff000000000000000000000000000000000000000000000000000000008416602082015281516004818303018152602490910190915260005b8251811015611f685781838281518110611f2b57611f2b612e6b565b6020026020010151604051602001611f44929190613001565b60405160208183030381529060405291508080611f6090612ef7565b915050611f0f565b5092915050565b600081518351148015611bed5750508051602091820120825192909101919091201490565b508054611fa090612a52565b6000825580601f10611fb0575050565b601f016020900490600052602060002090810190611587919061207d565b828054828255906000526020600020908101928215612014579160200282015b8281111561201457825182906120049082612d67565b5091602001919060010190611fee565b50612020929150612092565b5090565b828054828255906000526020600020908101928215612071579160200282015b8281111561207157825180516120619184916020909101906120af565b5091602001919060010190612044565b5061202092915061215f565b5b80821115612020576000815560010161207e565b808211156120205760006120a68282611f94565b50600101612092565b82805482825590600052602060002090601f016020900481019282156121535791602002820160005b8382111561212457835183826101000a81548160ff0219169083600681111561210357612103612306565b021790555092602001926001016020816000010492830192600103026120d8565b80156121515782816101000a81549060ff0219169055600101602081600001049283019260010302612124565b505b5061202092915061207d565b80821115612020576000612173828261217c565b5060010161215f565b50805460008255601f016020900490600052602060002090810190611587919061207d565b634e487b7160e01b600052604160045260246000fd5b6040516080810167ffffffffffffffff811182821017156121da576121da6121a1565b60405290565b604051601f8201601f1916810167ffffffffffffffff81118282101715612209576122096121a1565b604052919050565b600082601f83011261222257600080fd5b813567ffffffffffffffff81111561223c5761223c6121a1565b61224f601f8201601f19166020016121e0565b81815284602083860101111561226457600080fd5b816020850160208301376000918101602001919091529392505050565b60006020828403121561229357600080fd5b813567ffffffffffffffff8111156122aa57600080fd5b6115df84828501612211565b60005b838110156122d15781810151838201526020016122b9565b50506000910152565b600081518084526122f28160208601602086016122b6565b601f01601f19169290920160200192915050565b634e487b7160e01b600052602160045260246000fd5b6005811061232c5761232c612306565b9052565b60e08152600061234360e083018a6122da565b6001600160a01b03808a166020850152612360604085018a61231c565b838203606085015261237282896122da565b9150838203608085015261238682886122da565b951660a0840152505060c0015295945050505050565b600080604083850312156123af57600080fd5b823567ffffffffffffffff8111156123c657600080fd5b6123d285828601612211565b95602094909401359450505050565b80356001600160a01b0381168114610b7257600080fd5b60008060006060848603121561240d57600080fd5b833567ffffffffffffffff81111561242457600080fd5b61243086828701612211565b93505061243f602085016123e1565b9150604084013590509250925092565b6000602080830181845280855180835260408601915060408160051b870101925083870160005b828110156124a457603f198886030184526124928583516122da565b94509285019290850190600101612476565b5092979650505050505050565b803560058110610b7257600080fd5b60008060008060008060c087890312156124d957600080fd5b863567ffffffffffffffff808211156124f157600080fd5b6124fd8a838b01612211565b975061250b60208a016123e1565b965061251960408a016124b1565b9550606089013591508082111561252f57600080fd5b61253b8a838b01612211565b9450608089013591508082111561255157600080fd5b5061255e89828a01612211565b92505061256d60a088016123e1565b90509295509295509295565b602081526000825160e060208401526125966101008401826122da565b905060208401516001600160a01b038082166040860152604086015191506125c1606086018361231c565b60608601519150601f19808685030160808701526125df84846122da565b935060808701519250808685030160a0870152506125fd83836122da565b92508060a08701511660c0860152505060c084015160e08401528091505092915050565b803560068110610b7257600080fd5b6000806040838503121561264357600080fd5b823567ffffffffffffffff81111561265a57600080fd5b61266685828601612211565b92505061267560208401612621565b90509250929050565b6006811061232c5761232c612306565b6040810161269c828561267e565b82151560208301529392505050565b600067ffffffffffffffff8211156126c5576126c56121a1565b5060051b60200190565b600082601f8301126126e057600080fd5b813560206126f56126f0836126ab565b6121e0565b828152600592831b850182019282820191908785111561271457600080fd5b8387015b858110156127b957803567ffffffffffffffff8111156127385760008081fd5b8801603f81018a1361274a5760008081fd5b85810135604061275c6126f0836126ab565b82815291851b8301810191888101908d8411156127795760008081fd5b938201935b838510156127a85784359250600783106127985760008081fd5b828252938901939089019061277e565b885250505093850193508401612718565b5090979650505050505050565b801515811461158757600080fd5b8035610b72816127c6565b600082601f8301126127f057600080fd5b6127fd6126f083356126ab565b82358082526020808301929160051b8501018581111561281c57600080fd5b602085015b8181101561294d5767ffffffffffffffff808235111561284057600080fd5b813587016080818a03601f1901121561285857600080fd5b6128606121b7565b61286c60208301612621565b815260408201358381111561288057600080fd5b8201603f81018b1361289157600080fd5b60208101356128a26126f0826126ab565b81815260059190911b82016040019060208101908d8311156128c357600080fd5b604084015b838110156128fc5787813511156128de57600080fd5b6128ee8f60408335880101612211565b8352602092830192016128c8565b50602085015250505060608201358381111561291757600080fd5b6129268b6020838601016126cf565b604083015250612938608083016127d4565b60608201528652505060209384019301612821565b509095945050505050565b600080600080600080600060e0888a03121561297357600080fd5b873567ffffffffffffffff8082111561298b57600080fd5b6129978b838c01612211565b98506129a560208b016123e1565b97506129b360408b016124b1565b965060608a01359150808211156129c957600080fd5b6129d58b838c01612211565b955060808a01359150808211156129eb57600080fd5b6129f78b838c01612211565b9450612a0560a08b016123e1565b935060c08a0135915080821115612a1b57600080fd5b50612a288a828b016127df565b91505092959891949750929550565b600060208284031215612a4957600080fd5b611bed826123e1565b600181811c90821680612a6657607f821691505b602082108103612a8657634e487b7160e01b600052602260045260246000fd5b50919050565b60008251612a9e8184602087016122b6565b9190910192915050565b602081526000611bed60208301846122da565b634e487b7160e01b600052601160045260246000fd5b818103818111156105ed576105ed612abb565b600081518084526020808501808196508360051b810191508286016000805b86811015612b62578385038a52825180518087529087019087870190845b81811015612b4d57835160078110612b3b57612b3b612306565b83529289019291890191600101612b21565b50509a87019a95505091850191600101612b03565b509298975050505050505050565b60e081526000612b8360e083018a6122da565b60206001600160a01b03808b16828601526040612ba28187018c61231c565b606086850381880152612bb5858c6122da565b9450608087860381890152612bca868c6122da565b955060a0848b16818a015288870360c08a015286945089518088528688019550868160051b890101878c0160005b83811015612cad57601f198b84030189528151868401612c1985835161267e565b818c0151858d01899052805191829052600582901b8601880191908d01908887019060005b81811015612c6c57609f19898603018352612c5a8585516122da565b9450928f0192918f0191600101612c3e565b50505050898201518582038b870152612c858282612ae4565b928a0151801515878c0152929150612c9a9050565b998b019993505090890190600101612bf8565b505080995050505050505050505098975050505050505050565b600060208284031215612cd957600080fd5b8151611bed816127c6565b604081526000612cf760408301856122da565b90508260208301529392505050565b808201808211156105ed576105ed612abb565b601f821115611bd957600081815260208120601f850160051c81016020861015612d405750805b601f850160051c820191505b81811015612d5f57828155600101612d4c565b505050505050565b815167ffffffffffffffff811115612d8157612d816121a1565b612d9581612d8f8454612a52565b84612d19565b602080601f831160018114612dca5760008415612db25750858301515b600019600386901b1c1916600185901b178555612d5f565b600085815260208120601f198616915b82811015612df957888601518255948401946001909101908401612dda565b5085821015612e175787850151600019600388901b60f8161c191681555b5050505050600190811b01905550565b608081526000612e3a60808301876122da565b90506001600160a01b038086166020840152612e59604084018661231c565b80841660608401525095945050505050565b634e487b7160e01b600052603260045260246000fd5b6000808354612e8f81612a52565b60018281168015612ea75760018114612ebc57612eeb565b60ff1984168752821515830287019450612eeb565b8760005260208060002060005b85811015612ee25781548a820152908401908201612ec9565b50505082870194505b50929695505050505050565b600060018201612f0957612f09612abb565b5060010190565b818103612f1b575050565b612f258254612a52565b67ffffffffffffffff811115612f3d57612f3d6121a1565b612f4b81612d8f8454612a52565b6000601f821160018114612f7f5760008315612f675750848201545b600019600385901b1c1916600184901b178455612fe4565b600085815260209020601f19841690600086815260209020845b83811015612fb95782860154825560019586019590910190602001612f99565b5085831015612fd75781850154600019600388901b60f8161c191681555b50505060018360011b0184555b5050505050565b634e487b7160e01b600052603160045260246000fd5b600083516130138184602088016122b6565b8351908301906130278183602088016122b6565b0194935050505056fea264697066735822122061f8f07054ee3a2d9a71872f7ff8a9dc2f86a362579cf974a5c1acbbce2c412f64736f6c63430008140033","linkReferences":{}},"methodIdentifiers":{"assign(string,address,uint256)":"4534ba17","bridge_address()":"1255c189","burn(string,uint256)":"b48272cc","getAllAssetsIDs()":"5137b8a7","getToken(string)":"c1733f68","lock(string,uint256)":"e1efb596","mint(string,uint256)":"056b01ce","owner()":"8da5cb5b","renounceOwnership()":"715018a6","tokens(string)":"04c2320b","tokensInteractions(string,uint8)":"ea8f547f","transferOwnership(address)":"f2fde38b","unlock(string,uint256)":"d9cf884c","unwrap(string)":"a1bc17c5","wrap(string,address,uint8,string,string,address)":"6a0876e0","wrap(string,address,uint8,string,string,address,(uint8,string[],uint8[][],bool)[])":"f272660b"},"id":31}