{
    "contractName": "LockAsset",
    "abi": [
        {
            "inputs": [
                {
                    "internalType": "string",
                    "name": "id",
                    "type": "string"
                },
                {
                    "internalType": "uint256",
                    "name": "size",
                    "type": "uint256"
                }
            ],
            "name": "createAsset",
            "outputs": [],
            "stateMutability": "nonpayable",
            "type": "function"
        },
        {
            "inputs": [
                {
                    "internalType": "string",
                    "name": "id",
                    "type": "string"
                }
            ],
            "name": "deleteAsset",
            "outputs": [],
            "stateMutability": "nonpayable",
            "type": "function"
        },
        {
            "inputs": [
                {
                    "internalType": "string",
                    "name": "id",
                    "type": "string"
                }
            ],
            "name": "getAsset",
            "outputs": [
                {
                    "components": [
                        {
                            "internalType": "address",
                            "name": "creator",
                            "type": "address"
                        },
                        {
                            "internalType": "bool",
                            "name": "isLock",
                            "type": "bool"
                        },
                        {
                            "internalType": "uint256",
                            "name": "size",
                            "type": "uint256"
                        }
                    ],
                    "internalType": "struct Asset",
                    "name": "",
                    "type": "tuple"
                }
            ],
            "stateMutability": "view",
            "type": "function"
        },
        {
            "inputs": [
                {
                    "internalType": "string",
                    "name": "id",
                    "type": "string"
                }
            ],
            "name": "lockAsset",
            "outputs": [],
            "stateMutability": "nonpayable",
            "type": "function"
        },
        {
            "inputs": [
                {
                    "internalType": "string",
                    "name": "id",
                    "type": "string"
                }
            ],
            "name": "unLockAsset",
            "outputs": [],
            "stateMutability": "nonpayable",
            "type": "function"
        }
    ],
    "bytecode": "608060405234801561001057600080fd5b50610475806100206000396000f3fe608060405234801561001057600080fd5b50600436106100575760003560e01c80635e82d0a61461005c578063cd5286d014610071578063db9cc410146100b5578063def60e0d146100c8578063e24aa37c146100db575b600080fd5b61006f61006a3660046103a1565b6100ee565b005b61008461007f3660046103a1565b610164565b6040805182516001600160a01b03168152602080840151151590820152918101519082015260600160405180910390f35b61006f6100c33660046103e3565b6101dc565b61006f6100d63660046103a1565b610266565b61006f6100e93660046103a1565b6102ad565b6000806000848460405161010392919061042f565b9081526020016040518091039020600101541190508061012257600080fd5b60016000848460405161013692919061042f565b9081526040519081900360200190208054911515600160a01b0260ff60a01b19909216919091179055505050565b60408051606081018252600080825260208201819052918101919091526000838360405161019392919061042f565b908152604080516020928190038301812060608201835280546001600160a01b0381168352600160a01b900460ff16151593820193909352600190920154908201529392505050565b600081116101e957600080fd5b80600084846040516101fc92919061042f565b908152602001604051809103902060010181905550336000848460405161022492919061042f565b90815260405190819003602001812080546001600160a01b03939093166001600160a01b0319909316929092179091556000908190610136908690869061042f565b6000806000848460405161027b92919061042f565b9081526020016040518091039020600101541190508061029a57600080fd5b600080848460405161013692919061042f565b600080600084846040516102c292919061042f565b908152602001604051809103902060010154119050806102e157600080fd5b60008084846040516102f492919061042f565b9081526040519081900360200190205460ff600160a01b9091041690508061031b57600080fd5b6000848460405161032d92919061042f565b90815260405190819003602001902080546001600160a81b0319168155600060019091015550505050565b60008083601f84011261036a57600080fd5b50813567ffffffffffffffff81111561038257600080fd5b60208301915083602082850101111561039a57600080fd5b9250929050565b600080602083850312156103b457600080fd5b823567ffffffffffffffff8111156103cb57600080fd5b6103d785828601610358565b90969095509350505050565b6000806000604084860312156103f857600080fd5b833567ffffffffffffffff81111561040f57600080fd5b61041b86828701610358565b909790965060209590950135949350505050565b818382376000910190815291905056fea26469706673582212203e656ee2af105d66466451b5ca09a2a5780b62c439dd43befb63a10687d2423b64736f6c63430008070033",
    "sourcePath": "/Users/jasonwang/cactus-odap-merge/packages/cactus-plugin-ledger-connector-besu/src/test/solidity/hello-world-contract/lock-asset.sol",
    "compiler": {
        "name": "solc",
        "version": "0.8.7+commit.e28d00a7"
    },
    "functionHashes": {
        "createAsset(string,uint256)": "db9cc410",
        "deleteAsset(string)": "e24aa37c",
        "getAsset(string)": "cd5286d0",
        "lockAsset(string)": "5e82d0a6",
        "unLockAsset(string)": "def60e0d"
    },
    "gasEstimates": {
        "creation": {
            "codeDepositCost": "228200",
            "executionCost": "269",
            "totalCost": "228469"
        },
        "external": {
            "createAsset(string,uint256)": "infinite",
            "deleteAsset(string)": "infinite",
            "getAsset(string)": "infinite",
            "lockAsset(string)": "infinite",
            "unLockAsset(string)": "infinite"
        }
    }
}