{
    "contractName": "SayMessageContract",
    "abi": [
        {
            "anonymous": false,
            "inputs": [
                {
                    "indexed": true,
                    "internalType": "bytes32",
                    "name": "messageHash",
                    "type": "bytes32"
                },
                {
                    "indexed": false,
                    "internalType": "string",
                    "name": "message",
                    "type": "string"
                },
                {
                    "indexed": false,
                    "internalType": "uint256",
                    "name": "nonce",
                    "type": "uint256"
                }
            ],
            "name": "SayMessageEvent",
            "type": "event"
        },
        {
            "inputs": [],
            "name": "getNonce",
            "outputs": [
                {
                    "internalType": "uint256",
                    "name": "",
                    "type": "uint256"
                }
            ],
            "stateMutability": "view",
            "type": "function"
        },
        {
            "inputs": [
                {
                    "internalType": "string",
                    "name": "message",
                    "type": "string"
                }
            ],
            "name": "sayMessage",
            "outputs": [],
            "stateMutability": "nonpayable",
            "type": "function"
        }
    ],
    "bytecode": "608060405234156100105760006000fd5b60c0604052600d6080527f4361707461696e4361637475730000000000000000000000000000000000000060a0526000805460027fffffffffffffffffffffffffffffffffffffffffffffffffffffffffffffffff60018316156101000201821604905081601f8211801561008b57610088846100cd565b91505b80156100a4576100a36020601f8501048301836100de565b5b5050506100b4600d60a0516100fc565b8155806001556101eb8061013783398082f35050610135565b60008181526020812090505b919050565b5b818110156100f757600081555b6001810190506100df565b5b5050565b6000826002027fffffffffffffffffffffffffffffffffffffffffffffffffffffffffffffffff846008021c1983161790505b92915050565bfe60806040526004361015156100ea576000803560e01c63312d729681146100305763d087d28881146100b5576100e7565b341561003a578182fd5b60206003193601121561004b578182fd5b60043567ffffffffffffffff80821115610063578384fd5b3660238301121515610073578384fd5b816004013581811115610084578485fd5b366024828501011115610095578485fd5b6100a28160248501610147565b505050816100af8361011c565bf36100e7565b34156100bf578182fd5b6100ca3660046100f4565b6001546100d68361011c565b806100e1838361010a565b0381f350505b50505b60006000fd6101ea565b600081830312156101055760006000fd5b5b5050565b60006020820190508282525b92915050565b6000604051905081810181811067ffffffffffffffff8211171561013c57fe5b80604052505b919050565b60015460011981111561015657fe5b600181019050806001556040516020810184848237848201600060208201528281038352601f1980603f8301169150816040528351832093506040825286604083015286866060840137600060608884010152846020830152837ff5c26b1cc9a84739dbd60b161a529323ec36874573a84b9ffbcadb0ad9e20c8860608484601f8c01168601030184a250505050505b5050565b",
    "deployedBytecode": "",
    "sourcePath": "/Users/andre/Documents/GitHub/cacti/packages/cactus-plugin-ledger-connector-ethereum/src/test/solidity/hello-world-contract-with-event-emission/HelloWorldWithEvent.sol",
    "compiler": {
        "name": "solc",
        "version": "0.7.6+commit.7338295f"
    },
    "functionHashes": {
        "getNonce()": "d087d288",
        "sayMessage(string)": "312d7296"
    }
}