{
    "contractName": "LockAsset",
    "abi": [
        {
            "inputs": [
                {
                    "internalType": "string",
                    "name": "id",
                    "type": "string"
                },
                {
                    "internalType": "uint256",
                    "name": "size",
                    "type": "uint256"
                }
            ],
            "name": "createAsset",
            "outputs": [],
            "stateMutability": "nonpayable",
            "type": "function"
        },
        {
            "inputs": [
                {
                    "internalType": "string",
                    "name": "id",
                    "type": "string"
                }
            ],
            "name": "deleteAsset",
            "outputs": [],
            "stateMutability": "nonpayable",
            "type": "function"
        },
        {
            "inputs": [
                {
                    "internalType": "string",
                    "name": "id",
                    "type": "string"
                }
            ],
            "name": "getAsset",
            "outputs": [
                {
                    "components": [
                        {
                            "internalType": "address",
                            "name": "creator",
                            "type": "address"
                        },
                        {
                            "internalType": "bool",
                            "name": "isLock",
                            "type": "bool"
                        },
                        {
                            "internalType": "uint256",
                            "name": "size",
                            "type": "uint256"
                        }
                    ],
                    "internalType": "struct Asset",
                    "name": "",
                    "type": "tuple"
                }
            ],
            "stateMutability": "view",
            "type": "function"
        },
        {
            "inputs": [
                {
                    "internalType": "string",
                    "name": "id",
                    "type": "string"
                }
            ],
            "name": "isPresent",
            "outputs": [
                {
                    "internalType": "bool",
                    "name": "",
                    "type": "bool"
                }
            ],
            "stateMutability": "view",
            "type": "function"
        },
        {
            "inputs": [
                {
                    "internalType": "string",
                    "name": "id",
                    "type": "string"
                }
            ],
            "name": "lockAsset",
            "outputs": [],
            "stateMutability": "nonpayable",
            "type": "function"
        },
        {
            "inputs": [
                {
                    "internalType": "string",
                    "name": "id",
                    "type": "string"
                }
            ],
            "name": "unLockAsset",
            "outputs": [],
            "stateMutability": "nonpayable",
            "type": "function"
        }
    ],
    "bytecode": "608060405234801561001057600080fd5b5061057e806100206000396000f3fe608060405234801561001057600080fd5b50600436106100625760003560e01c80635e82d0a614610067578063bc5482751461007c578063cd5286d0146100a5578063db9cc410146100c5578063def60e0d146100d8578063e24aa37c146100eb575b600080fd5b61007a610075366004610477565b6100fe565b005b61008f61008a366004610477565b610173565b60405161009c9190610511565b60405180910390f35b6100b86100b3366004610477565b6101a2565b60405161009c919061051c565b61007a6100d33660046104b7565b610205565b61007a6100e6366004610477565b6102f0565b61007a6100f9366004610477565b610336565b600060018383604051610112929190610501565b9081526040519081900360200190205460ff1690508061013157600080fd5b600160008484604051610145929190610501565b9081526040519081900360200190208054911515600160a01b0260ff60a01b19909216919091179055505050565b600060018383604051610187929190610501565b9081526040519081900360200190205460ff16905092915050565b6101aa610410565b600083836040516101bc929190610501565b908152604080516020928190038301812060608201835280546001600160a01b0381168352600160a01b900460ff16151593820193909352600190920154908201529392505050565b6000811161021257600080fd5b8060008484604051610225929190610501565b908152602001604051809103902060010181905550336000848460405161024d929190610501565b90815260405190819003602001812080546001600160a01b03939093166001600160a01b031990931692909217909155600090819061028f9086908690610501565b9081526040519081900360200181208054921515600160a01b0260ff60a01b199093169290921790915560019081906102cb9086908690610501565b908152604051908190036020019020805491151560ff19909216919091179055505050565b600060018383604051610304929190610501565b9081526040519081900360200190205460ff1690508061032357600080fd5b6000808484604051610145929190610501565b60006001838360405161034a929190610501565b9081526040519081900360200190205460ff1690508061036957600080fd5b600080848460405161037c929190610501565b9081526040519081900360200190205460ff600160a01b909104169050806103a357600080fd5b600084846040516103b5929190610501565b90815260405190819003602001812080546001600160a81b031916815560006001918201819055916103ea9087908790610501565b908152604051908190036020019020805491151560ff1990921691909117905550505050565b604080516060810182526000808252602082018190529181019190915290565b60008083601f840112610441578182fd5b50813567ffffffffffffffff811115610458578182fd5b60208301915083602082850101111561047057600080fd5b9250929050565b60008060208385031215610489578182fd5b823567ffffffffffffffff81111561049f578283fd5b6104ab85828601610430565b90969095509350505050565b6000806000604084860312156104cb578081fd5b833567ffffffffffffffff8111156104e1578182fd5b6104ed86828701610430565b909790965060209590950135949350505050565b6000828483379101908152919050565b901515815260200190565b81516001600160a01b03168152602080830151151590820152604091820151918101919091526060019056fea2646970667358221220b5f775906e8b1a0886fce5dcca04561f86c492a095697545bb2365d7364dd33364736f6c63430008000033",
    "sourcePath": "/home/andre_9a/cactus/packages/cactus-plugin-odap-hermes/src/test/solidity/lock-asset-contract/lock-asset.sol",
    "compiler": {
        "name": "solc",
        "version": "0.8.0+commit.c7dfd78e"
    },
    "functionHashes": {
        "createAsset(string,uint256)": "db9cc410",
        "deleteAsset(string)": "e24aa37c",
        "getAsset(string)": "cd5286d0",
        "isPresent(string)": "bc548275",
        "lockAsset(string)": "5e82d0a6",
        "unLockAsset(string)": "def60e0d"
    },
    "gasEstimates": {
        "creation": {
            "codeDepositCost": "281200",
            "executionCost": "318",
            "totalCost": "281518"
        },
        "external": {
            "createAsset(string,uint256)": "infinite",
            "deleteAsset(string)": "infinite",
            "getAsset(string)": "infinite",
            "isPresent(string)": "infinite",
            "lockAsset(string)": "infinite",
            "unLockAsset(string)": "infinite"
        }
    }
}