{"abi":[{"type":"constructor","inputs":[],"stateMutability":"nonpayable"},{"type":"function","name":"CUSTOMER_ROLE","inputs":[],"outputs":[{"name":"","type":"bytes32","internalType":"bytes32"}],"stateMutability":"view"},{"type":"function","name":"MANUFACTURER_ROLE","inputs":[],"outputs":[{"name":"","type":"bytes32","internalType":"bytes32"}],"stateMutability":"view"},{"type":"function","name":"addCustomer","inputs":[{"name":"account","type":"address","internalType":"address"}],"outputs":[],"stateMutability":"nonpayable"},{"type":"function","name":"addManufacturer","inputs":[{"name":"account","type":"address","internalType":"address"}],"outputs":[],"stateMutability":"nonpayable"},{"type":"function","name":"addManufacturers","inputs":[{"name":"accounts","type":"address[]","internalType":"address[]"}],"outputs":[],"stateMutability":"nonpayable"},{"type":"function","name":"getFabricIdentity","inputs":[{"name":"account","type":"address","internalType":"address"}],"outputs":[{"name":"","type":"string","internalType":"string"}],"stateMutability":"view"},{"type":"function","name":"getManufacturerFabricIdentity","inputs":[{"name":"account","type":"address","internalType":"address"}],"outputs":[{"name":"identity","type":"string","internalType":"string"},{"name":"mspId","type":"string","internalType":"string"}],"stateMutability":"view"},{"type":"function","name":"getMspId","inputs":[{"name":"account","type":"address","internalType":"address"}],"outputs":[{"name":"","type":"string","internalType":"string"}],"stateMutability":"view"},{"type":"function","name":"grantRole","inputs":[{"name":"role","type":"bytes32","internalType":"bytes32"},{"name":"account","type":"address","internalType":"address"},{"name":"fabricIdentity","type":"string","internalType":"string"},{"name":"mspId","type":"string","internalType":"string"}],"outputs":[],"stateMutability":"nonpayable"},{"type":"function","name":"hasRole","inputs":[{"name":"role","type":"bytes32","internalType":"bytes32"},{"name":"account","type":"address","internalType":"address"}],"outputs":[{"name":"","type":"bool","internalType":"bool"}],"stateMutability":"view"},{"type":"function","name":"isCustomer","inputs":[{"name":"account","type":"address","internalType":"address"}],"outputs":[{"name":"","type":"bool","internalType":"bool"}],"stateMutability":"view"},{"type":"function","name":"isManufacturer","inputs":[{"name":"account","type":"address","internalType":"address"}],"outputs":[{"name":"","type":"bool","internalType":"bool"}],"stateMutability":"view"},{"type":"function","name":"revokeRole","inputs":[{"name":"role","type":"bytes32","internalType":"bytes32"},{"name":"account","type":"address","internalType":"address"}],"outputs":[],"stateMutability":"nonpayable"},{"type":"function","name":"transferAdmin","inputs":[{"name":"newAdmin","type":"address","internalType":"address"}],"outputs":[],"stateMutability":"nonpayable"},{"type":"event","name":"AdminTransferred","inputs":[{"name":"previousAdmin","type":"address","indexed":true,"internalType":"address"},{"name":"newAdmin","type":"address","indexed":true,"internalType":"address"}],"anonymous":false},{"type":"event","name":"RoleGranted","inputs":[{"name":"role","type":"bytes32","indexed":true,"internalType":"bytes32"},{"name":"account","type":"address","indexed":true,"internalType":"address"},{"name":"fabricIdentity","type":"string","indexed":false,"internalType":"string"},{"name":"mspId","type":"string","indexed":false,"internalType":"string"}],"anonymous":false},{"type":"event","name":"RoleRevoked","inputs":[{"name":"role","type":"bytes32","indexed":true,"internalType":"bytes32"},{"name":"account","type":"address","indexed":true,"internalType":"address"}],"anonymous":false}],"bytecode":{"object":"0x6080604052348015600f57600080fd5b50600380546001600160a01b031916339081179091556040516000907ff8ccb027dfcd135e000e9d45e6cc2d662578a8825d4c45b5e32e0adf67e79ec6908290a3610f5f8061005f6000396000f3fe608060405234801561001057600080fd5b50600436106100ea5760003560e01c806375829def1161008c578063ad973d7411610066578063ad973d7414610288578063ccd38d571461029b578063d547741f146102bc578063d91043c3146102cf57600080fd5b806375829def1461022c57806391d148541461023f578063965288b01461027357600080fd5b8063204d7923116100c8578063204d79231461016f57806328fd5e83146101a45780632f5965f8146101f95780635f8a5afa1461021957600080fd5b80630a3ac0af146100ef57806311bb8b961461010457806317d4a49114610117575b600080fd5b6101026100fd366004610b26565b6102e2565b005b610102610112366004610ba9565b610327565b61015a610125366004610c5d565b6001600160a01b0316600090815260208181526040808320600080516020610f0a833981519152845290915290205460ff1690565b60405190151581526020015b60405180910390f35b6101967f46e0d1fa2be0423550e96859e7c25c6f3178358b189469f16373069e7f092a0a81565b604051908152602001610166565b61015a6101b2366004610c5d565b6001600160a01b03166000908152602081815260408083207f46e0d1fa2be0423550e96859e7c25c6f3178358b189469f16373069e7f092a0a845290915290205460ff1690565b61020c610207366004610c5d565b610423565b6040516101669190610cc5565b610102610227366004610c5d565b6104cf565b61010261023a366004610c5d565b610578565b61015a61024d366004610cd8565b6001600160a01b0316600090815260208181526040808320938352929052205460ff1690565b610196600080516020610f0a83398151915281565b610102610296366004610c5d565b610659565b6102ae6102a9366004610c5d565b610711565b604051610166929190610d04565b6101026102ca366004610cd8565b6108da565b61020c6102dd366004610c5d565b610958565b6003546001600160a01b031633146103155760405162461bcd60e51b815260040161030c90610d32565b60405180910390fd5b6103218484848461097f565b50505050565b6003546001600160a01b031633146103515760405162461bcd60e51b815260040161030c90610d32565b60005b815181101561041f5760006001600160a01b031682828151811061037a5761037a610d67565b60200260200101516001600160a01b0316036103a85760405162461bcd60e51b815260040161030c90610d7d565b610417600080516020610f0a8339815191528383815181106103cc576103cc610d67565b6020026020010151604051806040016040528060058152602001643ab9b2b91960d91b8152506040518060400160405280600781526020016604f7267324d53560cc1b81525061097f565b600101610354565b5050565b6001600160a01b038116600090815260026020526040902080546060919061044a90610dc1565b80601f016020809104026020016040519081016040528092919081815260200182805461047690610dc1565b80156104c35780601f10610498576101008083540402835291602001916104c3565b820191906000526020600020905b8154815290600101906020018083116104a657829003601f168201915b50505050509050919050565b6003546001600160a01b031633146104f95760405162461bcd60e51b815260040161030c90610d32565b6001600160a01b03811661051f5760405162461bcd60e51b815260040161030c90610d7d565b610575600080516020610f0a83398151915282604051806040016040528060058152602001643ab9b2b91960d91b8152506040518060400160405280600781526020016604f7267324d53560cc1b81525061097f565b50565b6003546001600160a01b031633146105a25760405162461bcd60e51b815260040161030c90610d32565b6001600160a01b0381166106075760405162461bcd60e51b815260206004820152602660248201527f526f6c654d616e616765723a206e65772061646d696e206973207a65726f206160448201526564647265737360d01b606482015260840161030c565b600380546001600160a01b038381166001600160a01b0319831681179093556040519116919082907ff8ccb027dfcd135e000e9d45e6cc2d662578a8825d4c45b5e32e0adf67e79ec690600090a35050565b6003546001600160a01b031633146106835760405162461bcd60e51b815260040161030c90610d32565b6001600160a01b0381166106a95760405162461bcd60e51b815260040161030c90610d7d565b6105757f46e0d1fa2be0423550e96859e7c25c6f3178358b189469f16373069e7f092a0a8260405180604001604052806005815260200164757365723160d81b8152506040518060400160405280600781526020016604f7267314d53560cc1b81525061097f565b6001600160a01b038116600090815260208181526040808320600080516020610f0a8339815191528452909152902054606090819060ff166107955760405162461bcd60e51b815260206004820152601d60248201527f4163636f756e74206973206e6f742061206d616e756661637475726572000000604482015260640161030c565b6001600160a01b03831660009081526001602090815260408083206002909252909120815482906107c590610dc1565b80601f01602080910402602001604051908101604052809291908181526020018280546107f190610dc1565b801561083e5780601f106108135761010080835404028352916020019161083e565b820191906000526020600020905b81548152906001019060200180831161082157829003601f168201915b5050505050915080805461085190610dc1565b80601f016020809104026020016040519081016040528092919081815260200182805461087d90610dc1565b80156108ca5780601f1061089f576101008083540402835291602001916108ca565b820191906000526020600020905b8154815290600101906020018083116108ad57829003601f168201915b5050505050905091509150915091565b6003546001600160a01b031633146109045760405162461bcd60e51b815260040161030c90610d32565b6001600160a01b038116600081815260208181526040808320868452909152808220805460ff191690555184917f155aaafb6329a2098580462df33ec4b7441b19729b9601c5fc17ae1cf99a8a5291a35050565b6001600160a01b038116600090815260016020526040902080546060919061044a90610dc1565b6001600160a01b0383166109a55760405162461bcd60e51b815260040161030c90610d7d565b6001600160a01b0383166000818152602081815260408083208884528252808320805460ff19166001908117909155938352929052206109e58382610e4a565b506001600160a01b0383166000908152600260205260409020610a088282610e4a565b50826001600160a01b0316847f52d356082b2d6e23b0695673fa96121f1551077575ff52ab848392f38275787e8484604051610a45929190610d04565b60405180910390a350505050565b80356001600160a01b0381168114610a6a57600080fd5b919050565b634e487b7160e01b600052604160045260246000fd5b604051601f8201601f1916810167ffffffffffffffff81118282101715610aae57610aae610a6f565b604052919050565b600082601f830112610ac757600080fd5b813567ffffffffffffffff811115610ae157610ae1610a6f565b610af4601f8201601f1916602001610a85565b818152846020838601011115610b0957600080fd5b816020850160208301376000918101602001919091529392505050565b60008060008060808587031215610b3c57600080fd5b84359350610b4c60208601610a53565b9250604085013567ffffffffffffffff811115610b6857600080fd5b610b7487828801610ab6565b925050606085013567ffffffffffffffff811115610b9157600080fd5b610b9d87828801610ab6565b91505092959194509250565b600060208284031215610bbb57600080fd5b813567ffffffffffffffff811115610bd257600080fd5b8201601f81018413610be357600080fd5b803567ffffffffffffffff811115610bfd57610bfd610a6f565b8060051b610c0d60208201610a85565b91825260208184018101929081019087841115610c2957600080fd5b6020850194505b83851015610c5257610c4185610a53565b825260209485019490910190610c30565b979650505050505050565b600060208284031215610c6f57600080fd5b610c7882610a53565b9392505050565b6000815180845260005b81811015610ca557602081850181015186830182015201610c89565b506000602082860101526020601f19601f83011685010191505092915050565b602081526000610c786020830184610c7f565b60008060408385031215610ceb57600080fd5b82359150610cfb60208401610a53565b90509250929050565b604081526000610d176040830185610c7f565b8281036020840152610d298185610c7f565b95945050505050565b6020808252818101527f526f6c654d616e616765723a2063616c6c6572206973206e6f742061646d696e604082015260600190565b634e487b7160e01b600052603260045260246000fd5b60208082526024908201527f526f6c654d616e616765723a206163636f756e74206973207a65726f206164646040820152637265737360e01b606082015260800190565b600181811c90821680610dd557607f821691505b602082108103610df557634e487b7160e01b600052602260045260246000fd5b50919050565b601f821115610e4557806000526020600020601f840160051c81016020851015610e225750805b601f840160051c820191505b81811015610e425760008155600101610e2e565b50505b505050565b815167ffffffffffffffff811115610e6457610e64610a6f565b610e7881610e728454610dc1565b84610dfb565b6020601f821160018114610eac5760008315610e945750848201515b600019600385901b1c1916600184901b178455610e42565b600084815260208120601f198516915b82811015610edc5787850151825560209485019460019092019101610ebc565b5084821015610efa5786840151600019600387901b60f8161c191681555b50505050600190811b0190555056fe6659d833875b88922d2576dad6c137a09ba676496bb2010bf8a72397792167a0a2646970667358221220ef7d23ca75e3f0f083fde59d336809bf99786241a0bd536352a134283509a31b64736f6c634300081c0033","linkReferences":{}},"methodIdentifiers":{"CUSTOMER_ROLE()":"204d7923","MANUFACTURER_ROLE()":"965288b0","addCustomer(address)":"ad973d74","addManufacturer(address)":"5f8a5afa","addManufacturers(address[])":"11bb8b96","getFabricIdentity(address)":"d91043c3","getManufacturerFabricIdentity(address)":"ccd38d57","getMspId(address)":"2f5965f8","grantRole(bytes32,address,string,string)":"0a3ac0af","hasRole(bytes32,address)":"91d14854","isCustomer(address)":"28fd5e83","isManufacturer(address)":"17d4a491","revokeRole(bytes32,address)":"d547741f","transferAdmin(address)":"75829def"},"id":0}