{
    "contractName": "HelloWorld",
    "abi": [
        {
            "inputs": [],
            "name": "getName",
            "outputs": [
                {
                    "internalType": "string",
                    "name": "",
                    "type": "string"
                }
            ],
            "stateMutability": "view",
            "type": "function"
        },
        {
            "inputs": [],
            "name": "sayHello",
            "outputs": [
                {
                    "internalType": "string",
                    "name": "",
                    "type": "string"
                }
            ],
            "stateMutability": "pure",
            "type": "function"
        },
        {
            "inputs": [
                {
                    "internalType": "string",
                    "name": "newName",
                    "type": "string"
                }
            ],
            "name": "setName",
            "outputs": [],
            "stateMutability": "nonpayable",
            "type": "function"
        }
    ],
    "bytecode": "60c0604052600d60808190526c4361707461696e43616374757360981b60a090815261002e9160009190610041565b5034801561003b57600080fd5b506100d4565b828054600181600116156101000203166002900490600052602060002090601f016020900481019282601f1061008257805160ff19168380011785556100af565b828001600101855582156100af579182015b828111156100af578251825591602001919060010190610094565b506100bb9291506100bf565b5090565b5b808211156100bb57600081556001016100c0565b61030f806100e36000396000f3fe608060405234801561001057600080fd5b50600436106100415760003560e01c806317d7de7c14610046578063c47f0027146100c3578063ef5fb05b1461016b575b600080fd5b61004e610173565b6040805160208082528351818301528351919283929083019185019080838360005b83811015610088578181015183820152602001610070565b50505050905090810190601f1680156100b55780820380516001836020036101000a031916815260200191505b509250505060405180910390f35b610169600480360360208110156100d957600080fd5b8101906020810181356401000000008111156100f457600080fd5b82018360208201111561010657600080fd5b8035906020019184600183028401116401000000008311171561012857600080fd5b91908080601f016020809104026020016040519081016040528093929190818152602001838380828437600092019190915250929550610209945050505050565b005b61004e610220565b60008054604080516020601f60026000196101006001881615020190951694909404938401819004810282018101909252828152606093909290918301828280156101ff5780601f106101d4576101008083540402835291602001916101ff565b820191906000526020600020905b8154815290600101906020018083116101e257829003601f168201915b5050505050905090565b805161021c906000906020840190610246565b5050565b60408051808201909152600c81526b48656c6c6f20576f726c642160a01b602082015290565b828054600181600116156101000203166002900490600052602060002090601f016020900481019282601f1061028757805160ff19168380011785556102b4565b828001600101855582156102b4579182015b828111156102b4578251825591602001919060010190610299565b506102c09291506102c4565b5090565b5b808211156102c057600081556001016102c556fea2646970667358221220b72c0e77fdf429e47051940ba62646ae01296865473f15795ffca6619fe80f9964736f6c63430007020033",
    "sourcePath": "/home/peter/a/blockchain/blockchain-integration-framework/packages/cactus-test-plugin-ledger-connector-quorum/src/test/solidity/hello-world-contract/HelloWorld.sol",
    "compiler": {
        "name": "solc",
        "version": "0.7.2+commit.51b20bc0"
    },
    "functionHashes": {
        "getName()": "17d7de7c",
        "sayHello()": "ef5fb05b",
        "setName(string)": "c47f0027"
    },
    "gasEstimates": {
        "creation": {
            "codeDepositCost": "156600",
            "executionCost": "infinite",
            "totalCost": "infinite"
        },
        "external": {
            "getName()": "infinite",
            "sayHello()": "infinite",
            "setName(string)": "infinite"
        }
    }
}