{"abi":[{"type":"constructor","inputs":[{"name":"_owner","type":"address","internalType":"address"}],"stateMutability":"nonpayable"},{"type":"function","name":"BRIDGE_ROLE","inputs":[],"outputs":[{"name":"","type":"bytes32","internalType":"bytes32"}],"stateMutability":"view"},{"type":"function","name":"DEFAULT_ADMIN_ROLE","inputs":[],"outputs":[{"name":"","type":"bytes32","internalType":"bytes32"}],"stateMutability":"view"},{"type":"function","name":"OWNER_ROLE","inputs":[],"outputs":[{"name":"","type":"bytes32","internalType":"bytes32"}],"stateMutability":"view"},{"type":"function","name":"assign","inputs":[{"name":"to","type":"address","internalType":"address"},{"name":"amount","type":"uint256","internalType":"uint256"},{"name":"tokenTypeId","type":"uint256","internalType":"uint256"}],"outputs":[{"name":"","type":"bool","internalType":"bool"}],"stateMutability":"nonpayable"},{"type":"function","name":"balances","inputs":[{"name":"","type":"uint256","internalType":"uint256"},{"name":"","type":"address","internalType":"address"}],"outputs":[{"name":"","type":"uint256","internalType":"uint256"}],"stateMutability":"view"},{"type":"function","name":"burn","inputs":[{"name":"from","type":"address","internalType":"address"},{"name":"amount","type":"uint256","internalType":"uint256"},{"name":"tokenTypeId","type":"uint256","internalType":"uint256"}],"outputs":[{"name":"","type":"bool","internalType":"bool"}],"stateMutability":"nonpayable"},{"type":"function","name":"getRoleAdmin","inputs":[{"name":"role","type":"bytes32","internalType":"bytes32"}],"outputs":[{"name":"","type":"bytes32","internalType":"bytes32"}],"stateMutability":"view"},{"type":"function","name":"grantBridgeRole","inputs":[{"name":"account","type":"address","internalType":"address"}],"outputs":[{"name":"","type":"bool","internalType":"bool"}],"stateMutability":"nonpayable"},{"type":"function","name":"grantRole","inputs":[{"name":"role","type":"bytes32","internalType":"bytes32"},{"name":"account","type":"address","internalType":"address"}],"outputs":[],"stateMutability":"nonpayable"},{"type":"function","name":"hasBridgeRole","inputs":[{"name":"account","type":"address","internalType":"address"}],"outputs":[{"name":"","type":"bool","internalType":"bool"}],"stateMutability":"view"},{"type":"function","name":"hasPermission","inputs":[{"name":"account","type":"address","internalType":"address"}],"outputs":[{"name":"","type":"bool","internalType":"bool"}],"stateMutability":"view"},{"type":"function","name":"hasRole","inputs":[{"name":"role","type":"bytes32","internalType":"bytes32"},{"name":"account","type":"address","internalType":"address"}],"outputs":[{"name":"","type":"bool","internalType":"bool"}],"stateMutability":"view"},{"type":"function","name":"lock","inputs":[{"name":"from","type":"address","internalType":"address"},{"name":"to","type":"address","internalType":"address"},{"name":"amount","type":"uint256","internalType":"uint256"},{"name":"tokenTypeId","type":"uint256","internalType":"uint256"}],"outputs":[{"name":"","type":"bool","internalType":"bool"}],"stateMutability":"nonpayable"},{"type":"function","name":"mint","inputs":[{"name":"to","type":"address","internalType":"address"},{"name":"amount","type":"uint256","internalType":"uint256"},{"name":"tokenTypeId","type":"uint256","internalType":"uint256"}],"outputs":[{"name":"","type":"bool","internalType":"bool"}],"stateMutability":"nonpayable"},{"type":"function","name":"name","inputs":[],"outputs":[{"name":"","type":"string","internalType":"string"}],"stateMutability":"pure"},{"type":"function","name":"renounceRole","inputs":[{"name":"role","type":"bytes32","internalType":"bytes32"},{"name":"callerConfirmation","type":"address","internalType":"address"}],"outputs":[],"stateMutability":"nonpayable"},{"type":"function","name":"revokeRole","inputs":[{"name":"role","type":"bytes32","internalType":"bytes32"},{"name":"account","type":"address","internalType":"address"}],"outputs":[],"stateMutability":"nonpayable"},{"type":"function","name":"supportsInterface","inputs":[{"name":"","type":"bytes4","internalType":"bytes4"}],"outputs":[{"name":"","type":"bool","internalType":"bool"}],"stateMutability":"pure"},{"type":"function","name":"symbol","inputs":[],"outputs":[{"name":"","type":"string","internalType":"string"}],"stateMutability":"pure"},{"type":"function","name":"unlock","inputs":[{"name":"from","type":"address","internalType":"address"},{"name":"to","type":"address","internalType":"address"},{"name":"amount","type":"uint256","internalType":"uint256"},{"name":"tokenTypeId","type":"uint256","internalType":"uint256"}],"outputs":[{"name":"","type":"bool","internalType":"bool"}],"stateMutability":"nonpayable"},{"type":"event","name":"RoleAdminChanged","inputs":[{"name":"role","type":"bytes32","indexed":true,"internalType":"bytes32"},{"name":"previousAdminRole","type":"bytes32","indexed":true,"internalType":"bytes32"},{"name":"newAdminRole","type":"bytes32","indexed":true,"internalType":"bytes32"}],"anonymous":false},{"type":"event","name":"RoleGranted","inputs":[{"name":"role","type":"bytes32","indexed":true,"internalType":"bytes32"},{"name":"account","type":"address","indexed":true,"internalType":"address"},{"name":"sender","type":"address","indexed":true,"internalType":"address"}],"anonymous":false},{"type":"event","name":"RoleRevoked","inputs":[{"name":"role","type":"bytes32","indexed":true,"internalType":"bytes32"},{"name":"account","type":"address","indexed":true,"internalType":"address"},{"name":"sender","type":"address","indexed":true,"internalType":"address"}],"anonymous":false},{"type":"error","name":"AccessControlBadConfirmation","inputs":[]},{"type":"error","name":"AccessControlUnauthorizedAccount","inputs":[{"name":"account","type":"address","internalType":"address"},{"name":"neededRole","type":"bytes32","internalType":"bytes32"}]}],"bytecode":{"object":"0x608060405234801561001057600080fd5b50604051610dac380380610dac83398101604081905261002f91610137565b6100597fb19546dff01e856fb3f010c267a7b1c60363cf8a4664e21cc89c26224620214e8261008b565b506100847f52ba824bfabc2bcfcdf7f0edbb486ebb05e1836c90e78047efeb949990f72e5f8261008b565b5050610167565b6000828152602081815260408083206001600160a01b038516845290915281205460ff1661012d576000838152602081815260408083206001600160a01b03861684529091529020805460ff191660011790556100e53390565b6001600160a01b0316826001600160a01b0316847f2f8788117e7eff1d82e926ec794901d17c78024a50270940304540a733656f0d60405160405180910390a4506001610131565b5060005b92915050565b60006020828403121561014957600080fd5b81516001600160a01b038116811461016057600080fd5b9392505050565b610c36806101766000396000f3fe608060405234801561001057600080fd5b506004361061016c5760003560e01c806395d89b41116100cd578063d547741f11610081578063ea13407111610066578063ea13407114610361578063f132e80014610374578063f5298aca1461038757600080fd5b8063d547741f14610327578063e58378bb1461033a57600080fd5b8063a217fddf116100b2578063a217fddf146102e5578063a5e99b8e146102ed578063b5bfddea1461030057600080fd5b806395d89b411461029957806397128e00146102d257600080fd5b80632f2ff15d116101245780634202e907116101095780634202e907146102735780634b86c2251461027357806391d148541461028657600080fd5b80632f2ff15d1461024b57806336568abe1461026057600080fd5b8063156e29f611610155578063156e29f6146101dc5780631f320331146101ef578063248a9ca31461022857600080fd5b806301ffc9a71461017157806306fdde031461019a575b600080fd5b61018561017f366004610a23565b50600090565b60405190151581526020015b60405180910390f35b60408051808201909152600d81527f5341544d756c7469546f6b656e0000000000000000000000000000000000000060208201525b6040516101919190610a6c565b6101856101ea366004610ad6565b61039a565b61021a6101fd366004610b09565b600160209081526000928352604080842090915290825290205481565b604051908152602001610191565b61021a610236366004610b35565b60009081526020819052604090206001015490565b61025e610259366004610b09565b610408565b005b61025e61026e366004610b09565b610433565b610185610281366004610b4e565b610484565b610185610294366004610b09565b6105a1565b60408051808201909152600581527f5341544d5400000000000000000000000000000000000000000000000000000060208201526101cf565b6101856102e0366004610b90565b6105cc565b61021a600081565b6101856102fb366004610b90565b6105f8565b61021a7f52ba824bfabc2bcfcdf7f0edbb486ebb05e1836c90e78047efeb949990f72e5f81565b61025e610335366004610b09565b610658565b61021a7fb19546dff01e856fb3f010c267a7b1c60363cf8a4664e21cc89c26224620214e81565b61018561036f366004610b90565b61067d565b610185610382366004610ad6565b6106fe565b610185610395366004610ad6565b6107f3565b60007f52ba824bfabc2bcfcdf7f0edbb486ebb05e1836c90e78047efeb949990f72e5f6103c6816108c3565b60008381526001602090815260408083206001600160a01b0389168452909152812080548692906103f8908490610bda565b9091555060019695505050505050565b600082815260208190526040902060010154610423816108c3565b61042d83836108d0565b50505050565b6001600160a01b0381163314610475576040517f6697b23200000000000000000000000000000000000000000000000000000000815260040160405180910390fd5b61047f8282610962565b505050565b60007f52ba824bfabc2bcfcdf7f0edbb486ebb05e1836c90e78047efeb949990f72e5f6104b0816108c3565b60008381526001602090815260408083206001600160a01b038a1684529091529020548411156105275760405162461bcd60e51b815260206004820152601460248201527f496e73756666696369656e742062616c616e636500000000000000000000000060448201526064015b60405180910390fd5b60008381526001602090815260408083206001600160a01b038a16845290915281208054869290610559908490610bed565b909155505060008381526001602090815260408083206001600160a01b038916845290915281208054869290610590908490610bda565b909155506001979650505050505050565b6000828152602081815260408083206001600160a01b038516845290915290205460ff165b92915050565b60006105c67f52ba824bfabc2bcfcdf7f0edbb486ebb05e1836c90e78047efeb949990f72e5f836105a1565b60007fb19546dff01e856fb3f010c267a7b1c60363cf8a4664e21cc89c26224620214e610624816108c3565b61064e7f52ba824bfabc2bcfcdf7f0edbb486ebb05e1836c90e78047efeb949990f72e5f846108d0565b5060019392505050565b600082815260208190526040902060010154610673816108c3565b61042d8383610962565b60006106a97f52ba824bfabc2bcfcdf7f0edbb486ebb05e1836c90e78047efeb949990f72e5f836105a1565b156106b657506001919050565b60405162461bcd60e51b815260206004820152600e60248201527f4e6f2062726964676520726f6c65000000000000000000000000000000000000604482015260640161051e565b60007f52ba824bfabc2bcfcdf7f0edbb486ebb05e1836c90e78047efeb949990f72e5f61072a816108c3565b60008381526001602090815260408083203384529091529020548411156107935760405162461bcd60e51b815260206004820152601b60248201527f496e73756666696369656e74206272696467652062616c616e63650000000000604482015260640161051e565b6000838152600160209081526040808320338452909152812080548692906107bc908490610bed565b909155505060008381526001602090815260408083206001600160a01b0389168452909152812080548692906103f8908490610bda565b60007f52ba824bfabc2bcfcdf7f0edbb486ebb05e1836c90e78047efeb949990f72e5f61081f816108c3565b60008381526001602090815260408083206001600160a01b03891684529091529020548411156108915760405162461bcd60e51b815260206004820152601460248201527f496e73756666696369656e742062616c616e6365000000000000000000000000604482015260640161051e565b60008381526001602090815260408083206001600160a01b0389168452909152812080548692906103f8908490610bed565b6108cd81336109cd565b50565b60006108dc83836105a1565b61095a576000838152602081815260408083206001600160a01b03861684529091529020805460ff191660011790556109123390565b6001600160a01b0316826001600160a01b0316847f2f8788117e7eff1d82e926ec794901d17c78024a50270940304540a733656f0d60405160405180910390a45060016105c6565b5060006105c6565b600061096e83836105a1565b1561095a576000838152602081815260408083206001600160a01b0386168085529252808320805460ff1916905551339286917ff6391f5c32d9c69d2a47ea670b442974b53935d1edc7fd64eb21e047a839171b9190a45060016105c6565b6109d782826105a1565b610a1f576040517fe2517d3f0000000000000000000000000000000000000000000000000000000081526001600160a01b03821660048201526024810183905260440161051e565b5050565b600060208284031215610a3557600080fd5b81357fffffffff0000000000000000000000000000000000000000000000000000000081168114610a6557600080fd5b9392505050565b600060208083528351808285015260005b81811015610a9957858101830151858201604001528201610a7d565b506000604082860101526040601f19601f8301168501019250505092915050565b80356001600160a01b0381168114610ad157600080fd5b919050565b600080600060608486031215610aeb57600080fd5b610af484610aba565b95602085013595506040909401359392505050565b60008060408385031215610b1c57600080fd5b82359150610b2c60208401610aba565b90509250929050565b600060208284031215610b4757600080fd5b5035919050565b60008060008060808587031215610b6457600080fd5b610b6d85610aba565b9350610b7b60208601610aba565b93969395505050506040820135916060013590565b600060208284031215610ba257600080fd5b610a6582610aba565b7f4e487b7100000000000000000000000000000000000000000000000000000000600052601160045260246000fd5b808201808211156105c6576105c6610bab565b818103818111156105c6576105c6610bab56fea26469706673582212205439c5aad442dd7f85582cb3fca95086720a9e454525f64e57ad7cdfcc16cb7c64736f6c63430008140033","linkReferences":{}},"methodIdentifiers":{"BRIDGE_ROLE()":"b5bfddea","DEFAULT_ADMIN_ROLE()":"a217fddf","OWNER_ROLE()":"e58378bb","assign(address,uint256,uint256)":"f132e800","balances(uint256,address)":"1f320331","burn(address,uint256,uint256)":"f5298aca","getRoleAdmin(bytes32)":"248a9ca3","grantBridgeRole(address)":"a5e99b8e","grantRole(bytes32,address)":"2f2ff15d","hasBridgeRole(address)":"ea134071","hasPermission(address)":"97128e00","hasRole(bytes32,address)":"91d14854","lock(address,address,uint256,uint256)":"4b86c225","mint(address,uint256,uint256)":"156e29f6","name()":"06fdde03","renounceRole(bytes32,address)":"36568abe","revokeRole(bytes32,address)":"d547741f","supportsInterface(bytes4)":"01ffc9a7","symbol()":"95d89b41","unlock(address,address,uint256,uint256)":"4202e907"},"id":19}