{
                "abi": [
                                {
                                                "inputs": [
                                                                {
                                                                                "internalType": "address",
                                                                                "name": "_owner",
                                                                                "type": "address"
                                                                },
                                                                {
                                                                                "internalType": "string",
                                                                                "name": "_id",
                                                                                "type": "string"
                                                                }
                                                ],
                                                "stateMutability": "nonpayable",
                                                "type": "constructor"
                                },
                                {
                                                "inputs": [],
                                                "name": "AccessControlBadConfirmation",
                                                "type": "error"
                                },
                                {
                                                "inputs": [
                                                                {
                                                                                "internalType": "address",
                                                                                "name": "account",
                                                                                "type": "address"
                                                                },
                                                                {
                                                                                "internalType": "bytes32",
                                                                                "name": "neededRole",
                                                                                "type": "bytes32"
                                                                }
                                                ],
                                                "name": "AccessControlUnauthorizedAccount",
                                                "type": "error"
                                },
                                {
                                                "inputs": [
                                                                {
                                                                                "internalType": "address",
                                                                                "name": "spender",
                                                                                "type": "address"
                                                                },
                                                                {
                                                                                "internalType": "uint256",
                                                                                "name": "allowance",
                                                                                "type": "uint256"
                                                                },
                                                                {
                                                                                "internalType": "uint256",
                                                                                "name": "needed",
                                                                                "type": "uint256"
                                                                }
                                                ],
                                                "name": "ERC20InsufficientAllowance",
                                                "type": "error"
                                },
                                {
                                                "inputs": [
                                                                {
                                                                                "internalType": "address",
                                                                                "name": "sender",
                                                                                "type": "address"
                                                                },
                                                                {
                                                                                "internalType": "uint256",
                                                                                "name": "balance",
                                                                                "type": "uint256"
                                                                },
                                                                {
                                                                                "internalType": "uint256",
                                                                                "name": "needed",
                                                                                "type": "uint256"
                                                                }
                                                ],
                                                "name": "ERC20InsufficientBalance",
                                                "type": "error"
                                },
                                {
                                                "inputs": [
                                                                {
                                                                                "internalType": "address",
                                                                                "name": "approver",
                                                                                "type": "address"
                                                                }
                                                ],
                                                "name": "ERC20InvalidApprover",
                                                "type": "error"
                                },
                                {
                                                "inputs": [
                                                                {
                                                                                "internalType": "address",
                                                                                "name": "receiver",
                                                                                "type": "address"
                                                                }
                                                ],
                                                "name": "ERC20InvalidReceiver",
                                                "type": "error"
                                },
                                {
                                                "inputs": [
                                                                {
                                                                                "internalType": "address",
                                                                                "name": "sender",
                                                                                "type": "address"
                                                                }
                                                ],
                                                "name": "ERC20InvalidSender",
                                                "type": "error"
                                },
                                {
                                                "inputs": [
                                                                {
                                                                                "internalType": "address",
                                                                                "name": "spender",
                                                                                "type": "address"
                                                                }
                                                ],
                                                "name": "ERC20InvalidSpender",
                                                "type": "error"
                                },
                                {
                                                "inputs": [
                                                                {
                                                                                "internalType": "address",
                                                                                "name": "adr",
                                                                                "type": "address"
                                                                }
                                                ],
                                                "name": "noPermission",
                                                "type": "error"
                                },
                                {
                                                "anonymous": false,
                                                "inputs": [
                                                                {
                                                                                "indexed": true,
                                                                                "internalType": "address",
                                                                                "name": "owner",
                                                                                "type": "address"
                                                                },
                                                                {
                                                                                "indexed": true,
                                                                                "internalType": "address",
                                                                                "name": "spender",
                                                                                "type": "address"
                                                                },
                                                                {
                                                                                "indexed": false,
                                                                                "internalType": "uint256",
                                                                                "name": "value",
                                                                                "type": "uint256"
                                                                }
                                                ],
                                                "name": "Approval",
                                                "type": "event"
                                },
                                {
                                                "anonymous": false,
                                                "inputs": [
                                                                {
                                                                                "indexed": true,
                                                                                "internalType": "string",
                                                                                "name": "id",
                                                                                "type": "string"
                                                                },
                                                                {
                                                                                "indexed": false,
                                                                                "internalType": "bytes[]",
                                                                                "name": "value",
                                                                                "type": "bytes[]"
                                                                }
                                                ],
                                                "name": "Changed",
                                                "type": "event"
                                },
                                {
                                                "anonymous": false,
                                                "inputs": [
                                                                {
                                                                                "indexed": true,
                                                                                "internalType": "bytes32",
                                                                                "name": "role",
                                                                                "type": "bytes32"
                                                                },
                                                                {
                                                                                "indexed": true,
                                                                                "internalType": "bytes32",
                                                                                "name": "previousAdminRole",
                                                                                "type": "bytes32"
                                                                },
                                                                {
                                                                                "indexed": true,
                                                                                "internalType": "bytes32",
                                                                                "name": "newAdminRole",
                                                                                "type": "bytes32"
                                                                }
                                                ],
                                                "name": "RoleAdminChanged",
                                                "type": "event"
                                },
                                {
                                                "anonymous": false,
                                                "inputs": [
                                                                {
                                                                                "indexed": true,
                                                                                "internalType": "bytes32",
                                                                                "name": "role",
                                                                                "type": "bytes32"
                                                                },
                                                                {
                                                                                "indexed": true,
                                                                                "internalType": "address",
                                                                                "name": "account",
                                                                                "type": "address"
                                                                },
                                                                {
                                                                                "indexed": true,
                                                                                "internalType": "address",
                                                                                "name": "sender",
                                                                                "type": "address"
                                                                }
                                                ],
                                                "name": "RoleGranted",
                                                "type": "event"
                                },
                                {
                                                "anonymous": false,
                                                "inputs": [
                                                                {
                                                                                "indexed": true,
                                                                                "internalType": "bytes32",
                                                                                "name": "role",
                                                                                "type": "bytes32"
                                                                },
                                                                {
                                                                                "indexed": true,
                                                                                "internalType": "address",
                                                                                "name": "account",
                                                                                "type": "address"
                                                                },
                                                                {
                                                                                "indexed": true,
                                                                                "internalType": "address",
                                                                                "name": "sender",
                                                                                "type": "address"
                                                                }
                                                ],
                                                "name": "RoleRevoked",
                                                "type": "event"
                                },
                                {
                                                "anonymous": false,
                                                "inputs": [
                                                                {
                                                                                "indexed": true,
                                                                                "internalType": "address",
                                                                                "name": "from",
                                                                                "type": "address"
                                                                },
                                                                {
                                                                                "indexed": true,
                                                                                "internalType": "address",
                                                                                "name": "to",
                                                                                "type": "address"
                                                                },
                                                                {
                                                                                "indexed": false,
                                                                                "internalType": "uint256",
                                                                                "name": "value",
                                                                                "type": "uint256"
                                                                }
                                                ],
                                                "name": "Transfer",
                                                "type": "event"
                                },
                                {
                                                "inputs": [],
                                                "name": "BRIDGE_ROLE",
                                                "outputs": [
                                                                {
                                                                                "internalType": "bytes32",
                                                                                "name": "",
                                                                                "type": "bytes32"
                                                                }
                                                ],
                                                "stateMutability": "view",
                                                "type": "function"
                                },
                                {
                                                "inputs": [],
                                                "name": "DEFAULT_ADMIN_ROLE",
                                                "outputs": [
                                                                {
                                                                                "internalType": "bytes32",
                                                                                "name": "",
                                                                                "type": "bytes32"
                                                                }
                                                ],
                                                "stateMutability": "view",
                                                "type": "function"
                                },
                                {
                                                "inputs": [],
                                                "name": "OWNER_ROLE",
                                                "outputs": [
                                                                {
                                                                                "internalType": "bytes32",
                                                                                "name": "",
                                                                                "type": "bytes32"
                                                                }
                                                ],
                                                "stateMutability": "view",
                                                "type": "function"
                                },
                                {
                                                "inputs": [
                                                                {
                                                                                "internalType": "address",
                                                                                "name": "owner",
                                                                                "type": "address"
                                                                },
                                                                {
                                                                                "internalType": "address",
                                                                                "name": "spender",
                                                                                "type": "address"
                                                                }
                                                ],
                                                "name": "allowance",
                                                "outputs": [
                                                                {
                                                                                "internalType": "uint256",
                                                                                "name": "",
                                                                                "type": "uint256"
                                                                }
                                                ],
                                                "stateMutability": "view",
                                                "type": "function"
                                },
                                {
                                                "inputs": [
                                                                {
                                                                                "internalType": "address",
                                                                                "name": "spender",
                                                                                "type": "address"
                                                                },
                                                                {
                                                                                "internalType": "uint256",
                                                                                "name": "value",
                                                                                "type": "uint256"
                                                                }
                                                ],
                                                "name": "approve",
                                                "outputs": [
                                                                {
                                                                                "internalType": "bool",
                                                                                "name": "",
                                                                                "type": "bool"
                                                                }
                                                ],
                                                "stateMutability": "nonpayable",
                                                "type": "function"
                                },
                                {
                                                "inputs": [
                                                                {
                                                                                "internalType": "address",
                                                                                "name": "from",
                                                                                "type": "address"
                                                                },
                                                                {
                                                                                "internalType": "address",
                                                                                "name": "recipient",
                                                                                "type": "address"
                                                                },
                                                                {
                                                                                "internalType": "uint256",
                                                                                "name": "amount",
                                                                                "type": "uint256"
                                                                }
                                                ],
                                                "name": "assign",
                                                "outputs": [
                                                                {
                                                                                "internalType": "bool",
                                                                                "name": "success",
                                                                                "type": "bool"
                                                                }
                                                ],
                                                "stateMutability": "nonpayable",
                                                "type": "function"
                                },
                                {
                                                "inputs": [
                                                                {
                                                                                "internalType": "address",
                                                                                "name": "account",
                                                                                "type": "address"
                                                                }
                                                ],
                                                "name": "balanceOf",
                                                "outputs": [
                                                                {
                                                                                "internalType": "uint256",
                                                                                "name": "",
                                                                                "type": "uint256"
                                                                }
                                                ],
                                                "stateMutability": "view",
                                                "type": "function"
                                },
                                {
                                                "inputs": [
                                                                {
                                                                                "internalType": "address",
                                                                                "name": "account",
                                                                                "type": "address"
                                                                },
                                                                {
                                                                                "internalType": "uint256",
                                                                                "name": "amount",
                                                                                "type": "uint256"
                                                                }
                                                ],
                                                "name": "burn",
                                                "outputs": [
                                                                {
                                                                                "internalType": "bool",
                                                                                "name": "success",
                                                                                "type": "bool"
                                                                }
                                                ],
                                                "stateMutability": "nonpayable",
                                                "type": "function"
                                },
                                {
                                                "inputs": [
                                                                {
                                                                                "internalType": "address",
                                                                                "name": "account",
                                                                                "type": "address"
                                                                }
                                                ],
                                                "name": "checkBalance",
                                                "outputs": [
                                                                {
                                                                                "internalType": "uint256",
                                                                                "name": "",
                                                                                "type": "uint256"
                                                                }
                                                ],
                                                "stateMutability": "view",
                                                "type": "function"
                                },
                                {
                                                "inputs": [],
                                                "name": "decimals",
                                                "outputs": [
                                                                {
                                                                                "internalType": "uint8",
                                                                                "name": "",
                                                                                "type": "uint8"
                                                                }
                                                ],
                                                "stateMutability": "view",
                                                "type": "function"
                                },
                                {
                                                "inputs": [],
                                                "name": "getAllAssetsIDs",
                                                "outputs": [
                                                                {
                                                                                "internalType": "string[]",
                                                                                "name": "",
                                                                                "type": "string[]"
                                                                }
                                                ],
                                                "stateMutability": "view",
                                                "type": "function"
                                },
                                {
                                                "inputs": [],
                                                "name": "getId",
                                                "outputs": [
                                                                {
                                                                                "internalType": "string",
                                                                                "name": "",
                                                                                "type": "string"
                                                                }
                                                ],
                                                "stateMutability": "view",
                                                "type": "function"
                                },
                                {
                                                "inputs": [
                                                                {
                                                                                "internalType": "bytes32",
                                                                                "name": "role",
                                                                                "type": "bytes32"
                                                                }
                                                ],
                                                "name": "getRoleAdmin",
                                                "outputs": [
                                                                {
                                                                                "internalType": "bytes32",
                                                                                "name": "",
                                                                                "type": "bytes32"
                                                                }
                                                ],
                                                "stateMutability": "view",
                                                "type": "function"
                                },
                                {
                                                "inputs": [
                                                                {
                                                                                "internalType": "address",
                                                                                "name": "account",
                                                                                "type": "address"
                                                                }
                                                ],
                                                "name": "giveRole",
                                                "outputs": [
                                                                {
                                                                                "internalType": "bool",
                                                                                "name": "success",
                                                                                "type": "bool"
                                                                }
                                                ],
                                                "stateMutability": "nonpayable",
                                                "type": "function"
                                },
                                {
                                                "inputs": [
                                                                {
                                                                                "internalType": "bytes32",
                                                                                "name": "role",
                                                                                "type": "bytes32"
                                                                },
                                                                {
                                                                                "internalType": "address",
                                                                                "name": "account",
                                                                                "type": "address"
                                                                }
                                                ],
                                                "name": "grantRole",
                                                "outputs": [],
                                                "stateMutability": "nonpayable",
                                                "type": "function"
                                },
                                {
                                                "inputs": [
                                                                {
                                                                                "internalType": "bytes32",
                                                                                "name": "role",
                                                                                "type": "bytes32"
                                                                },
                                                                {
                                                                                "internalType": "address",
                                                                                "name": "account",
                                                                                "type": "address"
                                                                }
                                                ],
                                                "name": "hasPermission",
                                                "outputs": [
                                                                {
                                                                                "internalType": "bool",
                                                                                "name": "success",
                                                                                "type": "bool"
                                                                }
                                                ],
                                                "stateMutability": "view",
                                                "type": "function"
                                },
                                {
                                                "inputs": [
                                                                {
                                                                                "internalType": "bytes32",
                                                                                "name": "role",
                                                                                "type": "bytes32"
                                                                },
                                                                {
                                                                                "internalType": "address",
                                                                                "name": "account",
                                                                                "type": "address"
                                                                }
                                                ],
                                                "name": "hasRole",
                                                "outputs": [
                                                                {
                                                                                "internalType": "bool",
                                                                                "name": "",
                                                                                "type": "bool"
                                                                }
                                                ],
                                                "stateMutability": "view",
                                                "type": "function"
                                },
                                {
                                                "inputs": [],
                                                "name": "id",
                                                "outputs": [
                                                                {
                                                                                "internalType": "string",
                                                                                "name": "",
                                                                                "type": "string"
                                                                }
                                                ],
                                                "stateMutability": "view",
                                                "type": "function"
                                },
                                {
                                                "inputs": [
                                                                {
                                                                                "internalType": "address",
                                                                                "name": "account",
                                                                                "type": "address"
                                                                },
                                                                {
                                                                                "internalType": "uint256",
                                                                                "name": "amount",
                                                                                "type": "uint256"
                                                                }
                                                ],
                                                "name": "mint",
                                                "outputs": [
                                                                {
                                                                                "internalType": "bool",
                                                                                "name": "success",
                                                                                "type": "bool"
                                                                }
                                                ],
                                                "stateMutability": "nonpayable",
                                                "type": "function"
                                },
                                {
                                                "inputs": [],
                                                "name": "name",
                                                "outputs": [
                                                                {
                                                                                "internalType": "string",
                                                                                "name": "",
                                                                                "type": "string"
                                                                }
                                                ],
                                                "stateMutability": "view",
                                                "type": "function"
                                },
                                {
                                                "inputs": [
                                                                {
                                                                                "internalType": "bytes32",
                                                                                "name": "role",
                                                                                "type": "bytes32"
                                                                },
                                                                {
                                                                                "internalType": "address",
                                                                                "name": "callerConfirmation",
                                                                                "type": "address"
                                                                }
                                                ],
                                                "name": "renounceRole",
                                                "outputs": [],
                                                "stateMutability": "nonpayable",
                                                "type": "function"
                                },
                                {
                                                "inputs": [
                                                                {
                                                                                "internalType": "bytes32",
                                                                                "name": "role",
                                                                                "type": "bytes32"
                                                                },
                                                                {
                                                                                "internalType": "address",
                                                                                "name": "account",
                                                                                "type": "address"
                                                                }
                                                ],
                                                "name": "revokeRole",
                                                "outputs": [],
                                                "stateMutability": "nonpayable",
                                                "type": "function"
                                },
                                {
                                                "inputs": [
                                                                {
                                                                                "internalType": "bytes4",
                                                                                "name": "interfaceId",
                                                                                "type": "bytes4"
                                                                }
                                                ],
                                                "name": "supportsInterface",
                                                "outputs": [
                                                                {
                                                                                "internalType": "bool",
                                                                                "name": "",
                                                                                "type": "bool"
                                                                }
                                                ],
                                                "stateMutability": "view",
                                                "type": "function"
                                },
                                {
                                                "inputs": [],
                                                "name": "symbol",
                                                "outputs": [
                                                                {
                                                                                "internalType": "string",
                                                                                "name": "",
                                                                                "type": "string"
                                                                }
                                                ],
                                                "stateMutability": "view",
                                                "type": "function"
                                },
                                {
                                                "inputs": [],
                                                "name": "totalSupply",
                                                "outputs": [
                                                                {
                                                                                "internalType": "uint256",
                                                                                "name": "",
                                                                                "type": "uint256"
                                                                }
                                                ],
                                                "stateMutability": "view",
                                                "type": "function"
                                },
                                {
                                                "inputs": [
                                                                {
                                                                                "internalType": "address",
                                                                                "name": "to",
                                                                                "type": "address"
                                                                },
                                                                {
                                                                                "internalType": "uint256",
                                                                                "name": "value",
                                                                                "type": "uint256"
                                                                }
                                                ],
                                                "name": "transfer",
                                                "outputs": [
                                                                {
                                                                                "internalType": "bool",
                                                                                "name": "",
                                                                                "type": "bool"
                                                                }
                                                ],
                                                "stateMutability": "nonpayable",
                                                "type": "function"
                                },
                                {
                                                "inputs": [
                                                                {
                                                                                "internalType": "address",
                                                                                "name": "from",
                                                                                "type": "address"
                                                                },
                                                                {
                                                                                "internalType": "address",
                                                                                "name": "recipient",
                                                                                "type": "address"
                                                                },
                                                                {
                                                                                "internalType": "uint256",
                                                                                "name": "amount",
                                                                                "type": "uint256"
                                                                }
                                                ],
                                                "name": "transfer",
                                                "outputs": [
                                                                {
                                                                                "internalType": "bool",
                                                                                "name": "success",
                                                                                "type": "bool"
                                                                }
                                                ],
                                                "stateMutability": "nonpayable",
                                                "type": "function"
                                },
                                {
                                                "inputs": [
                                                                {
                                                                                "internalType": "address",
                                                                                "name": "from",
                                                                                "type": "address"
                                                                },
                                                                {
                                                                                "internalType": "address",
                                                                                "name": "to",
                                                                                "type": "address"
                                                                },
                                                                {
                                                                                "internalType": "uint256",
                                                                                "name": "value",
                                                                                "type": "uint256"
                                                                }
                                                ],
                                                "name": "transferFrom",
                                                "outputs": [
                                                                {
                                                                                "internalType": "bool",
                                                                                "name": "",
                                                                                "type": "bool"
                                                                }
                                                ],
                                                "stateMutability": "nonpayable",
                                                "type": "function"
                                }
                ],
                "devdoc": {
                                "errors": {
                                                "AccessControlBadConfirmation()": [
                                                                {
                                                                                "details": "The caller of a function is not the expected one. NOTE: Don't confuse with {AccessControlUnauthorizedAccount}."
                                                                }
                                                ],
                                                "AccessControlUnauthorizedAccount(address,bytes32)": [
                                                                {
                                                                                "details": "The `account` is missing a role."
                                                                }
                                                ],
                                                "ERC20InsufficientAllowance(address,uint256,uint256)": [
                                                                {
                                                                                "details": "Indicates a failure with the `spender`’s `allowance`. Used in transfers.",
                                                                                "params": {
                                                                                                "allowance": "Amount of tokens a `spender` is allowed to operate with.",
                                                                                                "needed": "Minimum amount required to perform a transfer.",
                                                                                                "spender": "Address that may be allowed to operate on tokens without being their owner."
                                                                                }
                                                                }
                                                ],
                                                "ERC20InsufficientBalance(address,uint256,uint256)": [
                                                                {
                                                                                "details": "Indicates an error related to the current `balance` of a `sender`. Used in transfers.",
                                                                                "params": {
                                                                                                "balance": "Current balance for the interacting account.",
                                                                                                "needed": "Minimum amount required to perform a transfer.",
                                                                                                "sender": "Address whose tokens are being transferred."
                                                                                }
                                                                }
                                                ],
                                                "ERC20InvalidApprover(address)": [
                                                                {
                                                                                "details": "Indicates a failure with the `approver` of a token to be approved. Used in approvals.",
                                                                                "params": {
                                                                                                "approver": "Address initiating an approval operation."
                                                                                }
                                                                }
                                                ],
                                                "ERC20InvalidReceiver(address)": [
                                                                {
                                                                                "details": "Indicates a failure with the token `receiver`. Used in transfers.",
                                                                                "params": {
                                                                                                "receiver": "Address to which tokens are being transferred."
                                                                                }
                                                                }
                                                ],
                                                "ERC20InvalidSender(address)": [
                                                                {
                                                                                "details": "Indicates a failure with the token `sender`. Used in transfers.",
                                                                                "params": {
                                                                                                "sender": "Address whose tokens are being transferred."
                                                                                }
                                                                }
                                                ],
                                                "ERC20InvalidSpender(address)": [
                                                                {
                                                                                "details": "Indicates a failure with the `spender` to be approved. Used in approvals.",
                                                                                "params": {
                                                                                                "spender": "Address that may be allowed to operate on tokens without being their owner."
                                                                                }
                                                                }
                                                ]
                                },
                                "events": {
                                                "Approval(address,address,uint256)": {
                                                                "details": "Emitted when the allowance of a `spender` for an `owner` is set by a call to {approve}. `value` is the new allowance."
                                                },
                                                "RoleAdminChanged(bytes32,bytes32,bytes32)": {
                                                                "details": "Emitted when `newAdminRole` is set as ``role``'s admin role, replacing `previousAdminRole` `DEFAULT_ADMIN_ROLE` is the starting admin for all roles, despite {RoleAdminChanged} not being emitted signaling this."
                                                },
                                                "RoleGranted(bytes32,address,address)": {
                                                                "details": "Emitted when `account` is granted `role`. `sender` is the account that originated the contract call, an admin role bearer except when using {AccessControl-_setupRole}."
                                                },
                                                "RoleRevoked(bytes32,address,address)": {
                                                                "details": "Emitted when `account` is revoked `role`. `sender` is the account that originated the contract call:   - if using `revokeRole`, it is the admin role bearer   - if using `renounceRole`, it is the role bearer (i.e. `account`)"
                                                },
                                                "Transfer(address,address,uint256)": {
                                                                "details": "Emitted when `value` tokens are moved from one account (`from`) to another (`to`). Note that `value` may be zero."
                                                }
                                },
                                "kind": "dev",
                                "methods": {
                                                "allowance(address,address)": {
                                                                "details": "See {IERC20-allowance}."
                                                },
                                                "approve(address,uint256)": {
                                                                "details": "See {IERC20-approve}. NOTE: If `value` is the maximum `uint256`, the allowance is not updated on `transferFrom`. This is semantically equivalent to an infinite approval. Requirements: - `spender` cannot be the zero address."
                                                },
                                                "balanceOf(address)": {
                                                                "details": "See {IERC20-balanceOf}."
                                                },
                                                "decimals()": {
                                                                "details": "Returns the number of decimals used to get its user representation. For example, if `decimals` equals `2`, a balance of `505` tokens should be displayed to a user as `5.05` (`505 / 10 ** 2`). Tokens usually opt for a value of 18, imitating the relationship between Ether and Wei. This is the default value returned by this function, unless it's overridden. NOTE: This information is only used for _display_ purposes: it in no way affects any of the arithmetic of the contract, including {IERC20-balanceOf} and {IERC20-transfer}."
                                                },
                                                "getRoleAdmin(bytes32)": {
                                                                "details": "Returns the admin role that controls `role`. See {grantRole} and {revokeRole}. To change a role's admin, use {_setRoleAdmin}."
                                                },
                                                "grantRole(bytes32,address)": {
                                                                "details": "Grants `role` to `account`. If `account` had not been already granted `role`, emits a {RoleGranted} event. Requirements: - the caller must have ``role``'s admin role. May emit a {RoleGranted} event."
                                                },
                                                "hasRole(bytes32,address)": {
                                                                "details": "Returns `true` if `account` has been granted `role`."
                                                },
                                                "name()": {
                                                                "details": "Returns the name of the token."
                                                },
                                                "renounceRole(bytes32,address)": {
                                                                "details": "Revokes `role` from the calling account. Roles are often managed via {grantRole} and {revokeRole}: this function's purpose is to provide a mechanism for accounts to lose their privileges if they are compromised (such as when a trusted device is misplaced). If the calling account had been revoked `role`, emits a {RoleRevoked} event. Requirements: - the caller must be `callerConfirmation`. May emit a {RoleRevoked} event."
                                                },
                                                "revokeRole(bytes32,address)": {
                                                                "details": "Revokes `role` from `account`. If `account` had been granted `role`, emits a {RoleRevoked} event. Requirements: - the caller must have ``role``'s admin role. May emit a {RoleRevoked} event."
                                                },
                                                "supportsInterface(bytes4)": {
                                                                "details": "See {IERC165-supportsInterface}."
                                                },
                                                "symbol()": {
                                                                "details": "Returns the symbol of the token, usually a shorter version of the name."
                                                },
                                                "totalSupply()": {
                                                                "details": "See {IERC20-totalSupply}."
                                                },
                                                "transfer(address,uint256)": {
                                                                "details": "See {IERC20-transfer}. Requirements: - `to` cannot be the zero address. - the caller must have a balance of at least `value`."
                                                },
                                                "transferFrom(address,address,uint256)": {
                                                                "details": "See {IERC20-transferFrom}. Emits an {Approval} event indicating the updated allowance. This is not required by the EIP. See the note at the beginning of {ERC20}. NOTE: Does not update the allowance if the current allowance is the maximum `uint256`. Requirements: - `from` and `to` cannot be the zero address. - `from` must have a balance of at least `value`. - the caller must have allowance for ``from``'s tokens of at least `value`."
                                                }
                                },
                                "version": 1
                },
                "evm": {
                                "bytecode": {
                                                "linkReferences": {},
                                                "object": "60806040523480156200001157600080fd5b5060405162001496380380620014968339810160408190526200003491620001d2565b6040518060400160405280600981526020016829a0aa282a37b5b2b760b91b815250604051806040016040528060048152602001630534154560e41b815250816004908162000084919062000357565b50600562000093828262000357565b505050620000c87fb19546dff01e856fb3f010c267a7b1c60363cf8a4664e21cc89c26224620214e836200010d60201b60201c565b50620000f57f52ba824bfabc2bcfcdf7f0edbb486ebb05e1836c90e78047efeb949990f72e5f836200010d565b50600662000104828262000357565b50505062000423565b6000828152602081815260408083206001600160a01b038516845290915281205460ff16620001b2576000838152602081815260408083206001600160a01b03861684529091529020805460ff19166001179055620001693390565b6001600160a01b0316826001600160a01b0316847f2f8788117e7eff1d82e926ec794901d17c78024a50270940304540a733656f0d60405160405180910390a4506001620001b6565b5060005b92915050565b634e487b7160e01b600052604160045260246000fd5b60008060408385031215620001e657600080fd5b82516001600160a01b0381168114620001fe57600080fd5b602084810151919350906001600160401b03808211156200021e57600080fd5b818601915086601f8301126200023357600080fd5b815181811115620002485762000248620001bc565b604051601f8201601f19908116603f01168101908382118183101715620002735762000273620001bc565b8160405282815289868487010111156200028c57600080fd5b600093505b82841015620002b0578484018601518185018701529285019262000291565b60008684830101528096505050505050509250929050565b600181811c90821680620002dd57607f821691505b602082108103620002fe57634e487b7160e01b600052602260045260246000fd5b50919050565b601f8211156200035257600081815260208120601f850160051c810160208610156200032d5750805b601f850160051c820191505b818110156200034e5782815560010162000339565b5050505b505050565b81516001600160401b03811115620003735762000373620001bc565b6200038b81620003848454620002c8565b8462000304565b602080601f831160018114620003c35760008415620003aa5750858301515b600019600386901b1c1916600185901b1785556200034e565b600085815260208120601f198616915b82811015620003f457888601518255948401946001909101908401620003d3565b5085821015620004135787850151600019600388901b60f8161c191681555b5050505050600190811b01905550565b61106380620004336000396000f3fe608060405234801561001057600080fd5b50600436106101c45760003560e01c80635f52d44e116100f9578063af640d0f11610097578063c375110d11610071578063c375110d146103a3578063d547741f146103b6578063dd62ed3e146103c9578063e58378bb1461040257600080fd5b8063af640d0f14610373578063b5bfddea1461037b578063beabacc81461039057600080fd5b806395d89b41116100d357806395d89b411461033d5780639dc29fac14610345578063a217fddf14610358578063a9059cbb1461036057600080fd5b80635f52d44e146102ee57806370a082311461030157806391d148541461032a57600080fd5b80632f2ff15d1161016657806340c10f191161014057806340c10f19146102ab5780635137b8a7146102be5780635d1ca631146102d35780635f515226146102db57600080fd5b80632f2ff15d14610274578063313ce5671461028957806336568abe1461029857600080fd5b806318160ddd116101a257806318160ddd1461021957806323b872dd1461022b578063248a9ca31461023e57806328545c0d1461026157600080fd5b806301ffc9a7146101c957806306fdde03146101f1578063095ea7b314610206575b600080fd5b6101dc6101d7366004610daa565b610429565b60405190151581526020015b60405180910390f35b6101f9610460565b6040516101e89190610e21565b6101dc610214366004610e50565b6104f2565b6003545b6040519081526020016101e8565b6101dc610239366004610e7a565b61050a565b61021d61024c366004610eb6565b60009081526020819052604090206001015490565b6101dc61026f366004610ecf565b61052e565b610287610282366004610ecf565b610570565b005b604051601281526020016101e8565b6102876102a6366004610ecf565b61059b565b6101dc6102b9366004610e50565b6105d3565b6102c66105f7565b6040516101e89190610efb565b6101f96106d7565b61021d6102e9366004610f5d565b6106e6565b6101dc6102fc366004610e7a565b610704565b61021d61030f366004610f5d565b6001600160a01b031660009081526001602052604090205490565b6101dc610338366004610ecf565b610776565b6101f961079f565b6101dc610353366004610e50565b6107ae565b61021d600081565b6101dc61036e366004610e50565b6107d2565b6101f96107e0565b61021d60008051602061100e83398151915281565b6101dc61039e366004610e7a565b61086e565b6101dc6103b1366004610f5d565b61089f565b6102876103c4366004610ecf565b6108ef565b61021d6103d7366004610f78565b6001600160a01b03918216600090815260026020908152604080832093909416825291909152205490565b61021d7fb19546dff01e856fb3f010c267a7b1c60363cf8a4664e21cc89c26224620214e81565b60006001600160e01b03198216637965db0b60e01b148061045a57506301ffc9a760e01b6001600160e01b03198316145b92915050565b60606004805461046f90610fa2565b80601f016020809104026020016040519081016040528092919081815260200182805461049b90610fa2565b80156104e85780601f106104bd576101008083540402835291602001916104e8565b820191906000526020600020905b8154815290600101906020018083116104cb57829003601f168201915b5050505050905090565b600033610500818585610914565b5060019392505050565b600033610518858285610921565b610523858585610999565b506001949350505050565b600061053a8383610776565b156105475750600161045a565b604051631aee145f60e01b81526001600160a01b03831660048201526024015b60405180910390fd5b60008281526020819052604090206001015461058b816109f8565b6105958383610a05565b50505050565b6001600160a01b03811633146105c45760405163334bd91960e11b815260040160405180910390fd5b6105ce8282610a97565b505050565b600060008051602061100e8339815191526105ed816109f8565b6105008484610b02565b60408051600180825281830190925260609160009190816020015b60608152602001906001900390816106125790505090506006805461063690610fa2565b80601f016020809104026020016040519081016040528092919081815260200182805461066290610fa2565b80156106af5780601f10610684576101008083540402835291602001916106af565b820191906000526020600020905b81548152906001019060200180831161069257829003601f168201915b5050505050816000815181106106c7576106c7610fd6565b6020908102919091010152919050565b60606006805461046f90610fa2565b6001600160a01b03811660009081526001602052604081205461045a565b600060008051602061100e83398151915261071e816109f8565b6001600160a01b03851633146105185760405162461bcd60e51b815260206004820152601e60248201527f546865206d736753656e646572206973206e6f7420746865206f776e657200006044820152606401610567565b6000918252602082815260408084206001600160a01b0393909316845291905290205460ff1690565b60606005805461046f90610fa2565b600060008051602061100e8339815191526107c8816109f8565b6105008484610b3c565b600033610500818585610999565b600680546107ed90610fa2565b80601f016020809104026020016040519081016040528092919081815260200182805461081990610fa2565b80156108665780601f1061083b57610100808354040283529160200191610866565b820191906000526020600020905b81548152906001019060200180831161084957829003601f168201915b505050505081565b600060008051602061100e833981519152610888816109f8565b61089385858561050a565b50600195945050505050565b60007fb19546dff01e856fb3f010c267a7b1c60363cf8a4664e21cc89c26224620214e6108cb816109f8565b6108e360008051602061100e83398151915284610a05565b50600191505b50919050565b60008281526020819052604090206001015461090a816109f8565b6105958383610a97565b6105ce8383836001610b72565b6001600160a01b038381166000908152600260209081526040808320938616835292905220546000198114610595578181101561098a57604051637dc7a0d960e11b81526001600160a01b03841660048201526024810182905260448101839052606401610567565b61059584848484036000610b72565b6001600160a01b0383166109c357604051634b637e8f60e11b815260006004820152602401610567565b6001600160a01b0382166109ed5760405163ec442f0560e01b815260006004820152602401610567565b6105ce838383610c47565b610a028133610d71565b50565b6000610a118383610776565b610a8f576000838152602081815260408083206001600160a01b03861684529091529020805460ff19166001179055610a473390565b6001600160a01b0316826001600160a01b0316847f2f8788117e7eff1d82e926ec794901d17c78024a50270940304540a733656f0d60405160405180910390a450600161045a565b50600061045a565b6000610aa38383610776565b15610a8f576000838152602081815260408083206001600160a01b0386168085529252808320805460ff1916905551339286917ff6391f5c32d9c69d2a47ea670b442974b53935d1edc7fd64eb21e047a839171b9190a450600161045a565b6001600160a01b038216610b2c5760405163ec442f0560e01b815260006004820152602401610567565b610b3860008383610c47565b5050565b6001600160a01b038216610b6657604051634b637e8f60e11b815260006004820152602401610567565b610b3882600083610c47565b6001600160a01b038416610b9c5760405163e602df0560e01b815260006004820152602401610567565b6001600160a01b038316610bc657604051634a1406b160e11b815260006004820152602401610567565b6001600160a01b038085166000908152600260209081526040808320938716835292905220829055801561059557826001600160a01b0316846001600160a01b03167f8c5be1e5ebec7d5bd14f71427d1e84f3dd0314c0f7b2291e5b200ac8c7c3b92584604051610c3991815260200190565b60405180910390a350505050565b6001600160a01b038316610c72578060036000828254610c679190610fec565b90915550610ce49050565b6001600160a01b03831660009081526001602052604090205481811015610cc55760405163391434e360e21b81526001600160a01b03851660048201526024810182905260448101839052606401610567565b6001600160a01b03841660009081526001602052604090209082900390555b6001600160a01b038216610d0057600380548290039055610d1f565b6001600160a01b03821660009081526001602052604090208054820190555b816001600160a01b0316836001600160a01b03167fddf252ad1be2c89b69c2b068fc378daa952ba7f163c4a11628f55a4df523b3ef83604051610d6491815260200190565b60405180910390a3505050565b610d7b8282610776565b610b385760405163e2517d3f60e01b81526001600160a01b038216600482015260248101839052604401610567565b600060208284031215610dbc57600080fd5b81356001600160e01b031981168114610dd457600080fd5b9392505050565b6000815180845260005b81811015610e0157602081850181015186830182015201610de5565b506000602082860101526020601f19601f83011685010191505092915050565b602081526000610dd46020830184610ddb565b80356001600160a01b0381168114610e4b57600080fd5b919050565b60008060408385031215610e6357600080fd5b610e6c83610e34565b946020939093013593505050565b600080600060608486031215610e8f57600080fd5b610e9884610e34565b9250610ea660208501610e34565b9150604084013590509250925092565b600060208284031215610ec857600080fd5b5035919050565b60008060408385031215610ee257600080fd5b82359150610ef260208401610e34565b90509250929050565b6000602080830181845280855180835260408601915060408160051b870101925083870160005b82811015610f5057603f19888603018452610f3e858351610ddb565b94509285019290850190600101610f22565b5092979650505050505050565b600060208284031215610f6f57600080fd5b610dd482610e34565b60008060408385031215610f8b57600080fd5b610f9483610e34565b9150610ef260208401610e34565b600181811c90821680610fb657607f821691505b6020821081036108e957634e487b7160e01b600052602260045260246000fd5b634e487b7160e01b600052603260045260246000fd5b8082018082111561045a57634e487b7160e01b600052601160045260246000fdfe52ba824bfabc2bcfcdf7f0edbb486ebb05e1836c90e78047efeb949990f72e5fa2646970667358221220885a12cc06b2439f34733644bc4f537c8317caff6e93f5ed05b961df1cc32f4c64736f6c63430008140033",
                                                "opcodes": "PUSH1 0x80 PUSH1 0x40 MSTORE CALLVALUE DUP1 ISZERO PUSH3 0x11 JUMPI PUSH1 0x0 DUP1 REVERT JUMPDEST POP PUSH1 0x40 MLOAD PUSH3 0x1496 CODESIZE SUB DUP1 PUSH3 0x1496 DUP4 CODECOPY DUP2 ADD PUSH1 0x40 DUP2 SWAP1 MSTORE PUSH3 0x34 SWAP2 PUSH3 0x1D2 JUMP JUMPDEST PUSH1 0x40 MLOAD DUP1 PUSH1 0x40 ADD PUSH1 0x40 MSTORE DUP1 PUSH1 0x9 DUP2 MSTORE PUSH1 0x20 ADD PUSH9 0x29A0AA282A37B5B2B7 PUSH1 0xB9 SHL DUP2 MSTORE POP PUSH1 0x40 MLOAD DUP1 PUSH1 0x40 ADD PUSH1 0x40 MSTORE DUP1 PUSH1 0x4 DUP2 MSTORE PUSH1 0x20 ADD PUSH4 0x5341545 PUSH1 0xE4 SHL DUP2 MSTORE POP DUP2 PUSH1 0x4 SWAP1 DUP2 PUSH3 0x84 SWAP2 SWAP1 PUSH3 0x357 JUMP JUMPDEST POP PUSH1 0x5 PUSH3 0x93 DUP3 DUP3 PUSH3 0x357 JUMP JUMPDEST POP POP POP PUSH3 0xC8 PUSH32 0xB19546DFF01E856FB3F010C267A7B1C60363CF8A4664E21CC89C26224620214E DUP4 PUSH3 0x10D PUSH1 0x20 SHL PUSH1 0x20 SHR JUMP JUMPDEST POP PUSH3 0xF5 PUSH32 0x52BA824BFABC2BCFCDF7F0EDBB486EBB05E1836C90E78047EFEB949990F72E5F DUP4 PUSH3 0x10D JUMP JUMPDEST POP PUSH1 0x6 PUSH3 0x104 DUP3 DUP3 PUSH3 0x357 JUMP JUMPDEST POP POP POP PUSH3 0x423 JUMP JUMPDEST PUSH1 0x0 DUP3 DUP2 MSTORE PUSH1 0x20 DUP2 DUP2 MSTORE PUSH1 0x40 DUP1 DUP4 KECCAK256 PUSH1 0x1 PUSH1 0x1 PUSH1 0xA0 SHL SUB DUP6 AND DUP5 MSTORE SWAP1 SWAP2 MSTORE DUP2 KECCAK256 SLOAD PUSH1 0xFF AND PUSH3 0x1B2 JUMPI PUSH1 0x0 DUP4 DUP2 MSTORE PUSH1 0x20 DUP2 DUP2 MSTORE PUSH1 0x40 DUP1 DUP4 KECCAK256 PUSH1 0x1 PUSH1 0x1 PUSH1 0xA0 SHL SUB DUP7 AND DUP5 MSTORE SWAP1 SWAP2 MSTORE SWAP1 KECCAK256 DUP1 SLOAD PUSH1 0xFF NOT AND PUSH1 0x1 OR SWAP1 SSTORE PUSH3 0x169 CALLER SWAP1 JUMP JUMPDEST PUSH1 0x1 PUSH1 0x1 PUSH1 0xA0 SHL SUB AND DUP3 PUSH1 0x1 PUSH1 0x1 PUSH1 0xA0 SHL SUB AND DUP5 PUSH32 0x2F8788117E7EFF1D82E926EC794901D17C78024A50270940304540A733656F0D PUSH1 0x40 MLOAD PUSH1 0x40 MLOAD DUP1 SWAP2 SUB SWAP1 LOG4 POP PUSH1 0x1 PUSH3 0x1B6 JUMP JUMPDEST POP PUSH1 0x0 JUMPDEST SWAP3 SWAP2 POP POP JUMP JUMPDEST PUSH4 0x4E487B71 PUSH1 0xE0 SHL PUSH1 0x0 MSTORE PUSH1 0x41 PUSH1 0x4 MSTORE PUSH1 0x24 PUSH1 0x0 REVERT JUMPDEST PUSH1 0x0 DUP1 PUSH1 0x40 DUP4 DUP6 SUB SLT ISZERO PUSH3 0x1E6 JUMPI PUSH1 0x0 DUP1 REVERT JUMPDEST DUP3 MLOAD PUSH1 0x1 PUSH1 0x1 PUSH1 0xA0 SHL SUB DUP2 AND DUP2 EQ PUSH3 0x1FE JUMPI PUSH1 0x0 DUP1 REVERT JUMPDEST PUSH1 0x20 DUP5 DUP2 ADD MLOAD SWAP2 SWAP4 POP SWAP1 PUSH1 0x1 PUSH1 0x1 PUSH1 0x40 SHL SUB DUP1 DUP3 GT ISZERO PUSH3 0x21E JUMPI PUSH1 0x0 DUP1 REVERT JUMPDEST DUP2 DUP7 ADD SWAP2 POP DUP7 PUSH1 0x1F DUP4 ADD SLT PUSH3 0x233 JUMPI PUSH1 0x0 DUP1 REVERT JUMPDEST DUP2 MLOAD DUP2 DUP2 GT ISZERO PUSH3 0x248 JUMPI PUSH3 0x248 PUSH3 0x1BC JUMP JUMPDEST PUSH1 0x40 MLOAD PUSH1 0x1F DUP3 ADD PUSH1 0x1F NOT SWAP1 DUP2 AND PUSH1 0x3F ADD AND DUP2 ADD SWAP1 DUP4 DUP3 GT DUP2 DUP4 LT OR ISZERO PUSH3 0x273 JUMPI PUSH3 0x273 PUSH3 0x1BC JUMP JUMPDEST DUP2 PUSH1 0x40 MSTORE DUP3 DUP2 MSTORE DUP10 DUP7 DUP5 DUP8 ADD ADD GT ISZERO PUSH3 0x28C JUMPI PUSH1 0x0 DUP1 REVERT JUMPDEST PUSH1 0x0 SWAP4 POP JUMPDEST DUP3 DUP5 LT ISZERO PUSH3 0x2B0 JUMPI DUP5 DUP5 ADD DUP7 ADD MLOAD DUP2 DUP6 ADD DUP8 ADD MSTORE SWAP3 DUP6 ADD SWAP3 PUSH3 0x291 JUMP JUMPDEST PUSH1 0x0 DUP7 DUP5 DUP4 ADD ADD MSTORE DUP1 SWAP7 POP POP POP POP POP POP POP SWAP3 POP SWAP3 SWAP1 POP JUMP JUMPDEST PUSH1 0x1 DUP2 DUP2 SHR SWAP1 DUP3 AND DUP1 PUSH3 0x2DD JUMPI PUSH1 0x7F DUP3 AND SWAP2 POP JUMPDEST PUSH1 0x20 DUP3 LT DUP2 SUB PUSH3 0x2FE JUMPI PUSH4 0x4E487B71 PUSH1 0xE0 SHL PUSH1 0x0 MSTORE PUSH1 0x22 PUSH1 0x4 MSTORE PUSH1 0x24 PUSH1 0x0 REVERT JUMPDEST POP SWAP2 SWAP1 POP JUMP JUMPDEST PUSH1 0x1F DUP3 GT ISZERO PUSH3 0x352 JUMPI PUSH1 0x0 DUP2 DUP2 MSTORE PUSH1 0x20 DUP2 KECCAK256 PUSH1 0x1F DUP6 ADD PUSH1 0x5 SHR DUP2 ADD PUSH1 0x20 DUP7 LT ISZERO PUSH3 0x32D JUMPI POP DUP1 JUMPDEST PUSH1 0x1F DUP6 ADD PUSH1 0x5 SHR DUP3 ADD SWAP2 POP JUMPDEST DUP2 DUP2 LT ISZERO PUSH3 0x34E JUMPI DUP3 DUP2 SSTORE PUSH1 0x1 ADD PUSH3 0x339 JUMP JUMPDEST POP POP POP JUMPDEST POP POP POP JUMP JUMPDEST DUP2 MLOAD PUSH1 0x1 PUSH1 0x1 PUSH1 0x40 SHL SUB DUP2 GT ISZERO PUSH3 0x373 JUMPI PUSH3 0x373 PUSH3 0x1BC JUMP JUMPDEST PUSH3 0x38B DUP2 PUSH3 0x384 DUP5 SLOAD PUSH3 0x2C8 JUMP JUMPDEST DUP5 PUSH3 0x304 JUMP JUMPDEST PUSH1 0x20 DUP1 PUSH1 0x1F DUP4 GT PUSH1 0x1 DUP2 EQ PUSH3 0x3C3 JUMPI PUSH1 0x0 DUP5 ISZERO PUSH3 0x3AA JUMPI POP DUP6 DUP4 ADD MLOAD JUMPDEST PUSH1 0x0 NOT PUSH1 0x3 DUP7 SWAP1 SHL SHR NOT AND PUSH1 0x1 DUP6 SWAP1 SHL OR DUP6 SSTORE PUSH3 0x34E JUMP JUMPDEST PUSH1 0x0 DUP6 DUP2 MSTORE PUSH1 0x20 DUP2 KECCAK256 PUSH1 0x1F NOT DUP7 AND SWAP2 JUMPDEST DUP3 DUP2 LT ISZERO PUSH3 0x3F4 JUMPI DUP9 DUP7 ADD MLOAD DUP3 SSTORE SWAP5 DUP5 ADD SWAP5 PUSH1 0x1 SWAP1 SWAP2 ADD SWAP1 DUP5 ADD PUSH3 0x3D3 JUMP JUMPDEST POP DUP6 DUP3 LT ISZERO PUSH3 0x413 JUMPI DUP8 DUP6 ADD MLOAD PUSH1 0x0 NOT PUSH1 0x3 DUP9 SWAP1 SHL PUSH1 0xF8 AND SHR NOT AND DUP2 SSTORE JUMPDEST POP POP POP POP POP PUSH1 0x1 SWAP1 DUP2 SHL ADD SWAP1 SSTORE POP JUMP JUMPDEST PUSH2 0x1063 DUP1 PUSH3 0x433 PUSH1 0x0 CODECOPY PUSH1 0x0 RETURN INVALID PUSH1 0x80 PUSH1 0x40 MSTORE CALLVALUE DUP1 ISZERO PUSH2 0x10 JUMPI PUSH1 0x0 DUP1 REVERT JUMPDEST POP PUSH1 0x4 CALLDATASIZE LT PUSH2 0x1C4 JUMPI PUSH1 0x0 CALLDATALOAD PUSH1 0xE0 SHR DUP1 PUSH4 0x5F52D44E GT PUSH2 0xF9 JUMPI DUP1 PUSH4 0xAF640D0F GT PUSH2 0x97 JUMPI DUP1 PUSH4 0xC375110D GT PUSH2 0x71 JUMPI DUP1 PUSH4 0xC375110D EQ PUSH2 0x3A3 JUMPI DUP1 PUSH4 0xD547741F EQ PUSH2 0x3B6 JUMPI DUP1 PUSH4 0xDD62ED3E EQ PUSH2 0x3C9 JUMPI DUP1 PUSH4 0xE58378BB EQ PUSH2 0x402 JUMPI PUSH1 0x0 DUP1 REVERT JUMPDEST DUP1 PUSH4 0xAF640D0F EQ PUSH2 0x373 JUMPI DUP1 PUSH4 0xB5BFDDEA EQ PUSH2 0x37B JUMPI DUP1 PUSH4 0xBEABACC8 EQ PUSH2 0x390 JUMPI PUSH1 0x0 DUP1 REVERT JUMPDEST DUP1 PUSH4 0x95D89B41 GT PUSH2 0xD3 JUMPI DUP1 PUSH4 0x95D89B41 EQ PUSH2 0x33D JUMPI DUP1 PUSH4 0x9DC29FAC EQ PUSH2 0x345 JUMPI DUP1 PUSH4 0xA217FDDF EQ PUSH2 0x358 JUMPI DUP1 PUSH4 0xA9059CBB EQ PUSH2 0x360 JUMPI PUSH1 0x0 DUP1 REVERT JUMPDEST DUP1 PUSH4 0x5F52D44E EQ PUSH2 0x2EE JUMPI DUP1 PUSH4 0x70A08231 EQ PUSH2 0x301 JUMPI DUP1 PUSH4 0x91D14854 EQ PUSH2 0x32A JUMPI PUSH1 0x0 DUP1 REVERT JUMPDEST DUP1 PUSH4 0x2F2FF15D GT PUSH2 0x166 JUMPI DUP1 PUSH4 0x40C10F19 GT PUSH2 0x140 JUMPI DUP1 PUSH4 0x40C10F19 EQ PUSH2 0x2AB JUMPI DUP1 PUSH4 0x5137B8A7 EQ PUSH2 0x2BE JUMPI DUP1 PUSH4 0x5D1CA631 EQ PUSH2 0x2D3 JUMPI DUP1 PUSH4 0x5F515226 EQ PUSH2 0x2DB JUMPI PUSH1 0x0 DUP1 REVERT JUMPDEST DUP1 PUSH4 0x2F2FF15D EQ PUSH2 0x274 JUMPI DUP1 PUSH4 0x313CE567 EQ PUSH2 0x289 JUMPI DUP1 PUSH4 0x36568ABE EQ PUSH2 0x298 JUMPI PUSH1 0x0 DUP1 REVERT JUMPDEST DUP1 PUSH4 0x18160DDD GT PUSH2 0x1A2 JUMPI DUP1 PUSH4 0x18160DDD EQ PUSH2 0x219 JUMPI DUP1 PUSH4 0x23B872DD EQ PUSH2 0x22B JUMPI DUP1 PUSH4 0x248A9CA3 EQ PUSH2 0x23E JUMPI DUP1 PUSH4 0x28545C0D EQ PUSH2 0x261 JUMPI PUSH1 0x0 DUP1 REVERT JUMPDEST DUP1 PUSH4 0x1FFC9A7 EQ PUSH2 0x1C9 JUMPI DUP1 PUSH4 0x6FDDE03 EQ PUSH2 0x1F1 JUMPI DUP1 PUSH4 0x95EA7B3 EQ PUSH2 0x206 JUMPI JUMPDEST PUSH1 0x0 DUP1 REVERT JUMPDEST PUSH2 0x1DC PUSH2 0x1D7 CALLDATASIZE PUSH1 0x4 PUSH2 0xDAA JUMP JUMPDEST PUSH2 0x429 JUMP JUMPDEST PUSH1 0x40 MLOAD SWAP1 ISZERO ISZERO DUP2 MSTORE PUSH1 0x20 ADD JUMPDEST PUSH1 0x40 MLOAD DUP1 SWAP2 SUB SWAP1 RETURN JUMPDEST PUSH2 0x1F9 PUSH2 0x460 JUMP JUMPDEST PUSH1 0x40 MLOAD PUSH2 0x1E8 SWAP2 SWAP1 PUSH2 0xE21 JUMP JUMPDEST PUSH2 0x1DC PUSH2 0x214 CALLDATASIZE PUSH1 0x4 PUSH2 0xE50 JUMP JUMPDEST PUSH2 0x4F2 JUMP JUMPDEST PUSH1 0x3 SLOAD JUMPDEST PUSH1 0x40 MLOAD SWAP1 DUP2 MSTORE PUSH1 0x20 ADD PUSH2 0x1E8 JUMP JUMPDEST PUSH2 0x1DC PUSH2 0x239 CALLDATASIZE PUSH1 0x4 PUSH2 0xE7A JUMP JUMPDEST PUSH2 0x50A JUMP JUMPDEST PUSH2 0x21D PUSH2 0x24C CALLDATASIZE PUSH1 0x4 PUSH2 0xEB6 JUMP JUMPDEST PUSH1 0x0 SWAP1 DUP2 MSTORE PUSH1 0x20 DUP2 SWAP1 MSTORE PUSH1 0x40 SWAP1 KECCAK256 PUSH1 0x1 ADD SLOAD SWAP1 JUMP JUMPDEST PUSH2 0x1DC PUSH2 0x26F CALLDATASIZE PUSH1 0x4 PUSH2 0xECF JUMP JUMPDEST PUSH2 0x52E JUMP JUMPDEST PUSH2 0x287 PUSH2 0x282 CALLDATASIZE PUSH1 0x4 PUSH2 0xECF JUMP JUMPDEST PUSH2 0x570 JUMP JUMPDEST STOP JUMPDEST PUSH1 0x40 MLOAD PUSH1 0x12 DUP2 MSTORE PUSH1 0x20 ADD PUSH2 0x1E8 JUMP JUMPDEST PUSH2 0x287 PUSH2 0x2A6 CALLDATASIZE PUSH1 0x4 PUSH2 0xECF JUMP JUMPDEST PUSH2 0x59B JUMP JUMPDEST PUSH2 0x1DC PUSH2 0x2B9 CALLDATASIZE PUSH1 0x4 PUSH2 0xE50 JUMP JUMPDEST PUSH2 0x5D3 JUMP JUMPDEST PUSH2 0x2C6 PUSH2 0x5F7 JUMP JUMPDEST PUSH1 0x40 MLOAD PUSH2 0x1E8 SWAP2 SWAP1 PUSH2 0xEFB JUMP JUMPDEST PUSH2 0x1F9 PUSH2 0x6D7 JUMP JUMPDEST PUSH2 0x21D PUSH2 0x2E9 CALLDATASIZE PUSH1 0x4 PUSH2 0xF5D JUMP JUMPDEST PUSH2 0x6E6 JUMP JUMPDEST PUSH2 0x1DC PUSH2 0x2FC CALLDATASIZE PUSH1 0x4 PUSH2 0xE7A JUMP JUMPDEST PUSH2 0x704 JUMP JUMPDEST PUSH2 0x21D PUSH2 0x30F CALLDATASIZE PUSH1 0x4 PUSH2 0xF5D JUMP JUMPDEST PUSH1 0x1 PUSH1 0x1 PUSH1 0xA0 SHL SUB AND PUSH1 0x0 SWAP1 DUP2 MSTORE PUSH1 0x1 PUSH1 0x20 MSTORE PUSH1 0x40 SWAP1 KECCAK256 SLOAD SWAP1 JUMP JUMPDEST PUSH2 0x1DC PUSH2 0x338 CALLDATASIZE PUSH1 0x4 PUSH2 0xECF JUMP JUMPDEST PUSH2 0x776 JUMP JUMPDEST PUSH2 0x1F9 PUSH2 0x79F JUMP JUMPDEST PUSH2 0x1DC PUSH2 0x353 CALLDATASIZE PUSH1 0x4 PUSH2 0xE50 JUMP JUMPDEST PUSH2 0x7AE JUMP JUMPDEST PUSH2 0x21D PUSH1 0x0 DUP2 JUMP JUMPDEST PUSH2 0x1DC PUSH2 0x36E CALLDATASIZE PUSH1 0x4 PUSH2 0xE50 JUMP JUMPDEST PUSH2 0x7D2 JUMP JUMPDEST PUSH2 0x1F9 PUSH2 0x7E0 JUMP JUMPDEST PUSH2 0x21D PUSH1 0x0 DUP1 MLOAD PUSH1 0x20 PUSH2 0x100E DUP4 CODECOPY DUP2 MLOAD SWAP2 MSTORE DUP2 JUMP JUMPDEST PUSH2 0x1DC PUSH2 0x39E CALLDATASIZE PUSH1 0x4 PUSH2 0xE7A JUMP JUMPDEST PUSH2 0x86E JUMP JUMPDEST PUSH2 0x1DC PUSH2 0x3B1 CALLDATASIZE PUSH1 0x4 PUSH2 0xF5D JUMP JUMPDEST PUSH2 0x89F JUMP JUMPDEST PUSH2 0x287 PUSH2 0x3C4 CALLDATASIZE PUSH1 0x4 PUSH2 0xECF JUMP JUMPDEST PUSH2 0x8EF JUMP JUMPDEST PUSH2 0x21D PUSH2 0x3D7 CALLDATASIZE PUSH1 0x4 PUSH2 0xF78 JUMP JUMPDEST PUSH1 0x1 PUSH1 0x1 PUSH1 0xA0 SHL SUB SWAP2 DUP3 AND PUSH1 0x0 SWAP1 DUP2 MSTORE PUSH1 0x2 PUSH1 0x20 SWAP1 DUP2 MSTORE PUSH1 0x40 DUP1 DUP4 KECCAK256 SWAP4 SWAP1 SWAP5 AND DUP3 MSTORE SWAP2 SWAP1 SWAP2 MSTORE KECCAK256 SLOAD SWAP1 JUMP JUMPDEST PUSH2 0x21D PUSH32 0xB19546DFF01E856FB3F010C267A7B1C60363CF8A4664E21CC89C26224620214E DUP2 JUMP JUMPDEST PUSH1 0x0 PUSH1 0x1 PUSH1 0x1 PUSH1 0xE0 SHL SUB NOT DUP3 AND PUSH4 0x7965DB0B PUSH1 0xE0 SHL EQ DUP1 PUSH2 0x45A JUMPI POP PUSH4 0x1FFC9A7 PUSH1 0xE0 SHL PUSH1 0x1 PUSH1 0x1 PUSH1 0xE0 SHL SUB NOT DUP4 AND EQ JUMPDEST SWAP3 SWAP2 POP POP JUMP JUMPDEST PUSH1 0x60 PUSH1 0x4 DUP1 SLOAD PUSH2 0x46F SWAP1 PUSH2 0xFA2 JUMP JUMPDEST DUP1 PUSH1 0x1F ADD PUSH1 0x20 DUP1 SWAP2 DIV MUL PUSH1 0x20 ADD PUSH1 0x40 MLOAD SWAP1 DUP2 ADD PUSH1 0x40 MSTORE DUP1 SWAP3 SWAP2 SWAP1 DUP2 DUP2 MSTORE PUSH1 0x20 ADD DUP3 DUP1 SLOAD PUSH2 0x49B SWAP1 PUSH2 0xFA2 JUMP JUMPDEST DUP1 ISZERO PUSH2 0x4E8 JUMPI DUP1 PUSH1 0x1F LT PUSH2 0x4BD JUMPI PUSH2 0x100 DUP1 DUP4 SLOAD DIV MUL DUP4 MSTORE SWAP2 PUSH1 0x20 ADD SWAP2 PUSH2 0x4E8 JUMP JUMPDEST DUP3 ADD SWAP2 SWAP1 PUSH1 0x0 MSTORE PUSH1 0x20 PUSH1 0x0 KECCAK256 SWAP1 JUMPDEST DUP2 SLOAD DUP2 MSTORE SWAP1 PUSH1 0x1 ADD SWAP1 PUSH1 0x20 ADD DUP1 DUP4 GT PUSH2 0x4CB JUMPI DUP3 SWAP1 SUB PUSH1 0x1F AND DUP3 ADD SWAP2 JUMPDEST POP POP POP POP POP SWAP1 POP SWAP1 JUMP JUMPDEST PUSH1 0x0 CALLER PUSH2 0x500 DUP2 DUP6 DUP6 PUSH2 0x914 JUMP JUMPDEST POP PUSH1 0x1 SWAP4 SWAP3 POP POP POP JUMP JUMPDEST PUSH1 0x0 CALLER PUSH2 0x518 DUP6 DUP3 DUP6 PUSH2 0x921 JUMP JUMPDEST PUSH2 0x523 DUP6 DUP6 DUP6 PUSH2 0x999 JUMP JUMPDEST POP PUSH1 0x1 SWAP5 SWAP4 POP POP POP POP JUMP JUMPDEST PUSH1 0x0 PUSH2 0x53A DUP4 DUP4 PUSH2 0x776 JUMP JUMPDEST ISZERO PUSH2 0x547 JUMPI POP PUSH1 0x1 PUSH2 0x45A JUMP JUMPDEST PUSH1 0x40 MLOAD PUSH4 0x1AEE145F PUSH1 0xE0 SHL DUP2 MSTORE PUSH1 0x1 PUSH1 0x1 PUSH1 0xA0 SHL SUB DUP4 AND PUSH1 0x4 DUP3 ADD MSTORE PUSH1 0x24 ADD JUMPDEST PUSH1 0x40 MLOAD DUP1 SWAP2 SUB SWAP1 REVERT JUMPDEST PUSH1 0x0 DUP3 DUP2 MSTORE PUSH1 0x20 DUP2 SWAP1 MSTORE PUSH1 0x40 SWAP1 KECCAK256 PUSH1 0x1 ADD SLOAD PUSH2 0x58B DUP2 PUSH2 0x9F8 JUMP JUMPDEST PUSH2 0x595 DUP4 DUP4 PUSH2 0xA05 JUMP JUMPDEST POP POP POP POP JUMP JUMPDEST PUSH1 0x1 PUSH1 0x1 PUSH1 0xA0 SHL SUB DUP2 AND CALLER EQ PUSH2 0x5C4 JUMPI PUSH1 0x40 MLOAD PUSH4 0x334BD919 PUSH1 0xE1 SHL DUP2 MSTORE PUSH1 0x4 ADD PUSH1 0x40 MLOAD DUP1 SWAP2 SUB SWAP1 REVERT JUMPDEST PUSH2 0x5CE DUP3 DUP3 PUSH2 0xA97 JUMP JUMPDEST POP POP POP JUMP JUMPDEST PUSH1 0x0 PUSH1 0x0 DUP1 MLOAD PUSH1 0x20 PUSH2 0x100E DUP4 CODECOPY DUP2 MLOAD SWAP2 MSTORE PUSH2 0x5ED DUP2 PUSH2 0x9F8 JUMP JUMPDEST PUSH2 0x500 DUP5 DUP5 PUSH2 0xB02 JUMP JUMPDEST PUSH1 0x40 DUP1 MLOAD PUSH1 0x1 DUP1 DUP3 MSTORE DUP2 DUP4 ADD SWAP1 SWAP3 MSTORE PUSH1 0x60 SWAP2 PUSH1 0x0 SWAP2 SWAP1 DUP2 PUSH1 0x20 ADD JUMPDEST PUSH1 0x60 DUP2 MSTORE PUSH1 0x20 ADD SWAP1 PUSH1 0x1 SWAP1 SUB SWAP1 DUP2 PUSH2 0x612 JUMPI SWAP1 POP POP SWAP1 POP PUSH1 0x6 DUP1 SLOAD PUSH2 0x636 SWAP1 PUSH2 0xFA2 JUMP JUMPDEST DUP1 PUSH1 0x1F ADD PUSH1 0x20 DUP1 SWAP2 DIV MUL PUSH1 0x20 ADD PUSH1 0x40 MLOAD SWAP1 DUP2 ADD PUSH1 0x40 MSTORE DUP1 SWAP3 SWAP2 SWAP1 DUP2 DUP2 MSTORE PUSH1 0x20 ADD DUP3 DUP1 SLOAD PUSH2 0x662 SWAP1 PUSH2 0xFA2 JUMP JUMPDEST DUP1 ISZERO PUSH2 0x6AF JUMPI DUP1 PUSH1 0x1F LT PUSH2 0x684 JUMPI PUSH2 0x100 DUP1 DUP4 SLOAD DIV MUL DUP4 MSTORE SWAP2 PUSH1 0x20 ADD SWAP2 PUSH2 0x6AF JUMP JUMPDEST DUP3 ADD SWAP2 SWAP1 PUSH1 0x0 MSTORE PUSH1 0x20 PUSH1 0x0 KECCAK256 SWAP1 JUMPDEST DUP2 SLOAD DUP2 MSTORE SWAP1 PUSH1 0x1 ADD SWAP1 PUSH1 0x20 ADD DUP1 DUP4 GT PUSH2 0x692 JUMPI DUP3 SWAP1 SUB PUSH1 0x1F AND DUP3 ADD SWAP2 JUMPDEST POP POP POP POP POP DUP2 PUSH1 0x0 DUP2 MLOAD DUP2 LT PUSH2 0x6C7 JUMPI PUSH2 0x6C7 PUSH2 0xFD6 JUMP JUMPDEST PUSH1 0x20 SWAP1 DUP2 MUL SWAP2 SWAP1 SWAP2 ADD ADD MSTORE SWAP2 SWAP1 POP JUMP JUMPDEST PUSH1 0x60 PUSH1 0x6 DUP1 SLOAD PUSH2 0x46F SWAP1 PUSH2 0xFA2 JUMP JUMPDEST PUSH1 0x1 PUSH1 0x1 PUSH1 0xA0 SHL SUB DUP2 AND PUSH1 0x0 SWAP1 DUP2 MSTORE PUSH1 0x1 PUSH1 0x20 MSTORE PUSH1 0x40 DUP2 KECCAK256 SLOAD PUSH2 0x45A JUMP JUMPDEST PUSH1 0x0 PUSH1 0x0 DUP1 MLOAD PUSH1 0x20 PUSH2 0x100E DUP4 CODECOPY DUP2 MLOAD SWAP2 MSTORE PUSH2 0x71E DUP2 PUSH2 0x9F8 JUMP JUMPDEST PUSH1 0x1 PUSH1 0x1 PUSH1 0xA0 SHL SUB DUP6 AND CALLER EQ PUSH2 0x518 JUMPI PUSH1 0x40 MLOAD PUSH3 0x461BCD PUSH1 0xE5 SHL DUP2 MSTORE PUSH1 0x20 PUSH1 0x4 DUP3 ADD MSTORE PUSH1 0x1E PUSH1 0x24 DUP3 ADD MSTORE PUSH32 0x546865206D736753656E646572206973206E6F7420746865206F776E65720000 PUSH1 0x44 DUP3 ADD MSTORE PUSH1 0x64 ADD PUSH2 0x567 JUMP JUMPDEST PUSH1 0x0 SWAP2 DUP3 MSTORE PUSH1 0x20 DUP3 DUP2 MSTORE PUSH1 0x40 DUP1 DUP5 KECCAK256 PUSH1 0x1 PUSH1 0x1 PUSH1 0xA0 SHL SUB SWAP4 SWAP1 SWAP4 AND DUP5 MSTORE SWAP2 SWAP1 MSTORE SWAP1 KECCAK256 SLOAD PUSH1 0xFF AND SWAP1 JUMP JUMPDEST PUSH1 0x60 PUSH1 0x5 DUP1 SLOAD PUSH2 0x46F SWAP1 PUSH2 0xFA2 JUMP JUMPDEST PUSH1 0x0 PUSH1 0x0 DUP1 MLOAD PUSH1 0x20 PUSH2 0x100E DUP4 CODECOPY DUP2 MLOAD SWAP2 MSTORE PUSH2 0x7C8 DUP2 PUSH2 0x9F8 JUMP JUMPDEST PUSH2 0x500 DUP5 DUP5 PUSH2 0xB3C JUMP JUMPDEST PUSH1 0x0 CALLER PUSH2 0x500 DUP2 DUP6 DUP6 PUSH2 0x999 JUMP JUMPDEST PUSH1 0x6 DUP1 SLOAD PUSH2 0x7ED SWAP1 PUSH2 0xFA2 JUMP JUMPDEST DUP1 PUSH1 0x1F ADD PUSH1 0x20 DUP1 SWAP2 DIV MUL PUSH1 0x20 ADD PUSH1 0x40 MLOAD SWAP1 DUP2 ADD PUSH1 0x40 MSTORE DUP1 SWAP3 SWAP2 SWAP1 DUP2 DUP2 MSTORE PUSH1 0x20 ADD DUP3 DUP1 SLOAD PUSH2 0x819 SWAP1 PUSH2 0xFA2 JUMP JUMPDEST DUP1 ISZERO PUSH2 0x866 JUMPI DUP1 PUSH1 0x1F LT PUSH2 0x83B JUMPI PUSH2 0x100 DUP1 DUP4 SLOAD DIV MUL DUP4 MSTORE SWAP2 PUSH1 0x20 ADD SWAP2 PUSH2 0x866 JUMP JUMPDEST DUP3 ADD SWAP2 SWAP1 PUSH1 0x0 MSTORE PUSH1 0x20 PUSH1 0x0 KECCAK256 SWAP1 JUMPDEST DUP2 SLOAD DUP2 MSTORE SWAP1 PUSH1 0x1 ADD SWAP1 PUSH1 0x20 ADD DUP1 DUP4 GT PUSH2 0x849 JUMPI DUP3 SWAP1 SUB PUSH1 0x1F AND DUP3 ADD SWAP2 JUMPDEST POP POP POP POP POP DUP2 JUMP JUMPDEST PUSH1 0x0 PUSH1 0x0 DUP1 MLOAD PUSH1 0x20 PUSH2 0x100E DUP4 CODECOPY DUP2 MLOAD SWAP2 MSTORE PUSH2 0x888 DUP2 PUSH2 0x9F8 JUMP JUMPDEST PUSH2 0x893 DUP6 DUP6 DUP6 PUSH2 0x50A JUMP JUMPDEST POP PUSH1 0x1 SWAP6 SWAP5 POP POP POP POP POP JUMP JUMPDEST PUSH1 0x0 PUSH32 0xB19546DFF01E856FB3F010C267A7B1C60363CF8A4664E21CC89C26224620214E PUSH2 0x8CB DUP2 PUSH2 0x9F8 JUMP JUMPDEST PUSH2 0x8E3 PUSH1 0x0 DUP1 MLOAD PUSH1 0x20 PUSH2 0x100E DUP4 CODECOPY DUP2 MLOAD SWAP2 MSTORE DUP5 PUSH2 0xA05 JUMP JUMPDEST POP PUSH1 0x1 SWAP2 POP JUMPDEST POP SWAP2 SWAP1 POP JUMP JUMPDEST PUSH1 0x0 DUP3 DUP2 MSTORE PUSH1 0x20 DUP2 SWAP1 MSTORE PUSH1 0x40 SWAP1 KECCAK256 PUSH1 0x1 ADD SLOAD PUSH2 0x90A DUP2 PUSH2 0x9F8 JUMP JUMPDEST PUSH2 0x595 DUP4 DUP4 PUSH2 0xA97 JUMP JUMPDEST PUSH2 0x5CE DUP4 DUP4 DUP4 PUSH1 0x1 PUSH2 0xB72 JUMP JUMPDEST PUSH1 0x1 PUSH1 0x1 PUSH1 0xA0 SHL SUB DUP4 DUP2 AND PUSH1 0x0 SWAP1 DUP2 MSTORE PUSH1 0x2 PUSH1 0x20 SWAP1 DUP2 MSTORE PUSH1 0x40 DUP1 DUP4 KECCAK256 SWAP4 DUP7 AND DUP4 MSTORE SWAP3 SWAP1 MSTORE KECCAK256 SLOAD PUSH1 0x0 NOT DUP2 EQ PUSH2 0x595 JUMPI DUP2 DUP2 LT ISZERO PUSH2 0x98A JUMPI PUSH1 0x40 MLOAD PUSH4 0x7DC7A0D9 PUSH1 0xE1 SHL DUP2 MSTORE PUSH1 0x1 PUSH1 0x1 PUSH1 0xA0 SHL SUB DUP5 AND PUSH1 0x4 DUP3 ADD MSTORE PUSH1 0x24 DUP2 ADD DUP3 SWAP1 MSTORE PUSH1 0x44 DUP2 ADD DUP4 SWAP1 MSTORE PUSH1 0x64 ADD PUSH2 0x567 JUMP JUMPDEST PUSH2 0x595 DUP5 DUP5 DUP5 DUP5 SUB PUSH1 0x0 PUSH2 0xB72 JUMP JUMPDEST PUSH1 0x1 PUSH1 0x1 PUSH1 0xA0 SHL SUB DUP4 AND PUSH2 0x9C3 JUMPI PUSH1 0x40 MLOAD PUSH4 0x4B637E8F PUSH1 0xE1 SHL DUP2 MSTORE PUSH1 0x0 PUSH1 0x4 DUP3 ADD MSTORE PUSH1 0x24 ADD PUSH2 0x567 JUMP JUMPDEST PUSH1 0x1 PUSH1 0x1 PUSH1 0xA0 SHL SUB DUP3 AND PUSH2 0x9ED JUMPI PUSH1 0x40 MLOAD PUSH4 0xEC442F05 PUSH1 0xE0 SHL DUP2 MSTORE PUSH1 0x0 PUSH1 0x4 DUP3 ADD MSTORE PUSH1 0x24 ADD PUSH2 0x567 JUMP JUMPDEST PUSH2 0x5CE DUP4 DUP4 DUP4 PUSH2 0xC47 JUMP JUMPDEST PUSH2 0xA02 DUP2 CALLER PUSH2 0xD71 JUMP JUMPDEST POP JUMP JUMPDEST PUSH1 0x0 PUSH2 0xA11 DUP4 DUP4 PUSH2 0x776 JUMP JUMPDEST PUSH2 0xA8F JUMPI PUSH1 0x0 DUP4 DUP2 MSTORE PUSH1 0x20 DUP2 DUP2 MSTORE PUSH1 0x40 DUP1 DUP4 KECCAK256 PUSH1 0x1 PUSH1 0x1 PUSH1 0xA0 SHL SUB DUP7 AND DUP5 MSTORE SWAP1 SWAP2 MSTORE SWAP1 KECCAK256 DUP1 SLOAD PUSH1 0xFF NOT AND PUSH1 0x1 OR SWAP1 SSTORE PUSH2 0xA47 CALLER SWAP1 JUMP JUMPDEST PUSH1 0x1 PUSH1 0x1 PUSH1 0xA0 SHL SUB AND DUP3 PUSH1 0x1 PUSH1 0x1 PUSH1 0xA0 SHL SUB AND DUP5 PUSH32 0x2F8788117E7EFF1D82E926EC794901D17C78024A50270940304540A733656F0D PUSH1 0x40 MLOAD PUSH1 0x40 MLOAD DUP1 SWAP2 SUB SWAP1 LOG4 POP PUSH1 0x1 PUSH2 0x45A JUMP JUMPDEST POP PUSH1 0x0 PUSH2 0x45A JUMP JUMPDEST PUSH1 0x0 PUSH2 0xAA3 DUP4 DUP4 PUSH2 0x776 JUMP JUMPDEST ISZERO PUSH2 0xA8F JUMPI PUSH1 0x0 DUP4 DUP2 MSTORE PUSH1 0x20 DUP2 DUP2 MSTORE PUSH1 0x40 DUP1 DUP4 KECCAK256 PUSH1 0x1 PUSH1 0x1 PUSH1 0xA0 SHL SUB DUP7 AND DUP1 DUP6 MSTORE SWAP3 MSTORE DUP1 DUP4 KECCAK256 DUP1 SLOAD PUSH1 0xFF NOT AND SWAP1 SSTORE MLOAD CALLER SWAP3 DUP7 SWAP2 PUSH32 0xF6391F5C32D9C69D2A47EA670B442974B53935D1EDC7FD64EB21E047A839171B SWAP2 SWAP1 LOG4 POP PUSH1 0x1 PUSH2 0x45A JUMP JUMPDEST PUSH1 0x1 PUSH1 0x1 PUSH1 0xA0 SHL SUB DUP3 AND PUSH2 0xB2C JUMPI PUSH1 0x40 MLOAD PUSH4 0xEC442F05 PUSH1 0xE0 SHL DUP2 MSTORE PUSH1 0x0 PUSH1 0x4 DUP3 ADD MSTORE PUSH1 0x24 ADD PUSH2 0x567 JUMP JUMPDEST PUSH2 0xB38 PUSH1 0x0 DUP4 DUP4 PUSH2 0xC47 JUMP JUMPDEST POP POP JUMP JUMPDEST PUSH1 0x1 PUSH1 0x1 PUSH1 0xA0 SHL SUB DUP3 AND PUSH2 0xB66 JUMPI PUSH1 0x40 MLOAD PUSH4 0x4B637E8F PUSH1 0xE1 SHL DUP2 MSTORE PUSH1 0x0 PUSH1 0x4 DUP3 ADD MSTORE PUSH1 0x24 ADD PUSH2 0x567 JUMP JUMPDEST PUSH2 0xB38 DUP3 PUSH1 0x0 DUP4 PUSH2 0xC47 JUMP JUMPDEST PUSH1 0x1 PUSH1 0x1 PUSH1 0xA0 SHL SUB DUP5 AND PUSH2 0xB9C JUMPI PUSH1 0x40 MLOAD PUSH4 0xE602DF05 PUSH1 0xE0 SHL DUP2 MSTORE PUSH1 0x0 PUSH1 0x4 DUP3 ADD MSTORE PUSH1 0x24 ADD PUSH2 0x567 JUMP JUMPDEST PUSH1 0x1 PUSH1 0x1 PUSH1 0xA0 SHL SUB DUP4 AND PUSH2 0xBC6 JUMPI PUSH1 0x40 MLOAD PUSH4 0x4A1406B1 PUSH1 0xE1 SHL DUP2 MSTORE PUSH1 0x0 PUSH1 0x4 DUP3 ADD MSTORE PUSH1 0x24 ADD PUSH2 0x567 JUMP JUMPDEST PUSH1 0x1 PUSH1 0x1 PUSH1 0xA0 SHL SUB DUP1 DUP6 AND PUSH1 0x0 SWAP1 DUP2 MSTORE PUSH1 0x2 PUSH1 0x20 SWAP1 DUP2 MSTORE PUSH1 0x40 DUP1 DUP4 KECCAK256 SWAP4 DUP8 AND DUP4 MSTORE SWAP3 SWAP1 MSTORE KECCAK256 DUP3 SWAP1 SSTORE DUP1 ISZERO PUSH2 0x595 JUMPI DUP3 PUSH1 0x1 PUSH1 0x1 PUSH1 0xA0 SHL SUB AND DUP5 PUSH1 0x1 PUSH1 0x1 PUSH1 0xA0 SHL SUB AND PUSH32 0x8C5BE1E5EBEC7D5BD14F71427D1E84F3DD0314C0F7B2291E5B200AC8C7C3B925 DUP5 PUSH1 0x40 MLOAD PUSH2 0xC39 SWAP2 DUP2 MSTORE PUSH1 0x20 ADD SWAP1 JUMP JUMPDEST PUSH1 0x40 MLOAD DUP1 SWAP2 SUB SWAP1 LOG3 POP POP POP POP JUMP JUMPDEST PUSH1 0x1 PUSH1 0x1 PUSH1 0xA0 SHL SUB DUP4 AND PUSH2 0xC72 JUMPI DUP1 PUSH1 0x3 PUSH1 0x0 DUP3 DUP3 SLOAD PUSH2 0xC67 SWAP2 SWAP1 PUSH2 0xFEC JUMP JUMPDEST SWAP1 SWAP2 SSTORE POP PUSH2 0xCE4 SWAP1 POP JUMP JUMPDEST PUSH1 0x1 PUSH1 0x1 PUSH1 0xA0 SHL SUB DUP4 AND PUSH1 0x0 SWAP1 DUP2 MSTORE PUSH1 0x1 PUSH1 0x20 MSTORE PUSH1 0x40 SWAP1 KECCAK256 SLOAD DUP2 DUP2 LT ISZERO PUSH2 0xCC5 JUMPI PUSH1 0x40 MLOAD PUSH4 0x391434E3 PUSH1 0xE2 SHL DUP2 MSTORE PUSH1 0x1 PUSH1 0x1 PUSH1 0xA0 SHL SUB DUP6 AND PUSH1 0x4 DUP3 ADD MSTORE PUSH1 0x24 DUP2 ADD DUP3 SWAP1 MSTORE PUSH1 0x44 DUP2 ADD DUP4 SWAP1 MSTORE PUSH1 0x64 ADD PUSH2 0x567 JUMP JUMPDEST PUSH1 0x1 PUSH1 0x1 PUSH1 0xA0 SHL SUB DUP5 AND PUSH1 0x0 SWAP1 DUP2 MSTORE PUSH1 0x1 PUSH1 0x20 MSTORE PUSH1 0x40 SWAP1 KECCAK256 SWAP1 DUP3 SWAP1 SUB SWAP1 SSTORE JUMPDEST PUSH1 0x1 PUSH1 0x1 PUSH1 0xA0 SHL SUB DUP3 AND PUSH2 0xD00 JUMPI PUSH1 0x3 DUP1 SLOAD DUP3 SWAP1 SUB SWAP1 SSTORE PUSH2 0xD1F JUMP JUMPDEST PUSH1 0x1 PUSH1 0x1 PUSH1 0xA0 SHL SUB DUP3 AND PUSH1 0x0 SWAP1 DUP2 MSTORE PUSH1 0x1 PUSH1 0x20 MSTORE PUSH1 0x40 SWAP1 KECCAK256 DUP1 SLOAD DUP3 ADD SWAP1 SSTORE JUMPDEST DUP2 PUSH1 0x1 PUSH1 0x1 PUSH1 0xA0 SHL SUB AND DUP4 PUSH1 0x1 PUSH1 0x1 PUSH1 0xA0 SHL SUB AND PUSH32 0xDDF252AD1BE2C89B69C2B068FC378DAA952BA7F163C4A11628F55A4DF523B3EF DUP4 PUSH1 0x40 MLOAD PUSH2 0xD64 SWAP2 DUP2 MSTORE PUSH1 0x20 ADD SWAP1 JUMP JUMPDEST PUSH1 0x40 MLOAD DUP1 SWAP2 SUB SWAP1 LOG3 POP POP POP JUMP JUMPDEST PUSH2 0xD7B DUP3 DUP3 PUSH2 0x776 JUMP JUMPDEST PUSH2 0xB38 JUMPI PUSH1 0x40 MLOAD PUSH4 0xE2517D3F PUSH1 0xE0 SHL DUP2 MSTORE PUSH1 0x1 PUSH1 0x1 PUSH1 0xA0 SHL SUB DUP3 AND PUSH1 0x4 DUP3 ADD MSTORE PUSH1 0x24 DUP2 ADD DUP4 SWAP1 MSTORE PUSH1 0x44 ADD PUSH2 0x567 JUMP JUMPDEST PUSH1 0x0 PUSH1 0x20 DUP3 DUP5 SUB SLT ISZERO PUSH2 0xDBC JUMPI PUSH1 0x0 DUP1 REVERT JUMPDEST DUP2 CALLDATALOAD PUSH1 0x1 PUSH1 0x1 PUSH1 0xE0 SHL SUB NOT DUP2 AND DUP2 EQ PUSH2 0xDD4 JUMPI PUSH1 0x0 DUP1 REVERT JUMPDEST SWAP4 SWAP3 POP POP POP JUMP JUMPDEST PUSH1 0x0 DUP2 MLOAD DUP1 DUP5 MSTORE PUSH1 0x0 JUMPDEST DUP2 DUP2 LT ISZERO PUSH2 0xE01 JUMPI PUSH1 0x20 DUP2 DUP6 ADD DUP2 ADD MLOAD DUP7 DUP4 ADD DUP3 ADD MSTORE ADD PUSH2 0xDE5 JUMP JUMPDEST POP PUSH1 0x0 PUSH1 0x20 DUP3 DUP7 ADD ADD MSTORE PUSH1 0x20 PUSH1 0x1F NOT PUSH1 0x1F DUP4 ADD AND DUP6 ADD ADD SWAP2 POP POP SWAP3 SWAP2 POP POP JUMP JUMPDEST PUSH1 0x20 DUP2 MSTORE PUSH1 0x0 PUSH2 0xDD4 PUSH1 0x20 DUP4 ADD DUP5 PUSH2 0xDDB JUMP JUMPDEST DUP1 CALLDATALOAD PUSH1 0x1 PUSH1 0x1 PUSH1 0xA0 SHL SUB DUP2 AND DUP2 EQ PUSH2 0xE4B JUMPI PUSH1 0x0 DUP1 REVERT JUMPDEST SWAP2 SWAP1 POP JUMP JUMPDEST PUSH1 0x0 DUP1 PUSH1 0x40 DUP4 DUP6 SUB SLT ISZERO PUSH2 0xE63 JUMPI PUSH1 0x0 DUP1 REVERT JUMPDEST PUSH2 0xE6C DUP4 PUSH2 0xE34 JUMP JUMPDEST SWAP5 PUSH1 0x20 SWAP4 SWAP1 SWAP4 ADD CALLDATALOAD SWAP4 POP POP POP JUMP JUMPDEST PUSH1 0x0 DUP1 PUSH1 0x0 PUSH1 0x60 DUP5 DUP7 SUB SLT ISZERO PUSH2 0xE8F JUMPI PUSH1 0x0 DUP1 REVERT JUMPDEST PUSH2 0xE98 DUP5 PUSH2 0xE34 JUMP JUMPDEST SWAP3 POP PUSH2 0xEA6 PUSH1 0x20 DUP6 ADD PUSH2 0xE34 JUMP JUMPDEST SWAP2 POP PUSH1 0x40 DUP5 ADD CALLDATALOAD SWAP1 POP SWAP3 POP SWAP3 POP SWAP3 JUMP JUMPDEST PUSH1 0x0 PUSH1 0x20 DUP3 DUP5 SUB SLT ISZERO PUSH2 0xEC8 JUMPI PUSH1 0x0 DUP1 REVERT JUMPDEST POP CALLDATALOAD SWAP2 SWAP1 POP JUMP JUMPDEST PUSH1 0x0 DUP1 PUSH1 0x40 DUP4 DUP6 SUB SLT ISZERO PUSH2 0xEE2 JUMPI PUSH1 0x0 DUP1 REVERT JUMPDEST DUP3 CALLDATALOAD SWAP2 POP PUSH2 0xEF2 PUSH1 0x20 DUP5 ADD PUSH2 0xE34 JUMP JUMPDEST SWAP1 POP SWAP3 POP SWAP3 SWAP1 POP JUMP JUMPDEST PUSH1 0x0 PUSH1 0x20 DUP1 DUP4 ADD DUP2 DUP5 MSTORE DUP1 DUP6 MLOAD DUP1 DUP4 MSTORE PUSH1 0x40 DUP7 ADD SWAP2 POP PUSH1 0x40 DUP2 PUSH1 0x5 SHL DUP8 ADD ADD SWAP3 POP DUP4 DUP8 ADD PUSH1 0x0 JUMPDEST DUP3 DUP2 LT ISZERO PUSH2 0xF50 JUMPI PUSH1 0x3F NOT DUP9 DUP7 SUB ADD DUP5 MSTORE PUSH2 0xF3E DUP6 DUP4 MLOAD PUSH2 0xDDB JUMP JUMPDEST SWAP5 POP SWAP3 DUP6 ADD SWAP3 SWAP1 DUP6 ADD SWAP1 PUSH1 0x1 ADD PUSH2 0xF22 JUMP JUMPDEST POP SWAP3 SWAP8 SWAP7 POP POP POP POP POP POP POP JUMP JUMPDEST PUSH1 0x0 PUSH1 0x20 DUP3 DUP5 SUB SLT ISZERO PUSH2 0xF6F JUMPI PUSH1 0x0 DUP1 REVERT JUMPDEST PUSH2 0xDD4 DUP3 PUSH2 0xE34 JUMP JUMPDEST PUSH1 0x0 DUP1 PUSH1 0x40 DUP4 DUP6 SUB SLT ISZERO PUSH2 0xF8B JUMPI PUSH1 0x0 DUP1 REVERT JUMPDEST PUSH2 0xF94 DUP4 PUSH2 0xE34 JUMP JUMPDEST SWAP2 POP PUSH2 0xEF2 PUSH1 0x20 DUP5 ADD PUSH2 0xE34 JUMP JUMPDEST PUSH1 0x1 DUP2 DUP2 SHR SWAP1 DUP3 AND DUP1 PUSH2 0xFB6 JUMPI PUSH1 0x7F DUP3 AND SWAP2 POP JUMPDEST PUSH1 0x20 DUP3 LT DUP2 SUB PUSH2 0x8E9 JUMPI PUSH4 0x4E487B71 PUSH1 0xE0 SHL PUSH1 0x0 MSTORE PUSH1 0x22 PUSH1 0x4 MSTORE PUSH1 0x24 PUSH1 0x0 REVERT JUMPDEST PUSH4 0x4E487B71 PUSH1 0xE0 SHL PUSH1 0x0 MSTORE PUSH1 0x32 PUSH1 0x4 MSTORE PUSH1 0x24 PUSH1 0x0 REVERT JUMPDEST DUP1 DUP3 ADD DUP1 DUP3 GT ISZERO PUSH2 0x45A JUMPI PUSH4 0x4E487B71 PUSH1 0xE0 SHL PUSH1 0x0 MSTORE PUSH1 0x11 PUSH1 0x4 MSTORE PUSH1 0x24 PUSH1 0x0 REVERT INVALID MSTORE 0xBA DUP3 0x4B STATICCALL 0xBC 0x2B 0xCF 0xCD 0xF7 CREATE 0xED 0xBB BASEFEE PUSH15 0xBB05E1836C90E78047EFEB949990F7 0x2E PUSH0 LOG2 PUSH5 0x6970667358 0x22 SLT KECCAK256 DUP9 GAS SLT 0xCC MOD 0xB2 NUMBER SWAP16 CALLVALUE PUSH20 0x3644BC4F537C8317CAFF6E93F5ED05B961DF1CC3 0x2F 0x4C PUSH5 0x736F6C6343 STOP ADDMOD EQ STOP CALLER "
                                },
                                "gasEstimates": {
                                                "creation": {
                                                                "codeDepositCost": "839000",
                                                                "executionCost": "infinite",
                                                                "totalCost": "infinite"
                                                },
                                                "external": {
                                                                "BRIDGE_ROLE()": "infinite",
                                                                "DEFAULT_ADMIN_ROLE()": "284",
                                                                "OWNER_ROLE()": "305",
                                                                "allowance(address,address)": "infinite",
                                                                "approve(address,uint256)": "24792",
                                                                "assign(address,address,uint256)": "infinite",
                                                                "balanceOf(address)": "2605",
                                                                "burn(address,uint256)": "infinite",
                                                                "checkBalance(address)": "2682",
                                                                "decimals()": "245",
                                                                "getAllAssetsIDs()": "infinite",
                                                                "getId()": "infinite",
                                                                "getRoleAdmin(bytes32)": "2537",
                                                                "giveRole(address)": "infinite",
                                                                "grantRole(bytes32,address)": "infinite",
                                                                "hasPermission(bytes32,address)": "2840",
                                                                "hasRole(bytes32,address)": "2741",
                                                                "id()": "infinite",
                                                                "mint(address,uint256)": "infinite",
                                                                "name()": "infinite",
                                                                "renounceRole(bytes32,address)": "29113",
                                                                "revokeRole(bytes32,address)": "infinite",
                                                                "supportsInterface(bytes4)": "473",
                                                                "symbol()": "infinite",
                                                                "totalSupply()": "2327",
                                                                "transfer(address,address,uint256)": "infinite",
                                                                "transfer(address,uint256)": "51309",
                                                                "transferFrom(address,address,uint256)": "infinite"
                                                }
                                },
                                "methodIdentifiers": {
                                                "BRIDGE_ROLE()": "b5bfddea",
                                                "DEFAULT_ADMIN_ROLE()": "a217fddf",
                                                "OWNER_ROLE()": "e58378bb",
                                                "allowance(address,address)": "dd62ed3e",
                                                "approve(address,uint256)": "095ea7b3",
                                                "assign(address,address,uint256)": "5f52d44e",
                                                "balanceOf(address)": "70a08231",
                                                "burn(address,uint256)": "9dc29fac",
                                                "checkBalance(address)": "5f515226",
                                                "decimals()": "313ce567",
                                                "getAllAssetsIDs()": "5137b8a7",
                                                "getId()": "5d1ca631",
                                                "getRoleAdmin(bytes32)": "248a9ca3",
                                                "giveRole(address)": "c375110d",
                                                "grantRole(bytes32,address)": "2f2ff15d",
                                                "hasPermission(bytes32,address)": "28545c0d",
                                                "hasRole(bytes32,address)": "91d14854",
                                                "id()": "af640d0f",
                                                "mint(address,uint256)": "40c10f19",
                                                "name()": "06fdde03",
                                                "renounceRole(bytes32,address)": "36568abe",
                                                "revokeRole(bytes32,address)": "d547741f",
                                                "supportsInterface(bytes4)": "01ffc9a7",
                                                "symbol()": "95d89b41",
                                                "totalSupply()": "18160ddd",
                                                "transfer(address,address,uint256)": "beabacc8",
                                                "transfer(address,uint256)": "a9059cbb",
                                                "transferFrom(address,address,uint256)": "23b872dd"
                                }
                },
                "storageLayout": {
                                "storage": [
                                                {
                                                                "astId": 26,
                                                                "contract": "/home/kubaya/Desktop/cacti_fork/packages/cactus-plugin-satp-hermes/src/solidity/satp-erc20.sol:SATPContract",
                                                                "label": "_roles",
                                                                "offset": 0,
                                                                "slot": "0",
                                                                "type": "t_mapping(t_bytes32,t_struct(RoleData)21_storage)"
                                                },
                                                {
                                                                "astId": 538,
                                                                "contract": "/home/kubaya/Desktop/cacti_fork/packages/cactus-plugin-satp-hermes/src/solidity/satp-erc20.sol:SATPContract",
                                                                "label": "_balances",
                                                                "offset": 0,
                                                                "slot": "1",
                                                                "type": "t_mapping(t_address,t_uint256)"
                                                },
                                                {
                                                                "astId": 544,
                                                                "contract": "/home/kubaya/Desktop/cacti_fork/packages/cactus-plugin-satp-hermes/src/solidity/satp-erc20.sol:SATPContract",
                                                                "label": "_allowances",
                                                                "offset": 0,
                                                                "slot": "2",
                                                                "type": "t_mapping(t_address,t_mapping(t_address,t_uint256))"
                                                },
                                                {
                                                                "astId": 546,
                                                                "contract": "/home/kubaya/Desktop/cacti_fork/packages/cactus-plugin-satp-hermes/src/solidity/satp-erc20.sol:SATPContract",
                                                                "label": "_totalSupply",
                                                                "offset": 0,
                                                                "slot": "3",
                                                                "type": "t_uint256"
                                                },
                                                {
                                                                "astId": 548,
                                                                "contract": "/home/kubaya/Desktop/cacti_fork/packages/cactus-plugin-satp-hermes/src/solidity/satp-erc20.sol:SATPContract",
                                                                "label": "_name",
                                                                "offset": 0,
                                                                "slot": "4",
                                                                "type": "t_string_storage"
                                                },
                                                {
                                                                "astId": 550,
                                                                "contract": "/home/kubaya/Desktop/cacti_fork/packages/cactus-plugin-satp-hermes/src/solidity/satp-erc20.sol:SATPContract",
                                                                "label": "_symbol",
                                                                "offset": 0,
                                                                "slot": "5",
                                                                "type": "t_string_storage"
                                                },
                                                {
                                                                "astId": 2713,
                                                                "contract": "/home/kubaya/Desktop/cacti_fork/packages/cactus-plugin-satp-hermes/src/solidity/satp-erc20.sol:SATPContract",
                                                                "label": "id",
                                                                "offset": 0,
                                                                "slot": "6",
                                                                "type": "t_string_storage"
                                                }
                                ],
                                "types": {
                                                "t_address": {
                                                                "encoding": "inplace",
                                                                "label": "address",
                                                                "numberOfBytes": "20"
                                                },
                                                "t_bool": {
                                                                "encoding": "inplace",
                                                                "label": "bool",
                                                                "numberOfBytes": "1"
                                                },
                                                "t_bytes32": {
                                                                "encoding": "inplace",
                                                                "label": "bytes32",
                                                                "numberOfBytes": "32"
                                                },
                                                "t_mapping(t_address,t_bool)": {
                                                                "encoding": "mapping",
                                                                "key": "t_address",
                                                                "label": "mapping(address => bool)",
                                                                "numberOfBytes": "32",
                                                                "value": "t_bool"
                                                },
                                                "t_mapping(t_address,t_mapping(t_address,t_uint256))": {
                                                                "encoding": "mapping",
                                                                "key": "t_address",
                                                                "label": "mapping(address => mapping(address => uint256))",
                                                                "numberOfBytes": "32",
                                                                "value": "t_mapping(t_address,t_uint256)"
                                                },
                                                "t_mapping(t_address,t_uint256)": {
                                                                "encoding": "mapping",
                                                                "key": "t_address",
                                                                "label": "mapping(address => uint256)",
                                                                "numberOfBytes": "32",
                                                                "value": "t_uint256"
                                                },
                                                "t_mapping(t_bytes32,t_struct(RoleData)21_storage)": {
                                                                "encoding": "mapping",
                                                                "key": "t_bytes32",
                                                                "label": "mapping(bytes32 => struct AccessControl.RoleData)",
                                                                "numberOfBytes": "32",
                                                                "value": "t_struct(RoleData)21_storage"
                                                },
                                                "t_string_storage": {
                                                                "encoding": "bytes",
                                                                "label": "string",
                                                                "numberOfBytes": "32"
                                                },
                                                "t_struct(RoleData)21_storage": {
                                                                "encoding": "inplace",
                                                                "label": "struct AccessControl.RoleData",
                                                                "members": [
                                                                                {
                                                                                                "astId": 18,
                                                                                                "contract": "/home/kubaya/Desktop/cacti_fork/packages/cactus-plugin-satp-hermes/src/solidity/satp-erc20.sol:SATPContract",
                                                                                                "label": "hasRole",
                                                                                                "offset": 0,
                                                                                                "slot": "0",
                                                                                                "type": "t_mapping(t_address,t_bool)"
                                                                                },
                                                                                {
                                                                                                "astId": 20,
                                                                                                "contract": "/home/kubaya/Desktop/cacti_fork/packages/cactus-plugin-satp-hermes/src/solidity/satp-erc20.sol:SATPContract",
                                                                                                "label": "adminRole",
                                                                                                "offset": 0,
                                                                                                "slot": "1",
                                                                                                "type": "t_bytes32"
                                                                                }
                                                                ],
                                                                "numberOfBytes": "64"
                                                },
                                                "t_uint256": {
                                                                "encoding": "inplace",
                                                                "label": "uint256",
                                                                "numberOfBytes": "32"
                                                }
                                }
                },
                "userdoc": {
                                "kind": "user",
                                "methods": {},
                                "version": 1
                }
}