{
                "abi": [
                                {
                                                "inputs": [
                                                                {
                                                                                "internalType": "address",
                                                                                "name": "_bridge_address",
                                                                                "type": "address"
                                                                },
                                                                {
                                                                                "internalType": "bytes32",
                                                                                "name": "role_given",
                                                                                "type": "bytes32"
                                                                }
                                                ],
                                                "stateMutability": "nonpayable",
                                                "type": "constructor"
                                },
                                {
                                                "inputs": [
                                                                {
                                                                                "internalType": "string",
                                                                                "name": "tokenId",
                                                                                "type": "string"
                                                                },
                                                                {
                                                                                "internalType": "uint256",
                                                                                "name": "amount",
                                                                                "type": "uint256"
                                                                }
                                                ],
                                                "name": "InsuficientAmountLocked",
                                                "type": "error"
                                },
                                {
                                                "inputs": [
                                                                {
                                                                                "internalType": "address",
                                                                                "name": "owner",
                                                                                "type": "address"
                                                                }
                                                ],
                                                "name": "OwnableInvalidOwner",
                                                "type": "error"
                                },
                                {
                                                "inputs": [
                                                                {
                                                                                "internalType": "address",
                                                                                "name": "account",
                                                                                "type": "address"
                                                                }
                                                ],
                                                "name": "OwnableUnauthorizedAccount",
                                                "type": "error"
                                },
                                {
                                                "inputs": [
                                                                {
                                                                                "internalType": "string",
                                                                                "name": "tokenId",
                                                                                "type": "string"
                                                                }
                                                ],
                                                "name": "TokenAlreadyWrapped",
                                                "type": "error"
                                },
                                {
                                                "inputs": [
                                                                {
                                                                                "internalType": "string",
                                                                                "name": "tokenId",
                                                                                "type": "string"
                                                                }
                                                ],
                                                "name": "TokenLocked",
                                                "type": "error"
                                },
                                {
                                                "inputs": [
                                                                {
                                                                                "internalType": "string",
                                                                                "name": "tokenId",
                                                                                "type": "string"
                                                                }
                                                ],
                                                "name": "TokenNotAvailable",
                                                "type": "error"
                                },
                                {
                                                "inputs": [
                                                                {
                                                                                "internalType": "string",
                                                                                "name": "tokenId",
                                                                                "type": "string"
                                                                }
                                                ],
                                                "name": "TokenNotLocked",
                                                "type": "error"
                                },
                                {
                                                "inputs": [
                                                                {
                                                                                "internalType": "string",
                                                                                "name": "tokenId",
                                                                                "type": "string"
                                                                }
                                                ],
                                                "name": "TokenNotUnlocked",
                                                "type": "error"
                                },
                                {
                                                "anonymous": false,
                                                "inputs": [
                                                                {
                                                                                "indexed": true,
                                                                                "internalType": "string",
                                                                                "name": "id",
                                                                                "type": "string"
                                                                },
                                                                {
                                                                                "indexed": false,
                                                                                "internalType": "bytes[]",
                                                                                "name": "value",
                                                                                "type": "bytes[]"
                                                                }
                                                ],
                                                "name": "Changed",
                                                "type": "event"
                                },
                                {
                                                "anonymous": false,
                                                "inputs": [
                                                                {
                                                                                "indexed": true,
                                                                                "internalType": "address",
                                                                                "name": "previousOwner",
                                                                                "type": "address"
                                                                },
                                                                {
                                                                                "indexed": true,
                                                                                "internalType": "address",
                                                                                "name": "newOwner",
                                                                                "type": "address"
                                                                }
                                                ],
                                                "name": "OwnershipTransferred",
                                                "type": "event"
                                },
                                {
                                                "inputs": [],
                                                "name": "BRIDGE_ROLE",
                                                "outputs": [
                                                                {
                                                                                "internalType": "bytes32",
                                                                                "name": "",
                                                                                "type": "bytes32"
                                                                }
                                                ],
                                                "stateMutability": "view",
                                                "type": "function"
                                },
                                {
                                                "inputs": [
                                                                {
                                                                                "internalType": "string",
                                                                                "name": "tokenId",
                                                                                "type": "string"
                                                                },
                                                                {
                                                                                "internalType": "address",
                                                                                "name": "receiver_account",
                                                                                "type": "address"
                                                                },
                                                                {
                                                                                "internalType": "uint256",
                                                                                "name": "amount",
                                                                                "type": "uint256"
                                                                }
                                                ],
                                                "name": "assign",
                                                "outputs": [
                                                                {
                                                                                "internalType": "bool",
                                                                                "name": "success",
                                                                                "type": "bool"
                                                                }
                                                ],
                                                "stateMutability": "nonpayable",
                                                "type": "function"
                                },
                                {
                                                "inputs": [],
                                                "name": "bridge_address",
                                                "outputs": [
                                                                {
                                                                                "internalType": "address",
                                                                                "name": "",
                                                                                "type": "address"
                                                                }
                                                ],
                                                "stateMutability": "view",
                                                "type": "function"
                                },
                                {
                                                "inputs": [
                                                                {
                                                                                "internalType": "string",
                                                                                "name": "tokenId",
                                                                                "type": "string"
                                                                },
                                                                {
                                                                                "internalType": "uint256",
                                                                                "name": "amount",
                                                                                "type": "uint256"
                                                                }
                                                ],
                                                "name": "burn",
                                                "outputs": [
                                                                {
                                                                                "internalType": "bool",
                                                                                "name": "success",
                                                                                "type": "bool"
                                                                }
                                                ],
                                                "stateMutability": "nonpayable",
                                                "type": "function"
                                },
                                {
                                                "inputs": [],
                                                "name": "getAllAssetsIDs",
                                                "outputs": [
                                                                {
                                                                                "internalType": "string[]",
                                                                                "name": "",
                                                                                "type": "string[]"
                                                                }
                                                ],
                                                "stateMutability": "view",
                                                "type": "function"
                                },
                                {
                                                "inputs": [
                                                                {
                                                                                "internalType": "string",
                                                                                "name": "tokenId",
                                                                                "type": "string"
                                                                }
                                                ],
                                                "name": "getToken",
                                                "outputs": [
                                                                {
                                                                                "components": [
                                                                                                {
                                                                                                                "internalType": "address",
                                                                                                                "name": "contractAddress",
                                                                                                                "type": "address"
                                                                                                },
                                                                                                {
                                                                                                                "internalType": "string",
                                                                                                                "name": "tokenType",
                                                                                                                "type": "string"
                                                                                                },
                                                                                                {
                                                                                                                "internalType": "string",
                                                                                                                "name": "tokenId",
                                                                                                                "type": "string"
                                                                                                },
                                                                                                {
                                                                                                                "internalType": "address",
                                                                                                                "name": "owner",
                                                                                                                "type": "address"
                                                                                                },
                                                                                                {
                                                                                                                "internalType": "uint256",
                                                                                                                "name": "amount",
                                                                                                                "type": "uint256"
                                                                                                }
                                                                                ],
                                                                                "internalType": "struct Token",
                                                                                "name": "token",
                                                                                "type": "tuple"
                                                                }
                                                ],
                                                "stateMutability": "view",
                                                "type": "function"
                                },
                                {
                                                "inputs": [
                                                                {
                                                                                "internalType": "string",
                                                                                "name": "tokenId",
                                                                                "type": "string"
                                                                },
                                                                {
                                                                                "internalType": "uint256",
                                                                                "name": "amount",
                                                                                "type": "uint256"
                                                                }
                                                ],
                                                "name": "lock",
                                                "outputs": [
                                                                {
                                                                                "internalType": "bool",
                                                                                "name": "success",
                                                                                "type": "bool"
                                                                }
                                                ],
                                                "stateMutability": "nonpayable",
                                                "type": "function"
                                },
                                {
                                                "inputs": [
                                                                {
                                                                                "internalType": "string",
                                                                                "name": "tokenId",
                                                                                "type": "string"
                                                                },
                                                                {
                                                                                "internalType": "uint256",
                                                                                "name": "amount",
                                                                                "type": "uint256"
                                                                }
                                                ],
                                                "name": "mint",
                                                "outputs": [
                                                                {
                                                                                "internalType": "bool",
                                                                                "name": "success",
                                                                                "type": "bool"
                                                                }
                                                ],
                                                "stateMutability": "nonpayable",
                                                "type": "function"
                                },
                                {
                                                "inputs": [],
                                                "name": "owner",
                                                "outputs": [
                                                                {
                                                                                "internalType": "address",
                                                                                "name": "",
                                                                                "type": "address"
                                                                }
                                                ],
                                                "stateMutability": "view",
                                                "type": "function"
                                },
                                {
                                                "inputs": [],
                                                "name": "renounceOwnership",
                                                "outputs": [],
                                                "stateMutability": "nonpayable",
                                                "type": "function"
                                },
                                {
                                                "inputs": [
                                                                {
                                                                                "internalType": "string",
                                                                                "name": "",
                                                                                "type": "string"
                                                                }
                                                ],
                                                "name": "tokens",
                                                "outputs": [
                                                                {
                                                                                "internalType": "address",
                                                                                "name": "contractAddress",
                                                                                "type": "address"
                                                                },
                                                                {
                                                                                "internalType": "string",
                                                                                "name": "tokenType",
                                                                                "type": "string"
                                                                },
                                                                {
                                                                                "internalType": "string",
                                                                                "name": "tokenId",
                                                                                "type": "string"
                                                                },
                                                                {
                                                                                "internalType": "address",
                                                                                "name": "owner",
                                                                                "type": "address"
                                                                },
                                                                {
                                                                                "internalType": "uint256",
                                                                                "name": "amount",
                                                                                "type": "uint256"
                                                                }
                                                ],
                                                "stateMutability": "view",
                                                "type": "function"
                                },
                                {
                                                "inputs": [
                                                                {
                                                                                "internalType": "address",
                                                                                "name": "newOwner",
                                                                                "type": "address"
                                                                }
                                                ],
                                                "name": "transferOwnership",
                                                "outputs": [],
                                                "stateMutability": "nonpayable",
                                                "type": "function"
                                },
                                {
                                                "inputs": [
                                                                {
                                                                                "internalType": "string",
                                                                                "name": "tokenId",
                                                                                "type": "string"
                                                                },
                                                                {
                                                                                "internalType": "uint256",
                                                                                "name": "amount",
                                                                                "type": "uint256"
                                                                }
                                                ],
                                                "name": "unlock",
                                                "outputs": [
                                                                {
                                                                                "internalType": "bool",
                                                                                "name": "success",
                                                                                "type": "bool"
                                                                }
                                                ],
                                                "stateMutability": "nonpayable",
                                                "type": "function"
                                },
                                {
                                                "inputs": [
                                                                {
                                                                                "internalType": "string",
                                                                                "name": "tokenId",
                                                                                "type": "string"
                                                                }
                                                ],
                                                "name": "unwrap",
                                                "outputs": [
                                                                {
                                                                                "internalType": "bool",
                                                                                "name": "success",
                                                                                "type": "bool"
                                                                }
                                                ],
                                                "stateMutability": "nonpayable",
                                                "type": "function"
                                },
                                {
                                                "inputs": [
                                                                {
                                                                                "internalType": "address",
                                                                                "name": "contractAddress",
                                                                                "type": "address"
                                                                },
                                                                {
                                                                                "internalType": "string",
                                                                                "name": "tokenType",
                                                                                "type": "string"
                                                                },
                                                                {
                                                                                "internalType": "string",
                                                                                "name": "tokenId",
                                                                                "type": "string"
                                                                },
                                                                {
                                                                                "internalType": "address",
                                                                                "name": "owner",
                                                                                "type": "address"
                                                                }
                                                ],
                                                "name": "wrap",
                                                "outputs": [
                                                                {
                                                                                "internalType": "bool",
                                                                                "name": "wrapSuccess",
                                                                                "type": "bool"
                                                                }
                                                ],
                                                "stateMutability": "nonpayable",
                                                "type": "function"
                                }
                ],
                "devdoc": {
                                "errors": {
                                                "OwnableInvalidOwner(address)": [
                                                                {
                                                                                "details": "The owner is not a valid owner account. (eg. `address(0)`)"
                                                                }
                                                ],
                                                "OwnableUnauthorizedAccount(address)": [
                                                                {
                                                                                "details": "The caller account is not authorized to perform an operation."
                                                                }
                                                ]
                                },
                                "kind": "dev",
                                "methods": {
                                                "owner()": {
                                                                "details": "Returns the address of the current owner."
                                                },
                                                "renounceOwnership()": {
                                                                "details": "Leaves the contract without owner. It will not be possible to call `onlyOwner` functions. Can only be called by the current owner. NOTE: Renouncing ownership will leave the contract without an owner, thereby disabling any functionality that is only available to the owner."
                                                },
                                                "transferOwnership(address)": {
                                                                "details": "Transfers ownership of the contract to a new account (`newOwner`). Can only be called by the current owner."
                                                }
                                },
                                "version": 1
                },
                "evm": {
                                "bytecode": {
                                                "linkReferences": {},
                                                "object": "60806040523480156200001157600080fd5b5060405162001ece38038062001ece8339810160408190526200003491620000ea565b816001600160a01b0381166200006457604051631e4fbdf760e01b81526000600482015260240160405180910390fd5b6200006f816200009a565b50600480546001600160a01b0319166001600160a01b03939093169290921790915560015562000126565b600080546001600160a01b038381166001600160a01b0319831681178455604051919092169283917f8be0079c531659141344cd1fd0a4f28419497f9722a3daafe3b4186f6b6457e09190a35050565b60008060408385031215620000fe57600080fd5b82516001600160a01b03811681146200011657600080fd5b6020939093015192949293505050565b611d9880620001366000396000f3fe608060405234801561001057600080fd5b50600436106100f55760003560e01c80638da5cb5b11610097578063c1733f6811610066578063c1733f6814610208578063d9cf884c14610228578063e1efb5961461023b578063f2fde38b1461024e57600080fd5b80638da5cb5b146101ba578063a1bc17c5146101cb578063b48272cc146101de578063b5bfddea146101f157600080fd5b80634534ba17116100d35780634534ba17146101755780635137b8a714610188578063715018a61461019d5780638d7d180b146101a757600080fd5b806304c2320b146100fa578063056b01ce146101275780631255c1891461014a575b600080fd5b61010d610108366004611770565b610261565b60405161011e9594939291906117fd565b60405180910390f35b61013a610135366004611847565b6103bf565b604051901515815260200161011e565b60045461015d906001600160a01b031681565b6040516001600160a01b03909116815260200161011e565b61013a6101833660046118a3565b610553565b61019061071b565b60405161011e91906118fa565b6101a56107f4565b005b61013a6101b536600461195c565b610808565b6000546001600160a01b031661015d565b61013a6101d9366004611770565b610a65565b61013a6101ec366004611847565b610c28565b6101fa60015481565b60405190815260200161011e565b61021b610216366004611770565b610de0565b60405161011e91906119e1565b61013a610236366004611847565b610fa5565b61013a610249366004611847565b611299565b6101a561025c366004611a51565b61143f565b8051602081830181018051600282529282019190930120915280546001820180546001600160a01b03909216929161029890611a6c565b80601f01602080910402602001604051908101604052809291908181526020018280546102c490611a6c565b80156103115780601f106102e657610100808354040283529160200191610311565b820191906000526020600020905b8154815290600101906020018083116102f457829003601f168201915b50505050509080600201805461032690611a6c565b80601f016020809104026020016040519081016040528092919081815260200182805461035290611a6c565b801561039f5780601f106103745761010080835404028352916020019161039f565b820191906000526020600020905b81548152906001019060200180831161038257829003601f168201915b50505050600383015460049093015491926001600160a01b031691905085565b60006103c961147d565b60006001600160a01b03166002846040516103e49190611aa6565b908152604051908190036020019020546001600160a01b031603610426578260405163c0bab25f60e01b815260040161041d9190611ac2565b60405180910390fd5b60006002846040516104389190611aa6565b90815260405190819003602001812054306024830152604482018590526001600160a01b03169060640160408051601f198184030181529181526020820180516001600160e01b03166340c10f1960e01b179052516104979190611aa6565b6000604051808303816000865af19150503d80600081146104d4576040519150601f19603f3d011682016040523d82523d6000602084013e6104d9565b606091505b50509050806105235760405162461bcd60e51b81526020600482015260166024820152751b5a5b9d08185cdcd95d0818d85b1b0819985a5b195960521b604482015260640161041d565b826002856040516105349190611aa6565b9081526040519081900360200190206004015550600190505b92915050565b600061055d61147d565b8160028560405161056e9190611aa6565b90815260200160405180910390206004015410156105ce5760405162461bcd60e51b815260206004820181905260248201527f61737369676e206173736574206173736574206973206e6f74206c6f636b6564604482015260640161041d565b60006002856040516105e09190611aa6565b908152604051908190036020018120543060248301526001600160a01b03868116604484015260648301869052169060840160408051601f198184030181529181526020820180516001600160e01b0316632fa96a2760e11b179052516106479190611aa6565b6000604051808303816000865af19150503d8060008114610684576040519150601f19603f3d011682016040523d82523d6000602084013e610689565b606091505b50509050806106da5760405162461bcd60e51b815260206004820152601860248201527f61737369676e2061737365742063616c6c206661696c65640000000000000000604482015260640161041d565b826002866040516106eb9190611aa6565b9081526020016040518091039020600401600082825461070b9190611aeb565b9091555060019695505050505050565b60606003805480602002602001604051908101604052809291908181526020016000905b828210156107eb57838290600052602060002001805461075e90611a6c565b80601f016020809104026020016040519081016040528092919081815260200182805461078a90611a6c565b80156107d75780601f106107ac576101008083540402835291602001916107d7565b820191906000526020600020905b8154815290600101906020018083116107ba57829003601f168201915b50505050508152602001906001019061073f565b50505050905090565b6107fc61147d565b61080660006114aa565b565b600061081261147d565b60006001600160a01b031660028460405161082d9190611aa6565b908152604051908190036020019020546001600160a01b03161461086657826040516319eac8d160e21b815260040161041d9190611ac2565b60015460405160248101919091523060448201526000906001600160a01b0387169060640160408051601f198184030181529181526020820180516001600160e01b03166328545c0d60e01b179052516108c09190611aa6565b6000604051808303816000865af19150503d80600081146108fd576040519150601f19603f3d011682016040523d82523d6000602084013e610902565b606091505b505090508061094b5760028460405161091b9190611aa6565b9081526040519081900360200181205463118cdaa760e01b82526001600160a01b0316600482015260240161041d565b6040518060a00160405280876001600160a01b03168152602001868152602001858152602001846001600160a01b0316815260200160008152506002856040516109959190611aa6565b90815260405160209181900382019020825181546001600160a01b0319166001600160a01b039091161781559082015160018201906109d49082611b4d565b50604082015160028201906109e99082611b4d565b506060820151600382810180546001600160a01b0319166001600160a01b039093169290921790915560809092015160049091015580546001810182556000919091527fc2575a0e9e593c00f959f8c92f12db2869c3395a3b0502d05e2516446f71f85b01610a588582611b4d565b5060019695505050505050565b6000610a6f61147d565b60006001600160a01b0316600283604051610a8a9190611aa6565b908152604051908190036020019020546001600160a01b031603610ac3578160405163c0bab25f60e01b815260040161041d9190611ac2565b6000600283604051610ad59190611aa6565b9081526020016040518091039020600401541115610b085781604051635be9608560e11b815260040161041d9190611ac2565b610bba600283604051610b1b9190611aa6565b90815260200160405180910390206002018054610b3790611a6c565b80601f0160208091040260200160405190810160405280929190818152602001828054610b6390611a6c565b8015610bb05780601f10610b8557610100808354040283529160200191610bb0565b820191906000526020600020905b815481529060010190602001808311610b9357829003601f168201915b50505050506114fa565b600282604051610bca9190611aa6565b90815260405190819003602001902080546001600160a01b03191681556000610bf6600183018261167f565b610c0460028301600061167f565b506003810180546001600160a01b031916905560006004909101555060015b919050565b6000610c3261147d565b81600284604051610c439190611aa6565b9081526020016040518091039020600401541015610ca35760405162461bcd60e51b815260206004820152601e60248201527f6275726e206173736574206173736574206973206e6f74206c6f636b65640000604482015260640161041d565b6000600284604051610cb59190611aa6565b90815260405190819003602001812054306024830152604482018590526001600160a01b03169060640160408051601f198184030181529181526020820180516001600160e01b0316632770a7eb60e21b17905251610d149190611aa6565b6000604051808303816000865af19150503d8060008114610d51576040519150601f19603f3d011682016040523d82523d6000602084013e610d56565b606091505b5050905080610da05760405162461bcd60e51b8152602060048201526016602482015275189d5c9b88185cdcd95d0818d85b1b0819985a5b195960521b604482015260640161041d565b82600285604051610db19190611aa6565b90815260200160405180910390206004016000828254610dd19190611aeb565b90915550600195945050505050565b610e246040518060a0016040528060006001600160a01b03168152602001606081526020016060815260200160006001600160a01b03168152602001600081525090565b600282604051610e349190611aa6565b90815260408051918290036020908101832060a0840190925281546001600160a01b0316835260018201805491840191610e6d90611a6c565b80601f0160208091040260200160405190810160405280929190818152602001828054610e9990611a6c565b8015610ee65780601f10610ebb57610100808354040283529160200191610ee6565b820191906000526020600020905b815481529060010190602001808311610ec957829003601f168201915b50505050508152602001600282018054610eff90611a6c565b80601f0160208091040260200160405190810160405280929190818152602001828054610f2b90611a6c565b8015610f785780601f10610f4d57610100808354040283529160200191610f78565b820191906000526020600020905b815481529060010190602001808311610f5b57829003601f168201915b505050918352505060038201546001600160a01b0316602082015260049091015460409091015292915050565b6000610faf61147d565b60006001600160a01b0316600284604051610fca9190611aa6565b908152604051908190036020019020546001600160a01b031603611003578260405163c0bab25f60e01b815260040161041d9190611ac2565b816002846040516110149190611aa6565b908152602001604051809103902060040154101561104957828260405163076abcf360e51b815260040161041d929190611c0d565b600060028460405161105b9190611aa6565b90815260405190819003602001812054306024830152604482018590526001600160a01b03169060640160408051601f198184030181529181526020820180516001600160e01b031663095ea7b360e01b179052516110ba9190611aa6565b6000604051808303816000865af19150503d80600081146110f7576040519150601f19603f3d011682016040523d82523d6000602084013e6110fc565b606091505b505090508061112057836040516358300fe760e01b815260040161041d9190611ac2565b60006002856040516111329190611aa6565b908152604051908190036020018120546001600160a01b031690309060029061115c908990611aa6565b908152604051908190036020018120600301546001600160a01b031690600290611187908a90611aa6565b908152604051908190036020018120600401546001600160a01b039384166024830152919092166044830152606482015260840160408051601f198184030181529181526020820180516001600160e01b03166317d5759960e31b179052516111f09190611aa6565b6000604051808303816000865af19150503d806000811461122d576040519150601f19603f3d011682016040523d82523d6000602084013e611232565b606091505b50509050801561127e578360028660405161124d9190611aa6565b9081526020016040518091039020600401600082825461126d9190611aeb565b909155506001935061054d92505050565b846040516358300fe760e01b815260040161041d9190611ac2565b60006112a361147d565b60006001600160a01b03166002846040516112be9190611aa6565b908152604051908190036020019020546001600160a01b0316036112f7578260405163c0bab25f60e01b815260040161041d9190611ac2565b60006002846040516113099190611aa6565b908152604051908190036020018120546001600160a01b031690600290611331908790611aa6565b908152604051908190036020018120600301546001600160a01b031660248201523060448201526064810185905260840160408051601f198184030181529181526020820180516001600160e01b03166317d5759960e31b179052516113979190611aa6565b6000604051808303816000865af19150503d80600081146113d4576040519150601f19603f3d011682016040523d82523d6000602084013e6113d9565b606091505b50509050801561142457826002856040516113f49190611aa6565b908152602001604051809103902060040160008282546114149190611c2f565b909155506001925061054d915050565b8360405163412204b560e11b815260040161041d9190611ac2565b61144761147d565b6001600160a01b03811661147157604051631e4fbdf760e01b81526000600482015260240161041d565b61147a816114aa565b50565b6000546001600160a01b031633146108065760405163118cdaa760e01b815233600482015260240161041d565b600080546001600160a01b038381166001600160a01b0319831681178455604051919092169283917f8be0079c531659141344cd1fd0a4f28419497f9722a3daafe3b4186f6b6457e09190a35050565b60005b600354811015611654576115b66003828154811061151d5761151d611c42565b90600052602060002001805461153290611a6c565b80601f016020809104026020016040519081016040528092919081815260200182805461155e90611a6c565b80156115ab5780601f10611580576101008083540402835291602001916115ab565b820191906000526020600020905b81548152906001019060200180831161158e57829003601f168201915b505050505083611658565b1561164257600380546115cb90600190611aeb565b815481106115db576115db611c42565b90600052602060002001600382815481106115f8576115f8611c42565b90600052602060002001908161160e9190611c58565b50600380548061162057611620611d33565b60019003818190600052602060002001600061163c919061167f565b90555050565b8061164c81611d49565b9150506114fd565b5050565b600081518351148015611678575081805190602001208380519060200120145b9392505050565b50805461168b90611a6c565b6000825580601f1061169b575050565b601f01602090049060005260206000209081019061147a91905b808211156116c957600081556001016116b5565b5090565b634e487b7160e01b600052604160045260246000fd5b600082601f8301126116f457600080fd5b813567ffffffffffffffff8082111561170f5761170f6116cd565b604051601f8301601f19908116603f01168101908282118183101715611737576117376116cd565b8160405283815286602085880101111561175057600080fd5b836020870160208301376000602085830101528094505050505092915050565b60006020828403121561178257600080fd5b813567ffffffffffffffff81111561179957600080fd5b6117a5848285016116e3565b949350505050565b60005b838110156117c85781810151838201526020016117b0565b50506000910152565b600081518084526117e98160208601602086016117ad565b601f01601f19169290920160200192915050565b600060018060a01b03808816835260a0602084015261181f60a08401886117d1565b838103604085015261183181886117d1565b9590911660608401525050608001529392505050565b6000806040838503121561185a57600080fd5b823567ffffffffffffffff81111561187157600080fd5b61187d858286016116e3565b95602094909401359450505050565b80356001600160a01b0381168114610c2357600080fd5b6000806000606084860312156118b857600080fd5b833567ffffffffffffffff8111156118cf57600080fd5b6118db868287016116e3565b9350506118ea6020850161188c565b9150604084013590509250925092565b6000602080830181845280855180835260408601915060408160051b870101925083870160005b8281101561194f57603f1988860301845261193d8583516117d1565b94509285019290850190600101611921565b5092979650505050505050565b6000806000806080858703121561197257600080fd5b61197b8561188c565b9350602085013567ffffffffffffffff8082111561199857600080fd5b6119a4888389016116e3565b945060408701359150808211156119ba57600080fd5b506119c7878288016116e3565b9250506119d66060860161188c565b905092959194509250565b60208152600060018060a01b03808451166020840152602084015160a06040850152611a1060c08501826117d1565b90506040850151601f19858303016060860152611a2d82826117d1565b915050816060860151166080850152608085015160a0850152809250505092915050565b600060208284031215611a6357600080fd5b6116788261188c565b600181811c90821680611a8057607f821691505b602082108103611aa057634e487b7160e01b600052602260045260246000fd5b50919050565b60008251611ab88184602087016117ad565b9190910192915050565b60208152600061167860208301846117d1565b634e487b7160e01b600052601160045260246000fd5b8181038181111561054d5761054d611ad5565b601f821115611b4857600081815260208120601f850160051c81016020861015611b255750805b601f850160051c820191505b81811015611b4457828155600101611b31565b5050505b505050565b815167ffffffffffffffff811115611b6757611b676116cd565b611b7b81611b758454611a6c565b84611afe565b602080601f831160018114611bb05760008415611b985750858301515b600019600386901b1c1916600185901b178555611b44565b600085815260208120601f198616915b82811015611bdf57888601518255948401946001909101908401611bc0565b5085821015611bfd5787850151600019600388901b60f8161c191681555b5050505050600190811b01905550565b604081526000611c2060408301856117d1565b90508260208301529392505050565b8082018082111561054d5761054d611ad5565b634e487b7160e01b600052603260045260246000fd5b818103611c63575050565b611c6d8254611a6c565b67ffffffffffffffff811115611c8557611c856116cd565b611c9381611b758454611a6c565b6000601f821160018114611cc75760008315611caf5750848201545b600019600385901b1c1916600184901b178455611d2c565b600085815260209020601f19841690600086815260209020845b83811015611d015782860154825560019586019590910190602001611ce1565b5085831015611d1f5781850154600019600388901b60f8161c191681555b50505060018360011b0184555b5050505050565b634e487b7160e01b600052603160045260246000fd5b600060018201611d5b57611d5b611ad5565b506001019056fea264697066735822122035d7e37d8c7567cf8b60eda20aee7cfdd2b5b2c8c7796af8e211a24d1fcd0c0464736f6c63430008140033",
                                                "opcodes": "PUSH1 0x80 PUSH1 0x40 MSTORE CALLVALUE DUP1 ISZERO PUSH3 0x11 JUMPI PUSH1 0x0 DUP1 REVERT JUMPDEST POP PUSH1 0x40 MLOAD PUSH3 0x1ECE CODESIZE SUB DUP1 PUSH3 0x1ECE DUP4 CODECOPY DUP2 ADD PUSH1 0x40 DUP2 SWAP1 MSTORE PUSH3 0x34 SWAP2 PUSH3 0xEA JUMP JUMPDEST DUP2 PUSH1 0x1 PUSH1 0x1 PUSH1 0xA0 SHL SUB DUP2 AND PUSH3 0x64 JUMPI PUSH1 0x40 MLOAD PUSH4 0x1E4FBDF7 PUSH1 0xE0 SHL DUP2 MSTORE PUSH1 0x0 PUSH1 0x4 DUP3 ADD MSTORE PUSH1 0x24 ADD PUSH1 0x40 MLOAD DUP1 SWAP2 SUB SWAP1 REVERT JUMPDEST PUSH3 0x6F DUP2 PUSH3 0x9A JUMP JUMPDEST POP PUSH1 0x4 DUP1 SLOAD PUSH1 0x1 PUSH1 0x1 PUSH1 0xA0 SHL SUB NOT AND PUSH1 0x1 PUSH1 0x1 PUSH1 0xA0 SHL SUB SWAP4 SWAP1 SWAP4 AND SWAP3 SWAP1 SWAP3 OR SWAP1 SWAP2 SSTORE PUSH1 0x1 SSTORE PUSH3 0x126 JUMP JUMPDEST PUSH1 0x0 DUP1 SLOAD PUSH1 0x1 PUSH1 0x1 PUSH1 0xA0 SHL SUB DUP4 DUP2 AND PUSH1 0x1 PUSH1 0x1 PUSH1 0xA0 SHL SUB NOT DUP4 AND DUP2 OR DUP5 SSTORE PUSH1 0x40 MLOAD SWAP2 SWAP1 SWAP3 AND SWAP3 DUP4 SWAP2 PUSH32 0x8BE0079C531659141344CD1FD0A4F28419497F9722A3DAAFE3B4186F6B6457E0 SWAP2 SWAP1 LOG3 POP POP JUMP JUMPDEST PUSH1 0x0 DUP1 PUSH1 0x40 DUP4 DUP6 SUB SLT ISZERO PUSH3 0xFE JUMPI PUSH1 0x0 DUP1 REVERT JUMPDEST DUP3 MLOAD PUSH1 0x1 PUSH1 0x1 PUSH1 0xA0 SHL SUB DUP2 AND DUP2 EQ PUSH3 0x116 JUMPI PUSH1 0x0 DUP1 REVERT JUMPDEST PUSH1 0x20 SWAP4 SWAP1 SWAP4 ADD MLOAD SWAP3 SWAP5 SWAP3 SWAP4 POP POP POP JUMP JUMPDEST PUSH2 0x1D98 DUP1 PUSH3 0x136 PUSH1 0x0 CODECOPY PUSH1 0x0 RETURN INVALID PUSH1 0x80 PUSH1 0x40 MSTORE CALLVALUE DUP1 ISZERO PUSH2 0x10 JUMPI PUSH1 0x0 DUP1 REVERT JUMPDEST POP PUSH1 0x4 CALLDATASIZE LT PUSH2 0xF5 JUMPI PUSH1 0x0 CALLDATALOAD PUSH1 0xE0 SHR DUP1 PUSH4 0x8DA5CB5B GT PUSH2 0x97 JUMPI DUP1 PUSH4 0xC1733F68 GT PUSH2 0x66 JUMPI DUP1 PUSH4 0xC1733F68 EQ PUSH2 0x208 JUMPI DUP1 PUSH4 0xD9CF884C EQ PUSH2 0x228 JUMPI DUP1 PUSH4 0xE1EFB596 EQ PUSH2 0x23B JUMPI DUP1 PUSH4 0xF2FDE38B EQ PUSH2 0x24E JUMPI PUSH1 0x0 DUP1 REVERT JUMPDEST DUP1 PUSH4 0x8DA5CB5B EQ PUSH2 0x1BA JUMPI DUP1 PUSH4 0xA1BC17C5 EQ PUSH2 0x1CB JUMPI DUP1 PUSH4 0xB48272CC EQ PUSH2 0x1DE JUMPI DUP1 PUSH4 0xB5BFDDEA EQ PUSH2 0x1F1 JUMPI PUSH1 0x0 DUP1 REVERT JUMPDEST DUP1 PUSH4 0x4534BA17 GT PUSH2 0xD3 JUMPI DUP1 PUSH4 0x4534BA17 EQ PUSH2 0x175 JUMPI DUP1 PUSH4 0x5137B8A7 EQ PUSH2 0x188 JUMPI DUP1 PUSH4 0x715018A6 EQ PUSH2 0x19D JUMPI DUP1 PUSH4 0x8D7D180B EQ PUSH2 0x1A7 JUMPI PUSH1 0x0 DUP1 REVERT JUMPDEST DUP1 PUSH4 0x4C2320B EQ PUSH2 0xFA JUMPI DUP1 PUSH4 0x56B01CE EQ PUSH2 0x127 JUMPI DUP1 PUSH4 0x1255C189 EQ PUSH2 0x14A JUMPI JUMPDEST PUSH1 0x0 DUP1 REVERT JUMPDEST PUSH2 0x10D PUSH2 0x108 CALLDATASIZE PUSH1 0x4 PUSH2 0x1770 JUMP JUMPDEST PUSH2 0x261 JUMP JUMPDEST PUSH1 0x40 MLOAD PUSH2 0x11E SWAP6 SWAP5 SWAP4 SWAP3 SWAP2 SWAP1 PUSH2 0x17FD JUMP JUMPDEST PUSH1 0x40 MLOAD DUP1 SWAP2 SUB SWAP1 RETURN JUMPDEST PUSH2 0x13A PUSH2 0x135 CALLDATASIZE PUSH1 0x4 PUSH2 0x1847 JUMP JUMPDEST PUSH2 0x3BF JUMP JUMPDEST PUSH1 0x40 MLOAD SWAP1 ISZERO ISZERO DUP2 MSTORE PUSH1 0x20 ADD PUSH2 0x11E JUMP JUMPDEST PUSH1 0x4 SLOAD PUSH2 0x15D SWAP1 PUSH1 0x1 PUSH1 0x1 PUSH1 0xA0 SHL SUB AND DUP2 JUMP JUMPDEST PUSH1 0x40 MLOAD PUSH1 0x1 PUSH1 0x1 PUSH1 0xA0 SHL SUB SWAP1 SWAP2 AND DUP2 MSTORE PUSH1 0x20 ADD PUSH2 0x11E JUMP JUMPDEST PUSH2 0x13A PUSH2 0x183 CALLDATASIZE PUSH1 0x4 PUSH2 0x18A3 JUMP JUMPDEST PUSH2 0x553 JUMP JUMPDEST PUSH2 0x190 PUSH2 0x71B JUMP JUMPDEST PUSH1 0x40 MLOAD PUSH2 0x11E SWAP2 SWAP1 PUSH2 0x18FA JUMP JUMPDEST PUSH2 0x1A5 PUSH2 0x7F4 JUMP JUMPDEST STOP JUMPDEST PUSH2 0x13A PUSH2 0x1B5 CALLDATASIZE PUSH1 0x4 PUSH2 0x195C JUMP JUMPDEST PUSH2 0x808 JUMP JUMPDEST PUSH1 0x0 SLOAD PUSH1 0x1 PUSH1 0x1 PUSH1 0xA0 SHL SUB AND PUSH2 0x15D JUMP JUMPDEST PUSH2 0x13A PUSH2 0x1D9 CALLDATASIZE PUSH1 0x4 PUSH2 0x1770 JUMP JUMPDEST PUSH2 0xA65 JUMP JUMPDEST PUSH2 0x13A PUSH2 0x1EC CALLDATASIZE PUSH1 0x4 PUSH2 0x1847 JUMP JUMPDEST PUSH2 0xC28 JUMP JUMPDEST PUSH2 0x1FA PUSH1 0x1 SLOAD DUP2 JUMP JUMPDEST PUSH1 0x40 MLOAD SWAP1 DUP2 MSTORE PUSH1 0x20 ADD PUSH2 0x11E JUMP JUMPDEST PUSH2 0x21B PUSH2 0x216 CALLDATASIZE PUSH1 0x4 PUSH2 0x1770 JUMP JUMPDEST PUSH2 0xDE0 JUMP JUMPDEST PUSH1 0x40 MLOAD PUSH2 0x11E SWAP2 SWAP1 PUSH2 0x19E1 JUMP JUMPDEST PUSH2 0x13A PUSH2 0x236 CALLDATASIZE PUSH1 0x4 PUSH2 0x1847 JUMP JUMPDEST PUSH2 0xFA5 JUMP JUMPDEST PUSH2 0x13A PUSH2 0x249 CALLDATASIZE PUSH1 0x4 PUSH2 0x1847 JUMP JUMPDEST PUSH2 0x1299 JUMP JUMPDEST PUSH2 0x1A5 PUSH2 0x25C CALLDATASIZE PUSH1 0x4 PUSH2 0x1A51 JUMP JUMPDEST PUSH2 0x143F JUMP JUMPDEST DUP1 MLOAD PUSH1 0x20 DUP2 DUP4 ADD DUP2 ADD DUP1 MLOAD PUSH1 0x2 DUP3 MSTORE SWAP3 DUP3 ADD SWAP2 SWAP1 SWAP4 ADD KECCAK256 SWAP2 MSTORE DUP1 SLOAD PUSH1 0x1 DUP3 ADD DUP1 SLOAD PUSH1 0x1 PUSH1 0x1 PUSH1 0xA0 SHL SUB SWAP1 SWAP3 AND SWAP3 SWAP2 PUSH2 0x298 SWAP1 PUSH2 0x1A6C JUMP JUMPDEST DUP1 PUSH1 0x1F ADD PUSH1 0x20 DUP1 SWAP2 DIV MUL PUSH1 0x20 ADD PUSH1 0x40 MLOAD SWAP1 DUP2 ADD PUSH1 0x40 MSTORE DUP1 SWAP3 SWAP2 SWAP1 DUP2 DUP2 MSTORE PUSH1 0x20 ADD DUP3 DUP1 SLOAD PUSH2 0x2C4 SWAP1 PUSH2 0x1A6C JUMP JUMPDEST DUP1 ISZERO PUSH2 0x311 JUMPI DUP1 PUSH1 0x1F LT PUSH2 0x2E6 JUMPI PUSH2 0x100 DUP1 DUP4 SLOAD DIV MUL DUP4 MSTORE SWAP2 PUSH1 0x20 ADD SWAP2 PUSH2 0x311 JUMP JUMPDEST DUP3 ADD SWAP2 SWAP1 PUSH1 0x0 MSTORE PUSH1 0x20 PUSH1 0x0 KECCAK256 SWAP1 JUMPDEST DUP2 SLOAD DUP2 MSTORE SWAP1 PUSH1 0x1 ADD SWAP1 PUSH1 0x20 ADD DUP1 DUP4 GT PUSH2 0x2F4 JUMPI DUP3 SWAP1 SUB PUSH1 0x1F AND DUP3 ADD SWAP2 JUMPDEST POP POP POP POP POP SWAP1 DUP1 PUSH1 0x2 ADD DUP1 SLOAD PUSH2 0x326 SWAP1 PUSH2 0x1A6C JUMP JUMPDEST DUP1 PUSH1 0x1F ADD PUSH1 0x20 DUP1 SWAP2 DIV MUL PUSH1 0x20 ADD PUSH1 0x40 MLOAD SWAP1 DUP2 ADD PUSH1 0x40 MSTORE DUP1 SWAP3 SWAP2 SWAP1 DUP2 DUP2 MSTORE PUSH1 0x20 ADD DUP3 DUP1 SLOAD PUSH2 0x352 SWAP1 PUSH2 0x1A6C JUMP JUMPDEST DUP1 ISZERO PUSH2 0x39F JUMPI DUP1 PUSH1 0x1F LT PUSH2 0x374 JUMPI PUSH2 0x100 DUP1 DUP4 SLOAD DIV MUL DUP4 MSTORE SWAP2 PUSH1 0x20 ADD SWAP2 PUSH2 0x39F JUMP JUMPDEST DUP3 ADD SWAP2 SWAP1 PUSH1 0x0 MSTORE PUSH1 0x20 PUSH1 0x0 KECCAK256 SWAP1 JUMPDEST DUP2 SLOAD DUP2 MSTORE SWAP1 PUSH1 0x1 ADD SWAP1 PUSH1 0x20 ADD DUP1 DUP4 GT PUSH2 0x382 JUMPI DUP3 SWAP1 SUB PUSH1 0x1F AND DUP3 ADD SWAP2 JUMPDEST POP POP POP POP PUSH1 0x3 DUP4 ADD SLOAD PUSH1 0x4 SWAP1 SWAP4 ADD SLOAD SWAP2 SWAP3 PUSH1 0x1 PUSH1 0x1 PUSH1 0xA0 SHL SUB AND SWAP2 SWAP1 POP DUP6 JUMP JUMPDEST PUSH1 0x0 PUSH2 0x3C9 PUSH2 0x147D JUMP JUMPDEST PUSH1 0x0 PUSH1 0x1 PUSH1 0x1 PUSH1 0xA0 SHL SUB AND PUSH1 0x2 DUP5 PUSH1 0x40 MLOAD PUSH2 0x3E4 SWAP2 SWAP1 PUSH2 0x1AA6 JUMP JUMPDEST SWAP1 DUP2 MSTORE PUSH1 0x40 MLOAD SWAP1 DUP2 SWAP1 SUB PUSH1 0x20 ADD SWAP1 KECCAK256 SLOAD PUSH1 0x1 PUSH1 0x1 PUSH1 0xA0 SHL SUB AND SUB PUSH2 0x426 JUMPI DUP3 PUSH1 0x40 MLOAD PUSH4 0xC0BAB25F PUSH1 0xE0 SHL DUP2 MSTORE PUSH1 0x4 ADD PUSH2 0x41D SWAP2 SWAP1 PUSH2 0x1AC2 JUMP JUMPDEST PUSH1 0x40 MLOAD DUP1 SWAP2 SUB SWAP1 REVERT JUMPDEST PUSH1 0x0 PUSH1 0x2 DUP5 PUSH1 0x40 MLOAD PUSH2 0x438 SWAP2 SWAP1 PUSH2 0x1AA6 JUMP JUMPDEST SWAP1 DUP2 MSTORE PUSH1 0x40 MLOAD SWAP1 DUP2 SWAP1 SUB PUSH1 0x20 ADD DUP2 KECCAK256 SLOAD ADDRESS PUSH1 0x24 DUP4 ADD MSTORE PUSH1 0x44 DUP3 ADD DUP6 SWAP1 MSTORE PUSH1 0x1 PUSH1 0x1 PUSH1 0xA0 SHL SUB AND SWAP1 PUSH1 0x64 ADD PUSH1 0x40 DUP1 MLOAD PUSH1 0x1F NOT DUP2 DUP5 SUB ADD DUP2 MSTORE SWAP2 DUP2 MSTORE PUSH1 0x20 DUP3 ADD DUP1 MLOAD PUSH1 0x1 PUSH1 0x1 PUSH1 0xE0 SHL SUB AND PUSH4 0x40C10F19 PUSH1 0xE0 SHL OR SWAP1 MSTORE MLOAD PUSH2 0x497 SWAP2 SWAP1 PUSH2 0x1AA6 JUMP JUMPDEST PUSH1 0x0 PUSH1 0x40 MLOAD DUP1 DUP4 SUB DUP2 PUSH1 0x0 DUP7 GAS CALL SWAP2 POP POP RETURNDATASIZE DUP1 PUSH1 0x0 DUP2 EQ PUSH2 0x4D4 JUMPI PUSH1 0x40 MLOAD SWAP2 POP PUSH1 0x1F NOT PUSH1 0x3F RETURNDATASIZE ADD AND DUP3 ADD PUSH1 0x40 MSTORE RETURNDATASIZE DUP3 MSTORE RETURNDATASIZE PUSH1 0x0 PUSH1 0x20 DUP5 ADD RETURNDATACOPY PUSH2 0x4D9 JUMP JUMPDEST PUSH1 0x60 SWAP2 POP JUMPDEST POP POP SWAP1 POP DUP1 PUSH2 0x523 JUMPI PUSH1 0x40 MLOAD PUSH3 0x461BCD PUSH1 0xE5 SHL DUP2 MSTORE PUSH1 0x20 PUSH1 0x4 DUP3 ADD MSTORE PUSH1 0x16 PUSH1 0x24 DUP3 ADD MSTORE PUSH22 0x1B5A5B9D08185CDCD95D0818D85B1B0819985A5B1959 PUSH1 0x52 SHL PUSH1 0x44 DUP3 ADD MSTORE PUSH1 0x64 ADD PUSH2 0x41D JUMP JUMPDEST DUP3 PUSH1 0x2 DUP6 PUSH1 0x40 MLOAD PUSH2 0x534 SWAP2 SWAP1 PUSH2 0x1AA6 JUMP JUMPDEST SWAP1 DUP2 MSTORE PUSH1 0x40 MLOAD SWAP1 DUP2 SWAP1 SUB PUSH1 0x20 ADD SWAP1 KECCAK256 PUSH1 0x4 ADD SSTORE POP PUSH1 0x1 SWAP1 POP JUMPDEST SWAP3 SWAP2 POP POP JUMP JUMPDEST PUSH1 0x0 PUSH2 0x55D PUSH2 0x147D JUMP JUMPDEST DUP2 PUSH1 0x2 DUP6 PUSH1 0x40 MLOAD PUSH2 0x56E SWAP2 SWAP1 PUSH2 0x1AA6 JUMP JUMPDEST SWAP1 DUP2 MSTORE PUSH1 0x20 ADD PUSH1 0x40 MLOAD DUP1 SWAP2 SUB SWAP1 KECCAK256 PUSH1 0x4 ADD SLOAD LT ISZERO PUSH2 0x5CE JUMPI PUSH1 0x40 MLOAD PUSH3 0x461BCD PUSH1 0xE5 SHL DUP2 MSTORE PUSH1 0x20 PUSH1 0x4 DUP3 ADD DUP2 SWAP1 MSTORE PUSH1 0x24 DUP3 ADD MSTORE PUSH32 0x61737369676E206173736574206173736574206973206E6F74206C6F636B6564 PUSH1 0x44 DUP3 ADD MSTORE PUSH1 0x64 ADD PUSH2 0x41D JUMP JUMPDEST PUSH1 0x0 PUSH1 0x2 DUP6 PUSH1 0x40 MLOAD PUSH2 0x5E0 SWAP2 SWAP1 PUSH2 0x1AA6 JUMP JUMPDEST SWAP1 DUP2 MSTORE PUSH1 0x40 MLOAD SWAP1 DUP2 SWAP1 SUB PUSH1 0x20 ADD DUP2 KECCAK256 SLOAD ADDRESS PUSH1 0x24 DUP4 ADD MSTORE PUSH1 0x1 PUSH1 0x1 PUSH1 0xA0 SHL SUB DUP7 DUP2 AND PUSH1 0x44 DUP5 ADD MSTORE PUSH1 0x64 DUP4 ADD DUP7 SWAP1 MSTORE AND SWAP1 PUSH1 0x84 ADD PUSH1 0x40 DUP1 MLOAD PUSH1 0x1F NOT DUP2 DUP5 SUB ADD DUP2 MSTORE SWAP2 DUP2 MSTORE PUSH1 0x20 DUP3 ADD DUP1 MLOAD PUSH1 0x1 PUSH1 0x1 PUSH1 0xE0 SHL SUB AND PUSH4 0x2FA96A27 PUSH1 0xE1 SHL OR SWAP1 MSTORE MLOAD PUSH2 0x647 SWAP2 SWAP1 PUSH2 0x1AA6 JUMP JUMPDEST PUSH1 0x0 PUSH1 0x40 MLOAD DUP1 DUP4 SUB DUP2 PUSH1 0x0 DUP7 GAS CALL SWAP2 POP POP RETURNDATASIZE DUP1 PUSH1 0x0 DUP2 EQ PUSH2 0x684 JUMPI PUSH1 0x40 MLOAD SWAP2 POP PUSH1 0x1F NOT PUSH1 0x3F RETURNDATASIZE ADD AND DUP3 ADD PUSH1 0x40 MSTORE RETURNDATASIZE DUP3 MSTORE RETURNDATASIZE PUSH1 0x0 PUSH1 0x20 DUP5 ADD RETURNDATACOPY PUSH2 0x689 JUMP JUMPDEST PUSH1 0x60 SWAP2 POP JUMPDEST POP POP SWAP1 POP DUP1 PUSH2 0x6DA JUMPI PUSH1 0x40 MLOAD PUSH3 0x461BCD PUSH1 0xE5 SHL DUP2 MSTORE PUSH1 0x20 PUSH1 0x4 DUP3 ADD MSTORE PUSH1 0x18 PUSH1 0x24 DUP3 ADD MSTORE PUSH32 0x61737369676E2061737365742063616C6C206661696C65640000000000000000 PUSH1 0x44 DUP3 ADD MSTORE PUSH1 0x64 ADD PUSH2 0x41D JUMP JUMPDEST DUP3 PUSH1 0x2 DUP7 PUSH1 0x40 MLOAD PUSH2 0x6EB SWAP2 SWAP1 PUSH2 0x1AA6 JUMP JUMPDEST SWAP1 DUP2 MSTORE PUSH1 0x20 ADD PUSH1 0x40 MLOAD DUP1 SWAP2 SUB SWAP1 KECCAK256 PUSH1 0x4 ADD PUSH1 0x0 DUP3 DUP3 SLOAD PUSH2 0x70B SWAP2 SWAP1 PUSH2 0x1AEB JUMP JUMPDEST SWAP1 SWAP2 SSTORE POP PUSH1 0x1 SWAP7 SWAP6 POP POP POP POP POP POP JUMP JUMPDEST PUSH1 0x60 PUSH1 0x3 DUP1 SLOAD DUP1 PUSH1 0x20 MUL PUSH1 0x20 ADD PUSH1 0x40 MLOAD SWAP1 DUP2 ADD PUSH1 0x40 MSTORE DUP1 SWAP3 SWAP2 SWAP1 DUP2 DUP2 MSTORE PUSH1 0x20 ADD PUSH1 0x0 SWAP1 JUMPDEST DUP3 DUP3 LT ISZERO PUSH2 0x7EB JUMPI DUP4 DUP3 SWAP1 PUSH1 0x0 MSTORE PUSH1 0x20 PUSH1 0x0 KECCAK256 ADD DUP1 SLOAD PUSH2 0x75E SWAP1 PUSH2 0x1A6C JUMP JUMPDEST DUP1 PUSH1 0x1F ADD PUSH1 0x20 DUP1 SWAP2 DIV MUL PUSH1 0x20 ADD PUSH1 0x40 MLOAD SWAP1 DUP2 ADD PUSH1 0x40 MSTORE DUP1 SWAP3 SWAP2 SWAP1 DUP2 DUP2 MSTORE PUSH1 0x20 ADD DUP3 DUP1 SLOAD PUSH2 0x78A SWAP1 PUSH2 0x1A6C JUMP JUMPDEST DUP1 ISZERO PUSH2 0x7D7 JUMPI DUP1 PUSH1 0x1F LT PUSH2 0x7AC JUMPI PUSH2 0x100 DUP1 DUP4 SLOAD DIV MUL DUP4 MSTORE SWAP2 PUSH1 0x20 ADD SWAP2 PUSH2 0x7D7 JUMP JUMPDEST DUP3 ADD SWAP2 SWAP1 PUSH1 0x0 MSTORE PUSH1 0x20 PUSH1 0x0 KECCAK256 SWAP1 JUMPDEST DUP2 SLOAD DUP2 MSTORE SWAP1 PUSH1 0x1 ADD SWAP1 PUSH1 0x20 ADD DUP1 DUP4 GT PUSH2 0x7BA JUMPI DUP3 SWAP1 SUB PUSH1 0x1F AND DUP3 ADD SWAP2 JUMPDEST POP POP POP POP POP DUP2 MSTORE PUSH1 0x20 ADD SWAP1 PUSH1 0x1 ADD SWAP1 PUSH2 0x73F JUMP JUMPDEST POP POP POP POP SWAP1 POP SWAP1 JUMP JUMPDEST PUSH2 0x7FC PUSH2 0x147D JUMP JUMPDEST PUSH2 0x806 PUSH1 0x0 PUSH2 0x14AA JUMP JUMPDEST JUMP JUMPDEST PUSH1 0x0 PUSH2 0x812 PUSH2 0x147D JUMP JUMPDEST PUSH1 0x0 PUSH1 0x1 PUSH1 0x1 PUSH1 0xA0 SHL SUB AND PUSH1 0x2 DUP5 PUSH1 0x40 MLOAD PUSH2 0x82D SWAP2 SWAP1 PUSH2 0x1AA6 JUMP JUMPDEST SWAP1 DUP2 MSTORE PUSH1 0x40 MLOAD SWAP1 DUP2 SWAP1 SUB PUSH1 0x20 ADD SWAP1 KECCAK256 SLOAD PUSH1 0x1 PUSH1 0x1 PUSH1 0xA0 SHL SUB AND EQ PUSH2 0x866 JUMPI DUP3 PUSH1 0x40 MLOAD PUSH4 0x19EAC8D1 PUSH1 0xE2 SHL DUP2 MSTORE PUSH1 0x4 ADD PUSH2 0x41D SWAP2 SWAP1 PUSH2 0x1AC2 JUMP JUMPDEST PUSH1 0x1 SLOAD PUSH1 0x40 MLOAD PUSH1 0x24 DUP2 ADD SWAP2 SWAP1 SWAP2 MSTORE ADDRESS PUSH1 0x44 DUP3 ADD MSTORE PUSH1 0x0 SWAP1 PUSH1 0x1 PUSH1 0x1 PUSH1 0xA0 SHL SUB DUP8 AND SWAP1 PUSH1 0x64 ADD PUSH1 0x40 DUP1 MLOAD PUSH1 0x1F NOT DUP2 DUP5 SUB ADD DUP2 MSTORE SWAP2 DUP2 MSTORE PUSH1 0x20 DUP3 ADD DUP1 MLOAD PUSH1 0x1 PUSH1 0x1 PUSH1 0xE0 SHL SUB AND PUSH4 0x28545C0D PUSH1 0xE0 SHL OR SWAP1 MSTORE MLOAD PUSH2 0x8C0 SWAP2 SWAP1 PUSH2 0x1AA6 JUMP JUMPDEST PUSH1 0x0 PUSH1 0x40 MLOAD DUP1 DUP4 SUB DUP2 PUSH1 0x0 DUP7 GAS CALL SWAP2 POP POP RETURNDATASIZE DUP1 PUSH1 0x0 DUP2 EQ PUSH2 0x8FD JUMPI PUSH1 0x40 MLOAD SWAP2 POP PUSH1 0x1F NOT PUSH1 0x3F RETURNDATASIZE ADD AND DUP3 ADD PUSH1 0x40 MSTORE RETURNDATASIZE DUP3 MSTORE RETURNDATASIZE PUSH1 0x0 PUSH1 0x20 DUP5 ADD RETURNDATACOPY PUSH2 0x902 JUMP JUMPDEST PUSH1 0x60 SWAP2 POP JUMPDEST POP POP SWAP1 POP DUP1 PUSH2 0x94B JUMPI PUSH1 0x2 DUP5 PUSH1 0x40 MLOAD PUSH2 0x91B SWAP2 SWAP1 PUSH2 0x1AA6 JUMP JUMPDEST SWAP1 DUP2 MSTORE PUSH1 0x40 MLOAD SWAP1 DUP2 SWAP1 SUB PUSH1 0x20 ADD DUP2 KECCAK256 SLOAD PUSH4 0x118CDAA7 PUSH1 0xE0 SHL DUP3 MSTORE PUSH1 0x1 PUSH1 0x1 PUSH1 0xA0 SHL SUB AND PUSH1 0x4 DUP3 ADD MSTORE PUSH1 0x24 ADD PUSH2 0x41D JUMP JUMPDEST PUSH1 0x40 MLOAD DUP1 PUSH1 0xA0 ADD PUSH1 0x40 MSTORE DUP1 DUP8 PUSH1 0x1 PUSH1 0x1 PUSH1 0xA0 SHL SUB AND DUP2 MSTORE PUSH1 0x20 ADD DUP7 DUP2 MSTORE PUSH1 0x20 ADD DUP6 DUP2 MSTORE PUSH1 0x20 ADD DUP5 PUSH1 0x1 PUSH1 0x1 PUSH1 0xA0 SHL SUB AND DUP2 MSTORE PUSH1 0x20 ADD PUSH1 0x0 DUP2 MSTORE POP PUSH1 0x2 DUP6 PUSH1 0x40 MLOAD PUSH2 0x995 SWAP2 SWAP1 PUSH2 0x1AA6 JUMP JUMPDEST SWAP1 DUP2 MSTORE PUSH1 0x40 MLOAD PUSH1 0x20 SWAP2 DUP2 SWAP1 SUB DUP3 ADD SWAP1 KECCAK256 DUP3 MLOAD DUP2 SLOAD PUSH1 0x1 PUSH1 0x1 PUSH1 0xA0 SHL SUB NOT AND PUSH1 0x1 PUSH1 0x1 PUSH1 0xA0 SHL SUB SWAP1 SWAP2 AND OR DUP2 SSTORE SWAP1 DUP3 ADD MLOAD PUSH1 0x1 DUP3 ADD SWAP1 PUSH2 0x9D4 SWAP1 DUP3 PUSH2 0x1B4D JUMP JUMPDEST POP PUSH1 0x40 DUP3 ADD MLOAD PUSH1 0x2 DUP3 ADD SWAP1 PUSH2 0x9E9 SWAP1 DUP3 PUSH2 0x1B4D JUMP JUMPDEST POP PUSH1 0x60 DUP3 ADD MLOAD PUSH1 0x3 DUP3 DUP2 ADD DUP1 SLOAD PUSH1 0x1 PUSH1 0x1 PUSH1 0xA0 SHL SUB NOT AND PUSH1 0x1 PUSH1 0x1 PUSH1 0xA0 SHL SUB SWAP1 SWAP4 AND SWAP3 SWAP1 SWAP3 OR SWAP1 SWAP2 SSTORE PUSH1 0x80 SWAP1 SWAP3 ADD MLOAD PUSH1 0x4 SWAP1 SWAP2 ADD SSTORE DUP1 SLOAD PUSH1 0x1 DUP2 ADD DUP3 SSTORE PUSH1 0x0 SWAP2 SWAP1 SWAP2 MSTORE PUSH32 0xC2575A0E9E593C00F959F8C92F12DB2869C3395A3B0502D05E2516446F71F85B ADD PUSH2 0xA58 DUP6 DUP3 PUSH2 0x1B4D JUMP JUMPDEST POP PUSH1 0x1 SWAP7 SWAP6 POP POP POP POP POP POP JUMP JUMPDEST PUSH1 0x0 PUSH2 0xA6F PUSH2 0x147D JUMP JUMPDEST PUSH1 0x0 PUSH1 0x1 PUSH1 0x1 PUSH1 0xA0 SHL SUB AND PUSH1 0x2 DUP4 PUSH1 0x40 MLOAD PUSH2 0xA8A SWAP2 SWAP1 PUSH2 0x1AA6 JUMP JUMPDEST SWAP1 DUP2 MSTORE PUSH1 0x40 MLOAD SWAP1 DUP2 SWAP1 SUB PUSH1 0x20 ADD SWAP1 KECCAK256 SLOAD PUSH1 0x1 PUSH1 0x1 PUSH1 0xA0 SHL SUB AND SUB PUSH2 0xAC3 JUMPI DUP2 PUSH1 0x40 MLOAD PUSH4 0xC0BAB25F PUSH1 0xE0 SHL DUP2 MSTORE PUSH1 0x4 ADD PUSH2 0x41D SWAP2 SWAP1 PUSH2 0x1AC2 JUMP JUMPDEST PUSH1 0x0 PUSH1 0x2 DUP4 PUSH1 0x40 MLOAD PUSH2 0xAD5 SWAP2 SWAP1 PUSH2 0x1AA6 JUMP JUMPDEST SWAP1 DUP2 MSTORE PUSH1 0x20 ADD PUSH1 0x40 MLOAD DUP1 SWAP2 SUB SWAP1 KECCAK256 PUSH1 0x4 ADD SLOAD GT ISZERO PUSH2 0xB08 JUMPI DUP2 PUSH1 0x40 MLOAD PUSH4 0x5BE96085 PUSH1 0xE1 SHL DUP2 MSTORE PUSH1 0x4 ADD PUSH2 0x41D SWAP2 SWAP1 PUSH2 0x1AC2 JUMP JUMPDEST PUSH2 0xBBA PUSH1 0x2 DUP4 PUSH1 0x40 MLOAD PUSH2 0xB1B SWAP2 SWAP1 PUSH2 0x1AA6 JUMP JUMPDEST SWAP1 DUP2 MSTORE PUSH1 0x20 ADD PUSH1 0x40 MLOAD DUP1 SWAP2 SUB SWAP1 KECCAK256 PUSH1 0x2 ADD DUP1 SLOAD PUSH2 0xB37 SWAP1 PUSH2 0x1A6C JUMP JUMPDEST DUP1 PUSH1 0x1F ADD PUSH1 0x20 DUP1 SWAP2 DIV MUL PUSH1 0x20 ADD PUSH1 0x40 MLOAD SWAP1 DUP2 ADD PUSH1 0x40 MSTORE DUP1 SWAP3 SWAP2 SWAP1 DUP2 DUP2 MSTORE PUSH1 0x20 ADD DUP3 DUP1 SLOAD PUSH2 0xB63 SWAP1 PUSH2 0x1A6C JUMP JUMPDEST DUP1 ISZERO PUSH2 0xBB0 JUMPI DUP1 PUSH1 0x1F LT PUSH2 0xB85 JUMPI PUSH2 0x100 DUP1 DUP4 SLOAD DIV MUL DUP4 MSTORE SWAP2 PUSH1 0x20 ADD SWAP2 PUSH2 0xBB0 JUMP JUMPDEST DUP3 ADD SWAP2 SWAP1 PUSH1 0x0 MSTORE PUSH1 0x20 PUSH1 0x0 KECCAK256 SWAP1 JUMPDEST DUP2 SLOAD DUP2 MSTORE SWAP1 PUSH1 0x1 ADD SWAP1 PUSH1 0x20 ADD DUP1 DUP4 GT PUSH2 0xB93 JUMPI DUP3 SWAP1 SUB PUSH1 0x1F AND DUP3 ADD SWAP2 JUMPDEST POP POP POP POP POP PUSH2 0x14FA JUMP JUMPDEST PUSH1 0x2 DUP3 PUSH1 0x40 MLOAD PUSH2 0xBCA SWAP2 SWAP1 PUSH2 0x1AA6 JUMP JUMPDEST SWAP1 DUP2 MSTORE PUSH1 0x40 MLOAD SWAP1 DUP2 SWAP1 SUB PUSH1 0x20 ADD SWAP1 KECCAK256 DUP1 SLOAD PUSH1 0x1 PUSH1 0x1 PUSH1 0xA0 SHL SUB NOT AND DUP2 SSTORE PUSH1 0x0 PUSH2 0xBF6 PUSH1 0x1 DUP4 ADD DUP3 PUSH2 0x167F JUMP JUMPDEST PUSH2 0xC04 PUSH1 0x2 DUP4 ADD PUSH1 0x0 PUSH2 0x167F JUMP JUMPDEST POP PUSH1 0x3 DUP2 ADD DUP1 SLOAD PUSH1 0x1 PUSH1 0x1 PUSH1 0xA0 SHL SUB NOT AND SWAP1 SSTORE PUSH1 0x0 PUSH1 0x4 SWAP1 SWAP2 ADD SSTORE POP PUSH1 0x1 JUMPDEST SWAP2 SWAP1 POP JUMP JUMPDEST PUSH1 0x0 PUSH2 0xC32 PUSH2 0x147D JUMP JUMPDEST DUP2 PUSH1 0x2 DUP5 PUSH1 0x40 MLOAD PUSH2 0xC43 SWAP2 SWAP1 PUSH2 0x1AA6 JUMP JUMPDEST SWAP1 DUP2 MSTORE PUSH1 0x20 ADD PUSH1 0x40 MLOAD DUP1 SWAP2 SUB SWAP1 KECCAK256 PUSH1 0x4 ADD SLOAD LT ISZERO PUSH2 0xCA3 JUMPI PUSH1 0x40 MLOAD PUSH3 0x461BCD PUSH1 0xE5 SHL DUP2 MSTORE PUSH1 0x20 PUSH1 0x4 DUP3 ADD MSTORE PUSH1 0x1E PUSH1 0x24 DUP3 ADD MSTORE PUSH32 0x6275726E206173736574206173736574206973206E6F74206C6F636B65640000 PUSH1 0x44 DUP3 ADD MSTORE PUSH1 0x64 ADD PUSH2 0x41D JUMP JUMPDEST PUSH1 0x0 PUSH1 0x2 DUP5 PUSH1 0x40 MLOAD PUSH2 0xCB5 SWAP2 SWAP1 PUSH2 0x1AA6 JUMP JUMPDEST SWAP1 DUP2 MSTORE PUSH1 0x40 MLOAD SWAP1 DUP2 SWAP1 SUB PUSH1 0x20 ADD DUP2 KECCAK256 SLOAD ADDRESS PUSH1 0x24 DUP4 ADD MSTORE PUSH1 0x44 DUP3 ADD DUP6 SWAP1 MSTORE PUSH1 0x1 PUSH1 0x1 PUSH1 0xA0 SHL SUB AND SWAP1 PUSH1 0x64 ADD PUSH1 0x40 DUP1 MLOAD PUSH1 0x1F NOT DUP2 DUP5 SUB ADD DUP2 MSTORE SWAP2 DUP2 MSTORE PUSH1 0x20 DUP3 ADD DUP1 MLOAD PUSH1 0x1 PUSH1 0x1 PUSH1 0xE0 SHL SUB AND PUSH4 0x2770A7EB PUSH1 0xE2 SHL OR SWAP1 MSTORE MLOAD PUSH2 0xD14 SWAP2 SWAP1 PUSH2 0x1AA6 JUMP JUMPDEST PUSH1 0x0 PUSH1 0x40 MLOAD DUP1 DUP4 SUB DUP2 PUSH1 0x0 DUP7 GAS CALL SWAP2 POP POP RETURNDATASIZE DUP1 PUSH1 0x0 DUP2 EQ PUSH2 0xD51 JUMPI PUSH1 0x40 MLOAD SWAP2 POP PUSH1 0x1F NOT PUSH1 0x3F RETURNDATASIZE ADD AND DUP3 ADD PUSH1 0x40 MSTORE RETURNDATASIZE DUP3 MSTORE RETURNDATASIZE PUSH1 0x0 PUSH1 0x20 DUP5 ADD RETURNDATACOPY PUSH2 0xD56 JUMP JUMPDEST PUSH1 0x60 SWAP2 POP JUMPDEST POP POP SWAP1 POP DUP1 PUSH2 0xDA0 JUMPI PUSH1 0x40 MLOAD PUSH3 0x461BCD PUSH1 0xE5 SHL DUP2 MSTORE PUSH1 0x20 PUSH1 0x4 DUP3 ADD MSTORE PUSH1 0x16 PUSH1 0x24 DUP3 ADD MSTORE PUSH22 0x189D5C9B88185CDCD95D0818D85B1B0819985A5B1959 PUSH1 0x52 SHL PUSH1 0x44 DUP3 ADD MSTORE PUSH1 0x64 ADD PUSH2 0x41D JUMP JUMPDEST DUP3 PUSH1 0x2 DUP6 PUSH1 0x40 MLOAD PUSH2 0xDB1 SWAP2 SWAP1 PUSH2 0x1AA6 JUMP JUMPDEST SWAP1 DUP2 MSTORE PUSH1 0x20 ADD PUSH1 0x40 MLOAD DUP1 SWAP2 SUB SWAP1 KECCAK256 PUSH1 0x4 ADD PUSH1 0x0 DUP3 DUP3 SLOAD PUSH2 0xDD1 SWAP2 SWAP1 PUSH2 0x1AEB JUMP JUMPDEST SWAP1 SWAP2 SSTORE POP PUSH1 0x1 SWAP6 SWAP5 POP POP POP POP POP JUMP JUMPDEST PUSH2 0xE24 PUSH1 0x40 MLOAD DUP1 PUSH1 0xA0 ADD PUSH1 0x40 MSTORE DUP1 PUSH1 0x0 PUSH1 0x1 PUSH1 0x1 PUSH1 0xA0 SHL SUB AND DUP2 MSTORE PUSH1 0x20 ADD PUSH1 0x60 DUP2 MSTORE PUSH1 0x20 ADD PUSH1 0x60 DUP2 MSTORE PUSH1 0x20 ADD PUSH1 0x0 PUSH1 0x1 PUSH1 0x1 PUSH1 0xA0 SHL SUB AND DUP2 MSTORE PUSH1 0x20 ADD PUSH1 0x0 DUP2 MSTORE POP SWAP1 JUMP JUMPDEST PUSH1 0x2 DUP3 PUSH1 0x40 MLOAD PUSH2 0xE34 SWAP2 SWAP1 PUSH2 0x1AA6 JUMP JUMPDEST SWAP1 DUP2 MSTORE PUSH1 0x40 DUP1 MLOAD SWAP2 DUP3 SWAP1 SUB PUSH1 0x20 SWAP1 DUP2 ADD DUP4 KECCAK256 PUSH1 0xA0 DUP5 ADD SWAP1 SWAP3 MSTORE DUP2 SLOAD PUSH1 0x1 PUSH1 0x1 PUSH1 0xA0 SHL SUB AND DUP4 MSTORE PUSH1 0x1 DUP3 ADD DUP1 SLOAD SWAP2 DUP5 ADD SWAP2 PUSH2 0xE6D SWAP1 PUSH2 0x1A6C JUMP JUMPDEST DUP1 PUSH1 0x1F ADD PUSH1 0x20 DUP1 SWAP2 DIV MUL PUSH1 0x20 ADD PUSH1 0x40 MLOAD SWAP1 DUP2 ADD PUSH1 0x40 MSTORE DUP1 SWAP3 SWAP2 SWAP1 DUP2 DUP2 MSTORE PUSH1 0x20 ADD DUP3 DUP1 SLOAD PUSH2 0xE99 SWAP1 PUSH2 0x1A6C JUMP JUMPDEST DUP1 ISZERO PUSH2 0xEE6 JUMPI DUP1 PUSH1 0x1F LT PUSH2 0xEBB JUMPI PUSH2 0x100 DUP1 DUP4 SLOAD DIV MUL DUP4 MSTORE SWAP2 PUSH1 0x20 ADD SWAP2 PUSH2 0xEE6 JUMP JUMPDEST DUP3 ADD SWAP2 SWAP1 PUSH1 0x0 MSTORE PUSH1 0x20 PUSH1 0x0 KECCAK256 SWAP1 JUMPDEST DUP2 SLOAD DUP2 MSTORE SWAP1 PUSH1 0x1 ADD SWAP1 PUSH1 0x20 ADD DUP1 DUP4 GT PUSH2 0xEC9 JUMPI DUP3 SWAP1 SUB PUSH1 0x1F AND DUP3 ADD SWAP2 JUMPDEST POP POP POP POP POP DUP2 MSTORE PUSH1 0x20 ADD PUSH1 0x2 DUP3 ADD DUP1 SLOAD PUSH2 0xEFF SWAP1 PUSH2 0x1A6C JUMP JUMPDEST DUP1 PUSH1 0x1F ADD PUSH1 0x20 DUP1 SWAP2 DIV MUL PUSH1 0x20 ADD PUSH1 0x40 MLOAD SWAP1 DUP2 ADD PUSH1 0x40 MSTORE DUP1 SWAP3 SWAP2 SWAP1 DUP2 DUP2 MSTORE PUSH1 0x20 ADD DUP3 DUP1 SLOAD PUSH2 0xF2B SWAP1 PUSH2 0x1A6C JUMP JUMPDEST DUP1 ISZERO PUSH2 0xF78 JUMPI DUP1 PUSH1 0x1F LT PUSH2 0xF4D JUMPI PUSH2 0x100 DUP1 DUP4 SLOAD DIV MUL DUP4 MSTORE SWAP2 PUSH1 0x20 ADD SWAP2 PUSH2 0xF78 JUMP JUMPDEST DUP3 ADD SWAP2 SWAP1 PUSH1 0x0 MSTORE PUSH1 0x20 PUSH1 0x0 KECCAK256 SWAP1 JUMPDEST DUP2 SLOAD DUP2 MSTORE SWAP1 PUSH1 0x1 ADD SWAP1 PUSH1 0x20 ADD DUP1 DUP4 GT PUSH2 0xF5B JUMPI DUP3 SWAP1 SUB PUSH1 0x1F AND DUP3 ADD SWAP2 JUMPDEST POP POP POP SWAP2 DUP4 MSTORE POP POP PUSH1 0x3 DUP3 ADD SLOAD PUSH1 0x1 PUSH1 0x1 PUSH1 0xA0 SHL SUB AND PUSH1 0x20 DUP3 ADD MSTORE PUSH1 0x4 SWAP1 SWAP2 ADD SLOAD PUSH1 0x40 SWAP1 SWAP2 ADD MSTORE SWAP3 SWAP2 POP POP JUMP JUMPDEST PUSH1 0x0 PUSH2 0xFAF PUSH2 0x147D JUMP JUMPDEST PUSH1 0x0 PUSH1 0x1 PUSH1 0x1 PUSH1 0xA0 SHL SUB AND PUSH1 0x2 DUP5 PUSH1 0x40 MLOAD PUSH2 0xFCA SWAP2 SWAP1 PUSH2 0x1AA6 JUMP JUMPDEST SWAP1 DUP2 MSTORE PUSH1 0x40 MLOAD SWAP1 DUP2 SWAP1 SUB PUSH1 0x20 ADD SWAP1 KECCAK256 SLOAD PUSH1 0x1 PUSH1 0x1 PUSH1 0xA0 SHL SUB AND SUB PUSH2 0x1003 JUMPI DUP3 PUSH1 0x40 MLOAD PUSH4 0xC0BAB25F PUSH1 0xE0 SHL DUP2 MSTORE PUSH1 0x4 ADD PUSH2 0x41D SWAP2 SWAP1 PUSH2 0x1AC2 JUMP JUMPDEST DUP2 PUSH1 0x2 DUP5 PUSH1 0x40 MLOAD PUSH2 0x1014 SWAP2 SWAP1 PUSH2 0x1AA6 JUMP JUMPDEST SWAP1 DUP2 MSTORE PUSH1 0x20 ADD PUSH1 0x40 MLOAD DUP1 SWAP2 SUB SWAP1 KECCAK256 PUSH1 0x4 ADD SLOAD LT ISZERO PUSH2 0x1049 JUMPI DUP3 DUP3 PUSH1 0x40 MLOAD PUSH4 0x76ABCF3 PUSH1 0xE5 SHL DUP2 MSTORE PUSH1 0x4 ADD PUSH2 0x41D SWAP3 SWAP2 SWAP1 PUSH2 0x1C0D JUMP JUMPDEST PUSH1 0x0 PUSH1 0x2 DUP5 PUSH1 0x40 MLOAD PUSH2 0x105B SWAP2 SWAP1 PUSH2 0x1AA6 JUMP JUMPDEST SWAP1 DUP2 MSTORE PUSH1 0x40 MLOAD SWAP1 DUP2 SWAP1 SUB PUSH1 0x20 ADD DUP2 KECCAK256 SLOAD ADDRESS PUSH1 0x24 DUP4 ADD MSTORE PUSH1 0x44 DUP3 ADD DUP6 SWAP1 MSTORE PUSH1 0x1 PUSH1 0x1 PUSH1 0xA0 SHL SUB AND SWAP1 PUSH1 0x64 ADD PUSH1 0x40 DUP1 MLOAD PUSH1 0x1F NOT DUP2 DUP5 SUB ADD DUP2 MSTORE SWAP2 DUP2 MSTORE PUSH1 0x20 DUP3 ADD DUP1 MLOAD PUSH1 0x1 PUSH1 0x1 PUSH1 0xE0 SHL SUB AND PUSH4 0x95EA7B3 PUSH1 0xE0 SHL OR SWAP1 MSTORE MLOAD PUSH2 0x10BA SWAP2 SWAP1 PUSH2 0x1AA6 JUMP JUMPDEST PUSH1 0x0 PUSH1 0x40 MLOAD DUP1 DUP4 SUB DUP2 PUSH1 0x0 DUP7 GAS CALL SWAP2 POP POP RETURNDATASIZE DUP1 PUSH1 0x0 DUP2 EQ PUSH2 0x10F7 JUMPI PUSH1 0x40 MLOAD SWAP2 POP PUSH1 0x1F NOT PUSH1 0x3F RETURNDATASIZE ADD AND DUP3 ADD PUSH1 0x40 MSTORE RETURNDATASIZE DUP3 MSTORE RETURNDATASIZE PUSH1 0x0 PUSH1 0x20 DUP5 ADD RETURNDATACOPY PUSH2 0x10FC JUMP JUMPDEST PUSH1 0x60 SWAP2 POP JUMPDEST POP POP SWAP1 POP DUP1 PUSH2 0x1120 JUMPI DUP4 PUSH1 0x40 MLOAD PUSH4 0x58300FE7 PUSH1 0xE0 SHL DUP2 MSTORE PUSH1 0x4 ADD PUSH2 0x41D SWAP2 SWAP1 PUSH2 0x1AC2 JUMP JUMPDEST PUSH1 0x0 PUSH1 0x2 DUP6 PUSH1 0x40 MLOAD PUSH2 0x1132 SWAP2 SWAP1 PUSH2 0x1AA6 JUMP JUMPDEST SWAP1 DUP2 MSTORE PUSH1 0x40 MLOAD SWAP1 DUP2 SWAP1 SUB PUSH1 0x20 ADD DUP2 KECCAK256 SLOAD PUSH1 0x1 PUSH1 0x1 PUSH1 0xA0 SHL SUB AND SWAP1 ADDRESS SWAP1 PUSH1 0x2 SWAP1 PUSH2 0x115C SWAP1 DUP10 SWAP1 PUSH2 0x1AA6 JUMP JUMPDEST SWAP1 DUP2 MSTORE PUSH1 0x40 MLOAD SWAP1 DUP2 SWAP1 SUB PUSH1 0x20 ADD DUP2 KECCAK256 PUSH1 0x3 ADD SLOAD PUSH1 0x1 PUSH1 0x1 PUSH1 0xA0 SHL SUB AND SWAP1 PUSH1 0x2 SWAP1 PUSH2 0x1187 SWAP1 DUP11 SWAP1 PUSH2 0x1AA6 JUMP JUMPDEST SWAP1 DUP2 MSTORE PUSH1 0x40 MLOAD SWAP1 DUP2 SWAP1 SUB PUSH1 0x20 ADD DUP2 KECCAK256 PUSH1 0x4 ADD SLOAD PUSH1 0x1 PUSH1 0x1 PUSH1 0xA0 SHL SUB SWAP4 DUP5 AND PUSH1 0x24 DUP4 ADD MSTORE SWAP2 SWAP1 SWAP3 AND PUSH1 0x44 DUP4 ADD MSTORE PUSH1 0x64 DUP3 ADD MSTORE PUSH1 0x84 ADD PUSH1 0x40 DUP1 MLOAD PUSH1 0x1F NOT DUP2 DUP5 SUB ADD DUP2 MSTORE SWAP2 DUP2 MSTORE PUSH1 0x20 DUP3 ADD DUP1 MLOAD PUSH1 0x1 PUSH1 0x1 PUSH1 0xE0 SHL SUB AND PUSH4 0x17D57599 PUSH1 0xE3 SHL OR SWAP1 MSTORE MLOAD PUSH2 0x11F0 SWAP2 SWAP1 PUSH2 0x1AA6 JUMP JUMPDEST PUSH1 0x0 PUSH1 0x40 MLOAD DUP1 DUP4 SUB DUP2 PUSH1 0x0 DUP7 GAS CALL SWAP2 POP POP RETURNDATASIZE DUP1 PUSH1 0x0 DUP2 EQ PUSH2 0x122D JUMPI PUSH1 0x40 MLOAD SWAP2 POP PUSH1 0x1F NOT PUSH1 0x3F RETURNDATASIZE ADD AND DUP3 ADD PUSH1 0x40 MSTORE RETURNDATASIZE DUP3 MSTORE RETURNDATASIZE PUSH1 0x0 PUSH1 0x20 DUP5 ADD RETURNDATACOPY PUSH2 0x1232 JUMP JUMPDEST PUSH1 0x60 SWAP2 POP JUMPDEST POP POP SWAP1 POP DUP1 ISZERO PUSH2 0x127E JUMPI DUP4 PUSH1 0x2 DUP7 PUSH1 0x40 MLOAD PUSH2 0x124D SWAP2 SWAP1 PUSH2 0x1AA6 JUMP JUMPDEST SWAP1 DUP2 MSTORE PUSH1 0x20 ADD PUSH1 0x40 MLOAD DUP1 SWAP2 SUB SWAP1 KECCAK256 PUSH1 0x4 ADD PUSH1 0x0 DUP3 DUP3 SLOAD PUSH2 0x126D SWAP2 SWAP1 PUSH2 0x1AEB JUMP JUMPDEST SWAP1 SWAP2 SSTORE POP PUSH1 0x1 SWAP4 POP PUSH2 0x54D SWAP3 POP POP POP JUMP JUMPDEST DUP5 PUSH1 0x40 MLOAD PUSH4 0x58300FE7 PUSH1 0xE0 SHL DUP2 MSTORE PUSH1 0x4 ADD PUSH2 0x41D SWAP2 SWAP1 PUSH2 0x1AC2 JUMP JUMPDEST PUSH1 0x0 PUSH2 0x12A3 PUSH2 0x147D JUMP JUMPDEST PUSH1 0x0 PUSH1 0x1 PUSH1 0x1 PUSH1 0xA0 SHL SUB AND PUSH1 0x2 DUP5 PUSH1 0x40 MLOAD PUSH2 0x12BE SWAP2 SWAP1 PUSH2 0x1AA6 JUMP JUMPDEST SWAP1 DUP2 MSTORE PUSH1 0x40 MLOAD SWAP1 DUP2 SWAP1 SUB PUSH1 0x20 ADD SWAP1 KECCAK256 SLOAD PUSH1 0x1 PUSH1 0x1 PUSH1 0xA0 SHL SUB AND SUB PUSH2 0x12F7 JUMPI DUP3 PUSH1 0x40 MLOAD PUSH4 0xC0BAB25F PUSH1 0xE0 SHL DUP2 MSTORE PUSH1 0x4 ADD PUSH2 0x41D SWAP2 SWAP1 PUSH2 0x1AC2 JUMP JUMPDEST PUSH1 0x0 PUSH1 0x2 DUP5 PUSH1 0x40 MLOAD PUSH2 0x1309 SWAP2 SWAP1 PUSH2 0x1AA6 JUMP JUMPDEST SWAP1 DUP2 MSTORE PUSH1 0x40 MLOAD SWAP1 DUP2 SWAP1 SUB PUSH1 0x20 ADD DUP2 KECCAK256 SLOAD PUSH1 0x1 PUSH1 0x1 PUSH1 0xA0 SHL SUB AND SWAP1 PUSH1 0x2 SWAP1 PUSH2 0x1331 SWAP1 DUP8 SWAP1 PUSH2 0x1AA6 JUMP JUMPDEST SWAP1 DUP2 MSTORE PUSH1 0x40 MLOAD SWAP1 DUP2 SWAP1 SUB PUSH1 0x20 ADD DUP2 KECCAK256 PUSH1 0x3 ADD SLOAD PUSH1 0x1 PUSH1 0x1 PUSH1 0xA0 SHL SUB AND PUSH1 0x24 DUP3 ADD MSTORE ADDRESS PUSH1 0x44 DUP3 ADD MSTORE PUSH1 0x64 DUP2 ADD DUP6 SWAP1 MSTORE PUSH1 0x84 ADD PUSH1 0x40 DUP1 MLOAD PUSH1 0x1F NOT DUP2 DUP5 SUB ADD DUP2 MSTORE SWAP2 DUP2 MSTORE PUSH1 0x20 DUP3 ADD DUP1 MLOAD PUSH1 0x1 PUSH1 0x1 PUSH1 0xE0 SHL SUB AND PUSH4 0x17D57599 PUSH1 0xE3 SHL OR SWAP1 MSTORE MLOAD PUSH2 0x1397 SWAP2 SWAP1 PUSH2 0x1AA6 JUMP JUMPDEST PUSH1 0x0 PUSH1 0x40 MLOAD DUP1 DUP4 SUB DUP2 PUSH1 0x0 DUP7 GAS CALL SWAP2 POP POP RETURNDATASIZE DUP1 PUSH1 0x0 DUP2 EQ PUSH2 0x13D4 JUMPI PUSH1 0x40 MLOAD SWAP2 POP PUSH1 0x1F NOT PUSH1 0x3F RETURNDATASIZE ADD AND DUP3 ADD PUSH1 0x40 MSTORE RETURNDATASIZE DUP3 MSTORE RETURNDATASIZE PUSH1 0x0 PUSH1 0x20 DUP5 ADD RETURNDATACOPY PUSH2 0x13D9 JUMP JUMPDEST PUSH1 0x60 SWAP2 POP JUMPDEST POP POP SWAP1 POP DUP1 ISZERO PUSH2 0x1424 JUMPI DUP3 PUSH1 0x2 DUP6 PUSH1 0x40 MLOAD PUSH2 0x13F4 SWAP2 SWAP1 PUSH2 0x1AA6 JUMP JUMPDEST SWAP1 DUP2 MSTORE PUSH1 0x20 ADD PUSH1 0x40 MLOAD DUP1 SWAP2 SUB SWAP1 KECCAK256 PUSH1 0x4 ADD PUSH1 0x0 DUP3 DUP3 SLOAD PUSH2 0x1414 SWAP2 SWAP1 PUSH2 0x1C2F JUMP JUMPDEST SWAP1 SWAP2 SSTORE POP PUSH1 0x1 SWAP3 POP PUSH2 0x54D SWAP2 POP POP JUMP JUMPDEST DUP4 PUSH1 0x40 MLOAD PUSH4 0x412204B5 PUSH1 0xE1 SHL DUP2 MSTORE PUSH1 0x4 ADD PUSH2 0x41D SWAP2 SWAP1 PUSH2 0x1AC2 JUMP JUMPDEST PUSH2 0x1447 PUSH2 0x147D JUMP JUMPDEST PUSH1 0x1 PUSH1 0x1 PUSH1 0xA0 SHL SUB DUP2 AND PUSH2 0x1471 JUMPI PUSH1 0x40 MLOAD PUSH4 0x1E4FBDF7 PUSH1 0xE0 SHL DUP2 MSTORE PUSH1 0x0 PUSH1 0x4 DUP3 ADD MSTORE PUSH1 0x24 ADD PUSH2 0x41D JUMP JUMPDEST PUSH2 0x147A DUP2 PUSH2 0x14AA JUMP JUMPDEST POP JUMP JUMPDEST PUSH1 0x0 SLOAD PUSH1 0x1 PUSH1 0x1 PUSH1 0xA0 SHL SUB AND CALLER EQ PUSH2 0x806 JUMPI PUSH1 0x40 MLOAD PUSH4 0x118CDAA7 PUSH1 0xE0 SHL DUP2 MSTORE CALLER PUSH1 0x4 DUP3 ADD MSTORE PUSH1 0x24 ADD PUSH2 0x41D JUMP JUMPDEST PUSH1 0x0 DUP1 SLOAD PUSH1 0x1 PUSH1 0x1 PUSH1 0xA0 SHL SUB DUP4 DUP2 AND PUSH1 0x1 PUSH1 0x1 PUSH1 0xA0 SHL SUB NOT DUP4 AND DUP2 OR DUP5 SSTORE PUSH1 0x40 MLOAD SWAP2 SWAP1 SWAP3 AND SWAP3 DUP4 SWAP2 PUSH32 0x8BE0079C531659141344CD1FD0A4F28419497F9722A3DAAFE3B4186F6B6457E0 SWAP2 SWAP1 LOG3 POP POP JUMP JUMPDEST PUSH1 0x0 JUMPDEST PUSH1 0x3 SLOAD DUP2 LT ISZERO PUSH2 0x1654 JUMPI PUSH2 0x15B6 PUSH1 0x3 DUP3 DUP2 SLOAD DUP2 LT PUSH2 0x151D JUMPI PUSH2 0x151D PUSH2 0x1C42 JUMP JUMPDEST SWAP1 PUSH1 0x0 MSTORE PUSH1 0x20 PUSH1 0x0 KECCAK256 ADD DUP1 SLOAD PUSH2 0x1532 SWAP1 PUSH2 0x1A6C JUMP JUMPDEST DUP1 PUSH1 0x1F ADD PUSH1 0x20 DUP1 SWAP2 DIV MUL PUSH1 0x20 ADD PUSH1 0x40 MLOAD SWAP1 DUP2 ADD PUSH1 0x40 MSTORE DUP1 SWAP3 SWAP2 SWAP1 DUP2 DUP2 MSTORE PUSH1 0x20 ADD DUP3 DUP1 SLOAD PUSH2 0x155E SWAP1 PUSH2 0x1A6C JUMP JUMPDEST DUP1 ISZERO PUSH2 0x15AB JUMPI DUP1 PUSH1 0x1F LT PUSH2 0x1580 JUMPI PUSH2 0x100 DUP1 DUP4 SLOAD DIV MUL DUP4 MSTORE SWAP2 PUSH1 0x20 ADD SWAP2 PUSH2 0x15AB JUMP JUMPDEST DUP3 ADD SWAP2 SWAP1 PUSH1 0x0 MSTORE PUSH1 0x20 PUSH1 0x0 KECCAK256 SWAP1 JUMPDEST DUP2 SLOAD DUP2 MSTORE SWAP1 PUSH1 0x1 ADD SWAP1 PUSH1 0x20 ADD DUP1 DUP4 GT PUSH2 0x158E JUMPI DUP3 SWAP1 SUB PUSH1 0x1F AND DUP3 ADD SWAP2 JUMPDEST POP POP POP POP POP DUP4 PUSH2 0x1658 JUMP JUMPDEST ISZERO PUSH2 0x1642 JUMPI PUSH1 0x3 DUP1 SLOAD PUSH2 0x15CB SWAP1 PUSH1 0x1 SWAP1 PUSH2 0x1AEB JUMP JUMPDEST DUP2 SLOAD DUP2 LT PUSH2 0x15DB JUMPI PUSH2 0x15DB PUSH2 0x1C42 JUMP JUMPDEST SWAP1 PUSH1 0x0 MSTORE PUSH1 0x20 PUSH1 0x0 KECCAK256 ADD PUSH1 0x3 DUP3 DUP2 SLOAD DUP2 LT PUSH2 0x15F8 JUMPI PUSH2 0x15F8 PUSH2 0x1C42 JUMP JUMPDEST SWAP1 PUSH1 0x0 MSTORE PUSH1 0x20 PUSH1 0x0 KECCAK256 ADD SWAP1 DUP2 PUSH2 0x160E SWAP2 SWAP1 PUSH2 0x1C58 JUMP JUMPDEST POP PUSH1 0x3 DUP1 SLOAD DUP1 PUSH2 0x1620 JUMPI PUSH2 0x1620 PUSH2 0x1D33 JUMP JUMPDEST PUSH1 0x1 SWAP1 SUB DUP2 DUP2 SWAP1 PUSH1 0x0 MSTORE PUSH1 0x20 PUSH1 0x0 KECCAK256 ADD PUSH1 0x0 PUSH2 0x163C SWAP2 SWAP1 PUSH2 0x167F JUMP JUMPDEST SWAP1 SSTORE POP POP JUMP JUMPDEST DUP1 PUSH2 0x164C DUP2 PUSH2 0x1D49 JUMP JUMPDEST SWAP2 POP POP PUSH2 0x14FD JUMP JUMPDEST POP POP JUMP JUMPDEST PUSH1 0x0 DUP2 MLOAD DUP4 MLOAD EQ DUP1 ISZERO PUSH2 0x1678 JUMPI POP DUP2 DUP1 MLOAD SWAP1 PUSH1 0x20 ADD KECCAK256 DUP4 DUP1 MLOAD SWAP1 PUSH1 0x20 ADD KECCAK256 EQ JUMPDEST SWAP4 SWAP3 POP POP POP JUMP JUMPDEST POP DUP1 SLOAD PUSH2 0x168B SWAP1 PUSH2 0x1A6C JUMP JUMPDEST PUSH1 0x0 DUP3 SSTORE DUP1 PUSH1 0x1F LT PUSH2 0x169B JUMPI POP POP JUMP JUMPDEST PUSH1 0x1F ADD PUSH1 0x20 SWAP1 DIV SWAP1 PUSH1 0x0 MSTORE PUSH1 0x20 PUSH1 0x0 KECCAK256 SWAP1 DUP2 ADD SWAP1 PUSH2 0x147A SWAP2 SWAP1 JUMPDEST DUP1 DUP3 GT ISZERO PUSH2 0x16C9 JUMPI PUSH1 0x0 DUP2 SSTORE PUSH1 0x1 ADD PUSH2 0x16B5 JUMP JUMPDEST POP SWAP1 JUMP JUMPDEST PUSH4 0x4E487B71 PUSH1 0xE0 SHL PUSH1 0x0 MSTORE PUSH1 0x41 PUSH1 0x4 MSTORE PUSH1 0x24 PUSH1 0x0 REVERT JUMPDEST PUSH1 0x0 DUP3 PUSH1 0x1F DUP4 ADD SLT PUSH2 0x16F4 JUMPI PUSH1 0x0 DUP1 REVERT JUMPDEST DUP2 CALLDATALOAD PUSH8 0xFFFFFFFFFFFFFFFF DUP1 DUP3 GT ISZERO PUSH2 0x170F JUMPI PUSH2 0x170F PUSH2 0x16CD JUMP JUMPDEST PUSH1 0x40 MLOAD PUSH1 0x1F DUP4 ADD PUSH1 0x1F NOT SWAP1 DUP2 AND PUSH1 0x3F ADD AND DUP2 ADD SWAP1 DUP3 DUP3 GT DUP2 DUP4 LT OR ISZERO PUSH2 0x1737 JUMPI PUSH2 0x1737 PUSH2 0x16CD JUMP JUMPDEST DUP2 PUSH1 0x40 MSTORE DUP4 DUP2 MSTORE DUP7 PUSH1 0x20 DUP6 DUP9 ADD ADD GT ISZERO PUSH2 0x1750 JUMPI PUSH1 0x0 DUP1 REVERT JUMPDEST DUP4 PUSH1 0x20 DUP8 ADD PUSH1 0x20 DUP4 ADD CALLDATACOPY PUSH1 0x0 PUSH1 0x20 DUP6 DUP4 ADD ADD MSTORE DUP1 SWAP5 POP POP POP POP POP SWAP3 SWAP2 POP POP JUMP JUMPDEST PUSH1 0x0 PUSH1 0x20 DUP3 DUP5 SUB SLT ISZERO PUSH2 0x1782 JUMPI PUSH1 0x0 DUP1 REVERT JUMPDEST DUP2 CALLDATALOAD PUSH8 0xFFFFFFFFFFFFFFFF DUP2 GT ISZERO PUSH2 0x1799 JUMPI PUSH1 0x0 DUP1 REVERT JUMPDEST PUSH2 0x17A5 DUP5 DUP3 DUP6 ADD PUSH2 0x16E3 JUMP JUMPDEST SWAP5 SWAP4 POP POP POP POP JUMP JUMPDEST PUSH1 0x0 JUMPDEST DUP4 DUP2 LT ISZERO PUSH2 0x17C8 JUMPI DUP2 DUP2 ADD MLOAD DUP4 DUP3 ADD MSTORE PUSH1 0x20 ADD PUSH2 0x17B0 JUMP JUMPDEST POP POP PUSH1 0x0 SWAP2 ADD MSTORE JUMP JUMPDEST PUSH1 0x0 DUP2 MLOAD DUP1 DUP5 MSTORE PUSH2 0x17E9 DUP2 PUSH1 0x20 DUP7 ADD PUSH1 0x20 DUP7 ADD PUSH2 0x17AD JUMP JUMPDEST PUSH1 0x1F ADD PUSH1 0x1F NOT AND SWAP3 SWAP1 SWAP3 ADD PUSH1 0x20 ADD SWAP3 SWAP2 POP POP JUMP JUMPDEST PUSH1 0x0 PUSH1 0x1 DUP1 PUSH1 0xA0 SHL SUB DUP1 DUP9 AND DUP4 MSTORE PUSH1 0xA0 PUSH1 0x20 DUP5 ADD MSTORE PUSH2 0x181F PUSH1 0xA0 DUP5 ADD DUP9 PUSH2 0x17D1 JUMP JUMPDEST DUP4 DUP2 SUB PUSH1 0x40 DUP6 ADD MSTORE PUSH2 0x1831 DUP2 DUP9 PUSH2 0x17D1 JUMP JUMPDEST SWAP6 SWAP1 SWAP2 AND PUSH1 0x60 DUP5 ADD MSTORE POP POP PUSH1 0x80 ADD MSTORE SWAP4 SWAP3 POP POP POP JUMP JUMPDEST PUSH1 0x0 DUP1 PUSH1 0x40 DUP4 DUP6 SUB SLT ISZERO PUSH2 0x185A JUMPI PUSH1 0x0 DUP1 REVERT JUMPDEST DUP3 CALLDATALOAD PUSH8 0xFFFFFFFFFFFFFFFF DUP2 GT ISZERO PUSH2 0x1871 JUMPI PUSH1 0x0 DUP1 REVERT JUMPDEST PUSH2 0x187D DUP6 DUP3 DUP7 ADD PUSH2 0x16E3 JUMP JUMPDEST SWAP6 PUSH1 0x20 SWAP5 SWAP1 SWAP5 ADD CALLDATALOAD SWAP5 POP POP POP POP JUMP JUMPDEST DUP1 CALLDATALOAD PUSH1 0x1 PUSH1 0x1 PUSH1 0xA0 SHL SUB DUP2 AND DUP2 EQ PUSH2 0xC23 JUMPI PUSH1 0x0 DUP1 REVERT JUMPDEST PUSH1 0x0 DUP1 PUSH1 0x0 PUSH1 0x60 DUP5 DUP7 SUB SLT ISZERO PUSH2 0x18B8 JUMPI PUSH1 0x0 DUP1 REVERT JUMPDEST DUP4 CALLDATALOAD PUSH8 0xFFFFFFFFFFFFFFFF DUP2 GT ISZERO PUSH2 0x18CF JUMPI PUSH1 0x0 DUP1 REVERT JUMPDEST PUSH2 0x18DB DUP7 DUP3 DUP8 ADD PUSH2 0x16E3 JUMP JUMPDEST SWAP4 POP POP PUSH2 0x18EA PUSH1 0x20 DUP6 ADD PUSH2 0x188C JUMP JUMPDEST SWAP2 POP PUSH1 0x40 DUP5 ADD CALLDATALOAD SWAP1 POP SWAP3 POP SWAP3 POP SWAP3 JUMP JUMPDEST PUSH1 0x0 PUSH1 0x20 DUP1 DUP4 ADD DUP2 DUP5 MSTORE DUP1 DUP6 MLOAD DUP1 DUP4 MSTORE PUSH1 0x40 DUP7 ADD SWAP2 POP PUSH1 0x40 DUP2 PUSH1 0x5 SHL DUP8 ADD ADD SWAP3 POP DUP4 DUP8 ADD PUSH1 0x0 JUMPDEST DUP3 DUP2 LT ISZERO PUSH2 0x194F JUMPI PUSH1 0x3F NOT DUP9 DUP7 SUB ADD DUP5 MSTORE PUSH2 0x193D DUP6 DUP4 MLOAD PUSH2 0x17D1 JUMP JUMPDEST SWAP5 POP SWAP3 DUP6 ADD SWAP3 SWAP1 DUP6 ADD SWAP1 PUSH1 0x1 ADD PUSH2 0x1921 JUMP JUMPDEST POP SWAP3 SWAP8 SWAP7 POP POP POP POP POP POP POP JUMP JUMPDEST PUSH1 0x0 DUP1 PUSH1 0x0 DUP1 PUSH1 0x80 DUP6 DUP8 SUB SLT ISZERO PUSH2 0x1972 JUMPI PUSH1 0x0 DUP1 REVERT JUMPDEST PUSH2 0x197B DUP6 PUSH2 0x188C JUMP JUMPDEST SWAP4 POP PUSH1 0x20 DUP6 ADD CALLDATALOAD PUSH8 0xFFFFFFFFFFFFFFFF DUP1 DUP3 GT ISZERO PUSH2 0x1998 JUMPI PUSH1 0x0 DUP1 REVERT JUMPDEST PUSH2 0x19A4 DUP9 DUP4 DUP10 ADD PUSH2 0x16E3 JUMP JUMPDEST SWAP5 POP PUSH1 0x40 DUP8 ADD CALLDATALOAD SWAP2 POP DUP1 DUP3 GT ISZERO PUSH2 0x19BA JUMPI PUSH1 0x0 DUP1 REVERT JUMPDEST POP PUSH2 0x19C7 DUP8 DUP3 DUP9 ADD PUSH2 0x16E3 JUMP JUMPDEST SWAP3 POP POP PUSH2 0x19D6 PUSH1 0x60 DUP7 ADD PUSH2 0x188C JUMP JUMPDEST SWAP1 POP SWAP3 SWAP6 SWAP2 SWAP5 POP SWAP3 POP JUMP JUMPDEST PUSH1 0x20 DUP2 MSTORE PUSH1 0x0 PUSH1 0x1 DUP1 PUSH1 0xA0 SHL SUB DUP1 DUP5 MLOAD AND PUSH1 0x20 DUP5 ADD MSTORE PUSH1 0x20 DUP5 ADD MLOAD PUSH1 0xA0 PUSH1 0x40 DUP6 ADD MSTORE PUSH2 0x1A10 PUSH1 0xC0 DUP6 ADD DUP3 PUSH2 0x17D1 JUMP JUMPDEST SWAP1 POP PUSH1 0x40 DUP6 ADD MLOAD PUSH1 0x1F NOT DUP6 DUP4 SUB ADD PUSH1 0x60 DUP7 ADD MSTORE PUSH2 0x1A2D DUP3 DUP3 PUSH2 0x17D1 JUMP JUMPDEST SWAP2 POP POP DUP2 PUSH1 0x60 DUP7 ADD MLOAD AND PUSH1 0x80 DUP6 ADD MSTORE PUSH1 0x80 DUP6 ADD MLOAD PUSH1 0xA0 DUP6 ADD MSTORE DUP1 SWAP3 POP POP POP SWAP3 SWAP2 POP POP JUMP JUMPDEST PUSH1 0x0 PUSH1 0x20 DUP3 DUP5 SUB SLT ISZERO PUSH2 0x1A63 JUMPI PUSH1 0x0 DUP1 REVERT JUMPDEST PUSH2 0x1678 DUP3 PUSH2 0x188C JUMP JUMPDEST PUSH1 0x1 DUP2 DUP2 SHR SWAP1 DUP3 AND DUP1 PUSH2 0x1A80 JUMPI PUSH1 0x7F DUP3 AND SWAP2 POP JUMPDEST PUSH1 0x20 DUP3 LT DUP2 SUB PUSH2 0x1AA0 JUMPI PUSH4 0x4E487B71 PUSH1 0xE0 SHL PUSH1 0x0 MSTORE PUSH1 0x22 PUSH1 0x4 MSTORE PUSH1 0x24 PUSH1 0x0 REVERT JUMPDEST POP SWAP2 SWAP1 POP JUMP JUMPDEST PUSH1 0x0 DUP3 MLOAD PUSH2 0x1AB8 DUP2 DUP5 PUSH1 0x20 DUP8 ADD PUSH2 0x17AD JUMP JUMPDEST SWAP2 SWAP1 SWAP2 ADD SWAP3 SWAP2 POP POP JUMP JUMPDEST PUSH1 0x20 DUP2 MSTORE PUSH1 0x0 PUSH2 0x1678 PUSH1 0x20 DUP4 ADD DUP5 PUSH2 0x17D1 JUMP JUMPDEST PUSH4 0x4E487B71 PUSH1 0xE0 SHL PUSH1 0x0 MSTORE PUSH1 0x11 PUSH1 0x4 MSTORE PUSH1 0x24 PUSH1 0x0 REVERT JUMPDEST DUP2 DUP2 SUB DUP2 DUP2 GT ISZERO PUSH2 0x54D JUMPI PUSH2 0x54D PUSH2 0x1AD5 JUMP JUMPDEST PUSH1 0x1F DUP3 GT ISZERO PUSH2 0x1B48 JUMPI PUSH1 0x0 DUP2 DUP2 MSTORE PUSH1 0x20 DUP2 KECCAK256 PUSH1 0x1F DUP6 ADD PUSH1 0x5 SHR DUP2 ADD PUSH1 0x20 DUP7 LT ISZERO PUSH2 0x1B25 JUMPI POP DUP1 JUMPDEST PUSH1 0x1F DUP6 ADD PUSH1 0x5 SHR DUP3 ADD SWAP2 POP JUMPDEST DUP2 DUP2 LT ISZERO PUSH2 0x1B44 JUMPI DUP3 DUP2 SSTORE PUSH1 0x1 ADD PUSH2 0x1B31 JUMP JUMPDEST POP POP POP JUMPDEST POP POP POP JUMP JUMPDEST DUP2 MLOAD PUSH8 0xFFFFFFFFFFFFFFFF DUP2 GT ISZERO PUSH2 0x1B67 JUMPI PUSH2 0x1B67 PUSH2 0x16CD JUMP JUMPDEST PUSH2 0x1B7B DUP2 PUSH2 0x1B75 DUP5 SLOAD PUSH2 0x1A6C JUMP JUMPDEST DUP5 PUSH2 0x1AFE JUMP JUMPDEST PUSH1 0x20 DUP1 PUSH1 0x1F DUP4 GT PUSH1 0x1 DUP2 EQ PUSH2 0x1BB0 JUMPI PUSH1 0x0 DUP5 ISZERO PUSH2 0x1B98 JUMPI POP DUP6 DUP4 ADD MLOAD JUMPDEST PUSH1 0x0 NOT PUSH1 0x3 DUP7 SWAP1 SHL SHR NOT AND PUSH1 0x1 DUP6 SWAP1 SHL OR DUP6 SSTORE PUSH2 0x1B44 JUMP JUMPDEST PUSH1 0x0 DUP6 DUP2 MSTORE PUSH1 0x20 DUP2 KECCAK256 PUSH1 0x1F NOT DUP7 AND SWAP2 JUMPDEST DUP3 DUP2 LT ISZERO PUSH2 0x1BDF JUMPI DUP9 DUP7 ADD MLOAD DUP3 SSTORE SWAP5 DUP5 ADD SWAP5 PUSH1 0x1 SWAP1 SWAP2 ADD SWAP1 DUP5 ADD PUSH2 0x1BC0 JUMP JUMPDEST POP DUP6 DUP3 LT ISZERO PUSH2 0x1BFD JUMPI DUP8 DUP6 ADD MLOAD PUSH1 0x0 NOT PUSH1 0x3 DUP9 SWAP1 SHL PUSH1 0xF8 AND SHR NOT AND DUP2 SSTORE JUMPDEST POP POP POP POP POP PUSH1 0x1 SWAP1 DUP2 SHL ADD SWAP1 SSTORE POP JUMP JUMPDEST PUSH1 0x40 DUP2 MSTORE PUSH1 0x0 PUSH2 0x1C20 PUSH1 0x40 DUP4 ADD DUP6 PUSH2 0x17D1 JUMP JUMPDEST SWAP1 POP DUP3 PUSH1 0x20 DUP4 ADD MSTORE SWAP4 SWAP3 POP POP POP JUMP JUMPDEST DUP1 DUP3 ADD DUP1 DUP3 GT ISZERO PUSH2 0x54D JUMPI PUSH2 0x54D PUSH2 0x1AD5 JUMP JUMPDEST PUSH4 0x4E487B71 PUSH1 0xE0 SHL PUSH1 0x0 MSTORE PUSH1 0x32 PUSH1 0x4 MSTORE PUSH1 0x24 PUSH1 0x0 REVERT JUMPDEST DUP2 DUP2 SUB PUSH2 0x1C63 JUMPI POP POP JUMP JUMPDEST PUSH2 0x1C6D DUP3 SLOAD PUSH2 0x1A6C JUMP JUMPDEST PUSH8 0xFFFFFFFFFFFFFFFF DUP2 GT ISZERO PUSH2 0x1C85 JUMPI PUSH2 0x1C85 PUSH2 0x16CD JUMP JUMPDEST PUSH2 0x1C93 DUP2 PUSH2 0x1B75 DUP5 SLOAD PUSH2 0x1A6C JUMP JUMPDEST PUSH1 0x0 PUSH1 0x1F DUP3 GT PUSH1 0x1 DUP2 EQ PUSH2 0x1CC7 JUMPI PUSH1 0x0 DUP4 ISZERO PUSH2 0x1CAF JUMPI POP DUP5 DUP3 ADD SLOAD JUMPDEST PUSH1 0x0 NOT PUSH1 0x3 DUP6 SWAP1 SHL SHR NOT AND PUSH1 0x1 DUP5 SWAP1 SHL OR DUP5 SSTORE PUSH2 0x1D2C JUMP JUMPDEST PUSH1 0x0 DUP6 DUP2 MSTORE PUSH1 0x20 SWAP1 KECCAK256 PUSH1 0x1F NOT DUP5 AND SWAP1 PUSH1 0x0 DUP7 DUP2 MSTORE PUSH1 0x20 SWAP1 KECCAK256 DUP5 JUMPDEST DUP4 DUP2 LT ISZERO PUSH2 0x1D01 JUMPI DUP3 DUP7 ADD SLOAD DUP3 SSTORE PUSH1 0x1 SWAP6 DUP7 ADD SWAP6 SWAP1 SWAP2 ADD SWAP1 PUSH1 0x20 ADD PUSH2 0x1CE1 JUMP JUMPDEST POP DUP6 DUP4 LT ISZERO PUSH2 0x1D1F JUMPI DUP2 DUP6 ADD SLOAD PUSH1 0x0 NOT PUSH1 0x3 DUP9 SWAP1 SHL PUSH1 0xF8 AND SHR NOT AND DUP2 SSTORE JUMPDEST POP POP POP PUSH1 0x1 DUP4 PUSH1 0x1 SHL ADD DUP5 SSTORE JUMPDEST POP POP POP POP POP JUMP JUMPDEST PUSH4 0x4E487B71 PUSH1 0xE0 SHL PUSH1 0x0 MSTORE PUSH1 0x31 PUSH1 0x4 MSTORE PUSH1 0x24 PUSH1 0x0 REVERT JUMPDEST PUSH1 0x0 PUSH1 0x1 DUP3 ADD PUSH2 0x1D5B JUMPI PUSH2 0x1D5B PUSH2 0x1AD5 JUMP JUMPDEST POP PUSH1 0x1 ADD SWAP1 JUMP INVALID LOG2 PUSH5 0x6970667358 0x22 SLT KECCAK256 CALLDATALOAD 0xD7 0xE3 PUSH30 0x8C7567CF8B60EDA20AEE7CFDD2B5B2C8C7796AF8E211A24D1FCD0C046473 PUSH16 0x6C634300081400330000000000000000 "
                                },
                                "gasEstimates": {
                                                "creation": {
                                                                "codeDepositCost": "1515200",
                                                                "executionCost": "infinite",
                                                                "totalCost": "infinite"
                                                },
                                                "external": {
                                                                "BRIDGE_ROLE()": "2384",
                                                                "assign(string,address,uint256)": "infinite",
                                                                "bridge_address()": "2405",
                                                                "burn(string,uint256)": "infinite",
                                                                "getAllAssetsIDs()": "infinite",
                                                                "getToken(string)": "infinite",
                                                                "lock(string,uint256)": "infinite",
                                                                "mint(string,uint256)": "infinite",
                                                                "owner()": "2354",
                                                                "renounceOwnership()": "infinite",
                                                                "tokens(string)": "infinite",
                                                                "transferOwnership(address)": "28421",
                                                                "unlock(string,uint256)": "infinite",
                                                                "unwrap(string)": "infinite",
                                                                "wrap(address,string,string,address)": "infinite"
                                                },
                                                "internal": {
                                                                "deleteFromArray(string memory)": "infinite"
                                                }
                                },
                                "methodIdentifiers": {
                                                "BRIDGE_ROLE()": "b5bfddea",
                                                "assign(string,address,uint256)": "4534ba17",
                                                "bridge_address()": "1255c189",
                                                "burn(string,uint256)": "b48272cc",
                                                "getAllAssetsIDs()": "5137b8a7",
                                                "getToken(string)": "c1733f68",
                                                "lock(string,uint256)": "e1efb596",
                                                "mint(string,uint256)": "056b01ce",
                                                "owner()": "8da5cb5b",
                                                "renounceOwnership()": "715018a6",
                                                "tokens(string)": "04c2320b",
                                                "transferOwnership(address)": "f2fde38b",
                                                "unlock(string,uint256)": "d9cf884c",
                                                "unwrap(string)": "a1bc17c5",
                                                "wrap(address,string,string,address)": "8d7d180b"
                                }
                },
                "storageLayout": {
                                "storage": [
                                                {
                                                                "astId": 387,
                                                                "contract": "/home/kubaya/Desktop/cacti_fork/packages/cactus-plugin-satp-hermes/src/solidity/satp-wrapper.sol:SATPWrapperContract",
                                                                "label": "_owner",
                                                                "offset": 0,
                                                                "slot": "0",
                                                                "type": "t_address"
                                                },
                                                {
                                                                "astId": 3120,
                                                                "contract": "/home/kubaya/Desktop/cacti_fork/packages/cactus-plugin-satp-hermes/src/solidity/satp-wrapper.sol:SATPWrapperContract",
                                                                "label": "BRIDGE_ROLE",
                                                                "offset": 0,
                                                                "slot": "1",
                                                                "type": "t_bytes32"
                                                },
                                                {
                                                                "astId": 3125,
                                                                "contract": "/home/kubaya/Desktop/cacti_fork/packages/cactus-plugin-satp-hermes/src/solidity/satp-wrapper.sol:SATPWrapperContract",
                                                                "label": "tokens",
                                                                "offset": 0,
                                                                "slot": "2",
                                                                "type": "t_mapping(t_string_memory_ptr,t_struct(Token)3088_storage)"
                                                },
                                                {
                                                                "astId": 3128,
                                                                "contract": "/home/kubaya/Desktop/cacti_fork/packages/cactus-plugin-satp-hermes/src/solidity/satp-wrapper.sol:SATPWrapperContract",
                                                                "label": "ids",
                                                                "offset": 0,
                                                                "slot": "3",
                                                                "type": "t_array(t_string_storage)dyn_storage"
                                                },
                                                {
                                                                "astId": 3130,
                                                                "contract": "/home/kubaya/Desktop/cacti_fork/packages/cactus-plugin-satp-hermes/src/solidity/satp-wrapper.sol:SATPWrapperContract",
                                                                "label": "bridge_address",
                                                                "offset": 0,
                                                                "slot": "4",
                                                                "type": "t_address"
                                                }
                                ],
                                "types": {
                                                "t_address": {
                                                                "encoding": "inplace",
                                                                "label": "address",
                                                                "numberOfBytes": "20"
                                                },
                                                "t_array(t_string_storage)dyn_storage": {
                                                                "base": "t_string_storage",
                                                                "encoding": "dynamic_array",
                                                                "label": "string[]",
                                                                "numberOfBytes": "32"
                                                },
                                                "t_bytes32": {
                                                                "encoding": "inplace",
                                                                "label": "bytes32",
                                                                "numberOfBytes": "32"
                                                },
                                                "t_mapping(t_string_memory_ptr,t_struct(Token)3088_storage)": {
                                                                "encoding": "mapping",
                                                                "key": "t_string_memory_ptr",
                                                                "label": "mapping(string => struct Token)",
                                                                "numberOfBytes": "32",
                                                                "value": "t_struct(Token)3088_storage"
                                                },
                                                "t_string_memory_ptr": {
                                                                "encoding": "bytes",
                                                                "label": "string",
                                                                "numberOfBytes": "32"
                                                },
                                                "t_string_storage": {
                                                                "encoding": "bytes",
                                                                "label": "string",
                                                                "numberOfBytes": "32"
                                                },
                                                "t_struct(Token)3088_storage": {
                                                                "encoding": "inplace",
                                                                "label": "struct Token",
                                                                "members": [
                                                                                {
                                                                                                "astId": 3079,
                                                                                                "contract": "/home/kubaya/Desktop/cacti_fork/packages/cactus-plugin-satp-hermes/src/solidity/satp-wrapper.sol:SATPWrapperContract",
                                                                                                "label": "contractAddress",
                                                                                                "offset": 0,
                                                                                                "slot": "0",
                                                                                                "type": "t_address"
                                                                                },
                                                                                {
                                                                                                "astId": 3081,
                                                                                                "contract": "/home/kubaya/Desktop/cacti_fork/packages/cactus-plugin-satp-hermes/src/solidity/satp-wrapper.sol:SATPWrapperContract",
                                                                                                "label": "tokenType",
                                                                                                "offset": 0,
                                                                                                "slot": "1",
                                                                                                "type": "t_string_storage"
                                                                                },
                                                                                {
                                                                                                "astId": 3083,
                                                                                                "contract": "/home/kubaya/Desktop/cacti_fork/packages/cactus-plugin-satp-hermes/src/solidity/satp-wrapper.sol:SATPWrapperContract",
                                                                                                "label": "tokenId",
                                                                                                "offset": 0,
                                                                                                "slot": "2",
                                                                                                "type": "t_string_storage"
                                                                                },
                                                                                {
                                                                                                "astId": 3085,
                                                                                                "contract": "/home/kubaya/Desktop/cacti_fork/packages/cactus-plugin-satp-hermes/src/solidity/satp-wrapper.sol:SATPWrapperContract",
                                                                                                "label": "owner",
                                                                                                "offset": 0,
                                                                                                "slot": "3",
                                                                                                "type": "t_address"
                                                                                },
                                                                                {
                                                                                                "astId": 3087,
                                                                                                "contract": "/home/kubaya/Desktop/cacti_fork/packages/cactus-plugin-satp-hermes/src/solidity/satp-wrapper.sol:SATPWrapperContract",
                                                                                                "label": "amount",
                                                                                                "offset": 0,
                                                                                                "slot": "4",
                                                                                                "type": "t_uint256"
                                                                                }
                                                                ],
                                                                "numberOfBytes": "160"
                                                },
                                                "t_uint256": {
                                                                "encoding": "inplace",
                                                                "label": "uint256",
                                                                "numberOfBytes": "32"
                                                }
                                }
                },
                "userdoc": {
                                "kind": "user",
                                "methods": {},
                                "version": 1
                }
}