{
    "contractName": "HelloWorld",
    "abi": [
        {
            "constant": true,
            "inputs": [],
            "name": "sayHello",
            "outputs": [
                {
                    "name": "",
                    "type": "string"
                }
            ],
            "payable": false,
            "stateMutability": "pure",
            "type": "function"
        }
    ],
    "bytecode": "608060405234801561001057600080fd5b50610124806100206000396000f3fe6080604052600436106038577c01000000000000000000000000000000000000000000000000000000006000350463ef5fb05b8114603d575b600080fd5b348015604857600080fd5b50604f60c1565b6040805160208082528351818301528351919283929083019185019080838360005b8381101560875781810151838201526020016071565b50505050905090810190601f16801560b35780820380516001836020036101000a031916815260200191505b509250505060405180910390f35b60408051808201909152600c81527f48656c6c6f20576f726c6421000000000000000000000000000000000000000060208201529056fea165627a7a72305820163679abbba7fb3b971fb45c42705166d72dce361ffbee6d7f65c733b022ce420029",
    "sourcePath": "/home/peter/a/blockchain/blockchain-integration-framework/packages/cactus-plugin-ledger-connector-besu/src/test/solidity/hello-world-contract/HelloWorld.sol",
    "compiler": {
        "name": "solc",
        "version": "0.5.1+commit.c8a2cb62"
    },
    "functionHashes": {
        "sayHello()": "ef5fb05b"
    },
    "gasEstimates": {
        "creation": {
            "codeDepositCost": "58400",
            "executionCost": "111",
            "totalCost": "58511"
        },
        "external": {
            "sayHello()": "infinite"
        }
    }
}