{
  "contractName": "LockAsset",
  "abi": [
    {
      "anonymous": false,
      "inputs": [
        {
          "indexed": true,
          "internalType": "string",
          "name": "id",
          "type": "string"
        },
        {
          "indexed": false,
          "internalType": "address",
          "name": "creator",
          "type": "address"
        },
        {
          "indexed": false,
          "internalType": "bool",
          "name": "isLock",
          "type": "bool"
        },
        {
          "indexed": false,
          "internalType": "uint256",
          "name": "size",
          "type": "uint256"
        }
      ],
      "name": "Transaction",
      "type": "event"
    },
    {
      "inputs": [
        {
          "internalType": "string",
          "name": "id",
          "type": "string"
        },
        {
          "internalType": "uint256",
          "name": "size",
          "type": "uint256"
        }
      ],
      "name": "createAsset",
      "outputs": [],
      "stateMutability": "nonpayable",
      "type": "function"
    },
    {
      "inputs": [
        {
          "internalType": "string",
          "name": "id",
          "type": "string"
        }
      ],
      "name": "deleteAsset",
      "outputs": [],
      "stateMutability": "nonpayable",
      "type": "function"
    },
    {
      "inputs": [],
      "name": "getAllAssetsIDs",
      "outputs": [
        {
          "internalType": "string[]",
          "name": "",
          "type": "string[]"
        }
      ],
      "stateMutability": "view",
      "type": "function"
    },
    {
      "inputs": [
        {
          "internalType": "string",
          "name": "id",
          "type": "string"
        }
      ],
      "name": "getAsset",
      "outputs": [
        {
          "components": [
            {
              "internalType": "address",
              "name": "creator",
              "type": "address"
            },
            {
              "internalType": "bool",
              "name": "isLock",
              "type": "bool"
            },
            {
              "internalType": "uint256",
              "name": "size",
              "type": "uint256"
            }
          ],
          "internalType": "struct Asset",
          "name": "",
          "type": "tuple"
        }
      ],
      "stateMutability": "view",
      "type": "function"
    },
    {
      "inputs": [
        {
          "internalType": "string",
          "name": "id",
          "type": "string"
        }
      ],
      "name": "isAssetLocked",
      "outputs": [
        {
          "internalType": "bool",
          "name": "",
          "type": "bool"
        }
      ],
      "stateMutability": "view",
      "type": "function"
    },
    {
      "inputs": [
        {
          "internalType": "string",
          "name": "id",
          "type": "string"
        }
      ],
      "name": "isPresent",
      "outputs": [
        {
          "internalType": "bool",
          "name": "",
          "type": "bool"
        }
      ],
      "stateMutability": "view",
      "type": "function"
    },
    {
      "inputs": [
        {
          "internalType": "string",
          "name": "id",
          "type": "string"
        }
      ],
      "name": "lockAsset",
      "outputs": [],
      "stateMutability": "nonpayable",
      "type": "function"
    },
    {
      "inputs": [
        {
          "internalType": "string",
          "name": "id",
          "type": "string"
        }
      ],
      "name": "unLockAsset",
      "outputs": [],
      "stateMutability": "nonpayable",
      "type": "function"
    }
  ],
  "bytecode": "608060405234801561001057600080fd5b50610b16806100206000396000f3fe608060405234801561001057600080fd5b50600436106100885760003560e01c8063cd5286d01161005b578063cd5286d0146100f2578063db9cc41014610132578063def60e0d14610145578063e24aa37c1461015857600080fd5b80631ae4eb681461008d5780635137b8a7146100b55780635e82d0a6146100ca578063bc548275146100df575b600080fd5b6100a061009b366004610850565b61016b565b60405190151581526020015b60405180910390f35b6100bd6101d5565b6040516100ac9190610892565b6100dd6100d8366004610850565b6102ae565b005b6100a06100ed366004610850565b610404565b610105610100366004610850565b610433565b6040805182516001600160a01b0316815260208084015115159082015291810151908201526060016100ac565b6100dd610140366004610924565b6104ab565b6100dd610153366004610850565b610606565b6100dd610166366004610850565b61064c565b60008060018484604051610180929190610970565b9081526040519081900360200190205460ff1690508061019f57600080fd5b600084846040516101b1929190610970565b9081526040519081900360200190205460ff600160a01b9091041691505092915050565b60606002805480602002602001604051908101604052809291908181526020016000905b828210156102a557838290600052602060002001805461021890610980565b80601f016020809104026020016040519081016040528092919081815260200182805461024490610980565b80156102915780601f1061026657610100808354040283529160200191610291565b820191906000526020600020905b81548152906001019060200180831161027457829003601f168201915b5050505050815260200190600101906101f9565b50505050905090565b6000600183836040516102c2929190610970565b9081526040519081900360200190205460ff169050806102e157600080fd5b6001600084846040516102f5929190610970565b9081526040519081900360200181208054921515600160a01b0260ff60a01b199093169290921790915561032c9084908490610970565b60405180910390207f9db172bd887aec98e834d86fb9ff0f1549ae602b8ca8ba1ee50902e4d502b9a060008585604051610367929190610970565b908152604051908190036020018120546001600160a01b0316906000906103919088908890610970565b9081526040519081900360200181205460ff600160a01b90910416906000906103bd9089908990610970565b908152604051908190036020018120600101546103f79392916001600160a01b039390931683529015156020830152604082015260600190565b60405180910390a2505050565b600060018383604051610418929190610970565b9081526040519081900360200190205460ff16905092915050565b604080516060810182526000808252602082018190529181019190915260008383604051610462929190610970565b908152604080516020928190038301812060608201835280546001600160a01b0381168352600160a01b900460ff16151593820193909352600190920154908201529392505050565b600081116104b857600080fd5b80600084846040516104cb929190610970565b90815260200160405180910390206001018190555033600084846040516104f3929190610970565b90815260405190819003602001812080546001600160a01b03939093166001600160a01b03199093169290921790915560009081906105359086908690610970565b9081526040519081900360200181208054921515600160a01b0260ff60a01b199093169290921790915560019061056f9085908590610970565b9081526040519081900360200190205460ff166105c557600280546001810182556000919091527f405787fa12a823e0f2b7631cc41b3ba8828b3321ca811111fa75cd3aa3bb5ace016105c3838583610a1f565b505b60018084846040516105d8929190610970565b908152604051908190036020018120805492151560ff199093169290921790915561032c9084908490610970565b60006001838360405161061a929190610970565b9081526040519081900360200190205460ff1690508061063957600080fd5b60008084846040516102f5929190610970565b600060018383604051610660929190610970565b9081526040519081900360200190205460ff1690508061067f57600080fd5b6000808484604051610692929190610970565b9081526040519081900360200190205460ff600160a01b909104169050806106b957600080fd5b600084846040516106cb929190610970565b90815260405190819003602001812080546001600160a81b031916815560006001918201819055916107009087908790610970565b908152604051908190036020018120805492151560ff199093169290921790915561072e9085908590610970565b60405180910390207f9db172bd887aec98e834d86fb9ff0f1549ae602b8ca8ba1ee50902e4d502b9a060008686604051610769929190610970565b908152604051908190036020018120546001600160a01b0316906000906107939089908990610970565b9081526040519081900360200181205460ff600160a01b90910416906000906107bf908a908a90610970565b908152604051908190036020018120600101546107f99392916001600160a01b039390931683529015156020830152604082015260600190565b60405180910390a250505050565b60008083601f84011261081957600080fd5b50813567ffffffffffffffff81111561083157600080fd5b60208301915083602082850101111561084957600080fd5b9250929050565b6000806020838503121561086357600080fd5b823567ffffffffffffffff81111561087a57600080fd5b61088685828601610807565b90969095509350505050565b6000602080830181845280855180835260408601915060408160051b87010192508387016000805b8381101561091657888603603f1901855282518051808852835b818110156108ef578281018a01518982018b015289016108d4565b508781018901849052601f01601f19169096018701955093860193918601916001016108ba565b509398975050505050505050565b60008060006040848603121561093957600080fd5b833567ffffffffffffffff81111561095057600080fd5b61095c86828701610807565b909790965060209590950135949350505050565b8183823760009101908152919050565b600181811c9082168061099457607f821691505b6020821081036109b457634e487b7160e01b600052602260045260246000fd5b50919050565b634e487b7160e01b600052604160045260246000fd5b601f821115610a1a57600081815260208120601f850160051c810160208610156109f75750805b601f850160051c820191505b81811015610a1657828155600101610a03565b5050505b505050565b67ffffffffffffffff831115610a3757610a376109ba565b610a4b83610a458354610980565b836109d0565b6000601f841160018114610a7f5760008515610a675750838201355b600019600387901b1c1916600186901b178355610ad9565b600083815260209020601f19861690835b82811015610ab05786850135825560209485019460019092019101610a90565b5086821015610acd5760001960f88860031b161c19848701351681555b505060018560011b0183555b505050505056fea26469706673582212204c18d4a504a078fca73e2c1077682b64833c90d807d1ce81a44c14d72869897d64736f6c63430008130033",
  "sourcePath": "/workspaces/blockchain-integration-framework/packages/cactus-plugin-bungee-hermes/src/test/typescript/solidity/lock-asset-contract/lock-asset.sol",
  "compiler": {
    "name": "solc",
    "version": "0.8.19+commit.7dd6d404"
  },
  "functionHashes": {
    "createAsset(string,uint256)": "db9cc410",
    "deleteAsset(string)": "e24aa37c",
    "getAllAssetsIDs()": "5137b8a7",
    "getAsset(string)": "cd5286d0",
    "isAssetLocked(string)": "1ae4eb68",
    "isPresent(string)": "bc548275",
    "lockAsset(string)": "5e82d0a6",
    "unLockAsset(string)": "def60e0d"
  },
  "gasEstimates": {
    "creation": {
      "codeDepositCost": "567600",
      "executionCost": "600",
      "totalCost": "568200"
    },
    "external": {
      "createAsset(string,uint256)": "infinite",
      "deleteAsset(string)": "infinite",
      "getAllAssetsIDs()": "infinite",
      "getAsset(string)": "infinite",
      "isAssetLocked(string)": "infinite",
      "isPresent(string)": "infinite",
      "lockAsset(string)": "infinite",
      "unLockAsset(string)": "infinite"
    }
  }
}