{
  "_format": "hh-sol-artifact-1",
  "contractName": "DAOToken",
  "sourceName": "src/main/solidity/net-emissions-token-network/Governance/DAOToken.sol",
  "abi": [
    {
      "inputs": [
        {
          "internalType": "address",
          "name": "account",
          "type": "address"
        }
      ],
      "stateMutability": "nonpayable",
      "type": "constructor"
    },
    {
      "anonymous": false,
      "inputs": [
        {
          "indexed": true,
          "internalType": "address",
          "name": "owner",
          "type": "address"
        },
        {
          "indexed": true,
          "internalType": "address",
          "name": "spender",
          "type": "address"
        },
        {
          "indexed": false,
          "internalType": "uint256",
          "name": "amount",
          "type": "uint256"
        }
      ],
      "name": "Approval",
      "type": "event"
    },
    {
      "anonymous": false,
      "inputs": [
        {
          "indexed": true,
          "internalType": "address",
          "name": "delegator",
          "type": "address"
        },
        {
          "indexed": true,
          "internalType": "address",
          "name": "fromDelegate",
          "type": "address"
        },
        {
          "indexed": true,
          "internalType": "address",
          "name": "toDelegate",
          "type": "address"
        }
      ],
      "name": "DelegateChanged",
      "type": "event"
    },
    {
      "anonymous": false,
      "inputs": [
        {
          "indexed": true,
          "internalType": "address",
          "name": "delegate",
          "type": "address"
        },
        {
          "indexed": false,
          "internalType": "uint256",
          "name": "previousBalance",
          "type": "uint256"
        },
        {
          "indexed": false,
          "internalType": "uint256",
          "name": "newBalance",
          "type": "uint256"
        }
      ],
      "name": "DelegateVotesChanged",
      "type": "event"
    },
    {
      "anonymous": false,
      "inputs": [
        {
          "indexed": true,
          "internalType": "address",
          "name": "from",
          "type": "address"
        },
        {
          "indexed": true,
          "internalType": "address",
          "name": "to",
          "type": "address"
        },
        {
          "indexed": false,
          "internalType": "uint256",
          "name": "amount",
          "type": "uint256"
        }
      ],
      "name": "Transfer",
      "type": "event"
    },
    {
      "inputs": [],
      "name": "DELEGATION_TYPEHASH",
      "outputs": [
        {
          "internalType": "bytes32",
          "name": "",
          "type": "bytes32"
        }
      ],
      "stateMutability": "view",
      "type": "function"
    },
    {
      "inputs": [],
      "name": "DOMAIN_TYPEHASH",
      "outputs": [
        {
          "internalType": "bytes32",
          "name": "",
          "type": "bytes32"
        }
      ],
      "stateMutability": "view",
      "type": "function"
    },
    {
      "inputs": [
        {
          "internalType": "address",
          "name": "account",
          "type": "address"
        },
        {
          "internalType": "uint96",
          "name": "amount",
          "type": "uint96"
        }
      ],
      "name": "_burn",
      "outputs": [],
      "stateMutability": "nonpayable",
      "type": "function"
    },
    {
      "inputs": [
        {
          "internalType": "address",
          "name": "account",
          "type": "address"
        },
        {
          "internalType": "address",
          "name": "spender",
          "type": "address"
        }
      ],
      "name": "allowance",
      "outputs": [
        {
          "internalType": "uint256",
          "name": "",
          "type": "uint256"
        }
      ],
      "stateMutability": "view",
      "type": "function"
    },
    {
      "inputs": [
        {
          "internalType": "address",
          "name": "spender",
          "type": "address"
        },
        {
          "internalType": "uint256",
          "name": "rawAmount",
          "type": "uint256"
        }
      ],
      "name": "approve",
      "outputs": [
        {
          "internalType": "bool",
          "name": "",
          "type": "bool"
        }
      ],
      "stateMutability": "nonpayable",
      "type": "function"
    },
    {
      "inputs": [
        {
          "internalType": "address",
          "name": "account",
          "type": "address"
        }
      ],
      "name": "balanceOf",
      "outputs": [
        {
          "internalType": "uint256",
          "name": "",
          "type": "uint256"
        }
      ],
      "stateMutability": "view",
      "type": "function"
    },
    {
      "inputs": [
        {
          "internalType": "address",
          "name": "",
          "type": "address"
        },
        {
          "internalType": "uint32",
          "name": "",
          "type": "uint32"
        }
      ],
      "name": "checkpoints",
      "outputs": [
        {
          "internalType": "uint32",
          "name": "fromBlock",
          "type": "uint32"
        },
        {
          "internalType": "uint96",
          "name": "votes",
          "type": "uint96"
        }
      ],
      "stateMutability": "view",
      "type": "function"
    },
    {
      "inputs": [],
      "name": "decimals",
      "outputs": [
        {
          "internalType": "uint8",
          "name": "",
          "type": "uint8"
        }
      ],
      "stateMutability": "view",
      "type": "function"
    },
    {
      "inputs": [
        {
          "internalType": "address",
          "name": "delegatee",
          "type": "address"
        }
      ],
      "name": "delegate",
      "outputs": [],
      "stateMutability": "nonpayable",
      "type": "function"
    },
    {
      "inputs": [
        {
          "internalType": "address",
          "name": "delegatee",
          "type": "address"
        },
        {
          "internalType": "uint256",
          "name": "nonce",
          "type": "uint256"
        },
        {
          "internalType": "uint256",
          "name": "expiry",
          "type": "uint256"
        },
        {
          "internalType": "uint8",
          "name": "v",
          "type": "uint8"
        },
        {
          "internalType": "bytes32",
          "name": "r",
          "type": "bytes32"
        },
        {
          "internalType": "bytes32",
          "name": "s",
          "type": "bytes32"
        }
      ],
      "name": "delegateBySig",
      "outputs": [],
      "stateMutability": "nonpayable",
      "type": "function"
    },
    {
      "inputs": [
        {
          "internalType": "address",
          "name": "",
          "type": "address"
        }
      ],
      "name": "delegates",
      "outputs": [
        {
          "internalType": "address",
          "name": "",
          "type": "address"
        }
      ],
      "stateMutability": "view",
      "type": "function"
    },
    {
      "inputs": [
        {
          "internalType": "address",
          "name": "account",
          "type": "address"
        }
      ],
      "name": "getCurrentVotes",
      "outputs": [
        {
          "internalType": "uint96",
          "name": "",
          "type": "uint96"
        }
      ],
      "stateMutability": "view",
      "type": "function"
    },
    {
      "inputs": [],
      "name": "getInitialHolder",
      "outputs": [
        {
          "internalType": "address",
          "name": "",
          "type": "address"
        }
      ],
      "stateMutability": "view",
      "type": "function"
    },
    {
      "inputs": [
        {
          "internalType": "address",
          "name": "account",
          "type": "address"
        },
        {
          "internalType": "uint256",
          "name": "blockNumber",
          "type": "uint256"
        }
      ],
      "name": "getPriorVotes",
      "outputs": [
        {
          "internalType": "uint96",
          "name": "",
          "type": "uint96"
        }
      ],
      "stateMutability": "view",
      "type": "function"
    },
    {
      "inputs": [],
      "name": "getTotalSupply",
      "outputs": [
        {
          "internalType": "uint256",
          "name": "",
          "type": "uint256"
        }
      ],
      "stateMutability": "view",
      "type": "function"
    },
    {
      "inputs": [],
      "name": "governor",
      "outputs": [
        {
          "internalType": "address",
          "name": "",
          "type": "address"
        }
      ],
      "stateMutability": "view",
      "type": "function"
    },
    {
      "inputs": [],
      "name": "initialHolder",
      "outputs": [
        {
          "internalType": "address",
          "name": "",
          "type": "address"
        }
      ],
      "stateMutability": "view",
      "type": "function"
    },
    {
      "inputs": [],
      "name": "name",
      "outputs": [
        {
          "internalType": "string",
          "name": "",
          "type": "string"
        }
      ],
      "stateMutability": "view",
      "type": "function"
    },
    {
      "inputs": [
        {
          "internalType": "address",
          "name": "",
          "type": "address"
        }
      ],
      "name": "nonces",
      "outputs": [
        {
          "internalType": "uint256",
          "name": "",
          "type": "uint256"
        }
      ],
      "stateMutability": "view",
      "type": "function"
    },
    {
      "inputs": [
        {
          "internalType": "address",
          "name": "",
          "type": "address"
        }
      ],
      "name": "numCheckpoints",
      "outputs": [
        {
          "internalType": "uint32",
          "name": "",
          "type": "uint32"
        }
      ],
      "stateMutability": "view",
      "type": "function"
    },
    {
      "inputs": [
        {
          "internalType": "address",
          "name": "newGovernor",
          "type": "address"
        }
      ],
      "name": "setGovernor",
      "outputs": [],
      "stateMutability": "nonpayable",
      "type": "function"
    },
    {
      "inputs": [],
      "name": "symbol",
      "outputs": [
        {
          "internalType": "string",
          "name": "",
          "type": "string"
        }
      ],
      "stateMutability": "view",
      "type": "function"
    },
    {
      "inputs": [],
      "name": "totalSupply",
      "outputs": [
        {
          "internalType": "uint256",
          "name": "",
          "type": "uint256"
        }
      ],
      "stateMutability": "view",
      "type": "function"
    },
    {
      "inputs": [
        {
          "internalType": "address",
          "name": "dst",
          "type": "address"
        },
        {
          "internalType": "uint256",
          "name": "rawAmount",
          "type": "uint256"
        }
      ],
      "name": "transfer",
      "outputs": [
        {
          "internalType": "bool",
          "name": "",
          "type": "bool"
        }
      ],
      "stateMutability": "nonpayable",
      "type": "function"
    },
    {
      "inputs": [
        {
          "internalType": "address",
          "name": "src",
          "type": "address"
        },
        {
          "internalType": "address",
          "name": "dst",
          "type": "address"
        },
        {
          "internalType": "uint256",
          "name": "rawAmount",
          "type": "uint256"
        }
      ],
      "name": "transferFrom",
      "outputs": [
        {
          "internalType": "bool",
          "name": "",
          "type": "bool"
        }
      ],
      "stateMutability": "nonpayable",
      "type": "function"
    }
  ],
  "bytecode": "0x60806040526a084595161401484a000000600055600280546001600160a01b031916905534801561002f57600080fd5b5060405162001d2c38038062001d2c833981016040819052610050916100dc565b600080546001600160a01b0383168083526004602052604080842080546001600160601b0319166001600160601b0390941693909317909255600180546001600160a01b03191682179055825491519092917fddf252ad1be2c89b69c2b068fc378daa952ba7f163c4a11628f55a4df523b3ef916100ce919061010a565b60405180910390a350610113565b6000602082840312156100ed578081fd5b81516001600160a01b0381168114610103578182fd5b9392505050565b90815260200190565b611c0980620001236000396000f3fe608060405234801561001057600080fd5b50600436106101735760003560e01c8063782d6fe1116100de578063b72218e311610097578063c4e41b2211610071578063c4e41b2214610315578063dd62ed3e1461031d578063e7a324dc14610330578063f1127ed81461033857610173565b8063b72218e3146102e7578063c3cda520146102ef578063c42cf5351461030257610173565b8063782d6fe11461027e5780637ecebe001461029e57806395d89b41146102b1578063a9059cbb146102b9578063ae80d9de146102cc578063b4b5ea57146102d457610173565b8063313ce56711610130578063313ce567146101fb578063587cde1e146102105780635c19a95c146102235780636fcfff451461023857806370a082311461025857806372d3ee9e1461026b57610173565b806306fdde0314610178578063095ea7b3146101965780630c340a24146101b657806318160ddd146101cb57806320606b70146101e057806323b872dd146101e8575b600080fd5b610180610359565b60405161018d9190611651565b60405180910390f35b6101a96101a43660046114a9565b610386565b60405161018d91906115d7565b6101be610445565b60405161018d91906115c3565b6101d3610454565b60405161018d91906115e2565b6101d361045a565b6101a96101f6366004611469565b61047e565b6102036105c5565b60405161018d9190611a09565b6101be61021e36600461141a565b6105ca565b61023661023136600461141a565b6105e5565b005b61024b61024636600461141a565b6105f2565b60405161018d91906119d9565b6101d361026636600461141a565b61060a565b610236610279366004611571565b61062e565b61029161028c3660046114a9565b61074e565b60405161018d9190611a17565b6101d36102ac36600461141a565b61095c565b61018061096e565b6101a96102c73660046114a9565b61098f565b6101be6109cb565b6102916102e236600461141a565b6109da565b6101be610a4b565b6102366102fd3660046114d3565b610a5a565b61023661031036600461141a565b610c69565b6101d3610cde565b6101d361032b366004611435565b610ce4565b6101d3610d18565b61034b610346366004611532565b610d3c565b60405161018d9291906119ea565b6040518060400160405280601181526020017021b634b6b0ba32902220a7902a37b5b2b760791b81525081565b60008060001983141561039c57506000196103c1565b6103be83604051806060016040528060268152602001611b5060269139610d71565b90505b3360008181526003602090815260408083206001600160a01b03891680855292529182902080546001600160601b0319166001600160601b03861617905590519091907f8c5be1e5ebec7d5bd14f71427d1e84f3dd0314c0f7b2291e5b200ac8c7c3b92590610431908590611a17565b60405180910390a360019150505b92915050565b6002546001600160a01b031681565b60005481565b7f8cad95687ba82c2ce50e74f7b754645e5117c3a5bec8151c0726d5857980a86681565b6001600160a01b03831660009081526003602090815260408083203380855290835281842054825160608101909352602680845291936001600160601b039091169285926104d69288929190611b5090830139610d71565b9050866001600160a01b0316836001600160a01b03161415801561050357506001600160601b0382811614155b156105ad57600061052d83836040518060600160405280603e8152602001611b12603e9139610da0565b6001600160a01b038981166000818152600360209081526040808320948a16808452949091529081902080546001600160601b0319166001600160601b0386161790555192935090917f8c5be1e5ebec7d5bd14f71427d1e84f3dd0314c0f7b2291e5b200ac8c7c3b925906105a3908590611a17565b60405180910390a3505b6105b8878783610ddf565b5060019695505050505050565b601281565b6005602052600090815260409020546001600160a01b031681565b6105ef3382610fb8565b50565b60076020526000908152604090205463ffffffff1681565b6001600160a01b03166000908152600460205260409020546001600160601b031690565b6001600160a01b03821661065d5760405162461bcd60e51b815260040161065490611991565b60405180910390fd5b6002546001600160a01b031633146106875760405162461bcd60e51b81526004016106549061195a565b6001600160a01b0382166000908152600460205260409020546001600160601b039081169082168110156106cd5760405162461bcd60e51b8152600401610654906116a4565b6001600160a01b03831660008181526004602052604080822080546001600160601b0319168686036001600160601b0390811691909117909155825490861690038255519091907fddf252ad1be2c89b69c2b068fc378daa952ba7f163c4a11628f55a4df523b3ef90610741908690611a17565b60405180910390a3505050565b600043821061076f5760405162461bcd60e51b81526004016106549061182b565b6001600160a01b03831660009081526007602052604090205463ffffffff168061079d57600091505061043f565b6001600160a01b038416600090815260066020908152604080832063ffffffff600019860181168552925290912054168310610819576001600160a01b03841660009081526006602090815260408083206000199490940163ffffffff1683529290522054600160201b90046001600160601b0316905061043f565b6001600160a01b038416600090815260066020908152604080832083805290915290205463ffffffff1683101561085457600091505061043f565b600060001982015b8163ffffffff168163ffffffff16111561091757600282820363ffffffff160481036108866113ec565b506001600160a01b038716600090815260066020908152604080832063ffffffff858116855290835292819020815180830190925254928316808252600160201b9093046001600160601b031691810191909152908714156108f25760200151945061043f9350505050565b805163ffffffff1687111561090957819350610910565b6001820392505b505061085c565b506001600160a01b038516600090815260066020908152604080832063ffffffff909416835292905220546001600160601b03600160201b9091041691505092915050565b60086020526000908152604090205481565b604051806040016040528060058152602001640c886989a760db1b81525081565b6000806109b483604051806060016040528060278152602001611aeb60279139610d71565b90506109c1338583610ddf565b5060019392505050565b6001546001600160a01b031690565b6001600160a01b03811660009081526007602052604081205463ffffffff1680610a05576000610a44565b6001600160a01b0383166000908152600660209081526040808320600019850163ffffffff168452909152902054600160201b90046001600160601b03165b9392505050565b6001546001600160a01b031681565b60408051808201909152601181527021b634b6b0ba32902220a7902a37b5b2b760791b60209091015260007f8cad95687ba82c2ce50e74f7b754645e5117c3a5bec8151c0726d5857980a8667f7c75c83381dcf4c0e5ba36df2cc653b50dcd8f69236256411bc04c9f677ed4c0610acf611042565b30604051602001610ae3949392919061160f565b60405160208183030381529060405280519060200120905060007fe48329057bfd03d55e49b547132e39cffd9c1820ad7b9d4c5307691425d15adf888888604051602001610b3494939291906115eb565b60405160208183030381529060405280519060200120905060008282604051602001610b619291906115a8565b604051602081830303815290604052805190602001209050600060018288888860405160008152602001604052604051610b9e9493929190611633565b6020604051602081039080840390855afa158015610bc0573d6000803e3d6000fd5b5050604051601f1901519150506001600160a01b038116610bf35760405162461bcd60e51b815260040161065490611787565b6001600160a01b03811660009081526008602052604090208054600181019091558914610c325760405162461bcd60e51b815260040161065490611873565b87421115610c525760405162461bcd60e51b815260040161065490611913565b610c5c818b610fb8565b505050505b505050505050565b6001546001600160a01b03163314610c935760405162461bcd60e51b81526004016106549061173d565b6002546001600160a01b031615610cbc5760405162461bcd60e51b8152600401610654906116ed565b600280546001600160a01b0319166001600160a01b0392909216919091179055565b60005490565b6001600160a01b0391821660009081526003602090815260408083209390941682529190915220546001600160601b031690565b7fe48329057bfd03d55e49b547132e39cffd9c1820ad7b9d4c5307691425d15adf81565b600660209081526000928352604080842090915290825290205463ffffffff811690600160201b90046001600160601b031682565b600081600160601b8410610d985760405162461bcd60e51b81526004016106549190611651565b509192915050565b6000836001600160601b0316836001600160601b031611158290610dd75760405162461bcd60e51b81526004016106549190611651565b505050900390565b6001600160a01b038316610e055760405162461bcd60e51b8152600401610654906118b6565b6001600160a01b038216610e2b5760405162461bcd60e51b8152600401610654906117ce565b6001600160a01b038316600090815260046020908152604091829020548251606081019093526037808452610e76936001600160601b039092169285929190611a8390830139610da0565b6001600160a01b03848116600090815260046020908152604080832080546001600160601b0319166001600160601b03968716179055928616825290829020548251606081019093526031808452610ede9491909116928592909190611aba90830139611046565b6001600160a01b038381166000818152600460205260409081902080546001600160601b0319166001600160601b0395909516949094179093559151908516907fddf252ad1be2c89b69c2b068fc378daa952ba7f163c4a11628f55a4df523b3ef90610f4b908590611a17565b60405180910390a36001600160a01b0382811660009081526005602052604090205416610f8157610f7c8283610fb8565b610fb3565b6001600160a01b03808416600090815260056020526040808220548584168352912054610fb392918216911683611082565b505050565b6001600160a01b03808316600081815260056020818152604080842080546004845282862054949093528787166001600160a01b031984168117909155905191909516946001600160601b039092169391928592917f3134e8a2e6d97e929a7e54011ea5485d7d196dd5f0ba4d4ef95803e8e3fc257f9190a461103c828483611082565b50505050565b4690565b6000838301826001600160601b0380871690831610156110795760405162461bcd60e51b81526004016106549190611651565b50949350505050565b816001600160a01b0316836001600160a01b0316141580156110ad57506000816001600160601b0316115b15610fb3576001600160a01b03831615611165576001600160a01b03831660009081526007602052604081205463ffffffff1690816110ed57600061112c565b6001600160a01b0385166000908152600660209081526040808320600019860163ffffffff168452909152902054600160201b90046001600160601b03165b905060006111538285604051806060016040528060298152602001611b7660299139610da0565b905061116186848484611210565b5050505b6001600160a01b03821615610fb3576001600160a01b03821660009081526007602052604081205463ffffffff1690816111a05760006111df565b6001600160a01b0384166000908152600660209081526040808320600019860163ffffffff168452909152902054600160201b90046001600160601b03165b905060006112068285604051806060016040528060288152602001611a5b60289139611046565b9050610c61858484845b600061123443604051806060016040528060358152602001611b9f603591396113c5565b905060008463ffffffff1611801561127d57506001600160a01b038516600090815260066020908152604080832063ffffffff6000198901811685529252909120548282169116145b156112dc576001600160a01b0385166000908152600660209081526040808320600019880163ffffffff168452909152902080546fffffffffffffffffffffffff000000001916600160201b6001600160601b0385160217905561137b565b60408051808201825263ffffffff80841682526001600160601b0380861660208085019182526001600160a01b038b166000818152600683528781208c871682528352878120965187549451909516600160201b026fffffffffffffffffffffffff000000001995871663ffffffff19958616179590951694909417909555938252600790935292909220805460018801909316929091169190911790555b846001600160a01b03167fdec2bacdd2f05b59de34da9b523dff8be42e5e38e818c82fdb0bae774387a72484846040516113b6929190611a2b565b60405180910390a25050505050565b600081600160201b8410610d985760405162461bcd60e51b81526004016106549190611651565b604080518082019091526000808252602082015290565b80356001600160a01b038116811461043f57600080fd5b60006020828403121561142b578081fd5b610a448383611403565b60008060408385031215611447578081fd5b6114518484611403565b91506114608460208501611403565b90509250929050565b60008060006060848603121561147d578081fd5b833561148881611a45565b9250602084013561149881611a45565b929592945050506040919091013590565b600080604083850312156114bb578182fd5b6114c58484611403565b946020939093013593505050565b60008060008060008060c087890312156114eb578182fd5b6114f58888611403565b95506020870135945060408701359350606087013560ff81168114611518578283fd5b9598949750929560808101359460a0909101359350915050565b60008060408385031215611544578182fd5b61154e8484611403565b9150602083013563ffffffff81168114611566578182fd5b809150509250929050565b60008060408385031215611583578182fd5b61158d8484611403565b915060208301356001600160601b0381168114611566578182fd5b61190160f01b81526002810192909252602282015260420190565b6001600160a01b0391909116815260200190565b901515815260200190565b90815260200190565b9384526001600160a01b039290921660208401526040830152606082015260800190565b938452602084019290925260408301526001600160a01b0316606082015260800190565b93845260ff9290921660208401526040830152606082015260800190565b6000602080835283518082850152825b8181101561167d57858101830151858201604001528201611661565b8181111561168e5783604083870101525b50601f01601f1916929092016040019392505050565b60208082526029908201527f64434c4d383a3a5f6275726e3a206275726e20616d6f756e7420657863656564604082015268732062616c616e636560b81b606082015260800190565b60208082526030908201527f64434c4d3a3a736574476f7665726e6f723a20676f7665726e6f722063616e2060408201526f6f6e6c7920626520736574206f6e636560801b606082015260800190565b6020808252602a908201527f64434c4d383a3a736574476f7665726e6f723a206d75737420626520696e697460408201526934b0b6103437b63232b960b11b606082015260800190565b60208082526027908201527f64434c4d383a3a64656c656761746542795369673a20696e76616c6964207369604082015266676e617475726560c81b606082015260800190565b6020808252603b908201527f64434c4d383a3a5f7472616e73666572546f6b656e733a2063616e6e6f74207460408201527f72616e7366657220746f20746865207a65726f20616464726573730000000000606082015260800190565b60208082526028908201527f64434c4d383a3a6765745072696f72566f7465733a206e6f74207965742064656040820152671d195c9b5a5b995960c21b606082015260800190565b60208082526023908201527f64434c4d383a3a64656c656761746542795369673a20696e76616c6964206e6f6040820152626e636560e81b606082015260800190565b6020808252603d908201527f64434c4d383a3a5f7472616e73666572546f6b656e733a2063616e6e6f74207460408201527f72616e736665722066726f6d20746865207a65726f2061646472657373000000606082015260800190565b60208082526027908201527f64434c4d383a3a64656c656761746542795369673a207369676e617475726520604082015266195e1c1a5c995960ca1b606082015260800190565b6020808252601e908201527f64434c4d383a3a5f6275726e3a206d75737420626520676f7665726e6f720000604082015260600190565b60208082526028908201527f64434c4d383a3a5f6275726e3a206275726e2066726f6d20746865207a65726f604082015267206164647265737360c01b606082015260800190565b63ffffffff91909116815260200190565b63ffffffff9290921682526001600160601b0316602082015260400190565b60ff91909116815260200190565b6001600160601b0391909116815260200190565b6001600160601b0392831681529116602082015260400190565b6001600160a01b03811681146105ef57600080fdfe64434c4d383a3a5f6d6f7665566f7465733a20766f746520616d6f756e74206f766572666c6f777364434c4d383a3a5f7472616e73666572546f6b656e733a207472616e7366657220616d6f756e7420657863656564732062616c616e636564434c4d383a3a5f7472616e73666572546f6b656e733a207472616e7366657220616d6f756e74206f766572666c6f777364434c4d383a3a7472616e736665723a20616d6f756e742065786365656473203936206269747364434c4d383a3a7472616e7366657246726f6d3a207472616e7366657220616d6f756e742065786365656473207370656e64657220616c6c6f77616e636564434c4d383a3a617070726f76653a20616d6f756e742065786365656473203936206269747364434c4d383a3a5f6d6f7665566f7465733a20766f746520616d6f756e7420756e646572666c6f777364434c4d383a3a5f7772697465436865636b706f696e743a20626c6f636b206e756d62657220657863656564732033322062697473a2646970667358221220edee2084fa807746006b92bb48109b74d61bb21d709f2a72dc5e627327355d0064736f6c63430007000033",
  "linkReferences": {},
  "deployedLinkReferences": {}
}