{"abi":[{"type":"function","name":"enhancedRecords","inputs":[{"name":"","type":"uint256","internalType":"uint256"}],"outputs":[{"name":"id","type":"string","internalType":"string"},{"name":"fabricProductId","type":"string","internalType":"string"},{"name":"location","type":"string","internalType":"string"},{"name":"acreage","type":"uint256","internalType":"uint256"},{"name":"bambooCount","type":"uint256","internalType":"uint256"},{"name":"harvestTime","type":"uint256","internalType":"uint256"},{"name":"price","type":"uint256","internalType":"uint256"},{"name":"status","type":"string","internalType":"string"}],"stateMutability":"view"},{"type":"function","name":"getAllEnhancedRecords","inputs":[],"outputs":[{"name":"","type":"tuple[]","internalType":"struct BambooHarvestRepository.EnhancedBambooHarvest[]","components":[{"name":"id","type":"string","internalType":"string"},{"name":"fabricProductId","type":"string","internalType":"string"},{"name":"location","type":"string","internalType":"string"},{"name":"acreage","type":"uint256","internalType":"uint256"},{"name":"bambooCount","type":"uint256","internalType":"uint256"},{"name":"harvestTime","type":"uint256","internalType":"uint256"},{"name":"price","type":"uint256","internalType":"uint256"},{"name":"status","type":"string","internalType":"string"}]}],"stateMutability":"view"},{"type":"function","name":"getAllOrders","inputs":[],"outputs":[{"name":"","type":"tuple[]","internalType":"struct BambooHarvestRepository.Order[]","components":[{"name":"orderId","type":"string","internalType":"string"},{"name":"productId","type":"string","internalType":"string"},{"name":"buyer","type":"address","internalType":"address"},{"name":"amount","type":"uint256","internalType":"uint256"},{"name":"status","type":"string","internalType":"string"},{"name":"timestamp","type":"uint256","internalType":"uint256"}]}],"stateMutability":"view"},{"type":"function","name":"getAllRecords","inputs":[],"outputs":[{"name":"","type":"tuple[]","internalType":"struct SupplyChainAppDataModelLib.BambooHarvestEntity[]","components":[{"name":"id","type":"string","internalType":"string"},{"name":"location","type":"string","internalType":"string"},{"name":"startedAt","type":"string","internalType":"string"},{"name":"endedAt","type":"string","internalType":"string"},{"name":"harvester","type":"string","internalType":"string"}]}],"stateMutability":"view"},{"type":"function","name":"getOrder","inputs":[{"name":"orderId","type":"string","internalType":"string"}],"outputs":[{"name":"","type":"tuple","internalType":"struct BambooHarvestRepository.Order","components":[{"name":"orderId","type":"string","internalType":"string"},{"name":"productId","type":"string","internalType":"string"},{"name":"buyer","type":"address","internalType":"address"},{"name":"amount","type":"uint256","internalType":"uint256"},{"name":"status","type":"string","internalType":"string"},{"name":"timestamp","type":"uint256","internalType":"uint256"}]}],"stateMutability":"view"},{"type":"function","name":"getProduct","inputs":[{"name":"productId","type":"string","internalType":"string"}],"outputs":[{"name":"","type":"tuple","internalType":"struct BambooHarvestRepository.EnhancedBambooHarvest","components":[{"name":"id","type":"string","internalType":"string"},{"name":"fabricProductId","type":"string","internalType":"string"},{"name":"location","type":"string","internalType":"string"},{"name":"acreage","type":"uint256","internalType":"uint256"},{"name":"bambooCount","type":"uint256","internalType":"uint256"},{"name":"harvestTime","type":"uint256","internalType":"uint256"},{"name":"price","type":"uint256","internalType":"uint256"},{"name":"status","type":"string","internalType":"string"}]}],"stateMutability":"view"},{"type":"function","name":"insertEnhancedRecord","inputs":[{"name":"id","type":"string","internalType":"string"},{"name":"fabricProductId","type":"string","internalType":"string"},{"name":"location","type":"string","internalType":"string"},{"name":"acreage","type":"uint256","internalType":"uint256"},{"name":"bambooCount","type":"uint256","internalType":"uint256"},{"name":"harvestTime","type":"uint256","internalType":"uint256"},{"name":"price","type":"uint256","internalType":"uint256"}],"outputs":[{"name":"","type":"string","internalType":"string"}],"stateMutability":"nonpayable"},{"type":"function","name":"insertRecord","inputs":[{"name":"record","type":"tuple","internalType":"struct SupplyChainAppDataModelLib.BambooHarvestEntity","components":[{"name":"id","type":"string","internalType":"string"},{"name":"location","type":"string","internalType":"string"},{"name":"startedAt","type":"string","internalType":"string"},{"name":"endedAt","type":"string","internalType":"string"},{"name":"harvester","type":"string","internalType":"string"}]}],"outputs":[{"name":"success","type":"bool","internalType":"bool"}],"stateMutability":"nonpayable"},{"type":"function","name":"orderIds","inputs":[{"name":"","type":"uint256","internalType":"uint256"}],"outputs":[{"name":"","type":"string","internalType":"string"}],"stateMutability":"view"},{"type":"function","name":"orders","inputs":[{"name":"","type":"string","internalType":"string"}],"outputs":[{"name":"orderId","type":"string","internalType":"string"},{"name":"productId","type":"string","internalType":"string"},{"name":"buyer","type":"address","internalType":"address"},{"name":"amount","type":"uint256","internalType":"uint256"},{"name":"status","type":"string","internalType":"string"},{"name":"timestamp","type":"uint256","internalType":"uint256"}],"stateMutability":"view"},{"type":"function","name":"placeOrder","inputs":[{"name":"productId","type":"string","internalType":"string"}],"outputs":[{"name":"","type":"string","internalType":"string"}],"stateMutability":"payable"},{"type":"function","name":"updateOrderStatus","inputs":[{"name":"orderId","type":"string","internalType":"string"},{"name":"status","type":"string","internalType":"string"}],"outputs":[],"stateMutability":"nonpayable"}],"bytecode":{"object":"0x608060405234801561001057600080fd5b50612675806100206000396000f3fe6080604052600436106100a75760003560e01c806368111cce1161006457806368111cce14610199578063712ca0f8146101c65780637bea0d1c146101f3578063a7f9fe7214610215578063edfa77d014610237578063f2fae9cc1461025957600080fd5b80630e5dbeca146100ac5780631a948947146100e25780632372208414610114578063317ffe39146101345780633abae2be14610164578063453217f814610186575b600080fd5b3480156100b857600080fd5b506100cc6100c7366004611d76565b61028d565b6040516100d99190611e73565b60405180910390f35b3480156100ee57600080fd5b506101026100fd366004611e8d565b6103aa565b6040516100d996959493929190611eca565b34801561012057600080fd5b506100cc61012f366004611f2d565b61058f565b34801561014057600080fd5b5061015461014f366004611f46565b61063b565b60405190151581526020016100d9565b34801561017057600080fd5b506101796106dd565b6040516100d991906120d8565b6100cc610194366004611e8d565b6109ad565b3480156101a557600080fd5b506101b96101b4366004611e8d565b610d48565b6040516100d9919061213a565b3480156101d257600080fd5b506101e66101e1366004611e8d565b6110d7565b6040516100d991906121c8565b3480156101ff57600080fd5b5061020861135d565b6040516100d991906121db565b34801561022157600080fd5b5061022a611623565b6040516100d99190612230565b34801561024357600080fd5b50610257610252366004612307565b611953565b005b34801561026557600080fd5b50610279610274366004611f2d565b6119f3565b6040516100d998979695949392919061236b565b6040805161010081018252888152602080820189905281830188905260608281018890526080830187905260a0830186905260c0830185905283518085019094526009845268415641494c41424c4560b81b9184019190915260e0820192909252600180548082018255600091909152815182916008027fb10e2d527612073b26eecdfd717e6a320cf44b4afac2b0732d9fcbe2b7fa0cf6019081906103339082612464565b50602082015160018201906103489082612464565b506040820151600282019061035d9082612464565b50606082015160038201556080820151600482015560a0820151600582015560c0820151600682015560e0820151600782019061039a9082612464565b50999a9950505050505050505050565b80516020818301810180516002825292820191909301209152805481906103d0906123e2565b80601f01602080910402602001604051908101604052809291908181526020018280546103fc906123e2565b80156104495780601f1061041e57610100808354040283529160200191610449565b820191906000526020600020905b81548152906001019060200180831161042c57829003601f168201915b50505050509080600101805461045e906123e2565b80601f016020809104026020016040519081016040528092919081815260200182805461048a906123e2565b80156104d75780601f106104ac576101008083540402835291602001916104d7565b820191906000526020600020905b8154815290600101906020018083116104ba57829003601f168201915b505050506002830154600384015460048501805494956001600160a01b039093169491935090610506906123e2565b80601f0160208091040260200160405190810160405280929190818152602001828054610532906123e2565b801561057f5780601f106105545761010080835404028352916020019161057f565b820191906000526020600020905b81548152906001019060200180831161056257829003601f168201915b5050505050908060050154905086565b6003818154811061059f57600080fd5b9060005260206000200160009150905080546105ba906123e2565b80601f01602080910402602001604051908101604052809291908181526020018280546105e6906123e2565b80156106335780601f1061060857610100808354040283529160200191610633565b820191906000526020600020905b81548152906001019060200180831161061657829003601f168201915b505050505081565b60008054600181018255818052825183916005027f290decd9548b62a8d60345a988386fc84ba6bc95484008f6362f93160ef3e5630190819061067e9082612464565b50602082015160018201906106939082612464565b50604082015160028201906106a89082612464565b50606082015160038201906106bd9082612464565b50608082015160048201906106d29082612464565b506001949350505050565b60606001805480602002602001604051908101604052809291908181526020016000905b828210156109a4578382906000526020600020906008020160405180610100016040529081600082018054610735906123e2565b80601f0160208091040260200160405190810160405280929190818152602001828054610761906123e2565b80156107ae5780601f10610783576101008083540402835291602001916107ae565b820191906000526020600020905b81548152906001019060200180831161079157829003601f168201915b505050505081526020016001820180546107c7906123e2565b80601f01602080910402602001604051908101604052809291908181526020018280546107f3906123e2565b80156108405780601f1061081557610100808354040283529160200191610840565b820191906000526020600020905b81548152906001019060200180831161082357829003601f168201915b50505050508152602001600282018054610859906123e2565b80601f0160208091040260200160405190810160405280929190818152602001828054610885906123e2565b80156108d25780601f106108a7576101008083540402835291602001916108d2565b820191906000526020600020905b8154815290600101906020018083116108b557829003601f168201915b5050505050815260200160038201548152602001600482015481526020016005820154815260200160068201548152602001600782018054610913906123e2565b80601f016020809104026020016040519081016040528092919081815260200182805461093f906123e2565b801561098c5780601f106109615761010080835404028352916020019161098c565b820191906000526020600020905b81548152906001019060200180831161096f57829003601f168201915b50505050508152505081526020019060010190610701565b50505050905090565b6060600080805b600154811015610b55578480519060200120600182815481106109d9576109d9612524565b90600052602060002090600802016000016040516109f791906125ad565b604051809103902003610b4357604080518082019091526009815268415641494c41424c4560b81b602090910152600180547f5c7033c35df73bffb383718c231ed61a38b5a1899467d83e34142c6a420424da919083908110610a5c57610a5c612524565b9060005260206000209060080201600701604051610a7a91906125ad565b604051809103902014610acc5760405162461bcd60e51b815260206004820152601560248201527450726f64756374206e6f7420617661696c61626c6560581b60448201526064015b60405180910390fd5b60018181548110610adf57610adf612524565b906000526020600020906008020160060154341015610b375760405162461bcd60e51b8152602060048201526014602482015273125b9cdd59999a58da595b9d081c185e5b595b9d60621b6044820152606401610ac3565b60019250809150610b55565b80610b4d816125cf565b9150506109b4565b5081610b975760405162461bcd60e51b8152602060048201526011602482015270141c9bd91d58dd081b9bdd08199bdd5b99607a1b6044820152606401610ac3565b6000612710610ba76001436125e8565b610bb2919040612601565b604051654f524445522d60d01b6020820152602681019190915260460160408051601f1981840301815260c083018252808352602083810189905233848401523460608501528251808401845260048152631410525160e21b9181019190915260808401524260a08401529051909250600290610c30908490612623565b90815260405190819003602001902081518190610c4d9082612464565b5060208201516001820190610c629082612464565b5060408201516002820180546001600160a01b0319166001600160a01b039092169190911790556060820151600382015560808201516004820190610ca79082612464565b5060a082015181600501559050506040518060400160405280600481526020016314d3d31160e21b81525060018381548110610ce557610ce5612524565b90600052602060002090600802016007019081610d029190612464565b50600380546001810182556000919091527fc2575a0e9e593c00f959f8c92f12db2869c3395a3b0502d05e2516446f71f85b01610d3f8282612464565b50949350505050565b610d9060405180610100016040528060608152602001606081526020016060815260200160008152602001600081526020016000815260200160008152602001606081525090565b60005b60015481101561109a57828051906020012060018281548110610db857610db8612524565b9060005260206000209060080201600001604051610dd691906125ad565b6040518091039020036110885760018181548110610df657610df6612524565b906000526020600020906008020160405180610100016040529081600082018054610e20906123e2565b80601f0160208091040260200160405190810160405280929190818152602001828054610e4c906123e2565b8015610e995780601f10610e6e57610100808354040283529160200191610e99565b820191906000526020600020905b815481529060010190602001808311610e7c57829003601f168201915b50505050508152602001600182018054610eb2906123e2565b80601f0160208091040260200160405190810160405280929190818152602001828054610ede906123e2565b8015610f2b5780601f10610f0057610100808354040283529160200191610f2b565b820191906000526020600020905b815481529060010190602001808311610f0e57829003601f168201915b50505050508152602001600282018054610f44906123e2565b80601f0160208091040260200160405190810160405280929190818152602001828054610f70906123e2565b8015610fbd5780601f10610f9257610100808354040283529160200191610fbd565b820191906000526020600020905b815481529060010190602001808311610fa057829003601f168201915b5050505050815260200160038201548152602001600482015481526020016005820154815260200160068201548152602001600782018054610ffe906123e2565b80601f016020809104026020016040519081016040528092919081815260200182805461102a906123e2565b80156110775780601f1061104c57610100808354040283529160200191611077565b820191906000526020600020905b81548152906001019060200180831161105a57829003601f168201915b505050505081525050915050919050565b80611092816125cf565b915050610d93565b5060405162461bcd60e51b8152602060048201526011602482015270141c9bd91d58dd081b9bdd08199bdd5b99607a1b6044820152606401610ac3565b6110df611c6b565b6002826040516110ef9190612623565b9081526040519081900360200190208054611109906123e2565b905060000361114c5760405162461bcd60e51b815260206004820152600f60248201526e13dc99195c881b9bdd08199bdd5b99608a1b6044820152606401610ac3565b60028260405161115c9190612623565b90815260200160405180910390206040518060c0016040529081600082018054611185906123e2565b80601f01602080910402602001604051908101604052809291908181526020018280546111b1906123e2565b80156111fe5780601f106111d3576101008083540402835291602001916111fe565b820191906000526020600020905b8154815290600101906020018083116111e157829003601f168201915b50505050508152602001600182018054611217906123e2565b80601f0160208091040260200160405190810160405280929190818152602001828054611243906123e2565b80156112905780601f1061126557610100808354040283529160200191611290565b820191906000526020600020905b81548152906001019060200180831161127357829003601f168201915b505050918352505060028201546001600160a01b03166020820152600382015460408201526004820180546060909201916112ca906123e2565b80601f01602080910402602001604051908101604052809291908181526020018280546112f6906123e2565b80156113435780601f1061131857610100808354040283529160200191611343565b820191906000526020600020905b81548152906001019060200180831161132657829003601f168201915b505050505081526020016005820154815250509050919050565b60035460609060009067ffffffffffffffff81111561137e5761137e611caa565b6040519080825280602002602001820160405280156113b757816020015b6113a4611c6b565b81526020019060019003908161139c5790505b50905060005b60035481101561161d576002600382815481106113dc576113dc612524565b906000526020600020016040516113f391906125ad565b90815260200160405180910390206040518060c001604052908160008201805461141c906123e2565b80601f0160208091040260200160405190810160405280929190818152602001828054611448906123e2565b80156114955780601f1061146a57610100808354040283529160200191611495565b820191906000526020600020905b81548152906001019060200180831161147857829003601f168201915b505050505081526020016001820180546114ae906123e2565b80601f01602080910402602001604051908101604052809291908181526020018280546114da906123e2565b80156115275780601f106114fc57610100808354040283529160200191611527565b820191906000526020600020905b81548152906001019060200180831161150a57829003601f168201915b505050918352505060028201546001600160a01b0316602082015260038201546040820152600482018054606090920191611561906123e2565b80601f016020809104026020016040519081016040528092919081815260200182805461158d906123e2565b80156115da5780601f106115af576101008083540402835291602001916115da565b820191906000526020600020905b8154815290600101906020018083116115bd57829003601f168201915b505050505081526020016005820154815250508282815181106115ff576115ff612524565b60200260200101819052508080611615906125cf565b9150506113bd565b50919050565b60606000805480602002602001604051908101604052809291908181526020016000905b828210156109a457838290600052602060002090600502016040518060a001604052908160008201805461167a906123e2565b80601f01602080910402602001604051908101604052809291908181526020018280546116a6906123e2565b80156116f35780601f106116c8576101008083540402835291602001916116f3565b820191906000526020600020905b8154815290600101906020018083116116d657829003601f168201915b5050505050815260200160018201805461170c906123e2565b80601f0160208091040260200160405190810160405280929190818152602001828054611738906123e2565b80156117855780601f1061175a57610100808354040283529160200191611785565b820191906000526020600020905b81548152906001019060200180831161176857829003601f168201915b5050505050815260200160028201805461179e906123e2565b80601f01602080910402602001604051908101604052809291908181526020018280546117ca906123e2565b80156118175780601f106117ec57610100808354040283529160200191611817565b820191906000526020600020905b8154815290600101906020018083116117fa57829003601f168201915b50505050508152602001600382018054611830906123e2565b80601f016020809104026020016040519081016040528092919081815260200182805461185c906123e2565b80156118a95780601f1061187e576101008083540402835291602001916118a9565b820191906000526020600020905b81548152906001019060200180831161188c57829003601f168201915b505050505081526020016004820180546118c2906123e2565b80601f01602080910402602001604051908101604052809291908181526020018280546118ee906123e2565b801561193b5780601f106119105761010080835404028352916020019161193b565b820191906000526020600020905b81548152906001019060200180831161191e57829003601f168201915b50505050508152505081526020019060010190611647565b6002826040516119639190612623565b908152604051908190036020019020805461197d906123e2565b90506000036119c05760405162461bcd60e51b815260206004820152600f60248201526e13dc99195c881b9bdd08199bdd5b99608a1b6044820152606401610ac3565b806002836040516119d19190612623565b908152602001604051809103902060040190816119ee9190612464565b505050565b60018181548110611a0357600080fd5b9060005260206000209060080201600091509050806000018054611a26906123e2565b80601f0160208091040260200160405190810160405280929190818152602001828054611a52906123e2565b8015611a9f5780601f10611a7457610100808354040283529160200191611a9f565b820191906000526020600020905b815481529060010190602001808311611a8257829003601f168201915b505050505090806001018054611ab4906123e2565b80601f0160208091040260200160405190810160405280929190818152602001828054611ae0906123e2565b8015611b2d5780601f10611b0257610100808354040283529160200191611b2d565b820191906000526020600020905b815481529060010190602001808311611b1057829003601f168201915b505050505090806002018054611b42906123e2565b80601f0160208091040260200160405190810160405280929190818152602001828054611b6e906123e2565b8015611bbb5780601f10611b9057610100808354040283529160200191611bbb565b820191906000526020600020905b815481529060010190602001808311611b9e57829003601f168201915b505050505090806003015490806004015490806005015490806006015490806007018054611be8906123e2565b80601f0160208091040260200160405190810160405280929190818152602001828054611c14906123e2565b8015611c615780601f10611c3657610100808354040283529160200191611c61565b820191906000526020600020905b815481529060010190602001808311611c4457829003601f168201915b5050505050905088565b6040518060c00160405280606081526020016060815260200160006001600160a01b031681526020016000815260200160608152602001600081525090565b634e487b7160e01b600052604160045260246000fd5b60405160a0810167ffffffffffffffff81118282101715611ce357611ce3611caa565b60405290565b600082601f830112611cfa57600080fd5b813567ffffffffffffffff80821115611d1557611d15611caa565b604051601f8301601f19908116603f01168101908282118183101715611d3d57611d3d611caa565b81604052838152866020858801011115611d5657600080fd5b836020870160208301376000602085830101528094505050505092915050565b600080600080600080600060e0888a031215611d9157600080fd5b873567ffffffffffffffff80821115611da957600080fd5b611db58b838c01611ce9565b985060208a0135915080821115611dcb57600080fd5b611dd78b838c01611ce9565b975060408a0135915080821115611ded57600080fd5b50611dfa8a828b01611ce9565b979a96995096976060810135975060808101359660a0820135965060c090910135945092505050565b60005b83811015611e3e578181015183820152602001611e26565b50506000910152565b60008151808452611e5f816020860160208601611e23565b601f01601f19169290920160200192915050565b602081526000611e866020830184611e47565b9392505050565b600060208284031215611e9f57600080fd5b813567ffffffffffffffff811115611eb657600080fd5b611ec284828501611ce9565b949350505050565b60c081526000611edd60c0830189611e47565b8281036020840152611eef8189611e47565b6001600160a01b03881660408501526060840187905283810360808501529050611f198186611e47565b9150508260a0830152979650505050505050565b600060208284031215611f3f57600080fd5b5035919050565b600060208284031215611f5857600080fd5b813567ffffffffffffffff80821115611f7057600080fd5b9083019060a08286031215611f8457600080fd5b611f8c611cc0565b823582811115611f9b57600080fd5b611fa787828601611ce9565b825250602083013582811115611fbc57600080fd5b611fc887828601611ce9565b602083015250604083013582811115611fe057600080fd5b611fec87828601611ce9565b60408301525060608301358281111561200457600080fd5b61201087828601611ce9565b60608301525060808301358281111561202857600080fd5b61203487828601611ce9565b60808301525095945050505050565b6000610100825181855261205982860182611e47565b915050602083015184820360208601526120738282611e47565b9150506040830151848203604086015261208d8282611e47565b915050606083015160608501526080830151608085015260a083015160a085015260c083015160c085015260e083015184820360e08601526120cf8282611e47565b95945050505050565b6000602080830181845280855180835260408601915060408160051b870101925083870160005b8281101561212d57603f1988860301845261211b858351612043565b945092850192908501906001016120ff565b5092979650505050505050565b602081526000611e866020830184612043565b6000815160c0845261216260c0850182611e47565b90506020830151848203602086015261217b8282611e47565b91505060018060a01b03604084015116604085015260608301516060850152608083015184820360808601526121b18282611e47565b91505060a083015160a08501528091505092915050565b602081526000611e86602083018461214d565b6000602080830181845280855180835260408601915060408160051b870101925083870160005b8281101561212d57603f1988860301845261221e85835161214d565b94509285019290850190600101612202565b60006020808301818452808551808352604092508286019150828160051b87010184880160005b838110156122f957603f19898403018552815160a0815181865261227d82870182611e47565b915050888201518582038a8701526122958282611e47565b91505087820151858203898701526122ad8282611e47565b915050606080830151868303828801526122c78382611e47565b92505050608080830151925085820381870152506122e58183611e47565b968901969450505090860190600101612257565b509098975050505050505050565b6000806040838503121561231a57600080fd5b823567ffffffffffffffff8082111561233257600080fd5b61233e86838701611ce9565b9350602085013591508082111561235457600080fd5b5061236185828601611ce9565b9150509250929050565b600061010080835261237f8184018c611e47565b90508281036020840152612393818b611e47565b905082810360408401526123a7818a611e47565b90508760608401528660808401528560a08401528460c084015282810360e08401526123d38185611e47565b9b9a5050505050505050505050565b600181811c908216806123f657607f821691505b60208210810361161d57634e487b7160e01b600052602260045260246000fd5b601f8211156119ee57600081815260208120601f850160051c8101602086101561243d5750805b601f850160051c820191505b8181101561245c57828155600101612449565b505050505050565b815167ffffffffffffffff81111561247e5761247e611caa565b6124928161248c84546123e2565b84612416565b602080601f8311600181146124c757600084156124af5750858301515b600019600386901b1c1916600185901b17855561245c565b600085815260208120601f198616915b828110156124f6578886015182559484019460019091019084016124d7565b50858210156125145787850151600019600388901b60f8161c191681555b5050505050600190811b01905550565b634e487b7160e01b600052603260045260246000fd5b60008154612547816123e2565b6001828116801561255f5760018114612574576125a3565b60ff19841687528215158302870194506125a3565b8560005260208060002060005b8581101561259a5781548a820152908401908201612581565b50505082870194505b5050505092915050565b6000611e86828461253a565b634e487b7160e01b600052601160045260246000fd5b6000600182016125e1576125e16125b9565b5060010190565b818103818111156125fb576125fb6125b9565b92915050565b60008261261e57634e487b7160e01b600052601260045260246000fd5b500690565b60008251612635818460208701611e23565b919091019291505056fea26469706673582212201b280c44cdc0c578d0e92c8121e2fc87f78f755056fc07d49b384149573f5c7464736f6c63430008130033","linkReferences":{}},"methodIdentifiers":{"enhancedRecords(uint256)":"f2fae9cc","getAllEnhancedRecords()":"3abae2be","getAllOrders()":"7bea0d1c","getAllRecords()":"a7f9fe72","getOrder(string)":"712ca0f8","getProduct(string)":"68111cce","insertEnhancedRecord(string,string,string,uint256,uint256,uint256,uint256)":"0e5dbeca","insertRecord((string,string,string,string,string))":"317ffe39","orderIds(uint256)":"23722084","orders(string)":"1a948947","placeOrder(string)":"453217f8","updateOrderStatus(string,string)":"edfa77d0"},"id":0}