{"abi":[{"type":"constructor","inputs":[],"stateMutability":"nonpayable"},{"type":"function","name":"DEFAULT_ADMIN_ROLE","inputs":[],"outputs":[{"name":"","type":"bytes32","internalType":"bytes32"}],"stateMutability":"view"},{"type":"function","name":"ORACLE_ROLE","inputs":[],"outputs":[{"name":"","type":"bytes32","internalType":"bytes32"}],"stateMutability":"view"},{"type":"function","name":"getData","inputs":[{"name":"id","type":"bytes32","internalType":"bytes32"}],"outputs":[{"name":"","type":"string","internalType":"string"}],"stateMutability":"view"},{"type":"function","name":"getNonce","inputs":[],"outputs":[{"name":"","type":"uint256","internalType":"uint256"}],"stateMutability":"view"},{"type":"function","name":"getRoleAdmin","inputs":[{"name":"role","type":"bytes32","internalType":"bytes32"}],"outputs":[{"name":"","type":"bytes32","internalType":"bytes32"}],"stateMutability":"view"},{"type":"function","name":"grantRole","inputs":[{"name":"role","type":"bytes32","internalType":"bytes32"},{"name":"account","type":"address","internalType":"address"}],"outputs":[],"stateMutability":"nonpayable"},{"type":"function","name":"hasRole","inputs":[{"name":"role","type":"bytes32","internalType":"bytes32"},{"name":"account","type":"address","internalType":"address"}],"outputs":[{"name":"","type":"bool","internalType":"bool"}],"stateMutability":"view"},{"type":"function","name":"renounceRole","inputs":[{"name":"role","type":"bytes32","internalType":"bytes32"},{"name":"callerConfirmation","type":"address","internalType":"address"}],"outputs":[],"stateMutability":"nonpayable"},{"type":"function","name":"revokeRole","inputs":[{"name":"role","type":"bytes32","internalType":"bytes32"},{"name":"account","type":"address","internalType":"address"}],"outputs":[],"stateMutability":"nonpayable"},{"type":"function","name":"setData","inputs":[{"name":"data","type":"string","internalType":"string"}],"outputs":[],"stateMutability":"nonpayable"},{"type":"function","name":"supportsInterface","inputs":[{"name":"interfaceId","type":"bytes4","internalType":"bytes4"}],"outputs":[{"name":"","type":"bool","internalType":"bool"}],"stateMutability":"view"},{"type":"event","name":"RoleAdminChanged","inputs":[{"name":"role","type":"bytes32","indexed":true,"internalType":"bytes32"},{"name":"previousAdminRole","type":"bytes32","indexed":true,"internalType":"bytes32"},{"name":"newAdminRole","type":"bytes32","indexed":true,"internalType":"bytes32"}],"anonymous":false},{"type":"event","name":"RoleGranted","inputs":[{"name":"role","type":"bytes32","indexed":true,"internalType":"bytes32"},{"name":"account","type":"address","indexed":true,"internalType":"address"},{"name":"sender","type":"address","indexed":true,"internalType":"address"}],"anonymous":false},{"type":"event","name":"RoleRevoked","inputs":[{"name":"role","type":"bytes32","indexed":true,"internalType":"bytes32"},{"name":"account","type":"address","indexed":true,"internalType":"address"},{"name":"sender","type":"address","indexed":true,"internalType":"address"}],"anonymous":false},{"type":"event","name":"UpdatedData","inputs":[{"name":"id","type":"bytes32","indexed":false,"internalType":"bytes32"},{"name":"data","type":"string","indexed":false,"internalType":"string"},{"name":"nonce","type":"uint256","indexed":false,"internalType":"uint256"}],"anonymous":false},{"type":"error","name":"AccessControlBadConfirmation","inputs":[]},{"type":"error","name":"AccessControlUnauthorizedAccount","inputs":[{"name":"account","type":"address","internalType":"address"},{"name":"neededRole","type":"bytes32","internalType":"bytes32"}]}],"bytecode":{"object":"0x6080604052600060025534801561001557600080fd5b50610021600033610052565b5061004c7f68e79a7bf1e0bc45d0a330c573bc367f9cf464fd326078812f301165fbda4ef133610052565b506100fe565b6000828152602081815260408083206001600160a01b038516845290915281205460ff166100f4576000838152602081815260408083206001600160a01b03861684529091529020805460ff191660011790556100ac3390565b6001600160a01b0316826001600160a01b0316847f2f8788117e7eff1d82e926ec794901d17c78024a50270940304540a733656f0d60405160405180910390a45060016100f8565b5060005b92915050565b610ad28061010d6000396000f3fe608060405234801561001057600080fd5b50600436106100c95760003560e01c806347064d6a11610081578063a217fddf1161005b578063a217fddf146101e0578063d087d288146101e8578063d547741f146101f057600080fd5b806347064d6a1461017657806354f6127f1461018957806391d14854146101a957600080fd5b8063248a9ca3116100b2578063248a9ca31461012b5780632f2ff15d1461014e57806336568abe1461016357600080fd5b806301ffc9a7146100ce57806307e2cea5146100f6575b600080fd5b6100e16100dc366004610720565b610203565b60405190151581526020015b60405180910390f35b61011d7f68e79a7bf1e0bc45d0a330c573bc367f9cf464fd326078812f301165fbda4ef181565b6040519081526020016100ed565b61011d610139366004610769565b60009081526020819052604090206001015490565b61016161015c366004610782565b61029c565b005b610161610171366004610782565b6102c7565b6101616101843660046107d4565b610318565b61019c610197366004610769565b6103ef565b6040516100ed91906108d5565b6100e16101b7366004610782565b6000918252602082815260408084206001600160a01b0393909316845291905290205460ff1690565b61011d600081565b60025461011d565b6101616101fe366004610782565b61050f565b60007fffffffff0000000000000000000000000000000000000000000000000000000082167f7965db0b00000000000000000000000000000000000000000000000000000000148061029657507f01ffc9a7000000000000000000000000000000000000000000000000000000007fffffffff000000000000000000000000000000000000000000000000000000008316145b92915050565b6000828152602081905260409020600101546102b781610534565b6102c18383610541565b50505050565b6001600160a01b0381163314610309576040517f6697b23200000000000000000000000000000000000000000000000000000000815260040160405180910390fd5b61031382826105eb565b505050565b7f68e79a7bf1e0bc45d0a330c573bc367f9cf464fd326078812f301165fbda4ef161034281610534565b60008260405160200161035591906108e8565b60408051601f1981840301815282825280516020918201208383018352808452838201878152600082815260019384905293909320845181559251909450908201906103a1908261098c565b509050506103ad61066e565b7f5b3a25e3ed3193b2faaddbd057f69843f115c62a4cd660ef6e67bb5397e111bf81846002546040516103e293929190610a4c565b60405180910390a1505050565b6000818152600160205260408120546060910361046d576040517f08c379a000000000000000000000000000000000000000000000000000000000815260206004820152600e60248201527f44617461206e6f7420666f756e6400000000000000000000000000000000000060448201526064015b60405180910390fd5b600082815260016020819052604090912001805461048a90610904565b80601f01602080910402602001604051908101604052809291908181526020018280546104b690610904565b80156105035780601f106104d857610100808354040283529160200191610503565b820191906000526020600020905b8154815290600101906020018083116104e657829003601f168201915b50505050509050919050565b60008281526020819052604090206001015461052a81610534565b6102c183836105eb565b61053e81336106b0565b50565b6000828152602081815260408083206001600160a01b038516845290915281205460ff166105e3576000838152602081815260408083206001600160a01b03861684529091529020805460ff1916600117905561059b3390565b6001600160a01b0316826001600160a01b0316847f2f8788117e7eff1d82e926ec794901d17c78024a50270940304540a733656f0d60405160405180910390a4506001610296565b506000610296565b6000828152602081815260408083206001600160a01b038516845290915281205460ff16156105e3576000838152602081815260408083206001600160a01b0386168085529252808320805460ff1916905551339286917ff6391f5c32d9c69d2a47ea670b442974b53935d1edc7fd64eb21e047a839171b9190a4506001610296565b7f68e79a7bf1e0bc45d0a330c573bc367f9cf464fd326078812f301165fbda4ef161069881610534565b600280549060006106a883610a75565b919050555050565b6000828152602081815260408083206001600160a01b038516845290915290205460ff1661071c576040517fe2517d3f0000000000000000000000000000000000000000000000000000000081526001600160a01b038216600482015260248101839052604401610464565b5050565b60006020828403121561073257600080fd5b81357fffffffff000000000000000000000000000000000000000000000000000000008116811461076257600080fd5b9392505050565b60006020828403121561077b57600080fd5b5035919050565b6000806040838503121561079557600080fd5b8235915060208301356001600160a01b03811681146107b357600080fd5b809150509250929050565b634e487b7160e01b600052604160045260246000fd5b6000602082840312156107e657600080fd5b813567ffffffffffffffff808211156107fe57600080fd5b818401915084601f83011261081257600080fd5b813581811115610824576108246107be565b604051601f8201601f19908116603f0116810190838211818310171561084c5761084c6107be565b8160405282815287602084870101111561086557600080fd5b826020860160208301376000928101602001929092525095945050505050565b60005b838110156108a0578181015183820152602001610888565b50506000910152565b600081518084526108c1816020860160208601610885565b601f01601f19169290920160200192915050565b60208152600061076260208301846108a9565b600082516108fa818460208701610885565b9190910192915050565b600181811c9082168061091857607f821691505b60208210810361093857634e487b7160e01b600052602260045260246000fd5b50919050565b601f82111561031357600081815260208120601f850160051c810160208610156109655750805b601f850160051c820191505b8181101561098457828155600101610971565b505050505050565b815167ffffffffffffffff8111156109a6576109a66107be565b6109ba816109b48454610904565b8461093e565b602080601f8311600181146109ef57600084156109d75750858301515b600019600386901b1c1916600185901b178555610984565b600085815260208120601f198616915b82811015610a1e578886015182559484019460019091019084016109ff565b5085821015610a3c5787850151600019600388901b60f8161c191681555b5050505050600190811b01905550565b838152606060208201526000610a6560608301856108a9565b9050826040830152949350505050565b600060018201610a9557634e487b7160e01b600052601160045260246000fd5b506001019056fea26469706673582212201e4465e4522c62caa54368e3ea6d4d76bb0922c24e6d32d041ff75cdf7b06a8864736f6c63430008140033","linkReferences":{}},"methodIdentifiers":{"DEFAULT_ADMIN_ROLE()":"a217fddf","ORACLE_ROLE()":"07e2cea5","getData(bytes32)":"54f6127f","getNonce()":"d087d288","getRoleAdmin(bytes32)":"248a9ca3","grantRole(bytes32,address)":"2f2ff15d","hasRole(bytes32,address)":"91d14854","renounceRole(bytes32,address)":"36568abe","revokeRole(bytes32,address)":"d547741f","setData(string)":"47064d6a","supportsInterface(bytes4)":"01ffc9a7"},"id":18}