{"abi":[{"type":"constructor","inputs":[{"name":"_owner","type":"address","internalType":"address"}],"stateMutability":"nonpayable"},{"type":"function","name":"BRIDGE_ROLE","inputs":[],"outputs":[{"name":"","type":"bytes32","internalType":"bytes32"}],"stateMutability":"view"},{"type":"function","name":"DEFAULT_ADMIN_ROLE","inputs":[],"outputs":[{"name":"","type":"bytes32","internalType":"bytes32"}],"stateMutability":"view"},{"type":"function","name":"OWNER_ROLE","inputs":[],"outputs":[{"name":"","type":"bytes32","internalType":"bytes32"}],"stateMutability":"view"},{"type":"function","name":"approve","inputs":[{"name":"to","type":"address","internalType":"address"},{"name":"tokenId","type":"uint256","internalType":"uint256"}],"outputs":[],"stateMutability":"nonpayable"},{"type":"function","name":"assign","inputs":[{"name":"to","type":"address","internalType":"address"},{"name":"uniqueDescriptor","type":"uint256","internalType":"uint256"}],"outputs":[{"name":"success","type":"bool","internalType":"bool"}],"stateMutability":"nonpayable"},{"type":"function","name":"balanceOf","inputs":[{"name":"owner","type":"address","internalType":"address"}],"outputs":[{"name":"","type":"uint256","internalType":"uint256"}],"stateMutability":"view"},{"type":"function","name":"burn","inputs":[{"name":"uniqueDescriptor","type":"uint256","internalType":"uint256"}],"outputs":[{"name":"success","type":"bool","internalType":"bool"}],"stateMutability":"nonpayable"},{"type":"function","name":"getApproved","inputs":[{"name":"tokenId","type":"uint256","internalType":"uint256"}],"outputs":[{"name":"","type":"address","internalType":"address"}],"stateMutability":"view"},{"type":"function","name":"getRoleAdmin","inputs":[{"name":"role","type":"bytes32","internalType":"bytes32"}],"outputs":[{"name":"","type":"bytes32","internalType":"bytes32"}],"stateMutability":"view"},{"type":"function","name":"grantBridgeRole","inputs":[{"name":"account","type":"address","internalType":"address"}],"outputs":[{"name":"success","type":"bool","internalType":"bool"}],"stateMutability":"nonpayable"},{"type":"function","name":"grantRole","inputs":[{"name":"role","type":"bytes32","internalType":"bytes32"},{"name":"account","type":"address","internalType":"address"}],"outputs":[],"stateMutability":"nonpayable"},{"type":"function","name":"hasBridgeRole","inputs":[{"name":"account","type":"address","internalType":"address"}],"outputs":[{"name":"success","type":"bool","internalType":"bool"}],"stateMutability":"view"},{"type":"function","name":"hasPermission","inputs":[{"name":"account","type":"address","internalType":"address"},{"name":"uniqueDescriptor","type":"uint256","internalType":"uint256"}],"outputs":[{"name":"success","type":"bool","internalType":"bool"}],"stateMutability":"view"},{"type":"function","name":"hasRole","inputs":[{"name":"role","type":"bytes32","internalType":"bytes32"},{"name":"account","type":"address","internalType":"address"}],"outputs":[{"name":"","type":"bool","internalType":"bool"}],"stateMutability":"view"},{"type":"function","name":"isApproved","inputs":[{"name":"account","type":"address","internalType":"address"},{"name":"uniqueDescriptor","type":"uint256","internalType":"uint256"}],"outputs":[{"name":"success","type":"bool","internalType":"bool"}],"stateMutability":"view"},{"type":"function","name":"isApprovedForAll","inputs":[{"name":"owner","type":"address","internalType":"address"},{"name":"operator","type":"address","internalType":"address"}],"outputs":[{"name":"","type":"bool","internalType":"bool"}],"stateMutability":"view"},{"type":"function","name":"lock","inputs":[{"name":"from","type":"address","internalType":"address"},{"name":"to","type":"address","internalType":"address"},{"name":"uniqueDescriptor","type":"uint256","internalType":"uint256"}],"outputs":[{"name":"success","type":"bool","internalType":"bool"}],"stateMutability":"nonpayable"},{"type":"function","name":"mint","inputs":[{"name":"account","type":"address","internalType":"address"},{"name":"uniqueDescriptor","type":"uint256","internalType":"uint256"}],"outputs":[{"name":"success","type":"bool","internalType":"bool"}],"stateMutability":"nonpayable"},{"type":"function","name":"name","inputs":[],"outputs":[{"name":"","type":"string","internalType":"string"}],"stateMutability":"view"},{"type":"function","name":"obtainBalance","inputs":[{"name":"account","type":"address","internalType":"address"}],"outputs":[{"name":"balance","type":"uint256","internalType":"uint256"}],"stateMutability":"view"},{"type":"function","name":"onERC721Received","inputs":[{"name":"","type":"address","internalType":"address"},{"name":"","type":"address","internalType":"address"},{"name":"","type":"uint256","internalType":"uint256"},{"name":"","type":"bytes","internalType":"bytes"}],"outputs":[{"name":"","type":"bytes4","internalType":"bytes4"}],"stateMutability":"pure"},{"type":"function","name":"ownerOf","inputs":[{"name":"tokenId","type":"uint256","internalType":"uint256"}],"outputs":[{"name":"","type":"address","internalType":"address"}],"stateMutability":"view"},{"type":"function","name":"renounceRole","inputs":[{"name":"role","type":"bytes32","internalType":"bytes32"},{"name":"callerConfirmation","type":"address","internalType":"address"}],"outputs":[],"stateMutability":"nonpayable"},{"type":"function","name":"revokeRole","inputs":[{"name":"role","type":"bytes32","internalType":"bytes32"},{"name":"account","type":"address","internalType":"address"}],"outputs":[],"stateMutability":"nonpayable"},{"type":"function","name":"safeTransferFrom","inputs":[{"name":"from","type":"address","internalType":"address"},{"name":"to","type":"address","internalType":"address"},{"name":"tokenId","type":"uint256","internalType":"uint256"}],"outputs":[],"stateMutability":"nonpayable"},{"type":"function","name":"safeTransferFrom","inputs":[{"name":"from","type":"address","internalType":"address"},{"name":"to","type":"address","internalType":"address"},{"name":"tokenId","type":"uint256","internalType":"uint256"},{"name":"data","type":"bytes","internalType":"bytes"}],"outputs":[],"stateMutability":"nonpayable"},{"type":"function","name":"setApprovalForAll","inputs":[{"name":"operator","type":"address","internalType":"address"},{"name":"approved","type":"bool","internalType":"bool"}],"outputs":[],"stateMutability":"nonpayable"},{"type":"function","name":"supportsInterface","inputs":[{"name":"","type":"bytes4","internalType":"bytes4"}],"outputs":[{"name":"success","type":"bool","internalType":"bool"}],"stateMutability":"pure"},{"type":"function","name":"symbol","inputs":[],"outputs":[{"name":"","type":"string","internalType":"string"}],"stateMutability":"view"},{"type":"function","name":"tokenURI","inputs":[{"name":"tokenId","type":"uint256","internalType":"uint256"}],"outputs":[{"name":"","type":"string","internalType":"string"}],"stateMutability":"view"},{"type":"function","name":"transferFrom","inputs":[{"name":"from","type":"address","internalType":"address"},{"name":"to","type":"address","internalType":"address"},{"name":"tokenId","type":"uint256","internalType":"uint256"}],"outputs":[],"stateMutability":"nonpayable"},{"type":"function","name":"unlock","inputs":[{"name":"from","type":"address","internalType":"address"},{"name":"to","type":"address","internalType":"address"},{"name":"uniqueDescriptor","type":"uint256","internalType":"uint256"}],"outputs":[{"name":"success","type":"bool","internalType":"bool"}],"stateMutability":"nonpayable"},{"type":"event","name":"Approval","inputs":[{"name":"owner","type":"address","indexed":true,"internalType":"address"},{"name":"approved","type":"address","indexed":true,"internalType":"address"},{"name":"tokenId","type":"uint256","indexed":true,"internalType":"uint256"}],"anonymous":false},{"type":"event","name":"ApprovalForAll","inputs":[{"name":"owner","type":"address","indexed":true,"internalType":"address"},{"name":"operator","type":"address","indexed":true,"internalType":"address"},{"name":"approved","type":"bool","indexed":false,"internalType":"bool"}],"anonymous":false},{"type":"event","name":"RoleAdminChanged","inputs":[{"name":"role","type":"bytes32","indexed":true,"internalType":"bytes32"},{"name":"previousAdminRole","type":"bytes32","indexed":true,"internalType":"bytes32"},{"name":"newAdminRole","type":"bytes32","indexed":true,"internalType":"bytes32"}],"anonymous":false},{"type":"event","name":"RoleGranted","inputs":[{"name":"role","type":"bytes32","indexed":true,"internalType":"bytes32"},{"name":"account","type":"address","indexed":true,"internalType":"address"},{"name":"sender","type":"address","indexed":true,"internalType":"address"}],"anonymous":false},{"type":"event","name":"RoleRevoked","inputs":[{"name":"role","type":"bytes32","indexed":true,"internalType":"bytes32"},{"name":"account","type":"address","indexed":true,"internalType":"address"},{"name":"sender","type":"address","indexed":true,"internalType":"address"}],"anonymous":false},{"type":"event","name":"Transfer","inputs":[{"name":"from","type":"address","indexed":true,"internalType":"address"},{"name":"to","type":"address","indexed":true,"internalType":"address"},{"name":"tokenId","type":"uint256","indexed":true,"internalType":"uint256"}],"anonymous":false},{"type":"error","name":"AccessControlBadConfirmation","inputs":[]},{"type":"error","name":"AccessControlUnauthorizedAccount","inputs":[{"name":"account","type":"address","internalType":"address"},{"name":"neededRole","type":"bytes32","internalType":"bytes32"}]},{"type":"error","name":"ERC721IncorrectOwner","inputs":[{"name":"sender","type":"address","internalType":"address"},{"name":"tokenId","type":"uint256","internalType":"uint256"},{"name":"owner","type":"address","internalType":"address"}]},{"type":"error","name":"ERC721InsufficientApproval","inputs":[{"name":"operator","type":"address","internalType":"address"},{"name":"tokenId","type":"uint256","internalType":"uint256"}]},{"type":"error","name":"ERC721InvalidApprover","inputs":[{"name":"approver","type":"address","internalType":"address"}]},{"type":"error","name":"ERC721InvalidOperator","inputs":[{"name":"operator","type":"address","internalType":"address"}]},{"type":"error","name":"ERC721InvalidOwner","inputs":[{"name":"owner","type":"address","internalType":"address"}]},{"type":"error","name":"ERC721InvalidReceiver","inputs":[{"name":"receiver","type":"address","internalType":"address"}]},{"type":"error","name":"ERC721InvalidSender","inputs":[{"name":"sender","type":"address","internalType":"address"}]},{"type":"error","name":"ERC721NonexistentToken","inputs":[{"name":"tokenId","type":"uint256","internalType":"uint256"}]},{"type":"error","name":"noPermission","inputs":[{"name":"adr","type":"address","internalType":"address"}]}],"bytecode":{"object":"0x60806040523480156200001157600080fd5b5060405162001d2b38038062001d2b8339810160408190526200003491620001b1565b6040518060400160405280600b81526020016a29a0aa2827232a37b5b2b760a91b8152506040518060400160405280600781526020016614d0551413919560ca1b815250816001908162000089919062000288565b50600262000098828262000288565b505050620000cd7fb19546dff01e856fb3f010c267a7b1c60363cf8a4664e21cc89c26224620214e826200010260201b60201c565b50620000fa7f52ba824bfabc2bcfcdf7f0edbb486ebb05e1836c90e78047efeb949990f72e5f8262000102565b505062000354565b6000828152602081815260408083206001600160a01b038516845290915281205460ff16620001a7576000838152602081815260408083206001600160a01b03861684529091529020805460ff191660011790556200015e3390565b6001600160a01b0316826001600160a01b0316847f2f8788117e7eff1d82e926ec794901d17c78024a50270940304540a733656f0d60405160405180910390a4506001620001ab565b5060005b92915050565b600060208284031215620001c457600080fd5b81516001600160a01b0381168114620001dc57600080fd5b9392505050565b634e487b7160e01b600052604160045260246000fd5b600181811c908216806200020e57607f821691505b6020821081036200022f57634e487b7160e01b600052602260045260246000fd5b50919050565b601f8211156200028357600081815260208120601f850160051c810160208610156200025e5750805b601f850160051c820191505b818110156200027f578281556001016200026a565b5050505b505050565b81516001600160401b03811115620002a457620002a4620001e3565b620002bc81620002b58454620001f9565b8462000235565b602080601f831160018114620002f45760008415620002db5750858301515b600019600386901b1c1916600185901b1785556200027f565b600085815260208120601f198616915b82811015620003255788860151825594840194600190910190840162000304565b5085821015620003445787850151600019600388901b60f8161c191681555b5050505050600190811b01905550565b6119c780620003646000396000f3fe608060405234801561001057600080fd5b50600436106101f05760003560e01c806370a082311161010f578063b5bfddea116100a2578063d547741f11610071578063d547741f146104a5578063e58378bb146104b8578063e985e9c5146104df578063ea1340711461051b57600080fd5b8063b5bfddea14610445578063b88d4fde1461046c578063be7604881461047f578063c87b56dd1461049257600080fd5b806395d89b41116100de57806395d89b411461040f578063a217fddf14610417578063a22cb4651461041f578063a5e99b8e1461043257600080fd5b806370a08231146103b25780637750c9f01461038c5780638d944fd9146103c557806391d14854146103d857600080fd5b80632f2ff15d1161018757806342842e0e1161015657806342842e0e1461036657806342966c681461037957806359508f8f1461038c5780636352211e1461039f57600080fd5b80632f2ff15d1461031a57806336568abe1461032d5780633ae9449d1461034057806340c10f191461035357600080fd5b8063150b7a02116101c3578063150b7a021461027357806323b872dd146102c3578063248a9ca3146102d65780632a16cca41461030757600080fd5b806301ffc9a7146101f557806306fdde031461021e578063081812fc14610233578063095ea7b31461025e575b600080fd5b610209610203366004611580565b50600090565b60405190151581526020015b60405180910390f35b61022661052e565b60405161021591906115ed565b610246610241366004611600565b6105c0565b6040516001600160a01b039091168152602001610215565b61027161026c366004611635565b6105eb565b005b61029261028136600461165f565b630a85bd0160e11b95945050505050565b6040517fffffffff000000000000000000000000000000000000000000000000000000009091168152602001610215565b6102716102d13660046116fa565b6105fa565b6102f96102e4366004611600565b60009081526020819052604090206001015490565b604051908152602001610215565b610209610315366004611635565b6106a3565b610271610328366004611736565b61071e565b61027161033b366004611736565b610743565b6102f961034e366004611762565b610794565b610209610361366004611635565b6107a7565b6102716103743660046116fa565b6107e7565b610209610387366004611600565b610802565b61020961039a3660046116fa565b610917565b6102466103ad366004611600565b610924565b6102f96103c0366004611762565b61092f565b6102096103d3366004611635565b610990565b6102096103e6366004611736565b6000918252602082815260408084206001600160a01b0393909316845291905290205460ff1690565b6102266109ea565b6102f9600081565b61027161042d36600461177d565b6109f9565b610209610440366004611762565b610a04565b6102f97f52ba824bfabc2bcfcdf7f0edbb486ebb05e1836c90e78047efeb949990f72e5f81565b61027161047a3660046117cf565b610a5a565b61020961048d366004611635565b610a71565b6102266104a0366004611600565b610a8f565b6102716104b3366004611736565b610b03565b6102f97fb19546dff01e856fb3f010c267a7b1c60363cf8a4664e21cc89c26224620214e81565b6102096104ed3660046118ab565b6001600160a01b03918216600090815260066020908152604080832093909416825291909152205460ff1690565b610209610529366004611762565b610b28565b60606001805461053d906118d5565b80601f0160208091040260200160405190810160405280929190818152602001828054610569906118d5565b80156105b65780601f1061058b576101008083540402835291602001916105b6565b820191906000526020600020905b81548152906001019060200180831161059957829003601f168201915b5050505050905090565b60006105cb82610bad565b506000828152600560205260409020546001600160a01b03165b92915050565b6105f6828233610be6565b5050565b6001600160a01b03821661062957604051633250574960e11b8152600060048201526024015b60405180910390fd5b6000610636838333610bf3565b9050836001600160a01b0316816001600160a01b03161461069d576040517f64283d7b0000000000000000000000000000000000000000000000000000000081526001600160a01b0380861660048301526024820184905282166044820152606401610620565b50505050565b60007f52ba824bfabc2bcfcdf7f0edbb486ebb05e1836c90e78047efeb949990f72e5f6106cf81610cf9565b60006106da846105c0565b9050806001600160a01b0316856001600160a01b03161480610715575061070084610924565b6001600160a01b0316856001600160a01b0316145b95945050505050565b60008281526020819052604090206001015461073981610cf9565b61069d8383610d06565b6001600160a01b0381163314610785576040517f6697b23200000000000000000000000000000000000000000000000000000000815260040160405180910390fd5b61078f8282610db0565b505050565b6000806107a08361092f565b9392505050565b60007f52ba824bfabc2bcfcdf7f0edbb486ebb05e1836c90e78047efeb949990f72e5f6107d381610cf9565b6107dd8484610e33565b5060019392505050565b61078f83838360405180602001604052806000815250610a5a565b60007f52ba824bfabc2bcfcdf7f0edbb486ebb05e1836c90e78047efeb949990f72e5f61082e81610cf9565b33600061083a856105c0565b9050806001600160a01b0316826001600160a01b03161480610875575061086085610924565b6001600160a01b0316826001600160a01b0316145b610901576040517f08c379a000000000000000000000000000000000000000000000000000000000815260206004820152602f60248201527f43616c6c6572206973206e6f7420617070726f76656420746f206f706572617460448201527f65206f6e207468697320746f6b656e00000000000000000000000000000000006064820152608401610620565b61090a85610e4d565b6001935050505b50919050565b60006107dd8484846107e7565b60006105e582610bad565b60006001600160a01b038216610974576040517f89c62b6400000000000000000000000000000000000000000000000000000000815260006004820152602401610620565b506001600160a01b031660009081526004602052604090205490565b60007f52ba824bfabc2bcfcdf7f0edbb486ebb05e1836c90e78047efeb949990f72e5f6109bc81610cf9565b6000838152600360205260409020546001600160a01b03166109df818686610e88565b506001949350505050565b60606002805461053d906118d5565b6105f6338383610f05565b60007fb19546dff01e856fb3f010c267a7b1c60363cf8a4664e21cc89c26224620214e610a3081610cf9565b6107dd7f52ba824bfabc2bcfcdf7f0edbb486ebb05e1836c90e78047efeb949990f72e5f84610d06565b610a658484846105fa565b61069d84848484610fbd565b6000610a86610a7f83610924565b84846107e7565b50600192915050565b6060610a9a82610bad565b506000610ab260408051602081019091526000815290565b90506000815111610ad257604051806020016040528060008152506107a0565b80610adc846110fe565b604051602001610aed929190611909565b6040516020818303038152906040529392505050565b600082815260208190526040902060010154610b1e81610cf9565b61069d8383610db0565b6001600160a01b03811660009081527f7dcd276b72586271b4623598c6b3ecb5f3594881d1da5ce0d28e8f8adbf67787602052604081205460ff1615610b7057506001919050565b6040517f1aee145f0000000000000000000000000000000000000000000000000000000081526001600160a01b0383166004820152602401610620565b6000818152600360205260408120546001600160a01b0316806105e557604051637e27328960e01b815260048101849052602401610620565b61078f838383600161119e565b6000828152600360205260408120546001600160a01b0390811690831615610c2057610c20818486610e88565b6001600160a01b03811615610c5e57610c3d60008560008061119e565b6001600160a01b038116600090815260046020526040902080546000190190555b6001600160a01b03851615610c8d576001600160a01b0385166000908152600460205260409020805460010190555b600084815260036020526040808220805473ffffffffffffffffffffffffffffffffffffffff19166001600160a01b0389811691821790925591518793918516917fddf252ad1be2c89b69c2b068fc378daa952ba7f163c4a11628f55a4df523b3ef91a4949350505050565b610d0381336112e9565b50565b6000828152602081815260408083206001600160a01b038516845290915281205460ff16610da8576000838152602081815260408083206001600160a01b03861684529091529020805460ff19166001179055610d603390565b6001600160a01b0316826001600160a01b0316847f2f8788117e7eff1d82e926ec794901d17c78024a50270940304540a733656f0d60405160405180910390a45060016105e5565b5060006105e5565b6000828152602081815260408083206001600160a01b038516845290915281205460ff1615610da8576000838152602081815260408083206001600160a01b0386168085529252808320805460ff1916905551339286917ff6391f5c32d9c69d2a47ea670b442974b53935d1edc7fd64eb21e047a839171b9190a45060016105e5565b6105f6828260405180602001604052806000815250611355565b6000610e5c6000836000610bf3565b90506001600160a01b0381166105f657604051637e27328960e01b815260048101839052602401610620565b610e9383838361136c565b61078f576001600160a01b038316610ec157604051637e27328960e01b815260048101829052602401610620565b6040517f177e802f0000000000000000000000000000000000000000000000000000000081526001600160a01b038316600482015260248101829052604401610620565b6001600160a01b038216610f50576040517f5b08ba180000000000000000000000000000000000000000000000000000000081526001600160a01b0383166004820152602401610620565b6001600160a01b03838116600081815260066020908152604080832094871680845294825291829020805460ff191686151590811790915591519182527f17307eab39ab6107e8899845ad3d59bd9653f200f220920489ca2b5937696c31910160405180910390a3505050565b6001600160a01b0383163b1561069d57604051630a85bd0160e11b81526001600160a01b0384169063150b7a0290610fff903390889087908790600401611938565b6020604051808303816000875af192505050801561103a575060408051601f3d908101601f1916820190925261103791810190611974565b60015b6110a3573d808015611068576040519150601f19603f3d011682016040523d82523d6000602084013e61106d565b606091505b50805160000361109b57604051633250574960e11b81526001600160a01b0385166004820152602401610620565b805181602001fd5b7fffffffff000000000000000000000000000000000000000000000000000000008116630a85bd0160e11b146110f757604051633250574960e11b81526001600160a01b0385166004820152602401610620565b5050505050565b6060600061110b836113f2565b600101905060008167ffffffffffffffff81111561112b5761112b6117b9565b6040519080825280601f01601f191660200182016040528015611155576020820181803683370190505b5090508181016020015b600019017f3031323334353637383961626364656600000000000000000000000000000000600a86061a8153600a850494508461115f57509392505050565b80806111b257506001600160a01b03821615155b156112ac5760006111c284610bad565b90506001600160a01b038316158015906111ee5750826001600160a01b0316816001600160a01b031614155b801561122057506001600160a01b0380821660009081526006602090815260408083209387168352929052205460ff16155b15611262576040517fa9fbf51f0000000000000000000000000000000000000000000000000000000081526001600160a01b0384166004820152602401610620565b81156112aa5783856001600160a01b0316826001600160a01b03167f8c5be1e5ebec7d5bd14f71427d1e84f3dd0314c0f7b2291e5b200ac8c7c3b92560405160405180910390a45b505b50506000908152600560205260409020805473ffffffffffffffffffffffffffffffffffffffff19166001600160a01b0392909216919091179055565b6000828152602081815260408083206001600160a01b038516845290915290205460ff166105f6576040517fe2517d3f0000000000000000000000000000000000000000000000000000000081526001600160a01b038216600482015260248101839052604401610620565b61135f83836114d4565b61078f6000848484610fbd565b60006001600160a01b038316158015906113ea5750826001600160a01b0316846001600160a01b031614806113c657506001600160a01b0380851660009081526006602090815260408083209387168352929052205460ff165b806113ea57506000828152600560205260409020546001600160a01b038481169116145b949350505050565b6000807a184f03e93ff9f4daa797ed6e38ed64bf6a1f010000000000000000831061143b577a184f03e93ff9f4daa797ed6e38ed64bf6a1f010000000000000000830492506040015b6d04ee2d6d415b85acef81000000008310611467576d04ee2d6d415b85acef8100000000830492506020015b662386f26fc10000831061148557662386f26fc10000830492506010015b6305f5e100831061149d576305f5e100830492506008015b61271083106114b157612710830492506004015b606483106114c3576064830492506002015b600a83106105e55760010192915050565b6001600160a01b0382166114fe57604051633250574960e11b815260006004820152602401610620565b600061150c83836000610bf3565b90506001600160a01b0381161561078f576040517f73c6ac6e00000000000000000000000000000000000000000000000000000000815260006004820152602401610620565b7fffffffff0000000000000000000000000000000000000000000000000000000081168114610d0357600080fd5b60006020828403121561159257600080fd5b81356107a081611552565b60005b838110156115b85781810151838201526020016115a0565b50506000910152565b600081518084526115d981602086016020860161159d565b601f01601f19169290920160200192915050565b6020815260006107a060208301846115c1565b60006020828403121561161257600080fd5b5035919050565b80356001600160a01b038116811461163057600080fd5b919050565b6000806040838503121561164857600080fd5b61165183611619565b946020939093013593505050565b60008060008060006080868803121561167757600080fd5b61168086611619565b945061168e60208701611619565b935060408601359250606086013567ffffffffffffffff808211156116b257600080fd5b818801915088601f8301126116c657600080fd5b8135818111156116d557600080fd5b8960208285010111156116e757600080fd5b9699959850939650602001949392505050565b60008060006060848603121561170f57600080fd5b61171884611619565b925061172660208501611619565b9150604084013590509250925092565b6000806040838503121561174957600080fd5b8235915061175960208401611619565b90509250929050565b60006020828403121561177457600080fd5b6107a082611619565b6000806040838503121561179057600080fd5b61179983611619565b9150602083013580151581146117ae57600080fd5b809150509250929050565b634e487b7160e01b600052604160045260246000fd5b600080600080608085870312156117e557600080fd5b6117ee85611619565b93506117fc60208601611619565b925060408501359150606085013567ffffffffffffffff8082111561182057600080fd5b818701915087601f83011261183457600080fd5b813581811115611846576118466117b9565b604051601f8201601f19908116603f0116810190838211818310171561186e5761186e6117b9565b816040528281528a602084870101111561188757600080fd5b82602086016020830137600060208483010152809550505050505092959194509250565b600080604083850312156118be57600080fd5b6118c783611619565b915061175960208401611619565b600181811c908216806118e957607f821691505b60208210810361091157634e487b7160e01b600052602260045260246000fd5b6000835161191b81846020880161159d565b83519083019061192f81836020880161159d565b01949350505050565b60006001600160a01b0380871683528086166020840152508360408301526080606083015261196a60808301846115c1565b9695505050505050565b60006020828403121561198657600080fd5b81516107a08161155256fea26469706673582212203f5ab80dc6f0b3ee871144587f727bf6705f6dba123b4717d2615eebae48e21064736f6c63430008140033","linkReferences":{}},"methodIdentifiers":{"BRIDGE_ROLE()":"b5bfddea","DEFAULT_ADMIN_ROLE()":"a217fddf","OWNER_ROLE()":"e58378bb","approve(address,uint256)":"095ea7b3","assign(address,uint256)":"be760488","balanceOf(address)":"70a08231","burn(uint256)":"42966c68","getApproved(uint256)":"081812fc","getRoleAdmin(bytes32)":"248a9ca3","grantBridgeRole(address)":"a5e99b8e","grantRole(bytes32,address)":"2f2ff15d","hasBridgeRole(address)":"ea134071","hasPermission(address,uint256)":"8d944fd9","hasRole(bytes32,address)":"91d14854","isApproved(address,uint256)":"2a16cca4","isApprovedForAll(address,address)":"e985e9c5","lock(address,address,uint256)":"7750c9f0","mint(address,uint256)":"40c10f19","name()":"06fdde03","obtainBalance(address)":"3ae9449d","onERC721Received(address,address,uint256,bytes)":"150b7a02","ownerOf(uint256)":"6352211e","renounceRole(bytes32,address)":"36568abe","revokeRole(bytes32,address)":"d547741f","safeTransferFrom(address,address,uint256)":"42842e0e","safeTransferFrom(address,address,uint256,bytes)":"b88d4fde","setApprovalForAll(address,bool)":"a22cb465","supportsInterface(bytes4)":"01ffc9a7","symbol()":"95d89b41","tokenURI(uint256)":"c87b56dd","transferFrom(address,address,uint256)":"23b872dd","unlock(address,address,uint256)":"59508f8f"},"id":19}