{"abi":[{"type":"constructor","inputs":[{"name":"_owner","type":"address","internalType":"address"}],"stateMutability":"nonpayable"},{"type":"function","name":"BRIDGE_ROLE","inputs":[],"outputs":[{"name":"","type":"bytes32","internalType":"bytes32"}],"stateMutability":"view"},{"type":"function","name":"DEFAULT_ADMIN_ROLE","inputs":[],"outputs":[{"name":"","type":"bytes32","internalType":"bytes32"}],"stateMutability":"view"},{"type":"function","name":"OWNER_ROLE","inputs":[],"outputs":[{"name":"","type":"bytes32","internalType":"bytes32"}],"stateMutability":"view"},{"type":"function","name":"approve","inputs":[{"name":"to","type":"address","internalType":"address"},{"name":"tokenId","type":"uint256","internalType":"uint256"}],"outputs":[],"stateMutability":"nonpayable"},{"type":"function","name":"assign","inputs":[{"name":"to","type":"address","internalType":"address"},{"name":"uniqueDescriptor","type":"uint256","internalType":"uint256"}],"outputs":[{"name":"success","type":"bool","internalType":"bool"}],"stateMutability":"nonpayable"},{"type":"function","name":"balanceOf","inputs":[{"name":"owner","type":"address","internalType":"address"}],"outputs":[{"name":"","type":"uint256","internalType":"uint256"}],"stateMutability":"view"},{"type":"function","name":"burn","inputs":[{"name":"uniqueDescriptor","type":"uint256","internalType":"uint256"}],"outputs":[{"name":"success","type":"bool","internalType":"bool"}],"stateMutability":"nonpayable"},{"type":"function","name":"getApproved","inputs":[{"name":"tokenId","type":"uint256","internalType":"uint256"}],"outputs":[{"name":"","type":"address","internalType":"address"}],"stateMutability":"view"},{"type":"function","name":"getRoleAdmin","inputs":[{"name":"role","type":"bytes32","internalType":"bytes32"}],"outputs":[{"name":"","type":"bytes32","internalType":"bytes32"}],"stateMutability":"view"},{"type":"function","name":"grantBridgeRole","inputs":[{"name":"account","type":"address","internalType":"address"}],"outputs":[{"name":"success","type":"bool","internalType":"bool"}],"stateMutability":"nonpayable"},{"type":"function","name":"grantRole","inputs":[{"name":"role","type":"bytes32","internalType":"bytes32"},{"name":"account","type":"address","internalType":"address"}],"outputs":[],"stateMutability":"nonpayable"},{"type":"function","name":"hasBridgeRole","inputs":[{"name":"account","type":"address","internalType":"address"}],"outputs":[{"name":"success","type":"bool","internalType":"bool"}],"stateMutability":"view"},{"type":"function","name":"hasPermission","inputs":[{"name":"account","type":"address","internalType":"address"},{"name":"uniqueDescriptor","type":"uint256","internalType":"uint256"}],"outputs":[{"name":"success","type":"bool","internalType":"bool"}],"stateMutability":"view"},{"type":"function","name":"hasRole","inputs":[{"name":"role","type":"bytes32","internalType":"bytes32"},{"name":"account","type":"address","internalType":"address"}],"outputs":[{"name":"","type":"bool","internalType":"bool"}],"stateMutability":"view"},{"type":"function","name":"isApprovedForAll","inputs":[{"name":"owner","type":"address","internalType":"address"},{"name":"operator","type":"address","internalType":"address"}],"outputs":[{"name":"","type":"bool","internalType":"bool"}],"stateMutability":"view"},{"type":"function","name":"lock","inputs":[{"name":"from","type":"address","internalType":"address"},{"name":"to","type":"address","internalType":"address"},{"name":"uniqueDescriptor","type":"uint256","internalType":"uint256"}],"outputs":[{"name":"success","type":"bool","internalType":"bool"}],"stateMutability":"nonpayable"},{"type":"function","name":"mint","inputs":[{"name":"account","type":"address","internalType":"address"},{"name":"uniqueDescriptor","type":"uint256","internalType":"uint256"}],"outputs":[{"name":"success","type":"bool","internalType":"bool"}],"stateMutability":"nonpayable"},{"type":"function","name":"name","inputs":[],"outputs":[{"name":"","type":"string","internalType":"string"}],"stateMutability":"view"},{"type":"function","name":"obtainBalance","inputs":[{"name":"account","type":"address","internalType":"address"}],"outputs":[{"name":"balance","type":"uint256","internalType":"uint256"}],"stateMutability":"view"},{"type":"function","name":"onERC721Received","inputs":[{"name":"","type":"address","internalType":"address"},{"name":"","type":"uint256","internalType":"uint256"},{"name":"","type":"bytes","internalType":"bytes"}],"outputs":[{"name":"","type":"bytes4","internalType":"bytes4"}],"stateMutability":"pure"},{"type":"function","name":"ownerOf","inputs":[{"name":"tokenId","type":"uint256","internalType":"uint256"}],"outputs":[{"name":"","type":"address","internalType":"address"}],"stateMutability":"view"},{"type":"function","name":"renounceRole","inputs":[{"name":"role","type":"bytes32","internalType":"bytes32"},{"name":"callerConfirmation","type":"address","internalType":"address"}],"outputs":[],"stateMutability":"nonpayable"},{"type":"function","name":"revokeRole","inputs":[{"name":"role","type":"bytes32","internalType":"bytes32"},{"name":"account","type":"address","internalType":"address"}],"outputs":[],"stateMutability":"nonpayable"},{"type":"function","name":"safeTransferFrom","inputs":[{"name":"from","type":"address","internalType":"address"},{"name":"to","type":"address","internalType":"address"},{"name":"tokenId","type":"uint256","internalType":"uint256"}],"outputs":[],"stateMutability":"nonpayable"},{"type":"function","name":"safeTransferFrom","inputs":[{"name":"from","type":"address","internalType":"address"},{"name":"to","type":"address","internalType":"address"},{"name":"tokenId","type":"uint256","internalType":"uint256"},{"name":"data","type":"bytes","internalType":"bytes"}],"outputs":[],"stateMutability":"nonpayable"},{"type":"function","name":"setApprovalForAll","inputs":[{"name":"operator","type":"address","internalType":"address"},{"name":"approved","type":"bool","internalType":"bool"}],"outputs":[],"stateMutability":"nonpayable"},{"type":"function","name":"supportsInterface","inputs":[{"name":"","type":"bytes4","internalType":"bytes4"}],"outputs":[{"name":"success","type":"bool","internalType":"bool"}],"stateMutability":"pure"},{"type":"function","name":"symbol","inputs":[],"outputs":[{"name":"","type":"string","internalType":"string"}],"stateMutability":"view"},{"type":"function","name":"tokenURI","inputs":[{"name":"tokenId","type":"uint256","internalType":"uint256"}],"outputs":[{"name":"","type":"string","internalType":"string"}],"stateMutability":"view"},{"type":"function","name":"transferFrom","inputs":[{"name":"from","type":"address","internalType":"address"},{"name":"to","type":"address","internalType":"address"},{"name":"tokenId","type":"uint256","internalType":"uint256"}],"outputs":[],"stateMutability":"nonpayable"},{"type":"function","name":"unlock","inputs":[{"name":"from","type":"address","internalType":"address"},{"name":"to","type":"address","internalType":"address"},{"name":"uniqueDescriptor","type":"uint256","internalType":"uint256"}],"outputs":[{"name":"success","type":"bool","internalType":"bool"}],"stateMutability":"nonpayable"},{"type":"event","name":"Approval","inputs":[{"name":"owner","type":"address","indexed":true,"internalType":"address"},{"name":"approved","type":"address","indexed":true,"internalType":"address"},{"name":"tokenId","type":"uint256","indexed":true,"internalType":"uint256"}],"anonymous":false},{"type":"event","name":"ApprovalForAll","inputs":[{"name":"owner","type":"address","indexed":true,"internalType":"address"},{"name":"operator","type":"address","indexed":true,"internalType":"address"},{"name":"approved","type":"bool","indexed":false,"internalType":"bool"}],"anonymous":false},{"type":"event","name":"RoleAdminChanged","inputs":[{"name":"role","type":"bytes32","indexed":true,"internalType":"bytes32"},{"name":"previousAdminRole","type":"bytes32","indexed":true,"internalType":"bytes32"},{"name":"newAdminRole","type":"bytes32","indexed":true,"internalType":"bytes32"}],"anonymous":false},{"type":"event","name":"RoleGranted","inputs":[{"name":"role","type":"bytes32","indexed":true,"internalType":"bytes32"},{"name":"account","type":"address","indexed":true,"internalType":"address"},{"name":"sender","type":"address","indexed":true,"internalType":"address"}],"anonymous":false},{"type":"event","name":"RoleRevoked","inputs":[{"name":"role","type":"bytes32","indexed":true,"internalType":"bytes32"},{"name":"account","type":"address","indexed":true,"internalType":"address"},{"name":"sender","type":"address","indexed":true,"internalType":"address"}],"anonymous":false},{"type":"event","name":"Transfer","inputs":[{"name":"from","type":"address","indexed":true,"internalType":"address"},{"name":"to","type":"address","indexed":true,"internalType":"address"},{"name":"tokenId","type":"uint256","indexed":true,"internalType":"uint256"}],"anonymous":false},{"type":"error","name":"AccessControlBadConfirmation","inputs":[]},{"type":"error","name":"AccessControlUnauthorizedAccount","inputs":[{"name":"account","type":"address","internalType":"address"},{"name":"neededRole","type":"bytes32","internalType":"bytes32"}]},{"type":"error","name":"ERC721IncorrectOwner","inputs":[{"name":"sender","type":"address","internalType":"address"},{"name":"tokenId","type":"uint256","internalType":"uint256"},{"name":"owner","type":"address","internalType":"address"}]},{"type":"error","name":"ERC721InsufficientApproval","inputs":[{"name":"operator","type":"address","internalType":"address"},{"name":"tokenId","type":"uint256","internalType":"uint256"}]},{"type":"error","name":"ERC721InvalidApprover","inputs":[{"name":"approver","type":"address","internalType":"address"}]},{"type":"error","name":"ERC721InvalidOperator","inputs":[{"name":"operator","type":"address","internalType":"address"}]},{"type":"error","name":"ERC721InvalidOwner","inputs":[{"name":"owner","type":"address","internalType":"address"}]},{"type":"error","name":"ERC721InvalidReceiver","inputs":[{"name":"receiver","type":"address","internalType":"address"}]},{"type":"error","name":"ERC721InvalidSender","inputs":[{"name":"sender","type":"address","internalType":"address"}]},{"type":"error","name":"ERC721NonexistentToken","inputs":[{"name":"tokenId","type":"uint256","internalType":"uint256"}]},{"type":"error","name":"noPermission","inputs":[{"name":"adr","type":"address","internalType":"address"}]}],"bytecode":{"object":"0x60806040523480156200001157600080fd5b5060405162001c0e38038062001c0e8339810160408190526200003491620001b1565b6040518060400160405280600b81526020016a29a0aa2827232a37b5b2b760a91b8152506040518060400160405280600781526020016614d0551413919560ca1b815250816001908162000089919062000288565b50600262000098828262000288565b505050620000cd7fb19546dff01e856fb3f010c267a7b1c60363cf8a4664e21cc89c26224620214e826200010260201b60201c565b50620000fa7f52ba824bfabc2bcfcdf7f0edbb486ebb05e1836c90e78047efeb949990f72e5f8262000102565b505062000354565b6000828152602081815260408083206001600160a01b038516845290915281205460ff16620001a7576000838152602081815260408083206001600160a01b03861684529091529020805460ff191660011790556200015e3390565b6001600160a01b0316826001600160a01b0316847f2f8788117e7eff1d82e926ec794901d17c78024a50270940304540a733656f0d60405160405180910390a4506001620001ab565b5060005b92915050565b600060208284031215620001c457600080fd5b81516001600160a01b0381168114620001dc57600080fd5b9392505050565b634e487b7160e01b600052604160045260246000fd5b600181811c908216806200020e57607f821691505b6020821081036200022f57634e487b7160e01b600052602260045260246000fd5b50919050565b601f8211156200028357600081815260208120601f850160051c810160208610156200025e5750805b601f850160051c820191505b818110156200027f578281556001016200026a565b5050505b505050565b81516001600160401b03811115620002a457620002a4620001e3565b620002bc81620002b58454620001f9565b8462000235565b602080601f831160018114620002f45760008415620002db5750858301515b600019600386901b1c1916600185901b1785556200027f565b600085815260208120601f198616915b82811015620003255788860151825594840194600190910190840162000304565b5085821015620003445787850151600019600388901b60f8161c191681555b5050505050600190811b01905550565b6118aa80620003646000396000f3fe608060405234801561001057600080fd5b50600436106101e55760003560e01c80637750c9f01161010f578063b88d4fde116100a2578063e58378bb11610071578063e58378bb1461044a578063e985e9c514610471578063ea134071146104ad578063f0b9e5ba146104c057600080fd5b8063b88d4fde146103fe578063be76048814610411578063c87b56dd14610424578063d547741f1461043757600080fd5b8063a217fddf116100de578063a217fddf146103a9578063a22cb465146103b1578063a5e99b8e146103c4578063b5bfddea146103d757600080fd5b80637750c9f01461031e5780638d944fd91461035757806391d148541461036a57806395d89b41146103a157600080fd5b806336568abe1161018757806342966c681161015657806342966c681461030b57806359508f8f1461031e5780636352211e1461033157806370a082311461034457600080fd5b806336568abe146102bf5780633ae9449d146102d257806340c10f19146102e557806342842e0e146102f857600080fd5b8063095ea7b3116101c3578063095ea7b31461025357806323b872dd14610268578063248a9ca31461027b5780632f2ff15d146102ac57600080fd5b806301ffc9a7146101ea57806306fdde0314610213578063081812fc14610228575b600080fd5b6101fe6101f8366004611477565b50600190565b60405190151581526020015b60405180910390f35b61021b61050f565b60405161020a91906114e4565b61023b6102363660046114f7565b6105a1565b6040516001600160a01b03909116815260200161020a565b61026661026136600461152c565b6105cc565b005b610266610276366004611556565b6105db565b61029e6102893660046114f7565b60009081526020819052604090206001015490565b60405190815260200161020a565b6102666102ba366004611592565b61066b565b6102666102cd366004611592565b610690565b61029e6102e03660046115be565b6106e1565b6101fe6102f336600461152c565b6106f4565b610266610306366004611556565b610734565b6101fe6103193660046114f7565b61074f565b6101fe61032c366004611556565b61078f565b61023b61033f3660046114f7565b61079c565b61029e6103523660046115be565b6107a7565b6101fe61036536600461152c565b610808565b6101fe610378366004611592565b6000918252602082815260408084206001600160a01b0393909316845291905290205460ff1690565b61021b610862565b61029e600081565b6102666103bf3660046115d9565b610871565b6101fe6103d23660046115be565b61087c565b61029e7f52ba824bfabc2bcfcdf7f0edbb486ebb05e1836c90e78047efeb949990f72e5f81565b61026661040c36600461162b565b6108d2565b6101fe61041f36600461152c565b6108e9565b61021b6104323660046114f7565b610907565b610266610445366004611592565b61097b565b61029e7fb19546dff01e856fb3f010c267a7b1c60363cf8a4664e21cc89c26224620214e81565b6101fe61047f366004611707565b6001600160a01b03918216600090815260066020908152604080832093909416825291909152205460ff1690565b6101fe6104bb3660046115be565b6109a0565b6104de6104ce366004611731565b630a85bd0160e11b949350505050565b6040517fffffffff00000000000000000000000000000000000000000000000000000000909116815260200161020a565b60606001805461051e906117b8565b80601f016020809104026020016040519081016040528092919081815260200182805461054a906117b8565b80156105975780601f1061056c57610100808354040283529160200191610597565b820191906000526020600020905b81548152906001019060200180831161057a57829003601f168201915b5050505050905090565b60006105ac82610a25565b506000828152600560205260409020546001600160a01b03165b92915050565b6105d7828233610a5e565b5050565b6001600160a01b03821661060a57604051633250574960e11b8152600060048201526024015b60405180910390fd5b6000610617838333610a6b565b9050836001600160a01b0316816001600160a01b031614610665576040516364283d7b60e01b81526001600160a01b0380861660048301526024820184905282166044820152606401610601565b50505050565b60008281526020819052604090206001015461068681610b71565b6106658383610b7e565b6001600160a01b03811633146106d2576040517f6697b23200000000000000000000000000000000000000000000000000000000815260040160405180910390fd5b6106dc8282610c28565b505050565b6000806106ed836107a7565b9392505050565b60007f52ba824bfabc2bcfcdf7f0edbb486ebb05e1836c90e78047efeb949990f72e5f61072081610b71565b61072a8484610cab565b5060019392505050565b6106dc838383604051806020016040528060008152506108d2565b60007f52ba824bfabc2bcfcdf7f0edbb486ebb05e1836c90e78047efeb949990f72e5f61077b81610b71565b61078483610d29565b600191505b50919050565b600061072a848484610d64565b60006105c682610a25565b60006001600160a01b0382166107ec576040517f89c62b6400000000000000000000000000000000000000000000000000000000815260006004820152602401610601565b506001600160a01b031660009081526004602052604090205490565b60007f52ba824bfabc2bcfcdf7f0edbb486ebb05e1836c90e78047efeb949990f72e5f61083481610b71565b6000838152600360205260409020546001600160a01b0316610857818686610e14565b506001949350505050565b60606002805461051e906117b8565b6105d7338383610e91565b60007fb19546dff01e856fb3f010c267a7b1c60363cf8a4664e21cc89c26224620214e6108a881610b71565b61072a7f52ba824bfabc2bcfcdf7f0edbb486ebb05e1836c90e78047efeb949990f72e5f84610b7e565b6108dd8484846105db565b61066584848484610f49565b60006108fe6108f78361079c565b8484610d64565b50600192915050565b606061091282610a25565b50600061092a60408051602081019091526000815290565b9050600081511161094a57604051806020016040528060008152506106ed565b806109548461108a565b6040516020016109659291906117ec565b6040516020818303038152906040529392505050565b60008281526020819052604090206001015461099681610b71565b6106658383610c28565b6001600160a01b03811660009081527f7dcd276b72586271b4623598c6b3ecb5f3594881d1da5ce0d28e8f8adbf67787602052604081205460ff16156109e857506001919050565b6040517f1aee145f0000000000000000000000000000000000000000000000000000000081526001600160a01b0383166004820152602401610601565b6000818152600360205260408120546001600160a01b0316806105c657604051637e27328960e01b815260048101849052602401610601565b6106dc838383600161112a565b6000828152600360205260408120546001600160a01b0390811690831615610a9857610a98818486610e14565b6001600160a01b03811615610ad657610ab560008560008061112a565b6001600160a01b038116600090815260046020526040902080546000190190555b6001600160a01b03851615610b05576001600160a01b0385166000908152600460205260409020805460010190555b600084815260036020526040808220805473ffffffffffffffffffffffffffffffffffffffff19166001600160a01b0389811691821790925591518793918516917fddf252ad1be2c89b69c2b068fc378daa952ba7f163c4a11628f55a4df523b3ef91a4949350505050565b610b7b8133611275565b50565b6000828152602081815260408083206001600160a01b038516845290915281205460ff16610c20576000838152602081815260408083206001600160a01b03861684529091529020805460ff19166001179055610bd83390565b6001600160a01b0316826001600160a01b0316847f2f8788117e7eff1d82e926ec794901d17c78024a50270940304540a733656f0d60405160405180910390a45060016105c6565b5060006105c6565b6000828152602081815260408083206001600160a01b038516845290915281205460ff1615610c20576000838152602081815260408083206001600160a01b0386168085529252808320805460ff1916905551339286917ff6391f5c32d9c69d2a47ea670b442974b53935d1edc7fd64eb21e047a839171b9190a45060016105c6565b6001600160a01b038216610cd557604051633250574960e11b815260006004820152602401610601565b6000610ce383836000610a6b565b90506001600160a01b038116156106dc576040517f73c6ac6e00000000000000000000000000000000000000000000000000000000815260006004820152602401610601565b6000610d386000836000610a6b565b90506001600160a01b0381166105d757604051637e27328960e01b815260048101839052602401610601565b6001600160a01b038216610d8e57604051633250574960e11b815260006004820152602401610601565b6000610d9c83836000610a6b565b90506001600160a01b038116610dc857604051637e27328960e01b815260048101839052602401610601565b836001600160a01b0316816001600160a01b031614610665576040516364283d7b60e01b81526001600160a01b0380861660048301526024820184905282166044820152606401610601565b610e1f8383836112e1565b6106dc576001600160a01b038316610e4d57604051637e27328960e01b815260048101829052602401610601565b6040517f177e802f0000000000000000000000000000000000000000000000000000000081526001600160a01b038316600482015260248101829052604401610601565b6001600160a01b038216610edc576040517f5b08ba180000000000000000000000000000000000000000000000000000000081526001600160a01b0383166004820152602401610601565b6001600160a01b03838116600081815260066020908152604080832094871680845294825291829020805460ff191686151590811790915591519182527f17307eab39ab6107e8899845ad3d59bd9653f200f220920489ca2b5937696c31910160405180910390a3505050565b6001600160a01b0383163b1561066557604051630a85bd0160e11b81526001600160a01b0384169063150b7a0290610f8b90339088908790879060040161181b565b6020604051808303816000875af1925050508015610fc6575060408051601f3d908101601f19168201909252610fc391810190611857565b60015b61102f573d808015610ff4576040519150601f19603f3d011682016040523d82523d6000602084013e610ff9565b606091505b50805160000361102757604051633250574960e11b81526001600160a01b0385166004820152602401610601565b805181602001fd5b7fffffffff000000000000000000000000000000000000000000000000000000008116630a85bd0160e11b1461108357604051633250574960e11b81526001600160a01b0385166004820152602401610601565b5050505050565b6060600061109783611367565b600101905060008167ffffffffffffffff8111156110b7576110b7611615565b6040519080825280601f01601f1916602001820160405280156110e1576020820181803683370190505b5090508181016020015b600019017f3031323334353637383961626364656600000000000000000000000000000000600a86061a8153600a85049450846110eb57509392505050565b808061113e57506001600160a01b03821615155b1561123857600061114e84610a25565b90506001600160a01b0383161580159061117a5750826001600160a01b0316816001600160a01b031614155b80156111ac57506001600160a01b0380821660009081526006602090815260408083209387168352929052205460ff16155b156111ee576040517fa9fbf51f0000000000000000000000000000000000000000000000000000000081526001600160a01b0384166004820152602401610601565b81156112365783856001600160a01b0316826001600160a01b03167f8c5be1e5ebec7d5bd14f71427d1e84f3dd0314c0f7b2291e5b200ac8c7c3b92560405160405180910390a45b505b50506000908152600560205260409020805473ffffffffffffffffffffffffffffffffffffffff19166001600160a01b0392909216919091179055565b6000828152602081815260408083206001600160a01b038516845290915290205460ff166105d7576040517fe2517d3f0000000000000000000000000000000000000000000000000000000081526001600160a01b038216600482015260248101839052604401610601565b60006001600160a01b0383161580159061135f5750826001600160a01b0316846001600160a01b0316148061133b57506001600160a01b0380851660009081526006602090815260408083209387168352929052205460ff165b8061135f57506000828152600560205260409020546001600160a01b038481169116145b949350505050565b6000807a184f03e93ff9f4daa797ed6e38ed64bf6a1f01000000000000000083106113b0577a184f03e93ff9f4daa797ed6e38ed64bf6a1f010000000000000000830492506040015b6d04ee2d6d415b85acef810000000083106113dc576d04ee2d6d415b85acef8100000000830492506020015b662386f26fc1000083106113fa57662386f26fc10000830492506010015b6305f5e1008310611412576305f5e100830492506008015b612710831061142657612710830492506004015b60648310611438576064830492506002015b600a83106105c65760010192915050565b7fffffffff0000000000000000000000000000000000000000000000000000000081168114610b7b57600080fd5b60006020828403121561148957600080fd5b81356106ed81611449565b60005b838110156114af578181015183820152602001611497565b50506000910152565b600081518084526114d0816020860160208601611494565b601f01601f19169290920160200192915050565b6020815260006106ed60208301846114b8565b60006020828403121561150957600080fd5b5035919050565b80356001600160a01b038116811461152757600080fd5b919050565b6000806040838503121561153f57600080fd5b61154883611510565b946020939093013593505050565b60008060006060848603121561156b57600080fd5b61157484611510565b925061158260208501611510565b9150604084013590509250925092565b600080604083850312156115a557600080fd5b823591506115b560208401611510565b90509250929050565b6000602082840312156115d057600080fd5b6106ed82611510565b600080604083850312156115ec57600080fd5b6115f583611510565b91506020830135801515811461160a57600080fd5b809150509250929050565b634e487b7160e01b600052604160045260246000fd5b6000806000806080858703121561164157600080fd5b61164a85611510565b935061165860208601611510565b925060408501359150606085013567ffffffffffffffff8082111561167c57600080fd5b818701915087601f83011261169057600080fd5b8135818111156116a2576116a2611615565b604051601f8201601f19908116603f011681019083821181831017156116ca576116ca611615565b816040528281528a60208487010111156116e357600080fd5b82602086016020830137600060208483010152809550505050505092959194509250565b6000806040838503121561171a57600080fd5b61172383611510565b91506115b560208401611510565b6000806000806060858703121561174757600080fd5b61175085611510565b935060208501359250604085013567ffffffffffffffff8082111561177457600080fd5b818701915087601f83011261178857600080fd5b81358181111561179757600080fd5b8860208285010111156117a957600080fd5b95989497505060200194505050565b600181811c908216806117cc57607f821691505b60208210810361078957634e487b7160e01b600052602260045260246000fd5b600083516117fe818460208801611494565b835190830190611812818360208801611494565b01949350505050565b60006001600160a01b0380871683528086166020840152508360408301526080606083015261184d60808301846114b8565b9695505050505050565b60006020828403121561186957600080fd5b81516106ed8161144956fea264697066735822122047205c4c503e5d843d91a5c878367104603d66f632bbb1d4fc79fc1e1bf65d8464736f6c63430008140033","linkReferences":{}},"methodIdentifiers":{"BRIDGE_ROLE()":"b5bfddea","DEFAULT_ADMIN_ROLE()":"a217fddf","OWNER_ROLE()":"e58378bb","approve(address,uint256)":"095ea7b3","assign(address,uint256)":"be760488","balanceOf(address)":"70a08231","burn(uint256)":"42966c68","getApproved(uint256)":"081812fc","getRoleAdmin(bytes32)":"248a9ca3","grantBridgeRole(address)":"a5e99b8e","grantRole(bytes32,address)":"2f2ff15d","hasBridgeRole(address)":"ea134071","hasPermission(address,uint256)":"8d944fd9","hasRole(bytes32,address)":"91d14854","isApprovedForAll(address,address)":"e985e9c5","lock(address,address,uint256)":"7750c9f0","mint(address,uint256)":"40c10f19","name()":"06fdde03","obtainBalance(address)":"3ae9449d","onERC721Received(address,uint256,bytes)":"f0b9e5ba","ownerOf(uint256)":"6352211e","renounceRole(bytes32,address)":"36568abe","revokeRole(bytes32,address)":"d547741f","safeTransferFrom(address,address,uint256)":"42842e0e","safeTransferFrom(address,address,uint256,bytes)":"b88d4fde","setApprovalForAll(address,bool)":"a22cb465","supportsInterface(bytes4)":"01ffc9a7","symbol()":"95d89b41","tokenURI(uint256)":"c87b56dd","transferFrom(address,address,uint256)":"23b872dd","unlock(address,address,uint256)":"59508f8f"},"id":19}