{"abi":[{"type":"constructor","inputs":[{"name":"_owner","type":"address","internalType":"address"}],"stateMutability":"nonpayable"},{"type":"function","name":"BRIDGE_ROLE","inputs":[],"outputs":[{"name":"","type":"bytes32","internalType":"bytes32"}],"stateMutability":"view"},{"type":"function","name":"DEFAULT_ADMIN_ROLE","inputs":[],"outputs":[{"name":"","type":"bytes32","internalType":"bytes32"}],"stateMutability":"view"},{"type":"function","name":"OWNER_ROLE","inputs":[],"outputs":[{"name":"","type":"bytes32","internalType":"bytes32"}],"stateMutability":"view"},{"type":"function","name":"approve","inputs":[{"name":"to","type":"address","internalType":"address"},{"name":"tokenId","type":"uint256","internalType":"uint256"}],"outputs":[],"stateMutability":"nonpayable"},{"type":"function","name":"assign","inputs":[{"name":"to","type":"address","internalType":"address"},{"name":"tokenId","type":"uint256","internalType":"uint256"}],"outputs":[{"name":"success","type":"bool","internalType":"bool"}],"stateMutability":"nonpayable"},{"type":"function","name":"balanceOf","inputs":[{"name":"owner","type":"address","internalType":"address"}],"outputs":[{"name":"","type":"uint256","internalType":"uint256"}],"stateMutability":"view"},{"type":"function","name":"burn","inputs":[{"name":"tokenId","type":"uint256","internalType":"uint256"}],"outputs":[{"name":"success","type":"bool","internalType":"bool"}],"stateMutability":"nonpayable"},{"type":"function","name":"getApproved","inputs":[{"name":"tokenId","type":"uint256","internalType":"uint256"}],"outputs":[{"name":"","type":"address","internalType":"address"}],"stateMutability":"view"},{"type":"function","name":"getRoleAdmin","inputs":[{"name":"role","type":"bytes32","internalType":"bytes32"}],"outputs":[{"name":"","type":"bytes32","internalType":"bytes32"}],"stateMutability":"view"},{"type":"function","name":"grantBridgeRole","inputs":[{"name":"account","type":"address","internalType":"address"}],"outputs":[{"name":"success","type":"bool","internalType":"bool"}],"stateMutability":"nonpayable"},{"type":"function","name":"grantRole","inputs":[{"name":"role","type":"bytes32","internalType":"bytes32"},{"name":"account","type":"address","internalType":"address"}],"outputs":[],"stateMutability":"nonpayable"},{"type":"function","name":"hasBridgeRole","inputs":[{"name":"account","type":"address","internalType":"address"}],"outputs":[{"name":"success","type":"bool","internalType":"bool"}],"stateMutability":"view"},{"type":"function","name":"hasPermission","inputs":[{"name":"account","type":"address","internalType":"address"},{"name":"tokenId","type":"uint256","internalType":"uint256"}],"outputs":[{"name":"success","type":"bool","internalType":"bool"}],"stateMutability":"nonpayable"},{"type":"function","name":"hasRole","inputs":[{"name":"role","type":"bytes32","internalType":"bytes32"},{"name":"account","type":"address","internalType":"address"}],"outputs":[{"name":"","type":"bool","internalType":"bool"}],"stateMutability":"view"},{"type":"function","name":"isApprovedForAll","inputs":[{"name":"owner","type":"address","internalType":"address"},{"name":"operator","type":"address","internalType":"address"}],"outputs":[{"name":"","type":"bool","internalType":"bool"}],"stateMutability":"view"},{"type":"function","name":"lock","inputs":[{"name":"from","type":"address","internalType":"address"},{"name":"to","type":"address","internalType":"address"},{"name":"tokenId","type":"uint256","internalType":"uint256"}],"outputs":[{"name":"success","type":"bool","internalType":"bool"}],"stateMutability":"nonpayable"},{"type":"function","name":"mint","inputs":[{"name":"account","type":"address","internalType":"address"},{"name":"tokenId","type":"uint256","internalType":"uint256"}],"outputs":[{"name":"success","type":"bool","internalType":"bool"}],"stateMutability":"nonpayable"},{"type":"function","name":"name","inputs":[],"outputs":[{"name":"","type":"string","internalType":"string"}],"stateMutability":"view"},{"type":"function","name":"obtainBalance","inputs":[{"name":"account","type":"address","internalType":"address"}],"outputs":[{"name":"balance","type":"uint256","internalType":"uint256"}],"stateMutability":"view"},{"type":"function","name":"onERC721Received","inputs":[{"name":"operator","type":"address","internalType":"address"},{"name":"from","type":"address","internalType":"address"},{"name":"tokenId","type":"uint256","internalType":"uint256"},{"name":"data","type":"bytes","internalType":"bytes"}],"outputs":[{"name":"","type":"bytes4","internalType":"bytes4"}],"stateMutability":"nonpayable"},{"type":"function","name":"ownerOf","inputs":[{"name":"tokenId","type":"uint256","internalType":"uint256"}],"outputs":[{"name":"","type":"address","internalType":"address"}],"stateMutability":"view"},{"type":"function","name":"renounceRole","inputs":[{"name":"role","type":"bytes32","internalType":"bytes32"},{"name":"callerConfirmation","type":"address","internalType":"address"}],"outputs":[],"stateMutability":"nonpayable"},{"type":"function","name":"revokeRole","inputs":[{"name":"role","type":"bytes32","internalType":"bytes32"},{"name":"account","type":"address","internalType":"address"}],"outputs":[],"stateMutability":"nonpayable"},{"type":"function","name":"safeTransferFrom","inputs":[{"name":"from","type":"address","internalType":"address"},{"name":"to","type":"address","internalType":"address"},{"name":"tokenId","type":"uint256","internalType":"uint256"}],"outputs":[],"stateMutability":"nonpayable"},{"type":"function","name":"safeTransferFrom","inputs":[{"name":"from","type":"address","internalType":"address"},{"name":"to","type":"address","internalType":"address"},{"name":"tokenId","type":"uint256","internalType":"uint256"},{"name":"data","type":"bytes","internalType":"bytes"}],"outputs":[],"stateMutability":"nonpayable"},{"type":"function","name":"setApprovalForAll","inputs":[{"name":"operator","type":"address","internalType":"address"},{"name":"approved","type":"bool","internalType":"bool"}],"outputs":[],"stateMutability":"nonpayable"},{"type":"function","name":"supportsInterface","inputs":[{"name":"interfaceId","type":"bytes4","internalType":"bytes4"}],"outputs":[{"name":"","type":"bool","internalType":"bool"}],"stateMutability":"view"},{"type":"function","name":"symbol","inputs":[],"outputs":[{"name":"","type":"string","internalType":"string"}],"stateMutability":"view"},{"type":"function","name":"tokenURI","inputs":[{"name":"tokenId","type":"uint256","internalType":"uint256"}],"outputs":[{"name":"","type":"string","internalType":"string"}],"stateMutability":"view"},{"type":"function","name":"transferFrom","inputs":[{"name":"from","type":"address","internalType":"address"},{"name":"to","type":"address","internalType":"address"},{"name":"tokenId","type":"uint256","internalType":"uint256"}],"outputs":[],"stateMutability":"nonpayable"},{"type":"function","name":"unlock","inputs":[{"name":"from","type":"address","internalType":"address"},{"name":"to","type":"address","internalType":"address"},{"name":"tokenId","type":"uint256","internalType":"uint256"}],"outputs":[{"name":"success","type":"bool","internalType":"bool"}],"stateMutability":"nonpayable"},{"type":"event","name":"Approval","inputs":[{"name":"owner","type":"address","indexed":true,"internalType":"address"},{"name":"approved","type":"address","indexed":true,"internalType":"address"},{"name":"tokenId","type":"uint256","indexed":true,"internalType":"uint256"}],"anonymous":false},{"type":"event","name":"ApprovalForAll","inputs":[{"name":"owner","type":"address","indexed":true,"internalType":"address"},{"name":"operator","type":"address","indexed":true,"internalType":"address"},{"name":"approved","type":"bool","indexed":false,"internalType":"bool"}],"anonymous":false},{"type":"event","name":"RoleAdminChanged","inputs":[{"name":"role","type":"bytes32","indexed":true,"internalType":"bytes32"},{"name":"previousAdminRole","type":"bytes32","indexed":true,"internalType":"bytes32"},{"name":"newAdminRole","type":"bytes32","indexed":true,"internalType":"bytes32"}],"anonymous":false},{"type":"event","name":"RoleGranted","inputs":[{"name":"role","type":"bytes32","indexed":true,"internalType":"bytes32"},{"name":"account","type":"address","indexed":true,"internalType":"address"},{"name":"sender","type":"address","indexed":true,"internalType":"address"}],"anonymous":false},{"type":"event","name":"RoleRevoked","inputs":[{"name":"role","type":"bytes32","indexed":true,"internalType":"bytes32"},{"name":"account","type":"address","indexed":true,"internalType":"address"},{"name":"sender","type":"address","indexed":true,"internalType":"address"}],"anonymous":false},{"type":"event","name":"Transfer","inputs":[{"name":"from","type":"address","indexed":true,"internalType":"address"},{"name":"to","type":"address","indexed":true,"internalType":"address"},{"name":"tokenId","type":"uint256","indexed":true,"internalType":"uint256"}],"anonymous":false},{"type":"error","name":"AccessControlBadConfirmation","inputs":[]},{"type":"error","name":"AccessControlUnauthorizedAccount","inputs":[{"name":"account","type":"address","internalType":"address"},{"name":"neededRole","type":"bytes32","internalType":"bytes32"}]},{"type":"error","name":"ERC721IncorrectOwner","inputs":[{"name":"sender","type":"address","internalType":"address"},{"name":"tokenId","type":"uint256","internalType":"uint256"},{"name":"owner","type":"address","internalType":"address"}]},{"type":"error","name":"ERC721InsufficientApproval","inputs":[{"name":"operator","type":"address","internalType":"address"},{"name":"tokenId","type":"uint256","internalType":"uint256"}]},{"type":"error","name":"ERC721InvalidApprover","inputs":[{"name":"approver","type":"address","internalType":"address"}]},{"type":"error","name":"ERC721InvalidOperator","inputs":[{"name":"operator","type":"address","internalType":"address"}]},{"type":"error","name":"ERC721InvalidOwner","inputs":[{"name":"owner","type":"address","internalType":"address"}]},{"type":"error","name":"ERC721InvalidReceiver","inputs":[{"name":"receiver","type":"address","internalType":"address"}]},{"type":"error","name":"ERC721InvalidSender","inputs":[{"name":"sender","type":"address","internalType":"address"}]},{"type":"error","name":"ERC721NonexistentToken","inputs":[{"name":"tokenId","type":"uint256","internalType":"uint256"}]},{"type":"error","name":"noPermission","inputs":[{"name":"adr","type":"address","internalType":"address"}]}],"bytecode":{"object":"0x60806040523480156200001157600080fd5b5060405162001c7138038062001c718339810160408190526200003491620001b1565b6040518060400160405280600b81526020016a29a0aa2827232a37b5b2b760a91b8152506040518060400160405280600781526020016614d0551413919560ca1b815250816001908162000089919062000288565b50600262000098828262000288565b505050620000cd7fb19546dff01e856fb3f010c267a7b1c60363cf8a4664e21cc89c26224620214e826200010260201b60201c565b50620000fa7f52ba824bfabc2bcfcdf7f0edbb486ebb05e1836c90e78047efeb949990f72e5f8262000102565b505062000354565b6000828152602081815260408083206001600160a01b038516845290915281205460ff16620001a7576000838152602081815260408083206001600160a01b03861684529091529020805460ff191660011790556200015e3390565b6001600160a01b0316826001600160a01b0316847f2f8788117e7eff1d82e926ec794901d17c78024a50270940304540a733656f0d60405160405180910390a4506001620001ab565b5060005b92915050565b600060208284031215620001c457600080fd5b81516001600160a01b0381168114620001dc57600080fd5b9392505050565b634e487b7160e01b600052604160045260246000fd5b600181811c908216806200020e57607f821691505b6020821081036200022f57634e487b7160e01b600052602260045260246000fd5b50919050565b601f8211156200028357600081815260208120601f850160051c810160208610156200025e5750805b601f850160051c820191505b818110156200027f578281556001016200026a565b5050505b505050565b81516001600160401b03811115620002a457620002a4620001e3565b620002bc81620002b58454620001f9565b8462000235565b602080601f831160018114620002f45760008415620002db5750858301515b600019600386901b1c1916600185901b1785556200027f565b600085815260208120601f198616915b82811015620003255788860151825594840194600190910190840162000304565b5085821015620003445787850151600019600388901b60f8161c191681555b5050505050600190811b01905550565b61190d80620003646000396000f3fe608060405234801561001057600080fd5b50600436106101e55760003560e01c806370a082311161010f578063b5bfddea116100a2578063d547741f11610071578063d547741f14610487578063e58378bb1461049a578063e985e9c5146104c1578063ea134071146104fd57600080fd5b8063b5bfddea14610427578063b88d4fde1461044e578063be76048814610461578063c87b56dd1461047457600080fd5b806395d89b41116100de57806395d89b41146103f1578063a217fddf146103f9578063a22cb46514610401578063a5e99b8e1461041457600080fd5b806370a08231146103945780637750c9f01461036e5780638d944fd9146103a757806391d14854146103ba57600080fd5b80632f2ff15d1161018757806342842e0e1161015657806342842e0e1461034857806342966c681461035b57806359508f8f1461036e5780636352211e1461038157600080fd5b80632f2ff15d146102fc57806336568abe1461030f5780633ae9449d1461032257806340c10f191461033557600080fd5b8063095ea7b3116101c3578063095ea7b314610253578063150b7a021461026857806323b872dd146102b8578063248a9ca3146102cb57600080fd5b806301ffc9a7146101ea57806306fdde0314610213578063081812fc14610228575b600080fd5b6101fe6101f83660046114c6565b50600190565b60405190151581526020015b60405180910390f35b61021b610510565b60405161020a9190611533565b61023b610236366004611546565b6105a2565b6040516001600160a01b03909116815260200161020a565b61026661026136600461157b565b6105cd565b005b6102876102763660046115a5565b630a85bd0160e11b95945050505050565b6040517fffffffff00000000000000000000000000000000000000000000000000000000909116815260200161020a565b6102666102c6366004611640565b6105dc565b6102ee6102d9366004611546565b60009081526020819052604090206001015490565b60405190815260200161020a565b61026661030a36600461167c565b61066c565b61026661031d36600461167c565b610691565b6102ee6103303660046116a8565b6106e2565b6101fe61034336600461157b565b6106f9565b610266610356366004611640565b61070e565b6101fe610369366004611546565b610729565b6101fe61037c366004611640565b61073c565b61023b61038f366004611546565b610753565b6102ee6103a23660046116a8565b61075e565b6101fe6103b536600461157b565b6107bf565b6101fe6103c836600461167c565b6000918252602082815260408084206001600160a01b0393909316845291905290205460ff1690565b61021b610819565b6102ee600081565b61026661040f3660046116c3565b610828565b6101fe6104223660046116a8565b610833565b6102ee7f52ba824bfabc2bcfcdf7f0edbb486ebb05e1836c90e78047efeb949990f72e5f81565b61026661045c366004611715565b610895565b6101fe61046f36600461157b565b6108ac565b61021b610482366004611546565b6108c1565b61026661049536600461167c565b610936565b6102ee7fb19546dff01e856fb3f010c267a7b1c60363cf8a4664e21cc89c26224620214e81565b6101fe6104cf3660046117f1565b6001600160a01b03918216600090815260066020908152604080832093909416825291909152205460ff1690565b6101fe61050b3660046116a8565b61095b565b60606001805461051f9061181b565b80601f016020809104026020016040519081016040528092919081815260200182805461054b9061181b565b80156105985780601f1061056d57610100808354040283529160200191610598565b820191906000526020600020905b81548152906001019060200180831161057b57829003601f168201915b5050505050905090565b60006105ad826109e0565b506000828152600560205260409020546001600160a01b03165b92915050565b6105d8828233610a19565b5050565b6001600160a01b03821661060b57604051633250574960e11b8152600060048201526024015b60405180910390fd5b6000610618838333610a26565b9050836001600160a01b0316816001600160a01b031614610666576040516364283d7b60e01b81526001600160a01b0380861660048301526024820184905282166044820152606401610602565b50505050565b60008281526020819052604090206001015461068781610b2c565b6106668383610b39565b6001600160a01b03811633146106d3576040517f6697b23200000000000000000000000000000000000000000000000000000000815260040160405180910390fd5b6106dd8282610be3565b505050565b6000806106ee8361075e565b90506105c781610c66565b60006107058383610cd9565b50600192915050565b6106dd83838360405180602001604052806000815250610895565b600061073482610d57565b506001919050565b6000610749848484610d92565b5060019392505050565b60006105c7826109e0565b60006001600160a01b0382166107a3576040517f89c62b6400000000000000000000000000000000000000000000000000000000815260006004820152602401610602565b506001600160a01b031660009081526004602052604090205490565b60007f52ba824bfabc2bcfcdf7f0edbb486ebb05e1836c90e78047efeb949990f72e5f6107eb81610b2c565b6000838152600360205260409020546001600160a01b031661080e818686610e42565b506001949350505050565b60606002805461051f9061181b565b6105d8338383610ebf565b60007fb19546dff01e856fb3f010c267a7b1c60363cf8a4664e21cc89c26224620214e61085f81610b2c565b6108897f52ba824bfabc2bcfcdf7f0edbb486ebb05e1836c90e78047efeb949990f72e5f84610b39565b50600191505b50919050565b6108a08484846105dc565b61066684848484610f77565b60006107056108ba83610753565b8484610d92565b60606108cc826109e0565b5060006108e460408051602081019091526000815290565b90506000815111610904576040518060200160405280600081525061092f565b8061090e846110b8565b60405160200161091f92919061184f565b6040516020818303038152906040525b9392505050565b60008281526020819052604090206001015461095181610b2c565b6106668383610be3565b6001600160a01b03811660009081527f7dcd276b72586271b4623598c6b3ecb5f3594881d1da5ce0d28e8f8adbf67787602052604081205460ff16156109a357506001919050565b6040517f1aee145f0000000000000000000000000000000000000000000000000000000081526001600160a01b0383166004820152602401610602565b6000818152600360205260408120546001600160a01b0316806105c757604051637e27328960e01b815260048101849052602401610602565b6106dd8383836001611158565b6000828152600360205260408120546001600160a01b0390811690831615610a5357610a53818486610e42565b6001600160a01b03811615610a9157610a70600085600080611158565b6001600160a01b038116600090815260046020526040902080546000190190555b6001600160a01b03851615610ac0576001600160a01b0385166000908152600460205260409020805460010190555b600084815260036020526040808220805473ffffffffffffffffffffffffffffffffffffffff19166001600160a01b0389811691821790925591518793918516917fddf252ad1be2c89b69c2b068fc378daa952ba7f163c4a11628f55a4df523b3ef91a4949350505050565b610b3681336112a3565b50565b6000828152602081815260408083206001600160a01b038516845290915281205460ff16610bdb576000838152602081815260408083206001600160a01b03861684529091529020805460ff19166001179055610b933390565b6001600160a01b0316826001600160a01b0316847f2f8788117e7eff1d82e926ec794901d17c78024a50270940304540a733656f0d60405160405180910390a45060016105c7565b5060006105c7565b6000828152602081815260408083206001600160a01b038516845290915281205460ff1615610bdb576000838152602081815260408083206001600160a01b0386168085529252808320805460ff1916905551339286917ff6391f5c32d9c69d2a47ea670b442974b53935d1edc7fd64eb21e047a839171b9190a45060016105c7565b610b3681604051602401610c7c91815260200190565b60408051601f198184030181529190526020810180517bffffffffffffffffffffffffffffffffffffffffffffffffffffffff167ff5b1bba90000000000000000000000000000000000000000000000000000000017905261130f565b6001600160a01b038216610d0357604051633250574960e11b815260006004820152602401610602565b6000610d1183836000610a26565b90506001600160a01b038116156106dd576040517f73c6ac6e00000000000000000000000000000000000000000000000000000000815260006004820152602401610602565b6000610d666000836000610a26565b90506001600160a01b0381166105d857604051637e27328960e01b815260048101839052602401610602565b6001600160a01b038216610dbc57604051633250574960e11b815260006004820152602401610602565b6000610dca83836000610a26565b90506001600160a01b038116610df657604051637e27328960e01b815260048101839052602401610602565b836001600160a01b0316816001600160a01b031614610666576040516364283d7b60e01b81526001600160a01b0380861660048301526024820184905282166044820152606401610602565b610e4d838383611330565b6106dd576001600160a01b038316610e7b57604051637e27328960e01b815260048101829052602401610602565b6040517f177e802f0000000000000000000000000000000000000000000000000000000081526001600160a01b038316600482015260248101829052604401610602565b6001600160a01b038216610f0a576040517f5b08ba180000000000000000000000000000000000000000000000000000000081526001600160a01b0383166004820152602401610602565b6001600160a01b03838116600081815260066020908152604080832094871680845294825291829020805460ff191686151590811790915591519182527f17307eab39ab6107e8899845ad3d59bd9653f200f220920489ca2b5937696c31910160405180910390a3505050565b6001600160a01b0383163b1561066657604051630a85bd0160e11b81526001600160a01b0384169063150b7a0290610fb990339088908790879060040161187e565b6020604051808303816000875af1925050508015610ff4575060408051601f3d908101601f19168201909252610ff1918101906118ba565b60015b61105d573d808015611022576040519150601f19603f3d011682016040523d82523d6000602084013e611027565b606091505b50805160000361105557604051633250574960e11b81526001600160a01b0385166004820152602401610602565b805181602001fd5b7fffffffff000000000000000000000000000000000000000000000000000000008116630a85bd0160e11b146110b157604051633250574960e11b81526001600160a01b0385166004820152602401610602565b5050505050565b606060006110c5836113b6565b600101905060008167ffffffffffffffff8111156110e5576110e56116ff565b6040519080825280601f01601f19166020018201604052801561110f576020820181803683370190505b5090508181016020015b600019017f3031323334353637383961626364656600000000000000000000000000000000600a86061a8153600a850494508461111957509392505050565b808061116c57506001600160a01b03821615155b1561126657600061117c846109e0565b90506001600160a01b038316158015906111a85750826001600160a01b0316816001600160a01b031614155b80156111da57506001600160a01b0380821660009081526006602090815260408083209387168352929052205460ff16155b1561121c576040517fa9fbf51f0000000000000000000000000000000000000000000000000000000081526001600160a01b0384166004820152602401610602565b81156112645783856001600160a01b0316826001600160a01b03167f8c5be1e5ebec7d5bd14f71427d1e84f3dd0314c0f7b2291e5b200ac8c7c3b92560405160405180910390a45b505b50506000908152600560205260409020805473ffffffffffffffffffffffffffffffffffffffff19166001600160a01b0392909216919091179055565b6000828152602081815260408083206001600160a01b038516845290915290205460ff166105d8576040517fe2517d3f0000000000000000000000000000000000000000000000000000000081526001600160a01b038216600482015260248101839052604401610602565b80516a636f6e736f6c652e6c6f67602083016000808483855afa5050505050565b60006001600160a01b038316158015906113ae5750826001600160a01b0316846001600160a01b0316148061138a57506001600160a01b0380851660009081526006602090815260408083209387168352929052205460ff165b806113ae57506000828152600560205260409020546001600160a01b038481169116145b949350505050565b6000807a184f03e93ff9f4daa797ed6e38ed64bf6a1f01000000000000000083106113ff577a184f03e93ff9f4daa797ed6e38ed64bf6a1f010000000000000000830492506040015b6d04ee2d6d415b85acef8100000000831061142b576d04ee2d6d415b85acef8100000000830492506020015b662386f26fc10000831061144957662386f26fc10000830492506010015b6305f5e1008310611461576305f5e100830492506008015b612710831061147557612710830492506004015b60648310611487576064830492506002015b600a83106105c75760010192915050565b7fffffffff0000000000000000000000000000000000000000000000000000000081168114610b3657600080fd5b6000602082840312156114d857600080fd5b813561092f81611498565b60005b838110156114fe5781810151838201526020016114e6565b50506000910152565b6000815180845261151f8160208601602086016114e3565b601f01601f19169290920160200192915050565b60208152600061092f6020830184611507565b60006020828403121561155857600080fd5b5035919050565b80356001600160a01b038116811461157657600080fd5b919050565b6000806040838503121561158e57600080fd5b6115978361155f565b946020939093013593505050565b6000806000806000608086880312156115bd57600080fd5b6115c68661155f565b94506115d46020870161155f565b935060408601359250606086013567ffffffffffffffff808211156115f857600080fd5b818801915088601f83011261160c57600080fd5b81358181111561161b57600080fd5b89602082850101111561162d57600080fd5b9699959850939650602001949392505050565b60008060006060848603121561165557600080fd5b61165e8461155f565b925061166c6020850161155f565b9150604084013590509250925092565b6000806040838503121561168f57600080fd5b8235915061169f6020840161155f565b90509250929050565b6000602082840312156116ba57600080fd5b61092f8261155f565b600080604083850312156116d657600080fd5b6116df8361155f565b9150602083013580151581146116f457600080fd5b809150509250929050565b634e487b7160e01b600052604160045260246000fd5b6000806000806080858703121561172b57600080fd5b6117348561155f565b93506117426020860161155f565b925060408501359150606085013567ffffffffffffffff8082111561176657600080fd5b818701915087601f83011261177a57600080fd5b81358181111561178c5761178c6116ff565b604051601f8201601f19908116603f011681019083821181831017156117b4576117b46116ff565b816040528281528a60208487010111156117cd57600080fd5b82602086016020830137600060208483010152809550505050505092959194509250565b6000806040838503121561180457600080fd5b61180d8361155f565b915061169f6020840161155f565b600181811c9082168061182f57607f821691505b60208210810361088f57634e487b7160e01b600052602260045260246000fd5b600083516118618184602088016114e3565b8351908301906118758183602088016114e3565b01949350505050565b60006001600160a01b038087168352808616602084015250836040830152608060608301526118b06080830184611507565b9695505050505050565b6000602082840312156118cc57600080fd5b815161092f8161149856fea2646970667358221220ba73971376e9f1381d2e1086ecfc5bec418eea0852dc8055e5a31b6e2175a38564736f6c63430008140033","linkReferences":{}},"methodIdentifiers":{"BRIDGE_ROLE()":"b5bfddea","DEFAULT_ADMIN_ROLE()":"a217fddf","OWNER_ROLE()":"e58378bb","approve(address,uint256)":"095ea7b3","assign(address,uint256)":"be760488","balanceOf(address)":"70a08231","burn(uint256)":"42966c68","getApproved(uint256)":"081812fc","getRoleAdmin(bytes32)":"248a9ca3","grantBridgeRole(address)":"a5e99b8e","grantRole(bytes32,address)":"2f2ff15d","hasBridgeRole(address)":"ea134071","hasPermission(address,uint256)":"8d944fd9","hasRole(bytes32,address)":"91d14854","isApprovedForAll(address,address)":"e985e9c5","lock(address,address,uint256)":"7750c9f0","mint(address,uint256)":"40c10f19","name()":"06fdde03","obtainBalance(address)":"3ae9449d","onERC721Received(address,address,uint256,bytes)":"150b7a02","ownerOf(uint256)":"6352211e","renounceRole(bytes32,address)":"36568abe","revokeRole(bytes32,address)":"d547741f","safeTransferFrom(address,address,uint256)":"42842e0e","safeTransferFrom(address,address,uint256,bytes)":"b88d4fde","setApprovalForAll(address,bool)":"a22cb465","supportsInterface(bytes4)":"01ffc9a7","symbol()":"95d89b41","tokenURI(uint256)":"c87b56dd","transferFrom(address,address,uint256)":"23b872dd","unlock(address,address,uint256)":"59508f8f"},"id":19}