{"abi":[{"type":"constructor","inputs":[{"name":"_bridge_address","type":"address","internalType":"address"}],"stateMutability":"nonpayable"},{"type":"function","name":"NFT_IDs","inputs":[{"name":"","type":"string","internalType":"string"},{"name":"","type":"uint256","internalType":"uint256"}],"outputs":[{"name":"","type":"bool","internalType":"bool"}],"stateMutability":"view"},{"type":"function","name":"assign","inputs":[{"name":"tokenId","type":"string","internalType":"string"},{"name":"receiver_account","type":"address","internalType":"address"},{"name":"assetAttribute","type":"uint256","internalType":"uint256"}],"outputs":[{"name":"success","type":"bool","internalType":"bool"}],"stateMutability":"nonpayable"},{"type":"function","name":"assign","inputs":[{"name":"tokenId","type":"string","internalType":"string"},{"name":"receiver_account","type":"address","internalType":"address"},{"name":"assetAttribute","type":"uint256","internalType":"uint256"},{"name":"uniqueDescriptor","type":"uint256","internalType":"uint256"}],"outputs":[{"name":"success","type":"bool","internalType":"bool"}],"stateMutability":"nonpayable"},{"type":"function","name":"bridge_address","inputs":[],"outputs":[{"name":"","type":"address","internalType":"address"}],"stateMutability":"view"},{"type":"function","name":"burn","inputs":[{"name":"tokenId","type":"string","internalType":"string"},{"name":"assetAttribute","type":"uint256","internalType":"uint256"},{"name":"uniqueDescriptor","type":"uint256","internalType":"uint256"}],"outputs":[{"name":"success","type":"bool","internalType":"bool"}],"stateMutability":"nonpayable"},{"type":"function","name":"burn","inputs":[{"name":"tokenId","type":"string","internalType":"string"},{"name":"assetAttribute","type":"uint256","internalType":"uint256"}],"outputs":[{"name":"success","type":"bool","internalType":"bool"}],"stateMutability":"nonpayable"},{"type":"function","name":"getAllAssetsIDs","inputs":[],"outputs":[{"name":"","type":"string[]","internalType":"string[]"}],"stateMutability":"view"},{"type":"function","name":"getToken","inputs":[{"name":"tokenId","type":"string","internalType":"string"},{"name":"assetAttribute","type":"uint256","internalType":"uint256"}],"outputs":[{"name":"token","type":"tuple","internalType":"struct Token","components":[{"name":"contractName","type":"string","internalType":"string"},{"name":"contractAddress","type":"address","internalType":"address"},{"name":"tokenType","type":"uint8","internalType":"enum TokenType"},{"name":"tokenId","type":"string","internalType":"string"},{"name":"referenceId","type":"string","internalType":"string"},{"name":"owner","type":"address","internalType":"address"},{"name":"amount","type":"uint256","internalType":"uint256"},{"name":"ercTokenStandard","type":"uint8","internalType":"enum ERCTokenStandard"}]}],"stateMutability":"view"},{"type":"function","name":"getToken","inputs":[{"name":"tokenId","type":"string","internalType":"string"},{"name":"assetAttribute","type":"uint256","internalType":"uint256"},{"name":"uniqueDescriptor","type":"uint256","internalType":"uint256"}],"outputs":[{"name":"token","type":"tuple","internalType":"struct Token","components":[{"name":"contractName","type":"string","internalType":"string"},{"name":"contractAddress","type":"address","internalType":"address"},{"name":"tokenType","type":"uint8","internalType":"enum TokenType"},{"name":"tokenId","type":"string","internalType":"string"},{"name":"referenceId","type":"string","internalType":"string"},{"name":"owner","type":"address","internalType":"address"},{"name":"amount","type":"uint256","internalType":"uint256"},{"name":"ercTokenStandard","type":"uint8","internalType":"enum ERCTokenStandard"}]}],"stateMutability":"view"},{"type":"function","name":"getToken","inputs":[{"name":"tokenId","type":"string","internalType":"string"}],"outputs":[{"name":"token","type":"tuple","internalType":"struct Token","components":[{"name":"contractName","type":"string","internalType":"string"},{"name":"contractAddress","type":"address","internalType":"address"},{"name":"tokenType","type":"uint8","internalType":"enum TokenType"},{"name":"tokenId","type":"string","internalType":"string"},{"name":"referenceId","type":"string","internalType":"string"},{"name":"owner","type":"address","internalType":"address"},{"name":"amount","type":"uint256","internalType":"uint256"},{"name":"ercTokenStandard","type":"uint8","internalType":"enum ERCTokenStandard"}]}],"stateMutability":"view"},{"type":"function","name":"lock","inputs":[{"name":"tokenId","type":"string","internalType":"string"},{"name":"assetAttribute","type":"uint256","internalType":"uint256"}],"outputs":[{"name":"success","type":"bool","internalType":"bool"}],"stateMutability":"nonpayable"},{"type":"function","name":"lock","inputs":[{"name":"tokenId","type":"string","internalType":"string"},{"name":"assetAttribute","type":"uint256","internalType":"uint256"},{"name":"uniqueDescriptor","type":"uint256","internalType":"uint256"}],"outputs":[{"name":"success","type":"bool","internalType":"bool"}],"stateMutability":"nonpayable"},{"type":"function","name":"mint","inputs":[{"name":"tokenId","type":"string","internalType":"string"},{"name":"assetAttribute","type":"uint256","internalType":"uint256"}],"outputs":[{"name":"success","type":"bool","internalType":"bool"}],"stateMutability":"nonpayable"},{"type":"function","name":"mint","inputs":[{"name":"tokenId","type":"string","internalType":"string"},{"name":"assetAttribute","type":"uint256","internalType":"uint256"},{"name":"uniqueDescriptor","type":"uint256","internalType":"uint256"}],"outputs":[{"name":"success","type":"bool","internalType":"bool"}],"stateMutability":"nonpayable"},{"type":"function","name":"onERC721Received","inputs":[{"name":"","type":"address","internalType":"address"},{"name":"","type":"address","internalType":"address"},{"name":"","type":"uint256","internalType":"uint256"},{"name":"","type":"bytes","internalType":"bytes"}],"outputs":[{"name":"","type":"bytes4","internalType":"bytes4"}],"stateMutability":"pure"},{"type":"function","name":"owner","inputs":[],"outputs":[{"name":"","type":"address","internalType":"address"}],"stateMutability":"view"},{"type":"function","name":"renounceOwnership","inputs":[],"outputs":[],"stateMutability":"nonpayable"},{"type":"function","name":"tokens","inputs":[{"name":"","type":"string","internalType":"string"}],"outputs":[{"name":"contractName","type":"string","internalType":"string"},{"name":"contractAddress","type":"address","internalType":"address"},{"name":"tokenType","type":"uint8","internalType":"enum TokenType"},{"name":"tokenId","type":"string","internalType":"string"},{"name":"referenceId","type":"string","internalType":"string"},{"name":"owner","type":"address","internalType":"address"},{"name":"amount","type":"uint256","internalType":"uint256"},{"name":"ercTokenStandard","type":"uint8","internalType":"enum ERCTokenStandard"}],"stateMutability":"view"},{"type":"function","name":"tokensInteractions","inputs":[{"name":"","type":"string","internalType":"string"},{"name":"","type":"uint8","internalType":"enum InteractionType"}],"outputs":[{"name":"interactionType","type":"uint8","internalType":"enum InteractionType"},{"name":"available","type":"bool","internalType":"bool"}],"stateMutability":"view"},{"type":"function","name":"transferOwnership","inputs":[{"name":"newOwner","type":"address","internalType":"address"}],"outputs":[],"stateMutability":"nonpayable"},{"type":"function","name":"unlock","inputs":[{"name":"tokenId","type":"string","internalType":"string"},{"name":"assetAttribute","type":"uint256","internalType":"uint256"},{"name":"uniqueDescriptor","type":"uint256","internalType":"uint256"}],"outputs":[{"name":"success","type":"bool","internalType":"bool"}],"stateMutability":"nonpayable"},{"type":"function","name":"unlock","inputs":[{"name":"tokenId","type":"string","internalType":"string"},{"name":"assetAttribute","type":"uint256","internalType":"uint256"}],"outputs":[{"name":"success","type":"bool","internalType":"bool"}],"stateMutability":"nonpayable"},{"type":"function","name":"unwrap","inputs":[{"name":"tokenId","type":"string","internalType":"string"}],"outputs":[{"name":"success","type":"bool","internalType":"bool"}],"stateMutability":"nonpayable"},{"type":"function","name":"wrap","inputs":[{"name":"contractName","type":"string","internalType":"string"},{"name":"contractAddress","type":"address","internalType":"address"},{"name":"tokenType","type":"uint8","internalType":"enum TokenType"},{"name":"tokenId","type":"string","internalType":"string"},{"name":"referenceId","type":"string","internalType":"string"},{"name":"owner","type":"address","internalType":"address"},{"name":"interactions","type":"tuple[]","internalType":"struct InteractionSignature[]","components":[{"name":"interactionType","type":"uint8","internalType":"enum InteractionType"},{"name":"functionsSignature","type":"string[]","internalType":"string[]"},{"name":"variables","type":"uint8[][]","internalType":"enum AssetParameterIdentifier[][]"},{"name":"available","type":"bool","internalType":"bool"}]},{"name":"ercTokenStandard","type":"uint8","internalType":"enum ERCTokenStandard"}],"outputs":[{"name":"wrapSuccess","type":"bool","internalType":"bool"}],"stateMutability":"nonpayable"},{"type":"function","name":"wrap","inputs":[{"name":"contractName","type":"string","internalType":"string"},{"name":"contractAddress","type":"address","internalType":"address"},{"name":"tokenType","type":"uint8","internalType":"enum TokenType"},{"name":"tokenId","type":"string","internalType":"string"},{"name":"referenceId","type":"string","internalType":"string"},{"name":"owner","type":"address","internalType":"address"},{"name":"ercTokenStandard","type":"uint8","internalType":"enum ERCTokenStandard"}],"outputs":[{"name":"wrapSuccess","type":"bool","internalType":"bool"}],"stateMutability":"nonpayable"},{"type":"event","name":"Approve","inputs":[{"name":"tokenId","type":"string","indexed":true,"internalType":"string"},{"name":"spender","type":"address","indexed":false,"internalType":"address"},{"name":"amount","type":"uint256","indexed":false,"internalType":"uint256"}],"anonymous":false},{"type":"event","name":"Assign","inputs":[{"name":"tokenId","type":"string","indexed":true,"internalType":"string"},{"name":"receiver_account","type":"address","indexed":false,"internalType":"address"},{"name":"amount","type":"uint256","indexed":false,"internalType":"uint256"}],"anonymous":false},{"type":"event","name":"Burn","inputs":[{"name":"tokenId","type":"string","indexed":true,"internalType":"string"},{"name":"amount","type":"uint256","indexed":false,"internalType":"uint256"}],"anonymous":false},{"type":"event","name":"Changed","inputs":[{"name":"id","type":"string","indexed":true,"internalType":"string"},{"name":"value","type":"bytes[]","indexed":false,"internalType":"bytes[]"}],"anonymous":false},{"type":"event","name":"Lock","inputs":[{"name":"tokenId","type":"string","indexed":true,"internalType":"string"},{"name":"amount","type":"uint256","indexed":false,"internalType":"uint256"}],"anonymous":false},{"type":"event","name":"Mint","inputs":[{"name":"tokenId","type":"string","indexed":true,"internalType":"string"},{"name":"amount","type":"uint256","indexed":false,"internalType":"uint256"}],"anonymous":false},{"type":"event","name":"OwnershipTransferred","inputs":[{"name":"previousOwner","type":"address","indexed":true,"internalType":"address"},{"name":"newOwner","type":"address","indexed":true,"internalType":"address"}],"anonymous":false},{"type":"event","name":"Unlock","inputs":[{"name":"tokenId","type":"string","indexed":true,"internalType":"string"},{"name":"amount","type":"uint256","indexed":false,"internalType":"uint256"}],"anonymous":false},{"type":"event","name":"Unwrap","inputs":[{"name":"tokenId","type":"string","indexed":true,"internalType":"string"}],"anonymous":false},{"type":"event","name":"Wrap","inputs":[{"name":"tokenId","type":"string","indexed":true,"internalType":"string"},{"name":"contractName","type":"string","indexed":false,"internalType":"string"},{"name":"contractAddress","type":"address","indexed":false,"internalType":"address"},{"name":"tokenType","type":"uint8","indexed":false,"internalType":"enum TokenType"},{"name":"owner","type":"address","indexed":false,"internalType":"address"}],"anonymous":false},{"type":"error","name":"InsuficientAmountLocked","inputs":[{"name":"tokenId","type":"string","internalType":"string"},{"name":"amount","type":"uint256","internalType":"uint256"}]},{"type":"error","name":"OwnableInvalidOwner","inputs":[{"name":"owner","type":"address","internalType":"address"}]},{"type":"error","name":"OwnableUnauthorizedAccount","inputs":[{"name":"account","type":"address","internalType":"address"}]},{"type":"error","name":"TokenAlreadyWrapped","inputs":[{"name":"tokenId","type":"string","internalType":"string"}]},{"type":"error","name":"TokenLocked","inputs":[{"name":"tokenId","type":"string","internalType":"string"}]},{"type":"error","name":"TokenNotAvailable","inputs":[{"name":"tokenId","type":"string","internalType":"string"}]},{"type":"error","name":"TokenNotSupported","inputs":[{"name":"tokenId","type":"string","internalType":"string"}]}],"bytecode":{"object":"0x60806040523480156200001157600080fd5b5060405162004fc538038062004fc58339810160408190526200003491620000e6565b806001600160a01b0381166200006457604051631e4fbdf760e01b81526000600482015260240160405180910390fd5b6200006f8162000096565b50600580546001600160a01b0319166001600160a01b039290921691909117905562000118565b600080546001600160a01b038381166001600160a01b0319831681178455604051919092169283917f8be0079c531659141344cd1fd0a4f28419497f9722a3daafe3b4186f6b6457e09190a35050565b600060208284031215620000f957600080fd5b81516001600160a01b03811681146200011157600080fd5b9392505050565b614e9d80620001286000396000f3fe608060405234801561001057600080fd5b50600436106101a35760003560e01c8063715018a6116100ee578063c1733f6811610097578063e1efb59611610071578063e1efb596146103d8578063e4c58bf2146103eb578063ea8f547f146103fe578063f2fde38b1461045557600080fd5b8063c1733f681461039f578063d9cf884c146103b2578063dbf15639146103c557600080fd5b8063a1bc17c5116100c8578063a1bc17c514610366578063b48272cc14610379578063be4dac981461038c57600080fd5b8063715018a6146103385780637d61c2ee146103425780638da5cb5b1461035557600080fd5b80631c635ded116101505780634534ba171161012a5780634534ba17146102fd5780635137b8a71461031057806353ce98891461032557600080fd5b80631c635ded146102b7578063324980b5146102ca578063433f60ac146102ea57600080fd5b80631255c189116101815780631255c1891461020a578063150b7a021461023557806319d09bc91461027957600080fd5b806302c7bd96146101a857806304c2320b146101d0578063056b01ce146101f7575b600080fd5b6101bb6101b636600461410b565b610468565b60405190151581526020015b60405180910390f35b6101e36101de366004614159565b610489565b6040516101c7989796959493929190614220565b6101bb610205366004614298565b61068d565b60055461021d906001600160a01b031681565b6040516001600160a01b0390911681526020016101c7565b6102486102433660046142f4565b6106ad565b6040517fffffffff0000000000000000000000000000000000000000000000000000000090911681526020016101c7565b6101bb610287366004614298565b81516020818401810180516003825292820194820194909420919093529091526000908152604090205460ff1681565b6101bb6102c536600461410b565b6106d8565b6102dd6102d8366004614298565b6106ef565b6040516101c7919061438f565b6101bb6102f836600461472c565b610f11565b6101bb61030b36600461481c565b610f38565b610318610f50565b6040516101c79190614873565b6101bb61033336600461410b565b611029565b610340611040565b005b6101bb6103503660046148d5565b611054565b6000546001600160a01b031661021d565b6101bb610374366004614159565b61106c565b6101bb610387366004614298565b6112c6565b6102dd61039a36600461410b565b6112dd565b6102dd6103ad366004614159565b611b00565b6101bb6103c0366004614298565b611b4f565b6101bb6103d3366004614932565b611b66565b6101bb6103e6366004614298565b611bea565b6101bb6103f936600461410b565b611c01565b61044761040c3660046149fd565b8151602081840181018051600282529282019482019490942091909352909152600090815260409020805460039091015460ff918216911682565b6040516101c7929190614a4b565b610340610463366004614a6e565b611c18565b6000610472611c6f565b61047f8484600185611cb5565b90505b9392505050565b80516020818301810180516001825292820191909301209152805481906104af90614a89565b80601f01602080910402602001604051908101604052809291908181526020018280546104db90614a89565b80156105285780601f106104fd57610100808354040283529160200191610528565b820191906000526020600020905b81548152906001019060200180831161050b57829003601f168201915b50505050600183015460028401805493946001600160a01b03831694600160a01b90930460ff1693509161055b90614a89565b80601f016020809104026020016040519081016040528092919081815260200182805461058790614a89565b80156105d45780601f106105a9576101008083540402835291602001916105d4565b820191906000526020600020905b8154815290600101906020018083116105b757829003601f168201915b5050505050908060030180546105e990614a89565b80601f016020809104026020016040519081016040528092919081815260200182805461061590614a89565b80156106625780601f1061063757610100808354040283529160200191610662565b820191906000526020600020905b81548152906001019060200180831161064557829003601f168201915b505050506004830154600584015460069094015492936001600160a01b039091169290915060ff1688565b6000610697611c6f565b6106a48383600080612136565b90505b92915050565b7f150b7a02000000000000000000000000000000000000000000000000000000005b95945050505050565b60006106e2611c6f565b61047f8484600185612136565b61073360408051610100810182526060808252600060208301819052928201839052808201819052608082015260a0810182905260c081018290529060e082015290565b60006001846040516107459190614ac3565b90815260405190819003602001902060019081015460ff600160a01b909104169150816002811115610779576107796141e6565b036109ff5760018460405161078e9190614ac3565b9081526020016040518091039020604051806101000160405290816000820180546107b890614a89565b80601f01602080910402602001604051908101604052809291908181526020018280546107e490614a89565b80156108315780601f1061080657610100808354040283529160200191610831565b820191906000526020600020905b81548152906001019060200180831161081457829003601f168201915b505050918352505060018201546001600160a01b0381166020830152604090910190600160a01b900460ff16600281111561086e5761086e6141e6565b600281111561087f5761087f6141e6565b815260200160028201805461089390614a89565b80601f01602080910402602001604051908101604052809291908181526020018280546108bf90614a89565b801561090c5780601f106108e15761010080835404028352916020019161090c565b820191906000526020600020905b8154815290600101906020018083116108ef57829003601f168201915b5050505050815260200160038201805461092590614a89565b80601f016020809104026020016040519081016040528092919081815260200182805461095190614a89565b801561099e5780601f106109735761010080835404028352916020019161099e565b820191906000526020600020905b81548152906001019060200180831161098157829003601f168201915b50505091835250506004828101546001600160a01b0316602083015260058301546040830152600683015460609092019160ff16908111156109e2576109e26141e6565b60048111156109f3576109f36141e6565b815250509150506106a7565b6002816002811115610a1357610a136141e6565b03610f0a57600384604051610a289190614ac3565b90815260408051602092819003830190206000868152925290205460ff1615610cbb57604051806101000160405280600186604051610a679190614ac3565b9081526040519081900360200190208054610a8190614a89565b80601f0160208091040260200160405190810160405280929190818152602001828054610aad90614a89565b8015610afa5780601f10610acf57610100808354040283529160200191610afa565b820191906000526020600020905b815481529060010190602001808311610add57829003601f168201915b50505050508152602001600186604051610b149190614ac3565b908152602001604051809103902060010160009054906101000a90046001600160a01b03166001600160a01b03168152602001600186604051610b579190614ac3565b9081526040519081900360200190206001015460ff600160a01b909104166002811115610b8657610b866141e6565b8152602001858152602001600186604051610ba19190614ac3565b90815260200160405180910390206003018054610bbd90614a89565b80601f0160208091040260200160405190810160405280929190818152602001828054610be990614a89565b8015610c365780601f10610c0b57610100808354040283529160200191610c36565b820191906000526020600020905b815481529060010190602001808311610c1957829003601f168201915b50505050508152602001600186604051610c509190614ac3565b9081526040805160209281900383019020600401546001600160a01b031683529082018690528051910190600190610c89908890614ac3565b9081526040519081900360200190206006015460ff166004811115610cb057610cb06141e6565b8152509150506106a7565b604051806101000160405280600186604051610cd79190614ac3565b9081526040519081900360200190208054610cf190614a89565b80601f0160208091040260200160405190810160405280929190818152602001828054610d1d90614a89565b8015610d6a5780601f10610d3f57610100808354040283529160200191610d6a565b820191906000526020600020905b815481529060010190602001808311610d4d57829003601f168201915b50505050508152602001600186604051610d849190614ac3565b908152602001604051809103902060010160009054906101000a90046001600160a01b03166001600160a01b03168152602001600186604051610dc79190614ac3565b9081526040519081900360200190206001015460ff600160a01b909104166002811115610df657610df66141e6565b8152602001858152602001600186604051610e119190614ac3565b90815260200160405180910390206003018054610e2d90614a89565b80601f0160208091040260200160405190810160405280929190818152602001828054610e5990614a89565b8015610ea65780601f10610e7b57610100808354040283529160200191610ea6565b820191906000526020600020905b815481529060010190602001808311610e8957829003601f168201915b50505050508152602001600186604051610ec09190614ac3565b908152602001604051809103902060040160009054906101000a90046001600160a01b03166001600160a01b0316815260200160008152602001600186604051610c899190614ac3565b5092915050565b6000610f1b611c6f565b610f2b8989898989898989612466565b9998505050505050505050565b6000610f42611c6f565b61047f8484846000806127d7565b60606004805480602002602001604051908101604052809291908181526020016000905b82821015611020578382906000526020600020018054610f9390614a89565b80601f0160208091040260200160405190810160405280929190818152602001828054610fbf90614a89565b801561100c5780601f10610fe15761010080835404028352916020019161100c565b820191906000526020600020905b815481529060010190602001808311610fef57829003601f168201915b505050505081526020019060010190610f74565b50505050905090565b6000611033611c6f565b61047f8484600185612c3f565b611048611c6f565b61105260006130ca565b565b600061105e611c6f565b6106cf8585856001866127d7565b6000611076611c6f565b60006001600160a01b03166001836040516110919190614ac3565b908152604051908190036020019020600101546001600160a01b0316036110d6578160405163c0bab25f60e01b81526004016110cd9190614adf565b60405180910390fd5b60006001836040516110e89190614ac3565b908152602001604051809103902060050154111561113457816040517fb7d2c10a0000000000000000000000000000000000000000000000000000000081526004016110cd9190614adf565b6111e66001836040516111479190614ac3565b9081526020016040518091039020600201805461116390614a89565b80601f016020809104026020016040519081016040528092919081815260200182805461118f90614a89565b80156111dc5780601f106111b1576101008083540402835291602001916111dc565b820191906000526020600020905b8154815290600101906020018083116111bf57829003601f168201915b5050505050613127565b6001826040516111f69190614ac3565b90815260405190819003602001902060006112118282613e1e565b60018201805474ffffffffffffffffffffffffffffffffffffffffff1916905561123f600283016000613e1e565b61124d600383016000613e1e565b5060048101805473ffffffffffffffffffffffffffffffffffffffff1916905560006005820155600601805460ff1916905560405161128d908390614ac3565b604051908190038120907f3855d31914452a5e7361730662e60834555d7cb26d380140894d85fd0d13b85490600090a25060015b919050565b60006112d0611c6f565b6106a48383600080611cb5565b61132160408051610100810182526060808252600060208301819052928201839052808201819052608082015260a0810182905260c081018290529060e082015290565b60006001856040516113339190614ac3565b90815260405190819003602001902060019081015460ff600160a01b909104169150816002811115611367576113676141e6565b036115ed5760018560405161137c9190614ac3565b9081526020016040518091039020604051806101000160405290816000820180546113a690614a89565b80601f01602080910402602001604051908101604052809291908181526020018280546113d290614a89565b801561141f5780601f106113f45761010080835404028352916020019161141f565b820191906000526020600020905b81548152906001019060200180831161140257829003601f168201915b505050918352505060018201546001600160a01b0381166020830152604090910190600160a01b900460ff16600281111561145c5761145c6141e6565b600281111561146d5761146d6141e6565b815260200160028201805461148190614a89565b80601f01602080910402602001604051908101604052809291908181526020018280546114ad90614a89565b80156114fa5780601f106114cf576101008083540402835291602001916114fa565b820191906000526020600020905b8154815290600101906020018083116114dd57829003601f168201915b5050505050815260200160038201805461151390614a89565b80601f016020809104026020016040519081016040528092919081815260200182805461153f90614a89565b801561158c5780601f106115615761010080835404028352916020019161158c565b820191906000526020600020905b81548152906001019060200180831161156f57829003601f168201915b50505091835250506004828101546001600160a01b0316602083015260058301546040830152600683015460609092019160ff16908111156115d0576115d06141e6565b60048111156115e1576115e16141e6565b81525050915050610482565b6002816002811115611601576116016141e6565b03611af8576003856040516116169190614ac3565b90815260408051602092819003830190206000878152925290205460ff16156118a9576040518061010001604052806001876040516116559190614ac3565b908152604051908190036020019020805461166f90614a89565b80601f016020809104026020016040519081016040528092919081815260200182805461169b90614a89565b80156116e85780601f106116bd576101008083540402835291602001916116e8565b820191906000526020600020905b8154815290600101906020018083116116cb57829003601f168201915b505050505081526020016001876040516117029190614ac3565b908152602001604051809103902060010160009054906101000a90046001600160a01b03166001600160a01b031681526020016001876040516117459190614ac3565b9081526040519081900360200190206001015460ff600160a01b909104166002811115611774576117746141e6565b815260200186815260200160018760405161178f9190614ac3565b908152602001604051809103902060030180546117ab90614a89565b80601f01602080910402602001604051908101604052809291908181526020018280546117d790614a89565b80156118245780601f106117f957610100808354040283529160200191611824565b820191906000526020600020905b81548152906001019060200180831161180757829003601f168201915b5050505050815260200160018760405161183e9190614ac3565b9081526040805160209281900383019020600401546001600160a01b031683529082018790528051910190600190611877908990614ac3565b9081526040519081900360200190206006015460ff16600481111561189e5761189e6141e6565b815250915050610482565b6040518061010001604052806001876040516118c59190614ac3565b90815260405190819003602001902080546118df90614a89565b80601f016020809104026020016040519081016040528092919081815260200182805461190b90614a89565b80156119585780601f1061192d57610100808354040283529160200191611958565b820191906000526020600020905b81548152906001019060200180831161193b57829003601f168201915b505050505081526020016001876040516119729190614ac3565b908152602001604051809103902060010160009054906101000a90046001600160a01b03166001600160a01b031681526020016001876040516119b59190614ac3565b9081526040519081900360200190206001015460ff600160a01b9091041660028111156119e4576119e46141e6565b81526020018681526020016001876040516119ff9190614ac3565b90815260200160405180910390206003018054611a1b90614a89565b80601f0160208091040260200160405190810160405280929190818152602001828054611a4790614a89565b8015611a945780601f10611a6957610100808354040283529160200191611a94565b820191906000526020600020905b815481529060010190602001808311611a7757829003601f168201915b50505050508152602001600187604051611aae9190614ac3565b908152602001604051809103902060040160009054906101000a90046001600160a01b03166001600160a01b03168152602001600081526020016001876040516118779190614ac3565b509392505050565b611b4460408051610100810182526060808252600060208301819052928201839052808201819052608082015260a0810182905260c081018290529060e082015290565b6106a78260006106ef565b6000611b59611c6f565b6106a48383600080612c3f565b6000611b70611c6f565b611bde8888888888886000604051908082528060200260200182016040528015611bd757816020015b611bc46040805160808101909152806000815260606020820181905260408201819052600091015290565b815260200190600190039081611b995790505b5089612466565b98975050505050505050565b6000611bf4611c6f565b6106a48383600080613285565b6000611c0b611c6f565b61047f8484600185613285565b611c20611c6f565b6001600160a01b038116611c63576040517f1e4fbdf7000000000000000000000000000000000000000000000000000000008152600060048201526024016110cd565b611c6c816130ca565b50565b6000546001600160a01b03163314611052576040517f118cdaa70000000000000000000000000000000000000000000000000000000081523360048201526024016110cd565b6000806001600160a01b0316600186604051611cd19190614ac3565b908152604051908190036020019020600101546001600160a01b031603611d0d578460405163c0bab25f60e01b81526004016110cd9190614adf565b60008411611d5d5760405162461bcd60e51b815260206004820152601760248201527f496e76616c69642061737365742061747472696275746500000000000000000060448201526064016110cd565b600083611d6a5784611d6c565b825b90506000600187604051611d809190614ac3565b90815260405190819003602001902060019081015460ff600160a01b909104169150816002811115611db457611db46141e6565b03611ec15785600188604051611dca9190614ac3565b9081526020016040518091039020600501541015611e2a5760405162461bcd60e51b815260206004820152601e60248201527f6275726e206173736574206173736574206973206e6f74206c6f636b6564000060448201526064016110cd565b611e39876001888560006135c8565b611e855760405162461bcd60e51b815260206004820152601660248201527f6275726e2061737365742063616c6c206661696c65640000000000000000000060448201526064016110cd565b85600188604051611e969190614ac3565b90815260200160405180910390206005016000828254611eb69190614b08565b909155506120e09050565b6002816002811115611ed557611ed56141e6565b036120c5576000600188604051611eec9190614ac3565b90815260200160405180910390206005015411611f715760405162461bcd60e51b815260206004820152602360248201527f547279696e6720746f206275726e20616e20756e6163636f756e74656420417360448201527f736574000000000000000000000000000000000000000000000000000000000060648201526084016110cd565b600387604051611f819190614ac3565b908152604080519182900360209081019092206000898152925290205460ff161515600114611ff25760405162461bcd60e51b815260206004820181905260248201527f556e697175652044657363726970746f7220646f6573206e6f7420657869737460448201526064016110cd565b612001876001888560006135c8565b61204d5760405162461bcd60e51b815260206004820152601660248201527f6275726e2061737365742063616c6c206661696c65640000000000000000000060448201526064016110cd565b6001808860405161205e9190614ac3565b9081526020016040518091039020600501600082825461207e9190614b08565b9250508190555060006003886040516120979190614ac3565b908152604080516020928190038301902060008a815292529020805460ff19169115159190911790556120e0565b8660405163c16fc3ad60e01b81526004016110cd9190614adf565b866040516120ee9190614ac3565b604051908190038120878252907fa0237080cf48d9e1fbb9ef1f82e33b11170d047b2b540a73b457d0916d53ee99906020015b60405180910390a25060019695505050505050565b6000806001600160a01b03166001866040516121529190614ac3565b908152604051908190036020019020600101546001600160a01b03160361218e578460405163c0bab25f60e01b81526004016110cd9190614adf565b600084116121de5760405162461bcd60e51b815260206004820152601760248201527f496e76616c69642061737365742061747472696275746500000000000000000060448201526064016110cd565b6000836121eb57846121ed565b825b905060006001876040516122019190614ac3565b90815260405190819003602001902060019081015460ff600160a01b909104169150816002811115612235576122356141e6565b036122be57612249876000888560006135c8565b6122955760405162461bcd60e51b815260206004820152601660248201527f6d696e742061737365742063616c6c206661696c65640000000000000000000060448201526064016110cd565b856001886040516122a69190614ac3565b90815260405190819003602001902060050155612421565b60028160028111156122d2576122d26141e6565b036120c5576003876040516122e79190614ac3565b90815260408051602092819003830190206000898152925290205460ff16156123525760405162461bcd60e51b815260206004820181905260248201527f556e697175652044657363726970746f7220616c72656164792065786973747360448201526064016110cd565b612361876000888560006135c8565b6123ad5760405162461bcd60e51b815260206004820152601660248201527f6d696e742061737365742063616c6c206661696c65640000000000000000000060448201526064016110cd565b600180886040516123be9190614ac3565b908152602001604051809103902060050160008282546123de9190614b1b565b9250508190555060016003886040516123f79190614ac3565b908152604080516020928190038301902060008a815292529020805460ff19169115159190911790555b8660405161242f9190614ac3565b604051908190038120878252907f0a4e1e5035320483d096cf114513007c4eda3853a4dca806da2d9faec60470a690602001612121565b6000806001600160a01b03166001876040516124829190614ac3565b908152604051908190036020019020600101546001600160a01b0316146124d757856040517f67ab23440000000000000000000000000000000000000000000000000000000081526004016110cd9190614adf565b6124e186846138e6565b6040518061010001604052808a8152602001896001600160a01b03168152602001886002811115612514576125146141e6565b8152602001878152602001868152602001856001600160a01b031681526020016000815260200183600481111561254d5761254d6141e6565b8152506001876040516125609190614ac3565b9081526040519081900360200190208151819061257d9082614b7c565b5060208201516001820180546001600160a01b0390921673ffffffffffffffffffffffffffffffffffffffff1983168117825560408501519274ffffffffffffffffffffffffffffffffffffffffff191617600160a01b8360028111156125e6576125e66141e6565b0217905550606082015160028201906125ff9082614b7c565b50608082015160038201906126149082614b7c565b5060a08201516004828101805473ffffffffffffffffffffffffffffffffffffffff19166001600160a01b039093169290921790915560c0830151600583015560e08301516006830180549192909160ff191690600190849081111561267c5761267c6141e6565b02179055509050506002866040516126949190614ac3565b9081526040805160209281900383019020600360008181529190935220015460ff1615612738576126c6866003613a06565b6127385760405162461bcd60e51b815260206004820152603c60248201527f436f6e747261637420646f6573206e6f742068617665207065726d697373696f60448201527f6e20746f20696e74657261637420776974682074686520746f6b656e0000000060648201526084016110cd565b600480546001810182556000919091527f8a35acfbc15ff81a39ae7d344fd709f28e8600b4aa8c65c6b64bfe7fe36bd19b016127748782614b7c565b50856040516127839190614ac3565b60405180910390207f1455a30f034090309f76768ab435a6bd3c547427fc31dbe48477cfb5b9f47dda8a8a8a886040516127c09493929190614c3c565b60405180910390a250600198975050505050505050565b6000806001600160a01b03166001876040516127f39190614ac3565b908152604051908190036020019020600101546001600160a01b03160361282f578560405163c0bab25f60e01b81526004016110cd9190614adf565b6000841161287f5760405162461bcd60e51b815260206004820152601760248201527f496e76616c69642061737365742061747472696275746500000000000000000060448201526064016110cd565b60008361288c578461288e565b825b905060006001886040516128a29190614ac3565b90815260405190819003602001902060019081015460ff600160a01b9091041691508160028111156128d6576128d66141e6565b036129e257856001896040516128ec9190614ac3565b908152602001604051809103902060050154101561294c5760405162461bcd60e51b815260206004820181905260248201527f61737369676e206173736574206173736574206973206e6f74206c6f636b656460448201526064016110cd565b61295a88600288858b6135c8565b6129a65760405162461bcd60e51b815260206004820152601860248201527f61737369676e2061737365742063616c6c206661696c6564000000000000000060448201526064016110cd565b856001896040516129b79190614ac3565b908152602001604051809103902060050160008282546129d79190614b08565b90915550612bda9050565b60028160028111156129f6576129f66141e6565b03612bbf576000600189604051612a0d9190614ac3565b90815260200160405180910390206005015411612a6c5760405162461bcd60e51b815260206004820181905260248201527f41737369676e206e6674202d206173736574206973206e6f74206c6f636b656460448201526064016110cd565b600388604051612a7c9190614ac3565b908152604080519182900360209081019092206000898152925290205460ff161515600114612aed5760405162461bcd60e51b815260206004820181905260248201527f556e697175652044657363726970746f7220646f6573206e6f7420657869737460448201526064016110cd565b612afb88600288858b6135c8565b612b475760405162461bcd60e51b815260206004820152601660248201527f61737369676e206e66742063616c6c206661696c65640000000000000000000060448201526064016110cd565b60018089604051612b589190614ac3565b90815260200160405180910390206005016000828254612b789190614b08565b925050819055506000600389604051612b919190614ac3565b908152604080516020928190038301902060008a815292529020805460ff1916911515919091179055612bda565b8760405163c16fc3ad60e01b81526004016110cd9190614adf565b87604051612be89190614ac3565b604080519182900382206001600160a01b038a16835260208301899052917f0b3112bdbedc0251766a323a5c6ad4df77174bbc08bd61b944815ad9efe8d54c910160405180910390a2506001979650505050505050565b6000806001600160a01b0316600186604051612c5b9190614ac3565b908152604051908190036020019020600101546001600160a01b031603612c97578460405163c0bab25f60e01b81526004016110cd9190614adf565b60008411612ce75760405162461bcd60e51b815260206004820152601760248201527f496e76616c69642061737365742061747472696275746500000000000000000060448201526064016110cd565b600083612cf45784612cf6565b825b90506000600187604051612d0a9190614ac3565b90815260405190819003602001902060019081015460ff600160a01b909104169150816002811115612d3e57612d3e6141e6565b03612e5f5785600188604051612d549190614ac3565b9081526020016040518091039020600501541015612da25786866040517fed579e600000000000000000000000000000000000000000000000000000000081526004016110cd929190614c80565b612db1876005888560006135c8565b612e235760405162461bcd60e51b815260206004820152602160248201527f556e6c6f636b2066756e6769626c652061737365742063616c6c206661696c6560448201527f640000000000000000000000000000000000000000000000000000000000000060648201526084016110cd565b85600188604051612e349190614ac3565b90815260200160405180910390206005016000828254612e549190614b08565b909155506130859050565b6002816002811115612e7357612e736141e6565b036120c557600387604051612e889190614ac3565b908152604080519182900360209081019092206000898152925290205460ff161515600114612ef95760405162461bcd60e51b815260206004820152601060248201527f546f6b656e204e6f74204c6f636b65640000000000000000000000000000000060448201526064016110cd565b6000600188604051612f0b9190614ac3565b90815260200160405180910390206005015411612f905760405162461bcd60e51b815260206004820152603360248201527f547279696e6720746f20556e6c6f636b20616e2061737365742074686174206960448201527f73206e6f74206163636f756e74656420666f720000000000000000000000000060648201526084016110cd565b612f9f876005888560006135c8565b6130115760405162461bcd60e51b815260206004820152602560248201527f556e6c6f636b206e6f6e2066756e6769626c652061737365742063616c6c206660448201527f61696c656400000000000000000000000000000000000000000000000000000060648201526084016110cd565b600180886040516130229190614ac3565b908152602001604051809103902060050160008282546130429190614b08565b92505081905550600060038860405161305b9190614ac3565b908152604080516020928190038301902060008a815292529020805460ff19169115159190911790555b866040516130939190614ac3565b604051908190038120878252907f7b3c894115251262b174b7aeab24a57e00bc2e8853d1ef2f57a217edaa69c06e90602001612121565b600080546001600160a01b0383811673ffffffffffffffffffffffffffffffffffffffff19831681178455604051919092169283917f8be0079c531659141344cd1fd0a4f28419497f9722a3daafe3b4186f6b6457e09190a35050565b60005b600454811015613281576131e36004828154811061314a5761314a614ca2565b90600052602060002001805461315f90614a89565b80601f016020809104026020016040519081016040528092919081815260200182805461318b90614a89565b80156131d85780601f106131ad576101008083540402835291602001916131d8565b820191906000526020600020905b8154815290600101906020018083116131bb57829003601f168201915b505050505083613a17565b1561326f57600480546131f890600190614b08565b8154811061320857613208614ca2565b906000526020600020016004828154811061322557613225614ca2565b90600052602060002001908161323b9190614cb8565b50600480548061324d5761324d614d93565b6001900381819060005260206000200160006132699190613e1e565b90555050565b8061327981614da9565b91505061312a565b5050565b6000806001600160a01b03166001866040516132a19190614ac3565b908152604051908190036020019020600101546001600160a01b0316036132dd578460405163c0bab25f60e01b81526004016110cd9190614adf565b6000841161332d5760405162461bcd60e51b815260206004820152601760248201527f496e76616c69642061737365742061747472696275746500000000000000000060448201526064016110cd565b60008361333a578461333c565b825b905060006001876040516133509190614ac3565b90815260405190819003602001902060019081015460ff600160a01b909104169150816002811115613384576133846141e6565b0361342057613398876004888560006135c8565b6133e45760405162461bcd60e51b815260206004820152601160248201527f546f6b656e204c6f636b204661696c656400000000000000000000000000000060448201526064016110cd565b856001886040516133f59190614ac3565b908152602001604051809103902060050160008282546134159190614b1b565b909155506135839050565b6002816002811115613434576134346141e6565b036120c5576003876040516134499190614ac3565b90815260408051602092819003830190206000898152925290205460ff16156134b45760405162461bcd60e51b815260206004820152601460248201527f546f6b656e20416c7265616479204c6f636b656400000000000000000000000060448201526064016110cd565b6134c3876004888560006135c8565b61350f5760405162461bcd60e51b815260206004820152601160248201527f546f6b656e204c6f636b204661696c656400000000000000000000000000000060448201526064016110cd565b600180886040516135209190614ac3565b908152602001604051809103902060050160008282546135409190614b1b565b9250508190555060016003886040516135599190614ac3565b908152604080516020928190038301902060008a815292529020805460ff19169115159190911790555b866040516135919190614ac3565b604051908190038120878252907fc480ef4e831b2ca5eb0b2f95c6564d9a56af5b3fe2383393008e3f1708dc979790602001612121565b60006002866040516135da9190614ac3565b908152602001604051809103902060008660068111156135fc576135fc6141e6565b600681111561360d5761360d6141e6565b815260208101919091526040016000206003015460ff16613630575060006106cf565b60005b6002876040516136439190614ac3565b90815260200160405180910390206000876006811115613665576136656141e6565b6006811115613676576136766141e6565b81526020810191909152604001600020600101548110156138d95760006002886040516136a39190614ac3565b908152602001604051809103902060008860068111156136c5576136c56141e6565b60068111156136d6576136d66141e6565b815260200190815260200160002060010182815481106136f8576136f8614ca2565b906000526020600020016040516020016137129190614dc2565b604051602081830303815290604052805190602001209050600061382f8261382a60028c6040516137439190614ac3565b908152602001604051809103902060008c6006811115613765576137656141e6565b6006811115613776576137766141e6565b8152602001908152602001600020600201868154811061379857613798614ca2565b9060005260206000200180548060200260200160405190810160405280929190818152602001828054801561381c57602002820191906000526020600020906000905b82829054906101000a900460ff1660078111156137fa576137fa6141e6565b8152602060019283018181049485019490930390920291018084116137db5790505b50505050508c898c8c613a3c565b613a57565b9050600060018a6040516138439190614ac3565b908152604051908190036020018120600101546001600160a01b03169061386b908490614ac3565b6000604051808303816000865af19150503d80600081146138a8576040519150601f19603f3d011682016040523d82523d6000602084013e6138ad565b606091505b50509050806138c35760009450505050506106cf565b50505080806138d190614da9565b915050613633565b5060019695505050505050565b60005b8151811015613a015781818151811061390457613904614ca2565b602002602001015160028460405161391c9190614ac3565b9081526020016040518091039020600084848151811061393e5761393e614ca2565b602002602001015160000151600681111561395b5761395b6141e6565b600681111561396c5761396c6141e6565b8152602081019190915260400160002081518154829060ff1916600183600681111561399a5761399a6141e6565b021790555060208281015180516139b79260018501920190613e58565b50604082015180516139d3916002840191602090910190613eae565b50606091909101516003909101805460ff1916911515919091179055806139f981614da9565b9150506138e9565b505050565b60006106a4838360008060006135c8565b6000815183511480156106a45750508051602091820120825192909101919091201490565b6060613a4d86868686600187613af1565b9695505050505050565b604080517fffffffff000000000000000000000000000000000000000000000000000000008416602082015281516004818303018152602490910190915260005b8251811015610f0a5781838281518110613ab457613ab4614ca2565b6020026020010151604051602001613acd929190614e38565b60405160208183030381529060405291508080613ae990614da9565b915050613a98565b60606000875167ffffffffffffffff811115613b0f57613b0f61402b565b604051908082528060200260200182016040528015613b4257816020015b6060815260200190600190039081613b2d5790505b50905060005b8851811015613e12576005898281518110613b6557613b65614ca2565b60200260200101516007811115613b7e57613b7e6141e6565b03613bc05760408051306020820152015b604051602081830303815290604052828281518110613bb057613bb0614ca2565b6020026020010181905250613e00565b6002898281518110613bd457613bd4614ca2565b60200260200101516007811115613bed57613bed6141e6565b03613c035787604051602001613b8f9190614adf565b6004898281518110613c1757613c17614ca2565b60200260200101516007811115613c3057613c306141e6565b03613c4657604080516020810188905201613b8f565b6003898281518110613c5a57613c5a614ca2565b60200260200101516007811115613c7357613c736141e6565b03613cb157600188604051613c889190614ac3565b908152604080519182900360209081018320600401546001600160a01b03169083015201613b8f565b6000898281518110613cc557613cc5614ca2565b60200260200101516007811115613cde57613cde6141e6565b03613d1c57600188604051613cf39190614ac3565b908152604080519182900360209081018320600101546001600160a01b03169083015201613b8f565b6006898281518110613d3057613d30614ca2565b60200260200101516007811115613d4957613d496141e6565b03613d6757604080516001600160a01b038916602082015201613b8f565b6007898281518110613d7b57613d7b614ca2565b60200260200101516007811115613d9457613d946141e6565b03613db85784613da45785613da6565b835b604051602001613b8f91815260200190565b60405162461bcd60e51b815260206004820152601660248201527f5661726961626c65206e6f7420737570706f727465640000000000000000000060448201526064016110cd565b80613e0a81614da9565b915050613b48565b50979650505050505050565b508054613e2a90614a89565b6000825580601f10613e3a575050565b601f016020900490600052602060002090810190611c6c9190613f07565b828054828255906000526020600020908101928215613e9e579160200282015b82811115613e9e5782518290613e8e9082614b7c565b5091602001919060010190613e78565b50613eaa929150613f1c565b5090565b828054828255906000526020600020908101928215613efb579160200282015b82811115613efb5782518051613eeb918491602090910190613f39565b5091602001919060010190613ece565b50613eaa929150613fe9565b5b80821115613eaa5760008155600101613f08565b80821115613eaa576000613f308282613e1e565b50600101613f1c565b82805482825590600052602060002090601f01602090048101928215613fdd5791602002820160005b83821115613fae57835183826101000a81548160ff02191690836007811115613f8d57613f8d6141e6565b02179055509260200192600101602081600001049283019260010302613f62565b8015613fdb5782816101000a81549060ff0219169055600101602081600001049283019260010302613fae565b505b50613eaa929150613f07565b80821115613eaa576000613ffd8282614006565b50600101613fe9565b50805460008255601f016020900490600052602060002090810190611c6c9190613f07565b634e487b7160e01b600052604160045260246000fd5b6040516080810167ffffffffffffffff811182821017156140645761406461402b565b60405290565b604051601f8201601f1916810167ffffffffffffffff811182821017156140935761409361402b565b604052919050565b600082601f8301126140ac57600080fd5b813567ffffffffffffffff8111156140c6576140c661402b565b6140d9601f8201601f191660200161406a565b8181528460208386010111156140ee57600080fd5b816020850160208301376000918101602001919091529392505050565b60008060006060848603121561412057600080fd5b833567ffffffffffffffff81111561413757600080fd5b6141438682870161409b565b9660208601359650604090950135949350505050565b60006020828403121561416b57600080fd5b813567ffffffffffffffff81111561418257600080fd5b61418e8482850161409b565b949350505050565b60005b838110156141b1578181015183820152602001614199565b50506000910152565b600081518084526141d2816020860160208601614196565b601f01601f19169290920160200192915050565b634e487b7160e01b600052602160045260246000fd5b6003811061420c5761420c6141e6565b9052565b6005811061420c5761420c6141e6565b60006101008083526142348184018c6141ba565b90506001600160a01b03808b166020850152614253604085018b6141fc565b8382036060850152614265828a6141ba565b9150838203608085015261427982896141ba565b925080871660a085015250508360c0830152610f2b60e0830184614210565b600080604083850312156142ab57600080fd5b823567ffffffffffffffff8111156142c257600080fd5b6142ce8582860161409b565b95602094909401359450505050565b80356001600160a01b03811681146112c157600080fd5b60008060008060006080868803121561430c57600080fd5b614315866142dd565b9450614323602087016142dd565b935060408601359250606086013567ffffffffffffffff8082111561434757600080fd5b818801915088601f83011261435b57600080fd5b81358181111561436a57600080fd5b89602082850101111561437c57600080fd5b9699959850939650602001949392505050565b60208152600082516101008060208501526143ae6101208501836141ba565b915060208501516143ca60408601826001600160a01b03169052565b5060408501516143dd60608601826141fc565b506060850151601f19808685030160808701526143fa84836141ba565b935060808701519150808685030160a08701525061441883826141ba565b92505060a085015161443560c08601826001600160a01b03169052565b5060c085015160e085015260e085015161445182860182614210565b5090949350505050565b8035600381106112c157600080fd5b600067ffffffffffffffff8211156144845761448461402b565b5060051b60200190565b8035600781106112c157600080fd5b600082601f8301126144ae57600080fd5b813560206144c36144be8361446a565b61406a565b828152600592831b85018201928282019190878511156144e257600080fd5b8387015b8581101561458757803567ffffffffffffffff8111156145065760008081fd5b8801603f81018a136145185760008081fd5b85810135604061452a6144be8361446a565b82815291851b8301810191888101908d8411156145475760008081fd5b938201935b838510156145765784359250600883106145665760008081fd5b828252938901939089019061454c565b8852505050938501935084016144e6565b5090979650505050505050565b803580151581146112c157600080fd5b600082601f8301126145b557600080fd5b6145c26144be833561446a565b82358082526020808301929160051b850101858111156145e157600080fd5b602085015b818110156147125767ffffffffffffffff808235111561460557600080fd5b813587016080818a03601f1901121561461d57600080fd5b614625614041565b6146316020830161448e565b815260408201358381111561464557600080fd5b8201603f81018b1361465657600080fd5b60208101356146676144be8261446a565b81815260059190911b82016040019060208101908d83111561468857600080fd5b604084015b838110156146c15787813511156146a357600080fd5b6146b38f6040833588010161409b565b83526020928301920161468d565b5060208501525050506060820135838111156146dc57600080fd5b6146eb8b60208386010161449d565b6040830152506146fd60808301614594565b606082015286525050602093840193016145e6565b509095945050505050565b8035600581106112c157600080fd5b600080600080600080600080610100898b03121561474957600080fd5b883567ffffffffffffffff8082111561476157600080fd5b61476d8c838d0161409b565b995061477b60208c016142dd565b985061478960408c0161445b565b975060608b013591508082111561479f57600080fd5b6147ab8c838d0161409b565b965060808b01359150808211156147c157600080fd5b6147cd8c838d0161409b565b95506147db60a08c016142dd565b945060c08b01359150808211156147f157600080fd5b506147fe8b828c016145a4565b92505061480d60e08a0161471d565b90509295985092959890939650565b60008060006060848603121561483157600080fd5b833567ffffffffffffffff81111561484857600080fd5b6148548682870161409b565b935050614863602085016142dd565b9150604084013590509250925092565b6000602080830181845280855180835260408601915060408160051b870101925083870160005b828110156148c857603f198886030184526148b68583516141ba565b9450928501929085019060010161489a565b5092979650505050505050565b600080600080608085870312156148eb57600080fd5b843567ffffffffffffffff81111561490257600080fd5b61490e8782880161409b565b94505061491d602086016142dd565b93969395505050506040820135916060013590565b600080600080600080600060e0888a03121561494d57600080fd5b873567ffffffffffffffff8082111561496557600080fd5b6149718b838c0161409b565b985061497f60208b016142dd565b975061498d60408b0161445b565b965060608a01359150808211156149a357600080fd5b6149af8b838c0161409b565b955060808a01359150808211156149c557600080fd5b506149d28a828b0161409b565b9350506149e160a089016142dd565b91506149ef60c0890161471d565b905092959891949750929550565b60008060408385031215614a1057600080fd5b823567ffffffffffffffff811115614a2757600080fd5b614a338582860161409b565b925050614a426020840161448e565b90509250929050565b6040810160078410614a5f57614a5f6141e6565b92815290151560209091015290565b600060208284031215614a8057600080fd5b6106a4826142dd565b600181811c90821680614a9d57607f821691505b602082108103614abd57634e487b7160e01b600052602260045260246000fd5b50919050565b60008251614ad5818460208701614196565b9190910192915050565b6020815260006106a460208301846141ba565b634e487b7160e01b600052601160045260246000fd5b818103818111156106a7576106a7614af2565b808201808211156106a7576106a7614af2565b601f821115613a0157600081815260208120601f850160051c81016020861015614b555750805b601f850160051c820191505b81811015614b7457828155600101614b61565b505050505050565b815167ffffffffffffffff811115614b9657614b9661402b565b614baa81614ba48454614a89565b84614b2e565b602080601f831160018114614bdf5760008415614bc75750858301515b600019600386901b1c1916600185901b178555614b74565b600085815260208120601f198616915b82811015614c0e57888601518255948401946001909101908401614bef565b5085821015614c2c5787850151600019600388901b60f8161c191681555b5050505050600190811b01905550565b608081526000614c4f60808301876141ba565b90506001600160a01b038086166020840152614c6e60408401866141fc565b80841660608401525095945050505050565b604081526000614c9360408301856141ba565b90508260208301529392505050565b634e487b7160e01b600052603260045260246000fd5b818103614cc3575050565b614ccd8254614a89565b67ffffffffffffffff811115614ce557614ce561402b565b614cf381614ba48454614a89565b6000601f821160018114614d275760008315614d0f5750848201545b600019600385901b1c1916600184901b178455614d8c565b600085815260209020601f19841690600086815260209020845b83811015614d615782860154825560019586019590910190602001614d41565b5085831015614d7f5781850154600019600388901b60f8161c191681555b50505060018360011b0184555b5050505050565b634e487b7160e01b600052603160045260246000fd5b600060018201614dbb57614dbb614af2565b5060010190565b6000808354614dd081614a89565b60018281168015614de85760018114614dfd57614e2c565b60ff1984168752821515830287019450614e2c565b8760005260208060002060005b85811015614e235781548a820152908401908201614e0a565b50505082870194505b50929695505050505050565b60008351614e4a818460208801614196565b835190830190614e5e818360208801614196565b0194935050505056fea2646970667358221220325368df2c810523b9605fab70d01a4536ae4a84fa54172ac512664c9e99f44864736f6c63430008140033","linkReferences":{}},"methodIdentifiers":{"NFT_IDs(string,uint256)":"19d09bc9","assign(string,address,uint256)":"4534ba17","assign(string,address,uint256,uint256)":"7d61c2ee","bridge_address()":"1255c189","burn(string,uint256)":"b48272cc","burn(string,uint256,uint256)":"02c7bd96","getAllAssetsIDs()":"5137b8a7","getToken(string)":"c1733f68","getToken(string,uint256)":"324980b5","getToken(string,uint256,uint256)":"be4dac98","lock(string,uint256)":"e1efb596","lock(string,uint256,uint256)":"e4c58bf2","mint(string,uint256)":"056b01ce","mint(string,uint256,uint256)":"1c635ded","onERC721Received(address,address,uint256,bytes)":"150b7a02","owner()":"8da5cb5b","renounceOwnership()":"715018a6","tokens(string)":"04c2320b","tokensInteractions(string,uint8)":"ea8f547f","transferOwnership(address)":"f2fde38b","unlock(string,uint256)":"d9cf884c","unlock(string,uint256,uint256)":"53ce9889","unwrap(string)":"a1bc17c5","wrap(string,address,uint8,string,string,address,(uint8,string[],uint8[][],bool)[],uint8)":"433f60ac","wrap(string,address,uint8,string,string,address,uint8)":"dbf15639"},"id":7}