{"abi":[{"type":"constructor","inputs":[{"name":"_bridge_address","type":"address","internalType":"address"}],"stateMutability":"nonpayable"},{"type":"function","name":"NFT_IDs","inputs":[{"name":"","type":"string","internalType":"string"},{"name":"","type":"uint256","internalType":"uint256"}],"outputs":[{"name":"","type":"bool","internalType":"bool"}],"stateMutability":"view"},{"type":"function","name":"assign","inputs":[{"name":"tokenId","type":"string","internalType":"string"},{"name":"receiver_account","type":"address","internalType":"address"},{"name":"assetAttribute","type":"uint256","internalType":"uint256"}],"outputs":[{"name":"success","type":"bool","internalType":"bool"}],"stateMutability":"nonpayable"},{"type":"function","name":"assign","inputs":[{"name":"tokenId","type":"string","internalType":"string"},{"name":"receiver_account","type":"address","internalType":"address"},{"name":"assetAttribute","type":"uint256","internalType":"uint256"},{"name":"uniqueDescriptor","type":"uint256","internalType":"uint256"}],"outputs":[{"name":"success","type":"bool","internalType":"bool"}],"stateMutability":"nonpayable"},{"type":"function","name":"bridge_address","inputs":[],"outputs":[{"name":"","type":"address","internalType":"address"}],"stateMutability":"view"},{"type":"function","name":"burn","inputs":[{"name":"tokenId","type":"string","internalType":"string"},{"name":"assetAttribute","type":"uint256","internalType":"uint256"},{"name":"uniqueDescriptor","type":"uint256","internalType":"uint256"}],"outputs":[{"name":"success","type":"bool","internalType":"bool"}],"stateMutability":"nonpayable"},{"type":"function","name":"burn","inputs":[{"name":"tokenId","type":"string","internalType":"string"},{"name":"assetAttribute","type":"uint256","internalType":"uint256"}],"outputs":[{"name":"success","type":"bool","internalType":"bool"}],"stateMutability":"nonpayable"},{"type":"function","name":"getAllAssetsIDs","inputs":[],"outputs":[{"name":"","type":"string[]","internalType":"string[]"}],"stateMutability":"view"},{"type":"function","name":"getToken","inputs":[{"name":"tokenId","type":"string","internalType":"string"},{"name":"assetAttribute","type":"uint256","internalType":"uint256"}],"outputs":[{"name":"token","type":"tuple","internalType":"struct Token","components":[{"name":"contractName","type":"string","internalType":"string"},{"name":"contractAddress","type":"address","internalType":"address"},{"name":"tokenType","type":"uint8","internalType":"enum TokenType"},{"name":"tokenId","type":"string","internalType":"string"},{"name":"referenceId","type":"string","internalType":"string"},{"name":"owner","type":"address","internalType":"address"},{"name":"amount","type":"uint256","internalType":"uint256"},{"name":"ercTokenStandard","type":"uint8","internalType":"enum ERCTokenStandard"}]}],"stateMutability":"view"},{"type":"function","name":"getToken","inputs":[{"name":"tokenId","type":"string","internalType":"string"}],"outputs":[{"name":"token","type":"tuple","internalType":"struct Token","components":[{"name":"contractName","type":"string","internalType":"string"},{"name":"contractAddress","type":"address","internalType":"address"},{"name":"tokenType","type":"uint8","internalType":"enum TokenType"},{"name":"tokenId","type":"string","internalType":"string"},{"name":"referenceId","type":"string","internalType":"string"},{"name":"owner","type":"address","internalType":"address"},{"name":"amount","type":"uint256","internalType":"uint256"},{"name":"ercTokenStandard","type":"uint8","internalType":"enum ERCTokenStandard"}]}],"stateMutability":"view"},{"type":"function","name":"lock","inputs":[{"name":"tokenId","type":"string","internalType":"string"},{"name":"assetAttribute","type":"uint256","internalType":"uint256"}],"outputs":[{"name":"success","type":"bool","internalType":"bool"}],"stateMutability":"nonpayable"},{"type":"function","name":"lock","inputs":[{"name":"tokenId","type":"string","internalType":"string"},{"name":"assetAttribute","type":"uint256","internalType":"uint256"},{"name":"uniqueDescriptor","type":"uint256","internalType":"uint256"}],"outputs":[{"name":"success","type":"bool","internalType":"bool"}],"stateMutability":"nonpayable"},{"type":"function","name":"mint","inputs":[{"name":"tokenId","type":"string","internalType":"string"},{"name":"assetAttribute","type":"uint256","internalType":"uint256"}],"outputs":[{"name":"success","type":"bool","internalType":"bool"}],"stateMutability":"nonpayable"},{"type":"function","name":"mint","inputs":[{"name":"tokenId","type":"string","internalType":"string"},{"name":"assetAttribute","type":"uint256","internalType":"uint256"},{"name":"uniqueDescriptor","type":"uint256","internalType":"uint256"}],"outputs":[{"name":"success","type":"bool","internalType":"bool"}],"stateMutability":"nonpayable"},{"type":"function","name":"onERC721Received","inputs":[{"name":"","type":"address","internalType":"address"},{"name":"","type":"address","internalType":"address"},{"name":"","type":"uint256","internalType":"uint256"},{"name":"","type":"bytes","internalType":"bytes"}],"outputs":[{"name":"","type":"bytes4","internalType":"bytes4"}],"stateMutability":"pure"},{"type":"function","name":"owner","inputs":[],"outputs":[{"name":"","type":"address","internalType":"address"}],"stateMutability":"view"},{"type":"function","name":"renounceOwnership","inputs":[],"outputs":[],"stateMutability":"nonpayable"},{"type":"function","name":"tokens","inputs":[{"name":"","type":"string","internalType":"string"}],"outputs":[{"name":"contractName","type":"string","internalType":"string"},{"name":"contractAddress","type":"address","internalType":"address"},{"name":"tokenType","type":"uint8","internalType":"enum TokenType"},{"name":"tokenId","type":"string","internalType":"string"},{"name":"referenceId","type":"string","internalType":"string"},{"name":"owner","type":"address","internalType":"address"},{"name":"amount","type":"uint256","internalType":"uint256"},{"name":"ercTokenStandard","type":"uint8","internalType":"enum ERCTokenStandard"}],"stateMutability":"view"},{"type":"function","name":"tokensInteractions","inputs":[{"name":"","type":"string","internalType":"string"},{"name":"","type":"uint8","internalType":"enum InteractionType"}],"outputs":[{"name":"interactionType","type":"uint8","internalType":"enum InteractionType"},{"name":"available","type":"bool","internalType":"bool"}],"stateMutability":"view"},{"type":"function","name":"transferOwnership","inputs":[{"name":"newOwner","type":"address","internalType":"address"}],"outputs":[],"stateMutability":"nonpayable"},{"type":"function","name":"unlock","inputs":[{"name":"tokenId","type":"string","internalType":"string"},{"name":"assetAttribute","type":"uint256","internalType":"uint256"},{"name":"uniqueDescriptor","type":"uint256","internalType":"uint256"}],"outputs":[{"name":"success","type":"bool","internalType":"bool"}],"stateMutability":"nonpayable"},{"type":"function","name":"unlock","inputs":[{"name":"tokenId","type":"string","internalType":"string"},{"name":"assetAttribute","type":"uint256","internalType":"uint256"}],"outputs":[{"name":"success","type":"bool","internalType":"bool"}],"stateMutability":"nonpayable"},{"type":"function","name":"unwrap","inputs":[{"name":"tokenId","type":"string","internalType":"string"}],"outputs":[{"name":"success","type":"bool","internalType":"bool"}],"stateMutability":"nonpayable"},{"type":"function","name":"wrap","inputs":[{"name":"contractName","type":"string","internalType":"string"},{"name":"contractAddress","type":"address","internalType":"address"},{"name":"tokenType","type":"uint8","internalType":"enum TokenType"},{"name":"tokenId","type":"string","internalType":"string"},{"name":"referenceId","type":"string","internalType":"string"},{"name":"owner","type":"address","internalType":"address"},{"name":"interactions","type":"tuple[]","internalType":"struct InteractionSignature[]","components":[{"name":"interactionType","type":"uint8","internalType":"enum InteractionType"},{"name":"functionsSignature","type":"string[]","internalType":"string[]"},{"name":"variables","type":"uint8[][]","internalType":"enum AssetParameterIdentifier[][]"},{"name":"available","type":"bool","internalType":"bool"}]},{"name":"ercTokenStandard","type":"uint8","internalType":"enum ERCTokenStandard"}],"outputs":[{"name":"wrapSuccess","type":"bool","internalType":"bool"}],"stateMutability":"nonpayable"},{"type":"function","name":"wrap","inputs":[{"name":"contractName","type":"string","internalType":"string"},{"name":"contractAddress","type":"address","internalType":"address"},{"name":"tokenType","type":"uint8","internalType":"enum TokenType"},{"name":"tokenId","type":"string","internalType":"string"},{"name":"referenceId","type":"string","internalType":"string"},{"name":"owner","type":"address","internalType":"address"},{"name":"ercTokenStandard","type":"uint8","internalType":"enum ERCTokenStandard"}],"outputs":[{"name":"wrapSuccess","type":"bool","internalType":"bool"}],"stateMutability":"nonpayable"},{"type":"event","name":"Approve","inputs":[{"name":"tokenId","type":"string","indexed":true,"internalType":"string"},{"name":"spender","type":"address","indexed":false,"internalType":"address"},{"name":"amount","type":"uint256","indexed":false,"internalType":"uint256"}],"anonymous":false},{"type":"event","name":"Assign","inputs":[{"name":"tokenId","type":"string","indexed":true,"internalType":"string"},{"name":"receiver_account","type":"address","indexed":false,"internalType":"address"},{"name":"amount","type":"uint256","indexed":false,"internalType":"uint256"}],"anonymous":false},{"type":"event","name":"Burn","inputs":[{"name":"tokenId","type":"string","indexed":true,"internalType":"string"},{"name":"amount","type":"uint256","indexed":false,"internalType":"uint256"}],"anonymous":false},{"type":"event","name":"Changed","inputs":[{"name":"id","type":"string","indexed":true,"internalType":"string"},{"name":"value","type":"bytes[]","indexed":false,"internalType":"bytes[]"}],"anonymous":false},{"type":"event","name":"Lock","inputs":[{"name":"tokenId","type":"string","indexed":true,"internalType":"string"},{"name":"amount","type":"uint256","indexed":false,"internalType":"uint256"}],"anonymous":false},{"type":"event","name":"Mint","inputs":[{"name":"tokenId","type":"string","indexed":true,"internalType":"string"},{"name":"amount","type":"uint256","indexed":false,"internalType":"uint256"}],"anonymous":false},{"type":"event","name":"OwnershipTransferred","inputs":[{"name":"previousOwner","type":"address","indexed":true,"internalType":"address"},{"name":"newOwner","type":"address","indexed":true,"internalType":"address"}],"anonymous":false},{"type":"event","name":"Unlock","inputs":[{"name":"tokenId","type":"string","indexed":true,"internalType":"string"},{"name":"amount","type":"uint256","indexed":false,"internalType":"uint256"}],"anonymous":false},{"type":"event","name":"Unwrap","inputs":[{"name":"tokenId","type":"string","indexed":true,"internalType":"string"}],"anonymous":false},{"type":"event","name":"Wrap","inputs":[{"name":"tokenId","type":"string","indexed":true,"internalType":"string"},{"name":"contractName","type":"string","indexed":false,"internalType":"string"},{"name":"contractAddress","type":"address","indexed":false,"internalType":"address"},{"name":"tokenType","type":"uint8","indexed":false,"internalType":"enum TokenType"},{"name":"owner","type":"address","indexed":false,"internalType":"address"}],"anonymous":false},{"type":"error","name":"InsuficientAmountLocked","inputs":[{"name":"tokenId","type":"string","internalType":"string"},{"name":"amount","type":"uint256","internalType":"uint256"}]},{"type":"error","name":"OwnableInvalidOwner","inputs":[{"name":"owner","type":"address","internalType":"address"}]},{"type":"error","name":"OwnableUnauthorizedAccount","inputs":[{"name":"account","type":"address","internalType":"address"}]},{"type":"error","name":"TokenAlreadyWrapped","inputs":[{"name":"tokenId","type":"string","internalType":"string"}]},{"type":"error","name":"TokenLocked","inputs":[{"name":"tokenId","type":"string","internalType":"string"}]},{"type":"error","name":"TokenNotAvailable","inputs":[{"name":"tokenId","type":"string","internalType":"string"}]},{"type":"error","name":"TokenNotSupported","inputs":[{"name":"tokenId","type":"string","internalType":"string"}]}],"bytecode":{"object":"0x608060405234801562000010575f80fd5b5060405162004810380380620048108339810160408190526200003391620000e3565b806001600160a01b0381166200006257604051631e4fbdf760e01b81525f600482015260240160405180910390fd5b6200006d8162000094565b50600580546001600160a01b0319166001600160a01b039290921691909117905562000112565b5f80546001600160a01b038381166001600160a01b0319831681178455604051919092169283917f8be0079c531659141344cd1fd0a4f28419497f9722a3daafe3b4186f6b6457e09190a35050565b5f60208284031215620000f4575f80fd5b81516001600160a01b03811681146200010b575f80fd5b9392505050565b6146f080620001205f395ff3fe608060405234801561000f575f80fd5b506004361061018f575f3560e01c8063715018a6116100dd578063d9cf884c11610088578063e4c58bf211610063578063e4c58bf2146103c1578063ea8f547f146103d4578063f2fde38b1461042a575f80fd5b8063d9cf884c14610388578063dbf156391461039b578063e1efb596146103ae575f80fd5b8063a1bc17c5116100b8578063a1bc17c51461034f578063b48272cc14610362578063c1733f6814610375575f80fd5b8063715018a6146103225780637d61c2ee1461032c5780638da5cb5b1461033f575f80fd5b80631c635ded1161013d5780634534ba17116101185780634534ba17146102e75780635137b8a7146102fa57806353ce98891461030f575f80fd5b80631c635ded146102a1578063324980b5146102b4578063433f60ac146102d4575f80fd5b80631255c1891161016d5780631255c189146101f5578063150b7a021461022057806319d09bc914610264575f80fd5b806302c7bd961461019357806304c2320b146101bb578063056b01ce146101e2575b5f80fd5b6101a66101a1366004613817565b61043d565b60405190151581526020015b60405180910390f35b6101ce6101c9366004613861565b6108c2565b6040516101b2989796959493929190613918565b6101a66101f036600461399c565b610ac0565b600554610208906001600160a01b031681565b6040516001600160a01b0390911681526020016101b2565b61023361022e3660046139f4565b610add565b6040517fffffffff0000000000000000000000000000000000000000000000000000000090911681526020016101b2565b6101a661027236600461399c565b81516020818401810180516003825292820194820194909420919093529091525f908152604090205460ff1681565b6101a66102af366004613817565b610b08565b6102c76102c236600461399c565b610e36565b6040516101b29190613a87565b6101a66102e2366004613e12565b611642565b6101a66102f5366004613ef9565b6119b7565b6103026119d4565b6040516101b29190613f97565b6101a661031d366004613817565b611aa8565b61032a611f30565b005b6101a661033a366004613fa9565b611f43565b5f546001600160a01b0316610208565b6101a661035d366004613861565b6123aa565b6101a661037036600461399c565b6125f1565b6102c7610383366004613861565b612605565b6101a661039636600461399c565b612652565b6101a66103a9366004614002565b612666565b6101a66103bc36600461399c565b612747565b6101a66103cf366004613817565b612757565b61041c6103e23660046140c5565b81516020818401810180516002825292820194820194909420919093529091525f90815260409020805460039091015460ff918216911682565b6040516101b2929190614120565b61032a61043836600461413d565b612a99565b5f610446612aef565b5f6001600160a01b03166001856040516104609190614156565b908152604051908190036020019020600101546001600160a01b0316036104a5578360405163c0bab25f60e01b815260040161049c9190614171565b60405180910390fd5b5f83116104f45760405162461bcd60e51b815260206004820152601760248201527f496e76616c696420617373657420617474726962757465000000000000000000604482015260640161049c565b5f6001856040516105059190614156565b90815260405190819003602001902060019081015460ff600160a01b909104169150816002811115610539576105396138e0565b03610643578360018660405161054f9190614156565b90815260200160405180910390206005015410156105af5760405162461bcd60e51b815260206004820152601e60248201527f6275726e206173736574206173736574206973206e6f74206c6f636b65640000604482015260640161049c565b6105bc8560018686612b34565b6106085760405162461bcd60e51b815260206004820152601660248201527f6275726e2061737365742063616c6c206661696c656400000000000000000000604482015260640161049c565b836001866040516106199190614156565b90815260200160405180910390206005015f8282546106389190614197565b9091555061086e9050565b6002816002811115610657576106576138e0565b03610853575f8315610669578361066b565b845b90505f60018760405161067e9190614156565b908152602001604051809103902060050154116107035760405162461bcd60e51b815260206004820152602360248201527f547279696e6720746f206275726e20616e20756e6163636f756e74656420417360448201527f7365740000000000000000000000000000000000000000000000000000000000606482015260840161049c565b6003866040516107139190614156565b908152604080519182900360209081019092205f848152925290205460ff1615156001146107835760405162461bcd60e51b815260206004820181905260248201527f556e697175652044657363726970746f7220646f6573206e6f74206578697374604482015260640161049c565b6107908660018784612b34565b6107dc5760405162461bcd60e51b815260206004820152601660248201527f6275726e2061737365742063616c6c206661696c656400000000000000000000604482015260640161049c565b600180876040516107ed9190614156565b90815260200160405180910390206005015f82825461080c9190614197565b925050819055505f6003876040516108249190614156565b90815260408051602092819003830190205f948552909152909120805460ff191691151591909117905561086e565b8460405163c16fc3ad60e01b815260040161049c9190614171565b8460405161087c9190614156565b604051908190038120858252907fa0237080cf48d9e1fbb9ef1f82e33b11170d047b2b540a73b457d0916d53ee99906020015b60405180910390a2506001949350505050565b80516020818301810180516001825292820191909301209152805481906108e8906141aa565b80601f0160208091040260200160405190810160405280929190818152602001828054610914906141aa565b801561095f5780601f106109365761010080835404028352916020019161095f565b820191905f5260205f20905b81548152906001019060200180831161094257829003601f168201915b50505050600183015460028401805493946001600160a01b03831694600160a01b90930460ff16935091610992906141aa565b80601f01602080910402602001604051908101604052809291908181526020018280546109be906141aa565b8015610a095780601f106109e057610100808354040283529160200191610a09565b820191905f5260205f20905b8154815290600101906020018083116109ec57829003601f168201915b505050505090806003018054610a1e906141aa565b80601f0160208091040260200160405190810160405280929190818152602001828054610a4a906141aa565b8015610a955780601f10610a6c57610100808354040283529160200191610a95565b820191905f5260205f20905b815481529060010190602001808311610a7857829003601f168201915b505050506004830154600584015460069094015492936001600160a01b039091169290915060ff1688565b5f610ac9612aef565b610ad483835f610b08565b90505b92915050565b7f150b7a02000000000000000000000000000000000000000000000000000000005b95945050505050565b5f610b11612aef565b5f6001600160a01b0316600185604051610b2b9190614156565b908152604051908190036020019020600101546001600160a01b031603610b67578360405163c0bab25f60e01b815260040161049c9190614171565b5f8311610bb65760405162461bcd60e51b815260206004820152601760248201527f496e76616c696420617373657420617474726962757465000000000000000000604482015260640161049c565b5f600185604051610bc79190614156565b90815260405190819003602001902060019081015460ff600160a01b909104169150816002811115610bfb57610bfb6138e0565b03610c8157610c0c855f8686612b34565b610c585760405162461bcd60e51b815260206004820152601660248201527f6d696e742061737365742063616c6c206661696c656400000000000000000000604482015260640161049c565b83600186604051610c699190614156565b90815260405190819003602001902060050155610df1565b6002816002811115610c9557610c956138e0565b03610853575f8315610ca75783610ca9565b845b9050600386604051610cbb9190614156565b90815260408051602092819003830190205f848152925290205460ff1615610d255760405162461bcd60e51b815260206004820181905260248201527f556e697175652044657363726970746f7220616c726561647920657869737473604482015260640161049c565b610d31865f8784612b34565b610d7d5760405162461bcd60e51b815260206004820152601660248201527f6d696e742061737365742063616c6c206661696c656400000000000000000000604482015260640161049c565b60018087604051610d8e9190614156565b90815260200160405180910390206005015f828254610dad91906141e2565b925050819055506001600387604051610dc69190614156565b90815260408051602092819003830190205f948552909152909120805460ff19169115159190911790555b84604051610dff9190614156565b604051908190038120858252907f0a4e1e5035320483d096cf114513007c4eda3853a4dca806da2d9faec60470a6906020016108af565b610e79604080516101008101825260608082525f60208301819052928201839052808201819052608082015260a0810182905260c081018290529060e082015290565b5f600184604051610e8a9190614156565b90815260405190819003602001902060019081015460ff600160a01b909104169150816002811115610ebe57610ebe6138e0565b0361113d57600184604051610ed39190614156565b9081526020016040518091039020604051806101000160405290815f82018054610efc906141aa565b80601f0160208091040260200160405190810160405280929190818152602001828054610f28906141aa565b8015610f735780601f10610f4a57610100808354040283529160200191610f73565b820191905f5260205f20905b815481529060010190602001808311610f5657829003601f168201915b505050918352505060018201546001600160a01b0381166020830152604090910190600160a01b900460ff166002811115610fb057610fb06138e0565b6002811115610fc157610fc16138e0565b8152602001600282018054610fd5906141aa565b80601f0160208091040260200160405190810160405280929190818152602001828054611001906141aa565b801561104c5780601f106110235761010080835404028352916020019161104c565b820191905f5260205f20905b81548152906001019060200180831161102f57829003601f168201915b50505050508152602001600382018054611065906141aa565b80601f0160208091040260200160405190810160405280929190818152602001828054611091906141aa565b80156110dc5780601f106110b3576101008083540402835291602001916110dc565b820191905f5260205f20905b8154815290600101906020018083116110bf57829003601f168201915b50505091835250506004828101546001600160a01b0316602083015260058301546040830152600683015460609092019160ff1690811115611120576111206138e0565b6004811115611131576111316138e0565b81525050915050610ad7565b6002816002811115611151576111516138e0565b0361163b576003846040516111669190614156565b90815260408051602092819003830190205f868152925290205460ff16156113f3576040518061010001604052806001866040516111a49190614156565b90815260405190819003602001902080546111be906141aa565b80601f01602080910402602001604051908101604052809291908181526020018280546111ea906141aa565b80156112355780601f1061120c57610100808354040283529160200191611235565b820191905f5260205f20905b81548152906001019060200180831161121857829003601f168201915b5050505050815260200160018660405161124f9190614156565b90815260200160405180910390206001015f9054906101000a90046001600160a01b03166001600160a01b031681526020016001866040516112919190614156565b9081526040519081900360200190206001015460ff600160a01b9091041660028111156112c0576112c06138e0565b81526020018581526020016001866040516112db9190614156565b908152602001604051809103902060030180546112f7906141aa565b80601f0160208091040260200160405190810160405280929190818152602001828054611323906141aa565b801561136e5780601f106113455761010080835404028352916020019161136e565b820191905f5260205f20905b81548152906001019060200180831161135157829003601f168201915b505050505081526020016001866040516113889190614156565b9081526040805160209281900383019020600401546001600160a01b0316835290820186905280519101906001906113c1908890614156565b9081526040519081900360200190206006015460ff1660048111156113e8576113e86138e0565b815250915050610ad7565b60405180610100016040528060018660405161140f9190614156565b9081526040519081900360200190208054611429906141aa565b80601f0160208091040260200160405190810160405280929190818152602001828054611455906141aa565b80156114a05780601f10611477576101008083540402835291602001916114a0565b820191905f5260205f20905b81548152906001019060200180831161148357829003601f168201915b505050505081526020016001866040516114ba9190614156565b90815260200160405180910390206001015f9054906101000a90046001600160a01b03166001600160a01b031681526020016001866040516114fc9190614156565b9081526040519081900360200190206001015460ff600160a01b90910416600281111561152b5761152b6138e0565b81526020018581526020016001866040516115469190614156565b90815260200160405180910390206003018054611562906141aa565b80601f016020809104026020016040519081016040528092919081815260200182805461158e906141aa565b80156115d95780601f106115b0576101008083540402835291602001916115d9565b820191905f5260205f20905b8154815290600101906020018083116115bc57829003601f168201915b505050505081526020016001866040516115f39190614156565b90815260200160405180910390206004015f9054906101000a90046001600160a01b03166001600160a01b031681526020015f81526020016001866040516113c19190614156565b5092915050565b5f61164b612aef565b5f6001600160a01b03166001876040516116659190614156565b908152604051908190036020019020600101546001600160a01b0316146116ba57856040517f67ab234400000000000000000000000000000000000000000000000000000000815260040161049c9190614171565b6116c48684612b42565b6040518061010001604052808a8152602001896001600160a01b031681526020018860028111156116f7576116f76138e0565b8152602001878152602001868152602001856001600160a01b031681526020015f815260200183600481111561172f5761172f6138e0565b8152506001876040516117429190614156565b9081526040519081900360200190208151819061175f9082614240565b5060208201516001820180546001600160a01b0390921673ffffffffffffffffffffffffffffffffffffffff1983168117825560408501519274ffffffffffffffffffffffffffffffffffffffffff191617600160a01b8360028111156117c8576117c86138e0565b0217905550606082015160028201906117e19082614240565b50608082015160038201906117f69082614240565b5060a08201516004828101805473ffffffffffffffffffffffffffffffffffffffff19166001600160a01b039093169290921790915560c0830151600583015560e08301516006830180549192909160ff191690600190849081111561185e5761185e6138e0565b02179055509050506002866040516118769190614156565b908152604080516020928190038301902060035f8181529190935220015460ff1615611919576118a7866003612c54565b6119195760405162461bcd60e51b815260206004820152603c60248201527f436f6e747261637420646f6573206e6f742068617665207065726d697373696f60448201527f6e20746f20696e74657261637420776974682074686520746f6b656e00000000606482015260840161049c565b600480546001810182555f919091527f8a35acfbc15ff81a39ae7d344fd709f28e8600b4aa8c65c6b64bfe7fe36bd19b016119548782614240565b50856040516119639190614156565b60405180910390207f1455a30f034090309f76768ab435a6bd3c547427fc31dbe48477cfb5b9f47dda8a8a8a886040516119a09493929190614300565b60405180910390a250600198975050505050505050565b5f6119c0612aef565b6119cc8484845f611f43565b949350505050565b60606004805480602002602001604051908101604052809291908181526020015f905b82821015611a9f578382905f5260205f20018054611a14906141aa565b80601f0160208091040260200160405190810160405280929190818152602001828054611a40906141aa565b8015611a8b5780601f10611a6257610100808354040283529160200191611a8b565b820191905f5260205f20905b815481529060010190602001808311611a6e57829003601f168201915b5050505050815260200190600101906119f7565b50505050905090565b5f611ab1612aef565b5f6001600160a01b0316600185604051611acb9190614156565b908152604051908190036020019020600101546001600160a01b031603611b07578360405163c0bab25f60e01b815260040161049c9190614171565b5f8311611b565760405162461bcd60e51b815260206004820152601760248201527f496e76616c696420617373657420617474726962757465000000000000000000604482015260640161049c565b5f600185604051611b679190614156565b90815260405190819003602001902060019081015460ff600160a01b909104169150816002811115611b9b57611b9b6138e0565b03611cb95783600186604051611bb19190614156565b9081526020016040518091039020600501541015611bff5784846040517fed579e6000000000000000000000000000000000000000000000000000000000815260040161049c929190614343565b611c0c8560058686612b34565b611c7e5760405162461bcd60e51b815260206004820152602160248201527f556e6c6f636b2066756e6769626c652061737365742063616c6c206661696c6560448201527f6400000000000000000000000000000000000000000000000000000000000000606482015260840161049c565b83600186604051611c8f9190614156565b90815260200160405180910390206005015f828254611cae9190614197565b90915550611eeb9050565b6002816002811115611ccd57611ccd6138e0565b03610853575f8315611cdf5783611ce1565b845b9050600386604051611cf39190614156565b908152604080519182900360209081019092205f848152925290205460ff161515600114611d635760405162461bcd60e51b815260206004820152601060248201527f546f6b656e204e6f74204c6f636b656400000000000000000000000000000000604482015260640161049c565b5f600187604051611d749190614156565b90815260200160405180910390206005015411611df95760405162461bcd60e51b815260206004820152603360248201527f547279696e6720746f20556e6c6f636b20616e2061737365742074686174206960448201527f73206e6f74206163636f756e74656420666f7200000000000000000000000000606482015260840161049c565b611e068660058784612b34565b611e785760405162461bcd60e51b815260206004820152602560248201527f556e6c6f636b206e6f6e2066756e6769626c652061737365742063616c6c206660448201527f61696c6564000000000000000000000000000000000000000000000000000000606482015260840161049c565b60018087604051611e899190614156565b90815260200160405180910390206005015f828254611ea89190614197565b925050819055505f600387604051611ec09190614156565b90815260408051602092819003830190205f948552909152909120805460ff19169115159190911790555b84604051611ef99190614156565b604051908190038120858252907f7b3c894115251262b174b7aeab24a57e00bc2e8853d1ef2f57a217edaa69c06e906020016108af565b611f38612aef565b611f415f612c62565b565b5f611f4c612aef565b5f6001600160a01b0316600186604051611f669190614156565b908152604051908190036020019020600101546001600160a01b031603611fa2578460405163c0bab25f60e01b815260040161049c9190614171565b5f8311611ff15760405162461bcd60e51b815260206004820152601760248201527f496e76616c696420617373657420617474726962757465000000000000000000604482015260640161049c565b5f6001866040516120029190614156565b90815260405190819003602001902060019081015460ff600160a01b909104169150816002811115612036576120366138e0565b03612141578360018760405161204c9190614156565b90815260200160405180910390206005015410156120ac5760405162461bcd60e51b815260206004820181905260248201527f61737369676e206173736574206173736574206973206e6f74206c6f636b6564604482015260640161049c565b6120ba866002868689612cbe565b6121065760405162461bcd60e51b815260206004820152601860248201527f61737369676e2061737365742063616c6c206661696c65640000000000000000604482015260640161049c565b836001876040516121179190614156565b90815260200160405180910390206005015f8282546121369190614197565b909155506123479050565b6002816002811115612155576121556138e0565b0361232c575f83156121675783612169565b845b90505f60018860405161217c9190614156565b908152602001604051809103902060050154116121db5760405162461bcd60e51b815260206004820181905260248201527f41737369676e206e6674202d206173736574206973206e6f74206c6f636b6564604482015260640161049c565b6003876040516121eb9190614156565b908152604080519182900360209081019092205f848152925290205460ff16151560011461225b5760405162461bcd60e51b815260206004820181905260248201527f556e697175652044657363726970746f7220646f6573206e6f74206578697374604482015260640161049c565b61226987600287848a612cbe565b6122b55760405162461bcd60e51b815260206004820152601660248201527f61737369676e206e66742063616c6c206661696c656400000000000000000000604482015260640161049c565b600180886040516122c69190614156565b90815260200160405180910390206005015f8282546122e59190614197565b925050819055505f6003886040516122fd9190614156565b90815260408051602092819003830190205f948552909152909120805460ff1916911515919091179055612347565b8560405163c16fc3ad60e01b815260040161049c9190614171565b856040516123559190614156565b604080519182900382206001600160a01b038816835260208301879052917f0b3112bdbedc0251766a323a5c6ad4df77174bbc08bd61b944815ad9efe8d54c910160405180910390a250600195945050505050565b5f6123b3612aef565b5f6001600160a01b03166001836040516123cd9190614156565b908152604051908190036020019020600101546001600160a01b031603612409578160405163c0bab25f60e01b815260040161049c9190614171565b5f60018360405161241a9190614156565b908152602001604051809103902060050154111561246657816040517fb7d2c10a00000000000000000000000000000000000000000000000000000000815260040161049c9190614171565b6125166001836040516124799190614156565b90815260200160405180910390206002018054612495906141aa565b80601f01602080910402602001604051908101604052809291908181526020018280546124c1906141aa565b801561250c5780601f106124e35761010080835404028352916020019161250c565b820191905f5260205f20905b8154815290600101906020018083116124ef57829003601f168201915b5050505050613019565b6001826040516125269190614156565b9081526040519081900360200190205f6125408282613542565b60018201805474ffffffffffffffffffffffffffffffffffffffffff1916905561256d600283015f613542565b61257a600383015f613542565b5060048101805473ffffffffffffffffffffffffffffffffffffffff191690555f6005820155600601805460ff191690556040516125b9908390614156565b604051908190038120907f3855d31914452a5e7361730662e60834555d7cb26d380140894d85fd0d13b854905f90a25060015b919050565b5f6125fa612aef565b610ad483835f61043d565b612648604080516101008101825260608082525f60208301819052928201839052808201819052608082015260a0810182905260c081018290529060e082015290565b610ad7825f610e36565b5f61265b612aef565b610ad483835f611aa8565b5f61266f612aef565b3063433f60ac8989898989895f6040519080825280602002602001820160405280156126d657816020015b6126c36040805160808101909152805f8152606060208201819052604082018190525f91015290565b81526020019060019003908161269a5790505b508a6040518963ffffffff1660e01b81526004016126fb989796959493929190614364565b6020604051808303815f875af1158015612717573d5f803e3d5ffd5b505050506040513d601f19601f8201168201806040525081019061273b9190614501565b98975050505050505050565b5f612750612aef565b610ad483835f5b5f612760612aef565b5f6001600160a01b031660018560405161277a9190614156565b908152604051908190036020019020600101546001600160a01b0316036127b6578360405163c0bab25f60e01b815260040161049c9190614171565b5f83116128055760405162461bcd60e51b815260206004820152601760248201527f496e76616c696420617373657420617474726962757465000000000000000000604482015260640161049c565b5f6001856040516128169190614156565b90815260405190819003602001902060019081015460ff600160a01b90910416915081600281111561284a5761284a6138e0565b036128e35761285c8560048686612b34565b6128a85760405162461bcd60e51b815260206004820152601160248201527f546f6b656e204c6f636b204661696c6564000000000000000000000000000000604482015260640161049c565b836001866040516128b99190614156565b90815260200160405180910390206005015f8282546128d891906141e2565b90915550612a549050565b60028160028111156128f7576128f76138e0565b03610853575f8315612909578361290b565b845b905060038660405161291d9190614156565b90815260408051602092819003830190205f848152925290205460ff16156129875760405162461bcd60e51b815260206004820152601460248201527f546f6b656e20416c7265616479204c6f636b6564000000000000000000000000604482015260640161049c565b6129948660048784612b34565b6129e05760405162461bcd60e51b815260206004820152601160248201527f546f6b656e204c6f636b204661696c6564000000000000000000000000000000604482015260640161049c565b600180876040516129f19190614156565b90815260200160405180910390206005015f828254612a1091906141e2565b925050819055506001600387604051612a299190614156565b90815260408051602092819003830190205f948552909152909120805460ff19169115159190911790555b84604051612a629190614156565b604051908190038120858252907fc480ef4e831b2ca5eb0b2f95c6564d9a56af5b3fe2383393008e3f1708dc9797906020016108af565b612aa1612aef565b6001600160a01b038116612ae3576040517f1e4fbdf70000000000000000000000000000000000000000000000000000000081525f600482015260240161049c565b612aec81612c62565b50565b5f546001600160a01b03163314611f41576040517f118cdaa700000000000000000000000000000000000000000000000000000000815233600482015260240161049c565b5f610aff858585855f612cbe565b5f5b8151811015612c4f57818181518110612b5f57612b5f614523565b6020026020010151600284604051612b779190614156565b90815260200160405180910390205f848481518110612b9857612b98614523565b60200260200101515f01516006811115612bb457612bb46138e0565b6006811115612bc557612bc56138e0565b815260208101919091526040015f2081518154829060ff19166001836006811115612bf257612bf26138e0565b02179055506020828101518051612c0f9260018501920190613579565b5060408201518051612c2b9160028401916020909101906135cd565b50606091909101516003909101805460ff1916911515919091179055600101612b44565b505050565b5f610ad483835f805f612cbe565b5f80546001600160a01b0383811673ffffffffffffffffffffffffffffffffffffffff19831681178455604051919092169283917f8be0079c531659141344cd1fd0a4f28419497f9722a3daafe3b4186f6b6457e09190a35050565b5f600286604051612ccf9190614156565b90815260200160405180910390205f866006811115612cf057612cf06138e0565b6006811115612d0157612d016138e0565b815260208101919091526040015f206003015460ff16612d2257505f610aff565b5f5b600287604051612d349190614156565b90815260200160405180910390205f876006811115612d5557612d556138e0565b6006811115612d6657612d666138e0565b815260208101919091526040015f206001015481101561300c575f600288604051612d919190614156565b90815260200160405180910390205f886006811115612db257612db26138e0565b6006811115612dc357612dc36138e0565b81526020019081526020015f206001018281548110612de457612de4614523565b905f5260205f2001604051602001612dfc9190614537565b6040516020818303038152906040528051906020012090505f612f1182612f0c60028c604051612e2c9190614156565b90815260200160405180910390205f8c6006811115612e4d57612e4d6138e0565b6006811115612e5e57612e5e6138e0565b81526020019081526020015f206002018681548110612e7f57612e7f614523565b905f5260205f2001805480602002602001604051908101604052809291908181526020018280548015612efe57602002820191905f5260205f20905f905b82829054906101000a900460ff166007811115612edc57612edc6138e0565b815260206001928301818104948501949093039092029101808411612ebd5790505b50505050508c898c8c613161565b613489565b90505f8060018b604051612f259190614156565b908152604051908190036020018120600101546001600160a01b031690612f4d908590614156565b5f604051808303815f865af19150503d805f8114612f86576040519150601f19603f3d011682016040523d82523d5f602084013e612f8b565b606091505b509150915081612fa2575f95505050505050610aff565b60038a6006811115612fb657612fb66138e0565b03612ffc5780515f03612fd0575f95505050505050610aff565b5f81806020019051810190612fe59190614501565b905080612ffa575f9650505050505050610aff565b505b505060019092019150612d249050565b5060019695505050505050565b5f5b60045481101561315d576130d06004828154811061303b5761303b614523565b905f5260205f2001805461304e906141aa565b80601f016020809104026020016040519081016040528092919081815260200182805461307a906141aa565b80156130c55780601f1061309c576101008083540402835291602001916130c5565b820191905f5260205f20905b8154815290600101906020018083116130a857829003601f168201915b505050505083613518565b1561315557600480546130e590600190614197565b815481106130f5576130f5614523565b905f5260205f20016004828154811061311057613110614523565b905f5260205f2001908161312491906145a9565b50600480548061313657613136614678565b600190038181905f5260205f20015f61314f9190613542565b90555050565b60010161301b565b5050565b60605f865167ffffffffffffffff81111561317e5761317e61373d565b6040519080825280602002602001820160405280156131b157816020015b606081526020019060019003908161319c5790505b5090505f5b875181101561347e5760058882815181106131d3576131d3614523565b602002602001015160078111156131ec576131ec6138e0565b0361322e5760408051306020820152015b60405160208183030381529060405282828151811061321e5761321e614523565b6020026020010181905250613476565b600288828151811061324257613242614523565b6020026020010151600781111561325b5761325b6138e0565b0361327157866040516020016131fd9190614171565b600488828151811061328557613285614523565b6020026020010151600781111561329e5761329e6138e0565b036132b4576040805160208101879052016131fd565b60038882815181106132c8576132c8614523565b602002602001015160078111156132e1576132e16138e0565b0361331f576001876040516132f69190614156565b908152604080519182900360209081018320600401546001600160a01b031690830152016131fd565b5f88828151811061333257613332614523565b6020026020010151600781111561334b5761334b6138e0565b03613389576001876040516133609190614156565b908152604080519182900360209081018320600101546001600160a01b031690830152016131fd565b600688828151811061339d5761339d614523565b602002602001015160078111156133b6576133b66138e0565b036133d457604080516001600160a01b0388166020820152016131fd565b60078882815181106133e8576133e8614523565b60200260200101516007811115613401576134016138e0565b0361342e57831561341d576040805160208101869052016131fd565b6040805160208101879052016131fd565b60405162461bcd60e51b815260206004820152601660248201527f5661726961626c65206e6f7420737570706f7274656400000000000000000000604482015260640161049c565b6001016131b6565b509695505050505050565b604080517fffffffff00000000000000000000000000000000000000000000000000000000841660208201528151600481830301815260249091019091525f5b825181101561163b57818382815181106134e5576134e5614523565b60200260200101516040516020016134fe92919061468c565b60408051601f1981840301815291905291506001016134c9565b5f610ad483835f81518351148015610ad45750508051602091820120825192909101919091201490565b50805461354e906141aa565b5f825580601f1061355d575050565b601f0160209004905f5260205f2090810190612aec9190613624565b828054828255905f5260205f209081019282156135bd579160200282015b828111156135bd57825182906135ad9082614240565b5091602001919060010190613597565b506135c9929150613638565b5090565b828054828255905f5260205f20908101928215613618579160200282015b828111156136185782518051613608918491602090910190613654565b50916020019190600101906135eb565b506135c99291506136ff565b5b808211156135c9575f8155600101613625565b808211156135c9575f61364b8282613542565b50600101613638565b828054828255905f5260205f2090601f016020900481019282156136f3579160200282015f5b838211156136c557835183826101000a81548160ff021916908360078111156136a5576136a56138e0565b021790555092602001926001016020815f0104928301926001030261367a565b80156136f15782816101000a81549060ff02191690556001016020815f010492830192600103026136c5565b505b506135c9929150613624565b808211156135c9575f613712828261371b565b506001016136ff565b5080545f8255601f0160209004905f5260205f2090810190612aec9190613624565b634e487b7160e01b5f52604160045260245ffd5b6040516080810167ffffffffffffffff811182821017156137745761377461373d565b60405290565b604051601f8201601f1916810167ffffffffffffffff811182821017156137a3576137a361373d565b604052919050565b5f82601f8301126137ba575f80fd5b813567ffffffffffffffff8111156137d4576137d461373d565b6137e7601f8201601f191660200161377a565b8181528460208386010111156137fb575f80fd5b816020850160208301375f918101602001919091529392505050565b5f805f60608486031215613829575f80fd5b833567ffffffffffffffff81111561383f575f80fd5b61384b868287016137ab565b9660208601359650604090950135949350505050565b5f60208284031215613871575f80fd5b813567ffffffffffffffff811115613887575f80fd5b6119cc848285016137ab565b5f5b838110156138ad578181015183820152602001613895565b50505f910152565b5f81518084526138cc816020860160208601613893565b601f01601f19169290920160200192915050565b634e487b7160e01b5f52602160045260245ffd5b60038110613904576139046138e0565b9052565b60058110613904576139046138e0565b5f61010080835261392b8184018c6138b5565b90506001600160a01b03808b16602085015261394a604085018b6138f4565b838203606085015261395c828a6138b5565b9150838203608085015261397082896138b5565b925080871660a085015250508360c083015261398f60e0830184613908565b9998505050505050505050565b5f80604083850312156139ad575f80fd5b823567ffffffffffffffff8111156139c3575f80fd5b6139cf858286016137ab565b95602094909401359450505050565b80356001600160a01b03811681146125ec575f80fd5b5f805f805f60808688031215613a08575f80fd5b613a11866139de565b9450613a1f602087016139de565b935060408601359250606086013567ffffffffffffffff80821115613a42575f80fd5b818801915088601f830112613a55575f80fd5b813581811115613a63575f80fd5b896020828501011115613a74575f80fd5b9699959850939650602001949392505050565b602081525f8251610100806020850152613aa56101208501836138b5565b91506020850151613ac160408601826001600160a01b03169052565b506040850151613ad460608601826138f4565b506060850151601f1980868503016080870152613af184836138b5565b935060808701519150808685030160a087015250613b0f83826138b5565b92505060a0850151613b2c60c08601826001600160a01b03169052565b5060c085015160e085015260e0850151613b4882860182613908565b5090949350505050565b8035600381106125ec575f80fd5b5f67ffffffffffffffff821115613b7957613b7961373d565b5060051b60200190565b8035600781106125ec575f80fd5b5f82601f830112613ba0575f80fd5b81356020613bb5613bb083613b60565b61377a565b828152600592831b8501820192828201919087851115613bd3575f80fd5b8387015b85811015613c7057803567ffffffffffffffff811115613bf5575f80fd5b8801603f81018a13613c05575f80fd5b858101356040613c17613bb083613b60565b82815291851b8301810191888101908d841115613c32575f80fd5b938201935b83851015613c5f578435925060088310613c4f575f80fd5b8282529389019390890190613c37565b885250505093850193508401613bd7565b5090979650505050505050565b8015158114612aec575f80fd5b80356125ec81613c7d565b5f82601f830112613ca4575f80fd5b613cb1613bb08335613b60565b82358082526020808301929160051b85010185811115613ccf575f80fd5b602085015b81811015613df95767ffffffffffffffff8082351115613cf2575f80fd5b813587016080818a03601f19011215613d09575f80fd5b613d11613751565b613d1d60208301613b83565b8152604082013583811115613d30575f80fd5b8201603f81018b13613d40575f80fd5b6020810135613d51613bb082613b60565b81815260059190911b82016040019060208101908d831115613d71575f80fd5b604084015b83811015613da9578781351115613d8b575f80fd5b613d9b8f604083358801016137ab565b835260209283019201613d76565b506020850152505050606082013583811115613dc3575f80fd5b613dd28b602083860101613b91565b604083015250613de460808301613c8a565b60608201528652505060209384019301613cd4565b509095945050505050565b8035600581106125ec575f80fd5b5f805f805f805f80610100898b031215613e2a575f80fd5b883567ffffffffffffffff80821115613e41575f80fd5b613e4d8c838d016137ab565b9950613e5b60208c016139de565b9850613e6960408c01613b52565b975060608b0135915080821115613e7e575f80fd5b613e8a8c838d016137ab565b965060808b0135915080821115613e9f575f80fd5b613eab8c838d016137ab565b9550613eb960a08c016139de565b945060c08b0135915080821115613ece575f80fd5b50613edb8b828c01613c95565b925050613eea60e08a01613e04565b90509295985092959890939650565b5f805f60608486031215613f0b575f80fd5b833567ffffffffffffffff811115613f21575f80fd5b613f2d868287016137ab565b935050613f3c602085016139de565b9150604084013590509250925092565b5f8282518085526020808601955060208260051b840101602086015f5b84811015613c7057601f19868403018952613f858383516138b5565b98840198925090830190600101613f69565b602081525f610ad46020830184613f4c565b5f805f8060808587031215613fbc575f80fd5b843567ffffffffffffffff811115613fd2575f80fd5b613fde878288016137ab565b945050613fed602086016139de565b93969395505050506040820135916060013590565b5f805f805f805f60e0888a031215614018575f80fd5b873567ffffffffffffffff8082111561402f575f80fd5b61403b8b838c016137ab565b985061404960208b016139de565b975061405760408b01613b52565b965060608a013591508082111561406c575f80fd5b6140788b838c016137ab565b955060808a013591508082111561408d575f80fd5b5061409a8a828b016137ab565b9350506140a960a089016139de565b91506140b760c08901613e04565b905092959891949750929550565b5f80604083850312156140d6575f80fd5b823567ffffffffffffffff8111156140ec575f80fd5b6140f8858286016137ab565b92505061410760208401613b83565b90509250929050565b60078110613904576139046138e0565b6040810161412e8285614110565b82151560208301529392505050565b5f6020828403121561414d575f80fd5b610ad4826139de565b5f8251614167818460208701613893565b9190910192915050565b602081525f610ad460208301846138b5565b634e487b7160e01b5f52601160045260245ffd5b81810381811115610ad757610ad7614183565b600181811c908216806141be57607f821691505b6020821081036141dc57634e487b7160e01b5f52602260045260245ffd5b50919050565b80820180821115610ad757610ad7614183565b601f821115612c4f57805f5260205f20601f840160051c8101602085101561421a5750805b601f840160051c820191505b81811015614239575f8155600101614226565b5050505050565b815167ffffffffffffffff81111561425a5761425a61373d565b61426e8161426884546141aa565b846141f5565b602080601f8311600181146142a1575f841561428a5750858301515b5f19600386901b1c1916600185901b1785556142f8565b5f85815260208120601f198616915b828110156142cf578886015182559484019460019091019084016142b0565b50858210156142ec57878501515f19600388901b60f8161c191681555b505060018460011b0185555b505050505050565b608081525f61431260808301876138b5565b90506001600160a01b03808616602084015261433160408401866138f4565b80841660608401525095945050505050565b604081525f61435560408301856138b5565b90508260208301529392505050565b61010081525f61437861010083018b6138b5565b6001600160a01b03808b166020850152614395604085018b6138f4565b83820360608501526143a7828a6138b5565b915083820360808501526143bb82896138b5565b915080871660a08501525082810360c084015280855180835260208301915060208160051b840101602088015f5b838110156144eb57601f19808785030186528251614408858251614110565b6020810151608060208701526144216080870182613f4c565b90506040820151868203604088015281815180845260208401915060208160051b8501016020840193505f5b828110156144b45785820388018452845180518084526020918201918401905f5b8181101561449c57835160088110614488576144886138e0565b83526020938401939092019160010161446e565b5050602096870196959095019492505060010161444d565b50606086015196506144ca60608b018815159052565b809950505050505050506020820191506020850194506001810190506143e9565b50508094505050505061398f60e0830184613908565b5f60208284031215614511575f80fd5b815161451c81613c7d565b9392505050565b634e487b7160e01b5f52603260045260245ffd5b5f808354614544816141aa565b6001828116801561455c57600181146145715761459d565b60ff198416875282151583028701945061459d565b875f526020805f205f5b858110156145945781548a82015290840190820161457b565b50505082870194505b50929695505050505050565b8181036145b4575050565b6145be82546141aa565b67ffffffffffffffff8111156145d6576145d661373d565b6145e48161426884546141aa565b5f601f821160018114614615575f83156145fe5750848201545b5f19600385901b1c1916600184901b178455614239565b5f8581526020808220868352908220601f198616925b8381101561464b578286015482556001958601959091019060200161462b565b508583101561466857818501545f19600388901b60f8161c191681555b5050505050600190811b01905550565b634e487b7160e01b5f52603160045260245ffd5b5f835161469d818460208801613893565b8351908301906146b1818360208801613893565b0194935050505056fea2646970667358221220b9765d1f20489aafcf894ad90cd18262d0f11b9a03d939e6c706f9cda0d1af4564736f6c63430008180033","linkReferences":{}},"methodIdentifiers":{"NFT_IDs(string,uint256)":"19d09bc9","assign(string,address,uint256)":"4534ba17","assign(string,address,uint256,uint256)":"7d61c2ee","bridge_address()":"1255c189","burn(string,uint256)":"b48272cc","burn(string,uint256,uint256)":"02c7bd96","getAllAssetsIDs()":"5137b8a7","getToken(string)":"c1733f68","getToken(string,uint256)":"324980b5","lock(string,uint256)":"e1efb596","lock(string,uint256,uint256)":"e4c58bf2","mint(string,uint256)":"056b01ce","mint(string,uint256,uint256)":"1c635ded","onERC721Received(address,address,uint256,bytes)":"150b7a02","owner()":"8da5cb5b","renounceOwnership()":"715018a6","tokens(string)":"04c2320b","tokensInteractions(string,uint8)":"ea8f547f","transferOwnership(address)":"f2fde38b","unlock(string,uint256)":"d9cf884c","unlock(string,uint256,uint256)":"53ce9889","unwrap(string)":"a1bc17c5","wrap(string,address,uint8,string,string,address,(uint8,string[],uint8[][],bool)[],uint8)":"433f60ac","wrap(string,address,uint8,string,string,address,uint8)":"dbf15639"},"id":10}