{"abi":[{"type":"constructor","inputs":[{"name":"_bridge_address","type":"address","internalType":"address"}],"stateMutability":"nonpayable"},{"type":"function","name":"assign","inputs":[{"name":"tokenId","type":"string","internalType":"string"},{"name":"receiver_account","type":"address","internalType":"address"},{"name":"amount","type":"uint256","internalType":"uint256"}],"outputs":[{"name":"success","type":"bool","internalType":"bool"}],"stateMutability":"nonpayable"},{"type":"function","name":"bridge_address","inputs":[],"outputs":[{"name":"","type":"address","internalType":"address"}],"stateMutability":"view"},{"type":"function","name":"burn","inputs":[{"name":"tokenId","type":"string","internalType":"string"},{"name":"amount","type":"uint256","internalType":"uint256"}],"outputs":[{"name":"success","type":"bool","internalType":"bool"}],"stateMutability":"nonpayable"},{"type":"function","name":"getAllAssetsIDs","inputs":[],"outputs":[{"name":"","type":"string[]","internalType":"string[]"}],"stateMutability":"view"},{"type":"function","name":"getToken","inputs":[{"name":"tokenId","type":"string","internalType":"string"}],"outputs":[{"name":"token","type":"tuple","internalType":"struct Token","components":[{"name":"contractName","type":"string","internalType":"string"},{"name":"contractAddress","type":"address","internalType":"address"},{"name":"tokenType","type":"uint8","internalType":"enum TokenType"},{"name":"tokenId","type":"string","internalType":"string"},{"name":"referenceId","type":"string","internalType":"string"},{"name":"owner","type":"address","internalType":"address"},{"name":"amount","type":"uint256","internalType":"uint256"}]}],"stateMutability":"view"},{"type":"function","name":"lock","inputs":[{"name":"tokenId","type":"string","internalType":"string"},{"name":"amount","type":"uint256","internalType":"uint256"}],"outputs":[{"name":"success","type":"bool","internalType":"bool"}],"stateMutability":"nonpayable"},{"type":"function","name":"mint","inputs":[{"name":"tokenId","type":"string","internalType":"string"},{"name":"amount","type":"uint256","internalType":"uint256"}],"outputs":[{"name":"success","type":"bool","internalType":"bool"}],"stateMutability":"nonpayable"},{"type":"function","name":"owner","inputs":[],"outputs":[{"name":"","type":"address","internalType":"address"}],"stateMutability":"view"},{"type":"function","name":"renounceOwnership","inputs":[],"outputs":[],"stateMutability":"nonpayable"},{"type":"function","name":"tokens","inputs":[{"name":"","type":"string","internalType":"string"}],"outputs":[{"name":"contractName","type":"string","internalType":"string"},{"name":"contractAddress","type":"address","internalType":"address"},{"name":"tokenType","type":"uint8","internalType":"enum TokenType"},{"name":"tokenId","type":"string","internalType":"string"},{"name":"referenceId","type":"string","internalType":"string"},{"name":"owner","type":"address","internalType":"address"},{"name":"amount","type":"uint256","internalType":"uint256"}],"stateMutability":"view"},{"type":"function","name":"tokensInteractions","inputs":[{"name":"","type":"string","internalType":"string"},{"name":"","type":"uint8","internalType":"enum InteractionType"}],"outputs":[{"name":"interactionType","type":"uint8","internalType":"enum InteractionType"},{"name":"available","type":"bool","internalType":"bool"}],"stateMutability":"view"},{"type":"function","name":"transferOwnership","inputs":[{"name":"newOwner","type":"address","internalType":"address"}],"outputs":[],"stateMutability":"nonpayable"},{"type":"function","name":"unlock","inputs":[{"name":"tokenId","type":"string","internalType":"string"},{"name":"amount","type":"uint256","internalType":"uint256"}],"outputs":[{"name":"success","type":"bool","internalType":"bool"}],"stateMutability":"nonpayable"},{"type":"function","name":"unwrap","inputs":[{"name":"tokenId","type":"string","internalType":"string"}],"outputs":[{"name":"success","type":"bool","internalType":"bool"}],"stateMutability":"nonpayable"},{"type":"function","name":"wrap","inputs":[{"name":"contractName","type":"string","internalType":"string"},{"name":"contractAddress","type":"address","internalType":"address"},{"name":"tokenType","type":"uint8","internalType":"enum TokenType"},{"name":"tokenId","type":"string","internalType":"string"},{"name":"referenceId","type":"string","internalType":"string"},{"name":"owner","type":"address","internalType":"address"}],"outputs":[{"name":"wrapSuccess","type":"bool","internalType":"bool"}],"stateMutability":"nonpayable"},{"type":"function","name":"wrap","inputs":[{"name":"contractName","type":"string","internalType":"string"},{"name":"contractAddress","type":"address","internalType":"address"},{"name":"tokenType","type":"uint8","internalType":"enum TokenType"},{"name":"tokenId","type":"string","internalType":"string"},{"name":"referenceId","type":"string","internalType":"string"},{"name":"owner","type":"address","internalType":"address"},{"name":"interactions","type":"tuple[]","internalType":"struct InteractionSignature[]","components":[{"name":"interactionType","type":"uint8","internalType":"enum InteractionType"},{"name":"functionsSignature","type":"string[]","internalType":"string[]"},{"name":"variables","type":"uint8[][]","internalType":"enum VarType[][]"},{"name":"available","type":"bool","internalType":"bool"}]}],"outputs":[{"name":"wrapSuccess","type":"bool","internalType":"bool"}],"stateMutability":"nonpayable"},{"type":"event","name":"Assign","inputs":[{"name":"tokenId","type":"string","indexed":true,"internalType":"string"},{"name":"receiver_account","type":"address","indexed":false,"internalType":"address"},{"name":"amount","type":"uint256","indexed":false,"internalType":"uint256"}],"anonymous":false},{"type":"event","name":"Burn","inputs":[{"name":"tokenId","type":"string","indexed":true,"internalType":"string"},{"name":"amount","type":"uint256","indexed":false,"internalType":"uint256"}],"anonymous":false},{"type":"event","name":"Changed","inputs":[{"name":"id","type":"string","indexed":true,"internalType":"string"},{"name":"value","type":"bytes[]","indexed":false,"internalType":"bytes[]"}],"anonymous":false},{"type":"event","name":"Lock","inputs":[{"name":"tokenId","type":"string","indexed":true,"internalType":"string"},{"name":"amount","type":"uint256","indexed":false,"internalType":"uint256"}],"anonymous":false},{"type":"event","name":"Mint","inputs":[{"name":"tokenId","type":"string","indexed":true,"internalType":"string"},{"name":"amount","type":"uint256","indexed":false,"internalType":"uint256"}],"anonymous":false},{"type":"event","name":"OwnershipTransferred","inputs":[{"name":"previousOwner","type":"address","indexed":true,"internalType":"address"},{"name":"newOwner","type":"address","indexed":true,"internalType":"address"}],"anonymous":false},{"type":"event","name":"Unlock","inputs":[{"name":"tokenId","type":"string","indexed":true,"internalType":"string"},{"name":"amount","type":"uint256","indexed":false,"internalType":"uint256"}],"anonymous":false},{"type":"event","name":"Unwrap","inputs":[{"name":"tokenId","type":"string","indexed":true,"internalType":"string"}],"anonymous":false},{"type":"event","name":"Wrap","inputs":[{"name":"tokenId","type":"string","indexed":true,"internalType":"string"},{"name":"contractName","type":"string","indexed":false,"internalType":"string"},{"name":"contractAddress","type":"address","indexed":false,"internalType":"address"},{"name":"tokenType","type":"uint8","indexed":false,"internalType":"enum TokenType"},{"name":"owner","type":"address","indexed":false,"internalType":"address"}],"anonymous":false},{"type":"error","name":"InsuficientAmountLocked","inputs":[{"name":"tokenId","type":"string","internalType":"string"},{"name":"amount","type":"uint256","internalType":"uint256"}]},{"type":"error","name":"OwnableInvalidOwner","inputs":[{"name":"owner","type":"address","internalType":"address"}]},{"type":"error","name":"OwnableUnauthorizedAccount","inputs":[{"name":"account","type":"address","internalType":"address"}]},{"type":"error","name":"TokenAlreadyWrapped","inputs":[{"name":"tokenId","type":"string","internalType":"string"}]},{"type":"error","name":"TokenLocked","inputs":[{"name":"tokenId","type":"string","internalType":"string"}]},{"type":"error","name":"TokenNotAvailable","inputs":[{"name":"tokenId","type":"string","internalType":"string"}]},{"type":"error","name":"TokenNotLocked","inputs":[{"name":"tokenId","type":"string","internalType":"string"}]},{"type":"error","name":"TokenNotUnlocked","inputs":[{"name":"tokenId","type":"string","internalType":"string"}]}],"bytecode":{"object":"0x608060405234801561001057600080fd5b50604051614a38380380614a3883398181016040528101906100329190610223565b80600073ffffffffffffffffffffffffffffffffffffffff168173ffffffffffffffffffffffffffffffffffffffff16036100a55760006040517f1e4fbdf700000000000000000000000000000000000000000000000000000000815260040161009c919061025f565b60405180910390fd5b6100b4816100fc60201b60201c565b5080600460006101000a81548173ffffffffffffffffffffffffffffffffffffffff021916908373ffffffffffffffffffffffffffffffffffffffff1602179055505061027a565b60008060009054906101000a900473ffffffffffffffffffffffffffffffffffffffff169050816000806101000a81548173ffffffffffffffffffffffffffffffffffffffff021916908373ffffffffffffffffffffffffffffffffffffffff1602179055508173ffffffffffffffffffffffffffffffffffffffff168173ffffffffffffffffffffffffffffffffffffffff167f8be0079c531659141344cd1fd0a4f28419497f9722a3daafe3b4186f6b6457e060405160405180910390a35050565b600080fd5b600073ffffffffffffffffffffffffffffffffffffffff82169050919050565b60006101f0826101c5565b9050919050565b610200816101e5565b811461020b57600080fd5b50565b60008151905061021d816101f7565b92915050565b600060208284031215610239576102386101c0565b5b60006102478482850161020e565b91505092915050565b610259816101e5565b82525050565b60006020820190506102746000830184610250565b92915050565b6147af806102896000396000f3fe608060405234801561001057600080fd5b50600436106101005760003560e01c8063a1bc17c511610097578063e1efb59611610066578063e1efb596146102ef578063ea8f547f1461031f578063f272660b14610350578063f2fde38b1461038057610100565b8063a1bc17c51461022f578063b48272cc1461025f578063c1733f681461028f578063d9cf884c146102bf57610100565b80635137b8a7116100d35780635137b8a7146101b95780636a0876e0146101d7578063715018a6146102075780638da5cb5b1461021157610100565b806304c2320b14610105578063056b01ce1461013b5780631255c1891461016b5780634534ba1714610189575b600080fd5b61011f600480360381019061011a9190612b05565b61039c565b6040516101329796959493929190612c9e565b60405180910390f35b61015560048036038101906101509190612d4e565b6105d9565b6040516101629190612dc5565b60405180910390f35b61017361075d565b6040516101809190612de0565b60405180910390f35b6101a3600480360381019061019e9190612e27565b610783565b6040516101b09190612dc5565b60405180910390f35b6101c16108cf565b6040516101ce9190612fa2565b60405180910390f35b6101f160048036038101906101ec9190612fe9565b6109a8565b6040516101fe9190612dc5565b60405180910390f35b61020f610a9a565b005b610219610aae565b6040516102269190612de0565b60405180910390f35b61024960048036038101906102449190612b05565b610ad7565b6040516102569190612dc5565b60405180910390f35b61027960048036038101906102749190612d4e565b610db2565b6040516102869190612dc5565b60405180910390f35b6102a960048036038101906102a49190612b05565b610efa565b6040516102b691906131a1565b60405180910390f35b6102d960048036038101906102d49190612d4e565b6111d9565b6040516102e69190612dc5565b60405180910390f35b61030960048036038101906103049190612d4e565b6113e5565b6040516103169190612dc5565b60405180910390f35b610339600480360381019061033491906131e8565b611589565b60405161034792919061328c565b60405180910390f35b61036a6004803603810190610365919061372b565b6115ea565b6040516103779190612dc5565b60405180910390f35b61039a6004803603810190610395919061383d565b611999565b005b6001818051602081018201805184825260208301602085012081835280955050505050506000915090508060000180546103d590613899565b80601f016020809104026020016040519081016040528092919081815260200182805461040190613899565b801561044e5780601f106104235761010080835404028352916020019161044e565b820191906000526020600020905b81548152906001019060200180831161043157829003601f168201915b5050505050908060010160009054906101000a900473ffffffffffffffffffffffffffffffffffffffff16908060010160149054906101000a900460ff169080600201805461049c90613899565b80601f01602080910402602001604051908101604052809291908181526020018280546104c890613899565b80156105155780601f106104ea57610100808354040283529160200191610515565b820191906000526020600020905b8154815290600101906020018083116104f857829003601f168201915b50505050509080600301805461052a90613899565b80601f016020809104026020016040519081016040528092919081815260200182805461055690613899565b80156105a35780601f10610578576101008083540402835291602001916105a3565b820191906000526020600020905b81548152906001019060200180831161058657829003601f168201915b5050505050908060040160009054906101000a900473ffffffffffffffffffffffffffffffffffffffff16908060050154905087565b60006105e3611a1f565b600073ffffffffffffffffffffffffffffffffffffffff1660018460405161060b9190613906565b908152602001604051809103902060010160009054906101000a900473ffffffffffffffffffffffffffffffffffffffff1673ffffffffffffffffffffffffffffffffffffffff160361069557826040517fc0bab25f00000000000000000000000000000000000000000000000000000000815260040161068c919061391d565b60405180910390fd5b6106a183600084611aa6565b6106e0576040517f08c379a00000000000000000000000000000000000000000000000000000000081526004016106d79061398b565b60405180910390fd5b816001846040516106f19190613906565b908152602001604051809103902060050181905550826040516107149190613906565b60405180910390207f0a4e1e5035320483d096cf114513007c4eda3853a4dca806da2d9faec60470a68360405161074b91906139ab565b60405180910390a26001905092915050565b600460009054906101000a900473ffffffffffffffffffffffffffffffffffffffff1681565b600061078d611a1f565b8160018560405161079e9190613906565b90815260200160405180910390206005015410156107f1576040517f08c379a00000000000000000000000000000000000000000000000000000000081526004016107e890613a12565b60405180910390fd5b6107fe8460028486611abe565b61083d576040517f08c379a000000000000000000000000000000000000000000000000000000000815260040161083490613a7e565b60405180910390fd5b8160018560405161084e9190613906565b9081526020016040518091039020600501600082825461086e9190613acd565b92505081905550836040516108839190613906565b60405180910390207f0b3112bdbedc0251766a323a5c6ad4df77174bbc08bd61b944815ad9efe8d54c84846040516108bc929190613b01565b60405180910390a2600190509392505050565b60606003805480602002602001604051908101604052809291908181526020016000905b8282101561099f57838290600052602060002001805461091290613899565b80601f016020809104026020016040519081016040528092919081815260200182805461093e90613899565b801561098b5780601f106109605761010080835404028352916020019161098b565b820191906000526020600020905b81548152906001019060200180831161096e57829003601f168201915b5050505050815260200190600101906108f3565b50505050905090565b60006109b2611a1f565b3073ffffffffffffffffffffffffffffffffffffffff1663f272660b888888888888600067ffffffffffffffff8111156109ef576109ee6129da565b5b604051908082528060200260200182016040528015610a2857816020015b610a156126b8565b815260200190600190039081610a0d5790505b506040518863ffffffff1660e01b8152600401610a4b9796959493929190613eb3565b6020604051808303816000875af1158015610a6a573d6000803e3d6000fd5b505050506040513d601f19601f82011682018060405250810190610a8e9190613f53565b90509695505050505050565b610aa2611a1f565b610aac6000611e1d565b565b60008060009054906101000a900473ffffffffffffffffffffffffffffffffffffffff16905090565b6000610ae1611a1f565b600073ffffffffffffffffffffffffffffffffffffffff16600183604051610b099190613906565b908152602001604051809103902060010160009054906101000a900473ffffffffffffffffffffffffffffffffffffffff1673ffffffffffffffffffffffffffffffffffffffff1603610b9357816040517fc0bab25f000000000000000000000000000000000000000000000000000000008152600401610b8a919061391d565b60405180910390fd5b6000600183604051610ba59190613906565b9081526020016040518091039020600501541115610bfa57816040517fb7d2c10a000000000000000000000000000000000000000000000000000000008152600401610bf1919061391d565b60405180910390fd5b610cac600183604051610c0d9190613906565b90815260200160405180910390206002018054610c2990613899565b80601f0160208091040260200160405190810160405280929190818152602001828054610c5590613899565b8015610ca25780601f10610c7757610100808354040283529160200191610ca2565b820191906000526020600020905b815481529060010190602001808311610c8557829003601f168201915b5050505050611ee1565b600182604051610cbc9190613906565b908152602001604051809103902060008082016000610cdb91906126f4565b6001820160006101000a81549073ffffffffffffffffffffffffffffffffffffffff02191690556001820160146101000a81549060ff0219169055600282016000610d2691906126f4565b600382016000610d3691906126f4565b6004820160006101000a81549073ffffffffffffffffffffffffffffffffffffffff02191690556005820160009055505081604051610d759190613906565b60405180910390207f3855d31914452a5e7361730662e60834555d7cb26d380140894d85fd0d13b85460405160405180910390a260019050919050565b6000610dbc611a1f565b81600184604051610dcd9190613906565b9081526020016040518091039020600501541015610e20576040517f08c379a0000000000000000000000000000000000000000000000000000000008152600401610e1790613fcc565b60405180910390fd5b610e2c83600184611aa6565b610e6b576040517f08c379a0000000000000000000000000000000000000000000000000000000008152600401610e6290614038565b60405180910390fd5b81600184604051610e7c9190613906565b90815260200160405180910390206005016000828254610e9c9190613acd565b9250508190555082604051610eb19190613906565b60405180910390207fa0237080cf48d9e1fbb9ef1f82e33b11170d047b2b540a73b457d0916d53ee9983604051610ee891906139ab565b60405180910390a26001905092915050565b610f02612734565b600182604051610f129190613906565b90815260200160405180910390206040518060e0016040529081600082018054610f3b90613899565b80601f0160208091040260200160405190810160405280929190818152602001828054610f6790613899565b8015610fb45780601f10610f8957610100808354040283529160200191610fb4565b820191906000526020600020905b815481529060010190602001808311610f9757829003601f168201915b505050505081526020016001820160009054906101000a900473ffffffffffffffffffffffffffffffffffffffff1673ffffffffffffffffffffffffffffffffffffffff1673ffffffffffffffffffffffffffffffffffffffff1681526020016001820160149054906101000a900460ff16600481111561103857611037612c0e565b5b600481111561104a57611049612c0e565b5b815260200160028201805461105e90613899565b80601f016020809104026020016040519081016040528092919081815260200182805461108a90613899565b80156110d75780601f106110ac576101008083540402835291602001916110d7565b820191906000526020600020905b8154815290600101906020018083116110ba57829003601f168201915b505050505081526020016003820180546110f090613899565b80601f016020809104026020016040519081016040528092919081815260200182805461111c90613899565b80156111695780601f1061113e57610100808354040283529160200191611169565b820191906000526020600020905b81548152906001019060200180831161114c57829003601f168201915b505050505081526020016004820160009054906101000a900473ffffffffffffffffffffffffffffffffffffffff1673ffffffffffffffffffffffffffffffffffffffff1673ffffffffffffffffffffffffffffffffffffffff1681526020016005820154815250509050919050565b60006111e3611a1f565b600073ffffffffffffffffffffffffffffffffffffffff1660018460405161120b9190613906565b908152602001604051809103902060010160009054906101000a900473ffffffffffffffffffffffffffffffffffffffff1673ffffffffffffffffffffffffffffffffffffffff160361129557826040517fc0bab25f00000000000000000000000000000000000000000000000000000000815260040161128c919061391d565b60405180910390fd5b816001846040516112a69190613906565b90815260200160405180910390206005015410156112fd5782826040517fed579e600000000000000000000000000000000000000000000000000000000081526004016112f4929190614058565b60405180910390fd5b600061130b84600585611aa6565b905080156113a257826001856040516113249190613906565b908152602001604051809103902060050160008282546113449190613acd565b92505081905550836040516113599190613906565b60405180910390207f7b3c894115251262b174b7aeab24a57e00bc2e8853d1ef2f57a217edaa69c06e8460405161139091906139ab565b60405180910390a260019150506113df565b836040517f58300fe70000000000000000000000000000000000000000000000000000000081526004016113d6919061391d565b60405180910390fd5b92915050565b60006113ef611a1f565b600073ffffffffffffffffffffffffffffffffffffffff166001846040516114179190613906565b908152602001604051809103902060010160009054906101000a900473ffffffffffffffffffffffffffffffffffffffff1673ffffffffffffffffffffffffffffffffffffffff16036114a157826040517fc0bab25f000000000000000000000000000000000000000000000000000000008152600401611498919061391d565b60405180910390fd5b60006114af84600485611aa6565b9050801561154657826001856040516114c89190613906565b908152602001604051809103902060050160008282546114e89190614088565b92505081905550836040516114fd9190613906565b60405180910390207fc480ef4e831b2ca5eb0b2f95c6564d9a56af5b3fe2383393008e3f1708dc97978460405161153491906139ab565b60405180910390a26001915050611583565b836040517f8244096a00000000000000000000000000000000000000000000000000000000815260040161157a919061391d565b60405180910390fd5b92915050565b600282805160208101820180518482526020830160208501208183528095505050505050602052806000526040600020600091509150508060000160009054906101000a900460ff16908060030160009054906101000a900460ff16905082565b60006115f4611a1f565b600073ffffffffffffffffffffffffffffffffffffffff1660018660405161161c9190613906565b908152602001604051809103902060010160009054906101000a900473ffffffffffffffffffffffffffffffffffffffff1673ffffffffffffffffffffffffffffffffffffffff16146116a657846040517f67ab234400000000000000000000000000000000000000000000000000000000815260040161169d919061391d565b60405180910390fd5b6116b08583612046565b6002856040516116c09190613906565b90815260200160405180910390206000600360058111156116e4576116e3612c0e565b5b60058111156116f6576116f5612c0e565b5b815260200190815260200160002060030160009054906101000a900460ff16156117655761172585600361217d565b611764576040517f08c379a000000000000000000000000000000000000000000000000000000000815260040161175b9061412e565b60405180910390fd5b5b6040518060e001604052808981526020018873ffffffffffffffffffffffffffffffffffffffff1681526020018760048111156117a5576117a4612c0e565b5b81526020018681526020018581526020018473ffffffffffffffffffffffffffffffffffffffff16815260200160008152506001866040516117e79190613906565b9081526020016040518091039020600082015181600001908161180a91906142fa565b5060208201518160010160006101000a81548173ffffffffffffffffffffffffffffffffffffffff021916908373ffffffffffffffffffffffffffffffffffffffff16021790555060408201518160010160146101000a81548160ff0219169083600481111561187d5761187c612c0e565b5b0217905550606082015181600201908161189791906142fa565b5060808201518160030190816118ad91906142fa565b5060a08201518160040160006101000a81548173ffffffffffffffffffffffffffffffffffffffff021916908373ffffffffffffffffffffffffffffffffffffffff16021790555060c0820151816005015590505060038590806001815401808255809150506001900390600052602060002001600090919091909150908161193691906142fa565b50846040516119459190613906565b60405180910390207f1455a30f034090309f76768ab435a6bd3c547427fc31dbe48477cfb5b9f47dda8989898760405161198294939291906143cc565b60405180910390a260019050979650505050505050565b6119a1611a1f565b600073ffffffffffffffffffffffffffffffffffffffff168173ffffffffffffffffffffffffffffffffffffffff1603611a135760006040517f1e4fbdf7000000000000000000000000000000000000000000000000000000008152600401611a0a9190612de0565b60405180910390fd5b611a1c81611e1d565b50565b611a27612194565b73ffffffffffffffffffffffffffffffffffffffff16611a45610aae565b73ffffffffffffffffffffffffffffffffffffffff1614611aa457611a68612194565b6040517f118cdaa7000000000000000000000000000000000000000000000000000000008152600401611a9b9190612de0565b60405180910390fd5b565b6000611ab58484846000611abe565b90509392505050565b6000600285604051611ad09190613906565b90815260200160405180910390206000856005811115611af357611af2612c0e565b5b6005811115611b0557611b04612c0e565b5b815260200190815260200160002060030160009054906101000a900460ff16611b315760009050611e15565b60005b600286604051611b449190613906565b90815260200160405180910390206000866005811115611b6757611b66612c0e565b5b6005811115611b7957611b78612c0e565b5b815260200190815260200160002060010180549050811015611e0f576000600287604051611ba79190613906565b90815260200160405180910390206000876005811115611bca57611bc9612c0e565b5b6005811115611bdc57611bdb612c0e565b5b81526020019081526020016000206001018281548110611bff57611bfe614418565b5b90600052602060002001604051602001611c1991906144ca565b6040516020818303038152906040528051906020012090506000611d3d82611d3860028b604051611c4a9190613906565b908152602001604051809103902060008b6005811115611c6d57611c6c612c0e565b5b6005811115611c7f57611c7e612c0e565b5b81526020019081526020016000206002018681548110611ca257611ca1614418565b5b90600052602060002001805480602002602001604051908101604052809291908181526020018280548015611d2b57602002820191906000526020600020906000905b82829054906101000a900460ff166006811115611d0557611d04612c0e565b5b81526020019060010190602082600001049283019260010382029150808411611ce55790505b50505050508b898b61219c565b61260e565b90506000600189604051611d519190613906565b908152602001604051809103902060010160009054906101000a900473ffffffffffffffffffffffffffffffffffffffff1673ffffffffffffffffffffffffffffffffffffffff1682604051611da79190614528565b6000604051808303816000865af19150503d8060008114611de4576040519150601f19603f3d011682016040523d82523d6000602084013e611de9565b606091505b5050905080611dff576000945050505050611e15565b5050508080600101915050611b34565b50600190505b949350505050565b60008060009054906101000a900473ffffffffffffffffffffffffffffffffffffffff169050816000806101000a81548173ffffffffffffffffffffffffffffffffffffffff021916908373ffffffffffffffffffffffffffffffffffffffff1602179055508173ffffffffffffffffffffffffffffffffffffffff168173ffffffffffffffffffffffffffffffffffffffff167f8be0079c531659141344cd1fd0a4f28419497f9722a3daafe3b4186f6b6457e060405160405180910390a35050565b60005b60038054905081101561204257611fa160038281548110611f0857611f07614418565b5b906000526020600020018054611f1d90613899565b80601f0160208091040260200160405190810160405280929190818152602001828054611f4990613899565b8015611f965780601f10611f6b57610100808354040283529160200191611f96565b820191906000526020600020905b815481529060010190602001808311611f7957829003601f168201915b505050505083612690565b156120355760036001600380549050611fba9190613acd565b81548110611fcb57611fca614418565b5b9060005260206000200160038281548110611fe957611fe8614418565b5b906000526020600020019081611fff919061456a565b50600380548061201257612011614652565b5b60019003818190600052602060002001600061202e91906126f4565b9055612042565b8080600101915050611ee4565b5050565b60005b81518110156121785781818151811061206557612064614418565b5b602002602001015160028460405161207d9190613906565b908152602001604051809103902060008484815181106120a05761209f614418565b5b60200260200101516000015160058111156120be576120bd612c0e565b5b60058111156120d0576120cf612c0e565b5b815260200190815260200160002060008201518160000160006101000a81548160ff0219169083600581111561210957612108612c0e565b5b0217905550602082015181600101908051906020019061212a9291906127af565b506040820151816002019080519060200190612147929190612808565b5060608201518160030160006101000a81548160ff0219169083151502179055509050508080600101915050612049565b505050565b600061218c8383600080611abe565b905092915050565b600033905090565b60606000855167ffffffffffffffff8111156121bb576121ba6129da565b5b6040519080825280602002602001820160405280156121ee57816020015b60608152602001906001900390816121d95790505b50905060005b8651811015612601576005600681111561221157612210612c0e565b5b87828151811061222457612223614418565b5b6020026020010151600681111561223e5761223d612c0e565b5b0361228657306040516020016122549190612de0565b60405160208183030381529060405282828151811061227657612275614418565b5b60200260200101819052506125f4565b6002600681111561229a57612299612c0e565b5b8782815181106122ad576122ac614418565b5b602002602001015160068111156122c7576122c6612c0e565b5b0361230f57856040516020016122dd919061391d565b6040516020818303038152906040528282815181106122ff576122fe614418565b5b60200260200101819052506125f3565b6004600681111561232357612322612c0e565b5b87828151811061233657612335614418565b5b602002602001015160068111156123505761234f612c0e565b5b03612398578360405160200161236691906139ab565b60405160208183030381529060405282828151811061238857612387614418565b5b60200260200101819052506125f2565b600360068111156123ac576123ab612c0e565b5b8782815181106123bf576123be614418565b5b602002602001015160068111156123d9576123d8612c0e565b5b03612462576001866040516123ee9190613906565b908152602001604051809103902060040160009054906101000a900473ffffffffffffffffffffffffffffffffffffffff166040516020016124309190612de0565b60405160208183030381529060405282828151811061245257612451614418565b5b60200260200101819052506125f1565b6000600681111561247657612475612c0e565b5b87828151811061248957612488614418565b5b602002602001015160068111156124a3576124a2612c0e565b5b0361252c576001866040516124b89190613906565b908152602001604051809103902060010160009054906101000a900473ffffffffffffffffffffffffffffffffffffffff166040516020016124fa9190612de0565b60405160208183030381529060405282828151811061251c5761251b614418565b5b60200260200101819052506125f0565b60068081111561253f5761253e612c0e565b5b87828151811061255257612551614418565b5b6020026020010151600681111561256c5761256b612c0e565b5b036125b457846040516020016125829190612de0565b6040516020818303038152906040528282815181106125a4576125a3614418565b5b60200260200101819052506125ef565b6040517f08c379a00000000000000000000000000000000000000000000000000000000081526004016125e6906146cd565b60405180910390fd5b5b5b5b5b5b80806001019150506121f4565b5080915050949350505050565b606082604051602001612621919061473a565b604051602081830303815290604052905060005b8251811015612689578183828151811061265257612651614418565b5b602002602001015160405160200161266b929190614755565b60405160208183030381529060405291508080600101915050612635565b5092915050565b6000815183511480156126b0575081805190602001208380519060200120145b905092915050565b6040518060800160405280600060058111156126d7576126d6612c0e565b5b815260200160608152602001606081526020016000151581525090565b50805461270090613899565b6000825580601f106127125750612731565b601f0160209004906000526020600020908101906127309190612868565b5b50565b6040518060e0016040528060608152602001600073ffffffffffffffffffffffffffffffffffffffff1681526020016000600481111561277757612776612c0e565b5b81526020016060815260200160608152602001600073ffffffffffffffffffffffffffffffffffffffff168152602001600081525090565b8280548282559060005260206000209081019282156127f7579160200282015b828111156127f65782518290816127e691906142fa565b50916020019190600101906127cf565b5b5090506128049190612885565b5090565b828054828255906000526020600020908101928215612857579160200282015b828111156128565782518290805190602001906128469291906128a9565b5091602001919060010190612828565b5b509050612864919061295f565b5090565b5b80821115612881576000816000905550600101612869565b5090565b5b808211156128a5576000818161289c91906126f4565b50600101612886565b5090565b82805482825590600052602060002090601f0160209004810192821561294e5791602002820160005b8382111561291f57835183826101000a81548160ff021916908360068111156128fe576128fd612c0e565b5b021790555092602001926001016020816000010492830192600103026128d2565b801561294c5782816101000a81549060ff021916905560010160208160000104928301926001030261291f565b505b50905061295b9190612868565b5090565b5b8082111561297f57600081816129769190612983565b50600101612960565b5090565b50805460008255601f0160209004906000526020600020908101906129a89190612868565b50565b6000604051905090565b600080fd5b600080fd5b600080fd5b600080fd5b6000601f19601f8301169050919050565b7f4e487b7100000000000000000000000000000000000000000000000000000000600052604160045260246000fd5b612a12826129c9565b810181811067ffffffffffffffff82111715612a3157612a306129da565b5b80604052505050565b6000612a446129ab565b9050612a508282612a09565b919050565b600067ffffffffffffffff821115612a7057612a6f6129da565b5b612a79826129c9565b9050602081019050919050565b82818337600083830152505050565b6000612aa8612aa384612a55565b612a3a565b905082815260208101848484011115612ac457612ac36129c4565b5b612acf848285612a86565b509392505050565b600082601f830112612aec57612aeb6129bf565b5b8135612afc848260208601612a95565b91505092915050565b600060208284031215612b1b57612b1a6129b5565b5b600082013567ffffffffffffffff811115612b3957612b386129ba565b5b612b4584828501612ad7565b91505092915050565b600081519050919050565b600082825260208201905092915050565b60005b83811015612b88578082015181840152602081019050612b6d565b60008484015250505050565b6000612b9f82612b4e565b612ba98185612b59565b9350612bb9818560208601612b6a565b612bc2816129c9565b840191505092915050565b600073ffffffffffffffffffffffffffffffffffffffff82169050919050565b6000612bf882612bcd565b9050919050565b612c0881612bed565b82525050565b7f4e487b7100000000000000000000000000000000000000000000000000000000600052602160045260246000fd5b60058110612c4e57612c4d612c0e565b5b50565b6000819050612c5f82612c3d565b919050565b6000612c6f82612c51565b9050919050565b612c7f81612c64565b82525050565b6000819050919050565b612c9881612c85565b82525050565b600060e0820190508181036000830152612cb8818a612b94565b9050612cc76020830189612bff565b612cd46040830188612c76565b8181036060830152612ce68187612b94565b90508181036080830152612cfa8186612b94565b9050612d0960a0830185612bff565b612d1660c0830184612c8f565b98975050505050505050565b612d2b81612c85565b8114612d3657600080fd5b50565b600081359050612d4881612d22565b92915050565b60008060408385031215612d6557612d646129b5565b5b600083013567ffffffffffffffff811115612d8357612d826129ba565b5b612d8f85828601612ad7565b9250506020612da085828601612d39565b9150509250929050565b60008115159050919050565b612dbf81612daa565b82525050565b6000602082019050612dda6000830184612db6565b92915050565b6000602082019050612df56000830184612bff565b92915050565b612e0481612bed565b8114612e0f57600080fd5b50565b600081359050612e2181612dfb565b92915050565b600080600060608486031215612e4057612e3f6129b5565b5b600084013567ffffffffffffffff811115612e5e57612e5d6129ba565b5b612e6a86828701612ad7565b9350506020612e7b86828701612e12565b9250506040612e8c86828701612d39565b9150509250925092565b600081519050919050565b600082825260208201905092915050565b6000819050602082019050919050565b600082825260208201905092915050565b6000612ede82612b4e565b612ee88185612ec2565b9350612ef8818560208601612b6a565b612f01816129c9565b840191505092915050565b6000612f188383612ed3565b905092915050565b6000602082019050919050565b6000612f3882612e96565b612f428185612ea1565b935083602082028501612f5485612eb2565b8060005b85811015612f905784840389528151612f718582612f0c565b9450612f7c83612f20565b925060208a01995050600181019050612f58565b50829750879550505050505092915050565b60006020820190508181036000830152612fbc8184612f2d565b905092915050565b60058110612fd157600080fd5b50565b600081359050612fe381612fc4565b92915050565b60008060008060008060c08789031215613006576130056129b5565b5b600087013567ffffffffffffffff811115613024576130236129ba565b5b61303089828a01612ad7565b965050602061304189828a01612e12565b955050604061305289828a01612fd4565b945050606087013567ffffffffffffffff811115613073576130726129ba565b5b61307f89828a01612ad7565b935050608087013567ffffffffffffffff8111156130a05761309f6129ba565b5b6130ac89828a01612ad7565b92505060a06130bd89828a01612e12565b9150509295509295509295565b6130d381612bed565b82525050565b6130e281612c64565b82525050565b6130f181612c85565b82525050565b600060e08301600083015184820360008601526131148282612ed3565b915050602083015161312960208601826130ca565b50604083015161313c60408601826130d9565b50606083015184820360608601526131548282612ed3565b9150506080830151848203608086015261316e8282612ed3565b91505060a083015161318360a08601826130ca565b5060c083015161319660c08601826130e8565b508091505092915050565b600060208201905081810360008301526131bb81846130f7565b905092915050565b600681106131d057600080fd5b50565b6000813590506131e2816131c3565b92915050565b600080604083850312156131ff576131fe6129b5565b5b600083013567ffffffffffffffff81111561321d5761321c6129ba565b5b61322985828601612ad7565b925050602061323a858286016131d3565b9150509250929050565b6006811061325557613254612c0e565b5b50565b600081905061326682613244565b919050565b600061327682613258565b9050919050565b6132868161326b565b82525050565b60006040820190506132a1600083018561327d565b6132ae6020830184612db6565b9392505050565b600067ffffffffffffffff8211156132d0576132cf6129da565b5b602082029050602081019050919050565b600080fd5b600080fd5b600080fd5b600067ffffffffffffffff82111561330b5761330a6129da565b5b602082029050602081019050919050565b600061332f61332a846132f0565b612a3a565b90508083825260208201905060208402830185811115613352576133516132e1565b5b835b8181101561339957803567ffffffffffffffff811115613377576133766129bf565b5b8086016133848982612ad7565b85526020850194505050602081019050613354565b5050509392505050565b600082601f8301126133b8576133b76129bf565b5b81356133c884826020860161331c565b91505092915050565b600067ffffffffffffffff8211156133ec576133eb6129da565b5b602082029050602081019050919050565b600067ffffffffffffffff821115613418576134176129da565b5b602082029050602081019050919050565b6007811061343657600080fd5b50565b60008135905061344881613429565b92915050565b600061346161345c846133fd565b612a3a565b90508083825260208201905060208402830185811115613484576134836132e1565b5b835b818110156134ad57806134998882613439565b845260208401935050602081019050613486565b5050509392505050565b600082601f8301126134cc576134cb6129bf565b5b81356134dc84826020860161344e565b91505092915050565b60006134f86134f3846133d1565b612a3a565b9050808382526020820190506020840283018581111561351b5761351a6132e1565b5b835b8181101561356257803567ffffffffffffffff8111156135405761353f6129bf565b5b80860161354d89826134b7565b8552602085019450505060208101905061351d565b5050509392505050565b600082601f830112613581576135806129bf565b5b81356135918482602086016134e5565b91505092915050565b6135a381612daa565b81146135ae57600080fd5b50565b6000813590506135c08161359a565b92915050565b6000608082840312156135dc576135db6132e6565b5b6135e66080612a3a565b905060006135f6848285016131d3565b600083015250602082013567ffffffffffffffff81111561361a576136196132eb565b5b613626848285016133a3565b602083015250604082013567ffffffffffffffff81111561364a576136496132eb565b5b6136568482850161356c565b604083015250606061366a848285016135b1565b60608301525092915050565b6000613689613684846132b5565b612a3a565b905080838252602082019050602084028301858111156136ac576136ab6132e1565b5b835b818110156136f357803567ffffffffffffffff8111156136d1576136d06129bf565b5b8086016136de89826135c6565b855260208501945050506020810190506136ae565b5050509392505050565b600082601f830112613712576137116129bf565b5b8135613722848260208601613676565b91505092915050565b600080600080600080600060e0888a03121561374a576137496129b5565b5b600088013567ffffffffffffffff811115613768576137676129ba565b5b6137748a828b01612ad7565b97505060206137858a828b01612e12565b96505060406137968a828b01612fd4565b955050606088013567ffffffffffffffff8111156137b7576137b66129ba565b5b6137c38a828b01612ad7565b945050608088013567ffffffffffffffff8111156137e4576137e36129ba565b5b6137f08a828b01612ad7565b93505060a06138018a828b01612e12565b92505060c088013567ffffffffffffffff811115613822576138216129ba565b5b61382e8a828b016136fd565b91505092959891949750929550565b600060208284031215613853576138526129b5565b5b600061386184828501612e12565b91505092915050565b7f4e487b7100000000000000000000000000000000000000000000000000000000600052602260045260246000fd5b600060028204905060018216806138b157607f821691505b6020821081036138c4576138c361386a565b5b50919050565b600081905092915050565b60006138e082612b4e565b6138ea81856138ca565b93506138fa818560208601612b6a565b80840191505092915050565b600061391282846138d5565b915081905092915050565b600060208201905081810360008301526139378184612b94565b905092915050565b7f6d696e742061737365742063616c6c206661696c656400000000000000000000600082015250565b6000613975601683612b59565b91506139808261393f565b602082019050919050565b600060208201905081810360008301526139a481613968565b9050919050565b60006020820190506139c06000830184612c8f565b92915050565b7f61737369676e206173736574206173736574206973206e6f74206c6f636b6564600082015250565b60006139fc602083612b59565b9150613a07826139c6565b602082019050919050565b60006020820190508181036000830152613a2b816139ef565b9050919050565b7f61737369676e2061737365742063616c6c206661696c65640000000000000000600082015250565b6000613a68601883612b59565b9150613a7382613a32565b602082019050919050565b60006020820190508181036000830152613a9781613a5b565b9050919050565b7f4e487b7100000000000000000000000000000000000000000000000000000000600052601160045260246000fd5b6000613ad882612c85565b9150613ae383612c85565b9250828203905081811115613afb57613afa613a9e565b5b92915050565b6000604082019050613b166000830185612bff565b613b236020830184612c8f565b9392505050565b600081519050919050565b600082825260208201905092915050565b6000819050602082019050919050565b613b5f8161326b565b82525050565b600082825260208201905092915050565b6000613b8182612e96565b613b8b8185613b65565b935083602082028501613b9d85612eb2565b8060005b85811015613bd95784840389528151613bba8582612f0c565b9450613bc583612f20565b925060208a01995050600181019050613ba1565b50829750879550505050505092915050565b600081519050919050565b600082825260208201905092915050565b6000819050602082019050919050565b600081519050919050565b600082825260208201905092915050565b6000819050602082019050919050565b60078110613c5457613c53612c0e565b5b50565b6000819050613c6582613c43565b919050565b6000613c7582613c57565b9050919050565b613c8581613c6a565b82525050565b6000613c978383613c7c565b60208301905092915050565b6000602082019050919050565b6000613cbb82613c17565b613cc58185613c22565b9350613cd083613c33565b8060005b83811015613d01578151613ce88882613c8b565b9750613cf383613ca3565b925050600181019050613cd4565b5085935050505092915050565b6000613d1a8383613cb0565b905092915050565b6000602082019050919050565b6000613d3a82613beb565b613d448185613bf6565b935083602082028501613d5685613c07565b8060005b85811015613d925784840389528151613d738582613d0e565b9450613d7e83613d22565b925060208a01995050600181019050613d5a565b50829750879550505050505092915050565b613dad81612daa565b82525050565b6000608083016000830151613dcb6000860182613b56565b5060208301518482036020860152613de38282613b76565b91505060408301518482036040860152613dfd8282613d2f565b9150506060830151613e126060860182613da4565b508091505092915050565b6000613e298383613db3565b905092915050565b6000602082019050919050565b6000613e4982613b2a565b613e538185613b35565b935083602082028501613e6585613b46565b8060005b85811015613ea15784840389528151613e828582613e1d565b9450613e8d83613e31565b925060208a01995050600181019050613e69565b50829750879550505050505092915050565b600060e0820190508181036000830152613ecd818a612b94565b9050613edc6020830189612bff565b613ee96040830188612c76565b8181036060830152613efb8187612b94565b90508181036080830152613f0f8186612b94565b9050613f1e60a0830185612bff565b81810360c0830152613f308184613e3e565b905098975050505050505050565b600081519050613f4d8161359a565b92915050565b600060208284031215613f6957613f686129b5565b5b6000613f7784828501613f3e565b91505092915050565b7f6275726e206173736574206173736574206973206e6f74206c6f636b65640000600082015250565b6000613fb6601e83612b59565b9150613fc182613f80565b602082019050919050565b60006020820190508181036000830152613fe581613fa9565b9050919050565b7f6275726e2061737365742063616c6c206661696c656400000000000000000000600082015250565b6000614022601683612b59565b915061402d82613fec565b602082019050919050565b6000602082019050818103600083015261405181614015565b9050919050565b600060408201905081810360008301526140728185612b94565b90506140816020830184612c8f565b9392505050565b600061409382612c85565b915061409e83612c85565b92508282019050808211156140b6576140b5613a9e565b5b92915050565b7f436f6e747261637420646f6573206e6f742068617665207065726d697373696f60008201527f6e20746f20696e74657261637420776974682074686520746f6b656e00000000602082015250565b6000614118603c83612b59565b9150614123826140bc565b604082019050919050565b600060208201905081810360008301526141478161410b565b9050919050565b60008190508160005260206000209050919050565b60006020601f8301049050919050565b600082821b905092915050565b6000600883026141b07fffffffffffffffffffffffffffffffffffffffffffffffffffffffffffffffff82614173565b6141ba8683614173565b95508019841693508086168417925050509392505050565b6000819050919050565b60006141f76141f26141ed84612c85565b6141d2565b612c85565b9050919050565b6000819050919050565b614211836141dc565b61422561421d826141fe565b848454614180565b825550505050565b600090565b61423a61422d565b614245818484614208565b505050565b5b818110156142695761425e600082614232565b60018101905061424b565b5050565b601f8211156142ae5761427f8161414e565b61428884614163565b81016020851015614297578190505b6142ab6142a385614163565b83018261424a565b50505b505050565b600082821c905092915050565b60006142d1600019846008026142b3565b1980831691505092915050565b60006142ea83836142c0565b9150826002028217905092915050565b61430382612b4e565b67ffffffffffffffff81111561431c5761431b6129da565b5b6143268254613899565b61433182828561426d565b600060209050601f8311600181146143645760008415614352578287015190505b61435c85826142de565b8655506143c4565b601f1984166143728661414e565b60005b8281101561439a57848901518255600182019150602085019450602081019050614375565b868310156143b757848901516143b3601f8916826142c0565b8355505b6001600288020188555050505b505050505050565b600060808201905081810360008301526143e68187612b94565b90506143f56020830186612bff565b6144026040830185612c76565b61440f6060830184612bff565b95945050505050565b7f4e487b7100000000000000000000000000000000000000000000000000000000600052603260045260246000fd5b6000815461445481613899565b61445e81866138ca565b94506001821660008114614479576001811461448e576144c1565b60ff19831686528115158202860193506144c1565b6144978561414e565b60005b838110156144b95781548189015260018201915060208101905061449a565b838801955050505b50505092915050565b60006144d68284614447565b915081905092915050565b600081519050919050565b600081905092915050565b6000614502826144e1565b61450c81856144ec565b935061451c818560208601612b6a565b80840191505092915050565b600061453482846144f7565b915081905092915050565b60008154905061454e81613899565b9050919050565b60008190508160005260206000209050919050565b818103614578575050614650565b6145818261453f565b67ffffffffffffffff81111561459a576145996129da565b5b6145a48254613899565b6145af82828561426d565b6000601f8311600181146145de57600084156145cc578287015490505b6145d685826142de565b865550614649565b601f1984166145ec87614555565b96506145f78661414e565b60005b8281101561461f578489015482556001820191506001850194506020810190506145fa565b8683101561463c5784890154614638601f8916826142c0565b8355505b6001600288020188555050505b5050505050505b565b7f4e487b7100000000000000000000000000000000000000000000000000000000600052603160045260246000fd5b7f5661726961626c65206e6f7420737570706f7274656400000000000000000000600082015250565b60006146b7601683612b59565b91506146c282614681565b602082019050919050565b600060208201905081810360008301526146e6816146aa565b9050919050565b60007fffffffff0000000000000000000000000000000000000000000000000000000082169050919050565b6000819050919050565b61473461472f826146ed565b614719565b82525050565b60006147468284614723565b60048201915081905092915050565b600061476182856144f7565b915061476d82846144f7565b9150819050939250505056fea2646970667358221220df58caba6040a5a54b9f34e6c0fdc49f40289fcfa035e74500e3f24c2aea5b5e64736f6c634300081d0033","linkReferences":{}},"methodIdentifiers":{"assign(string,address,uint256)":"4534ba17","bridge_address()":"1255c189","burn(string,uint256)":"b48272cc","getAllAssetsIDs()":"5137b8a7","getToken(string)":"c1733f68","lock(string,uint256)":"e1efb596","mint(string,uint256)":"056b01ce","owner()":"8da5cb5b","renounceOwnership()":"715018a6","tokens(string)":"04c2320b","tokensInteractions(string,uint8)":"ea8f547f","transferOwnership(address)":"f2fde38b","unlock(string,uint256)":"d9cf884c","unwrap(string)":"a1bc17c5","wrap(string,address,uint8,string,string,address)":"6a0876e0","wrap(string,address,uint8,string,string,address,(uint8,string[],uint8[][],bool)[])":"f272660b"},"id":8}