{
    "contractName": "AssetReferenceContract",
    "abi": [
        {
            "inputs": [
                {
                    "internalType": "address",
                    "name": "account",
                    "type": "address"
                }
            ],
            "stateMutability": "nonpayable",
            "type": "constructor"
        },
        {
            "anonymous": false,
            "inputs": [
                {
                    "indexed": true,
                    "internalType": "address",
                    "name": "newOwner",
                    "type": "address"
                }
            ],
            "name": "OwnershipAdded",
            "type": "event"
        },
        {
            "anonymous": false,
            "inputs": [
                {
                    "indexed": true,
                    "internalType": "address",
                    "name": "previousOwner",
                    "type": "address"
                }
            ],
            "name": "OwnershipRemoved",
            "type": "event"
        },
        {
            "inputs": [
                {
                    "internalType": "address",
                    "name": "newOwner",
                    "type": "address"
                }
            ],
            "name": "addOwner",
            "outputs": [],
            "stateMutability": "nonpayable",
            "type": "function"
        },
        {
            "inputs": [
                {
                    "internalType": "uint256",
                    "name": "amount",
                    "type": "uint256"
                }
            ],
            "name": "burn",
            "outputs": [],
            "stateMutability": "nonpayable",
            "type": "function"
        },
        {
            "inputs": [
                {
                    "internalType": "string",
                    "name": "id",
                    "type": "string"
                },
                {
                    "internalType": "uint256",
                    "name": "amount",
                    "type": "uint256"
                },
                {
                    "internalType": "address",
                    "name": "user",
                    "type": "address"
                }
            ],
            "name": "checkValidBridgeBack",
            "outputs": [
                {
                    "internalType": "bool",
                    "name": "",
                    "type": "bool"
                }
            ],
            "stateMutability": "view",
            "type": "function"
        },
        {
            "inputs": [
                {
                    "internalType": "string",
                    "name": "id",
                    "type": "string"
                },
                {
                    "internalType": "uint256",
                    "name": "amount",
                    "type": "uint256"
                },
                {
                    "internalType": "address",
                    "name": "recipient",
                    "type": "address"
                }
            ],
            "name": "createAssetReference",
            "outputs": [],
            "stateMutability": "nonpayable",
            "type": "function"
        },
        {
            "inputs": [
                {
                    "internalType": "string",
                    "name": "id",
                    "type": "string"
                }
            ],
            "name": "deleteAssetReference",
            "outputs": [],
            "stateMutability": "nonpayable",
            "type": "function"
        },
        {
            "inputs": [],
            "name": "getAllAssetReferences",
            "outputs": [
                {
                    "components": [
                        {
                            "internalType": "string",
                            "name": "id",
                            "type": "string"
                        },
                        {
                            "internalType": "bool",
                            "name": "isLocked",
                            "type": "bool"
                        },
                        {
                            "internalType": "uint256",
                            "name": "amount",
                            "type": "uint256"
                        },
                        {
                            "internalType": "address",
                            "name": "recipient",
                            "type": "address"
                        }
                    ],
                    "internalType": "struct AssetReference[]",
                    "name": "",
                    "type": "tuple[]"
                }
            ],
            "stateMutability": "view",
            "type": "function"
        },
        {
            "inputs": [
                {
                    "internalType": "string",
                    "name": "id",
                    "type": "string"
                }
            ],
            "name": "getAssetReference",
            "outputs": [
                {
                    "components": [
                        {
                            "internalType": "string",
                            "name": "id",
                            "type": "string"
                        },
                        {
                            "internalType": "bool",
                            "name": "isLocked",
                            "type": "bool"
                        },
                        {
                            "internalType": "uint256",
                            "name": "amount",
                            "type": "uint256"
                        },
                        {
                            "internalType": "address",
                            "name": "recipient",
                            "type": "address"
                        }
                    ],
                    "internalType": "struct AssetReference",
                    "name": "",
                    "type": "tuple"
                }
            ],
            "stateMutability": "view",
            "type": "function"
        },
        {
            "inputs": [
                {
                    "internalType": "string",
                    "name": "id",
                    "type": "string"
                }
            ],
            "name": "isAssetLocked",
            "outputs": [
                {
                    "internalType": "bool",
                    "name": "",
                    "type": "bool"
                }
            ],
            "stateMutability": "view",
            "type": "function"
        },
        {
            "inputs": [
                {
                    "internalType": "string",
                    "name": "id",
                    "type": "string"
                }
            ],
            "name": "isPresent",
            "outputs": [
                {
                    "internalType": "bool",
                    "name": "",
                    "type": "bool"
                }
            ],
            "stateMutability": "view",
            "type": "function"
        },
        {
            "inputs": [
                {
                    "internalType": "string",
                    "name": "id",
                    "type": "string"
                }
            ],
            "name": "lockAssetReference",
            "outputs": [],
            "stateMutability": "nonpayable",
            "type": "function"
        },
        {
            "inputs": [
                {
                    "internalType": "address",
                    "name": "account",
                    "type": "address"
                },
                {
                    "internalType": "uint256",
                    "name": "amount",
                    "type": "uint256"
                }
            ],
            "name": "mint",
            "outputs": [],
            "stateMutability": "nonpayable",
            "type": "function"
        },
        {
            "inputs": [],
            "name": "owners",
            "outputs": [
                {
                    "internalType": "address[]",
                    "name": "",
                    "type": "address[]"
                }
            ],
            "stateMutability": "view",
            "type": "function"
        },
        {
            "inputs": [
                {
                    "internalType": "uint256",
                    "name": "_index",
                    "type": "uint256"
                }
            ],
            "name": "removeItemFromList",
            "outputs": [],
            "stateMutability": "nonpayable",
            "type": "function"
        },
        {
            "inputs": [
                {
                    "internalType": "address",
                    "name": "oldOwner",
                    "type": "address"
                }
            ],
            "name": "removeOwner",
            "outputs": [],
            "stateMutability": "nonpayable",
            "type": "function"
        },
        {
            "inputs": [],
            "name": "resetAssetRefsList",
            "outputs": [],
            "stateMutability": "nonpayable",
            "type": "function"
        },
        {
            "inputs": [
                {
                    "internalType": "string",
                    "name": "id",
                    "type": "string"
                }
            ],
            "name": "unLockAssetReference",
            "outputs": [],
            "stateMutability": "nonpayable",
            "type": "function"
        }
    ],
    "bytecode": "608060405234801561001057600080fd5b50604051611a0f380380611a0f83398101604081905261002f916100d3565b6100383361005d565b600180546001600160a01b0319166001600160a01b0392909216919091179055610103565b600080546001810182558180527f290decd9548b62a8d60345a988386fc84ba6bc95484008f6362f93160ef3e5630180546001600160a01b0319166001600160a01b03841690811790915560405190917fb4cd6c6140e1db788f68710738b06ef4d0df6a884a06a088433a4c2f5e036e7c91a250565b6000602082840312156100e557600080fd5b81516001600160a01b03811681146100fc57600080fd5b9392505050565b6118fd806101126000396000f3fe608060405234801561001057600080fd5b50600436106101005760003560e01c80637065cb4811610097578063affe39c111610066578063affe39c1146101f5578063b1fa25801461020a578063bc5482751461022a578063c8da01af1461023d57600080fd5b80637065cb48146101a95780638ef45293146101bc5780639ca27299146101cf578063ade3222b146101e257600080fd5b806342966c68116100d357806342966c681461016857806363773a6c1461017b578063663bcc921461018e5780636b4bd58c146101a157600080fd5b8063173825d9146101055780631ae4eb681461011a57806321db00b31461014257806340c10f1914610155575b600080fd5b6101186101133660046111d6565b610252565b005b61012d610128366004611241565b6102d0565b60405190151581526020015b60405180910390f35b610118610150366004611283565b610303565b61011861016336600461129c565b610476565b610118610176366004611283565b610563565b610118610189366004611241565b610647565b61011861019c3660046112c6565b610715565b6101186108fb565b6101186101b73660046111d6565b610923565b6101186101ca366004611241565b610999565b61012d6101dd3660046112c6565b6109db565b6101186101f0366004611241565b610a74565b6101fd610c4d565b6040516101399190611323565b61021d610218366004611241565b610caf565b60405161013991906113f1565b61012d610238366004611241565b610dc2565b610245610df1565b6040516101399190611404565b61025a610f14565b6001600160a01b0381166102c45760405162461bcd60e51b815260206004820152602660248201527f4f776e61626c653a206f6c64206f776e657220697320746865207a65726f206160448201526564647265737360d01b60648201526084015b60405180910390fd5b6102cd81610fc3565b50565b6000600283836040516102e4929190611466565b9081526040519081900360200190206001015460ff1690505b92915050565b60045481106103495760405162461bcd60e51b81526020600482015260126024820152711a5b99195e081bdd5d081bd988189bdd5b9960721b60448201526064016102bb565b805b60045461035a9060019061148c565b81101561041a57600461036e82600161149f565b8154811061037e5761037e6114b2565b90600052602060002090600402016004828154811061039f5761039f6114b2565b60009182526020909120600490910201806103ba838261157b565b50600182810154908201805460ff909216151560ff1990921691909117905560028083015490820155600391820154910180546001600160a01b0319166001600160a01b039092169190911790558061041281611656565b91505061034b565b50600480548061042c5761042c61166f565b6000828152602081206000199092019160048302019061044c828261116c565b5060018101805460ff191690556000600282015560030180546001600160a01b0319169055905550565b61047e610f14565b6001546040516001600160a01b03848116602483015260448201849052600092169060640160408051601f198184030181529181526020820180516001600160e01b03166340c10f1960e01b179052516104d89190611685565b6000604051808303816000865af19150503d8060008114610515576040519150601f19603f3d011682016040523d82523d6000602084013e61051a565b606091505b505090508061055e5760405162461bcd60e51b815260206004820152601060248201526f1b5a5b9d0818d85b1b0819985a5b195960821b60448201526064016102bb565b505050565b61056b610f14565b600154604051602481018390526000916001600160a01b03169060440160408051601f198184030181529181526020820180516001600160e01b0316630852cd8d60e31b179052516105bd9190611685565b6000604051808303816000865af19150503d80600081146105fa576040519150601f19603f3d011682016040523d82523d6000602084013e6105ff565b606091505b50509050806106435760405162461bcd60e51b815260206004820152601060248201526f189d5c9b8818d85b1b0819985a5b195960821b60448201526064016102bb565b5050565b61064f610f14565b6106598282610dc2565b6106755760405162461bcd60e51b81526004016102bb906116a1565b61067f82826102d0565b156106da5760405162461bcd60e51b815260206004820152602560248201527f546865206173736574207265666572656e636520697320616c7265616479206c6044820152641bd8dad95960da1b60648201526084016102bb565b6001600283836040516106ee929190611466565b908152604051908190036020019020600101805491151560ff199092169190911790555050565b61071d610f14565b838360028686604051610731929190611466565b9081526040519081900360200190209161074c9190836116e3565b508160028585604051610760929190611466565b908152602001604051809103902060020181905550600060028585604051610789929190611466565b908152604051908190036020018120600101805492151560ff199093169290921790915581906002906107bf9087908790611466565b908152602001604051809103902060030160006101000a8154816001600160a01b0302191690836001600160a01b03160217905550600160038585604051610808929190611466565b908152604080519182900360209081018320805494151560ff199095169490941790935560a0601f870184900490930282018301905260808101858152600492829190889088908190850183828082843760009201829052509385525050506020808301829052604083018790526001600160a01b03861660609093019290925283546001810185559381522081519192600402019081906108aa908261179d565b50602082015160018201805460ff191691151591909117905560408201516002820155606090910151600390910180546001600160a01b0319166001600160a01b0390921691909117905550505050565b60005b6004548110156102cd5761091181610303565b8061091b81611656565b9150506108fe565b61092b610f14565b6001600160a01b0381166109905760405162461bcd60e51b815260206004820152602660248201527f4f776e61626c653a206e6577206f776e657220697320746865207a65726f206160448201526564647265737360d01b60648201526084016102bb565b6102cd816110f6565b6109a1610f14565b6109ab8282610dc2565b6109c75760405162461bcd60e51b81526004016102bb906116a1565b6000600283836040516106ee929190611466565b60006109e78585610dc2565b610a035760405162461bcd60e51b81526004016102bb906116a1565b8260028686604051610a16929190611466565b90815260200160405180910390206002015410158015610a6b5750816001600160a01b031660028686604051610a4d929190611466565b908152604051908190036020019020600301546001600160a01b0316145b95945050505050565b610a7c610f14565b610a868282610dc2565b610aa25760405162461bcd60e51b81526004016102bb906116a1565b610aac82826102d0565b610af85760405162461bcd60e51b815260206004820152601d60248201527f546865206173736574207265666572656e6365206973206c6f636b656400000060448201526064016102bb565b610b2460028383604051610b0d929190611466565b908152602001604051809103902060020154610563565b60028282604051610b36929190611466565b9081526040519081900360200190206000610b51828261116c565b5060018101805460ff19169055600060028201819055600391820180546001600160a01b0319169055604051909190610b8d9085908590611466565b908152604051908190036020019020805491151560ff1990921691909117905560005b60045481101561055e578282604051602001610bcd929190611466565b6040516020818303038152906040528051906020012060048281548110610bf657610bf66114b2565b9060005260206000209060040201600001604051602001610c179190611851565b6040516020818303038152906040528051906020012003610c3b57610c3b81610303565b80610c4581611656565b915050610bb0565b60606000805480602002602001604051908101604052809291908181526020018280548015610ca557602002820191906000526020600020905b81546001600160a01b03168152600190910190602001808311610c87575b5050505050905090565b604080516080810182526060808252600060208301819052828401819052908201529051600290610ce39085908590611466565b9081526020016040518091039020604051806080016040529081600082018054610d0c906114c8565b80601f0160208091040260200160405190810160405280929190818152602001828054610d38906114c8565b8015610d855780601f10610d5a57610100808354040283529160200191610d85565b820191906000526020600020905b815481529060010190602001808311610d6857829003601f168201915b5050509183525050600182015460ff1615156020820152600282015460408201526003909101546001600160a01b03166060909101529392505050565b600060038383604051610dd6929190611466565b9081526040519081900360200190205460ff16905092915050565b60606004805480602002602001604051908101604052809291908181526020016000905b82821015610f0b5783829060005260206000209060040201604051806080016040529081600082018054610e48906114c8565b80601f0160208091040260200160405190810160405280929190818152602001828054610e74906114c8565b8015610ec15780601f10610e9657610100808354040283529160200191610ec1565b820191906000526020600020905b815481529060010190602001808311610ea457829003601f168201915b505050918352505060018281015460ff161515602080840191909152600284015460408401526003909301546001600160a01b031660609092019190915291835292019101610e15565b50505050905090565b6000805b600054811015610f7057336001600160a01b031660008281548110610f3f57610f3f6114b2565b6000918252602090912001546001600160a01b031603610f5e57600191505b80610f6881611656565b915050610f18565b506001811515146102cd5760405162461bcd60e51b815260206004820152601f60248201527f4f776e61626c653a2063616c6c6572206973206e6f7420616e206f776e65720060448201526064016102bb565b60005b6000548110156110be57816001600160a01b031660008281548110610fed57610fed6114b2565b6000918252602090912001546001600160a01b0316036110ac57600080546110179060019061148c565b81548110611027576110276114b2565b600091825260208220015481546001600160a01b03909116919083908110611051576110516114b2565b6000918252602082200180546001600160a01b0319166001600160a01b0393909316929092179091558054806110895761108961166f565b600082815260209020810160001990810180546001600160a01b03191690550190555b806110b681611656565b915050610fc6565b506040516001600160a01b038216907f86d076ecf250a6d90a67a7c75317f44709d5001395ecf1df6d9dad5278f1e68190600090a250565b600080546001810182558180527f290decd9548b62a8d60345a988386fc84ba6bc95484008f6362f93160ef3e5630180546001600160a01b0319166001600160a01b03841690811790915560405190917fb4cd6c6140e1db788f68710738b06ef4d0df6a884a06a088433a4c2f5e036e7c91a250565b508054611178906114c8565b6000825580601f10611188575050565b601f0160209004906000526020600020908101906102cd91905b808211156111b657600081556001016111a2565b5090565b80356001600160a01b03811681146111d157600080fd5b919050565b6000602082840312156111e857600080fd5b6111f1826111ba565b9392505050565b60008083601f84011261120a57600080fd5b50813567ffffffffffffffff81111561122257600080fd5b60208301915083602082850101111561123a57600080fd5b9250929050565b6000806020838503121561125457600080fd5b823567ffffffffffffffff81111561126b57600080fd5b611277858286016111f8565b90969095509350505050565b60006020828403121561129557600080fd5b5035919050565b600080604083850312156112af57600080fd5b6112b8836111ba565b946020939093013593505050565b600080600080606085870312156112dc57600080fd5b843567ffffffffffffffff8111156112f357600080fd5b6112ff878288016111f8565b90955093505060208501359150611318604086016111ba565b905092959194509250565b6020808252825182820181905260009190848201906040850190845b818110156113645783516001600160a01b03168352928401929184019160010161133f565b50909695505050505050565b60005b8381101561138b578181015183820152602001611373565b50506000910152565b600081516080845280518060808601526113b58160a0870160208501611370565b602084810151151590860152604080850151908601526060938401516001600160a01b0316938501939093525050601f01601f19160160a00190565b6020815260006111f16020830184611394565b6000602080830181845280855180835260408601915060408160051b870101925083870160005b8281101561145957603f19888603018452611447858351611394565b9450928501929085019060010161142b565b5092979650505050505050565b8183823760009101908152919050565b634e487b7160e01b600052601160045260246000fd5b818103818111156102fd576102fd611476565b808201808211156102fd576102fd611476565b634e487b7160e01b600052603260045260246000fd5b600181811c908216806114dc57607f821691505b6020821081036114fc57634e487b7160e01b600052602260045260246000fd5b50919050565b634e487b7160e01b600052604160045260246000fd5b601f82111561055e57600081815260208120601f850160051c8101602086101561153f5750805b601f850160051c820191505b8181101561155e5782815560010161154b565b505050505050565b600019600383901b1c191660019190911b1790565b818103611586575050565b61159082546114c8565b67ffffffffffffffff8111156115a8576115a8611502565b6115bc816115b684546114c8565b84611518565b6000601f8211600181146115ea57600083156115d85750848201545b6115e28482611566565b85555061164f565b600085815260209020601f19841690600086815260209020845b838110156116245782860154825560019586019590910190602001611604565b50858310156116425781850154600019600388901b60f8161c191681555b50505060018360011b0184555b5050505050565b60006001820161166857611668611476565b5060010190565b634e487b7160e01b600052603160045260246000fd5b60008251611697818460208701611370565b9190910192915050565b60208082526022908201527f546865206173736574207265666572656e636520646f6573206e6f74206578696040820152611cdd60f21b606082015260800190565b67ffffffffffffffff8311156116fb576116fb611502565b61170f8361170983546114c8565b83611518565b6000601f84116001811461173d576000851561172b5750838201355b6117358682611566565b84555061164f565b600083815260209020601f19861690835b8281101561176e578685013582556020948501946001909201910161174e565b508682101561178b5760001960f88860031b161c19848701351681555b505060018560011b0183555050505050565b815167ffffffffffffffff8111156117b7576117b7611502565b6117c5816115b684546114c8565b602080601f8311600181146117f457600084156117e25750858301515b6117ec8582611566565b86555061155e565b600085815260208120601f198616915b8281101561182357888601518255948401946001909101908401611804565b50858210156118415787850151600019600388901b60f8161c191681555b5050505050600190811b01905550565b600080835461185f816114c8565b60018281168015611877576001811461188c576118bb565b60ff19841687528215158302870194506118bb565b8760005260208060002060005b858110156118b25781548a820152908401908201611899565b50505082870194505b5092969550505050505056fea26469706673582212204e3defbf3329eeb8a9a2352d01161391069b644ab4b4adcc96c509b58240729a64736f6c63430008100033",
    "sourcePath": "/home/andre_9a/simple-cactus/cactus/examples/cactus-example-cbdc-bridging-backend/src/solidity/asset-reference-contract/asset-reference-contract.sol",
    "compiler": {
        "name": "solc",
        "version": "0.8.16+commit.07a7930e"
    },
    "functionHashes": {
        "addOwner(address)": "7065cb48",
        "burn(uint256)": "42966c68",
        "checkValidBridgeBack(string,uint256,address)": "9ca27299",
        "createAssetReference(string,uint256,address)": "663bcc92",
        "deleteAssetReference(string)": "ade3222b",
        "getAllAssetReferences()": "c8da01af",
        "getAssetReference(string)": "b1fa2580",
        "isAssetLocked(string)": "1ae4eb68",
        "isPresent(string)": "bc548275",
        "lockAssetReference(string)": "63773a6c",
        "mint(address,uint256)": "40c10f19",
        "owners()": "affe39c1",
        "removeItemFromList(uint256)": "21db00b3",
        "removeOwner(address)": "173825d9",
        "resetAssetRefsList()": "6b4bd58c",
        "unLockAssetReference(string)": "8ef45293"
    },
    "gasEstimates": {
        "creation": {
            "codeDepositCost": "1279400",
            "executionCost": "infinite",
            "totalCost": "infinite"
        },
        "external": {
            "addOwner(address)": "infinite",
            "burn(uint256)": "infinite",
            "checkValidBridgeBack(string,uint256,address)": "infinite",
            "createAssetReference(string,uint256,address)": "infinite",
            "deleteAssetReference(string)": "infinite",
            "getAllAssetReferences()": "infinite",
            "getAssetReference(string)": "infinite",
            "isAssetLocked(string)": "infinite",
            "isPresent(string)": "infinite",
            "lockAssetReference(string)": "infinite",
            "mint(address,uint256)": "infinite",
            "owners()": "infinite",
            "removeItemFromList(uint256)": "infinite",
            "removeOwner(address)": "infinite",
            "resetAssetRefsList()": "infinite",
            "unLockAssetReference(string)": "infinite"
        }
    }
}