{"abi":[{"type":"constructor","inputs":[{"name":"_owner","type":"address","internalType":"address"}],"stateMutability":"nonpayable"},{"type":"function","name":"BRIDGE_ROLE","inputs":[],"outputs":[{"name":"","type":"bytes32","internalType":"bytes32"}],"stateMutability":"view"},{"type":"function","name":"DEFAULT_ADMIN_ROLE","inputs":[],"outputs":[{"name":"","type":"bytes32","internalType":"bytes32"}],"stateMutability":"view"},{"type":"function","name":"OWNER_ROLE","inputs":[],"outputs":[{"name":"","type":"bytes32","internalType":"bytes32"}],"stateMutability":"view"},{"type":"function","name":"approve","inputs":[{"name":"to","type":"address","internalType":"address"},{"name":"tokenId","type":"uint256","internalType":"uint256"}],"outputs":[],"stateMutability":"nonpayable"},{"type":"function","name":"assign","inputs":[{"name":"from","type":"address","internalType":"address"},{"name":"recipient","type":"address","internalType":"address"},{"name":"tokenId","type":"uint256","internalType":"uint256"}],"outputs":[{"name":"success","type":"bool","internalType":"bool"}],"stateMutability":"nonpayable"},{"type":"function","name":"balanceOf","inputs":[{"name":"owner","type":"address","internalType":"address"}],"outputs":[{"name":"","type":"uint256","internalType":"uint256"}],"stateMutability":"view"},{"type":"function","name":"burn","inputs":[{"name":"tokenId","type":"uint256","internalType":"uint256"}],"outputs":[{"name":"success","type":"bool","internalType":"bool"}],"stateMutability":"nonpayable"},{"type":"function","name":"getApproved","inputs":[{"name":"tokenId","type":"uint256","internalType":"uint256"}],"outputs":[{"name":"","type":"address","internalType":"address"}],"stateMutability":"view"},{"type":"function","name":"getRoleAdmin","inputs":[{"name":"role","type":"bytes32","internalType":"bytes32"}],"outputs":[{"name":"","type":"bytes32","internalType":"bytes32"}],"stateMutability":"view"},{"type":"function","name":"grantBridgeRole","inputs":[{"name":"account","type":"address","internalType":"address"}],"outputs":[{"name":"success","type":"bool","internalType":"bool"}],"stateMutability":"nonpayable"},{"type":"function","name":"grantRole","inputs":[{"name":"role","type":"bytes32","internalType":"bytes32"},{"name":"account","type":"address","internalType":"address"}],"outputs":[],"stateMutability":"nonpayable"},{"type":"function","name":"hasPermission","inputs":[{"name":"account","type":"address","internalType":"address"},{"name":"tokenId","type":"uint256","internalType":"uint256"}],"outputs":[{"name":"success","type":"bool","internalType":"bool"}],"stateMutability":"nonpayable"},{"type":"function","name":"hasRole","inputs":[{"name":"role","type":"bytes32","internalType":"bytes32"},{"name":"account","type":"address","internalType":"address"}],"outputs":[{"name":"","type":"bool","internalType":"bool"}],"stateMutability":"view"},{"type":"function","name":"isApprovedForAll","inputs":[{"name":"owner","type":"address","internalType":"address"},{"name":"operator","type":"address","internalType":"address"}],"outputs":[{"name":"","type":"bool","internalType":"bool"}],"stateMutability":"view"},{"type":"function","name":"lock","inputs":[{"name":"to","type":"address","internalType":"address"},{"name":"tokenId","type":"uint256","internalType":"uint256"}],"outputs":[{"name":"success","type":"bool","internalType":"bool"}],"stateMutability":"nonpayable"},{"type":"function","name":"mint","inputs":[{"name":"account","type":"address","internalType":"address"},{"name":"tokenId","type":"uint256","internalType":"uint256"}],"outputs":[{"name":"success","type":"bool","internalType":"bool"}],"stateMutability":"nonpayable"},{"type":"function","name":"name","inputs":[],"outputs":[{"name":"","type":"string","internalType":"string"}],"stateMutability":"view"},{"type":"function","name":"onERC721Received","inputs":[{"name":"operator","type":"address","internalType":"address"},{"name":"from","type":"address","internalType":"address"},{"name":"tokenId","type":"uint256","internalType":"uint256"},{"name":"data","type":"bytes","internalType":"bytes"}],"outputs":[{"name":"","type":"bytes4","internalType":"bytes4"}],"stateMutability":"nonpayable"},{"type":"function","name":"ownerOf","inputs":[{"name":"tokenId","type":"uint256","internalType":"uint256"}],"outputs":[{"name":"","type":"address","internalType":"address"}],"stateMutability":"view"},{"type":"function","name":"renounceRole","inputs":[{"name":"role","type":"bytes32","internalType":"bytes32"},{"name":"callerConfirmation","type":"address","internalType":"address"}],"outputs":[],"stateMutability":"nonpayable"},{"type":"function","name":"revokeRole","inputs":[{"name":"role","type":"bytes32","internalType":"bytes32"},{"name":"account","type":"address","internalType":"address"}],"outputs":[],"stateMutability":"nonpayable"},{"type":"function","name":"safeTransferFrom","inputs":[{"name":"from","type":"address","internalType":"address"},{"name":"to","type":"address","internalType":"address"},{"name":"tokenId","type":"uint256","internalType":"uint256"}],"outputs":[],"stateMutability":"nonpayable"},{"type":"function","name":"safeTransferFrom","inputs":[{"name":"from","type":"address","internalType":"address"},{"name":"to","type":"address","internalType":"address"},{"name":"tokenId","type":"uint256","internalType":"uint256"},{"name":"data","type":"bytes","internalType":"bytes"}],"outputs":[],"stateMutability":"nonpayable"},{"type":"function","name":"setApprovalForAll","inputs":[{"name":"operator","type":"address","internalType":"address"},{"name":"approved","type":"bool","internalType":"bool"}],"outputs":[],"stateMutability":"nonpayable"},{"type":"function","name":"supportsInterface","inputs":[{"name":"interfaceId","type":"bytes4","internalType":"bytes4"}],"outputs":[{"name":"","type":"bool","internalType":"bool"}],"stateMutability":"view"},{"type":"function","name":"symbol","inputs":[],"outputs":[{"name":"","type":"string","internalType":"string"}],"stateMutability":"view"},{"type":"function","name":"tokenURI","inputs":[{"name":"tokenId","type":"uint256","internalType":"uint256"}],"outputs":[{"name":"","type":"string","internalType":"string"}],"stateMutability":"view"},{"type":"function","name":"transferFrom","inputs":[{"name":"from","type":"address","internalType":"address"},{"name":"to","type":"address","internalType":"address"},{"name":"tokenId","type":"uint256","internalType":"uint256"}],"outputs":[],"stateMutability":"nonpayable"},{"type":"function","name":"unlock","inputs":[{"name":"to","type":"address","internalType":"address"},{"name":"tokenId","type":"uint256","internalType":"uint256"}],"outputs":[{"name":"success","type":"bool","internalType":"bool"}],"stateMutability":"nonpayable"},{"type":"event","name":"Approval","inputs":[{"name":"owner","type":"address","indexed":true,"internalType":"address"},{"name":"approved","type":"address","indexed":true,"internalType":"address"},{"name":"tokenId","type":"uint256","indexed":true,"internalType":"uint256"}],"anonymous":false},{"type":"event","name":"ApprovalForAll","inputs":[{"name":"owner","type":"address","indexed":true,"internalType":"address"},{"name":"operator","type":"address","indexed":true,"internalType":"address"},{"name":"approved","type":"bool","indexed":false,"internalType":"bool"}],"anonymous":false},{"type":"event","name":"RoleAdminChanged","inputs":[{"name":"role","type":"bytes32","indexed":true,"internalType":"bytes32"},{"name":"previousAdminRole","type":"bytes32","indexed":true,"internalType":"bytes32"},{"name":"newAdminRole","type":"bytes32","indexed":true,"internalType":"bytes32"}],"anonymous":false},{"type":"event","name":"RoleGranted","inputs":[{"name":"role","type":"bytes32","indexed":true,"internalType":"bytes32"},{"name":"account","type":"address","indexed":true,"internalType":"address"},{"name":"sender","type":"address","indexed":true,"internalType":"address"}],"anonymous":false},{"type":"event","name":"RoleRevoked","inputs":[{"name":"role","type":"bytes32","indexed":true,"internalType":"bytes32"},{"name":"account","type":"address","indexed":true,"internalType":"address"},{"name":"sender","type":"address","indexed":true,"internalType":"address"}],"anonymous":false},{"type":"event","name":"Transfer","inputs":[{"name":"from","type":"address","indexed":true,"internalType":"address"},{"name":"to","type":"address","indexed":true,"internalType":"address"},{"name":"tokenId","type":"uint256","indexed":true,"internalType":"uint256"}],"anonymous":false},{"type":"error","name":"AccessControlBadConfirmation","inputs":[]},{"type":"error","name":"AccessControlUnauthorizedAccount","inputs":[{"name":"account","type":"address","internalType":"address"},{"name":"neededRole","type":"bytes32","internalType":"bytes32"}]},{"type":"error","name":"ERC721IncorrectOwner","inputs":[{"name":"sender","type":"address","internalType":"address"},{"name":"tokenId","type":"uint256","internalType":"uint256"},{"name":"owner","type":"address","internalType":"address"}]},{"type":"error","name":"ERC721InsufficientApproval","inputs":[{"name":"operator","type":"address","internalType":"address"},{"name":"tokenId","type":"uint256","internalType":"uint256"}]},{"type":"error","name":"ERC721InvalidApprover","inputs":[{"name":"approver","type":"address","internalType":"address"}]},{"type":"error","name":"ERC721InvalidOperator","inputs":[{"name":"operator","type":"address","internalType":"address"}]},{"type":"error","name":"ERC721InvalidOwner","inputs":[{"name":"owner","type":"address","internalType":"address"}]},{"type":"error","name":"ERC721InvalidReceiver","inputs":[{"name":"receiver","type":"address","internalType":"address"}]},{"type":"error","name":"ERC721InvalidSender","inputs":[{"name":"sender","type":"address","internalType":"address"}]},{"type":"error","name":"ERC721NonexistentToken","inputs":[{"name":"tokenId","type":"uint256","internalType":"uint256"}]}],"bytecode":{"object":"0x60806040523480156200001157600080fd5b5060405162001c8038038062001c808339810160408190526200003491620001b1565b6040518060400160405280600b81526020016a29a0aa2827232a37b5b2b760a91b8152506040518060400160405280600781526020016614d0551413919560ca1b815250816001908162000089919062000288565b50600262000098828262000288565b505050620000cd7fb19546dff01e856fb3f010c267a7b1c60363cf8a4664e21cc89c26224620214e826200010260201b60201c565b50620000fa7f52ba824bfabc2bcfcdf7f0edbb486ebb05e1836c90e78047efeb949990f72e5f8262000102565b505062000354565b6000828152602081815260408083206001600160a01b038516845290915281205460ff16620001a7576000838152602081815260408083206001600160a01b03861684529091529020805460ff191660011790556200015e3390565b6001600160a01b0316826001600160a01b0316847f2f8788117e7eff1d82e926ec794901d17c78024a50270940304540a733656f0d60405160405180910390a4506001620001ab565b5060005b92915050565b600060208284031215620001c457600080fd5b81516001600160a01b0381168114620001dc57600080fd5b9392505050565b634e487b7160e01b600052604160045260246000fd5b600181811c908216806200020e57607f821691505b6020821081036200022f57634e487b7160e01b600052602260045260246000fd5b50919050565b601f8211156200028357600081815260208120601f850160051c810160208610156200025e5750805b601f850160051c820191505b818110156200027f578281556001016200026a565b5050505b505050565b81516001600160401b03811115620002a457620002a4620001e3565b620002bc81620002b58454620001f9565b8462000235565b602080601f831160018114620002f45760008415620002db5750858301515b600019600386901b1c1916600185901b1785556200027f565b600085815260208120601f198616915b82811015620003255788860151825594840194600190910190840162000304565b5085821015620003445787850151600019600388901b60f8161c191681555b5050505050600190811b01905550565b61191c80620003646000396000f3fe608060405234801561001057600080fd5b50600436106101cf5760003560e01c80636352211e11610104578063a22cb465116100a2578063c87b56dd11610071578063c87b56dd1461044b578063d547741f1461045e578063e58378bb14610471578063e985e9c51461049857600080fd5b8063a22cb465146103eb578063a5e99b8e146103fe578063b5bfddea14610411578063b88d4fde1461043857600080fd5b80638d944fd9116100de5780638d944fd91461039157806391d14854146103a457806395d89b41146103db578063a217fddf146103e357600080fd5b80636352211e1461036b57806370a082311461037e5780637eee288d146102e657600080fd5b8063282d3fdf1161017157806340c10f191161014b57806340c10f191461031f57806342842e0e1461033257806342966c68146103455780635f52d44e1461035857600080fd5b8063282d3fdf146102e65780632f2ff15d146102f957806336568abe1461030c57600080fd5b8063095ea7b3116101ad578063095ea7b31461023d578063150b7a021461025257806323b872dd146102a2578063248a9ca3146102b557600080fd5b806301ffc9a7146101d457806306fdde03146101fd578063081812fc14610212575b600080fd5b6101e86101e23660046114d5565b50600190565b60405190151581526020015b60405180910390f35b6102056104d4565b6040516101f49190611542565b610225610220366004611555565b610566565b6040516001600160a01b0390911681526020016101f4565b61025061024b36600461158a565b610591565b005b6102716102603660046115b4565b630a85bd0160e11b95945050505050565b6040517fffffffff0000000000000000000000000000000000000000000000000000000090911681526020016101f4565b6102506102b036600461164f565b6105a0565b6102d86102c3366004611555565b60009081526020819052604090206001015490565b6040519081526020016101f4565b6101e86102f436600461158a565b610630565b61025061030736600461168b565b610671565b61025061031a36600461168b565b610696565b6101e861032d36600461158a565b6106e7565b61025061034036600461164f565b61071d565b6101e8610353366004611555565b610738565b6101e861036636600461164f565b61079c565b610225610379366004611555565b610850565b6102d861038c3660046116b7565b61085b565b6101e861039f36600461158a565b6108bc565b6101e86103b236600461168b565b6000918252602082815260408084206001600160a01b0393909316845291905290205460ff1690565b61020561090b565b6102d8600081565b6102506103f93660046116d2565b61091a565b6101e861040c3660046116b7565b610925565b6102d87f52ba824bfabc2bcfcdf7f0edbb486ebb05e1836c90e78047efeb949990f72e5f81565b610250610446366004611724565b61097b565b610205610459366004611555565b610992565b61025061046c36600461168b565b610a07565b6102d87fb19546dff01e856fb3f010c267a7b1c60363cf8a4664e21cc89c26224620214e81565b6101e86104a6366004611800565b6001600160a01b03918216600090815260066020908152604080832093909416825291909152205460ff1690565b6060600180546104e39061182a565b80601f016020809104026020016040519081016040528092919081815260200182805461050f9061182a565b801561055c5780601f106105315761010080835404028352916020019161055c565b820191906000526020600020905b81548152906001019060200180831161053f57829003601f168201915b5050505050905090565b600061057182610a2c565b506000828152600560205260409020546001600160a01b03165b92915050565b61059c828233610a65565b5050565b6001600160a01b0382166105cf57604051633250574960e11b8152600060048201526024015b60405180910390fd5b60006105dc838333610a72565b9050836001600160a01b0316816001600160a01b03161461062a576040516364283d7b60e01b81526001600160a01b03808616600483015260248201849052821660448201526064016105c6565b50505050565b60007f52ba824bfabc2bcfcdf7f0edbb486ebb05e1836c90e78047efeb949990f72e5f61065c81610b78565b610667338585610b85565b5060019392505050565b60008281526020819052604090206001015461068c81610b78565b61062a8383610ba0565b6001600160a01b03811633146106d8576040517f6697b23200000000000000000000000000000000000000000000000000000000815260040160405180910390fd5b6106e28282610c4a565b505050565b60007f52ba824bfabc2bcfcdf7f0edbb486ebb05e1836c90e78047efeb949990f72e5f61071381610b78565b6106678484610ccd565b6106e28383836040518060200160405280600081525061097b565b60007f52ba824bfabc2bcfcdf7f0edbb486ebb05e1836c90e78047efeb949990f72e5f61076481610b78565b6000838152600360205260409020546001600160a01b0316610787813386610ce7565b61079084610d64565b60019250505b50919050565b60007f52ba824bfabc2bcfcdf7f0edbb486ebb05e1836c90e78047efeb949990f72e5f6107c881610b78565b6001600160a01b038516331461083a576040517f08c379a000000000000000000000000000000000000000000000000000000000815260206004820152601e60248201527f546865206d736753656e646572206973206e6f7420746865206f776e6572000060448201526064016105c6565b610845858585610d9f565b506001949350505050565b600061058b82610a2c565b60006001600160a01b0382166108a0576040517f89c62b64000000000000000000000000000000000000000000000000000000008152600060048201526024016105c6565b506001600160a01b031660009081526004602052604090205490565b60007f52ba824bfabc2bcfcdf7f0edbb486ebb05e1836c90e78047efeb949990f72e5f6108e881610b78565b6000838152600360205260409020546001600160a01b0316610845818686610ce7565b6060600280546104e39061182a565b61059c338383610e4f565b60007fb19546dff01e856fb3f010c267a7b1c60363cf8a4664e21cc89c26224620214e61095181610b78565b6106677f52ba824bfabc2bcfcdf7f0edbb486ebb05e1836c90e78047efeb949990f72e5f84610ba0565b6109868484846105a0565b61062a84848484610f07565b606061099d82610a2c565b5060006109b560408051602081019091526000815290565b905060008151116109d55760405180602001604052806000815250610a00565b806109df84611048565b6040516020016109f092919061185e565b6040516020818303038152906040525b9392505050565b600082815260208190526040902060010154610a2281610b78565b61062a8383610c4a565b6000818152600360205260408120546001600160a01b03168061058b57604051637e27328960e01b8152600481018490526024016105c6565b6106e283838360016110e8565b6000828152600360205260408120546001600160a01b0390811690831615610a9f57610a9f818486610ce7565b6001600160a01b03811615610add57610abc6000856000806110e8565b6001600160a01b038116600090815260046020526040902080546000190190555b6001600160a01b03851615610b0c576001600160a01b0385166000908152600460205260409020805460010190555b600084815260036020526040808220805473ffffffffffffffffffffffffffffffffffffffff19166001600160a01b0389811691821790925591518793918516917fddf252ad1be2c89b69c2b068fc378daa952ba7f163c4a11628f55a4df523b3ef91a4949350505050565b610b828133611233565b50565b6106e28383836040518060200160405280600081525061129f565b6000828152602081815260408083206001600160a01b038516845290915281205460ff16610c42576000838152602081815260408083206001600160a01b03861684529091529020805460ff19166001179055610bfa3390565b6001600160a01b0316826001600160a01b0316847f2f8788117e7eff1d82e926ec794901d17c78024a50270940304540a733656f0d60405160405180910390a450600161058b565b50600061058b565b6000828152602081815260408083206001600160a01b038516845290915281205460ff1615610c42576000838152602081815260408083206001600160a01b0386168085529252808320805460ff1916905551339286917ff6391f5c32d9c69d2a47ea670b442974b53935d1edc7fd64eb21e047a839171b9190a450600161058b565b61059c8282604051806020016040528060008152506112aa565b610cf28383836112c1565b6106e2576001600160a01b038316610d2057604051637e27328960e01b8152600481018290526024016105c6565b6040517f177e802f0000000000000000000000000000000000000000000000000000000081526001600160a01b0383166004820152602481018290526044016105c6565b6000610d736000836000610a72565b90506001600160a01b03811661059c57604051637e27328960e01b8152600481018390526024016105c6565b6001600160a01b038216610dc957604051633250574960e11b8152600060048201526024016105c6565b6000610dd783836000610a72565b90506001600160a01b038116610e0357604051637e27328960e01b8152600481018390526024016105c6565b836001600160a01b0316816001600160a01b03161461062a576040516364283d7b60e01b81526001600160a01b03808616600483015260248201849052821660448201526064016105c6565b6001600160a01b038216610e9a576040517f5b08ba180000000000000000000000000000000000000000000000000000000081526001600160a01b03831660048201526024016105c6565b6001600160a01b03838116600081815260066020908152604080832094871680845294825291829020805460ff191686151590811790915591519182527f17307eab39ab6107e8899845ad3d59bd9653f200f220920489ca2b5937696c31910160405180910390a3505050565b6001600160a01b0383163b1561062a57604051630a85bd0160e11b81526001600160a01b0384169063150b7a0290610f4990339088908790879060040161188d565b6020604051808303816000875af1925050508015610f84575060408051601f3d908101601f19168201909252610f81918101906118c9565b60015b610fed573d808015610fb2576040519150601f19603f3d011682016040523d82523d6000602084013e610fb7565b606091505b508051600003610fe557604051633250574960e11b81526001600160a01b03851660048201526024016105c6565b805181602001fd5b7fffffffff000000000000000000000000000000000000000000000000000000008116630a85bd0160e11b1461104157604051633250574960e11b81526001600160a01b03851660048201526024016105c6565b5050505050565b6060600061105583611347565b600101905060008167ffffffffffffffff8111156110755761107561170e565b6040519080825280601f01601f19166020018201604052801561109f576020820181803683370190505b5090508181016020015b600019017f3031323334353637383961626364656600000000000000000000000000000000600a86061a8153600a85049450846110a957509392505050565b80806110fc57506001600160a01b03821615155b156111f657600061110c84610a2c565b90506001600160a01b038316158015906111385750826001600160a01b0316816001600160a01b031614155b801561116a57506001600160a01b0380821660009081526006602090815260408083209387168352929052205460ff16155b156111ac576040517fa9fbf51f0000000000000000000000000000000000000000000000000000000081526001600160a01b03841660048201526024016105c6565b81156111f45783856001600160a01b0316826001600160a01b03167f8c5be1e5ebec7d5bd14f71427d1e84f3dd0314c0f7b2291e5b200ac8c7c3b92560405160405180910390a45b505b50506000908152600560205260409020805473ffffffffffffffffffffffffffffffffffffffff19166001600160a01b0392909216919091179055565b6000828152602081815260408083206001600160a01b038516845290915290205460ff1661059c576040517fe2517d3f0000000000000000000000000000000000000000000000000000000081526001600160a01b0382166004820152602481018390526044016105c6565b610986848484610d9f565b6112b48383611429565b6106e26000848484610f07565b60006001600160a01b0383161580159061133f5750826001600160a01b0316846001600160a01b0316148061131b57506001600160a01b0380851660009081526006602090815260408083209387168352929052205460ff165b8061133f57506000828152600560205260409020546001600160a01b038481169116145b949350505050565b6000807a184f03e93ff9f4daa797ed6e38ed64bf6a1f0100000000000000008310611390577a184f03e93ff9f4daa797ed6e38ed64bf6a1f010000000000000000830492506040015b6d04ee2d6d415b85acef810000000083106113bc576d04ee2d6d415b85acef8100000000830492506020015b662386f26fc1000083106113da57662386f26fc10000830492506010015b6305f5e10083106113f2576305f5e100830492506008015b612710831061140657612710830492506004015b60648310611418576064830492506002015b600a831061058b5760010192915050565b6001600160a01b03821661145357604051633250574960e11b8152600060048201526024016105c6565b600061146183836000610a72565b90506001600160a01b038116156106e2576040517f73c6ac6e000000000000000000000000000000000000000000000000000000008152600060048201526024016105c6565b7fffffffff0000000000000000000000000000000000000000000000000000000081168114610b8257600080fd5b6000602082840312156114e757600080fd5b8135610a00816114a7565b60005b8381101561150d5781810151838201526020016114f5565b50506000910152565b6000815180845261152e8160208601602086016114f2565b601f01601f19169290920160200192915050565b602081526000610a006020830184611516565b60006020828403121561156757600080fd5b5035919050565b80356001600160a01b038116811461158557600080fd5b919050565b6000806040838503121561159d57600080fd5b6115a68361156e565b946020939093013593505050565b6000806000806000608086880312156115cc57600080fd5b6115d58661156e565b94506115e36020870161156e565b935060408601359250606086013567ffffffffffffffff8082111561160757600080fd5b818801915088601f83011261161b57600080fd5b81358181111561162a57600080fd5b89602082850101111561163c57600080fd5b9699959850939650602001949392505050565b60008060006060848603121561166457600080fd5b61166d8461156e565b925061167b6020850161156e565b9150604084013590509250925092565b6000806040838503121561169e57600080fd5b823591506116ae6020840161156e565b90509250929050565b6000602082840312156116c957600080fd5b610a008261156e565b600080604083850312156116e557600080fd5b6116ee8361156e565b91506020830135801515811461170357600080fd5b809150509250929050565b634e487b7160e01b600052604160045260246000fd5b6000806000806080858703121561173a57600080fd5b6117438561156e565b93506117516020860161156e565b925060408501359150606085013567ffffffffffffffff8082111561177557600080fd5b818701915087601f83011261178957600080fd5b81358181111561179b5761179b61170e565b604051601f8201601f19908116603f011681019083821181831017156117c3576117c361170e565b816040528281528a60208487010111156117dc57600080fd5b82602086016020830137600060208483010152809550505050505092959194509250565b6000806040838503121561181357600080fd5b61181c8361156e565b91506116ae6020840161156e565b600181811c9082168061183e57607f821691505b60208210810361079657634e487b7160e01b600052602260045260246000fd5b600083516118708184602088016114f2565b8351908301906118848183602088016114f2565b01949350505050565b60006001600160a01b038087168352808616602084015250836040830152608060608301526118bf6080830184611516565b9695505050505050565b6000602082840312156118db57600080fd5b8151610a00816114a756fea26469706673582212205fb7489c75eaf4bf4b52353955624430a304700e8bc8dd847de2a3454cc4ea3a64736f6c63430008140033","linkReferences":{}},"methodIdentifiers":{"BRIDGE_ROLE()":"b5bfddea","DEFAULT_ADMIN_ROLE()":"a217fddf","OWNER_ROLE()":"e58378bb","approve(address,uint256)":"095ea7b3","assign(address,address,uint256)":"5f52d44e","balanceOf(address)":"70a08231","burn(uint256)":"42966c68","getApproved(uint256)":"081812fc","getRoleAdmin(bytes32)":"248a9ca3","grantBridgeRole(address)":"a5e99b8e","grantRole(bytes32,address)":"2f2ff15d","hasPermission(address,uint256)":"8d944fd9","hasRole(bytes32,address)":"91d14854","isApprovedForAll(address,address)":"e985e9c5","lock(address,uint256)":"282d3fdf","mint(address,uint256)":"40c10f19","name()":"06fdde03","onERC721Received(address,address,uint256,bytes)":"150b7a02","ownerOf(uint256)":"6352211e","renounceRole(bytes32,address)":"36568abe","revokeRole(bytes32,address)":"d547741f","safeTransferFrom(address,address,uint256)":"42842e0e","safeTransferFrom(address,address,uint256,bytes)":"b88d4fde","setApprovalForAll(address,bool)":"a22cb465","supportsInterface(bytes4)":"01ffc9a7","symbol()":"95d89b41","tokenURI(uint256)":"c87b56dd","transferFrom(address,address,uint256)":"23b872dd","unlock(address,uint256)":"7eee288d"},"id":18}