{"abi":[{"type":"constructor","inputs":[{"name":"_owner","type":"address","internalType":"address"},{"name":"_id","type":"string","internalType":"string"}],"stateMutability":"nonpayable"},{"type":"function","name":"BRIDGE_ROLE","inputs":[],"outputs":[{"name":"","type":"bytes32","internalType":"bytes32"}],"stateMutability":"view"},{"type":"function","name":"DEFAULT_ADMIN_ROLE","inputs":[],"outputs":[{"name":"","type":"bytes32","internalType":"bytes32"}],"stateMutability":"view"},{"type":"function","name":"OWNER_ROLE","inputs":[],"outputs":[{"name":"","type":"bytes32","internalType":"bytes32"}],"stateMutability":"view"},{"type":"function","name":"allowance","inputs":[{"name":"owner","type":"address","internalType":"address"},{"name":"spender","type":"address","internalType":"address"}],"outputs":[{"name":"","type":"uint256","internalType":"uint256"}],"stateMutability":"view"},{"type":"function","name":"approve","inputs":[{"name":"spender","type":"address","internalType":"address"},{"name":"value","type":"uint256","internalType":"uint256"}],"outputs":[{"name":"","type":"bool","internalType":"bool"}],"stateMutability":"nonpayable"},{"type":"function","name":"assign","inputs":[{"name":"from","type":"address","internalType":"address"},{"name":"recipient","type":"address","internalType":"address"},{"name":"amount","type":"uint256","internalType":"uint256"}],"outputs":[{"name":"success","type":"bool","internalType":"bool"}],"stateMutability":"nonpayable"},{"type":"function","name":"balanceOf","inputs":[{"name":"account","type":"address","internalType":"address"}],"outputs":[{"name":"","type":"uint256","internalType":"uint256"}],"stateMutability":"view"},{"type":"function","name":"burn","inputs":[{"name":"account","type":"address","internalType":"address"},{"name":"amount","type":"uint256","internalType":"uint256"}],"outputs":[{"name":"success","type":"bool","internalType":"bool"}],"stateMutability":"nonpayable"},{"type":"function","name":"checkBalance","inputs":[{"name":"account","type":"address","internalType":"address"}],"outputs":[{"name":"","type":"uint256","internalType":"uint256"}],"stateMutability":"view"},{"type":"function","name":"decimals","inputs":[],"outputs":[{"name":"","type":"uint8","internalType":"uint8"}],"stateMutability":"view"},{"type":"function","name":"getAllAssetsIDs","inputs":[],"outputs":[{"name":"","type":"string[]","internalType":"string[]"}],"stateMutability":"view"},{"type":"function","name":"getId","inputs":[],"outputs":[{"name":"","type":"string","internalType":"string"}],"stateMutability":"view"},{"type":"function","name":"getRoleAdmin","inputs":[{"name":"role","type":"bytes32","internalType":"bytes32"}],"outputs":[{"name":"","type":"bytes32","internalType":"bytes32"}],"stateMutability":"view"},{"type":"function","name":"giveRole","inputs":[{"name":"account","type":"address","internalType":"address"}],"outputs":[{"name":"success","type":"bool","internalType":"bool"}],"stateMutability":"nonpayable"},{"type":"function","name":"grantRole","inputs":[{"name":"role","type":"bytes32","internalType":"bytes32"},{"name":"account","type":"address","internalType":"address"}],"outputs":[],"stateMutability":"nonpayable"},{"type":"function","name":"hasPermission","inputs":[{"name":"account","type":"address","internalType":"address"}],"outputs":[{"name":"success","type":"bool","internalType":"bool"}],"stateMutability":"view"},{"type":"function","name":"hasRole","inputs":[{"name":"role","type":"bytes32","internalType":"bytes32"},{"name":"account","type":"address","internalType":"address"}],"outputs":[{"name":"","type":"bool","internalType":"bool"}],"stateMutability":"view"},{"type":"function","name":"id","inputs":[],"outputs":[{"name":"","type":"string","internalType":"string"}],"stateMutability":"view"},{"type":"function","name":"mint","inputs":[{"name":"account","type":"address","internalType":"address"},{"name":"amount","type":"uint256","internalType":"uint256"}],"outputs":[{"name":"success","type":"bool","internalType":"bool"}],"stateMutability":"nonpayable"},{"type":"function","name":"name","inputs":[],"outputs":[{"name":"","type":"string","internalType":"string"}],"stateMutability":"view"},{"type":"function","name":"renounceRole","inputs":[{"name":"role","type":"bytes32","internalType":"bytes32"},{"name":"callerConfirmation","type":"address","internalType":"address"}],"outputs":[],"stateMutability":"nonpayable"},{"type":"function","name":"revokeRole","inputs":[{"name":"role","type":"bytes32","internalType":"bytes32"},{"name":"account","type":"address","internalType":"address"}],"outputs":[],"stateMutability":"nonpayable"},{"type":"function","name":"supportsInterface","inputs":[{"name":"interfaceId","type":"bytes4","internalType":"bytes4"}],"outputs":[{"name":"","type":"bool","internalType":"bool"}],"stateMutability":"view"},{"type":"function","name":"symbol","inputs":[],"outputs":[{"name":"","type":"string","internalType":"string"}],"stateMutability":"view"},{"type":"function","name":"totalSupply","inputs":[],"outputs":[{"name":"","type":"uint256","internalType":"uint256"}],"stateMutability":"view"},{"type":"function","name":"transfer","inputs":[{"name":"to","type":"address","internalType":"address"},{"name":"value","type":"uint256","internalType":"uint256"}],"outputs":[{"name":"","type":"bool","internalType":"bool"}],"stateMutability":"nonpayable"},{"type":"function","name":"transfer","inputs":[{"name":"from","type":"address","internalType":"address"},{"name":"recipient","type":"address","internalType":"address"},{"name":"amount","type":"uint256","internalType":"uint256"}],"outputs":[{"name":"success","type":"bool","internalType":"bool"}],"stateMutability":"nonpayable"},{"type":"function","name":"transferFrom","inputs":[{"name":"from","type":"address","internalType":"address"},{"name":"to","type":"address","internalType":"address"},{"name":"value","type":"uint256","internalType":"uint256"}],"outputs":[{"name":"","type":"bool","internalType":"bool"}],"stateMutability":"nonpayable"},{"type":"event","name":"Approval","inputs":[{"name":"owner","type":"address","indexed":true,"internalType":"address"},{"name":"spender","type":"address","indexed":true,"internalType":"address"},{"name":"value","type":"uint256","indexed":false,"internalType":"uint256"}],"anonymous":false},{"type":"event","name":"Changed","inputs":[{"name":"id","type":"string","indexed":true,"internalType":"string"},{"name":"value","type":"bytes[]","indexed":false,"internalType":"bytes[]"}],"anonymous":false},{"type":"event","name":"RoleAdminChanged","inputs":[{"name":"role","type":"bytes32","indexed":true,"internalType":"bytes32"},{"name":"previousAdminRole","type":"bytes32","indexed":true,"internalType":"bytes32"},{"name":"newAdminRole","type":"bytes32","indexed":true,"internalType":"bytes32"}],"anonymous":false},{"type":"event","name":"RoleGranted","inputs":[{"name":"role","type":"bytes32","indexed":true,"internalType":"bytes32"},{"name":"account","type":"address","indexed":true,"internalType":"address"},{"name":"sender","type":"address","indexed":true,"internalType":"address"}],"anonymous":false},{"type":"event","name":"RoleRevoked","inputs":[{"name":"role","type":"bytes32","indexed":true,"internalType":"bytes32"},{"name":"account","type":"address","indexed":true,"internalType":"address"},{"name":"sender","type":"address","indexed":true,"internalType":"address"}],"anonymous":false},{"type":"event","name":"Transfer","inputs":[{"name":"from","type":"address","indexed":true,"internalType":"address"},{"name":"to","type":"address","indexed":true,"internalType":"address"},{"name":"value","type":"uint256","indexed":false,"internalType":"uint256"}],"anonymous":false},{"type":"error","name":"AccessControlBadConfirmation","inputs":[]},{"type":"error","name":"AccessControlUnauthorizedAccount","inputs":[{"name":"account","type":"address","internalType":"address"},{"name":"neededRole","type":"bytes32","internalType":"bytes32"}]},{"type":"error","name":"ERC20InsufficientAllowance","inputs":[{"name":"spender","type":"address","internalType":"address"},{"name":"allowance","type":"uint256","internalType":"uint256"},{"name":"needed","type":"uint256","internalType":"uint256"}]},{"type":"error","name":"ERC20InsufficientBalance","inputs":[{"name":"sender","type":"address","internalType":"address"},{"name":"balance","type":"uint256","internalType":"uint256"},{"name":"needed","type":"uint256","internalType":"uint256"}]},{"type":"error","name":"ERC20InvalidApprover","inputs":[{"name":"approver","type":"address","internalType":"address"}]},{"type":"error","name":"ERC20InvalidReceiver","inputs":[{"name":"receiver","type":"address","internalType":"address"}]},{"type":"error","name":"ERC20InvalidSender","inputs":[{"name":"sender","type":"address","internalType":"address"}]},{"type":"error","name":"ERC20InvalidSpender","inputs":[{"name":"spender","type":"address","internalType":"address"}]},{"type":"error","name":"noPermission","inputs":[{"name":"adr","type":"address","internalType":"address"}]}],"bytecode":{"object":"0x60806040523480156200001157600080fd5b50604051620014a4380380620014a48339810160408190526200003491620001d2565b6040518060400160405280600981526020016829a0aa282a37b5b2b760b91b815250604051806040016040528060048152602001630534154560e41b815250816004908162000084919062000357565b50600562000093828262000357565b505050620000c87fb19546dff01e856fb3f010c267a7b1c60363cf8a4664e21cc89c26224620214e836200010d60201b60201c565b50620000f57f52ba824bfabc2bcfcdf7f0edbb486ebb05e1836c90e78047efeb949990f72e5f836200010d565b50600662000104828262000357565b50505062000423565b6000828152602081815260408083206001600160a01b038516845290915281205460ff16620001b2576000838152602081815260408083206001600160a01b03861684529091529020805460ff19166001179055620001693390565b6001600160a01b0316826001600160a01b0316847f2f8788117e7eff1d82e926ec794901d17c78024a50270940304540a733656f0d60405160405180910390a4506001620001b6565b5060005b92915050565b634e487b7160e01b600052604160045260246000fd5b60008060408385031215620001e657600080fd5b82516001600160a01b0381168114620001fe57600080fd5b602084810151919350906001600160401b03808211156200021e57600080fd5b818601915086601f8301126200023357600080fd5b815181811115620002485762000248620001bc565b604051601f8201601f19908116603f01168101908382118183101715620002735762000273620001bc565b8160405282815289868487010111156200028c57600080fd5b600093505b82841015620002b0578484018601518185018701529285019262000291565b60008684830101528096505050505050509250929050565b600181811c90821680620002dd57607f821691505b602082108103620002fe57634e487b7160e01b600052602260045260246000fd5b50919050565b601f8211156200035257600081815260208120601f850160051c810160208610156200032d5750805b601f850160051c820191505b818110156200034e5782815560010162000339565b5050505b505050565b81516001600160401b03811115620003735762000373620001bc565b6200038b81620003848454620002c8565b8462000304565b602080601f831160018114620003c35760008415620003aa5750858301515b600019600386901b1c1916600185901b1785556200034e565b600085815260208120601f198616915b82811015620003f457888601518255948401946001909101908401620003d3565b5085821015620004135787850151600019600388901b60f8161c191681555b5050505050600190811b01905550565b61107180620004336000396000f3fe608060405234801561001057600080fd5b50600436106101c45760003560e01c806370a08231116100f9578063af640d0f11610097578063c375110d11610071578063c375110d146103a3578063d547741f146103b6578063dd62ed3e146103c9578063e58378bb1461040257600080fd5b8063af640d0f14610373578063b5bfddea1461037b578063beabacc81461039057600080fd5b806397128e00116100d357806397128e00146103325780639dc29fac14610345578063a217fddf14610358578063a9059cbb1461036057600080fd5b806370a08231146102ee57806391d148541461031757806395d89b411461032a57600080fd5b8063313ce567116101665780635137b8a7116101405780635137b8a7146102ab5780635d1ca631146102c05780635f515226146102c85780635f52d44e146102db57600080fd5b8063313ce5671461027657806336568abe1461028557806340c10f191461029857600080fd5b806318160ddd116101a257806318160ddd1461021957806323b872dd1461022b578063248a9ca31461023e5780632f2ff15d1461026157600080fd5b806301ffc9a7146101c957806306fdde03146101f1578063095ea7b314610206575b600080fd5b6101dc6101d7366004610db8565b610429565b60405190151581526020015b60405180910390f35b6101f9610460565b6040516101e89190610e2f565b6101dc610214366004610e5e565b6104f2565b6003545b6040519081526020016101e8565b6101dc610239366004610e88565b61050a565b61021d61024c366004610ec4565b60009081526020819052604090206001015490565b61027461026f366004610edd565b61052e565b005b604051601281526020016101e8565b610274610293366004610edd565b610559565b6101dc6102a6366004610e5e565b610591565b6102b36105b5565b6040516101e89190610f09565b6101f9610695565b61021d6102d6366004610f6b565b6106a4565b6101dc6102e9366004610e88565b6106c2565b61021d6102fc366004610f6b565b6001600160a01b031660009081526001602052604090205490565b6101dc610325366004610edd565b610739565b6101f9610762565b6101dc610340366004610f6b565b610771565b6101dc610353366004610e5e565b6107bc565b61021d600081565b6101dc61036e366004610e5e565b6107e0565b6101f96107ee565b61021d60008051602061101c83398151915281565b6101dc61039e366004610e88565b61087c565b6101dc6103b1366004610f6b565b6108ad565b6102746103c4366004610edd565b6108fd565b61021d6103d7366004610f86565b6001600160a01b03918216600090815260026020908152604080832093909416825291909152205490565b61021d7fb19546dff01e856fb3f010c267a7b1c60363cf8a4664e21cc89c26224620214e81565b60006001600160e01b03198216637965db0b60e01b148061045a57506301ffc9a760e01b6001600160e01b03198316145b92915050565b60606004805461046f90610fb0565b80601f016020809104026020016040519081016040528092919081815260200182805461049b90610fb0565b80156104e85780601f106104bd576101008083540402835291602001916104e8565b820191906000526020600020905b8154815290600101906020018083116104cb57829003601f168201915b5050505050905090565b600033610500818585610922565b5060019392505050565b60003361051885828561092f565b6105238585856109a7565b506001949350505050565b60008281526020819052604090206001015461054981610a06565b6105538383610a13565b50505050565b6001600160a01b03811633146105825760405163334bd91960e11b815260040160405180910390fd5b61058c8282610aa5565b505050565b600060008051602061101c8339815191526105ab81610a06565b6105008484610b10565b60408051600180825281830190925260609160009190816020015b60608152602001906001900390816105d0579050509050600680546105f490610fb0565b80601f016020809104026020016040519081016040528092919081815260200182805461062090610fb0565b801561066d5780601f106106425761010080835404028352916020019161066d565b820191906000526020600020905b81548152906001019060200180831161065057829003601f168201915b50505050508160008151811061068557610685610fe4565b6020908102919091010152919050565b60606006805461046f90610fb0565b6001600160a01b03811660009081526001602052604081205461045a565b600060008051602061101c8339815191526106dc81610a06565b6001600160a01b03851633146105185760405162461bcd60e51b815260206004820152601e60248201527f546865206d736753656e646572206973206e6f7420746865206f776e6572000060448201526064015b60405180910390fd5b6000918252602082815260408084206001600160a01b0393909316845291905290205460ff1690565b60606005805461046f90610fb0565b600061078b60008051602061101c83398151915283610739565b1561079857506001919050565b604051631aee145f60e01b81526001600160a01b0383166004820152602401610730565b600060008051602061101c8339815191526107d681610a06565b6105008484610b4a565b6000336105008185856109a7565b600680546107fb90610fb0565b80601f016020809104026020016040519081016040528092919081815260200182805461082790610fb0565b80156108745780601f1061084957610100808354040283529160200191610874565b820191906000526020600020905b81548152906001019060200180831161085757829003601f168201915b505050505081565b600060008051602061101c83398151915261089681610a06565b6108a185858561050a565b50600195945050505050565b60007fb19546dff01e856fb3f010c267a7b1c60363cf8a4664e21cc89c26224620214e6108d981610a06565b6108f160008051602061101c83398151915284610a13565b50600191505b50919050565b60008281526020819052604090206001015461091881610a06565b6105538383610aa5565b61058c8383836001610b80565b6001600160a01b038381166000908152600260209081526040808320938616835292905220546000198114610553578181101561099857604051637dc7a0d960e11b81526001600160a01b03841660048201526024810182905260448101839052606401610730565b61055384848484036000610b80565b6001600160a01b0383166109d157604051634b637e8f60e11b815260006004820152602401610730565b6001600160a01b0382166109fb5760405163ec442f0560e01b815260006004820152602401610730565b61058c838383610c55565b610a108133610d7f565b50565b6000610a1f8383610739565b610a9d576000838152602081815260408083206001600160a01b03861684529091529020805460ff19166001179055610a553390565b6001600160a01b0316826001600160a01b0316847f2f8788117e7eff1d82e926ec794901d17c78024a50270940304540a733656f0d60405160405180910390a450600161045a565b50600061045a565b6000610ab18383610739565b15610a9d576000838152602081815260408083206001600160a01b0386168085529252808320805460ff1916905551339286917ff6391f5c32d9c69d2a47ea670b442974b53935d1edc7fd64eb21e047a839171b9190a450600161045a565b6001600160a01b038216610b3a5760405163ec442f0560e01b815260006004820152602401610730565b610b4660008383610c55565b5050565b6001600160a01b038216610b7457604051634b637e8f60e11b815260006004820152602401610730565b610b4682600083610c55565b6001600160a01b038416610baa5760405163e602df0560e01b815260006004820152602401610730565b6001600160a01b038316610bd457604051634a1406b160e11b815260006004820152602401610730565b6001600160a01b038085166000908152600260209081526040808320938716835292905220829055801561055357826001600160a01b0316846001600160a01b03167f8c5be1e5ebec7d5bd14f71427d1e84f3dd0314c0f7b2291e5b200ac8c7c3b92584604051610c4791815260200190565b60405180910390a350505050565b6001600160a01b038316610c80578060036000828254610c759190610ffa565b90915550610cf29050565b6001600160a01b03831660009081526001602052604090205481811015610cd35760405163391434e360e21b81526001600160a01b03851660048201526024810182905260448101839052606401610730565b6001600160a01b03841660009081526001602052604090209082900390555b6001600160a01b038216610d0e57600380548290039055610d2d565b6001600160a01b03821660009081526001602052604090208054820190555b816001600160a01b0316836001600160a01b03167fddf252ad1be2c89b69c2b068fc378daa952ba7f163c4a11628f55a4df523b3ef83604051610d7291815260200190565b60405180910390a3505050565b610d898282610739565b610b465760405163e2517d3f60e01b81526001600160a01b038216600482015260248101839052604401610730565b600060208284031215610dca57600080fd5b81356001600160e01b031981168114610de257600080fd5b9392505050565b6000815180845260005b81811015610e0f57602081850181015186830182015201610df3565b506000602082860101526020601f19601f83011685010191505092915050565b602081526000610de26020830184610de9565b80356001600160a01b0381168114610e5957600080fd5b919050565b60008060408385031215610e7157600080fd5b610e7a83610e42565b946020939093013593505050565b600080600060608486031215610e9d57600080fd5b610ea684610e42565b9250610eb460208501610e42565b9150604084013590509250925092565b600060208284031215610ed657600080fd5b5035919050565b60008060408385031215610ef057600080fd5b82359150610f0060208401610e42565b90509250929050565b6000602080830181845280855180835260408601915060408160051b870101925083870160005b82811015610f5e57603f19888603018452610f4c858351610de9565b94509285019290850190600101610f30565b5092979650505050505050565b600060208284031215610f7d57600080fd5b610de282610e42565b60008060408385031215610f9957600080fd5b610fa283610e42565b9150610f0060208401610e42565b600181811c90821680610fc457607f821691505b6020821081036108f757634e487b7160e01b600052602260045260246000fd5b634e487b7160e01b600052603260045260246000fd5b8082018082111561045a57634e487b7160e01b600052601160045260246000fdfe52ba824bfabc2bcfcdf7f0edbb486ebb05e1836c90e78047efeb949990f72e5fa2646970667358221220b4b95b25157e6f2741c159517e9cc2bde5e44e8afada81f262595fef023ea77964736f6c63430008140033","linkReferences":{}},"methodIdentifiers":{"BRIDGE_ROLE()":"b5bfddea","DEFAULT_ADMIN_ROLE()":"a217fddf","OWNER_ROLE()":"e58378bb","allowance(address,address)":"dd62ed3e","approve(address,uint256)":"095ea7b3","assign(address,address,uint256)":"5f52d44e","balanceOf(address)":"70a08231","burn(address,uint256)":"9dc29fac","checkBalance(address)":"5f515226","decimals()":"313ce567","getAllAssetsIDs()":"5137b8a7","getId()":"5d1ca631","getRoleAdmin(bytes32)":"248a9ca3","giveRole(address)":"c375110d","grantRole(bytes32,address)":"2f2ff15d","hasPermission(address)":"97128e00","hasRole(bytes32,address)":"91d14854","id()":"af640d0f","mint(address,uint256)":"40c10f19","name()":"06fdde03","renounceRole(bytes32,address)":"36568abe","revokeRole(bytes32,address)":"d547741f","supportsInterface(bytes4)":"01ffc9a7","symbol()":"95d89b41","totalSupply()":"18160ddd","transfer(address,address,uint256)":"beabacc8","transfer(address,uint256)":"a9059cbb","transferFrom(address,address,uint256)":"23b872dd"},"id":14}