{"abi":[{"type":"constructor","inputs":[{"name":"_owner","type":"address","internalType":"address"}],"stateMutability":"nonpayable"},{"type":"function","name":"BRIDGE_ROLE","inputs":[],"outputs":[{"name":"","type":"bytes32","internalType":"bytes32"}],"stateMutability":"view"},{"type":"function","name":"DEFAULT_ADMIN_ROLE","inputs":[],"outputs":[{"name":"","type":"bytes32","internalType":"bytes32"}],"stateMutability":"view"},{"type":"function","name":"OWNER_ROLE","inputs":[],"outputs":[{"name":"","type":"bytes32","internalType":"bytes32"}],"stateMutability":"view"},{"type":"function","name":"allowance","inputs":[{"name":"owner","type":"address","internalType":"address"},{"name":"spender","type":"address","internalType":"address"}],"outputs":[{"name":"","type":"uint256","internalType":"uint256"}],"stateMutability":"view"},{"type":"function","name":"approve","inputs":[{"name":"spender","type":"address","internalType":"address"},{"name":"value","type":"uint256","internalType":"uint256"}],"outputs":[{"name":"","type":"bool","internalType":"bool"}],"stateMutability":"nonpayable"},{"type":"function","name":"balanceOf","inputs":[{"name":"account","type":"address","internalType":"address"}],"outputs":[{"name":"","type":"uint256","internalType":"uint256"}],"stateMutability":"view"},{"type":"function","name":"burn","inputs":[{"name":"account","type":"address","internalType":"address"},{"name":"amount","type":"uint256","internalType":"uint256"}],"outputs":[{"name":"success","type":"bool","internalType":"bool"}],"stateMutability":"nonpayable"},{"type":"function","name":"decimals","inputs":[],"outputs":[{"name":"","type":"uint8","internalType":"uint8"}],"stateMutability":"view"},{"type":"function","name":"getRoleAdmin","inputs":[{"name":"role","type":"bytes32","internalType":"bytes32"}],"outputs":[{"name":"","type":"bytes32","internalType":"bytes32"}],"stateMutability":"view"},{"type":"function","name":"giveRole","inputs":[{"name":"account","type":"address","internalType":"address"}],"outputs":[{"name":"success","type":"bool","internalType":"bool"}],"stateMutability":"nonpayable"},{"type":"function","name":"grantRole","inputs":[{"name":"role","type":"bytes32","internalType":"bytes32"},{"name":"account","type":"address","internalType":"address"}],"outputs":[],"stateMutability":"nonpayable"},{"type":"function","name":"hasBridgeRole","inputs":[{"name":"account","type":"address","internalType":"address"}],"outputs":[{"name":"success","type":"bool","internalType":"bool"}],"stateMutability":"view"},{"type":"function","name":"hasRole","inputs":[{"name":"role","type":"bytes32","internalType":"bytes32"},{"name":"account","type":"address","internalType":"address"}],"outputs":[{"name":"","type":"bool","internalType":"bool"}],"stateMutability":"view"},{"type":"function","name":"mint","inputs":[{"name":"account","type":"address","internalType":"address"},{"name":"amount","type":"uint256","internalType":"uint256"}],"outputs":[{"name":"success","type":"bool","internalType":"bool"}],"stateMutability":"nonpayable"},{"type":"function","name":"name","inputs":[],"outputs":[{"name":"","type":"string","internalType":"string"}],"stateMutability":"view"},{"type":"function","name":"renounceRole","inputs":[{"name":"role","type":"bytes32","internalType":"bytes32"},{"name":"callerConfirmation","type":"address","internalType":"address"}],"outputs":[],"stateMutability":"nonpayable"},{"type":"function","name":"revokeRole","inputs":[{"name":"role","type":"bytes32","internalType":"bytes32"},{"name":"account","type":"address","internalType":"address"}],"outputs":[],"stateMutability":"nonpayable"},{"type":"function","name":"supportsInterface","inputs":[{"name":"interfaceId","type":"bytes4","internalType":"bytes4"}],"outputs":[{"name":"","type":"bool","internalType":"bool"}],"stateMutability":"view"},{"type":"function","name":"symbol","inputs":[],"outputs":[{"name":"","type":"string","internalType":"string"}],"stateMutability":"view"},{"type":"function","name":"totalSupply","inputs":[],"outputs":[{"name":"","type":"uint256","internalType":"uint256"}],"stateMutability":"view"},{"type":"function","name":"transfer","inputs":[{"name":"to","type":"address","internalType":"address"},{"name":"value","type":"uint256","internalType":"uint256"}],"outputs":[{"name":"","type":"bool","internalType":"bool"}],"stateMutability":"nonpayable"},{"type":"function","name":"transferFrom","inputs":[{"name":"from","type":"address","internalType":"address"},{"name":"to","type":"address","internalType":"address"},{"name":"value","type":"uint256","internalType":"uint256"}],"outputs":[{"name":"","type":"bool","internalType":"bool"}],"stateMutability":"nonpayable"},{"type":"event","name":"Approval","inputs":[{"name":"owner","type":"address","indexed":true,"internalType":"address"},{"name":"spender","type":"address","indexed":true,"internalType":"address"},{"name":"value","type":"uint256","indexed":false,"internalType":"uint256"}],"anonymous":false},{"type":"event","name":"RoleAdminChanged","inputs":[{"name":"role","type":"bytes32","indexed":true,"internalType":"bytes32"},{"name":"previousAdminRole","type":"bytes32","indexed":true,"internalType":"bytes32"},{"name":"newAdminRole","type":"bytes32","indexed":true,"internalType":"bytes32"}],"anonymous":false},{"type":"event","name":"RoleGranted","inputs":[{"name":"role","type":"bytes32","indexed":true,"internalType":"bytes32"},{"name":"account","type":"address","indexed":true,"internalType":"address"},{"name":"sender","type":"address","indexed":true,"internalType":"address"}],"anonymous":false},{"type":"event","name":"RoleRevoked","inputs":[{"name":"role","type":"bytes32","indexed":true,"internalType":"bytes32"},{"name":"account","type":"address","indexed":true,"internalType":"address"},{"name":"sender","type":"address","indexed":true,"internalType":"address"}],"anonymous":false},{"type":"event","name":"Transfer","inputs":[{"name":"from","type":"address","indexed":true,"internalType":"address"},{"name":"to","type":"address","indexed":true,"internalType":"address"},{"name":"value","type":"uint256","indexed":false,"internalType":"uint256"}],"anonymous":false},{"type":"error","name":"AccessControlBadConfirmation","inputs":[]},{"type":"error","name":"AccessControlUnauthorizedAccount","inputs":[{"name":"account","type":"address","internalType":"address"},{"name":"neededRole","type":"bytes32","internalType":"bytes32"}]},{"type":"error","name":"ERC20InsufficientAllowance","inputs":[{"name":"spender","type":"address","internalType":"address"},{"name":"allowance","type":"uint256","internalType":"uint256"},{"name":"needed","type":"uint256","internalType":"uint256"}]},{"type":"error","name":"ERC20InsufficientBalance","inputs":[{"name":"sender","type":"address","internalType":"address"},{"name":"balance","type":"uint256","internalType":"uint256"},{"name":"needed","type":"uint256","internalType":"uint256"}]},{"type":"error","name":"ERC20InvalidApprover","inputs":[{"name":"approver","type":"address","internalType":"address"}]},{"type":"error","name":"ERC20InvalidReceiver","inputs":[{"name":"receiver","type":"address","internalType":"address"}]},{"type":"error","name":"ERC20InvalidSender","inputs":[{"name":"sender","type":"address","internalType":"address"}]},{"type":"error","name":"ERC20InvalidSpender","inputs":[{"name":"spender","type":"address","internalType":"address"}]},{"type":"error","name":"noPermission","inputs":[{"name":"adr","type":"address","internalType":"address"}]}],"bytecode":{"object":"0x608060405234801562000010575f80fd5b50604051620011cb380380620011cb8339810160408190526200003391620001a8565b6040518060400160405280600981526020016829a0aa282a37b5b2b760b91b815250604051806040016040528060048152602001630534154560e41b815250816004908162000083919062000277565b50600562000092828262000277565b505050620000c77fb19546dff01e856fb3f010c267a7b1c60363cf8a4664e21cc89c26224620214e82620000fc60201b60201c565b50620000f47f52ba824bfabc2bcfcdf7f0edbb486ebb05e1836c90e78047efeb949990f72e5f82620000fc565b50506200033f565b5f828152602081815260408083206001600160a01b038516845290915281205460ff166200019f575f838152602081815260408083206001600160a01b03861684529091529020805460ff19166001179055620001563390565b6001600160a01b0316826001600160a01b0316847f2f8788117e7eff1d82e926ec794901d17c78024a50270940304540a733656f0d60405160405180910390a4506001620001a2565b505f5b92915050565b5f60208284031215620001b9575f80fd5b81516001600160a01b0381168114620001d0575f80fd5b9392505050565b634e487b7160e01b5f52604160045260245ffd5b600181811c908216806200020057607f821691505b6020821081036200021f57634e487b7160e01b5f52602260045260245ffd5b50919050565b601f82111562000272575f81815260208120601f850160051c810160208610156200024d5750805b601f850160051c820191505b818110156200026e5782815560010162000259565b5050505b505050565b81516001600160401b03811115620002935762000293620001d7565b620002ab81620002a48454620001eb565b8462000225565b602080601f831160018114620002e1575f8415620002c95750858301515b5f19600386901b1c1916600185901b1785556200026e565b5f85815260208120601f198616915b828110156200031157888601518255948401946001909101908401620002f0565b50858210156200032f57878501515f19600388901b60f8161c191681555b5050505050600190811b01905550565b610e7e806200034d5f395ff3fe608060405234801561000f575f80fd5b5060043610610179575f3560e01c806391d14854116100d2578063b5bfddea11610088578063dd62ed3e11610063578063dd62ed3e1461033e578063e58378bb14610376578063ea1340711461039d575f80fd5b8063b5bfddea146102f1578063c375110d14610318578063d547741f1461032b575f80fd5b80639dc29fac116100b85780639dc29fac146102c4578063a217fddf146102d7578063a9059cbb146102de575f80fd5b806391d148541461028657806395d89b41146102bc575f80fd5b8063248a9ca31161013257806336568abe1161010d57806336568abe1461023857806340c10f191461024b57806370a082311461025e575f80fd5b8063248a9ca3146101f25780632f2ff15d14610214578063313ce56714610229575f80fd5b8063095ea7b311610162578063095ea7b3146101ba57806318160ddd146101cd57806323b872dd146101df575f80fd5b806301ffc9a71461017d57806306fdde03146101a5575b5f80fd5b61019061018b366004610c68565b6103b0565b60405190151581526020015b60405180910390f35b6101ad610448565b60405161019c9190610cae565b6101906101c8366004610d14565b6104d8565b6003545b60405190815260200161019c565b6101906101ed366004610d3c565b6104ef565b6101d1610200366004610d75565b5f9081526020819052604090206001015490565b610227610222366004610d8c565b610512565b005b6040516012815260200161019c565b610227610246366004610d8c565b61053c565b610190610259366004610d14565b61058d565b6101d161026c366004610db6565b6001600160a01b03165f9081526001602052604090205490565b610190610294366004610d8c565b5f918252602082815260408084206001600160a01b0393909316845291905290205460ff1690565b6101ad6105c2565b6101906102d2366004610d14565b6105d1565b6101d15f81565b6101906102ec366004610d14565b610606565b6101d17f52ba824bfabc2bcfcdf7f0edbb486ebb05e1836c90e78047efeb949990f72e5f81565b610190610326366004610db6565b610613565b610227610339366004610d8c565b610674565b6101d161034c366004610dcf565b6001600160a01b039182165f90815260026020908152604080832093909416825291909152205490565b6101d17fb19546dff01e856fb3f010c267a7b1c60363cf8a4664e21cc89c26224620214e81565b6101906103ab366004610db6565b610698565b5f7fffffffff0000000000000000000000000000000000000000000000000000000082167f7965db0b00000000000000000000000000000000000000000000000000000000148061044257507f01ffc9a7000000000000000000000000000000000000000000000000000000007fffffffff000000000000000000000000000000000000000000000000000000008316145b92915050565b60606004805461045790610df7565b80601f016020809104026020016040519081016040528092919081815260200182805461048390610df7565b80156104ce5780601f106104a5576101008083540402835291602001916104ce565b820191905f5260205f20905b8154815290600101906020018083116104b157829003601f168201915b5050505050905090565b5f336104e5818585610721565b5060019392505050565b5f336104fc85828561072e565b6105078585856107bc565b506001949350505050565b5f8281526020819052604090206001015461052c81610819565b6105368383610826565b50505050565b6001600160a01b038116331461057e576040517f6697b23200000000000000000000000000000000000000000000000000000000815260040160405180910390fd5b61058882826108cd565b505050565b5f7f52ba824bfabc2bcfcdf7f0edbb486ebb05e1836c90e78047efeb949990f72e5f6105b881610819565b6104e5848461094e565b60606005805461045790610df7565b5f7f52ba824bfabc2bcfcdf7f0edbb486ebb05e1836c90e78047efeb949990f72e5f6105fc81610819565b6104e58484610986565b5f336104e58185856107bc565b5f7fb19546dff01e856fb3f010c267a7b1c60363cf8a4664e21cc89c26224620214e61063e81610819565b6106687f52ba824bfabc2bcfcdf7f0edbb486ebb05e1836c90e78047efeb949990f72e5f84610826565b50600191505b50919050565b5f8281526020819052604090206001015461068e81610819565b61053683836108cd565b6001600160a01b0381165f9081527f7dcd276b72586271b4623598c6b3ecb5f3594881d1da5ce0d28e8f8adbf67787602052604081205460ff16156106df57506001919050565b6040517f1aee145f0000000000000000000000000000000000000000000000000000000081526001600160a01b03831660048201526024015b60405180910390fd5b61058883838360016109ba565b6001600160a01b038381165f908152600260209081526040808320938616835292905220545f19811461053657818110156107ae576040517ffb8f41b20000000000000000000000000000000000000000000000000000000081526001600160a01b03841660048201526024810182905260448101839052606401610718565b61053684848484035f6109ba565b6001600160a01b0383166107e557604051634b637e8f60e11b81525f6004820152602401610718565b6001600160a01b03821661080e5760405163ec442f0560e01b81525f6004820152602401610718565b610588838383610abe565b6108238133610bfd565b50565b5f828152602081815260408083206001600160a01b038516845290915281205460ff166108c6575f838152602081815260408083206001600160a01b03861684529091529020805460ff1916600117905561087e3390565b6001600160a01b0316826001600160a01b0316847f2f8788117e7eff1d82e926ec794901d17c78024a50270940304540a733656f0d60405160405180910390a4506001610442565b505f610442565b5f828152602081815260408083206001600160a01b038516845290915281205460ff16156108c6575f838152602081815260408083206001600160a01b0386168085529252808320805460ff1916905551339286917ff6391f5c32d9c69d2a47ea670b442974b53935d1edc7fd64eb21e047a839171b9190a4506001610442565b6001600160a01b0382166109775760405163ec442f0560e01b81525f6004820152602401610718565b6109825f8383610abe565b5050565b6001600160a01b0382166109af57604051634b637e8f60e11b81525f6004820152602401610718565b610982825f83610abe565b6001600160a01b0384166109fc576040517fe602df050000000000000000000000000000000000000000000000000000000081525f6004820152602401610718565b6001600160a01b038316610a3e576040517f94280d620000000000000000000000000000000000000000000000000000000081525f6004820152602401610718565b6001600160a01b038085165f908152600260209081526040808320938716835292905220829055801561053657826001600160a01b0316846001600160a01b03167f8c5be1e5ebec7d5bd14f71427d1e84f3dd0314c0f7b2291e5b200ac8c7c3b92584604051610ab091815260200190565b60405180910390a350505050565b6001600160a01b038316610ae8578060035f828254610add9190610e29565b90915550610b719050565b6001600160a01b0383165f9081526001602052604090205481811015610b53576040517fe450d38c0000000000000000000000000000000000000000000000000000000081526001600160a01b03851660048201526024810182905260448101839052606401610718565b6001600160a01b0384165f9081526001602052604090209082900390555b6001600160a01b038216610b8d57600380548290039055610bab565b6001600160a01b0382165f9081526001602052604090208054820190555b816001600160a01b0316836001600160a01b03167fddf252ad1be2c89b69c2b068fc378daa952ba7f163c4a11628f55a4df523b3ef83604051610bf091815260200190565b60405180910390a3505050565b5f828152602081815260408083206001600160a01b038516845290915290205460ff16610982576040517fe2517d3f0000000000000000000000000000000000000000000000000000000081526001600160a01b038216600482015260248101839052604401610718565b5f60208284031215610c78575f80fd5b81357fffffffff0000000000000000000000000000000000000000000000000000000081168114610ca7575f80fd5b9392505050565b5f6020808352835180828501525f5b81811015610cd957858101830151858201604001528201610cbd565b505f604082860101526040601f19601f8301168501019250505092915050565b80356001600160a01b0381168114610d0f575f80fd5b919050565b5f8060408385031215610d25575f80fd5b610d2e83610cf9565b946020939093013593505050565b5f805f60608486031215610d4e575f80fd5b610d5784610cf9565b9250610d6560208501610cf9565b9150604084013590509250925092565b5f60208284031215610d85575f80fd5b5035919050565b5f8060408385031215610d9d575f80fd5b82359150610dad60208401610cf9565b90509250929050565b5f60208284031215610dc6575f80fd5b610ca782610cf9565b5f8060408385031215610de0575f80fd5b610de983610cf9565b9150610dad60208401610cf9565b600181811c90821680610e0b57607f821691505b60208210810361066e57634e487b7160e01b5f52602260045260245ffd5b8082018082111561044257634e487b7160e01b5f52601160045260245ffdfea264697066735822122012484b49c3d0eb4f20a6c34e5343b6a8b6cc9c36fdc1cb263a750b0cd91fc77764736f6c63430008140033","linkReferences":{}},"methodIdentifiers":{"BRIDGE_ROLE()":"b5bfddea","DEFAULT_ADMIN_ROLE()":"a217fddf","OWNER_ROLE()":"e58378bb","allowance(address,address)":"dd62ed3e","approve(address,uint256)":"095ea7b3","balanceOf(address)":"70a08231","burn(address,uint256)":"9dc29fac","decimals()":"313ce567","getRoleAdmin(bytes32)":"248a9ca3","giveRole(address)":"c375110d","grantRole(bytes32,address)":"2f2ff15d","hasBridgeRole(address)":"ea134071","hasRole(bytes32,address)":"91d14854","mint(address,uint256)":"40c10f19","name()":"06fdde03","renounceRole(bytes32,address)":"36568abe","revokeRole(bytes32,address)":"d547741f","supportsInterface(bytes4)":"01ffc9a7","symbol()":"95d89b41","totalSupply()":"18160ddd","transfer(address,uint256)":"a9059cbb","transferFrom(address,address,uint256)":"23b872dd"},"id":14}