{"abi":[{"type":"constructor","inputs":[{"name":"_owner","type":"address","internalType":"address"},{"name":"_id","type":"string","internalType":"string"}],"stateMutability":"nonpayable"},{"type":"function","name":"BRIDGE_ROLE","inputs":[],"outputs":[{"name":"","type":"bytes32","internalType":"bytes32"}],"stateMutability":"view"},{"type":"function","name":"DEFAULT_ADMIN_ROLE","inputs":[],"outputs":[{"name":"","type":"bytes32","internalType":"bytes32"}],"stateMutability":"view"},{"type":"function","name":"OWNER_ROLE","inputs":[],"outputs":[{"name":"","type":"bytes32","internalType":"bytes32"}],"stateMutability":"view"},{"type":"function","name":"allowance","inputs":[{"name":"owner","type":"address","internalType":"address"},{"name":"spender","type":"address","internalType":"address"}],"outputs":[{"name":"","type":"uint256","internalType":"uint256"}],"stateMutability":"view"},{"type":"function","name":"approve","inputs":[{"name":"spender","type":"address","internalType":"address"},{"name":"value","type":"uint256","internalType":"uint256"}],"outputs":[{"name":"","type":"bool","internalType":"bool"}],"stateMutability":"nonpayable"},{"type":"function","name":"assign","inputs":[{"name":"from","type":"address","internalType":"address"},{"name":"recipient","type":"address","internalType":"address"},{"name":"amount","type":"uint256","internalType":"uint256"}],"outputs":[{"name":"success","type":"bool","internalType":"bool"}],"stateMutability":"nonpayable"},{"type":"function","name":"balanceOf","inputs":[{"name":"account","type":"address","internalType":"address"}],"outputs":[{"name":"","type":"uint256","internalType":"uint256"}],"stateMutability":"view"},{"type":"function","name":"burn","inputs":[{"name":"account","type":"address","internalType":"address"},{"name":"amount","type":"uint256","internalType":"uint256"}],"outputs":[{"name":"success","type":"bool","internalType":"bool"}],"stateMutability":"nonpayable"},{"type":"function","name":"checkBalance","inputs":[{"name":"account","type":"address","internalType":"address"}],"outputs":[{"name":"","type":"uint256","internalType":"uint256"}],"stateMutability":"view"},{"type":"function","name":"decimals","inputs":[],"outputs":[{"name":"","type":"uint8","internalType":"uint8"}],"stateMutability":"view"},{"type":"function","name":"getAllAssetsIDs","inputs":[],"outputs":[{"name":"","type":"string[]","internalType":"string[]"}],"stateMutability":"view"},{"type":"function","name":"getId","inputs":[],"outputs":[{"name":"","type":"string","internalType":"string"}],"stateMutability":"view"},{"type":"function","name":"getRoleAdmin","inputs":[{"name":"role","type":"bytes32","internalType":"bytes32"}],"outputs":[{"name":"","type":"bytes32","internalType":"bytes32"}],"stateMutability":"view"},{"type":"function","name":"giveRole","inputs":[{"name":"account","type":"address","internalType":"address"}],"outputs":[{"name":"success","type":"bool","internalType":"bool"}],"stateMutability":"nonpayable"},{"type":"function","name":"grantRole","inputs":[{"name":"role","type":"bytes32","internalType":"bytes32"},{"name":"account","type":"address","internalType":"address"}],"outputs":[],"stateMutability":"nonpayable"},{"type":"function","name":"hasPermission","inputs":[{"name":"account","type":"address","internalType":"address"}],"outputs":[{"name":"success","type":"bool","internalType":"bool"}],"stateMutability":"view"},{"type":"function","name":"hasRole","inputs":[{"name":"role","type":"bytes32","internalType":"bytes32"},{"name":"account","type":"address","internalType":"address"}],"outputs":[{"name":"","type":"bool","internalType":"bool"}],"stateMutability":"view"},{"type":"function","name":"id","inputs":[],"outputs":[{"name":"","type":"string","internalType":"string"}],"stateMutability":"view"},{"type":"function","name":"mint","inputs":[{"name":"account","type":"address","internalType":"address"},{"name":"amount","type":"uint256","internalType":"uint256"}],"outputs":[{"name":"success","type":"bool","internalType":"bool"}],"stateMutability":"nonpayable"},{"type":"function","name":"name","inputs":[],"outputs":[{"name":"","type":"string","internalType":"string"}],"stateMutability":"view"},{"type":"function","name":"renounceRole","inputs":[{"name":"role","type":"bytes32","internalType":"bytes32"},{"name":"callerConfirmation","type":"address","internalType":"address"}],"outputs":[],"stateMutability":"nonpayable"},{"type":"function","name":"revokeRole","inputs":[{"name":"role","type":"bytes32","internalType":"bytes32"},{"name":"account","type":"address","internalType":"address"}],"outputs":[],"stateMutability":"nonpayable"},{"type":"function","name":"supportsInterface","inputs":[{"name":"interfaceId","type":"bytes4","internalType":"bytes4"}],"outputs":[{"name":"","type":"bool","internalType":"bool"}],"stateMutability":"view"},{"type":"function","name":"symbol","inputs":[],"outputs":[{"name":"","type":"string","internalType":"string"}],"stateMutability":"view"},{"type":"function","name":"totalSupply","inputs":[],"outputs":[{"name":"","type":"uint256","internalType":"uint256"}],"stateMutability":"view"},{"type":"function","name":"transfer","inputs":[{"name":"to","type":"address","internalType":"address"},{"name":"value","type":"uint256","internalType":"uint256"}],"outputs":[{"name":"","type":"bool","internalType":"bool"}],"stateMutability":"nonpayable"},{"type":"function","name":"transfer","inputs":[{"name":"from","type":"address","internalType":"address"},{"name":"recipient","type":"address","internalType":"address"},{"name":"amount","type":"uint256","internalType":"uint256"}],"outputs":[{"name":"success","type":"bool","internalType":"bool"}],"stateMutability":"nonpayable"},{"type":"function","name":"transferFrom","inputs":[{"name":"from","type":"address","internalType":"address"},{"name":"to","type":"address","internalType":"address"},{"name":"value","type":"uint256","internalType":"uint256"}],"outputs":[{"name":"","type":"bool","internalType":"bool"}],"stateMutability":"nonpayable"},{"type":"event","name":"Approval","inputs":[{"name":"owner","type":"address","indexed":true,"internalType":"address"},{"name":"spender","type":"address","indexed":true,"internalType":"address"},{"name":"value","type":"uint256","indexed":false,"internalType":"uint256"}],"anonymous":false},{"type":"event","name":"Changed","inputs":[{"name":"id","type":"string","indexed":true,"internalType":"string"},{"name":"value","type":"bytes[]","indexed":false,"internalType":"bytes[]"}],"anonymous":false},{"type":"event","name":"RoleAdminChanged","inputs":[{"name":"role","type":"bytes32","indexed":true,"internalType":"bytes32"},{"name":"previousAdminRole","type":"bytes32","indexed":true,"internalType":"bytes32"},{"name":"newAdminRole","type":"bytes32","indexed":true,"internalType":"bytes32"}],"anonymous":false},{"type":"event","name":"RoleGranted","inputs":[{"name":"role","type":"bytes32","indexed":true,"internalType":"bytes32"},{"name":"account","type":"address","indexed":true,"internalType":"address"},{"name":"sender","type":"address","indexed":true,"internalType":"address"}],"anonymous":false},{"type":"event","name":"RoleRevoked","inputs":[{"name":"role","type":"bytes32","indexed":true,"internalType":"bytes32"},{"name":"account","type":"address","indexed":true,"internalType":"address"},{"name":"sender","type":"address","indexed":true,"internalType":"address"}],"anonymous":false},{"type":"event","name":"Transfer","inputs":[{"name":"from","type":"address","indexed":true,"internalType":"address"},{"name":"to","type":"address","indexed":true,"internalType":"address"},{"name":"value","type":"uint256","indexed":false,"internalType":"uint256"}],"anonymous":false},{"type":"error","name":"AccessControlBadConfirmation","inputs":[]},{"type":"error","name":"AccessControlUnauthorizedAccount","inputs":[{"name":"account","type":"address","internalType":"address"},{"name":"neededRole","type":"bytes32","internalType":"bytes32"}]},{"type":"error","name":"ERC20InsufficientAllowance","inputs":[{"name":"spender","type":"address","internalType":"address"},{"name":"allowance","type":"uint256","internalType":"uint256"},{"name":"needed","type":"uint256","internalType":"uint256"}]},{"type":"error","name":"ERC20InsufficientBalance","inputs":[{"name":"sender","type":"address","internalType":"address"},{"name":"balance","type":"uint256","internalType":"uint256"},{"name":"needed","type":"uint256","internalType":"uint256"}]},{"type":"error","name":"ERC20InvalidApprover","inputs":[{"name":"approver","type":"address","internalType":"address"}]},{"type":"error","name":"ERC20InvalidReceiver","inputs":[{"name":"receiver","type":"address","internalType":"address"}]},{"type":"error","name":"ERC20InvalidSender","inputs":[{"name":"sender","type":"address","internalType":"address"}]},{"type":"error","name":"ERC20InvalidSpender","inputs":[{"name":"spender","type":"address","internalType":"address"}]},{"type":"error","name":"noPermission","inputs":[{"name":"adr","type":"address","internalType":"address"}]}],"bytecode":{"object":"0x60806040523480156200001157600080fd5b506040516200289d3803806200289d8339818101604052810190620000379190620004b6565b6040518060400160405280600981526020017f53415450546f6b656e00000000000000000000000000000000000000000000008152506040518060400160405280600481526020017f53415450000000000000000000000000000000000000000000000000000000008152508160049081620000b4919062000767565b508060059081620000c6919062000767565b505050620000fb7fb19546dff01e856fb3f010c267a7b1c60363cf8a4664e21cc89c26224620214e836200014960201b60201c565b506200012e7f52ba824bfabc2bcfcdf7f0edbb486ebb05e1836c90e78047efeb949990f72e5f836200014960201b60201c565b50806006908162000140919062000767565b5050506200084e565b60006200015d83836200024c60201b60201c565b6200024157600160008085815260200190815260200160002060000160008473ffffffffffffffffffffffffffffffffffffffff1673ffffffffffffffffffffffffffffffffffffffff16815260200190815260200160002060006101000a81548160ff021916908315150217905550620001dd620002b660201b60201c565b73ffffffffffffffffffffffffffffffffffffffff168273ffffffffffffffffffffffffffffffffffffffff16847f2f8788117e7eff1d82e926ec794901d17c78024a50270940304540a733656f0d60405160405180910390a46001905062000246565b600090505b92915050565b600080600084815260200190815260200160002060000160008373ffffffffffffffffffffffffffffffffffffffff1673ffffffffffffffffffffffffffffffffffffffff16815260200190815260200160002060009054906101000a900460ff16905092915050565b600033905090565b6000604051905090565b600080fd5b600080fd5b600073ffffffffffffffffffffffffffffffffffffffff82169050919050565b6000620002ff82620002d2565b9050919050565b6200031181620002f2565b81146200031d57600080fd5b50565b600081519050620003318162000306565b92915050565b600080fd5b600080fd5b6000601f19601f8301169050919050565b7f4e487b7100000000000000000000000000000000000000000000000000000000600052604160045260246000fd5b6200038c8262000341565b810181811067ffffffffffffffff82111715620003ae57620003ad62000352565b5b80604052505050565b6000620003c3620002be565b9050620003d1828262000381565b919050565b600067ffffffffffffffff821115620003f457620003f362000352565b5b620003ff8262000341565b9050602081019050919050565b60005b838110156200042c5780820151818401526020810190506200040f565b60008484015250505050565b60006200044f6200044984620003d6565b620003b7565b9050828152602081018484840111156200046e576200046d6200033c565b5b6200047b8482856200040c565b509392505050565b600082601f8301126200049b576200049a62000337565b5b8151620004ad84826020860162000438565b91505092915050565b60008060408385031215620004d057620004cf620002c8565b5b6000620004e08582860162000320565b925050602083015167ffffffffffffffff811115620005045762000503620002cd565b5b620005128582860162000483565b9150509250929050565b600081519050919050565b7f4e487b7100000000000000000000000000000000000000000000000000000000600052602260045260246000fd5b600060028204905060018216806200056f57607f821691505b60208210810362000585576200058462000527565b5b50919050565b60008190508160005260206000209050919050565b60006020601f8301049050919050565b600082821b905092915050565b600060088302620005ef7fffffffffffffffffffffffffffffffffffffffffffffffffffffffffffffffff82620005b0565b620005fb8683620005b0565b95508019841693508086168417925050509392505050565b6000819050919050565b6000819050919050565b600062000648620006426200063c8462000613565b6200061d565b62000613565b9050919050565b6000819050919050565b620006648362000627565b6200067c62000673826200064f565b848454620005bd565b825550505050565b600090565b6200069362000684565b620006a081848462000659565b505050565b5b81811015620006c857620006bc60008262000689565b600181019050620006a6565b5050565b601f8211156200071757620006e1816200058b565b620006ec84620005a0565b81016020851015620006fc578190505b620007146200070b85620005a0565b830182620006a5565b50505b505050565b600082821c905092915050565b60006200073c600019846008026200071c565b1980831691505092915050565b600062000757838362000729565b9150826002028217905092915050565b62000772826200051c565b67ffffffffffffffff8111156200078e576200078d62000352565b5b6200079a825462000556565b620007a7828285620006cc565b600060209050601f831160018114620007df5760008415620007ca578287015190505b620007d6858262000749565b86555062000846565b601f198416620007ef866200058b565b60005b828110156200081957848901518255600182019150602085019450602081019050620007f2565b8683101562000839578489015162000835601f89168262000729565b8355505b6001600288020188555050505b505050505050565b61203f806200085e6000396000f3fe608060405234801561001057600080fd5b50600436106101c45760003560e01c806370a08231116100f9578063af640d0f11610097578063c375110d11610071578063c375110d1461057f578063d547741f146105af578063dd62ed3e146105cb578063e58378bb146105fb576101c4565b8063af640d0f14610513578063b5bfddea14610531578063beabacc81461054f576101c4565b806397128e00116100d357806397128e00146104655780639dc29fac14610495578063a217fddf146104c5578063a9059cbb146104e3576101c4565b806370a08231146103e757806391d148541461041757806395d89b4114610447576101c4565b8063313ce567116101665780635137b8a7116101405780635137b8a71461034b5780635d1ca631146103695780635f515226146103875780635f52d44e146103b7576101c4565b8063313ce567146102e157806336568abe146102ff57806340c10f191461031b576101c4565b806318160ddd116101a257806318160ddd1461024757806323b872dd14610265578063248a9ca3146102955780632f2ff15d146102c5576101c4565b806301ffc9a7146101c957806306fdde03146101f9578063095ea7b314610217575b600080fd5b6101e360048036038101906101de91906118ed565b610619565b6040516101f09190611935565b60405180910390f35b610201610693565b60405161020e91906119e0565b60405180910390f35b610231600480360381019061022c9190611a96565b610725565b60405161023e9190611935565b60405180910390f35b61024f610748565b60405161025c9190611ae5565b60405180910390f35b61027f600480360381019061027a9190611b00565b610752565b60405161028c9190611935565b60405180910390f35b6102af60048036038101906102aa9190611b89565b610781565b6040516102bc9190611bc5565b60405180910390f35b6102df60048036038101906102da9190611be0565b6107a0565b005b6102e96107c2565b6040516102f69190611c3c565b60405180910390f35b61031960048036038101906103149190611be0565b6107cb565b005b61033560048036038101906103309190611a96565b610846565b6040516103429190611935565b60405180910390f35b610353610887565b6040516103609190611d63565b60405180910390f35b61037161098d565b60405161037e91906119e0565b60405180910390f35b6103a1600480360381019061039c9190611d85565b610a1f565b6040516103ae9190611ae5565b60405180910390f35b6103d160048036038101906103cc9190611b00565b610a31565b6040516103de9190611935565b60405180910390f35b61040160048036038101906103fc9190611d85565b610ae9565b60405161040e9190611ae5565b60405180910390f35b610431600480360381019061042c9190611be0565b610b32565b60405161043e9190611935565b60405180910390f35b61044f610b9c565b60405161045c91906119e0565b60405180910390f35b61047f600480360381019061047a9190611d85565b610c2e565b60405161048c9190611935565b60405180910390f35b6104af60048036038101906104aa9190611a96565b610caa565b6040516104bc9190611935565b60405180910390f35b6104cd610ceb565b6040516104da9190611bc5565b60405180910390f35b6104fd60048036038101906104f89190611a96565b610cf2565b60405161050a9190611935565b60405180910390f35b61051b610d15565b60405161052891906119e0565b60405180910390f35b610539610da3565b6040516105469190611bc5565b60405180910390f35b61056960048036038101906105649190611b00565b610dc7565b6040516105769190611935565b60405180910390f35b61059960048036038101906105949190611d85565b610e0b565b6040516105a69190611935565b60405180910390f35b6105c960048036038101906105c49190611be0565b610e6c565b005b6105e560048036038101906105e09190611db2565b610e8e565b6040516105f29190611ae5565b60405180910390f35b610603610f15565b6040516106109190611bc5565b60405180910390f35b60007f7965db0b000000000000000000000000000000000000000000000000000000007bffffffffffffffffffffffffffffffffffffffffffffffffffffffff1916827bffffffffffffffffffffffffffffffffffffffffffffffffffffffff1916148061068c575061068b82610f39565b5b9050919050565b6060600480546106a290611e21565b80601f01602080910402602001604051908101604052809291908181526020018280546106ce90611e21565b801561071b5780601f106106f05761010080835404028352916020019161071b565b820191906000526020600020905b8154815290600101906020018083116106fe57829003601f168201915b5050505050905090565b600080610730610fa3565b905061073d818585610fab565b600191505092915050565b6000600354905090565b60008061075d610fa3565b905061076a858285610fbd565b610775858585611051565b60019150509392505050565b6000806000838152602001908152602001600020600101549050919050565b6107a982610781565b6107b281611145565b6107bc8383611159565b50505050565b60006012905090565b6107d3610fa3565b73ffffffffffffffffffffffffffffffffffffffff168173ffffffffffffffffffffffffffffffffffffffff1614610837576040517f6697b23200000000000000000000000000000000000000000000000000000000815260040160405180910390fd5b610841828261124a565b505050565b60007f52ba824bfabc2bcfcdf7f0edbb486ebb05e1836c90e78047efeb949990f72e5f61087281611145565b61087c848461133c565b600191505092915050565b60606000600167ffffffffffffffff8111156108a6576108a5611e52565b5b6040519080825280602002602001820160405280156108d957816020015b60608152602001906001900390816108c45790505b509050600680546108e990611e21565b80601f016020809104026020016040519081016040528092919081815260200182805461091590611e21565b80156109625780601f1061093757610100808354040283529160200191610962565b820191906000526020600020905b81548152906001019060200180831161094557829003601f168201915b50505050508160008151811061097b5761097a611e81565b5b60200260200101819052508091505090565b60606006805461099c90611e21565b80601f01602080910402602001604051908101604052809291908181526020018280546109c890611e21565b8015610a155780601f106109ea57610100808354040283529160200191610a15565b820191906000526020600020905b8154815290600101906020018083116109f857829003601f168201915b5050505050905090565b6000610a2a82610ae9565b9050919050565b60007f52ba824bfabc2bcfcdf7f0edbb486ebb05e1836c90e78047efeb949990f72e5f610a5d81611145565b610a65610fa3565b73ffffffffffffffffffffffffffffffffffffffff168573ffffffffffffffffffffffffffffffffffffffff1614610ad2576040517f08c379a0000000000000000000000000000000000000000000000000000000008152600401610ac990611efc565b60405180910390fd5b610add858585611051565b60019150509392505050565b6000600160008373ffffffffffffffffffffffffffffffffffffffff1673ffffffffffffffffffffffffffffffffffffffff168152602001908152602001600020549050919050565b600080600084815260200190815260200160002060000160008373ffffffffffffffffffffffffffffffffffffffff1673ffffffffffffffffffffffffffffffffffffffff16815260200190815260200160002060009054906101000a900460ff16905092915050565b606060058054610bab90611e21565b80601f0160208091040260200160405190810160405280929190818152602001828054610bd790611e21565b8015610c245780601f10610bf957610100808354040283529160200191610c24565b820191906000526020600020905b815481529060010190602001808311610c0757829003601f168201915b5050505050905090565b6000610c5a7f52ba824bfabc2bcfcdf7f0edbb486ebb05e1836c90e78047efeb949990f72e5f83610b32565b15610c685760019050610ca5565b816040517f1aee145f000000000000000000000000000000000000000000000000000000008152600401610c9c9190611f2b565b60405180910390fd5b919050565b60007f52ba824bfabc2bcfcdf7f0edbb486ebb05e1836c90e78047efeb949990f72e5f610cd681611145565b610ce084846113be565b600191505092915050565b6000801b81565b600080610cfd610fa3565b9050610d0a818585611051565b600191505092915050565b60068054610d2290611e21565b80601f0160208091040260200160405190810160405280929190818152602001828054610d4e90611e21565b8015610d9b5780601f10610d7057610100808354040283529160200191610d9b565b820191906000526020600020905b815481529060010190602001808311610d7e57829003601f168201915b505050505081565b7f52ba824bfabc2bcfcdf7f0edbb486ebb05e1836c90e78047efeb949990f72e5f81565b60007f52ba824bfabc2bcfcdf7f0edbb486ebb05e1836c90e78047efeb949990f72e5f610df381611145565b610dfe858585610752565b5060019150509392505050565b60007fb19546dff01e856fb3f010c267a7b1c60363cf8a4664e21cc89c26224620214e610e3781611145565b610e617f52ba824bfabc2bcfcdf7f0edbb486ebb05e1836c90e78047efeb949990f72e5f84611159565b506001915050919050565b610e7582610781565b610e7e81611145565b610e88838361124a565b50505050565b6000600260008473ffffffffffffffffffffffffffffffffffffffff1673ffffffffffffffffffffffffffffffffffffffff16815260200190815260200160002060008373ffffffffffffffffffffffffffffffffffffffff1673ffffffffffffffffffffffffffffffffffffffff16815260200190815260200160002054905092915050565b7fb19546dff01e856fb3f010c267a7b1c60363cf8a4664e21cc89c26224620214e81565b60007f01ffc9a7000000000000000000000000000000000000000000000000000000007bffffffffffffffffffffffffffffffffffffffffffffffffffffffff1916827bffffffffffffffffffffffffffffffffffffffffffffffffffffffff1916149050919050565b600033905090565b610fb88383836001611440565b505050565b6000610fc98484610e8e565b90507fffffffffffffffffffffffffffffffffffffffffffffffffffffffffffffffff811461104b578181101561103b578281836040517ffb8f41b200000000000000000000000000000000000000000000000000000000815260040161103293929190611f46565b60405180910390fd5b61104a84848484036000611440565b5b50505050565b600073ffffffffffffffffffffffffffffffffffffffff168373ffffffffffffffffffffffffffffffffffffffff16036110c35760006040517f96c6fd1e0000000000000000000000000000000000000000000000000000000081526004016110ba9190611f2b565b60405180910390fd5b600073ffffffffffffffffffffffffffffffffffffffff168273ffffffffffffffffffffffffffffffffffffffff16036111355760006040517fec442f0500000000000000000000000000000000000000000000000000000000815260040161112c9190611f2b565b60405180910390fd5b611140838383611617565b505050565b61115681611151610fa3565b61183f565b50565b60006111658383610b32565b61123f57600160008085815260200190815260200160002060000160008473ffffffffffffffffffffffffffffffffffffffff1673ffffffffffffffffffffffffffffffffffffffff16815260200190815260200160002060006101000a81548160ff0219169083151502179055506111dc610fa3565b73ffffffffffffffffffffffffffffffffffffffff168273ffffffffffffffffffffffffffffffffffffffff16847f2f8788117e7eff1d82e926ec794901d17c78024a50270940304540a733656f0d60405160405180910390a460019050611244565b600090505b92915050565b60006112568383610b32565b1561133157600080600085815260200190815260200160002060000160008473ffffffffffffffffffffffffffffffffffffffff1673ffffffffffffffffffffffffffffffffffffffff16815260200190815260200160002060006101000a81548160ff0219169083151502179055506112ce610fa3565b73ffffffffffffffffffffffffffffffffffffffff168273ffffffffffffffffffffffffffffffffffffffff16847ff6391f5c32d9c69d2a47ea670b442974b53935d1edc7fd64eb21e047a839171b60405160405180910390a460019050611336565b600090505b92915050565b600073ffffffffffffffffffffffffffffffffffffffff168273ffffffffffffffffffffffffffffffffffffffff16036113ae5760006040517fec442f050000000000000000000000000000000000000000000000000000000081526004016113a59190611f2b565b60405180910390fd5b6113ba60008383611617565b5050565b600073ffffffffffffffffffffffffffffffffffffffff168273ffffffffffffffffffffffffffffffffffffffff16036114305760006040517f96c6fd1e0000000000000000000000000000000000000000000000000000000081526004016114279190611f2b565b60405180910390fd5b61143c82600083611617565b5050565b600073ffffffffffffffffffffffffffffffffffffffff168473ffffffffffffffffffffffffffffffffffffffff16036114b25760006040517fe602df050000000000000000000000000000000000000000000000000000000081526004016114a99190611f2b565b60405180910390fd5b600073ffffffffffffffffffffffffffffffffffffffff168373ffffffffffffffffffffffffffffffffffffffff16036115245760006040517f94280d6200000000000000000000000000000000000000000000000000000000815260040161151b9190611f2b565b60405180910390fd5b81600260008673ffffffffffffffffffffffffffffffffffffffff1673ffffffffffffffffffffffffffffffffffffffff16815260200190815260200160002060008573ffffffffffffffffffffffffffffffffffffffff1673ffffffffffffffffffffffffffffffffffffffff168152602001908152602001600020819055508015611611578273ffffffffffffffffffffffffffffffffffffffff168473ffffffffffffffffffffffffffffffffffffffff167f8c5be1e5ebec7d5bd14f71427d1e84f3dd0314c0f7b2291e5b200ac8c7c3b925846040516116089190611ae5565b60405180910390a35b50505050565b600073ffffffffffffffffffffffffffffffffffffffff168373ffffffffffffffffffffffffffffffffffffffff160361166957806003600082825461165d9190611fac565b9250508190555061173e565b6000600160008573ffffffffffffffffffffffffffffffffffffffff1673ffffffffffffffffffffffffffffffffffffffff168152602001908152602001600020549050818110156116f6578381836040517fe450d38c0000000000000000000000000000000000000000000000000000000081526004016116ed93929190611f46565b60405180910390fd5b818103600160008673ffffffffffffffffffffffffffffffffffffffff1673ffffffffffffffffffffffffffffffffffffffff16815260200190815260200160002081905550505b600073ffffffffffffffffffffffffffffffffffffffff168273ffffffffffffffffffffffffffffffffffffffff160361178757806003600082825403925050819055506117d5565b80600160008473ffffffffffffffffffffffffffffffffffffffff1673ffffffffffffffffffffffffffffffffffffffff168152602001908152602001600020600082825401925050819055505b8173ffffffffffffffffffffffffffffffffffffffff168373ffffffffffffffffffffffffffffffffffffffff167fddf252ad1be2c89b69c2b068fc378daa952ba7f163c4a11628f55a4df523b3ef836040516118329190611ae5565b60405180910390a3505050565b6118498282610b32565b61188c5780826040517fe2517d3f000000000000000000000000000000000000000000000000000000008152600401611883929190611fe0565b60405180910390fd5b5050565b600080fd5b60007fffffffff0000000000000000000000000000000000000000000000000000000082169050919050565b6118ca81611895565b81146118d557600080fd5b50565b6000813590506118e7816118c1565b92915050565b60006020828403121561190357611902611890565b5b6000611911848285016118d8565b91505092915050565b60008115159050919050565b61192f8161191a565b82525050565b600060208201905061194a6000830184611926565b92915050565b600081519050919050565b600082825260208201905092915050565b60005b8381101561198a57808201518184015260208101905061196f565b60008484015250505050565b6000601f19601f8301169050919050565b60006119b282611950565b6119bc818561195b565b93506119cc81856020860161196c565b6119d581611996565b840191505092915050565b600060208201905081810360008301526119fa81846119a7565b905092915050565b600073ffffffffffffffffffffffffffffffffffffffff82169050919050565b6000611a2d82611a02565b9050919050565b611a3d81611a22565b8114611a4857600080fd5b50565b600081359050611a5a81611a34565b92915050565b6000819050919050565b611a7381611a60565b8114611a7e57600080fd5b50565b600081359050611a9081611a6a565b92915050565b60008060408385031215611aad57611aac611890565b5b6000611abb85828601611a4b565b9250506020611acc85828601611a81565b9150509250929050565b611adf81611a60565b82525050565b6000602082019050611afa6000830184611ad6565b92915050565b600080600060608486031215611b1957611b18611890565b5b6000611b2786828701611a4b565b9350506020611b3886828701611a4b565b9250506040611b4986828701611a81565b9150509250925092565b6000819050919050565b611b6681611b53565b8114611b7157600080fd5b50565b600081359050611b8381611b5d565b92915050565b600060208284031215611b9f57611b9e611890565b5b6000611bad84828501611b74565b91505092915050565b611bbf81611b53565b82525050565b6000602082019050611bda6000830184611bb6565b92915050565b60008060408385031215611bf757611bf6611890565b5b6000611c0585828601611b74565b9250506020611c1685828601611a4b565b9150509250929050565b600060ff82169050919050565b611c3681611c20565b82525050565b6000602082019050611c516000830184611c2d565b92915050565b600081519050919050565b600082825260208201905092915050565b6000819050602082019050919050565b600082825260208201905092915050565b6000611c9f82611950565b611ca98185611c83565b9350611cb981856020860161196c565b611cc281611996565b840191505092915050565b6000611cd98383611c94565b905092915050565b6000602082019050919050565b6000611cf982611c57565b611d038185611c62565b935083602082028501611d1585611c73565b8060005b85811015611d515784840389528151611d328582611ccd565b9450611d3d83611ce1565b925060208a01995050600181019050611d19565b50829750879550505050505092915050565b60006020820190508181036000830152611d7d8184611cee565b905092915050565b600060208284031215611d9b57611d9a611890565b5b6000611da984828501611a4b565b91505092915050565b60008060408385031215611dc957611dc8611890565b5b6000611dd785828601611a4b565b9250506020611de885828601611a4b565b9150509250929050565b7f4e487b7100000000000000000000000000000000000000000000000000000000600052602260045260246000fd5b60006002820490506001821680611e3957607f821691505b602082108103611e4c57611e4b611df2565b5b50919050565b7f4e487b7100000000000000000000000000000000000000000000000000000000600052604160045260246000fd5b7f4e487b7100000000000000000000000000000000000000000000000000000000600052603260045260246000fd5b7f546865206d736753656e646572206973206e6f7420746865206f776e65720000600082015250565b6000611ee6601e8361195b565b9150611ef182611eb0565b602082019050919050565b60006020820190508181036000830152611f1581611ed9565b9050919050565b611f2581611a22565b82525050565b6000602082019050611f406000830184611f1c565b92915050565b6000606082019050611f5b6000830186611f1c565b611f686020830185611ad6565b611f756040830184611ad6565b949350505050565b7f4e487b7100000000000000000000000000000000000000000000000000000000600052601160045260246000fd5b6000611fb782611a60565b9150611fc283611a60565b9250828201905080821115611fda57611fd9611f7d565b5b92915050565b6000604082019050611ff56000830185611f1c565b6120026020830184611bb6565b939250505056fea26469706673582212209b6ebdd5817882563b8f072d39bebc5c7dbb70631aac494515d3c8d37f04c72664736f6c63430008140033","linkReferences":{}},"methodIdentifiers":{"BRIDGE_ROLE()":"b5bfddea","DEFAULT_ADMIN_ROLE()":"a217fddf","OWNER_ROLE()":"e58378bb","allowance(address,address)":"dd62ed3e","approve(address,uint256)":"095ea7b3","assign(address,address,uint256)":"5f52d44e","balanceOf(address)":"70a08231","burn(address,uint256)":"9dc29fac","checkBalance(address)":"5f515226","decimals()":"313ce567","getAllAssetsIDs()":"5137b8a7","getId()":"5d1ca631","getRoleAdmin(bytes32)":"248a9ca3","giveRole(address)":"c375110d","grantRole(bytes32,address)":"2f2ff15d","hasPermission(address)":"97128e00","hasRole(bytes32,address)":"91d14854","id()":"af640d0f","mint(address,uint256)":"40c10f19","name()":"06fdde03","renounceRole(bytes32,address)":"36568abe","revokeRole(bytes32,address)":"d547741f","supportsInterface(bytes4)":"01ffc9a7","symbol()":"95d89b41","totalSupply()":"18160ddd","transfer(address,address,uint256)":"beabacc8","transfer(address,uint256)":"a9059cbb","transferFrom(address,address,uint256)":"23b872dd"},"id":14}