{
    "contractName": "BambooHarvestRepository",
    "abi": [
        {
            "inputs": [],
            "name": "getAllRecords",
            "outputs": [
                {
                    "components": [
                        {
                            "internalType": "string",
                            "name": "id",
                            "type": "string"
                        },
                        {
                            "internalType": "string",
                            "name": "location",
                            "type": "string"
                        },
                        {
                            "internalType": "string",
                            "name": "startedAt",
                            "type": "string"
                        },
                        {
                            "internalType": "string",
                            "name": "endedAt",
                            "type": "string"
                        },
                        {
                            "internalType": "string",
                            "name": "harvester",
                            "type": "string"
                        }
                    ],
                    "internalType": "struct SupplyChainAppDataModelLib.BambooHarvestEntity[]",
                    "name": "",
                    "type": "tuple[]"
                }
            ],
            "stateMutability": "view",
            "type": "function"
        },
        {
            "inputs": [
                {
                    "components": [
                        {
                            "internalType": "string",
                            "name": "id",
                            "type": "string"
                        },
                        {
                            "internalType": "string",
                            "name": "location",
                            "type": "string"
                        },
                        {
                            "internalType": "string",
                            "name": "startedAt",
                            "type": "string"
                        },
                        {
                            "internalType": "string",
                            "name": "endedAt",
                            "type": "string"
                        },
                        {
                            "internalType": "string",
                            "name": "harvester",
                            "type": "string"
                        }
                    ],
                    "internalType": "struct SupplyChainAppDataModelLib.BambooHarvestEntity",
                    "name": "record",
                    "type": "tuple"
                }
            ],
            "name": "insertRecord",
            "outputs": [
                {
                    "internalType": "bool",
                    "name": "success",
                    "type": "bool"
                }
            ],
            "stateMutability": "nonpayable",
            "type": "function"
        }
    ],
    "bytecode": "608060405234801561001057600080fd5b506107f8806100206000396000f3fe608060405234801561001057600080fd5b50600436106100365760003560e01c8063317ffe391461003b578063a7f9fe7214610064575b600080fd5b61004e61004936600461057d565b610079565b60405161005b9190610793565b60405180910390f35b61006c610139565b60405161005b91906106bf565b600080546001810182558180528251805184926005027f290decd9548b62a8d60345a988386fc84ba6bc95484008f6362f93160ef3e56301916100c191839160200190610483565b5060208281015180516100da9260018501920190610483565b50604082015180516100f6916002840191602090910190610483565b5060608201518051610112916003840191602090910190610483565b506080820151805161012e916004840191602090910190610483565b506001949350505050565b60606000805480602002602001604051908101604052809291908181526020016000905b8282101561047a5760008481526020908190206040805160058602909201805460026001821615610100026000190190911604601f8101859004909402830160c090810190925260a08301848152929390928492909184918401828280156102065780601f106101db57610100808354040283529160200191610206565b820191906000526020600020905b8154815290600101906020018083116101e957829003601f168201915b50505050508152602001600182018054600181600116156101000203166002900480601f0160208091040260200160405190810160405280929190818152602001828054600181600116156101000203166002900480156102a85780601f1061027d576101008083540402835291602001916102a8565b820191906000526020600020905b81548152906001019060200180831161028b57829003601f168201915b5050509183525050600282810180546040805160206001841615610100026000190190931694909404601f8101839004830285018301909152808452938101939083018282801561033a5780601f1061030f5761010080835404028352916020019161033a565b820191906000526020600020905b81548152906001019060200180831161031d57829003601f168201915b505050918352505060038201805460408051602060026001851615610100026000190190941693909304601f81018490048402820184019092528181529382019392918301828280156103ce5780601f106103a3576101008083540402835291602001916103ce565b820191906000526020600020905b8154815290600101906020018083116103b157829003601f168201915b505050918352505060048201805460408051602060026001851615610100026000190190941693909304601f81018490048402820184019092528181529382019392918301828280156104625780601f1061043757610100808354040283529160200191610462565b820191906000526020600020905b81548152906001019060200180831161044557829003601f168201915b5050505050815250508152602001906001019061015d565b50505050905090565b828054600181600116156101000203166002900490600052602060002090601f016020900481019282601f106104c457805160ff19168380011785556104f1565b828001600101855582156104f1579182015b828111156104f15782518255916020019190600101906104d6565b506104fd929150610501565b5090565b5b808211156104fd5760008155600101610502565b600082601f830112610526578081fd5b813567ffffffffffffffff81111561053a57fe5b61054d601f8201601f191660200161079e565b915080825283602082850101111561056457600080fd5b8060208401602084013760009082016020015292915050565b60006020828403121561058e578081fd5b813567ffffffffffffffff808211156105a5578283fd5b9083019060a082860312156105b8578283fd5b6105c260a061079e565b8235828111156105d0578485fd5b6105dc87828601610516565b8252506020830135828111156105f0578485fd5b6105fc87828601610516565b602083015250604083013582811115610613578485fd5b61061f87828601610516565b604083015250606083013582811115610636578485fd5b61064287828601610516565b606083015250608083013582811115610659578485fd5b61066587828601610516565b60808301525095945050505050565b60008151808452815b818110156106995760208185018101518683018201520161067d565b818111156106aa5782602083870101525b50601f01601f19169290920160200192915050565b60208082528251828201819052600091906040908185019080840286018301878501865b8381101561078557603f19898403018552815160a0815181865261070982870182610674565b915050888201518582038a8701526107218282610674565b91505087820151858203898701526107398282610674565b915050606080830151868303828801526107538382610674565b92505050608080830151925085820381870152506107718183610674565b9689019694505050908601906001016106e3565b509098975050505050505050565b901515815260200190565b60405181810167ffffffffffffffff811182821017156107ba57fe5b60405291905056fea2646970667358221220532d3478ef27de66937e73dda7d65f484c4936836aa9b39507268aff76b43bb064736f6c63430007020033",
    "sourcePath": "/home/peter/a/blockchain/cactus/packages/cactus-example-supply-chain-backend/src/main/solidity/BambooHarvestRepository.sol",
    "compiler": {
        "name": "solc",
        "version": "0.7.2+commit.51b20bc0"
    },
    "functionHashes": {
        "getAllRecords()": "a7f9fe72",
        "insertRecord((string,string,string,string,string))": "317ffe39"
    },
    "gasEstimates": {
        "creation": {
            "codeDepositCost": "408000",
            "executionCost": "443",
            "totalCost": "408443"
        },
        "external": {
            "getAllRecords()": "infinite",
            "insertRecord((string,string,string,string,string))": "infinite"
        }
    }
}