{
    "contractName": "BookshelfRepository",
    "abi": [
        {
            "inputs": [],
            "name": "getAllRecords",
            "outputs": [
                {
                    "components": [
                        {
                            "internalType": "string",
                            "name": "id",
                            "type": "string"
                        },
                        {
                            "internalType": "uint8",
                            "name": "shelfCount",
                            "type": "uint8"
                        },
                        {
                            "internalType": "string",
                            "name": "bambooHarvestId",
                            "type": "string"
                        }
                    ],
                    "internalType": "struct SupplyChainAppDataModelLib.BookshelfEntity[]",
                    "name": "",
                    "type": "tuple[]"
                }
            ],
            "stateMutability": "view",
            "type": "function"
        },
        {
            "inputs": [
                {
                    "components": [
                        {
                            "internalType": "string",
                            "name": "id",
                            "type": "string"
                        },
                        {
                            "internalType": "uint8",
                            "name": "shelfCount",
                            "type": "uint8"
                        },
                        {
                            "internalType": "string",
                            "name": "bambooHarvestId",
                            "type": "string"
                        }
                    ],
                    "internalType": "struct SupplyChainAppDataModelLib.BookshelfEntity",
                    "name": "record",
                    "type": "tuple"
                }
            ],
            "name": "insertRecord",
            "outputs": [
                {
                    "internalType": "bool",
                    "name": "success",
                    "type": "bool"
                }
            ],
            "stateMutability": "nonpayable",
            "type": "function"
        }
    ],
    "bytecode": "608060405234801561001057600080fd5b5061056f806100206000396000f3fe608060405234801561001057600080fd5b50600436106100365760003560e01c80634735f16c1461003b578063a7f9fe7214610064575b600080fd5b61004e61004936600461039e565b610079565b60405161005b919061052e565b60405180910390f35b61006c6100ff565b60405161005b919061049d565b600080546001810182558180528251805184926003027f290decd9548b62a8d60345a988386fc84ba6bc95484008f6362f93160ef3e56301916100c191839160200190610291565b5060208281015160018301805460ff191660ff909216919091179055604083015180516100f49260028501920190610291565b506001949350505050565b60606000805480602002602001604051908101604052809291908181526020016000905b828210156102885760008481526020908190206040805160038602909201805460026001821615610100026000190190911604601f81018590049094028301608090810190925260608301848152929390928492909184918401828280156101cc5780601f106101a1576101008083540402835291602001916101cc565b820191906000526020600020905b8154815290600101906020018083116101af57829003601f168201915b505050918352505060018281015460ff16602080840191909152600280850180546040805161010096831615969096026000190190911692909204601f810184900484028501840183528085529190940193918301828280156102705780601f1061024557610100808354040283529160200191610270565b820191906000526020600020905b81548152906001019060200180831161025357829003601f168201915b50505050508152505081526020019060010190610123565b50505050905090565b828054600181600116156101000203166002900490600052602060002090601f016020900481019282601f106102d257805160ff19168380011785556102ff565b828001600101855582156102ff579182015b828111156102ff5782518255916020019190600101906102e4565b5061030b92915061030f565b5090565b5b8082111561030b5760008155600101610310565b600082601f830112610334578081fd5b813567ffffffffffffffff8082111561034957fe5b604051601f8301601f19168101602001828111828210171561036757fe5b60405282815292508284830160200186101561038257600080fd5b8260208601602083013760006020848301015250505092915050565b6000602082840312156103af578081fd5b813567ffffffffffffffff808211156103c6578283fd5b90830190606082860312156103d9578283fd5b6040516060810181811083821117156103ee57fe5b6040528235828111156103ff578485fd5b61040b87828601610324565b825250602083013560ff81168114610421578485fd5b6020820152604083013582811115610437578485fd5b61044387828601610324565b60408301525095945050505050565b60008151808452815b818110156104775760208185018101518683018201520161045b565b818111156104885782602083870101525b50601f01601f19169290920160200192915050565b60208082528251828201819052600091906040908185019080840286018301878501865b8381101561052057603f198984030185528151606081518186526104e782870182610452565b91505060ff8983015116898601528782015191508481038886015261050c8183610452565b9689019694505050908601906001016104c1565b509098975050505050505050565b90151581526020019056fea26469706673582212205c6598bb40d1b52a4bc44e7f613cad73fff720e28de9803d0a1a5ee91ea0dffa64736f6c63430007020033",
    "sourcePath": "/home/peter/a/blockchain/cactus/packages/cactus-example-supply-chain-backend/src/main/solidity/BookshelfRepository .sol",
    "compiler": {
        "name": "solc",
        "version": "0.7.2+commit.51b20bc0"
    },
    "functionHashes": {
        "getAllRecords()": "a7f9fe72",
        "insertRecord((string,uint8,string))": "4735f16c"
    },
    "gasEstimates": {
        "creation": {
            "codeDepositCost": "278200",
            "executionCost": "318",
            "totalCost": "278518"
        },
        "external": {
            "getAllRecords()": "infinite",
            "insertRecord((string,uint8,string))": "infinite"
        }
    }
}