{"abi":[{"type":"constructor","inputs":[{"name":"_bridge_address","type":"address","internalType":"address"}],"stateMutability":"nonpayable"},{"type":"function","name":"assign","inputs":[{"name":"tokenId","type":"string","internalType":"string"},{"name":"receiver_account","type":"address","internalType":"address"},{"name":"amount","type":"uint256","internalType":"uint256"}],"outputs":[{"name":"success","type":"bool","internalType":"bool"}],"stateMutability":"nonpayable"},{"type":"function","name":"bridge_address","inputs":[],"outputs":[{"name":"","type":"address","internalType":"address"}],"stateMutability":"view"},{"type":"function","name":"burn","inputs":[{"name":"tokenId","type":"string","internalType":"string"},{"name":"amount","type":"uint256","internalType":"uint256"}],"outputs":[{"name":"success","type":"bool","internalType":"bool"}],"stateMutability":"nonpayable"},{"type":"function","name":"getAllAssetsIDs","inputs":[],"outputs":[{"name":"","type":"string[]","internalType":"string[]"}],"stateMutability":"view"},{"type":"function","name":"getToken","inputs":[{"name":"tokenId","type":"string","internalType":"string"}],"outputs":[{"name":"token","type":"tuple","internalType":"struct Token","components":[{"name":"contractAddress","type":"address","internalType":"address"},{"name":"tokenType","type":"uint8","internalType":"enum TokenType"},{"name":"tokenId","type":"string","internalType":"string"},{"name":"owner","type":"address","internalType":"address"},{"name":"amount","type":"uint256","internalType":"uint256"}]}],"stateMutability":"view"},{"type":"function","name":"lock","inputs":[{"name":"tokenId","type":"string","internalType":"string"},{"name":"amount","type":"uint256","internalType":"uint256"}],"outputs":[{"name":"success","type":"bool","internalType":"bool"}],"stateMutability":"nonpayable"},{"type":"function","name":"mint","inputs":[{"name":"tokenId","type":"string","internalType":"string"},{"name":"amount","type":"uint256","internalType":"uint256"}],"outputs":[{"name":"success","type":"bool","internalType":"bool"}],"stateMutability":"nonpayable"},{"type":"function","name":"owner","inputs":[],"outputs":[{"name":"","type":"address","internalType":"address"}],"stateMutability":"view"},{"type":"function","name":"renounceOwnership","inputs":[],"outputs":[],"stateMutability":"nonpayable"},{"type":"function","name":"tokens","inputs":[{"name":"","type":"string","internalType":"string"}],"outputs":[{"name":"contractAddress","type":"address","internalType":"address"},{"name":"tokenType","type":"uint8","internalType":"enum TokenType"},{"name":"tokenId","type":"string","internalType":"string"},{"name":"owner","type":"address","internalType":"address"},{"name":"amount","type":"uint256","internalType":"uint256"}],"stateMutability":"view"},{"type":"function","name":"tokensInteractions","inputs":[{"name":"","type":"string","internalType":"string"},{"name":"","type":"uint8","internalType":"enum InteractionType"}],"outputs":[{"name":"interactionType","type":"uint8","internalType":"enum InteractionType"},{"name":"available","type":"bool","internalType":"bool"}],"stateMutability":"view"},{"type":"function","name":"transferOwnership","inputs":[{"name":"newOwner","type":"address","internalType":"address"}],"outputs":[],"stateMutability":"nonpayable"},{"type":"function","name":"unlock","inputs":[{"name":"tokenId","type":"string","internalType":"string"},{"name":"amount","type":"uint256","internalType":"uint256"}],"outputs":[{"name":"success","type":"bool","internalType":"bool"}],"stateMutability":"nonpayable"},{"type":"function","name":"unwrap","inputs":[{"name":"tokenId","type":"string","internalType":"string"}],"outputs":[{"name":"success","type":"bool","internalType":"bool"}],"stateMutability":"nonpayable"},{"type":"function","name":"wrap","inputs":[{"name":"contractAddress","type":"address","internalType":"address"},{"name":"tokenType","type":"uint8","internalType":"enum TokenType"},{"name":"tokenId","type":"string","internalType":"string"},{"name":"owner","type":"address","internalType":"address"},{"name":"interactions","type":"tuple[]","internalType":"struct InteractionSignature[]","components":[{"name":"interactionType","type":"uint8","internalType":"enum InteractionType"},{"name":"functionsSignature","type":"string[]","internalType":"string[]"},{"name":"variables","type":"uint8[][]","internalType":"enum VarType[][]"},{"name":"available","type":"bool","internalType":"bool"}]}],"outputs":[{"name":"wrapSuccess","type":"bool","internalType":"bool"}],"stateMutability":"nonpayable"},{"type":"function","name":"wrap","inputs":[{"name":"contractAddress","type":"address","internalType":"address"},{"name":"tokenType","type":"uint8","internalType":"enum TokenType"},{"name":"tokenId","type":"string","internalType":"string"},{"name":"owner","type":"address","internalType":"address"}],"outputs":[{"name":"wrapSuccess","type":"bool","internalType":"bool"}],"stateMutability":"nonpayable"},{"type":"event","name":"Assign","inputs":[{"name":"tokenId","type":"string","indexed":false,"internalType":"string"},{"name":"receiver_account","type":"address","indexed":false,"internalType":"address"},{"name":"amount","type":"uint256","indexed":false,"internalType":"uint256"}],"anonymous":false},{"type":"event","name":"Burn","inputs":[{"name":"tokenId","type":"string","indexed":false,"internalType":"string"},{"name":"amount","type":"uint256","indexed":false,"internalType":"uint256"}],"anonymous":false},{"type":"event","name":"Changed","inputs":[{"name":"id","type":"string","indexed":true,"internalType":"string"},{"name":"value","type":"bytes[]","indexed":false,"internalType":"bytes[]"}],"anonymous":false},{"type":"event","name":"Lock","inputs":[{"name":"tokenId","type":"string","indexed":false,"internalType":"string"},{"name":"amount","type":"uint256","indexed":false,"internalType":"uint256"}],"anonymous":false},{"type":"event","name":"Mint","inputs":[{"name":"tokenId","type":"string","indexed":false,"internalType":"string"},{"name":"amount","type":"uint256","indexed":false,"internalType":"uint256"}],"anonymous":false},{"type":"event","name":"OwnershipTransferred","inputs":[{"name":"previousOwner","type":"address","indexed":true,"internalType":"address"},{"name":"newOwner","type":"address","indexed":true,"internalType":"address"}],"anonymous":false},{"type":"event","name":"Unlock","inputs":[{"name":"tokenId","type":"string","indexed":false,"internalType":"string"},{"name":"amount","type":"uint256","indexed":false,"internalType":"uint256"}],"anonymous":false},{"type":"event","name":"Unwrap","inputs":[{"name":"tokenId","type":"string","indexed":false,"internalType":"string"}],"anonymous":false},{"type":"event","name":"Wrap","inputs":[{"name":"contractAddress","type":"address","indexed":false,"internalType":"address"},{"name":"tokenType","type":"uint8","indexed":false,"internalType":"enum TokenType"},{"name":"tokenId","type":"string","indexed":false,"internalType":"string"},{"name":"owner","type":"address","indexed":false,"internalType":"address"}],"anonymous":false},{"type":"error","name":"InsuficientAmountLocked","inputs":[{"name":"tokenId","type":"string","internalType":"string"},{"name":"amount","type":"uint256","internalType":"uint256"}]},{"type":"error","name":"OwnableInvalidOwner","inputs":[{"name":"owner","type":"address","internalType":"address"}]},{"type":"error","name":"OwnableUnauthorizedAccount","inputs":[{"name":"account","type":"address","internalType":"address"}]},{"type":"error","name":"TokenAlreadyWrapped","inputs":[{"name":"tokenId","type":"string","internalType":"string"}]},{"type":"error","name":"TokenLocked","inputs":[{"name":"tokenId","type":"string","internalType":"string"}]},{"type":"error","name":"TokenNotAvailable","inputs":[{"name":"tokenId","type":"string","internalType":"string"}]},{"type":"error","name":"TokenNotLocked","inputs":[{"name":"tokenId","type":"string","internalType":"string"}]},{"type":"error","name":"TokenNotUnlocked","inputs":[{"name":"tokenId","type":"string","internalType":"string"}]}],"bytecode":{"object":"0x60806040523480156200001157600080fd5b5060405162002c7738038062002c778339810160408190526200003491620000e6565b806001600160a01b0381166200006457604051631e4fbdf760e01b81526000600482015260240160405180910390fd5b6200006f8162000096565b50600480546001600160a01b0319166001600160a01b039290921691909117905562000118565b600080546001600160a01b038381166001600160a01b0319831681178455604051919092169283917f8be0079c531659141344cd1fd0a4f28419497f9722a3daafe3b4186f6b6457e09190a35050565b600060208284031215620000f957600080fd5b81516001600160a01b03811681146200011157600080fd5b9392505050565b612b4f80620001286000396000f3fe608060405234801561001057600080fd5b50600436106101005760003560e01c80638da5cb5b11610097578063d9cf884c11610066578063d9cf884c1461022f578063e1efb59614610242578063ea8f547f14610255578063f2fde38b146102ac57600080fd5b80638da5cb5b146101d8578063a1bc17c5146101e9578063b48272cc146101fc578063c1733f681461020f57600080fd5b80635137b8a7116100d35780635137b8a714610193578063623662ad146101a8578063715018a6146101bb57806372d4c33b146101c557600080fd5b806304c2320b14610105578063056b01ce146101325780631255c189146101555780634534ba1714610180575b600080fd5b610118610113366004611e13565b6102bf565b604051610129959493929190611ec1565b60405180910390f35b610145610140366004611f05565b61039f565b6040519015158152602001610129565b600454610168906001600160a01b031681565b6040516001600160a01b039091168152602001610129565b61014561018e366004611f60565b6104c0565b61019b610610565b6040516101299190611fb6565b6101456101b6366004612168565b6106e9565b6101c361098a565b005b6101456101d33660046123d2565b61099e565b6000546001600160a01b0316610168565b6101456101f7366004611e13565b610a7f565b61014561020a366004611f05565b610c6c565b61022261021d366004611e13565b610da0565b6040516101299190612440565b61014561023d366004611f05565b610ef3565b610145610250366004611f05565b611042565b61029e6102633660046124a5565b8151602081840181018051600282529282019482019490942091909352909152600090815260409020805460039091015460ff918216911682565b604051610129929190612502565b6101c36102ba36600461251f565b611139565b805160208183018101805160018083529383019290940191909120929052815490820180546001600160a01b03831693600160a01b90930460ff169291906103069061253a565b80601f01602080910402602001604051908101604052809291908181526020018280546103329061253a565b801561037f5780601f106103545761010080835404028352916020019161037f565b820191906000526020600020905b81548152906001019060200180831161036257829003601f168201915b50505050600283015460039093015491926001600160a01b031691905085565b60006103a9611177565b60006001600160a01b03166001846040516103c49190612574565b908152604051908190036020019020546001600160a01b031603610406578260405163c0bab25f60e01b81526004016103fd9190612590565b60405180910390fd5b610412836000846111a4565b6104575760405162461bcd60e51b81526020600482015260166024820152751b5a5b9d08185cdcd95d0818d85b1b0819985a5b195960521b60448201526064016103fd565b816001846040516104689190612574565b9081526020016040518091039020600301819055507f0a4e1e5035320483d096cf114513007c4eda3853a4dca806da2d9faec60470a683836040516104ae9291906125a3565b60405180910390a15060015b92915050565b60006104ca611177565b816001856040516104db9190612574565b908152602001604051809103902060030154101561053b5760405162461bcd60e51b815260206004820181905260248201527f61737369676e206173736574206173736574206973206e6f74206c6f636b656460448201526064016103fd565b61054884600284866111af565b6105945760405162461bcd60e51b815260206004820152601860248201527f61737369676e2061737365742063616c6c206661696c6564000000000000000060448201526064016103fd565b816001856040516105a59190612574565b908152602001604051809103902060030160008282546105c591906125db565b90915550506040517f0b3112bdbedc0251766a323a5c6ad4df77174bbc08bd61b944815ad9efe8d54c906105fe908690869086906125ee565b60405180910390a15060019392505050565b60606003805480602002602001604051908101604052809291908181526020016000905b828210156106e05783829060005260206000200180546106539061253a565b80601f016020809104026020016040519081016040528092919081815260200182805461067f9061253a565b80156106cc5780601f106106a1576101008083540402835291602001916106cc565b820191906000526020600020905b8154815290600101906020018083116106af57829003601f168201915b505050505081526020019060010190610634565b50505050905090565b60006106f3611177565b60006001600160a01b031660018560405161070e9190612574565b908152604051908190036020019020546001600160a01b03161461074757836040516319eac8d160e21b81526004016103fd9190612590565b61075184836114c8565b6002846040516107619190612574565b9081526040805160209281900383019020600360008181529190935220015460ff1615610805576107938460036115e8565b6108055760405162461bcd60e51b815260206004820152603c60248201527f436f6e747261637420646f6573206e6f742068617665207065726d697373696f60448201527f6e20746f20696e74657261637420776974682074686520746f6b656e0000000060648201526084016103fd565b6040518060a00160405280876001600160a01b0316815260200186600381111561083157610831611e47565b8152602001858152602001846001600160a01b0316815260200160008152506001856040516108609190612574565b908152604051908190036020908101909120825181546001600160a01b039091166001600160a01b031982168117835592840151919283916001600160a81b03191617600160a01b8360038111156108ba576108ba611e47565b0217905550604082015160018201906108d3908261266a565b5060608201516002820180546001600160a01b0319166001600160a01b0390921691909117905560809091015160039182015580546001810182556000919091527fc2575a0e9e593c00f959f8c92f12db2869c3395a3b0502d05e2516446f71f85b01610940858261266a565b507ffc4880465dc3977b851975c93dcde086945a51118c42a660991dce4cab2b0966868686866040516109769493929190612729565b60405180910390a150600195945050505050565b610992611177565b61099c60006115fe565b565b60006109a8611177565b3063623662ad868686866000604051908082528060200260200182016040528015610a1057816020015b6109fd6040805160808101909152806000815260606020820181905260408201819052600091015290565b8152602001906001900390816109d25790505b506040518663ffffffff1660e01b8152600401610a319594939291906127f7565b6020604051808303816000875af1158015610a50573d6000803e3d6000fd5b505050506040513d601f19601f82011682018060405250810190610a749190612925565b90505b949350505050565b6000610a89611177565b60006001600160a01b0316600183604051610aa49190612574565b908152604051908190036020019020546001600160a01b031603610add578160405163c0bab25f60e01b81526004016103fd9190612590565b6000600183604051610aef9190612574565b9081526020016040518091039020600301541115610b225781604051635be9608560e11b81526004016103fd9190612590565b610bd4600183604051610b359190612574565b90815260200160405180910390206001018054610b519061253a565b80601f0160208091040260200160405190810160405280929190818152602001828054610b7d9061253a565b8015610bca5780601f10610b9f57610100808354040283529160200191610bca565b820191906000526020600020905b815481529060010190602001808311610bad57829003601f168201915b505050505061164e565b600182604051610be49190612574565b90815260405190819003602001902080546001600160a81b03191681556000610c106001830182611b29565b506002810180546001600160a01b031916905560006003909101556040517f3855d31914452a5e7361730662e60834555d7cb26d380140894d85fd0d13b85490610c5b908490612590565b60405180910390a15060015b919050565b6000610c76611177565b81600184604051610c879190612574565b9081526020016040518091039020600301541015610ce75760405162461bcd60e51b815260206004820152601e60248201527f6275726e206173736574206173736574206973206e6f74206c6f636b6564000060448201526064016103fd565b610cf3836001846111a4565b610d385760405162461bcd60e51b8152602060048201526016602482015275189d5c9b88185cdcd95d0818d85b1b0819985a5b195960521b60448201526064016103fd565b81600184604051610d499190612574565b90815260200160405180910390206003016000828254610d6991906125db565b90915550506040517fa0237080cf48d9e1fbb9ef1f82e33b11170d047b2b540a73b457d0916d53ee99906104ae90859085906125a3565b610dd26040805160a0810190915260008082526020820190815260606020820181905260006040830181905291015290565b600182604051610de29190612574565b908152604080516020928190038301812060a0820190925281546001600160a01b03811682529092830190600160a01b900460ff166003811115610e2857610e28611e47565b6003811115610e3957610e39611e47565b8152602001600182018054610e4d9061253a565b80601f0160208091040260200160405190810160405280929190818152602001828054610e799061253a565b8015610ec65780601f10610e9b57610100808354040283529160200191610ec6565b820191906000526020600020905b815481529060010190602001808311610ea957829003601f168201915b505050918352505060028201546001600160a01b0316602082015260039091015460409091015292915050565b6000610efd611177565b60006001600160a01b0316600184604051610f189190612574565b908152604051908190036020019020546001600160a01b031603610f51578260405163c0bab25f60e01b81526004016103fd9190612590565b81600184604051610f629190612574565b9081526020016040518091039020600301541015610f9757828260405163076abcf360e51b81526004016103fd9291906125a3565b6000610fa5846005856111a4565b905080156110275782600185604051610fbe9190612574565b90815260200160405180910390206003016000828254610fde91906125db565b90915550506040517f7b3c894115251262b174b7aeab24a57e00bc2e8853d1ef2f57a217edaa69c06e9061101590869086906125a3565b60405180910390a160019150506104ba565b836040516358300fe760e01b81526004016103fd9190612590565b600061104c611177565b60006001600160a01b03166001846040516110679190612574565b908152604051908190036020019020546001600160a01b0316036110a0578260405163c0bab25f60e01b81526004016103fd9190612590565b60006110ae846004856111a4565b9050801561111e57826001856040516110c79190612574565b908152602001604051809103902060030160008282546110e79190612942565b90915550506040517fc480ef4e831b2ca5eb0b2f95c6564d9a56af5b3fe2383393008e3f1708dc97979061101590869086906125a3565b8360405163412204b560e11b81526004016103fd9190612590565b611141611177565b6001600160a01b03811661116b57604051631e4fbdf760e01b8152600060048201526024016103fd565b611174816115fe565b50565b6000546001600160a01b0316331461099c5760405163118cdaa760e01b81523360048201526024016103fd565b6000610a7784848460005b60006002856040516111c19190612574565b908152602001604051809103902060008560058111156111e3576111e3611e47565b60058111156111f4576111f4611e47565b815260208101919091526040016000206003015460ff1661121757506000610a77565b60005b60028660405161122a9190612574565b9081526020016040518091039020600086600581111561124c5761124c611e47565b600581111561125d5761125d611e47565b81526020810191909152604001600020600101548110156114bc57600060028760405161128a9190612574565b908152602001604051809103902060008760058111156112ac576112ac611e47565b60058111156112bd576112bd611e47565b815260200190815260200160002060010182815481106112df576112df612955565b906000526020600020016040516020016112f9919061296b565b60405160208183030381529060405280519060200120905060006114158261141060028b60405161132a9190612574565b908152602001604051809103902060008b600581111561134c5761134c611e47565b600581111561135d5761135d611e47565b8152602001908152602001600020600201868154811061137f5761137f612955565b9060005260206000200180548060200260200160405190810160405280929190818152602001828054801561140357602002820191906000526020600020906000905b82829054906101000a900460ff1660068111156113e1576113e1611e47565b8152602060019283018181049485019490930390920291018084116113c25790505b50505050508b898b6117ac565b611a7b565b905060006001896040516114299190612574565b908152604051908190036020018120546001600160a01b03169061144e908490612574565b6000604051808303816000865af19150503d806000811461148b576040519150601f19603f3d011682016040523d82523d6000602084013e611490565b606091505b50509050806114a6576000945050505050610a77565b50505080806114b4906129e1565b91505061121a565b50600195945050505050565b60005b81518110156115e3578181815181106114e6576114e6612955565b60200260200101516002846040516114fe9190612574565b9081526020016040518091039020600084848151811061152057611520612955565b602002602001015160000151600581111561153d5761153d611e47565b600581111561154e5761154e611e47565b8152602081019190915260400160002081518154829060ff1916600183600581111561157c5761157c611e47565b021790555060208281015180516115999260018501920190611b63565b50604082015180516115b5916002840191602090910190611bb9565b50606091909101516003909101805460ff1916911515919091179055806115db816129e1565b9150506114cb565b505050565b60006115f783836000806111af565b9392505050565b600080546001600160a01b038381166001600160a01b0319831681178455604051919092169283917f8be0079c531659141344cd1fd0a4f28419497f9722a3daafe3b4186f6b6457e09190a35050565b60005b6003548110156117a85761170a6003828154811061167157611671612955565b9060005260206000200180546116869061253a565b80601f01602080910402602001604051908101604052809291908181526020018280546116b29061253a565b80156116ff5780601f106116d4576101008083540402835291602001916116ff565b820191906000526020600020905b8154815290600101906020018083116116e257829003601f168201915b505050505083611b04565b15611796576003805461171f906001906125db565b8154811061172f5761172f612955565b906000526020600020016003828154811061174c5761174c612955565b90600052602060002001908161176291906129fa565b50600380548061177457611774612ad4565b6001900381819060005260206000200160006117909190611b29565b90555050565b806117a0816129e1565b915050611651565b5050565b6060600085516001600160401b038111156117c9576117c9611d36565b6040519080825280602002602001820160405280156117fc57816020015b60608152602001906001900390816117e75790505b50905060005b8651811015611a7157600587828151811061181f5761181f612955565b6020026020010151600681111561183857611838611e47565b0361187a5760408051306020820152015b60405160208183030381529060405282828151811061186a5761186a612955565b6020026020010181905250611a5f565b600287828151811061188e5761188e612955565b602002602001015160068111156118a7576118a7611e47565b036118bd57856040516020016118499190612590565b60048782815181106118d1576118d1612955565b602002602001015160068111156118ea576118ea611e47565b0361190057604080516020810186905201611849565b600387828151811061191457611914612955565b6020026020010151600681111561192d5761192d611e47565b0361196b576001866040516119429190612574565b908152604080519182900360209081018320600201546001600160a01b03169083015201611849565b600087828151811061197f5761197f612955565b6020026020010151600681111561199857611998611e47565b036119d3576001866040516119ad9190612574565b908152604080519182900360209081018320546001600160a01b03169083015201611849565b60068782815181106119e7576119e7612955565b60200260200101516006811115611a0057611a00611e47565b03611a1e57604080516001600160a01b038716602082015201611849565b60405162461bcd60e51b815260206004820152601660248201527515985c9a58589b19481b9bdd081cdd5c1c1bdc9d195960521b60448201526064016103fd565b80611a69816129e1565b915050611802565b5095945050505050565b604080516001600160e01b03198416602082015281516004818303018152602490910190915260005b8251811015611afd5781838281518110611ac057611ac0612955565b6020026020010151604051602001611ad9929190612aea565b60405160208183030381529060405291508080611af5906129e1565b915050611aa4565b5092915050565b6000815183511480156115f75750508051602091820120825192909101919091201490565b508054611b359061253a565b6000825580601f10611b45575050565b601f0160209004906000526020600020908101906111749190611c12565b828054828255906000526020600020908101928215611ba9579160200282015b82811115611ba95782518290611b99908261266a565b5091602001919060010190611b83565b50611bb5929150611c27565b5090565b828054828255906000526020600020908101928215611c06579160200282015b82811115611c065782518051611bf6918491602090910190611c44565b5091602001919060010190611bd9565b50611bb5929150611cf4565b5b80821115611bb55760008155600101611c13565b80821115611bb5576000611c3b8282611b29565b50600101611c27565b82805482825590600052602060002090601f01602090048101928215611ce85791602002820160005b83821115611cb957835183826101000a81548160ff02191690836006811115611c9857611c98611e47565b02179055509260200192600101602081600001049283019260010302611c6d565b8015611ce65782816101000a81549060ff0219169055600101602081600001049283019260010302611cb9565b505b50611bb5929150611c12565b80821115611bb5576000611d088282611d11565b50600101611cf4565b50805460008255601f0160209004906000526020600020908101906111749190611c12565b634e487b7160e01b600052604160045260246000fd5b604051608081016001600160401b0381118282101715611d6e57611d6e611d36565b60405290565b604051601f8201601f191681016001600160401b0381118282101715611d9c57611d9c611d36565b604052919050565b600082601f830112611db557600080fd5b81356001600160401b03811115611dce57611dce611d36565b611de1601f8201601f1916602001611d74565b818152846020838601011115611df657600080fd5b816020850160208301376000918101602001919091529392505050565b600060208284031215611e2557600080fd5b81356001600160401b03811115611e3b57600080fd5b610a7784828501611da4565b634e487b7160e01b600052602160045260246000fd5b60048110611e6d57611e6d611e47565b9052565b60005b83811015611e8c578181015183820152602001611e74565b50506000910152565b60008151808452611ead816020860160208601611e71565b601f01601f19169290920160200192915050565b6001600160a01b038681168252600090611ede6020840188611e5d565b60a06040840152611ef260a0840187611e95565b9416606083015250608001529392505050565b60008060408385031215611f1857600080fd5b82356001600160401b03811115611f2e57600080fd5b611f3a85828601611da4565b95602094909401359450505050565b80356001600160a01b0381168114610c6757600080fd5b600080600060608486031215611f7557600080fd5b83356001600160401b03811115611f8b57600080fd5b611f9786828701611da4565b935050611fa660208501611f49565b9150604084013590509250925092565b6000602080830181845280855180835260408601915060408160051b870101925083870160005b8281101561200b57603f19888603018452611ff9858351611e95565b94509285019290850190600101611fdd565b5092979650505050505050565b803560048110610c6757600080fd5b60006001600160401b0382111561204057612040611d36565b5060051b60200190565b803560068110610c6757600080fd5b600082601f83011261206a57600080fd5b8135602061207f61207a83612027565b611d74565b828152600592831b850182019282820191908785111561209e57600080fd5b8387015b858110156121425780356001600160401b038111156120c15760008081fd5b8801603f81018a136120d35760008081fd5b8581013560406120e561207a83612027565b82815291851b8301810191888101908d8411156121025760008081fd5b938201935b838510156121315784359250600783106121215760008081fd5b8282529389019390890190612107565b8852505050938501935084016120a2565b5090979650505050505050565b801515811461117457600080fd5b8035610c678161214f565b600080600080600060a0868803121561218057600080fd5b61218986611f49565b945061219760208701612018565b93506001600160401b03604087013511156121b157600080fd5b6121c18760408801358801611da4565b92506121cf60608701611f49565b91506001600160401b03608087013511156121e957600080fd5b86601f6080880135880101126121fe57600080fd5b61221161207a6080880135880135612027565b6080870135870180358083526020808401939260059290921b9091010189101561223a57600080fd5b602060808901358901015b60808901358901803560051b016020018110156123c2576001600160401b038135111561227157600080fd5b803560808a01358a01016080601f19828d0301121561228f57600080fd5b612297611d4c565b6122a36020830161204a565b81526001600160401b03604083013511156122bd57600080fd5b8b603f6040840135840101126122d257600080fd5b6122e861207a6020604085013585010135612027565b6020604084810135850182810135808552928401939260051b01018e101561230f57600080fd5b6040808501358501015b6040858101358601602081013560051b010181101561236b576001600160401b038135111561234757600080fd5b61235d8f60408335604089013589010101611da4565b835260209283019201612319565b506020830152506001600160401b036060830135111561238a57600080fd5b61239d8c60206060850135850101612059565b60408201526123ae6080830161215d565b606082015284525060209283019201612245565b5080925050509295509295909350565b600080600080608085870312156123e857600080fd5b6123f185611f49565b93506123ff60208601612018565b925060408501356001600160401b0381111561241a57600080fd5b61242687828801611da4565b92505061243560608601611f49565b905092959194509250565b60208152600060018060a01b0380845116602084015260208401516124686040850182611e5d565b50604084015160a0606085015261248260c0850182611e95565b9050816060860151166080850152608085015160a0850152809250505092915050565b600080604083850312156124b857600080fd5b82356001600160401b038111156124ce57600080fd5b6124da85828601611da4565b9250506124e96020840161204a565b90509250929050565b60068110611e6d57611e6d611e47565b6040810161251082856124f2565b82151560208301529392505050565b60006020828403121561253157600080fd5b6115f782611f49565b600181811c9082168061254e57607f821691505b60208210810361256e57634e487b7160e01b600052602260045260246000fd5b50919050565b60008251612586818460208701611e71565b9190910192915050565b6020815260006115f76020830184611e95565b6040815260006125b66040830185611e95565b90508260208301529392505050565b634e487b7160e01b600052601160045260246000fd5b818103818111156104ba576104ba6125c5565b6060815260006126016060830186611e95565b6001600160a01b039490941660208301525060400152919050565b601f8211156115e357600081815260208120601f850160051c810160208610156126435750805b601f850160051c820191505b818110156126625782815560010161264f565b505050505050565b81516001600160401b0381111561268357612683611d36565b61269781612691845461253a565b8461261c565b602080601f8311600181146126cc57600084156126b45750858301515b600019600386901b1c1916600185901b178555612662565b600085815260208120601f198616915b828110156126fb578886015182559484019460019091019084016126dc565b50858210156127195787850151600019600388901b60f8161c191681555b5050505050600190811b01905550565b6001600160a01b0385811682526000906127466020840187611e5d565b6080604084015261275a6080840186611e95565b915080841660608401525095945050505050565b6000815180845260208085019450848260051b86018286016000805b868110156127e9578484038a52825180518086529087019087860190845b818110156127d4578351600781106127c2576127c2611e47565b835292890192918901916001016127a8565b50509a87019a9450509185019160010161278a565b509198975050505050505050565b6001600160a01b03868116825260009060a09060206128188186018a611e5d565b6040838187015261282b8487018a611e95565b6060848a168189015260809450878203858901528189518084528584019150858160051b850101868c0160005b8381101561290d57601f1987840301855281518a84016128798583516124f2565b818b0151858c018d9052805191829052600582901b86018e0191908c01908e87019060005b818110156128cc57609f198986030183526128ba858551611e95565b9450928e0192918e019160010161289e565b50505050898201518582038b8701526128e5828261276e565b92890151801515878b01529291506128fa9050565b958a019593505090880190600101612858565b50508099505050505050505050509695505050505050565b60006020828403121561293757600080fd5b81516115f78161214f565b808201808211156104ba576104ba6125c5565b634e487b7160e01b600052603260045260246000fd5b60008083546129798161253a565b6001828116801561299157600181146129a6576129d5565b60ff19841687528215158302870194506129d5565b8760005260208060002060005b858110156129cc5781548a8201529084019082016129b3565b50505082870194505b50929695505050505050565b6000600182016129f3576129f36125c5565b5060010190565b818103612a05575050565b612a0f825461253a565b6001600160401b03811115612a2657612a26611d36565b612a3481612691845461253a565b6000601f821160018114612a685760008315612a505750848201545b600019600385901b1c1916600184901b178455612acd565b600085815260209020601f19841690600086815260209020845b83811015612aa25782860154825560019586019590910190602001612a82565b5085831015612ac05781850154600019600388901b60f8161c191681555b50505060018360011b0184555b5050505050565b634e487b7160e01b600052603160045260246000fd5b60008351612afc818460208801611e71565b835190830190612b10818360208801611e71565b0194935050505056fea2646970667358221220ee5600beb362fdbcb7aeed8ce5f8afd24c2b55a01a7249072f61a120461981db64736f6c63430008140033","linkReferences":{}},"methodIdentifiers":{"assign(string,address,uint256)":"4534ba17","bridge_address()":"1255c189","burn(string,uint256)":"b48272cc","getAllAssetsIDs()":"5137b8a7","getToken(string)":"c1733f68","lock(string,uint256)":"e1efb596","mint(string,uint256)":"056b01ce","owner()":"8da5cb5b","renounceOwnership()":"715018a6","tokens(string)":"04c2320b","tokensInteractions(string,uint8)":"ea8f547f","transferOwnership(address)":"f2fde38b","unlock(string,uint256)":"d9cf884c","unwrap(string)":"a1bc17c5","wrap(address,uint8,string,address)":"72d4c33b","wrap(address,uint8,string,address,(uint8,string[],uint8[][],bool)[])":"623662ad"},"id":16}