{
  "contractName": "DemoHelpers",
  "abi": [
    {
      "inputs": [
        {
          "internalType": "string",
          "name": "_key",
          "type": "string"
        }
      ],
      "name": "getHash",
      "outputs": [
        {
          "internalType": "bytes32",
          "name": "result",
          "type": "bytes32"
        }
      ],
      "stateMutability": "pure",
      "type": "function"
    },
    {
      "inputs": [],
      "name": "getTimestamp",
      "outputs": [
        {
          "internalType": "uint256",
          "name": "result",
          "type": "uint256"
        }
      ],
      "stateMutability": "view",
      "type": "function"
    },
    {
      "inputs": [
        {
          "internalType": "address",
          "name": "sender",
          "type": "address"
        },
        {
          "internalType": "address",
          "name": "receiver",
          "type": "address"
        },
        {
          "internalType": "uint256",
          "name": "inputAmount",
          "type": "uint256"
        },
        {
          "internalType": "bytes32",
          "name": "hashLock",
          "type": "bytes32"
        },
        {
          "internalType": "uint256",
          "name": "expiration",
          "type": "uint256"
        },
        {
          "internalType": "address",
          "name": "tokenAddress",
          "type": "address"
        }
      ],
      "name": "getTxId",
      "outputs": [
        {
          "internalType": "bytes32",
          "name": "result",
          "type": "bytes32"
        }
      ],
      "stateMutability": "pure",
      "type": "function"
    }
  ],
  "bytecode": "608060405234801561001057600080fd5b506102ce806100206000396000f3fe608060405234801561001057600080fd5b50600436106100415760003560e01c8063188ec356146100465780635b6beeb91461005a578063a9a352091461006d575b600080fd5b425b60405190815260200160405180910390f35b61004861006836600461011e565b6100d8565b61004861007b3660046101eb565b604080516001600160a01b03978816602080830191909152968816818301526060810195909552608085019390935260a084019190915290931660c0808301919091528351808303909101815260e0909101909252815191012090565b6000816040516020016100eb919061024a565b604051602081830303815290604052805190602001209050919050565b634e487b7160e01b600052604160045260246000fd5b60006020828403121561013057600080fd5b813567ffffffffffffffff8082111561014857600080fd5b818401915084601f83011261015c57600080fd5b81358181111561016e5761016e610108565b604051601f8201601f19908116603f0116810190838211818310171561019657610196610108565b816040528281528760208487010111156101af57600080fd5b826020860160208301376000928101602001929092525095945050505050565b80356001600160a01b03811681146101e657600080fd5b919050565b60008060008060008060c0878903121561020457600080fd5b61020d876101cf565b955061021b602088016101cf565b945060408701359350606087013592506080870135915061023e60a088016101cf565b90509295509295509295565b600060208083528351808285015260005b818110156102775785810183015185820160400152820161025b565b506000604082860101526040601f19601f830116850101925050509291505056fea2646970667358221220a3091693ddb2ca9ebb38baa348797a852c936d5e2b19c209eba45b1f73ba8ba664736f6c63430008130033",
  "sourcePath": "/home/peter/a/cacti-2/packages/cactus-test-plugin-htlc-eth-besu-erc20/src/test/solidity/token-erc20-contract/DemoHelpers.sol",
  "compiler": {
    "name": "solc",
    "version": "0.8.19+commit.7dd6d404"
  },
  "functionHashes": {
    "getHash(string)": "5b6beeb9",
    "getTimestamp()": "188ec356",
    "getTxId(address,address,uint256,bytes32,uint256,address)": "a9a35209"
  },
  "gasEstimates": {
    "creation": {
      "codeDepositCost": "143600",
      "executionCost": "190",
      "totalCost": "143790"
    },
    "external": {
      "getHash(string)": "infinite",
      "getTimestamp()": "146",
      "getTxId(address,address,uint256,bytes32,uint256,address)": "infinite"
    }
  }
}