{
  "contractName": "DemoHelpers",
  "abi": [
    {
      "inputs": [
        {
          "internalType": "string",
          "name": "_key",
          "type": "string"
        }
      ],
      "name": "getHash",
      "outputs": [
        {
          "internalType": "bytes32",
          "name": "result",
          "type": "bytes32"
        }
      ],
      "stateMutability": "pure",
      "type": "function"
    },
    {
      "inputs": [],
      "name": "getTimestamp",
      "outputs": [
        {
          "internalType": "uint256",
          "name": "result",
          "type": "uint256"
        }
      ],
      "stateMutability": "view",
      "type": "function"
    },
    {
      "inputs": [
        {
          "internalType": "address",
          "name": "sender",
          "type": "address"
        },
        {
          "internalType": "address",
          "name": "receiver",
          "type": "address"
        },
        {
          "internalType": "uint256",
          "name": "inputAmount",
          "type": "uint256"
        },
        {
          "internalType": "bytes32",
          "name": "hashLock",
          "type": "bytes32"
        },
        {
          "internalType": "uint256",
          "name": "expiration",
          "type": "uint256"
        },
        {
          "internalType": "address",
          "name": "tokenAddress",
          "type": "address"
        }
      ],
      "name": "getTxId",
      "outputs": [
        {
          "internalType": "bytes32",
          "name": "result",
          "type": "bytes32"
        }
      ],
      "stateMutability": "pure",
      "type": "function"
    }
  ],
  "bytecode": "608060405234801561001057600080fd5b506105eb806100206000396000f3fe608060405234801561001057600080fd5b50600436106100415760003560e01c8063188ec356146100465780635b6beeb914610064578063a9a3520914610094575b600080fd5b61004e6100c4565b60405161005b91906103e2565b60405180910390f35b61007e6004803603810190610079919061026b565b6100cc565b60405161008b91906103c7565b60405180910390f35b6100ae60048036038101906100a991906101e2565b6100fc565b6040516100bb91906103c7565b60405180910390f35b600042905090565b6000816040516020016100df91906103b0565b604051602081830303815290604052805190602001209050919050565b600086868686868660405160200161011996959493929190610340565b6040516020818303038152906040528051906020012090509695505050505050565b600061014e6101498461042e565b6103fd565b90508281526020810184848401111561016657600080fd5b6101718482856104ba565b509392505050565b60008135905061018881610570565b92915050565b60008135905061019d81610587565b92915050565b600082601f8301126101b457600080fd5b81356101c484826020860161013b565b91505092915050565b6000813590506101dc8161059e565b92915050565b60008060008060008060c087890312156101fb57600080fd5b600061020989828a01610179565b965050602061021a89828a01610179565b955050604061022b89828a016101cd565b945050606061023c89828a0161018e565b935050608061024d89828a016101cd565b92505060a061025e89828a01610179565b9150509295509295509295565b60006020828403121561027d57600080fd5b600082013567ffffffffffffffff81111561029757600080fd5b6102a3848285016101a3565b91505092915050565b6102bd6102b882610474565b6104fc565b82525050565b6102cc81610486565b82525050565b6102e36102de82610486565b61050e565b82525050565b60006102f48261045e565b6102fe8185610469565b935061030e8185602086016104c9565b80840191505092915050565b610323816104b0565b82525050565b61033a610335826104b0565b61052a565b82525050565b600061034c82896102ac565b60148201915061035c82886102ac565b60148201915061036c8287610329565b60208201915061037c82866102d2565b60208201915061038c8285610329565b60208201915061039c82846102ac565b601482019150819050979650505050505050565b60006103bc82846102e9565b915081905092915050565b60006020820190506103dc60008301846102c3565b92915050565b60006020820190506103f7600083018461031a565b92915050565b6000604051905081810181811067ffffffffffffffff8211171561042457610423610534565b5b8060405250919050565b600067ffffffffffffffff82111561044957610448610534565b5b601f19601f8301169050602081019050919050565b600081519050919050565b600081905092915050565b600061047f82610490565b9050919050565b6000819050919050565b600073ffffffffffffffffffffffffffffffffffffffff82169050919050565b6000819050919050565b82818337600083830152505050565b60005b838110156104e75780820151818401526020810190506104cc565b838111156104f6576000848401525b50505050565b600061050782610518565b9050919050565b6000819050919050565b600061052382610563565b9050919050565b6000819050919050565b7f4e487b7100000000000000000000000000000000000000000000000000000000600052604160045260246000fd5b60008160601b9050919050565b61057981610474565b811461058457600080fd5b50565b61059081610486565b811461059b57600080fd5b50565b6105a7816104b0565b81146105b257600080fd5b5056fea2646970667358221220685687694501ec5e3555b5bec489328469d379c8340913a5d0b84722b73577a664736f6c63430008000033",
  "immutableReferences": {},
  "source": "pragma solidity ^0.8.0;\npragma experimental ABIEncoderV2;\n\ncontract DemoHelpers {\n\n   \n    function getHash(string memory _key) public pure returns (bytes32 result) {\n       return keccak256(abi.encodePacked(_key));\n    }\n\n    function getTimestamp() public view returns (uint256 result) {\n        return block.timestamp;\n    }\n\n    function getTxId(address sender, address receiver, uint256 inputAmount, bytes32 hashLock, uint256 expiration, address tokenAddress) public pure returns (bytes32 result) {\n        return keccak256(\n            abi.encodePacked(sender, receiver, inputAmount, hashLock, expiration, tokenAddress)\n        );\n    }\n}",
  "sourcePath": "/Users/jordigironamezcua/pruebas/contracts/DemoHelpers.sol",
  "compiler": {
    "name": "solc",
    "version": "0.8.0+commit.c7dfd78e.Emscripten.clang"
  },
  "schemaVersion": "3.3.3",
  "updatedAt": "2021-02-09T16:31:15.566Z",
  "devdoc": {
    "kind": "dev",
    "methods": {},
    "version": 1
  },
  "userdoc": {
    "kind": "user",
    "methods": {},
    "version": 1
  }
}