{
  "contractName": "HashTimeLock",
  "abi": [
    {
      "anonymous": false,
      "inputs": [
        {
          "indexed": false,
          "internalType": "uint256",
          "name": "inputAmount",
          "type": "uint256"
        },
        {
          "indexed": false,
          "internalType": "uint256",
          "name": "outputAmount",
          "type": "uint256"
        },
        {
          "indexed": false,
          "internalType": "uint256",
          "name": "expiration",
          "type": "uint256"
        },
        {
          "indexed": true,
          "internalType": "bytes32",
          "name": "id",
          "type": "bytes32"
        },
        {
          "indexed": false,
          "internalType": "bytes32",
          "name": "hashLock",
          "type": "bytes32"
        },
        {
          "indexed": true,
          "internalType": "address",
          "name": "sender",
          "type": "address"
        },
        {
          "indexed": true,
          "internalType": "address",
          "name": "receiver",
          "type": "address"
        },
        {
          "indexed": false,
          "internalType": "string",
          "name": "outputNetwork",
          "type": "string"
        },
        {
          "indexed": false,
          "internalType": "string",
          "name": "outputAddress",
          "type": "string"
        }
      ],
      "name": "NewContract",
      "type": "event"
    },
    {
      "anonymous": false,
      "inputs": [
        {
          "indexed": true,
          "internalType": "bytes32",
          "name": "id",
          "type": "bytes32"
        },
        {
          "indexed": false,
          "internalType": "bytes32",
          "name": "hashLock",
          "type": "bytes32"
        },
        {
          "indexed": true,
          "internalType": "address",
          "name": "sender",
          "type": "address"
        },
        {
          "indexed": true,
          "internalType": "address",
          "name": "receiver",
          "type": "address"
        }
      ],
      "name": "Refund",
      "type": "event"
    },
    {
      "anonymous": false,
      "inputs": [
        {
          "indexed": true,
          "internalType": "bytes32",
          "name": "id",
          "type": "bytes32"
        },
        {
          "indexed": false,
          "internalType": "bytes32",
          "name": "secret",
          "type": "bytes32"
        },
        {
          "indexed": false,
          "internalType": "bytes32",
          "name": "hashLock",
          "type": "bytes32"
        },
        {
          "indexed": true,
          "internalType": "address",
          "name": "sender",
          "type": "address"
        },
        {
          "indexed": true,
          "internalType": "address",
          "name": "receiver",
          "type": "address"
        }
      ],
      "name": "Withdraw",
      "type": "event"
    },
    {
      "constant": true,
      "inputs": [
        {
          "internalType": "bytes32",
          "name": "",
          "type": "bytes32"
        }
      ],
      "name": "contracts",
      "outputs": [
        {
          "internalType": "uint256",
          "name": "inputAmount",
          "type": "uint256"
        },
        {
          "internalType": "uint256",
          "name": "outputAmount",
          "type": "uint256"
        },
        {
          "internalType": "uint256",
          "name": "expiration",
          "type": "uint256"
        },
        {
          "internalType": "bytes32",
          "name": "hashLock",
          "type": "bytes32"
        },
        {
          "internalType": "enum HashTimeLock.SwapStatus",
          "name": "status",
          "type": "uint8"
        },
        {
          "internalType": "address payable",
          "name": "sender",
          "type": "address"
        },
        {
          "internalType": "address payable",
          "name": "receiver",
          "type": "address"
        },
        {
          "internalType": "string",
          "name": "outputNetwork",
          "type": "string"
        },
        {
          "internalType": "string",
          "name": "outputAddress",
          "type": "string"
        }
      ],
      "payable": false,
      "stateMutability": "view",
      "type": "function"
    },
    {
      "constant": false,
      "inputs": [
        {
          "internalType": "uint256",
          "name": "outputAmount",
          "type": "uint256"
        },
        {
          "internalType": "uint256",
          "name": "expiration",
          "type": "uint256"
        },
        {
          "internalType": "bytes32",
          "name": "hashLock",
          "type": "bytes32"
        },
        {
          "internalType": "address payable",
          "name": "receiver",
          "type": "address"
        },
        {
          "internalType": "string",
          "name": "outputNetwork",
          "type": "string"
        },
        {
          "internalType": "string",
          "name": "outputAddress",
          "type": "string"
        }
      ],
      "name": "newContract",
      "outputs": [],
      "payable": true,
      "stateMutability": "payable",
      "type": "function"
    },
    {
      "constant": false,
      "inputs": [
        {
          "internalType": "bytes32",
          "name": "id",
          "type": "bytes32"
        },
        {
          "internalType": "bytes32",
          "name": "secret",
          "type": "bytes32"
        }
      ],
      "name": "withdraw",
      "outputs": [
        {
          "internalType": "bool",
          "name": "",
          "type": "bool"
        }
      ],
      "payable": false,
      "stateMutability": "nonpayable",
      "type": "function"
    },
    {
      "constant": false,
      "inputs": [
        {
          "internalType": "bytes32",
          "name": "id",
          "type": "bytes32"
        }
      ],
      "name": "refund",
      "outputs": [
        {
          "internalType": "bool",
          "name": "",
          "type": "bool"
        }
      ],
      "payable": false,
      "stateMutability": "nonpayable",
      "type": "function"
    },
    {
      "constant": true,
      "inputs": [
        {
          "internalType": "bytes32",
          "name": "id",
          "type": "bytes32"
        }
      ],
      "name": "getContract",
      "outputs": [
        {
          "components": [
            {
              "internalType": "uint256",
              "name": "inputAmount",
              "type": "uint256"
            },
            {
              "internalType": "uint256",
              "name": "outputAmount",
              "type": "uint256"
            },
            {
              "internalType": "uint256",
              "name": "expiration",
              "type": "uint256"
            },
            {
              "internalType": "bytes32",
              "name": "hashLock",
              "type": "bytes32"
            },
            {
              "internalType": "enum HashTimeLock.SwapStatus",
              "name": "status",
              "type": "uint8"
            },
            {
              "internalType": "address payable",
              "name": "sender",
              "type": "address"
            },
            {
              "internalType": "address payable",
              "name": "receiver",
              "type": "address"
            },
            {
              "internalType": "string",
              "name": "outputNetwork",
              "type": "string"
            },
            {
              "internalType": "string",
              "name": "outputAddress",
              "type": "string"
            }
          ],
          "internalType": "struct HashTimeLock.LockContract",
          "name": "",
          "type": "tuple"
        }
      ],
      "payable": false,
      "stateMutability": "view",
      "type": "function"
    },
    {
      "constant": true,
      "inputs": [
        {
          "internalType": "bytes32",
          "name": "id",
          "type": "bytes32"
        }
      ],
      "name": "contractExists",
      "outputs": [
        {
          "internalType": "bool",
          "name": "",
          "type": "bool"
        }
      ],
      "payable": false,
      "stateMutability": "view",
      "type": "function"
    },
    {
      "constant": true,
      "inputs": [
        {
          "internalType": "bytes32[]",
          "name": "ids",
          "type": "bytes32[]"
        }
      ],
      "name": "getStatus",
      "outputs": [
        {
          "internalType": "uint8[]",
          "name": "",
          "type": "uint8[]"
        }
      ],
      "payable": false,
      "stateMutability": "view",
      "type": "function"
    },
    {
      "constant": true,
      "inputs": [
        {
          "internalType": "bytes32",
          "name": "id",
          "type": "bytes32"
        }
      ],
      "name": "getStatus",
      "outputs": [
        {
          "internalType": "uint8",
          "name": "result",
          "type": "uint8"
        }
      ],
      "payable": false,
      "stateMutability": "view",
      "type": "function"
    }
  ],
  "bytecode": "0x608060405234801561001057600080fd5b50611ab1806100206000396000f3fe60806040526004361061007b5760003560e01c80637249fbb61161004e5780637249fbb614610130578063d363209514610150578063e16c7d9814610165578063ec56a373146101925761007b565b80632f21a663146100805780635de28ae0146100b657806363615149146100e35780636c8244b814610110575b600080fd5b34801561008c57600080fd5b506100a061009b3660046112d3565b6101c7565b6040516100ad919061177c565b60405180910390f35b3480156100c257600080fd5b506100d66100d1366004611310565b61024f565b6040516100ad919061191f565b3480156100ef57600080fd5b506101036100fe36600461134c565b610476565b6040516100ad919061178d565b34801561011c57600080fd5b5061010361012b366004611310565b61080a565b34801561013c57600080fd5b5061010361014b366004611310565b610836565b61016361015e366004611386565b610b5c565b005b34801561017157600080fd5b50610185610180366004611310565b610db8565b6040516100ad9190611814565b34801561019e57600080fd5b506101b26101ad366004611310565b610f98565b6040516100ad99989796959493929190611825565b60608082516040519080825280602002602001820160405280156101f5578160200160208202803883390190505b50905060005b83518110156102465761022084828151811061021357fe5b602002602001015161024f565b82828151811061022c57fe5b60ff909216602092830291909101909101526001016101fb565b5090505b919050565b6000610259611101565b60008084815260200190815260200160002060405180610120016040529081600082015481526020016001820154815260200160028201548152602001600382015481526020016004820160009054906101000a900460ff1660048111156102bd57fe5b60048111156102c857fe5b81526004820154610100908190046001600160a01b0390811660208085019190915260058501549091166040808501919091526006850180548251600260018316159096026000190190911694909404601f8101849004840285018401909252818452606090940193918301828280156103835780601f1061035857610100808354040283529160200191610383565b820191906000526020600020905b81548152906001019060200180831161036657829003601f168201915b505050918352505060078201805460408051602060026001851615610100026000190190941693909304601f81018490048402820184019092528181529382019392918301828280156104175780601f106103ec57610100808354040283529160200191610417565b820191906000526020600020905b8154815290600101906020018083116103fa57829003601f168201915b50505050508152505090506001600481111561042f57fe5b8160800151600481111561043f57fe5b14801561044f5750428160400151105b1561045d5760049150610470565b8060800151600481111561046d57fe5b91505b50919050565b60008282610482611101565b60008084815260200190815260200160002060405180610120016040529081600082015481526020016001820154815260200160028201548152602001600382015481526020016004820160009054906101000a900460ff1660048111156104e657fe5b60048111156104f157fe5b81526004820154610100908190046001600160a01b0390811660208085019190915260058501549091166040808501919091526006850180548251600260018316159096026000190190911694909404601f8101849004840285018401909252818452606090940193918301828280156105ac5780601f10610581576101008083540402835291602001916105ac565b820191906000526020600020905b81548152906001019060200180831161058f57829003601f168201915b505050918352505060078201805460408051602060026001851615610100026000190190941693909304601f81018490048402820184019092528181529382019392918301828280156106405780601f1061061557610100808354040283529160200191610640565b820191906000526020600020905b81548152906001019060200180831161062357829003601f168201915b50505050508152505090506001600481111561065857fe5b8160800151600481111561066857fe5b1461068e5760405162461bcd60e51b8152600401610685906117d4565b60405180910390fd5b428160400151116106b15760405162461bcd60e51b8152600401610685906117e4565b6002826040516020016106c49190611754565b60408051601f19818403018152908290526106de91611769565b602060405180830381855afa1580156106fb573d6000803e3d6000fd5b5050506040513d601f19601f8201168201806040525061071e919081019061132e565b8160600151146107405760405162461bcd60e51b8152600401610685906117c4565b60008681526020819052604080822060048101805460ff1916600317905560058101548154925191936001600160a01b03909116926108fc811502929091818181858888f1935050505015801561079b573d6000803e3d6000fd5b506005810154600482015460038301546040516001600160a01b0393841693610100909304909216918a917f2d3a5ed13d0553389b4078e01264416362e34d23520fda797fbc17f3905ed131916107f3918c916117a9565b60405180910390a460019450505b50505092915050565b600080600083815260208190526040902060049081015460ff169081111561082e57fe5b141592915050565b600081610841611101565b60008083815260200190815260200160002060405180610120016040529081600082015481526020016001820154815260200160028201548152602001600382015481526020016004820160009054906101000a900460ff1660048111156108a557fe5b60048111156108b057fe5b81526004820154610100908190046001600160a01b0390811660208085019190915260058501549091166040808501919091526006850180548251600260018316159096026000190190911694909404601f81018490048402850184019092528184526060909401939183018282801561096b5780601f106109405761010080835404028352916020019161096b565b820191906000526020600020905b81548152906001019060200180831161094e57829003601f168201915b505050918352505060078201805460408051602060026001851615610100026000190190941693909304601f81018490048402820184019092528181529382019392918301828280156109ff5780601f106109d4576101008083540402835291602001916109ff565b820191906000526020600020905b8154815290600101906020018083116109e257829003601f168201915b505050505081525050905060016004811115610a1757fe5b81608001516004811115610a2757fe5b14610a445760405162461bcd60e51b8152600401610685906117d4565b4281604001511115610a685760405162461bcd60e51b8152600401610685906117e4565b60a08101516001600160a01b03163314610a945760405162461bcd60e51b8152600401610685906117f4565b600084815260208190526040808220600481018054600260ff1990911617908190558154925191936101009091046001600160a01b0316926108fc811502929091818181858888f19350505050158015610af2573d6000803e3d6000fd5b506005810154600482015460038301546040516001600160a01b03938416936101009093049092169188917f6fa50d56c31f3efe0cb6ff06232bffce8fe8c4155e3cbb6f2d79dd12631c252291610b49919061179b565b60405180910390a4506001949350505050565b3334428711610b7d5760405162461bcd60e51b8152600401610685906117e4565b60008111610b9d5760405162461bcd60e51b815260040161068590611804565b600060028387848a8c604051602001610bba9594939291906116fb565b60408051601f1981840301815290829052610bd491611769565b602060405180830381855afa158015610bf1573d6000803e3d6000fd5b5050506040513d601f19601f82011682018060405250610c14919081019061132e565b90506040518061012001604052808381526020018a815260200189815260200188815260200160016004811115610c4757fe5b8152602001846001600160a01b03168152602001876001600160a01b03168152602001868152602001858152506000808381526020019081526020016000206000820151816000015560208201518160010155604082015181600201556060820151816003015560808201518160040160006101000a81548160ff02191690836004811115610cd257fe5b021790555060a0820151600482018054610100600160a81b0319166101006001600160a01b039384160217905560c08301516005830180546001600160a01b0319169190921617905560e08201518051610d3691600684019160209091019061114c565b506101008201518051610d5391600784019160209091019061114c565b50905050856001600160a01b0316836001600160a01b0316827f767d0ffbc3d16cc51fc05770a22976e4b0fda9198e37878b76979429b2d5d88c858d8d8d8c8c604051610da5969594939291906118b8565b60405180910390a4505050505050505050565b610dc0611101565b610dc8611101565b60008084815260200190815260200160002060405180610120016040529081600082015481526020016001820154815260200160028201548152602001600382015481526020016004820160009054906101000a900460ff166004811115610e2c57fe5b6004811115610e3757fe5b81526004820154610100908190046001600160a01b0390811660208085019190915260058501549091166040808501919091526006850180548251600260018316159096026000190190911694909404601f810184900484028501840190925281845260609094019391830182828015610ef25780601f10610ec757610100808354040283529160200191610ef2565b820191906000526020600020905b815481529060010190602001808311610ed557829003601f168201915b505050918352505060078201805460408051602060026001851615610100026000190190941693909304601f8101849004840282018401909252818152938201939291830182828015610f865780601f10610f5b57610100808354040283529160200191610f86565b820191906000526020600020905b815481529060010190602001808311610f6957829003601f168201915b50505091909252509195945050505050565b6000602081815291815260409081902080546001808301546002808501546003860154600487015460058801546006890180548b51610100998216158a026000190190911696909604601f81018d90048d0287018d01909b528a8652979a95999398929760ff8316979092046001600160a01b03908116969116949293908301828280156110675780601f1061103c57610100808354040283529160200191611067565b820191906000526020600020905b81548152906001019060200180831161104a57829003601f168201915b5050505060078301805460408051602060026001851615610100026000190190941693909304601f81018490048402820184019092528181529495949350908301828280156110f75780601f106110cc576101008083540402835291602001916110f7565b820191906000526020600020905b8154815290600101906020018083116110da57829003601f168201915b5050505050905089565b60408051610120810182526000808252602082018190529181018290526060810182905290608082019081526000602082018190526040820152606080820181905260809091015290565b828054600181600116156101000203166002900490600052602060002090601f016020900481019282601f1061118d57805160ff19168380011785556111ba565b828001600101855582156111ba579182015b828111156111ba57825182559160200191906001019061119f565b506111c69291506111ca565b5090565b6111e491905b808211156111c657600081556001016111d0565b90565b80356111f281611a51565b92915050565b600082601f83011261120957600080fd5b813561121c61121782611954565b61192d565b9150818183526020840193506020810190508385602084028201111561124157600080fd5b60005b8381101561126d57816112578882611277565b8452506020928301929190910190600101611244565b5050505092915050565b80356111f281611a65565b80516111f281611a65565b600082601f83011261129e57600080fd5b81356112ac61121782611975565b915080825260208301602083018583830111156112c857600080fd5b6108018382846119e7565b6000602082840312156112e557600080fd5b813567ffffffffffffffff8111156112fc57600080fd5b611308848285016111f8565b949350505050565b60006020828403121561132257600080fd5b60006113088484611277565b60006020828403121561134057600080fd5b60006113088484611282565b6000806040838503121561135f57600080fd5b600061136b8585611277565b925050602061137c85828601611277565b9150509250929050565b60008060008060008060c0878903121561139f57600080fd5b60006113ab8989611277565b96505060206113bc89828a01611277565b95505060406113cd89828a01611277565b94505060606113de89828a016111e7565b935050608087013567ffffffffffffffff8111156113fb57600080fd5b61140789828a0161128d565b92505060a087013567ffffffffffffffff81111561142457600080fd5b61143089828a0161128d565b9150509295509295509295565b600061144983836116f2565b505060200190565b61145a816119b0565b82525050565b61145a61146c826119b0565b611a23565b600061147c826119a3565b61148681856119a7565b93506114918361199d565b8060005b838110156114bf5781516114a9888261143d565b97506114b48361199d565b925050600101611495565b509495945050505050565b61145a816119bb565b61145a816111e4565b61145a6114e8826111e4565b6111e4565b60006114f8826119a3565b611502818561024a565b93506115128185602086016119f3565b9290920192915050565b61145a816119dc565b6000611530826119a3565b61153a81856119a7565b935061154a8185602086016119f3565b61155381611a34565b9093019392505050565b600061156a600e836119a7565b6d1253959053125117d4d150d4915560921b815260200192915050565b6000611594600f836119a7565b6e535741505f4e4f545f41435449564560881b815260200192915050565b60006115bf600c836119a7565b6b494e56414c49445f54494d4560a01b815260200192915050565b60006115e7600e836119a7565b6d24a72b20a624a22fa9a2a72222a960911b815260200192915050565b6000611611600e836119a7565b6d1253959053125117d05353d5539560921b815260200192915050565b805160009061012084019061164385826114d3565b50602083015161165660208601826114d3565b50604083015161166960408601826114d3565b50606083015161167c60608601826114d3565b50608083015161168f608086018261151c565b5060a08301516116a260a0860182611451565b5060c08301516116b560c0860182611451565b5060e083015184820360e08601526116cd8282611525565b9150506101008301518482036101008601526116e98282611525565b95945050505050565b61145a816119d6565b60006117078288611460565b6014820191506117178287611460565b60148201915061172782866114dc565b60208201915061173782856114dc565b60208201915061174782846114dc565b5060200195945050505050565b600061176082846114dc565b50602001919050565b600061177582846114ed565b9392505050565b602080825281016117758184611471565b602081016111f282846114ca565b602081016111f282846114d3565b604081016117b782856114d3565b61177560208301846114d3565b602080825281016111f28161155d565b602080825281016111f281611587565b602080825281016111f2816115b2565b602080825281016111f2816115da565b602080825281016111f281611604565b60208082528101611775818461162e565b6101208101611834828c6114d3565b611841602083018b6114d3565b61184e604083018a6114d3565b61185b60608301896114d3565b611868608083018861151c565b61187560a0830187611451565b61188260c0830186611451565b81810360e08301526118948185611525565b90508181036101008301526118a98184611525565b9b9a5050505050505050505050565b60c081016118c682896114d3565b6118d360208301886114d3565b6118e060408301876114d3565b6118ed60608301866114d3565b81810360808301526118ff8185611525565b905081810360a08301526119138184611525565b98975050505050505050565b602081016111f282846116f2565b60405181810167ffffffffffffffff8111828210171561194c57600080fd5b604052919050565b600067ffffffffffffffff82111561196b57600080fd5b5060209081020190565b600067ffffffffffffffff82111561198c57600080fd5b506020601f91909101601f19160190565b60200190565b5190565b90815260200190565b60006111f2826119ca565b151590565b8061024a81611a44565b6001600160a01b031690565b60ff1690565b60006111f2826119c0565b82818337506000910152565b60005b83811015611a0e5781810151838201526020016119f6565b83811115611a1d576000848401525b50505050565b60006111f28260006111f282611a3e565b601f01601f191690565b60601b90565b60058110611a4e57fe5b50565b611a5a816119b0565b8114611a4e57600080fd5b611a5a816111e456fea365627a7a72315820fa8ae950ed507bcfa88278a3b339331838f330d133c9362110dd8c89662608cc6c6578706572696d656e74616cf564736f6c63430005100040",
  "source": "pragma solidity >=0.5.0 <0.6.0;\npragma experimental ABIEncoderV2;\n\ncontract HashTimeLock {\n  mapping(bytes32 => LockContract) public contracts;\n\n  enum SwapStatus { INVALID, ACTIVE, REFUNDED, WITHDRAWN, EXPIRED }\n\n  struct LockContract {\n    uint256 inputAmount;\n    uint256 outputAmount;\n    uint256 expiration;\n    bytes32 hashLock;\n    SwapStatus status;\n    address payable sender;\n    address payable receiver;\n    string outputNetwork;\n    string outputAddress;\n  }\n\n  event Withdraw(\n    bytes32 indexed id,\n    bytes32 secret,\n    bytes32 hashLock,\n    address indexed sender,\n    address indexed receiver\n  );\n\n  event Refund(\n    bytes32 indexed id,\n    bytes32 hashLock,\n    address indexed sender,\n    address indexed receiver\n  );\n\n  event NewContract(\n    uint256 inputAmount,\n    uint256 outputAmount,\n    uint256 expiration,\n    bytes32 indexed id,\n    bytes32 hashLock,\n    address indexed sender,\n    address indexed receiver,\n    string outputNetwork,\n    string outputAddress\n  );\n\n  modifier withdrawable(bytes32 id, bytes32 secret) {\n    LockContract memory tempContract = contracts[id];\n    require(tempContract.status == SwapStatus.ACTIVE, 'SWAP_NOT_ACTIVE');\n    require(tempContract.expiration > block.timestamp, 'INVALID_TIME');\n    require(\n      tempContract.hashLock == sha256(abi.encodePacked(secret)),\n      'INVALID_SECRET'\n    );\n    _;\n  }\n\n  modifier refundable(bytes32 id) {\n    LockContract memory tempContract = contracts[id];\n    require(tempContract.status == SwapStatus.ACTIVE, 'SWAP_NOT_ACTIVE');\n    require(tempContract.expiration <= block.timestamp, 'INVALID_TIME');\n    require(tempContract.sender == msg.sender, 'INVALID_SENDER');\n    _;\n  }\n\n  function newContract(\n    uint256 outputAmount,\n    uint256 expiration,\n    bytes32 hashLock,\n    address payable receiver,\n    string memory outputNetwork,\n    string memory outputAddress\n  ) public payable {\n    address payable sender = msg.sender;\n    uint256 inputAmount = msg.value;\n\n    require(expiration > block.timestamp, 'INVALID_TIME');\n\n    require(inputAmount > 0, 'INVALID_AMOUNT');\n\n    bytes32 id = sha256(\n      abi.encodePacked(sender, receiver, inputAmount, hashLock, expiration)\n    );\n\n    contracts[id] = LockContract(\n      inputAmount,\n      outputAmount,\n      expiration,\n      hashLock,\n      SwapStatus.ACTIVE,\n      sender,\n      receiver,\n      outputNetwork,\n      outputAddress\n    );\n\n    emit NewContract(\n      inputAmount,\n      outputAmount,\n      expiration,\n      id,\n      hashLock,\n      sender,\n      receiver,\n      outputNetwork,\n      outputAddress\n    );\n  }\n\n  function withdraw(bytes32 id, bytes32 secret)\n    public\n    withdrawable(id, secret)\n    returns (bool)\n  {\n    LockContract storage c = contracts[id];\n    c.status = SwapStatus.WITHDRAWN;\n    c.receiver.transfer(c.inputAmount);\n    emit Withdraw(id, secret, c.hashLock, c.sender, c.receiver);\n    return true;\n  }\n\n  function refund(bytes32 id) external refundable(id) returns (bool) {\n    LockContract storage c = contracts[id];\n    c.status = SwapStatus.REFUNDED;\n    c.sender.transfer(c.inputAmount);\n    emit Refund(id, c.hashLock, c.sender, c.receiver);\n    return true;\n  }\n\n  function getContract(bytes32 id) public view returns (LockContract memory) {\n    LockContract memory c = contracts[id];\n    return c;\n  }\n\n  function contractExists(bytes32 id) public view returns (bool) {\n    return contracts[id].status != SwapStatus.INVALID;\n  }\n\n  function getStatus(bytes32[] memory ids)\n    public\n    view\n    returns (uint8[] memory)\n  {\n    uint8[] memory result = new uint8[](ids.length);\n\n    for (uint256 index = 0; index < ids.length; index++) {\n      result[index] = getStatus(ids[index]);\n    }\n\n    return result;\n  }\n\n  function getStatus(bytes32 id) public view returns (uint8 result) {\n    LockContract memory tempContract = contracts[id];\n\n    if (\n      tempContract.status == SwapStatus.ACTIVE &&\n      tempContract.expiration < block.timestamp\n    ) {\n      result = uint8(SwapStatus.EXPIRED);\n    } else {\n      result = uint8(tempContract.status);\n    }\n  }\n}\n",
  "sourcePath": "/home/kraykov/kraykov/jelly-swap-github/jelly-eth-htlc/contracts/HashTimeLock.sol",
  "compiler": {
    "name": "solc",
    "version": "0.5.16+commit.9c3226ce.Linux.g++"
  },
  "schemaVersion": "3.0.3",
  "updatedAt": "2020-01-15T08:32:34.603Z",
  "devdoc": {
    "methods": {}
  },
  "userdoc": {
    "methods": {}
  }
}