{"abi":[{"type":"constructor","inputs":[{"name":"_roleManagerAddress","type":"address","internalType":"address"}],"stateMutability":"nonpayable"},{"type":"receive","stateMutability":"payable"},{"type":"function","name":"cancelPayment","inputs":[{"name":"_paymentId","type":"uint256","internalType":"uint256"}],"outputs":[],"stateMutability":"nonpayable"},{"type":"function","name":"createPayment","inputs":[{"name":"_payer","type":"address","internalType":"address"},{"name":"_payee","type":"address","internalType":"address"},{"name":"_amount","type":"uint256","internalType":"uint256"},{"name":"_productId","type":"string","internalType":"string"},{"name":"_productType","type":"string","internalType":"string"}],"outputs":[{"name":"","type":"uint256","internalType":"uint256"}],"stateMutability":"nonpayable"},{"type":"function","name":"getContractBalance","inputs":[],"outputs":[{"name":"","type":"uint256","internalType":"uint256"}],"stateMutability":"view"},{"type":"function","name":"getPayment","inputs":[{"name":"_paymentId","type":"uint256","internalType":"uint256"}],"outputs":[{"name":"id","type":"uint256","internalType":"uint256"},{"name":"payer","type":"address","internalType":"address"},{"name":"payee","type":"address","internalType":"address"},{"name":"amount","type":"uint256","internalType":"uint256"},{"name":"productId","type":"string","internalType":"string"},{"name":"productType","type":"string","internalType":"string"},{"name":"status","type":"uint8","internalType":"enum Payment.PaymentStatus"},{"name":"timestamp","type":"uint256","internalType":"uint256"},{"name":"transactionReference","type":"string","internalType":"string"}],"stateMutability":"view"},{"type":"function","name":"getPaymentByProduct","inputs":[{"name":"_productId","type":"string","internalType":"string"}],"outputs":[{"name":"","type":"uint256","internalType":"uint256"}],"stateMutability":"view"},{"type":"function","name":"getPaymentStatusByProduct","inputs":[{"name":"_productId","type":"string","internalType":"string"}],"outputs":[{"name":"","type":"uint8","internalType":"enum Payment.PaymentStatus"}],"stateMutability":"view"},{"type":"function","name":"isProductPaid","inputs":[{"name":"_productId","type":"string","internalType":"string"}],"outputs":[{"name":"","type":"bool","internalType":"bool"}],"stateMutability":"view"},{"type":"function","name":"owner","inputs":[],"outputs":[{"name":"","type":"address","internalType":"address"}],"stateMutability":"view"},{"type":"function","name":"payments","inputs":[{"name":"","type":"uint256","internalType":"uint256"}],"outputs":[{"name":"id","type":"uint256","internalType":"uint256"},{"name":"payer","type":"address","internalType":"address"},{"name":"payee","type":"address","internalType":"address"},{"name":"amount","type":"uint256","internalType":"uint256"},{"name":"productId","type":"string","internalType":"string"},{"name":"productType","type":"string","internalType":"string"},{"name":"status","type":"uint8","internalType":"enum Payment.PaymentStatus"},{"name":"timestamp","type":"uint256","internalType":"uint256"},{"name":"transactionReference","type":"string","internalType":"string"}],"stateMutability":"view"},{"type":"function","name":"processPayment","inputs":[{"name":"_paymentId","type":"uint256","internalType":"uint256"},{"name":"_transactionReference","type":"string","internalType":"string"}],"outputs":[],"stateMutability":"payable"},{"type":"function","name":"productPayments","inputs":[{"name":"","type":"string","internalType":"string"}],"outputs":[{"name":"","type":"uint256","internalType":"uint256"}],"stateMutability":"view"},{"type":"function","name":"refundPayment","inputs":[{"name":"_paymentId","type":"uint256","internalType":"uint256"},{"name":"_transactionReference","type":"string","internalType":"string"}],"outputs":[],"stateMutability":"payable"},{"type":"function","name":"roleManagerAddress","inputs":[],"outputs":[{"name":"","type":"address","internalType":"address"}],"stateMutability":"view"},{"type":"function","name":"transferOwnership","inputs":[{"name":"_newOwner","type":"address","internalType":"address"}],"outputs":[],"stateMutability":"nonpayable"},{"type":"function","name":"updateRoleManagerAddress","inputs":[{"name":"_newRoleManagerAddress","type":"address","internalType":"address"}],"outputs":[],"stateMutability":"nonpayable"},{"type":"function","name":"withdraw","inputs":[{"name":"_amount","type":"uint256","internalType":"uint256"}],"outputs":[],"stateMutability":"nonpayable"},{"type":"event","name":"EthReceived","inputs":[{"name":"sender","type":"address","indexed":false,"internalType":"address"},{"name":"amount","type":"uint256","indexed":false,"internalType":"uint256"}],"anonymous":false},{"type":"event","name":"PaymentCreated","inputs":[{"name":"paymentId","type":"uint256","indexed":false,"internalType":"uint256"},{"name":"payer","type":"address","indexed":false,"internalType":"address"},{"name":"payee","type":"address","indexed":false,"internalType":"address"},{"name":"amount","type":"uint256","indexed":false,"internalType":"uint256"},{"name":"productId","type":"string","indexed":false,"internalType":"string"},{"name":"productType","type":"string","indexed":false,"internalType":"string"}],"anonymous":false},{"type":"event","name":"PaymentProcessed","inputs":[{"name":"paymentId","type":"uint256","indexed":false,"internalType":"uint256"},{"name":"transactionReference","type":"string","indexed":false,"internalType":"string"}],"anonymous":false},{"type":"event","name":"PaymentStatusChanged","inputs":[{"name":"paymentId","type":"uint256","indexed":false,"internalType":"uint256"},{"name":"newStatus","type":"uint8","indexed":false,"internalType":"enum Payment.PaymentStatus"}],"anonymous":false}],"bytecode":{"object":"0x608060405234801561001057600080fd5b50604051611a32380380611a3283398101604081905261002f91610065565b60008054336001600160a01b031991821617909155600180549091166001600160a01b0392909216919091178155600455610095565b60006020828403121561007757600080fd5b81516001600160a01b038116811461008e57600080fd5b9392505050565b61198e806100a46000396000f3fe6080604052600436106100f75760003560e01c806387d817891161008a578063ae49fb0111610059578063ae49fb01146102f7578063b990d4581461032f578063d33b8d231461034f578063f2fde38b1461036f57600080fd5b806387d817891461026c5780638da5cb5b1461028c57806395cbbc9a146102c4578063a2b41693146102d757600080fd5b80636667543d116100c65780636667543d146101f65780636f9fb98a146102265780637b23d473146102395780638422927d1461024c57600080fd5b80632e1a7d4d1461013b57806330d1f5b41461015d5780633280a8361461019357806356686729146101c857600080fd5b3661013657604080513381523460208201527f85177f287940f2f05425a4029951af0e047a7f9c4eaa9a6e6917bcd869f86695910160405180910390a1005b600080fd5b34801561014757600080fd5b5061015b610156366004611364565b61038f565b005b34801561016957600080fd5b5061017d610178366004611420565b6104ad565b60405161018a9190611495565b60405180910390f35b34801561019f57600080fd5b506101b36101ae366004611364565b6104fd565b60405161018a999897969594939291906114f9565b3480156101d457600080fd5b506101e86101e336600461159b565b610752565b60405190815260200161018a565b34801561020257600080fd5b50610216610211366004611420565b61091e565b604051901515815260200161018a565b34801561023257600080fd5b50476101e8565b61015b61024736600461162a565b610983565b34801561025857600080fd5b5061015b610267366004611364565b610bce565b34801561027857600080fd5b506101b3610287366004611364565b610d27565b34801561029857600080fd5b506000546102ac906001600160a01b031681565b6040516001600160a01b03909116815260200161018a565b61015b6102d236600461162a565b610f1e565b3480156102e357600080fd5b506101e86102f2366004611420565b61124e565b34801561030357600080fd5b506101e8610312366004611420565b805160208183018101805160038252928201919093012091525481565b34801561033b57600080fd5b5061015b61034a366004611671565b611276565b34801561035b57600080fd5b506001546102ac906001600160a01b031681565b34801561037b57600080fd5b5061015b61038a366004611671565b6112c2565b6000546001600160a01b031633146103c25760405162461bcd60e51b81526004016103b990611693565b60405180910390fd5b478111156104125760405162461bcd60e51b815260206004820152601d60248201527f496e73756666696369656e7420636f6e74726163742062616c616e636500000060448201526064016103b9565b600080546040516001600160a01b039091169083908381818185875af1925050503d806000811461045f576040519150601f19603f3d011682016040523d82523d6000602084013e610464565b606091505b50509050806104a95760405162461bcd60e51b815260206004820152601160248201527015da5d1a191c985dd85b0819985a5b1959607a1b60448201526064016103b9565b5050565b6000806003836040516104c091906116d8565b9081526020016040518091039020549050806000036104e25750600092915050565b60009081526002602052604090206006015460ff1692915050565b600080600080606080600080606060008a11801561051c57506004548a105b6105385760405162461bcd60e51b81526004016103b9906116f4565b60008a81526002602081905260409091208054600182015492820154600383015460068401546007850154600486018054969795966001600160a01b0396871696909516949092600589019260ff9091169160088a0190859061059a90611720565b80601f01602080910402602001604051908101604052809291908181526020018280546105c690611720565b80156106135780601f106105e857610100808354040283529160200191610613565b820191906000526020600020905b8154815290600101906020018083116105f657829003601f168201915b5050505050945083805461062690611720565b80601f016020809104026020016040519081016040528092919081815260200182805461065290611720565b801561069f5780601f106106745761010080835404028352916020019161069f565b820191906000526020600020905b81548152906001019060200180831161068257829003601f168201915b505050505093508080546106b290611720565b80601f01602080910402602001604051908101604052809291908181526020018280546106de90611720565b801561072b5780601f106107005761010080835404028352916020019161072b565b820191906000526020600020905b81548152906001019060200180831161070e57829003601f168201915b50505050509050995099509950995099509950995099509950509193959799909294969850565b600480546000918291908261076683611770565b9190505590506000604051806101200160405280838152602001896001600160a01b03168152602001886001600160a01b03168152602001878152602001868152602001858152602001600060038111156107c3576107c361145d565b81524260208083019190915260408051808301825260008082529382015285835260028083529281902084518155918401516001830180546001600160a01b03199081166001600160a01b03938416179091559185015193830180549092169316929092179091556060820151600382015560808201519192508291600482019061084e90826117d8565b5060a0820151600582019061086390826117d8565b5060c082015160068201805460ff191660018360038111156108875761088761145d565b021790555060e0820151600782015561010082015160088201906108ab90826117d8565b50905050816003866040516108c091906116d8565b9081526020016040518091039020819055507f372b9dd6b16606f95db9ae2f24360a209dc38c2af5b990815d8e866fac65553082898989898960405161090b96959493929190611898565b60405180910390a1509695505050505050565b60008060038360405161093191906116d8565b9081526020016040518091039020549050806000036109535750600092915050565b600160008281526002602052604090206006015460ff16600381111561097b5761097b61145d565b149392505050565b600082118015610994575060045482105b6109b05760405162461bcd60e51b81526004016103b9906116f4565b6000828152600260208190526040909120908101546001600160a01b03163314806109e557506000546001600160a01b031633145b610a015760405162461bcd60e51b81526004016103b9906118f0565b6001600682015460ff166003811115610a1c57610a1c61145d565b14610a695760405162461bcd60e51b815260206004820152601e60248201527f5061796d656e74206d757374206265207061696420746f20726566756e64000060448201526064016103b9565b8060030154471015610ace5760405162461bcd60e51b815260206004820152602860248201527f496e73756666696369656e7420636f6e74726163742062616c616e636520666f6044820152671c881c99599d5b9960c21b60648201526084016103b9565b600181015460038201546040516000926001600160a01b031691908381818185875af1925050503d8060008114610b21576040519150601f19603f3d011682016040523d82523d6000602084013e610b26565b606091505b5050905080610b705760405162461bcd60e51b81526020600482015260166024820152751499599d5b99081d1c985b9cd9995c8819985a5b195960521b60448201526064016103b9565b60068201805460ff1916600217905560088201610b8d84826117d8565b507ff879d3b4028acb77eda7e8b250ce97ca51a46b47cb3482367d544fcf6fa4bdab846002604051610bc0929190611918565b60405180910390a150505050565b600081118015610bdf575060045481105b610bfb5760405162461bcd60e51b81526004016103b9906116f4565b600081815260026020526040902060018101546001600160a01b0316331480610c30575060028101546001600160a01b031633145b80610c4557506000546001600160a01b031633145b610c615760405162461bcd60e51b81526004016103b9906118f0565b6000600682015460ff166003811115610c7c57610c7c61145d565b14610cd85760405162461bcd60e51b815260206004820152602660248201527f4f6e6c792070656e64696e67207061796d656e74732063616e2062652063616e60448201526518d95b1b195960d21b60648201526084016103b9565b60068101805460ff191660039081179091556040517ff879d3b4028acb77eda7e8b250ce97ca51a46b47cb3482367d544fcf6fa4bdab91610d1b91859190611918565b60405180910390a15050565b60026020819052600091825260409091208054600182015492820154600383015460048401805493956001600160a01b0390811695931693919291610d6b90611720565b80601f0160208091040260200160405190810160405280929190818152602001828054610d9790611720565b8015610de45780601f10610db957610100808354040283529160200191610de4565b820191906000526020600020905b815481529060010190602001808311610dc757829003601f168201915b505050505090806005018054610df990611720565b80601f0160208091040260200160405190810160405280929190818152602001828054610e2590611720565b8015610e725780601f10610e4757610100808354040283529160200191610e72565b820191906000526020600020905b815481529060010190602001808311610e5557829003601f168201915b5050505060068301546007840154600885018054949560ff9093169491935090610e9b90611720565b80601f0160208091040260200160405190810160405280929190818152602001828054610ec790611720565b8015610f145780601f10610ee957610100808354040283529160200191610f14565b820191906000526020600020905b815481529060010190602001808311610ef757829003601f168201915b5050505050905089565b600082118015610f2f575060045482105b610f4b5760405162461bcd60e51b81526004016103b9906116f4565b600082815260026020526040902060018101546001600160a01b0316331480610f7e57506000546001600160a01b031633145b610f9a5760405162461bcd60e51b81526004016103b9906118f0565b6000600682015460ff166003811115610fb557610fb561145d565b1461100c5760405162461bcd60e51b815260206004820152602160248201527f5061796d656e74206d75737420626520696e2070656e64696e672073746174756044820152607360f81b60648201526084016103b9565b80600301543410156110605760405162461bcd60e51b815260206004820152601b60248201527f496e73756666696369656e74207061796d656e7420616d6f756e74000000000060448201526064016103b9565b600281015460038201546040516000926001600160a01b031691908381818185875af1925050503d80600081146110b3576040519150601f19603f3d011682016040523d82523d6000602084013e6110b8565b606091505b50509050806111095760405162461bcd60e51b815260206004820152601860248201527f5472616e7366657220746f207061796565206661696c6564000000000000000060448201526064016103b9565b81600301543411156111c5576000826003015434611127919061192c565b604051909150600090339083908381818185875af1925050503d806000811461116c576040519150601f19603f3d011682016040523d82523d6000602084013e611171565b606091505b50509050806111c25760405162461bcd60e51b815260206004820152601f60248201527f526566756e64206f6620657863657373207061796d656e74206661696c65640060448201526064016103b9565b50505b60068201805460ff19166001179055600882016111e284826117d8565b507ff879d3b4028acb77eda7e8b250ce97ca51a46b47cb3482367d544fcf6fa4bdab846001604051611215929190611918565b60405180910390a17ff7571e6a76b2cfc4521a6923eed87faa67a1dd66abe81ea3b17b88491c3005ed8484604051610bc092919061193f565b600060038260405161126091906116d8565b9081526020016040518091039020549050919050565b6000546001600160a01b031633146112a05760405162461bcd60e51b81526004016103b990611693565b600180546001600160a01b0319166001600160a01b0392909216919091179055565b6000546001600160a01b031633146112ec5760405162461bcd60e51b81526004016103b990611693565b6001600160a01b0381166113425760405162461bcd60e51b815260206004820181905260248201527f4e6577206f776e65722063616e6e6f74206265207a65726f206164647265737360448201526064016103b9565b600080546001600160a01b0319166001600160a01b0392909216919091179055565b60006020828403121561137657600080fd5b5035919050565b634e487b7160e01b600052604160045260246000fd5b600082601f8301126113a457600080fd5b813567ffffffffffffffff808211156113bf576113bf61137d565b604051601f8301601f19908116603f011681019082821181831017156113e7576113e761137d565b8160405283815286602085880101111561140057600080fd5b836020870160208301376000602085830101528094505050505092915050565b60006020828403121561143257600080fd5b813567ffffffffffffffff81111561144957600080fd5b61145584828501611393565b949350505050565b634e487b7160e01b600052602160045260246000fd5b6004811061149157634e487b7160e01b600052602160045260246000fd5b9052565b602081016114a38284611473565b92915050565b60005b838110156114c45781810151838201526020016114ac565b50506000910152565b600081518084526114e58160208601602086016114a9565b601f01601f19169290920160200192915050565b8981526001600160a01b038981166020830152881660408201526060810187905261012060808201819052600090611533838201896114cd565b905082810360a084015261154781886114cd565b905061155660c0840187611473565b8460e084015282810361010084015261156f81856114cd565b9c9b505050505050505050505050565b80356001600160a01b038116811461159657600080fd5b919050565b600080600080600060a086880312156115b357600080fd5b6115bc8661157f565b94506115ca6020870161157f565b935060408601359250606086013567ffffffffffffffff808211156115ee57600080fd5b6115fa89838a01611393565b9350608088013591508082111561161057600080fd5b5061161d88828901611393565b9150509295509295909350565b6000806040838503121561163d57600080fd5b82359150602083013567ffffffffffffffff81111561165b57600080fd5b61166785828601611393565b9150509250929050565b60006020828403121561168357600080fd5b61168c8261157f565b9392505050565b60208082526025908201527f4f6e6c7920746865206f776e65722063616e2063616c6c20746869732066756e60408201526431ba34b7b760d91b606082015260800190565b600082516116ea8184602087016114a9565b9190910192915050565b602080825260129082015271125b9d985b1a59081c185e5b595b9d08125160721b604082015260600190565b600181811c9082168061173457607f821691505b60208210810361175457634e487b7160e01b600052602260045260246000fd5b50919050565b634e487b7160e01b600052601160045260246000fd5b6000600182016117825761178261175a565b5060010190565b601f8211156117d357600081815260208120601f850160051c810160208610156117b05750805b601f850160051c820191505b818110156117cf578281556001016117bc565b5050505b505050565b815167ffffffffffffffff8111156117f2576117f261137d565b611806816118008454611720565b84611789565b602080601f83116001811461183b57600084156118235750858301515b600019600386901b1c1916600185901b1785556117cf565b600085815260208120601f198616915b8281101561186a5788860151825594840194600190910190840161184b565b50858210156118885787850151600019600388901b60f8161c191681555b5050505050600190811b01905550565b8681526001600160a01b038681166020830152851660408201526060810184905260c0608082018190526000906118d1908301856114cd565b82810360a08401526118e381856114cd565b9998505050505050505050565b6020808252600e908201526d139bdd08185d5d1a1bdc9a5e995960921b604082015260600190565b8281526040810161168c6020830184611473565b818103818111156114a3576114a361175a565b82815260406020820152600061145560408301846114cd56fea2646970667358221220ec9632421cd885c46ddd71b7325f9ed58e67edf0d0b0b93e3ba2db15c88b9d7d64736f6c63430008130033","linkReferences":{}},"methodIdentifiers":{"cancelPayment(uint256)":"8422927d","createPayment(address,address,uint256,string,string)":"56686729","getContractBalance()":"6f9fb98a","getPayment(uint256)":"3280a836","getPaymentByProduct(string)":"a2b41693","getPaymentStatusByProduct(string)":"30d1f5b4","isProductPaid(string)":"6667543d","owner()":"8da5cb5b","payments(uint256)":"87d81789","processPayment(uint256,string)":"95cbbc9a","productPayments(string)":"ae49fb01","refundPayment(uint256,string)":"7b23d473","roleManagerAddress()":"d33b8d23","transferOwnership(address)":"f2fde38b","updateRoleManagerAddress(address)":"b990d458","withdraw(uint256)":"2e1a7d4d"},"id":2}