{
    "contractName": "HashedTimeLockContract",
    "abi": [
        {
            "anonymous": false,
            "inputs": [
                {
                    "indexed": false,
                    "internalType": "uint256",
                    "name": "inputAmount",
                    "type": "uint256"
                },
                {
                    "indexed": false,
                    "internalType": "uint256",
                    "name": "outputAmount",
                    "type": "uint256"
                },
                {
                    "indexed": false,
                    "internalType": "uint256",
                    "name": "expiration",
                    "type": "uint256"
                },
                {
                    "indexed": false,
                    "internalType": "bytes32",
                    "name": "id",
                    "type": "bytes32"
                },
                {
                    "indexed": false,
                    "internalType": "bytes32",
                    "name": "hashLock",
                    "type": "bytes32"
                },
                {
                    "indexed": true,
                    "internalType": "address",
                    "name": "tokenAddress",
                    "type": "address"
                },
                {
                    "indexed": true,
                    "internalType": "address",
                    "name": "sender",
                    "type": "address"
                },
                {
                    "indexed": true,
                    "internalType": "address",
                    "name": "receiver",
                    "type": "address"
                },
                {
                    "indexed": false,
                    "internalType": "string",
                    "name": "outputNetwork",
                    "type": "string"
                },
                {
                    "indexed": false,
                    "internalType": "string",
                    "name": "outputAddress",
                    "type": "string"
                }
            ],
            "name": "NewContract",
            "type": "event"
        },
        {
            "anonymous": false,
            "inputs": [
                {
                    "indexed": false,
                    "internalType": "bytes32",
                    "name": "id",
                    "type": "bytes32"
                },
                {
                    "indexed": false,
                    "internalType": "bytes32",
                    "name": "hashLock",
                    "type": "bytes32"
                },
                {
                    "indexed": true,
                    "internalType": "address",
                    "name": "tokenAddress",
                    "type": "address"
                },
                {
                    "indexed": true,
                    "internalType": "address",
                    "name": "sender",
                    "type": "address"
                },
                {
                    "indexed": true,
                    "internalType": "address",
                    "name": "receiver",
                    "type": "address"
                }
            ],
            "name": "Refund",
            "type": "event"
        },
        {
            "anonymous": false,
            "inputs": [
                {
                    "indexed": false,
                    "internalType": "bytes32",
                    "name": "id",
                    "type": "bytes32"
                },
                {
                    "indexed": false,
                    "internalType": "bytes32",
                    "name": "secret",
                    "type": "bytes32"
                },
                {
                    "indexed": false,
                    "internalType": "bytes32",
                    "name": "hashLock",
                    "type": "bytes32"
                },
                {
                    "indexed": true,
                    "internalType": "address",
                    "name": "tokenAddress",
                    "type": "address"
                },
                {
                    "indexed": true,
                    "internalType": "address",
                    "name": "sender",
                    "type": "address"
                },
                {
                    "indexed": true,
                    "internalType": "address",
                    "name": "receiver",
                    "type": "address"
                }
            ],
            "name": "Withdraw",
            "type": "event"
        },
        {
            "inputs": [],
            "name": "ACTIVE",
            "outputs": [
                {
                    "internalType": "uint256",
                    "name": "",
                    "type": "uint256"
                }
            ],
            "stateMutability": "view",
            "type": "function"
        },
        {
            "inputs": [],
            "name": "EXPIRED",
            "outputs": [
                {
                    "internalType": "uint256",
                    "name": "",
                    "type": "uint256"
                }
            ],
            "stateMutability": "view",
            "type": "function"
        },
        {
            "inputs": [],
            "name": "INVALID",
            "outputs": [
                {
                    "internalType": "uint256",
                    "name": "",
                    "type": "uint256"
                }
            ],
            "stateMutability": "view",
            "type": "function"
        },
        {
            "inputs": [],
            "name": "REFUNDED",
            "outputs": [
                {
                    "internalType": "uint256",
                    "name": "",
                    "type": "uint256"
                }
            ],
            "stateMutability": "view",
            "type": "function"
        },
        {
            "inputs": [],
            "name": "WITHDRAWN",
            "outputs": [
                {
                    "internalType": "uint256",
                    "name": "",
                    "type": "uint256"
                }
            ],
            "stateMutability": "view",
            "type": "function"
        },
        {
            "inputs": [
                {
                    "internalType": "bytes32",
                    "name": "",
                    "type": "bytes32"
                }
            ],
            "name": "contracts",
            "outputs": [
                {
                    "internalType": "uint256",
                    "name": "inputAmount",
                    "type": "uint256"
                },
                {
                    "internalType": "uint256",
                    "name": "outputAmount",
                    "type": "uint256"
                },
                {
                    "internalType": "uint256",
                    "name": "expiration",
                    "type": "uint256"
                },
                {
                    "internalType": "uint256",
                    "name": "status",
                    "type": "uint256"
                },
                {
                    "internalType": "bytes32",
                    "name": "hashLock",
                    "type": "bytes32"
                },
                {
                    "internalType": "address",
                    "name": "tokenAddress",
                    "type": "address"
                },
                {
                    "internalType": "address",
                    "name": "sender",
                    "type": "address"
                },
                {
                    "internalType": "address",
                    "name": "receiver",
                    "type": "address"
                },
                {
                    "internalType": "string",
                    "name": "outputNetwork",
                    "type": "string"
                },
                {
                    "internalType": "string",
                    "name": "outputAddress",
                    "type": "string"
                }
            ],
            "stateMutability": "view",
            "type": "function"
        },
        {
            "inputs": [
                {
                    "internalType": "bytes32",
                    "name": "id",
                    "type": "bytes32"
                }
            ],
            "name": "getSingleStatus",
            "outputs": [
                {
                    "internalType": "uint256",
                    "name": "result",
                    "type": "uint256"
                }
            ],
            "stateMutability": "view",
            "type": "function"
        },
        {
            "inputs": [
                {
                    "internalType": "bytes32[]",
                    "name": "ids",
                    "type": "bytes32[]"
                }
            ],
            "name": "getStatus",
            "outputs": [
                {
                    "internalType": "uint256[]",
                    "name": "",
                    "type": "uint256[]"
                }
            ],
            "stateMutability": "view",
            "type": "function"
        },
        {
            "inputs": [
                {
                    "internalType": "uint256",
                    "name": "inputAmount",
                    "type": "uint256"
                },
                {
                    "internalType": "uint256",
                    "name": "outputAmount",
                    "type": "uint256"
                },
                {
                    "internalType": "uint256",
                    "name": "expiration",
                    "type": "uint256"
                },
                {
                    "internalType": "bytes32",
                    "name": "hashLock",
                    "type": "bytes32"
                },
                {
                    "internalType": "address",
                    "name": "tokenAddress",
                    "type": "address"
                },
                {
                    "internalType": "address",
                    "name": "receiver",
                    "type": "address"
                },
                {
                    "internalType": "string",
                    "name": "outputNetwork",
                    "type": "string"
                },
                {
                    "internalType": "string",
                    "name": "outputAddress",
                    "type": "string"
                }
            ],
            "name": "newContract",
            "outputs": [],
            "stateMutability": "nonpayable",
            "type": "function"
        },
        {
            "inputs": [
                {
                    "internalType": "bytes32",
                    "name": "id",
                    "type": "bytes32"
                }
            ],
            "name": "refund",
            "outputs": [],
            "stateMutability": "nonpayable",
            "type": "function"
        },
        {
            "inputs": [
                {
                    "internalType": "bytes32",
                    "name": "id",
                    "type": "bytes32"
                },
                {
                    "internalType": "bytes32",
                    "name": "secret",
                    "type": "bytes32"
                }
            ],
            "name": "withdraw",
            "outputs": [],
            "stateMutability": "nonpayable",
            "type": "function"
        }
    ],
    "bytecode": "608060405234801561001057600080fd5b506111dd806100206000396000f3fe608060405234801561001057600080fd5b50600436106100a95760003560e01c806394e15c8f1161007157806394e15c8f1461011d578063af78feef14610125578063c90bd0471461012d578063d2fd8b7614610135578063ec56a37314610148578063fbdf3b431461017157600080fd5b80632f21a663146100ae578063414ac85b146100d757806363615149146100ed5780637249fbb6146101025780637fcce2a914610115575b600080fd5b6100c16100bc366004610c3e565b610184565b6040516100ce9190610cfc565b60405180910390f35b6100df600481565b6040519081526020016100ce565b6101006100fb366004610d40565b610232565b005b610100610110366004610d62565b610407565b6100df600081565b6100df600281565b6100df600381565b6100df600181565b610100610143366004610de0565b61056d565b61015b610156366004610d62565b6108e1565b6040516100ce9a99989796959493929190610ee1565b6100df61017f366004610d62565b610a52565b60606000825167ffffffffffffffff8111156101a2576101a2610c28565b6040519080825280602002602001820160405280156101cb578160200160208202803683370190505b50905060005b835181101561022b576101fc8482815181106101ef576101ef610f5a565b6020026020010151610a52565b82828151811061020e5761020e610f5a565b60209081029190910101528061022381610f70565b9150506101d1565b5092915050565b6000828152602081905260409020600381015460011461028b5760405162461bcd60e51b815260206004820152600f60248201526e535741505f4e4f545f41435449564560881b60448201526064015b60405180910390fd5b428160020154116102ae5760405162461bcd60e51b815260040161028290610f97565b604080516020810184905201604051602081830303815290604052805190602001208160040154146103135760405162461bcd60e51b815260206004820152600e60248201526d1253959053125117d4d150d4915560921b6044820152606401610282565b60038181015560058101546007820154825460405163a9059cbb60e01b81526001600160a01b039283166004820152602481019190915291169063a9059cbb906044016020604051808303816000875af1158015610375573d6000803e3d6000fd5b505050506040513d601f19601f820116820180604052508101906103999190610fbd565b506007810154600682015460058301546004840154604080518881526020810188905280820192909252516001600160a01b039485169493841693909216917fbab3eb11a71b2cd82a010d4d5b2c3df5cd25ee8c9f1a75baff879a1b87942cb89181900360600190a4505050565b6000818152602081905260409020600381015460011461045b5760405162461bcd60e51b815260206004820152600f60248201526e535741505f4e4f545f41435449564560881b6044820152606401610282565b428160020154111561047f5760405162461bcd60e51b815260040161028290610f97565b6002600382015560058101546006820154825460405163a9059cbb60e01b81526001600160a01b039283166004820152602481019190915291169063a9059cbb906044016020604051808303816000875af11580156104e2573d6000803e3d6000fd5b505050506040513d601f19601f820116820180604052508101906105069190610fbd565b5060078101546006820154600583015460048401546040805187815260208101929092526001600160a01b039485169493841693909216917f0d4cdc2fe2a785f03bf5481e13bee5cdcb7743166bcadafebfd3f09db6108117910160405180910390a45050565b42881161058c5760405162461bcd60e51b815260040161028290610f97565b60008a116105cd5760405162461bcd60e51b815260206004820152600e60248201526d1253959053125117d05353d5539560921b6044820152606401610282565b6040516323b872dd60e01b8152336004820152306024820152604481018b90526001600160a01b038716906323b872dd906064016020604051808303816000875af1158015610620573d6000803e3d6000fd5b505050506040513d601f19601f820116820180604052508101906106449190610fbd565b50604080513360208201526001600160a01b0380881692820192909252606081018c90526080810189905260a081018a905290871660c082015260009060e00160408051601f198184030181529181528151602092830120600081815292839052912060030154909150156106e95760405162461bcd60e51b815260206004820152600b60248201526a535741505f45584953545360a81b6044820152606401610282565b6040518061014001604052808c81526020018b81526020018a815260200160018152602001898152602001886001600160a01b03168152602001336001600160a01b03168152602001876001600160a01b0316815260200186868080601f016020809104026020016040519081016040528093929190818152602001838380828437600092019190915250505090825250604080516020601f8701819004810282018101909252858152918101919086908690819084018382808284376000920182905250939094525050838152602081815260409182902084518155908401516001820155908301516002820155606083015160038201556080830151600482015560a08301516005820180546001600160a01b039283166001600160a01b03199182161790915560c085015160068401805491841691831691909117905560e085015160078401805491909316911617905561010083015190915060088201906108559082611069565b50610120820151600982019061086b9082611069565b50905050856001600160a01b0316336001600160a01b0316886001600160a01b03167f448581ece7da63e54a320119f9f2b80c868a954c441e70c88ecdfc95919751248e8e8e878f8d8d8d8d6040516108cc99989796959493929190611152565b60405180910390a45050505050505050505050565b600060208190529081526040902080546001820154600283015460038401546004850154600586015460068701546007880154600889018054989997989697959694956001600160a01b0394851695938516949092169261094190610fe6565b80601f016020809104026020016040519081016040528092919081815260200182805461096d90610fe6565b80156109ba5780601f1061098f576101008083540402835291602001916109ba565b820191906000526020600020905b81548152906001019060200180831161099d57829003601f168201915b5050505050908060090180546109cf90610fe6565b80601f01602080910402602001604051908101604052809291908181526020018280546109fb90610fe6565b8015610a485780601f10610a1d57610100808354040283529160200191610a48565b820191906000526020600020905b815481529060010190602001808311610a2b57829003601f168201915b505050505090508a565b60008181526020818152604080832081516101408101835281548152600182015493810193909352600281015491830191909152600381015460608301526004810154608083015260058101546001600160a01b0390811660a08401526006820154811660c084015260078201541660e083015260088101805484939291610100840191610adf90610fe6565b80601f0160208091040260200160405190810160405280929190818152602001828054610b0b90610fe6565b8015610b585780601f10610b2d57610100808354040283529160200191610b58565b820191906000526020600020905b815481529060010190602001808311610b3b57829003601f168201915b50505050508152602001600982018054610b7190610fe6565b80601f0160208091040260200160405190810160405280929190818152602001828054610b9d90610fe6565b8015610bea5780601f10610bbf57610100808354040283529160200191610bea565b820191906000526020600020905b815481529060010190602001808311610bcd57829003601f168201915b505050505081525050905060018160600151148015610c0c5750428160400151105b15610c1a5760049150610c22565b806060015191505b50919050565b634e487b7160e01b600052604160045260246000fd5b60006020808385031215610c5157600080fd5b823567ffffffffffffffff80821115610c6957600080fd5b818501915085601f830112610c7d57600080fd5b813581811115610c8f57610c8f610c28565b8060051b604051601f19603f83011681018181108582111715610cb457610cb4610c28565b604052918252848201925083810185019188831115610cd257600080fd5b938501935b82851015610cf057843584529385019392850192610cd7565b98975050505050505050565b6020808252825182820181905260009190848201906040850190845b81811015610d3457835183529284019291840191600101610d18565b50909695505050505050565b60008060408385031215610d5357600080fd5b50508035926020909101359150565b600060208284031215610d7457600080fd5b5035919050565b80356001600160a01b0381168114610d9257600080fd5b919050565b60008083601f840112610da957600080fd5b50813567ffffffffffffffff811115610dc157600080fd5b602083019150836020828501011115610dd957600080fd5b9250929050565b6000806000806000806000806000806101008b8d031215610e0057600080fd5b8a35995060208b0135985060408b0135975060608b01359650610e2560808c01610d7b565b9550610e3360a08c01610d7b565b945060c08b013567ffffffffffffffff80821115610e5057600080fd5b610e5c8e838f01610d97565b909650945060e08d0135915080821115610e7557600080fd5b50610e828d828e01610d97565b915080935050809150509295989b9194979a5092959850565b6000815180845260005b81811015610ec157602081850181015186830182015201610ea5565b506000602082860101526020601f19601f83011685010191505092915050565b60006101408c83528b60208401528a604084015289606084015288608084015260018060a01b0380891660a085015280881660c085015280871660e08501525080610100840152610f3481840186610e9b565b9050828103610120840152610f498185610e9b565b9d9c50505050505050505050505050565b634e487b7160e01b600052603260045260246000fd5b600060018201610f9057634e487b7160e01b600052601160045260246000fd5b5060010190565b6020808252600c908201526b494e56414c49445f54494d4560a01b604082015260600190565b600060208284031215610fcf57600080fd5b81518015158114610fdf57600080fd5b9392505050565b600181811c90821680610ffa57607f821691505b602082108103610c2257634e487b7160e01b600052602260045260246000fd5b601f82111561106457600081815260208120601f850160051c810160208610156110415750805b601f850160051c820191505b818110156110605782815560010161104d565b5050505b505050565b815167ffffffffffffffff81111561108357611083610c28565b611097816110918454610fe6565b8461101a565b602080601f8311600181146110cc57600084156110b45750858301515b600019600386901b1c1916600185901b178555611060565b600085815260208120601f198616915b828110156110fb578886015182559484019460019091019084016110dc565b50858210156111195787850151600019600388901b60f8161c191681555b5050505050600190811b01905550565b81835281816020850137506000828201602090810191909152601f909101601f19169091010190565b89815288602082015287604082015286606082015285608082015260e060a0820152600061118460e083018688611129565b82810360c0840152611197818587611129565b9c9b50505050505050505050505056fea26469706673582212205eae60be9c1c08bbd70551f1fad9ddf248e60861c2744f3f84860dae3dbdddb464736f6c63430008130033",
    "sourcePath": "/home/peter/a/cacti-1/packages/cactus-plugin-htlc-eth-besu-erc20/src/main/solidity/contracts/HashedTimeLockContract.sol",
    "compiler": {
        "name": "solc",
        "version": "0.8.19+commit.7dd6d404"
    },
    "functionHashes": {
        "ACTIVE()": "c90bd047",
        "EXPIRED()": "414ac85b",
        "INVALID()": "7fcce2a9",
        "REFUNDED()": "94e15c8f",
        "WITHDRAWN()": "af78feef",
        "contracts(bytes32)": "ec56a373",
        "getSingleStatus(bytes32)": "fbdf3b43",
        "getStatus(bytes32[])": "2f21a663",
        "newContract(uint256,uint256,uint256,bytes32,address,address,string,string)": "d2fd8b76",
        "refund(bytes32)": "7249fbb6",
        "withdraw(bytes32,bytes32)": "63615149"
    },
    "gasEstimates": {
        "creation": {
            "codeDepositCost": "914600",
            "executionCost": "948",
            "totalCost": "915548"
        },
        "external": {
            "ACTIVE()": "239",
            "EXPIRED()": "218",
            "INVALID()": "284",
            "REFUNDED()": "195",
            "WITHDRAWN()": "217",
            "contracts(bytes32)": "infinite",
            "getSingleStatus(bytes32)": "infinite",
            "getStatus(bytes32[])": "infinite",
            "newContract(uint256,uint256,uint256,bytes32,address,address,string,string)": "infinite",
            "refund(bytes32)": "infinite",
            "withdraw(bytes32,bytes32)": "infinite"
        }
    }
}