{"abi":[{"type":"constructor","inputs":[],"stateMutability":"nonpayable"},{"type":"function","name":"CUSTOMER_ROLE","inputs":[],"outputs":[{"name":"","type":"bytes32","internalType":"bytes32"}],"stateMutability":"view"},{"type":"function","name":"MANUFACTURER_ROLE","inputs":[],"outputs":[{"name":"","type":"bytes32","internalType":"bytes32"}],"stateMutability":"view"},{"type":"function","name":"addCustomer","inputs":[{"name":"account","type":"address","internalType":"address"}],"outputs":[],"stateMutability":"nonpayable"},{"type":"function","name":"addManufacturer","inputs":[{"name":"account","type":"address","internalType":"address"}],"outputs":[],"stateMutability":"nonpayable"},{"type":"function","name":"addManufacturers","inputs":[{"name":"accounts","type":"address[]","internalType":"address[]"}],"outputs":[],"stateMutability":"nonpayable"},{"type":"function","name":"getFabricIdentity","inputs":[{"name":"account","type":"address","internalType":"address"}],"outputs":[{"name":"","type":"string","internalType":"string"}],"stateMutability":"view"},{"type":"function","name":"getManufacturerFabricIdentity","inputs":[{"name":"account","type":"address","internalType":"address"}],"outputs":[{"name":"identity","type":"string","internalType":"string"},{"name":"mspId","type":"string","internalType":"string"}],"stateMutability":"view"},{"type":"function","name":"getMspId","inputs":[{"name":"account","type":"address","internalType":"address"}],"outputs":[{"name":"","type":"string","internalType":"string"}],"stateMutability":"view"},{"type":"function","name":"grantRole","inputs":[{"name":"role","type":"bytes32","internalType":"bytes32"},{"name":"account","type":"address","internalType":"address"},{"name":"fabricIdentity","type":"string","internalType":"string"},{"name":"mspId","type":"string","internalType":"string"}],"outputs":[],"stateMutability":"nonpayable"},{"type":"function","name":"hasRole","inputs":[{"name":"role","type":"bytes32","internalType":"bytes32"},{"name":"account","type":"address","internalType":"address"}],"outputs":[{"name":"","type":"bool","internalType":"bool"}],"stateMutability":"view"},{"type":"function","name":"isCustomer","inputs":[{"name":"account","type":"address","internalType":"address"}],"outputs":[{"name":"","type":"bool","internalType":"bool"}],"stateMutability":"view"},{"type":"function","name":"isManufacturer","inputs":[{"name":"account","type":"address","internalType":"address"}],"outputs":[{"name":"","type":"bool","internalType":"bool"}],"stateMutability":"view"},{"type":"function","name":"revokeRole","inputs":[{"name":"role","type":"bytes32","internalType":"bytes32"},{"name":"account","type":"address","internalType":"address"}],"outputs":[],"stateMutability":"nonpayable"},{"type":"function","name":"transferAdmin","inputs":[{"name":"newAdmin","type":"address","internalType":"address"}],"outputs":[],"stateMutability":"nonpayable"},{"type":"event","name":"AdminTransferred","inputs":[{"name":"previousAdmin","type":"address","indexed":true,"internalType":"address"},{"name":"newAdmin","type":"address","indexed":true,"internalType":"address"}],"anonymous":false},{"type":"event","name":"RoleGranted","inputs":[{"name":"role","type":"bytes32","indexed":true,"internalType":"bytes32"},{"name":"account","type":"address","indexed":true,"internalType":"address"},{"name":"fabricIdentity","type":"string","indexed":false,"internalType":"string"},{"name":"mspId","type":"string","indexed":false,"internalType":"string"}],"anonymous":false},{"type":"event","name":"RoleRevoked","inputs":[{"name":"role","type":"bytes32","indexed":true,"internalType":"bytes32"},{"name":"account","type":"address","indexed":true,"internalType":"address"}],"anonymous":false}],"bytecode":{"object":"0x608060405234801561001057600080fd5b50600380546001600160a01b031916339081179091556040516000907ff8ccb027dfcd135e000e9d45e6cc2d662578a8825d4c45b5e32e0adf67e79ec6908290a3610f85806100606000396000f3fe608060405234801561001057600080fd5b50600436106100ea5760003560e01c806375829def1161008c578063ad973d7411610066578063ad973d7414610288578063ccd38d571461029b578063d547741f146102bc578063d91043c3146102cf57600080fd5b806375829def1461022c57806391d148541461023f578063965288b01461027357600080fd5b8063204d7923116100c8578063204d79231461016f57806328fd5e83146101a45780632f5965f8146101f95780635f8a5afa1461021957600080fd5b80630a3ac0af146100ef57806311bb8b961461010457806317d4a49114610117575b600080fd5b6101026100fd366004610b30565b6102e2565b005b610102610112366004610bae565b610327565b61015a610125366004610c5b565b6001600160a01b0316600090815260208181526040808320600080516020610f30833981519152845290915290205460ff1690565b60405190151581526020015b60405180910390f35b6101967f46e0d1fa2be0423550e96859e7c25c6f3178358b189469f16373069e7f092a0a81565b604051908152602001610166565b61015a6101b2366004610c5b565b6001600160a01b03166000908152602081815260408083207f46e0d1fa2be0423550e96859e7c25c6f3178358b189469f16373069e7f092a0a845290915290205460ff1690565b61020c610207366004610c5b565b61042d565b6040516101669190610cc3565b610102610227366004610c5b565b6104d9565b61010261023a366004610c5b565b610582565b61015a61024d366004610cd6565b6001600160a01b0316600090815260208181526040808320938352929052205460ff1690565b610196600080516020610f3083398151915281565b610102610296366004610c5b565b610663565b6102ae6102a9366004610c5b565b61071b565b604051610166929190610d02565b6101026102ca366004610cd6565b6108e4565b61020c6102dd366004610c5b565b610962565b6003546001600160a01b031633146103155760405162461bcd60e51b815260040161030c90610d30565b60405180910390fd5b61032184848484610989565b50505050565b6003546001600160a01b031633146103515760405162461bcd60e51b815260040161030c90610d30565b60005b81518110156104295760006001600160a01b031682828151811061037a5761037a610d65565b60200260200101516001600160a01b0316036103a85760405162461bcd60e51b815260040161030c90610d7b565b610417600080516020610f308339815191528383815181106103cc576103cc610d65565b6020026020010151604051806040016040528060058152602001643ab9b2b91960d91b8152506040518060400160405280600781526020016604f7267324d53560cc1b815250610989565b8061042181610dbf565b915050610354565b5050565b6001600160a01b038116600090815260026020526040902080546060919061045490610de6565b80601f016020809104026020016040519081016040528092919081815260200182805461048090610de6565b80156104cd5780601f106104a2576101008083540402835291602001916104cd565b820191906000526020600020905b8154815290600101906020018083116104b057829003601f168201915b50505050509050919050565b6003546001600160a01b031633146105035760405162461bcd60e51b815260040161030c90610d30565b6001600160a01b0381166105295760405162461bcd60e51b815260040161030c90610d7b565b61057f600080516020610f3083398151915282604051806040016040528060058152602001643ab9b2b91960d91b8152506040518060400160405280600781526020016604f7267324d53560cc1b815250610989565b50565b6003546001600160a01b031633146105ac5760405162461bcd60e51b815260040161030c90610d30565b6001600160a01b0381166106115760405162461bcd60e51b815260206004820152602660248201527f526f6c654d616e616765723a206e65772061646d696e206973207a65726f206160448201526564647265737360d01b606482015260840161030c565b600380546001600160a01b038381166001600160a01b0319831681179093556040519116919082907ff8ccb027dfcd135e000e9d45e6cc2d662578a8825d4c45b5e32e0adf67e79ec690600090a35050565b6003546001600160a01b0316331461068d5760405162461bcd60e51b815260040161030c90610d30565b6001600160a01b0381166106b35760405162461bcd60e51b815260040161030c90610d7b565b61057f7f46e0d1fa2be0423550e96859e7c25c6f3178358b189469f16373069e7f092a0a8260405180604001604052806005815260200164757365723160d81b8152506040518060400160405280600781526020016604f7267314d53560cc1b815250610989565b6001600160a01b038116600090815260208181526040808320600080516020610f308339815191528452909152902054606090819060ff1661079f5760405162461bcd60e51b815260206004820152601d60248201527f4163636f756e74206973206e6f742061206d616e756661637475726572000000604482015260640161030c565b6001600160a01b03831660009081526001602090815260408083206002909252909120815482906107cf90610de6565b80601f01602080910402602001604051908101604052809291908181526020018280546107fb90610de6565b80156108485780601f1061081d57610100808354040283529160200191610848565b820191906000526020600020905b81548152906001019060200180831161082b57829003601f168201915b5050505050915080805461085b90610de6565b80601f016020809104026020016040519081016040528092919081815260200182805461088790610de6565b80156108d45780601f106108a9576101008083540402835291602001916108d4565b820191906000526020600020905b8154815290600101906020018083116108b757829003601f168201915b5050505050905091509150915091565b6003546001600160a01b0316331461090e5760405162461bcd60e51b815260040161030c90610d30565b6001600160a01b038116600081815260208181526040808320868452909152808220805460ff191690555184917f155aaafb6329a2098580462df33ec4b7441b19729b9601c5fc17ae1cf99a8a5291a35050565b6001600160a01b038116600090815260016020526040902080546060919061045490610de6565b6001600160a01b0383166109af5760405162461bcd60e51b815260040161030c90610d7b565b6001600160a01b0383166000818152602081815260408083208884528252808320805460ff19166001908117909155938352929052206109ef8382610e6f565b506001600160a01b0383166000908152600260205260409020610a128282610e6f565b50826001600160a01b0316847f52d356082b2d6e23b0695673fa96121f1551077575ff52ab848392f38275787e8484604051610a4f929190610d02565b60405180910390a350505050565b80356001600160a01b0381168114610a7457600080fd5b919050565b634e487b7160e01b600052604160045260246000fd5b604051601f8201601f1916810167ffffffffffffffff81118282101715610ab857610ab8610a79565b604052919050565b600082601f830112610ad157600080fd5b813567ffffffffffffffff811115610aeb57610aeb610a79565b610afe601f8201601f1916602001610a8f565b818152846020838601011115610b1357600080fd5b816020850160208301376000918101602001919091529392505050565b60008060008060808587031215610b4657600080fd5b84359350610b5660208601610a5d565b9250604085013567ffffffffffffffff80821115610b7357600080fd5b610b7f88838901610ac0565b93506060870135915080821115610b9557600080fd5b50610ba287828801610ac0565b91505092959194509250565b60006020808385031215610bc157600080fd5b823567ffffffffffffffff80821115610bd957600080fd5b818501915085601f830112610bed57600080fd5b813581811115610bff57610bff610a79565b8060051b9150610c10848301610a8f565b8181529183018401918481019088841115610c2a57600080fd5b938501935b83851015610c4f57610c4085610a5d565b82529385019390850190610c2f565b98975050505050505050565b600060208284031215610c6d57600080fd5b610c7682610a5d565b9392505050565b6000815180845260005b81811015610ca357602081850181015186830182015201610c87565b506000602082860101526020601f19601f83011685010191505092915050565b602081526000610c766020830184610c7d565b60008060408385031215610ce957600080fd5b82359150610cf960208401610a5d565b90509250929050565b604081526000610d156040830185610c7d565b8281036020840152610d278185610c7d565b95945050505050565b6020808252818101527f526f6c654d616e616765723a2063616c6c6572206973206e6f742061646d696e604082015260600190565b634e487b7160e01b600052603260045260246000fd5b60208082526024908201527f526f6c654d616e616765723a206163636f756e74206973207a65726f206164646040820152637265737360e01b606082015260800190565b600060018201610ddf57634e487b7160e01b600052601160045260246000fd5b5060010190565b600181811c90821680610dfa57607f821691505b602082108103610e1a57634e487b7160e01b600052602260045260246000fd5b50919050565b601f821115610e6a57600081815260208120601f850160051c81016020861015610e475750805b601f850160051c820191505b81811015610e6657828155600101610e53565b5050505b505050565b815167ffffffffffffffff811115610e8957610e89610a79565b610e9d81610e978454610de6565b84610e20565b602080601f831160018114610ed25760008415610eba5750858301515b600019600386901b1c1916600185901b178555610e66565b600085815260208120601f198616915b82811015610f0157888601518255948401946001909101908401610ee2565b5085821015610f1f5787850151600019600388901b60f8161c191681555b5050505050600190811b0190555056fe6659d833875b88922d2576dad6c137a09ba676496bb2010bf8a72397792167a0a26469706673582212201bf893c83b40cd496ede4960196964effc3d482d6b58dcf135b81e10973d2bba64736f6c63430008130033","linkReferences":{}},"methodIdentifiers":{"CUSTOMER_ROLE()":"204d7923","MANUFACTURER_ROLE()":"965288b0","addCustomer(address)":"ad973d74","addManufacturer(address)":"5f8a5afa","addManufacturers(address[])":"11bb8b96","getFabricIdentity(address)":"d91043c3","getManufacturerFabricIdentity(address)":"ccd38d57","getMspId(address)":"2f5965f8","grantRole(bytes32,address,string,string)":"0a3ac0af","hasRole(bytes32,address)":"91d14854","isCustomer(address)":"28fd5e83","isManufacturer(address)":"17d4a491","revokeRole(bytes32,address)":"d547741f","transferAdmin(address)":"75829def"},"id":4}