{
    "contractName": "HelloWorldWithEvent",
    "abi": [
        {
            "anonymous": false,
            "inputs": [
                {
                    "indexed": false,
                    "internalType": "string",
                    "name": "message",
                    "type": "string"
                }
            ],
            "name": "HelloWorldEvent",
            "type": "event"
        },
        {
            "inputs": [],
            "name": "getName",
            "outputs": [
                {
                    "internalType": "string",
                    "name": "",
                    "type": "string"
                }
            ],
            "stateMutability": "view",
            "type": "function"
        },
        {
            "inputs": [],
            "name": "sayHello",
            "outputs": [
                {
                    "internalType": "string",
                    "name": "",
                    "type": "string"
                }
            ],
            "stateMutability": "nonpayable",
            "type": "function"
        },
        {
            "inputs": [
                {
                    "internalType": "string",
                    "name": "newName",
                    "type": "string"
                }
            ],
            "name": "setName",
            "outputs": [],
            "stateMutability": "nonpayable",
            "type": "function"
        }
    ],
    "bytecode": "608060405234156100105760006000fd5b60c0604052600d6080527f4361707461696e4361637475730000000000000000000000000000000000000060a0526000805460027fffffffffffffffffffffffffffffffffffffffffffffffffffffffffffffffff60018316156101000201821604905081601f8211801561008b57610088846100c9565b91505b80156100a4576100a36020601f8501048301836100da565b5b5050506100b4600d60a0516100f8565b81556104878061013383398082f35050610131565b60008181526020812090505b919050565b5b818110156100f357600081555b6001810190506100db565b5b5050565b6000826002027fffffffffffffffffffffffffffffffffffffffffffffffffffffffffffffffff846008021c1983161790505b92915050565bfe60806040526004361015156100de576000803560e01c6317d7de7c811461003b5763c47f002781146100775763ef5fb05b81146100a4576100db565b3415610045578182fd5b6100503660046100e8565b61005982610240565b610062836101e6565b8061006d838361018c565b0381f350506100db565b3415610081578182fd5b61009461008f3660046100fe565b610381565b8161009e836101e6565bf36100db565b34156100ae578182fd5b6100b93660046100e8565b6100c16102ee565b6100ca836101e6565b806100d5838361018c565b0381f350505b50505b60006000fd610486565b600081830312156100f95760006000fd5b5b5050565b60006020808385031215610110578182fd5b823567ffffffffffffffff80821115610127578384fd5b818501915085601f830112151561013c578384fd5b81358181111561014857fe5b61015a84601f19601f840116016101e6565b9150808252868482850101111561016f578485fd5b808484018584013784848284010152508093505050505b92915050565b6000602080835283518082850152825b818110156101bc57828187010151604082870101525b828101905061019c565b818111156101cd5783604083870101525b506040601f19601f830116850101925050505b92915050565b6000604051905081810181811067ffffffffffffffff8211171561020657fe5b80604052505b919050565b60008181526020812090505b919050565b5b8181101561023b57600081555b600181019050610223565b5b5050565b60006040519050600082546001808216600081146102655760018114610283576102c4565b607f6002840416855260ff19831660208601526040850193506102c4565b6002830480865261029387610211565b60005b828110156102b85781546020828a01015284820191505b602081019050610296565b60208189010196505050505b50505080604052505b919050565b600060026000196001841615610100020183160490505b919050565b600060405160208152600c60208201527f48656c6c6f20576f726c642100000000000000000000000000000000000000008060408301527fa40dfd2729daee195cadae2e21e670770eb2c560f5e9b65305e48f5782f3be1c606083a160405191506040820182811067ffffffffffffffff8211171561036957fe5b8060405250600c825280602083015250809150505b90565b805167ffffffffffffffff81111561039557fe5b60006103a181546102d2565b816020905082601f8511601f8411818117156103c3576103c086610211565b92505b80156103f05783601f8801048301848810156103dd578390505b6103ee85601f880104850182610222565b505b50806001811461042157859450861561040a578388015194505b86600202600019886008021c19861617865561047b565b601f198716945082865b8681101561045157858a015182556001820191506020860195505b60208101905061042b565b50878610156104705784890151600019601f8a166008021c1981168255505b506001600288020186555b505050505050505b50565b",
    "deployedBytecode": "",
    "sourcePath": "/Users/andre/Documents/GitHub/cacti/packages/cactus-plugin-ledger-connector-ethereum/src/test/solidity/hello-world-contract-with-event-emission/HelloWorldWithEvent.sol",
    "compiler": {
        "name": "solc",
        "version": "0.7.6+commit.7338295f"
    },
    "functionHashes": {
        "getName()": "17d7de7c",
        "sayHello()": "ef5fb05b",
        "setName(string)": "c47f0027"
    }
}