{
  "_format": "hh-sol-artifact-1",
  "contractName": "NetEmissionsTokenNetwork",
  "sourceName": "src/main/solidity/net-emissions-token-network/NetEmissionsTokenNetwork.sol",
  "abi": [
    {
      "anonymous": false,
      "inputs": [
        {
          "indexed": true,
          "internalType": "address",
          "name": "account",
          "type": "address"
        },
        {
          "indexed": true,
          "internalType": "address",
          "name": "operator",
          "type": "address"
        },
        {
          "indexed": false,
          "internalType": "bool",
          "name": "approved",
          "type": "bool"
        }
      ],
      "name": "ApprovalForAll",
      "type": "event"
    },
    {
      "anonymous": false,
      "inputs": [
        {
          "indexed": true,
          "internalType": "address",
          "name": "account",
          "type": "address"
        }
      ],
      "name": "RegisteredConsumer",
      "type": "event"
    },
    {
      "anonymous": false,
      "inputs": [
        {
          "indexed": true,
          "internalType": "address",
          "name": "account",
          "type": "address"
        }
      ],
      "name": "RegisteredDealer",
      "type": "event"
    },
    {
      "anonymous": false,
      "inputs": [
        {
          "indexed": true,
          "internalType": "bytes32",
          "name": "role",
          "type": "bytes32"
        },
        {
          "indexed": true,
          "internalType": "bytes32",
          "name": "previousAdminRole",
          "type": "bytes32"
        },
        {
          "indexed": true,
          "internalType": "bytes32",
          "name": "newAdminRole",
          "type": "bytes32"
        }
      ],
      "name": "RoleAdminChanged",
      "type": "event"
    },
    {
      "anonymous": false,
      "inputs": [
        {
          "indexed": true,
          "internalType": "bytes32",
          "name": "role",
          "type": "bytes32"
        },
        {
          "indexed": true,
          "internalType": "address",
          "name": "account",
          "type": "address"
        },
        {
          "indexed": true,
          "internalType": "address",
          "name": "sender",
          "type": "address"
        }
      ],
      "name": "RoleGranted",
      "type": "event"
    },
    {
      "anonymous": false,
      "inputs": [
        {
          "indexed": true,
          "internalType": "bytes32",
          "name": "role",
          "type": "bytes32"
        },
        {
          "indexed": true,
          "internalType": "address",
          "name": "account",
          "type": "address"
        },
        {
          "indexed": true,
          "internalType": "address",
          "name": "sender",
          "type": "address"
        }
      ],
      "name": "RoleRevoked",
      "type": "event"
    },
    {
      "anonymous": false,
      "inputs": [
        {
          "indexed": false,
          "internalType": "uint256",
          "name": "availableBalance",
          "type": "uint256"
        },
        {
          "indexed": false,
          "internalType": "uint256",
          "name": "retiredBalance",
          "type": "uint256"
        },
        {
          "indexed": false,
          "internalType": "uint256",
          "name": "tokenId",
          "type": "uint256"
        },
        {
          "indexed": false,
          "internalType": "uint8",
          "name": "tokenTypeId",
          "type": "uint8"
        },
        {
          "indexed": true,
          "internalType": "address",
          "name": "issuer",
          "type": "address"
        },
        {
          "indexed": true,
          "internalType": "address",
          "name": "issuee",
          "type": "address"
        },
        {
          "indexed": false,
          "internalType": "uint256",
          "name": "fromDate",
          "type": "uint256"
        },
        {
          "indexed": false,
          "internalType": "uint256",
          "name": "thruDate",
          "type": "uint256"
        },
        {
          "indexed": false,
          "internalType": "uint256",
          "name": "dateCreated",
          "type": "uint256"
        },
        {
          "indexed": false,
          "internalType": "uint256",
          "name": "automaticRetireDate",
          "type": "uint256"
        },
        {
          "indexed": false,
          "internalType": "string",
          "name": "metadata",
          "type": "string"
        },
        {
          "indexed": false,
          "internalType": "string",
          "name": "manifest",
          "type": "string"
        },
        {
          "indexed": false,
          "internalType": "string",
          "name": "description",
          "type": "string"
        }
      ],
      "name": "TokenCreated",
      "type": "event"
    },
    {
      "anonymous": false,
      "inputs": [
        {
          "indexed": true,
          "internalType": "address",
          "name": "account",
          "type": "address"
        },
        {
          "indexed": false,
          "internalType": "uint256",
          "name": "tokenId",
          "type": "uint256"
        },
        {
          "indexed": false,
          "internalType": "uint256",
          "name": "amount",
          "type": "uint256"
        }
      ],
      "name": "TokenRetired",
      "type": "event"
    },
    {
      "anonymous": false,
      "inputs": [
        {
          "indexed": true,
          "internalType": "address",
          "name": "operator",
          "type": "address"
        },
        {
          "indexed": true,
          "internalType": "address",
          "name": "from",
          "type": "address"
        },
        {
          "indexed": true,
          "internalType": "address",
          "name": "to",
          "type": "address"
        },
        {
          "indexed": false,
          "internalType": "uint256[]",
          "name": "ids",
          "type": "uint256[]"
        },
        {
          "indexed": false,
          "internalType": "uint256[]",
          "name": "values",
          "type": "uint256[]"
        }
      ],
      "name": "TransferBatch",
      "type": "event"
    },
    {
      "anonymous": false,
      "inputs": [
        {
          "indexed": true,
          "internalType": "address",
          "name": "operator",
          "type": "address"
        },
        {
          "indexed": true,
          "internalType": "address",
          "name": "from",
          "type": "address"
        },
        {
          "indexed": true,
          "internalType": "address",
          "name": "to",
          "type": "address"
        },
        {
          "indexed": false,
          "internalType": "uint256",
          "name": "id",
          "type": "uint256"
        },
        {
          "indexed": false,
          "internalType": "uint256",
          "name": "value",
          "type": "uint256"
        }
      ],
      "name": "TransferSingle",
      "type": "event"
    },
    {
      "anonymous": false,
      "inputs": [
        {
          "indexed": false,
          "internalType": "string",
          "name": "value",
          "type": "string"
        },
        {
          "indexed": true,
          "internalType": "uint256",
          "name": "id",
          "type": "uint256"
        }
      ],
      "name": "URI",
      "type": "event"
    },
    {
      "anonymous": false,
      "inputs": [
        {
          "indexed": true,
          "internalType": "address",
          "name": "account",
          "type": "address"
        }
      ],
      "name": "UnregisteredConsumer",
      "type": "event"
    },
    {
      "anonymous": false,
      "inputs": [
        {
          "indexed": true,
          "internalType": "address",
          "name": "account",
          "type": "address"
        }
      ],
      "name": "UnregisteredDealer",
      "type": "event"
    },
    {
      "inputs": [],
      "name": "DEFAULT_ADMIN_ROLE",
      "outputs": [
        {
          "internalType": "bytes32",
          "name": "",
          "type": "bytes32"
        }
      ],
      "stateMutability": "view",
      "type": "function"
    },
    {
      "inputs": [],
      "name": "REGISTERED_CONSUMER",
      "outputs": [
        {
          "internalType": "bytes32",
          "name": "",
          "type": "bytes32"
        }
      ],
      "stateMutability": "view",
      "type": "function"
    },
    {
      "inputs": [],
      "name": "REGISTERED_DEALER",
      "outputs": [
        {
          "internalType": "bytes32",
          "name": "",
          "type": "bytes32"
        }
      ],
      "stateMutability": "view",
      "type": "function"
    },
    {
      "inputs": [],
      "name": "REGISTERED_EMISSIONS_AUDITOR",
      "outputs": [
        {
          "internalType": "bytes32",
          "name": "",
          "type": "bytes32"
        }
      ],
      "stateMutability": "view",
      "type": "function"
    },
    {
      "inputs": [],
      "name": "REGISTERED_OFFSET_DEALER",
      "outputs": [
        {
          "internalType": "bytes32",
          "name": "",
          "type": "bytes32"
        }
      ],
      "stateMutability": "view",
      "type": "function"
    },
    {
      "inputs": [],
      "name": "REGISTERED_REC_DEALER",
      "outputs": [
        {
          "internalType": "bytes32",
          "name": "",
          "type": "bytes32"
        }
      ],
      "stateMutability": "view",
      "type": "function"
    },
    {
      "inputs": [],
      "name": "admin",
      "outputs": [
        {
          "internalType": "address",
          "name": "",
          "type": "address"
        }
      ],
      "stateMutability": "view",
      "type": "function"
    },
    {
      "inputs": [
        {
          "internalType": "address",
          "name": "account",
          "type": "address"
        },
        {
          "internalType": "uint256",
          "name": "id",
          "type": "uint256"
        }
      ],
      "name": "balanceOf",
      "outputs": [
        {
          "internalType": "uint256",
          "name": "",
          "type": "uint256"
        }
      ],
      "stateMutability": "view",
      "type": "function"
    },
    {
      "inputs": [
        {
          "internalType": "address[]",
          "name": "accounts",
          "type": "address[]"
        },
        {
          "internalType": "uint256[]",
          "name": "ids",
          "type": "uint256[]"
        }
      ],
      "name": "balanceOfBatch",
      "outputs": [
        {
          "internalType": "uint256[]",
          "name": "",
          "type": "uint256[]"
        }
      ],
      "stateMutability": "view",
      "type": "function"
    },
    {
      "inputs": [
        {
          "internalType": "address",
          "name": "account",
          "type": "address"
        },
        {
          "internalType": "uint256",
          "name": "tokenId",
          "type": "uint256"
        }
      ],
      "name": "getAvailableAndRetired",
      "outputs": [
        {
          "internalType": "uint256",
          "name": "",
          "type": "uint256"
        },
        {
          "internalType": "uint256",
          "name": "",
          "type": "uint256"
        }
      ],
      "stateMutability": "view",
      "type": "function"
    },
    {
      "inputs": [
        {
          "internalType": "uint256",
          "name": "tokenId",
          "type": "uint256"
        }
      ],
      "name": "getIssuer",
      "outputs": [
        {
          "internalType": "address",
          "name": "",
          "type": "address"
        }
      ],
      "stateMutability": "view",
      "type": "function"
    },
    {
      "inputs": [],
      "name": "getNumOfUniqueTokens",
      "outputs": [
        {
          "internalType": "uint256",
          "name": "",
          "type": "uint256"
        }
      ],
      "stateMutability": "view",
      "type": "function"
    },
    {
      "inputs": [
        {
          "internalType": "bytes32",
          "name": "role",
          "type": "bytes32"
        }
      ],
      "name": "getRoleAdmin",
      "outputs": [
        {
          "internalType": "bytes32",
          "name": "",
          "type": "bytes32"
        }
      ],
      "stateMutability": "view",
      "type": "function"
    },
    {
      "inputs": [
        {
          "internalType": "bytes32",
          "name": "role",
          "type": "bytes32"
        },
        {
          "internalType": "uint256",
          "name": "index",
          "type": "uint256"
        }
      ],
      "name": "getRoleMember",
      "outputs": [
        {
          "internalType": "address",
          "name": "",
          "type": "address"
        }
      ],
      "stateMutability": "view",
      "type": "function"
    },
    {
      "inputs": [
        {
          "internalType": "bytes32",
          "name": "role",
          "type": "bytes32"
        }
      ],
      "name": "getRoleMemberCount",
      "outputs": [
        {
          "internalType": "uint256",
          "name": "",
          "type": "uint256"
        }
      ],
      "stateMutability": "view",
      "type": "function"
    },
    {
      "inputs": [
        {
          "internalType": "address",
          "name": "account",
          "type": "address"
        }
      ],
      "name": "getRoles",
      "outputs": [
        {
          "internalType": "bool",
          "name": "",
          "type": "bool"
        },
        {
          "internalType": "bool",
          "name": "",
          "type": "bool"
        },
        {
          "internalType": "bool",
          "name": "",
          "type": "bool"
        },
        {
          "internalType": "bool",
          "name": "",
          "type": "bool"
        },
        {
          "internalType": "bool",
          "name": "",
          "type": "bool"
        }
      ],
      "stateMutability": "view",
      "type": "function"
    },
    {
      "inputs": [
        {
          "internalType": "uint256",
          "name": "tokenId",
          "type": "uint256"
        }
      ],
      "name": "getTokenDetails",
      "outputs": [
        {
          "components": [
            {
              "internalType": "uint256",
              "name": "tokenId",
              "type": "uint256"
            },
            {
              "internalType": "uint8",
              "name": "tokenTypeId",
              "type": "uint8"
            },
            {
              "internalType": "address",
              "name": "issuer",
              "type": "address"
            },
            {
              "internalType": "address",
              "name": "issuee",
              "type": "address"
            },
            {
              "internalType": "uint256",
              "name": "fromDate",
              "type": "uint256"
            },
            {
              "internalType": "uint256",
              "name": "thruDate",
              "type": "uint256"
            },
            {
              "internalType": "uint256",
              "name": "dateCreated",
              "type": "uint256"
            },
            {
              "internalType": "uint256",
              "name": "automaticRetireDate",
              "type": "uint256"
            },
            {
              "internalType": "string",
              "name": "metadata",
              "type": "string"
            },
            {
              "internalType": "string",
              "name": "manifest",
              "type": "string"
            },
            {
              "internalType": "string",
              "name": "description",
              "type": "string"
            }
          ],
          "internalType": "struct NetEmissionsTokenNetwork.CarbonTokenDetails",
          "name": "",
          "type": "tuple"
        }
      ],
      "stateMutability": "view",
      "type": "function"
    },
    {
      "inputs": [
        {
          "internalType": "address",
          "name": "account",
          "type": "address"
        },
        {
          "internalType": "uint256",
          "name": "tokenId",
          "type": "uint256"
        }
      ],
      "name": "getTokenRetiredAmount",
      "outputs": [
        {
          "internalType": "uint256",
          "name": "",
          "type": "uint256"
        }
      ],
      "stateMutability": "view",
      "type": "function"
    },
    {
      "inputs": [
        {
          "internalType": "uint256",
          "name": "tokenId",
          "type": "uint256"
        }
      ],
      "name": "getTokenType",
      "outputs": [
        {
          "internalType": "string",
          "name": "",
          "type": "string"
        }
      ],
      "stateMutability": "view",
      "type": "function"
    },
    {
      "inputs": [
        {
          "internalType": "bytes32",
          "name": "role",
          "type": "bytes32"
        },
        {
          "internalType": "address",
          "name": "account",
          "type": "address"
        }
      ],
      "name": "grantRole",
      "outputs": [],
      "stateMutability": "nonpayable",
      "type": "function"
    },
    {
      "inputs": [
        {
          "internalType": "bytes32",
          "name": "role",
          "type": "bytes32"
        },
        {
          "internalType": "address",
          "name": "account",
          "type": "address"
        }
      ],
      "name": "hasRole",
      "outputs": [
        {
          "internalType": "bool",
          "name": "",
          "type": "bool"
        }
      ],
      "stateMutability": "view",
      "type": "function"
    },
    {
      "inputs": [
        {
          "internalType": "address",
          "name": "_admin",
          "type": "address"
        }
      ],
      "name": "initialize",
      "outputs": [],
      "stateMutability": "nonpayable",
      "type": "function"
    },
    {
      "inputs": [
        {
          "internalType": "address",
          "name": "account",
          "type": "address"
        },
        {
          "internalType": "address",
          "name": "operator",
          "type": "address"
        }
      ],
      "name": "isApprovedForAll",
      "outputs": [
        {
          "internalType": "bool",
          "name": "",
          "type": "bool"
        }
      ],
      "stateMutability": "view",
      "type": "function"
    },
    {
      "inputs": [
        {
          "internalType": "address",
          "name": "account",
          "type": "address"
        }
      ],
      "name": "isConsumerRegistered",
      "outputs": [
        {
          "internalType": "bool",
          "name": "",
          "type": "bool"
        }
      ],
      "stateMutability": "view",
      "type": "function"
    },
    {
      "inputs": [
        {
          "internalType": "address",
          "name": "account",
          "type": "address"
        }
      ],
      "name": "isDealerRegistered",
      "outputs": [
        {
          "internalType": "bool",
          "name": "",
          "type": "bool"
        }
      ],
      "stateMutability": "view",
      "type": "function"
    },
    {
      "inputs": [
        {
          "internalType": "address",
          "name": "issuee",
          "type": "address"
        },
        {
          "internalType": "uint8",
          "name": "tokenTypeId",
          "type": "uint8"
        },
        {
          "internalType": "uint256",
          "name": "quantity",
          "type": "uint256"
        },
        {
          "internalType": "uint256",
          "name": "fromDate",
          "type": "uint256"
        },
        {
          "internalType": "uint256",
          "name": "thruDate",
          "type": "uint256"
        },
        {
          "internalType": "uint256",
          "name": "automaticRetireDate",
          "type": "uint256"
        },
        {
          "internalType": "string",
          "name": "metadata",
          "type": "string"
        },
        {
          "internalType": "string",
          "name": "manifest",
          "type": "string"
        },
        {
          "internalType": "string",
          "name": "description",
          "type": "string"
        }
      ],
      "name": "issue",
      "outputs": [],
      "stateMutability": "nonpayable",
      "type": "function"
    },
    {
      "inputs": [
        {
          "internalType": "address",
          "name": "issuee",
          "type": "address"
        },
        {
          "internalType": "address",
          "name": "issuer",
          "type": "address"
        },
        {
          "internalType": "uint8",
          "name": "tokenTypeId",
          "type": "uint8"
        },
        {
          "internalType": "uint256",
          "name": "quantity",
          "type": "uint256"
        },
        {
          "internalType": "uint256",
          "name": "fromDate",
          "type": "uint256"
        },
        {
          "internalType": "uint256",
          "name": "thruDate",
          "type": "uint256"
        },
        {
          "internalType": "uint256",
          "name": "automaticRetireDate",
          "type": "uint256"
        },
        {
          "internalType": "string",
          "name": "metadata",
          "type": "string"
        },
        {
          "internalType": "string",
          "name": "manifest",
          "type": "string"
        },
        {
          "internalType": "string",
          "name": "description",
          "type": "string"
        }
      ],
      "name": "issueOnBehalf",
      "outputs": [],
      "stateMutability": "nonpayable",
      "type": "function"
    },
    {
      "inputs": [],
      "name": "limitedMode",
      "outputs": [
        {
          "internalType": "bool",
          "name": "",
          "type": "bool"
        }
      ],
      "stateMutability": "view",
      "type": "function"
    },
    {
      "inputs": [
        {
          "internalType": "address",
          "name": "to",
          "type": "address"
        },
        {
          "internalType": "uint256",
          "name": "tokenId",
          "type": "uint256"
        },
        {
          "internalType": "uint256",
          "name": "quantity",
          "type": "uint256"
        }
      ],
      "name": "mint",
      "outputs": [],
      "stateMutability": "nonpayable",
      "type": "function"
    },
    {
      "inputs": [
        {
          "internalType": "address",
          "name": "account",
          "type": "address"
        }
      ],
      "name": "registerConsumer",
      "outputs": [],
      "stateMutability": "nonpayable",
      "type": "function"
    },
    {
      "inputs": [
        {
          "internalType": "address",
          "name": "account",
          "type": "address"
        },
        {
          "internalType": "uint8",
          "name": "tokenTypeId",
          "type": "uint8"
        }
      ],
      "name": "registerDealer",
      "outputs": [],
      "stateMutability": "nonpayable",
      "type": "function"
    },
    {
      "inputs": [
        {
          "internalType": "bytes32",
          "name": "role",
          "type": "bytes32"
        },
        {
          "internalType": "address",
          "name": "account",
          "type": "address"
        }
      ],
      "name": "renounceRole",
      "outputs": [],
      "stateMutability": "nonpayable",
      "type": "function"
    },
    {
      "inputs": [
        {
          "internalType": "uint256",
          "name": "tokenId",
          "type": "uint256"
        },
        {
          "internalType": "uint256",
          "name": "amount",
          "type": "uint256"
        }
      ],
      "name": "retire",
      "outputs": [],
      "stateMutability": "nonpayable",
      "type": "function"
    },
    {
      "inputs": [
        {
          "internalType": "bytes32",
          "name": "role",
          "type": "bytes32"
        },
        {
          "internalType": "address",
          "name": "account",
          "type": "address"
        }
      ],
      "name": "revokeRole",
      "outputs": [],
      "stateMutability": "nonpayable",
      "type": "function"
    },
    {
      "inputs": [
        {
          "internalType": "address",
          "name": "from",
          "type": "address"
        },
        {
          "internalType": "address",
          "name": "to",
          "type": "address"
        },
        {
          "internalType": "uint256[]",
          "name": "ids",
          "type": "uint256[]"
        },
        {
          "internalType": "uint256[]",
          "name": "amounts",
          "type": "uint256[]"
        },
        {
          "internalType": "bytes",
          "name": "data",
          "type": "bytes"
        }
      ],
      "name": "safeBatchTransferFrom",
      "outputs": [],
      "stateMutability": "nonpayable",
      "type": "function"
    },
    {
      "inputs": [
        {
          "internalType": "address",
          "name": "from",
          "type": "address"
        },
        {
          "internalType": "address",
          "name": "to",
          "type": "address"
        },
        {
          "internalType": "uint256",
          "name": "id",
          "type": "uint256"
        },
        {
          "internalType": "uint256",
          "name": "amount",
          "type": "uint256"
        },
        {
          "internalType": "bytes",
          "name": "data",
          "type": "bytes"
        }
      ],
      "name": "safeTransferFrom",
      "outputs": [],
      "stateMutability": "nonpayable",
      "type": "function"
    },
    {
      "inputs": [
        {
          "internalType": "address",
          "name": "operator",
          "type": "address"
        },
        {
          "internalType": "bool",
          "name": "approved",
          "type": "bool"
        }
      ],
      "name": "setApprovalForAll",
      "outputs": [],
      "stateMutability": "nonpayable",
      "type": "function"
    },
    {
      "inputs": [
        {
          "internalType": "bool",
          "name": "_limitedMode",
          "type": "bool"
        }
      ],
      "name": "setLimitedMode",
      "outputs": [],
      "stateMutability": "nonpayable",
      "type": "function"
    },
    {
      "inputs": [
        {
          "internalType": "address",
          "name": "_timelock",
          "type": "address"
        }
      ],
      "name": "setTimelock",
      "outputs": [],
      "stateMutability": "nonpayable",
      "type": "function"
    },
    {
      "inputs": [
        {
          "internalType": "bytes4",
          "name": "interfaceId",
          "type": "bytes4"
        }
      ],
      "name": "supportsInterface",
      "outputs": [
        {
          "internalType": "bool",
          "name": "",
          "type": "bool"
        }
      ],
      "stateMutability": "view",
      "type": "function"
    },
    {
      "inputs": [
        {
          "internalType": "address",
          "name": "to",
          "type": "address"
        },
        {
          "internalType": "uint256",
          "name": "tokenId",
          "type": "uint256"
        },
        {
          "internalType": "uint256",
          "name": "value",
          "type": "uint256"
        }
      ],
      "name": "transfer",
      "outputs": [],
      "stateMutability": "nonpayable",
      "type": "function"
    },
    {
      "inputs": [
        {
          "internalType": "address",
          "name": "account",
          "type": "address"
        }
      ],
      "name": "unregisterConsumer",
      "outputs": [],
      "stateMutability": "nonpayable",
      "type": "function"
    },
    {
      "inputs": [
        {
          "internalType": "address",
          "name": "account",
          "type": "address"
        },
        {
          "internalType": "uint8",
          "name": "tokenTypeId",
          "type": "uint8"
        }
      ],
      "name": "unregisterDealer",
      "outputs": [],
      "stateMutability": "nonpayable",
      "type": "function"
    },
    {
      "inputs": [
        {
          "internalType": "uint256",
          "name": "",
          "type": "uint256"
        }
      ],
      "name": "uri",
      "outputs": [
        {
          "internalType": "string",
          "name": "",
          "type": "string"
        }
      ],
      "stateMutability": "view",
      "type": "function"
    }
  ],
  "bytecode": "0x608060405234801561001057600080fd5b5061492e806100206000396000f3fe608060405234801561001057600080fd5b50600436106102735760003560e01c80637f157c9b11610151578063ce6ccfaf116100c3578063e985e9c511610087578063e985e9c514610575578063f000be9814610588578063f242432a1461059b578063f851a440146105ae578063fcba7948146105b6578063fd0c4a9a146105be57610273565b8063ce6ccfaf14610510578063d547741f14610534578063dba851b014610547578063ddc3e6eb1461054f578063e2e564f21461056257610273565b8063a217fddf11610115578063a217fddf1461049c578063a22cb465146104a4578063bdacb303146104b7578063c1e03728146104ca578063c4d66de8146104ea578063ca15c873146104fd57610273565b80637f157c9b146104225780639010d07c1461044357806391d148541461046357806392089c4614610476578063a0d975a71461048957610273565b806331aa4b20116101ea57806353dbe982116101ae57806353dbe982146103d15780635ddb368f146103e457806369f7ef44146103ec57806376aed2e1146103ff57806376ce47551461041257806378e5c5921461041a57610273565b806331aa4b201461036557806333781a0e1461037857806336568abe1461038b57806344b22fdd1461039e5780634e1273f4146103b157610273565b806318a50d7e1161023c57806318a50d7e146103095780631ef68ef714610311578063248a9ca314610319578063293a7f2e1461032c5780632eb2c2d61461033f5780632f2ff15d1461035257610273565b8062fdd58e1461027857806301ffc9a7146102a1578063095bcdb6146102c15780630e89341c146102d6578063156e29f6146102f6575b600080fd5b61028b61028636600461325c565b6105d1565b60405161029891906137a3565b60405180910390f35b6102b46102af3660046134f2565b61062d565b604051610298919061376f565b6102d46102cf366004613286565b610650565b005b6102e96102e4366004613495565b610775565b60405161029891906137ac565b6102d4610304366004613286565b61080d565b61028b61089c565b61028b6108ae565b61028b610327366004613495565b6108c0565b6102d461033a3660046134d1565b6108d5565b6102d461034d366004613030565b610a56565b6102d46103603660046134ad565b610c75565b6102d46103733660046132b9565b610cbd565b6102b4610386366004612fe1565b610dbe565b6102d46103993660046134ad565b610dd8565b6102d46103ac366004612fe1565b610e1a565b6103c46103bf3660046133b3565b610f1f565b604051610298919061372e565b6102d46103df366004612fe1565b610fec565b61028b6110f1565b6102b46103fa366004612fe1565b611103565b6102e961040d366004613495565b611185565b61028b61127e565b61028b611290565b61043561043036600461325c565b6112a2565b60405161029892919061464f565b6104566104513660046134d1565b611339565b604051610298919061365e565b6102b46104713660046134ad565b611358565b610456610484366004613495565b611370565b61028b61049736600461325c565b611393565b61028b6113e2565b6102d46104b2366004613221565b6113e7565b6102d46104c5366004612fe1565b6114b5565b6104dd6104d8366004613495565b6114fe565b6040516102989190614577565b6102d46104f8366004612fe1565b61173e565b61028b61050b366004613495565b61189e565b61052361051e366004612fe1565b6118b5565b60405161029895949392919061377a565b6102d46105423660046134ad565b611949565b6102b4611983565b6102d461055d366004613475565b61198c565b6102d46105703660046132b9565b6119c6565b6102b4610583366004612ffc565b611ad4565b6102d461059636600461313f565b611b02565b6102d46105a93660046130da565b611b5b565b610456611cef565b61028b611d03565b6102d46105cc3660046132e4565b611d15565b60006001600160a01b0383166106025760405162461bcd60e51b81526004016105f99061398a565b60405180910390fd5b5060008181526065602090815260408083206001600160a01b03861684529091529020545b92915050565b6001600160e01b0319811660009081526033602052604090205460ff165b919050565b600061066a60008051602061484f83398151915233611358565b905060006106866000805160206148b983398151915233611358565b905060006106a260008051602061482f83398151915233611358565b905060006106be6000805160206148d983398151915233611358565b905083806106c95750825b806106d15750815b806106d95750805b6106f55760405162461bcd60e51b81526004016105f990614416565b6106fe86611db6565b61071a5760405162461bcd60e51b81526004016105f990613fd7565b336001600160a01b03881614156107435760405162461bcd60e51b81526004016105f990613edf565b61076c33888888604051806040016040528060048152602001630307830360e41b815250611b5b565b50505050505050565b60678054604080516020601f60026000196101006001881615020190951694909404938401819004810282018101909252828152606093909290918301828280156108015780601f106107d657610100808354040283529160200191610801565b820191906000526020600020905b8154815290600101906020018083116107e457829003601f168201915b50505050509050919050565b610818600033611358565b6108345760405162461bcd60e51b81526004016105f990613c1a565b61083d82611db6565b6108595760405162461bcd60e51b81526004016105f990613a87565b60c95460ff161561087c5760405162461bcd60e51b81526004016105f990613f35565b61089783838360405180602001604052806000815250611dd8565b505050565b60008051602061486f83398151915281565b60008051602061482f83398151915281565b60009081526097602052604090206002015490565b60006108ef60008051602061484f83398151915233611358565b9050600061090b6000805160206148b983398151915233611358565b9050600061092760008051602061482f83398151915233611358565b905060006109436000805160206148d983398151915233611358565b9050838061094e5750825b806109565750815b8061095e5750805b61097a5760405162461bcd60e51b81526004016105f990614416565b61098386611db6565b61099f5760405162461bcd60e51b81526004016105f990613a0c565b6109a933876105d1565b8511156109c85760405162461bcd60e51b81526004016105f990613d06565b6109d3338787611ec3565b600086815260cd602090815260408083203384529091529020546109f79086611fd9565b600087815260cd602090815260408083203380855292529182902092909255517f8f1b5ebb586d3d169e4ed07db9cd10ce0dd30c7b656171310eae7517c0b53cf990610a46908990899061464f565b60405180910390a2505050505050565b8151835114610a775760405162461bcd60e51b81526004016105f99061438d565b6001600160a01b038416610a9d5760405162461bcd60e51b81526004016105f990613db7565b610aa5611ffe565b6001600160a01b0316856001600160a01b03161480610acb5750610acb85610583611ffe565b610ae75760405162461bcd60e51b81526004016105f990613dfc565b6000610af1611ffe565b9050610b01818787878787612002565b60005b8451811015610c07576000858281518110610b1b57fe5b602002602001015190506000858381518110610b3357fe5b60200260200101519050610ba0816040518060600160405280602a815260200161488f602a91396065600086815260200190815260200160002060008d6001600160a01b03166001600160a01b03168152602001908152602001600020546120ff9092919063ffffffff16565b60008381526065602090815260408083206001600160a01b038e811685529252808320939093558a1681522054610bd79082611fd9565b60009283526065602090815260408085206001600160a01b038c1686529091529092209190915550600101610b04565b50846001600160a01b0316866001600160a01b0316826001600160a01b03167f4a39dc06d4c0dbc64b70af90fd698a233a518aa5d07e595d983b8c0526c8f7fb8787604051610c57929190613741565b60405180910390a4610c6d81878787878761212b565b505050505050565b600082815260976020526040902060020154610c9390610471611ffe565b610caf5760405162461bcd60e51b81526004016105f9906138f2565b610cb98282612239565b5050565b610cc8600033611358565b610ce45760405162461bcd60e51b81526004016105f990613c1a565b610ced816122a2565b610d095760405162461bcd60e51b81526004016105f990613f87565b8060ff1660011415610d3257610d2d6000805160206148b983398151915283610c75565b610d6e565b8060ff1660021415610d5657610d2d60008051602061482f83398151915283610c75565b610d6e6000805160206148d983398151915283610c75565b610d8660008051602061486f83398151915283610c75565b6040516001600160a01b038316907fa8377deee15954185683d55effd369508b4935978c8cb2bab790bf04c570181490600090a25050565b600061062760008051602061484f83398151915283611358565b610de0611ffe565b6001600160a01b0316816001600160a01b031614610e105760405162461bcd60e51b81526004016105f9906144b7565b610cb982826122c7565b6000610e346000805160206148b983398151915233611358565b90506000610e5060008051602061482f83398151915233611358565b90506000610e6c6000805160206148d983398151915233611358565b90508280610e775750815b80610e7f5750805b610e9b5760405162461bcd60e51b81526004016105f990613941565b60c95460ff1615610ecd57610eb1600033611358565b610ecd5760405162461bcd60e51b81526004016105f99061401d565b610ee560008051602061484f83398151915285610c75565b6040516001600160a01b038516907f69a0adee259d26fe61f4776f7bea7f3a9737c7321256821b985f988545efd31990600090a250505050565b60608151835114610f425760405162461bcd60e51b81526004016105f9906142f4565b6060835167ffffffffffffffff81118015610f5c57600080fd5b50604051908082528060200260200182016040528015610f86578160200160208202803683370190505b50905060005b8451811015610fe457610fc5858281518110610fa457fe5b6020026020010151858381518110610fb857fe5b60200260200101516105d1565b828281518110610fd157fe5b6020908102919091010152600101610f8c565b509392505050565b60006110066000805160206148b983398151915233611358565b9050600061102260008051602061482f83398151915233611358565b9050600061103e6000805160206148d983398151915233611358565b905082806110495750815b806110515750805b61106d5760405162461bcd60e51b81526004016105f990613941565b60c95460ff161561109f57611083600033611358565b61109f5760405162461bcd60e51b81526004016105f990613b64565b6110b760008051602061484f83398151915285611949565b6040516001600160a01b038516907f03a38088da75ee2d80f6c753f55f8fd17602ae17d8bd0ef44d5e1f28ab5af11f90600090a250505050565b60006110fd60cb612330565b90505b90565b60008061111e6000805160206148b983398151915284611358565b9050600061113a60008051602061482f83398151915285611358565b905060006111566000805160206148d983398151915286611358565b905082806111615750815b806111695750805b1561117a576001935050505061064b565b506000949350505050565b606061119082611db6565b6111ac5760405162461bcd60e51b81526004016105f990613bd0565b600082815260cc6020526040902060018082015460ff16141561120457505060408051808201909152601c81527f52656e657761626c6520456e6572677920436572746966696361746500000000602082015261064b565b600181015460ff166002141561124f57505060408051808201909152601781527f436172626f6e20456d697373696f6e73204f6666736574000000000000000000602082015261064b565b50506040805180820190915260118152704175646974656420456d697373696f6e7360781b6020820152919050565b6000805160206148d983398151915281565b60008051602061484f83398151915281565b60008060006112b185856105d1565b60405163a0d975a760e01b8152909150600090309063a0d975a7906112dc9089908990600401613715565b60206040518083038186803b1580156112f457600080fd5b505afa158015611308573d6000803e3d6000fd5b505050506040513d601f19601f8201168201806040525081019061132c919061352a565b9196919550909350505050565b60008281526097602052604081206113519083612334565b9392505050565b60008281526097602052604081206113519083612340565b600090815260cc602052604090206001015461010090046001600160a01b031690565b600061139e82611db6565b6113ba5760405162461bcd60e51b81526004016105f990614130565b50600090815260cd602090815260408083206001600160a01b03949094168352929052205490565b600081565b816001600160a01b03166113f9611ffe565b6001600160a01b031614156114205760405162461bcd60e51b81526004016105f9906142ab565b806066600061142d611ffe565b6001600160a01b03908116825260208083019390935260409182016000908120918716808252919093529120805460ff191692151592909217909155611471611ffe565b6001600160a01b03167f17307eab39ab6107e8899845ad3d59bd9653f200f220920489ca2b5937696c31836040516114a9919061376f565b60405180910390a35050565b6114c0600033611358565b6114dc5760405162461bcd60e51b81526004016105f990613c1a565b60ca80546001600160a01b0319166001600160a01b0392909216919091179055565b611506612de0565b600082815260cc60209081526040918290208251610160810184528154815260018083015460ff811683860152610100908190046001600160a01b0390811684880152600280860154909116606085015260038501546080850152600485015460a0850152600585015460c0850152600685015460e08501526007850180548851948116158402600019011691909104601f81018790048702840187019097528683529295939490860193919291908301828280156116065780601f106115db57610100808354040283529160200191611606565b820191906000526020600020905b8154815290600101906020018083116115e957829003601f168201915b505050918352505060088201805460408051602060026001851615610100026000190190941693909304601f810184900484028201840190925281815293820193929183018282801561169a5780601f1061166f5761010080835404028352916020019161169a565b820191906000526020600020905b81548152906001019060200180831161167d57829003601f168201915b505050918352505060098201805460408051602060026001851615610100026000190190941693909304601f810184900484028201840190925281815293820193929183018282801561172e5780601f106117035761010080835404028352916020019161172e565b820191906000526020600020905b81548152906001019060200180831161171157829003601f168201915b5050505050815250509050919050565b600054610100900460ff16806117575750611757612355565b80611765575060005460ff16155b6117815760405162461bcd60e51b81526004016105f990613e4e565b600054610100900460ff161580156117ac576000805460ff1961ff0019909116610100171660011790555b6117c460405180602001604052806000815250612366565b6117ea60008051602061484f83398151915260008051602061486f833981519152612402565b6117f5600083610caf565b61180d60008051602061486f83398151915283610caf565b6118256000805160206148b983398151915283610caf565b61183d60008051602061482f83398151915283610caf565b6118556000805160206148d983398151915283610caf565b60c9805460ca80546001600160a01b0319169055610100600160a81b0319166101006001600160a01b038516021760ff191690558015610cb9576000805461ff00191690555050565b600081815260976020526040812061062790612454565b600080808080806118c68188611358565b905060006118e26000805160206148b983398151915289611358565b905060006118fe60008051602061482f8339815191528a611358565b9050600061191a6000805160206148d98339815191528b611358565b9050600061193660008051602061484f8339815191528c611358565b949b939a50919850965091945092505050565b60008281526097602052604090206002015461196790610471611ffe565b610e105760405162461bcd60e51b81526004016105f990613cb6565b60c95460ff1681565b611997600033611358565b6119b35760405162461bcd60e51b81526004016105f990613c1a565b60c9805460ff1916911515919091179055565b6119d1600033611358565b6119ed5760405162461bcd60e51b81526004016105f990613c1a565b6119f6816122a2565b611a125760405162461bcd60e51b81526004016105f990613ac9565b8060ff1660011415611a3b57611a366000805160206148b983398151915283611949565b611a77565b8060ff1660021415611a5f57611a3660008051602061482f83398151915283611949565b611a776000805160206148d983398151915283611949565b611a8082611103565b611a9c57611a9c60008051602061486f83398151915283611949565b6040516001600160a01b038316907f98552ded770f1d05a505572f3387c108dbc6b566ea3d49f83cff3d1f1c72a04290600090a25050565b6001600160a01b03918216600090815260666020908152604080832093909416825291909152205460ff1690565b60ca546001600160a01b0316331480611b215750611b21600033611358565b611b3d5760405162461bcd60e51b81526004016105f990613813565b611b4f8a8a8a8a8a8a8a8a8a8a61245f565b50505050505050505050565b6001600160a01b038416611b815760405162461bcd60e51b81526004016105f990613db7565b611b89611ffe565b6001600160a01b0316856001600160a01b03161480611baf5750611baf85610583611ffe565b611bcb5760405162461bcd60e51b81526004016105f990613b1b565b6000611bd5611ffe565b9050611bf5818787611be68861292b565b611bef8861292b565b87612002565b611c3c836040518060600160405280602a815260200161488f602a913960008781526065602090815260408083206001600160a01b038d16845290915290205491906120ff565b60008581526065602090815260408083206001600160a01b038b81168552925280832093909355871681522054611c739084611fd9565b60008581526065602090815260408083206001600160a01b03808b168086529190935292819020939093559151909188811691908416907fc3d58168c5ae7397731d063d5bbf3d657854427343f4c083240f7aacaa2d0f6290611cd9908990899061464f565b60405180910390a4610c6d81878787878761296f565b60c95461010090046001600160a01b031681565b6000805160206148b983398151915281565b6000611d2f6000805160206148b983398151915233611358565b90506000611d4b60008051602061482f83398151915233611358565b90506000611d676000805160206148d983398151915233611358565b90508280611d725750815b80611d7a5750805b611d965760405162461bcd60e51b81526004016105f990613941565b611da88c338d8d8d8d8d8d8d8d61245f565b505050505050505050505050565b600081611dc360cb612330565b10611dd05750600161064b565b506000919050565b6001600160a01b038416611dfe5760405162461bcd60e51b81526004016105f9906143d5565b6000611e08611ffe565b9050611e1a81600087611be68861292b565b60008481526065602090815260408083206001600160a01b0389168452909152902054611e479084611fd9565b60008581526065602090815260408083206001600160a01b03808b16808652919093528184209490945551908416907fc3d58168c5ae7397731d063d5bbf3d657854427343f4c083240f7aacaa2d0f6290611ea5908990899061464f565b60405180910390a4611ebc8160008787878761296f565b5050505050565b6001600160a01b038316611ee95760405162461bcd60e51b81526004016105f990613e9c565b6000611ef3611ffe565b9050611f2381856000611f058761292b565b611f0e8761292b565b60405180602001604052806000815250612002565b611f6a8260405180606001604052806024815260200161480b6024913960008681526065602090815260408083206001600160a01b038b16845290915290205491906120ff565b60008481526065602090815260408083206001600160a01b03808a16808652919093528184209490945551919291908416907fc3d58168c5ae7397731d063d5bbf3d657854427343f4c083240f7aacaa2d0f6290611fcb908890889061464f565b60405180910390a450505050565b6000828201838110156113515760405162461bcd60e51b81526004016105f990613a50565b3390565b612010868686868686610c6d565b60005b835181101561076c57600060cc600086848151811061202e57fe5b60200260200101518152602001908152602001600020905060c960009054906101000a900460ff16156120f5576001600160a01b03861661206f57506120f7565b600181015460ff166003146120c15760ca546001600160a01b03898116911614806120a057506120a0600089611358565b6120bc5760405162461bcd60e51b81526004016105f990614506565b6120f5565b6120d96000805160206148d983398151915289611358565b6120f55760405162461bcd60e51b81526004016105f990614183565b505b600101612013565b600081848411156121235760405162461bcd60e51b81526004016105f991906137ac565b505050900390565b61213d846001600160a01b0316612a40565b15610c6d5760405163bc197c8160e01b81526001600160a01b0385169063bc197c81906121769089908990889088908890600401613672565b602060405180830381600087803b15801561219057600080fd5b505af19250505080156121c0575060408051601f3d908101601f191682019092526121bd9181019061350e565b60015b612209576121cc61473a565b806121d757506121f1565b8060405162461bcd60e51b81526004016105f991906137ac565b60405162461bcd60e51b81526004016105f9906137bf565b6001600160e01b0319811663bc197c8160e01b1461076c5760405162461bcd60e51b81526004016105f9906138aa565b60008281526097602052604090206122519082612a46565b15610cb95761225e611ffe565b6001600160a01b0316816001600160a01b0316837f2f8788117e7eff1d82e926ec794901d17c78024a50270940304540a733656f0d60405160405180910390a45050565b6000808260ff161180156122ba575060038260ff1611155b15611dd05750600161064b565b60008281526097602052604090206122df9082612a5b565b15610cb9576122ec611ffe565b6001600160a01b0316816001600160a01b0316837ff6391f5c32d9c69d2a47ea670b442974b53935d1edc7fd64eb21e047a839171b60405160405180910390a45050565b5490565b60006113518383612a70565b6000611351836001600160a01b038416612ab5565b600061236030612a40565b15905090565b600054610100900460ff168061237f575061237f612355565b8061238d575060005460ff16155b6123a95760405162461bcd60e51b81526004016105f990613e4e565b600054610100900460ff161580156123d4576000805460ff1961ff0019909116610100171660011790555b6123dc612acd565b6123e4612b50565b6123ed82612bce565b8015610cb9576000805461ff00191690555050565b600082815260976020526040808220600201549051839285917fbd79b86ffe0ab8e8776151514217cd7cacd52c909f66475c3af44e129f0b00ff9190a460009182526097602052604090912060020155565b600061062782612330565b612468886122a2565b6124845760405162461bcd60e51b81526004016105f990614473565b60c95460ff1615612596578760ff16600114806124a457508760ff166002145b156125515760ca546001600160a01b031633146124d35760405162461bcd60e51b81526004016105f9906140e2565b6124de60008b611358565b6124fa5760405162461bcd60e51b81526004016105f990614264565b6125126000805160206148b98339815191528a611358565b80612530575061253060008051602061482f8339815191528a611358565b61254c5760405162461bcd60e51b81526004016105f990613d5a565b612591565b8760ff1660031415612591576125756000805160206148d98339815191528a611358565b6125915760405162461bcd60e51b81526004016105f990614206565b612656565b8760ff16600114156125d6576125ba6000805160206148b98339815191528a611358565b6125915760405162461bcd60e51b81526004016105f99061433d565b8760ff1660021415612616576125fa60008051602061482f8339815191528a611358565b6125915760405162461bcd60e51b81526004016105f990613c63565b8760ff16600314156126565761263a6000805160206148d98339815191528a611358565b6126565760405162461bcd60e51b81526004016105f990614085565b61266060cb612c65565b600060cc600061267060cb612330565b8152602001908152602001600020905061268a60cb612330565b8160000181905550888160010160006101000a81548160ff021916908360ff1602179055508a8160020160006101000a8154816001600160a01b0302191690836001600160a01b03160217905550898160010160016101000a8154816001600160a01b0302191690836001600160a01b031602179055508681600301819055508581600401819055508481600601819055504281600501819055508381600701908051906020019061273d929190612e4f565b5082516127539060088301906020860190612e4f565b5081516127699060098301906020850190612e4f565b5061278e8b61277860cb612330565b8a60405180602001604052806000815250611dd8565b8860ff166003141561281257600281015481546127b5916001600160a01b0316908a611ec3565b8054600090815260cd6020908152604080832060028501546001600160a01b031684529091529020546127e89089611fd9565b8154600090815260cd6020908152604080832060028601546001600160a01b031684529091529020555b8060020160009054906101000a90046001600160a01b03166001600160a01b03168160010160019054906101000a90046001600160a01b03166001600160a01b03167f99cc3eeb446560c9a2d2483bc5160735ec0fb1851aea3bde32e7a56c30c11da68a60cd60008660000154815260200190815260200160002060008660020160009054906101000a90046001600160a01b03166001600160a01b03166001600160a01b031681526020019081526020016000205485600001548660010160009054906101000a900460ff168760030154886004015489600601548a600501548b6007018c6008018d6009016040516129169b9a9998979695949392919061465d565b60405180910390a35050505050505050505050565b60408051600180825281830190925260609182919060208083019080368337019050509050828160008151811061295e57fe5b602090810291909101015292915050565b612981846001600160a01b0316612a40565b15610c6d5760405163f23a6e6160e01b81526001600160a01b0385169063f23a6e61906129ba90899089908890889088906004016136d0565b602060405180830381600087803b1580156129d457600080fd5b505af1925050508015612a04575060408051601f3d908101601f19168201909252612a019181019061350e565b60015b612a10576121cc61473a565b6001600160e01b0319811663f23a6e6160e01b1461076c5760405162461bcd60e51b81526004016105f9906138aa565b3b151590565b6000611351836001600160a01b038416612c6e565b6000611351836001600160a01b038416612cb8565b81546000908210612a935760405162461bcd60e51b81526004016105f990613868565b826000018281548110612aa257fe5b9060005260206000200154905092915050565b60009081526001919091016020526040902054151590565b600054610100900460ff1680612ae65750612ae6612355565b80612af4575060005460ff16155b612b105760405162461bcd60e51b81526004016105f990613e4e565b600054610100900460ff16158015612b3b576000805460ff1961ff0019909116610100171660011790555b8015612b4d576000805461ff00191690555b50565b600054610100900460ff1680612b695750612b69612355565b80612b77575060005460ff16155b612b935760405162461bcd60e51b81526004016105f990613e4e565b600054610100900460ff16158015612bbe576000805460ff1961ff0019909116610100171660011790555b612b3b6301ffc9a760e01b612d7e565b600054610100900460ff1680612be75750612be7612355565b80612bf5575060005460ff16155b612c115760405162461bcd60e51b81526004016105f990613e4e565b600054610100900460ff16158015612c3c576000805460ff1961ff0019909116610100171660011790555b612c4582612dcd565b612c55636cdb3d1360e11b612d7e565b6123ed6303a24d0760e21b612d7e565b80546001019055565b6000612c7a8383612ab5565b612cb057508154600181810184556000848152602080822090930184905584548482528286019093526040902091909155610627565b506000610627565b60008181526001830160205260408120548015612d745783546000198083019190810190600090879083908110612ceb57fe5b9060005260206000200154905080876000018481548110612d0857fe5b600091825260208083209091019290925582815260018981019092526040902090840190558654879080612d3857fe5b60019003818190600052602060002001600090559055866001016000878152602001908152602001600020600090556001945050505050610627565b6000915050610627565b6001600160e01b03198082161415612da85760405162461bcd60e51b81526004016105f9906139d5565b6001600160e01b0319166000908152603360205260409020805460ff19166001179055565b8051610cb9906067906020840190612e4f565b60405180610160016040528060008152602001600060ff16815260200160006001600160a01b0316815260200160006001600160a01b03168152602001600081526020016000815260200160008152602001600081526020016060815260200160608152602001606081525090565b828054600181600116156101000203166002900490600052602060002090601f016020900481019282601f10612e9057805160ff1916838001178555612ebd565b82800160010185558215612ebd579182015b82811115612ebd578251825591602001919060010190612ea2565b50612ec9929150612ecd565b5090565b5b80821115612ec95760008155600101612ece565b80356001600160a01b038116811461062757600080fd5b600082601f830112612f09578081fd5b8135612f1c612f1782614708565b6146e1565b818152915060208083019084810181840286018201871015612f3d57600080fd5b60005b84811015612f5c57813584529282019290820190600101612f40565b505050505092915050565b600082601f830112612f77578081fd5b813567ffffffffffffffff811115612f8d578182fd5b612fa0601f8201601f19166020016146e1565b9150808252836020828501011115612fb757600080fd5b8060208401602084013760009082016020015292915050565b803560ff8116811461062757600080fd5b600060208284031215612ff2578081fd5b6113518383612ee2565b6000806040838503121561300e578081fd5b6130188484612ee2565b91506130278460208501612ee2565b90509250929050565b600080600080600060a08688031215613047578081fd5b8535613052816147df565b94506020860135613062816147df565b9350604086013567ffffffffffffffff8082111561307e578283fd5b61308a89838a01612ef9565b9450606088013591508082111561309f578283fd5b6130ab89838a01612ef9565b935060808801359150808211156130c0578283fd5b506130cd88828901612f67565b9150509295509295909350565b600080600080600060a086880312156130f1578081fd5b6130fb8787612ee2565b945061310a8760208801612ee2565b93506040860135925060608601359150608086013567ffffffffffffffff811115613133578182fd5b6130cd88828901612f67565b6000806000806000806000806000806101408b8d03121561315e578485fd5b6131688c8c612ee2565b99506131778c60208d01612ee2565b98506131868c60408d01612fd0565b975060608b0135965060808b0135955060a08b0135945060c08b0135935060e08b013567ffffffffffffffff808211156131be578485fd5b6131ca8e838f01612f67565b94506101008d01359150808211156131e0578384fd5b6131ec8e838f01612f67565b93506101208d0135915080821115613202578283fd5b5061320f8d828e01612f67565b9150509295989b9194979a5092959850565b60008060408385031215613233578182fd5b61323d8484612ee2565b915060208301358015158114613251578182fd5b809150509250929050565b6000806040838503121561326e578182fd5b6132788484612ee2565b946020939093013593505050565b60008060006060848603121561329a578081fd5b6132a48585612ee2565b95602085013595506040909401359392505050565b600080604083850312156132cb578182fd5b6132d58484612ee2565b91506130278460208501612fd0565b60008060008060008060008060006101208a8c031215613302578283fd5b61330c8b8b612ee2565b985061331b8b60208c01612fd0565b975060408a0135965060608a0135955060808a0135945060a08a0135935060c08a013567ffffffffffffffff80821115613353578485fd5b61335f8d838e01612f67565b945060e08c0135915080821115613374578384fd5b6133808d838e01612f67565b93506101008c0135915080821115613396578283fd5b506133a38c828d01612f67565b9150509295985092959850929598565b600080604083850312156133c5578182fd5b823567ffffffffffffffff808211156133dc578384fd5b818501915085601f8301126133ef578384fd5b81356133fd612f1782614708565b80828252602080830192508086018a82838702890101111561341d578889fd5b8896505b84871015613447576134338b82612ee2565b845260019690960195928101928101613421565b50909650870135935050508082111561345e578283fd5b5061346b85828601612ef9565b9150509250929050565b600060208284031215613486578081fd5b81358015158114611351578182fd5b6000602082840312156134a6578081fd5b5035919050565b600080604083850312156134bf578182fd5b823591506020830135613251816147df565b600080604083850312156134e3578182fd5b50508035926020909101359150565b600060208284031215613503578081fd5b8135611351816147f4565b60006020828403121561351f578081fd5b8151611351816147f4565b60006020828403121561353b578081fd5b5051919050565b6001600160a01b03169052565b6000815180845260208085019450808401835b8381101561357e57815187529582019590820190600101613562565b509495945050505050565b60008151808452815b818110156135ae57602081850181015186830182015201613592565b818111156135bf5782602083870101525b50601f01601f19169290920160200192915050565b600081546001808216600081146135f257600181146136105761364e565b60028304607f16865260ff198316602087015260408601935061364e565b6002830480875261362086614728565b60005b828110156136445781546020828b0101528482019150602081019050613623565b8801602001955050505b50505092915050565b60ff169052565b6001600160a01b0391909116815260200190565b6001600160a01b0386811682528516602082015260a06040820181905260009061369e9083018661354f565b82810360608401526136b0818661354f565b905082810360808401526136c48185613589565b98975050505050505050565b6001600160a01b03868116825285166020820152604081018490526060810183905260a06080820181905260009061370a90830184613589565b979650505050505050565b6001600160a01b03929092168252602082015260400190565b600060208252611351602083018461354f565b600060408252613754604083018561354f565b8281036020840152613766818561354f565b95945050505050565b901515815260200190565b941515855292151560208501529015156040840152151560608301521515608082015260a00190565b90815260200190565b6000602082526113516020830184613589565b60208082526034908201527f455243313135353a207472616e7366657220746f206e6f6e20455243313135356040820152732932b1b2b4bb32b91034b6b83632b6b2b73a32b960611b606082015260800190565b60208082526035908201527f434c4d383a3a69737375654f6e426568616c663a2063616c6c206d757374206360408201527437b6b290333937b6902220a79037b91030b236b4b760591b606082015260800190565b60208082526022908201527f456e756d657261626c655365743a20696e646578206f7574206f6620626f756e604082015261647360f01b606082015260800190565b60208082526028908201527f455243313135353a204552433131353552656365697665722072656a656374656040820152676420746f6b656e7360c01b606082015260800190565b6020808252602f908201527f416363657373436f6e74726f6c3a2073656e646572206d75737420626520616e60408201526e0818591b5a5b881d1bc819dc985b9d608a1b606082015260800190565b60208082526029908201527f434c4d383a3a6f6e6c794465616c65723a206d73672e73656e646572206e6f746040820152681030903232b0b632b960b91b606082015260800190565b6020808252602b908201527f455243313135353a2062616c616e636520717565727920666f7220746865207a60408201526a65726f206164647265737360a81b606082015260800190565b6020808252601c908201527f4552433136353a20696e76616c696420696e7465726661636520696400000000604082015260600190565b60208082526024908201527f434c4d383a3a7265746972653a20746f6b656e496420646f6573206e6f7420656040820152631e1a5cdd60e21b606082015260800190565b6020808252601b908201527f536166654d6174683a206164646974696f6e206f766572666c6f770000000000604082015260600190565b60208082526022908201527f434c4d383a3a6d696e743a20746f6b656e496420646f6573206e6f74206578696040820152611cdd60f21b606082015260800190565b60208082526032908201527f434c4d383a3a756e72656769737465724465616c65723a20746f6b656e54797060408201527119525908191bd95cc81b9bdd08195e1a5cdd60721b606082015260800190565b60208082526029908201527f455243313135353a2063616c6c6572206973206e6f74206f776e6572206e6f7260408201526808185c1c1c9bdd995960ba1b606082015260800190565b60208082526046908201527f434c4d383a3a756e7265676973746572436f6e73756d6572286c696d6974656460408201527f293a206f6e6c792061646d696e2063616e20756e726567697374657220636f6e60608201526573756d65727360d01b608082015260a00190565b6020808252602a908201527f434c4d383a3a676574546f6b656e547970653a20746f6b656e496420646f6573604082015269081b9bdd08195e1a5cdd60b21b606082015260800190565b60208082526029908201527f434c4d383a3a6f6e6c7941646d696e3a206d73672e73656e646572206e6f74206040820152683a34329030b236b4b760b91b606082015260800190565b60208082526033908201527f434c4d383a3a5f69737375653a20697373756572206e6f7420612072656769736040820152723a32b932b21037b33339b2ba103232b0b632b960691b606082015260800190565b60208082526030908201527f416363657373436f6e74726f6c3a2073656e646572206d75737420626520616e60408201526f2061646d696e20746f207265766f6b6560801b606082015260800190565b60208082526034908201527f434c4d383a3a7265746972653a206e6f7420656e6f75676820617661696c61626040820152736c652062616c616e636520746f2072657469726560601b606082015260800190565b60208082526037908201527f434c4d383a3a5f6973737565286c696d69746564293a2070726f706f7365722060408201527f6e6f7420612072656769737465726564206465616c6572000000000000000000606082015260800190565b60208082526025908201527f455243313135353a207472616e7366657220746f20746865207a65726f206164604082015264647265737360d81b606082015260800190565b60208082526032908201527f455243313135353a207472616e736665722063616c6c6572206973206e6f74206040820152711bdddb995c881b9bdc88185c1c1c9bdd995960721b606082015260800190565b6020808252602e908201527f496e697469616c697a61626c653a20636f6e747261637420697320616c72656160408201526d191e481a5b9a5d1a585b1a5e995960921b606082015260800190565b60208082526023908201527f455243313135353a206275726e2066726f6d20746865207a65726f206164647260408201526265737360e81b606082015260800190565b60208082526036908201527f434c4d383a3a7472616e736665723a2073656e64657220616e642072656365696040820152757665722063616e6e6f74206265207468652073616d6560501b606082015260800190565b60208082526032908201527f434c4d383a3a6d696e743a2063616e6e6f74206d696e74206e657720746f6b656040820152716e7320696e206c696d69746564206d6f646560701b606082015260800190565b60208082526030908201527f434c4d383a3a72656769737465724465616c65723a20746f6b656e547970654960408201526f1908191bd95cc81b9bdd08195e1a5cdd60821b606082015260800190565b60208082526026908201527f434c4d383a3a7472616e736665723a20746f6b656e496420646f6573206e6f7460408201526508195e1a5cdd60d21b606082015260800190565b60208082526042908201527f434c4d383a3a7265676973746572436f6e73756d6572286c696d69746564293a60408201527f206f6e6c792061646d696e2063616e20726567697374657220636f6e73756d65606082015261727360f01b608082015260a00190565b60208082526037908201527f434c4d383a3a5f69737375653a20697373756572206e6f74206120726567697360408201527f746572656420656d697373696f6e732061756469746f72000000000000000000606082015260800190565b6020808252602e908201527f434c4d383a3a5f6973737565286c696d69746564293a206d73672e73656e646560408201526d72206e6f742074696d656c6f636b60901b606082015260800190565b60208082526033908201527f434c4d383a3a676574546f6b656e52657469726564416d6f756e743a20746f6b604082015272195b925908191bd95cc81b9bdd08195e1a5cdd606a1b606082015260800190565b60208082526058908201527f434c4d383a3a5f6265666f7265546f6b656e5472616e73666572286c696d697460408201527f6564293a206f6e6c7920656d697373696f6e732061756469746f72732063616e60608201527f206973737565206175646974656420656d697373696f6e730000000000000000608082015260a00190565b602080825260409082018190527f434c4d383a3a5f6973737565286c696d69746564293a20697373756572206e6f908201527f742061207265676973746572656420656d697373696f6e732061756469746f72606082015260800190565b60208082526027908201527f434c4d383a3a5f6973737565286c696d69746564293a20697373756565206e6f6040820152663a1030b236b4b760c91b606082015260800190565b60208082526029908201527f455243313135353a2073657474696e6720617070726f76616c20737461747573604082015268103337b91039b2b63360b91b606082015260800190565b60208082526029908201527f455243313135353a206163636f756e747320616e6420696473206c656e677468604082015268040dad2e6dac2e8c6d60bb1b606082015260800190565b60208082526030908201527f434c4d383a3a5f69737375653a20697373756572206e6f74206120726567697360408201526f3a32b932b2102922a1903232b0b632b960811b606082015260800190565b60208082526028908201527f455243313135353a2069647320616e6420616d6f756e7473206c656e677468206040820152670dad2e6dac2e8c6d60c31b606082015260800190565b60208082526021908201527f455243313135353a206d696e7420746f20746865207a65726f206164647265736040820152607360f81b606082015260800190565b6020808252603d908201527f434c4d383a3a636f6e73756d65724f724465616c65723a206d73672e73656e6460408201527f6572206e6f74206120636f6e73756d6572206f722061206465616c6572000000606082015260800190565b60208082526024908201527f434c4d383a3a5f69737375653a20746f6b656e54797065496420697320696e76604082015263185b1a5960e21b606082015260800190565b6020808252602f908201527f416363657373436f6e74726f6c3a2063616e206f6e6c792072656e6f756e636560408201526e103937b632b9903337b91039b2b63360891b606082015260800190565b6020808252604b908201527f434c4d383a3a5f6265666f7265546f6b656e5472616e73666572286c696d697460408201527f6564293a206f6e6c792061646d696e20616e642044414f2063616e207472616e60608201526a7366657220746f6b656e7360a81b608082015260a00190565b6000602082528251602083015260208301516145966040840182613657565b5060408301516145a96060840182613542565b5060608301516145bc6080840182613542565b50608083015160a083015260a083015160c083015260c083015160e083015260e08301516101008181850152808501519150506101606101208181860152614608610180860184613589565b9250808601519050601f196101408187860301818801526146298584613589565b9088015187820390920184880152935090506146458382613589565b9695505050505050565b918252602082015260400190565b60006101608d83528c60208401528b604084015260ff8b1660608401528960808401528860a08401528760c08401528660e0840152806101008401526146a5818401876135d4565b90508281036101208401526146ba81866135d4565b90508281036101408401526146cf81856135d4565b9e9d5050505050505050505050505050565b60405181810167ffffffffffffffff8111828210171561470057600080fd5b604052919050565b600067ffffffffffffffff82111561471e578081fd5b5060209081020190565b60009081526020902090565b60e01c90565b600060443d101561474a57611100565b600481823e6308c379a061475e8251614734565b1461476857611100565b6040513d600319016004823e80513d67ffffffffffffffff81602484011181841117156147985750505050611100565b828401925082519150808211156147b25750505050611100565b503d830160208284010111156147ca57505050611100565b601f01601f1916810160200160405291505090565b6001600160a01b0381168114612b4d57600080fd5b6001600160e01b031981168114612b4d57600080fdfe455243313135353a206275726e20616d6f756e7420657863656564732062616c616e6365ede6574deba8f02ada7888448a497b08844d62e044ed533343a673be3ffcde5f5e1aa547d3dade8c68b013a47ad41c2bcc9b9e4b0765b0fb616780e15786e76af8890eedd7900ad88da6192fd03dbb69dbeee963b1a0ed738abe49ab3331aaf3455243313135353a20696e73756666696369656e742062616c616e636520666f72207472616e736665722ab9f1da92e74aaa01eb75a871557505b11dd8d36832a34bb21bbee88b08d860e97dad3dbe5042e7384b1572cf966a15e089576a62b5126c5ef1d184ab18b12ca2646970667358221220055a69771b7a92b6338a8700f94a7ad5684ecca1ae185c3b59807314c8f1f23c64736f6c63430007000033",
  "linkReferences": {},
  "deployedLinkReferences": {}
}