{"abi":[{"type":"constructor","inputs":[{"name":"_owner","type":"address","internalType":"address"}],"stateMutability":"nonpayable"},{"type":"function","name":"BRIDGE_ROLE","inputs":[],"outputs":[{"name":"","type":"bytes32","internalType":"bytes32"}],"stateMutability":"view"},{"type":"function","name":"DEFAULT_ADMIN_ROLE","inputs":[],"outputs":[{"name":"","type":"bytes32","internalType":"bytes32"}],"stateMutability":"view"},{"type":"function","name":"OWNER_ROLE","inputs":[],"outputs":[{"name":"","type":"bytes32","internalType":"bytes32"}],"stateMutability":"view"},{"type":"function","name":"allowance","inputs":[{"name":"owner","type":"address","internalType":"address"},{"name":"spender","type":"address","internalType":"address"}],"outputs":[{"name":"","type":"uint256","internalType":"uint256"}],"stateMutability":"view"},{"type":"function","name":"approve","inputs":[{"name":"spender","type":"address","internalType":"address"},{"name":"value","type":"uint256","internalType":"uint256"}],"outputs":[{"name":"","type":"bool","internalType":"bool"}],"stateMutability":"nonpayable"},{"type":"function","name":"balanceOf","inputs":[{"name":"account","type":"address","internalType":"address"}],"outputs":[{"name":"","type":"uint256","internalType":"uint256"}],"stateMutability":"view"},{"type":"function","name":"burn","inputs":[{"name":"account","type":"address","internalType":"address"},{"name":"amount","type":"uint256","internalType":"uint256"}],"outputs":[{"name":"success","type":"bool","internalType":"bool"}],"stateMutability":"nonpayable"},{"type":"function","name":"decimals","inputs":[],"outputs":[{"name":"","type":"uint8","internalType":"uint8"}],"stateMutability":"view"},{"type":"function","name":"getRoleAdmin","inputs":[{"name":"role","type":"bytes32","internalType":"bytes32"}],"outputs":[{"name":"","type":"bytes32","internalType":"bytes32"}],"stateMutability":"view"},{"type":"function","name":"grantBridgeRole","inputs":[{"name":"account","type":"address","internalType":"address"}],"outputs":[{"name":"success","type":"bool","internalType":"bool"}],"stateMutability":"nonpayable"},{"type":"function","name":"grantRole","inputs":[{"name":"role","type":"bytes32","internalType":"bytes32"},{"name":"account","type":"address","internalType":"address"}],"outputs":[],"stateMutability":"nonpayable"},{"type":"function","name":"hasBridgeRole","inputs":[{"name":"account","type":"address","internalType":"address"}],"outputs":[{"name":"success","type":"bool","internalType":"bool"}],"stateMutability":"view"},{"type":"function","name":"hasRole","inputs":[{"name":"role","type":"bytes32","internalType":"bytes32"},{"name":"account","type":"address","internalType":"address"}],"outputs":[{"name":"","type":"bool","internalType":"bool"}],"stateMutability":"view"},{"type":"function","name":"mint","inputs":[{"name":"account","type":"address","internalType":"address"},{"name":"amount","type":"uint256","internalType":"uint256"}],"outputs":[{"name":"success","type":"bool","internalType":"bool"}],"stateMutability":"nonpayable"},{"type":"function","name":"name","inputs":[],"outputs":[{"name":"","type":"string","internalType":"string"}],"stateMutability":"view"},{"type":"function","name":"renounceRole","inputs":[{"name":"role","type":"bytes32","internalType":"bytes32"},{"name":"callerConfirmation","type":"address","internalType":"address"}],"outputs":[],"stateMutability":"nonpayable"},{"type":"function","name":"revokeRole","inputs":[{"name":"role","type":"bytes32","internalType":"bytes32"},{"name":"account","type":"address","internalType":"address"}],"outputs":[],"stateMutability":"nonpayable"},{"type":"function","name":"supportsInterface","inputs":[{"name":"interfaceId","type":"bytes4","internalType":"bytes4"}],"outputs":[{"name":"","type":"bool","internalType":"bool"}],"stateMutability":"view"},{"type":"function","name":"symbol","inputs":[],"outputs":[{"name":"","type":"string","internalType":"string"}],"stateMutability":"view"},{"type":"function","name":"totalSupply","inputs":[],"outputs":[{"name":"","type":"uint256","internalType":"uint256"}],"stateMutability":"view"},{"type":"function","name":"transfer","inputs":[{"name":"to","type":"address","internalType":"address"},{"name":"value","type":"uint256","internalType":"uint256"}],"outputs":[{"name":"","type":"bool","internalType":"bool"}],"stateMutability":"nonpayable"},{"type":"function","name":"transferFrom","inputs":[{"name":"from","type":"address","internalType":"address"},{"name":"to","type":"address","internalType":"address"},{"name":"value","type":"uint256","internalType":"uint256"}],"outputs":[{"name":"","type":"bool","internalType":"bool"}],"stateMutability":"nonpayable"},{"type":"event","name":"Approval","inputs":[{"name":"owner","type":"address","indexed":true,"internalType":"address"},{"name":"spender","type":"address","indexed":true,"internalType":"address"},{"name":"value","type":"uint256","indexed":false,"internalType":"uint256"}],"anonymous":false},{"type":"event","name":"RoleAdminChanged","inputs":[{"name":"role","type":"bytes32","indexed":true,"internalType":"bytes32"},{"name":"previousAdminRole","type":"bytes32","indexed":true,"internalType":"bytes32"},{"name":"newAdminRole","type":"bytes32","indexed":true,"internalType":"bytes32"}],"anonymous":false},{"type":"event","name":"RoleGranted","inputs":[{"name":"role","type":"bytes32","indexed":true,"internalType":"bytes32"},{"name":"account","type":"address","indexed":true,"internalType":"address"},{"name":"sender","type":"address","indexed":true,"internalType":"address"}],"anonymous":false},{"type":"event","name":"RoleRevoked","inputs":[{"name":"role","type":"bytes32","indexed":true,"internalType":"bytes32"},{"name":"account","type":"address","indexed":true,"internalType":"address"},{"name":"sender","type":"address","indexed":true,"internalType":"address"}],"anonymous":false},{"type":"event","name":"Transfer","inputs":[{"name":"from","type":"address","indexed":true,"internalType":"address"},{"name":"to","type":"address","indexed":true,"internalType":"address"},{"name":"value","type":"uint256","indexed":false,"internalType":"uint256"}],"anonymous":false},{"type":"error","name":"AccessControlBadConfirmation","inputs":[]},{"type":"error","name":"AccessControlUnauthorizedAccount","inputs":[{"name":"account","type":"address","internalType":"address"},{"name":"neededRole","type":"bytes32","internalType":"bytes32"}]},{"type":"error","name":"ERC20InsufficientAllowance","inputs":[{"name":"spender","type":"address","internalType":"address"},{"name":"allowance","type":"uint256","internalType":"uint256"},{"name":"needed","type":"uint256","internalType":"uint256"}]},{"type":"error","name":"ERC20InsufficientBalance","inputs":[{"name":"sender","type":"address","internalType":"address"},{"name":"balance","type":"uint256","internalType":"uint256"},{"name":"needed","type":"uint256","internalType":"uint256"}]},{"type":"error","name":"ERC20InvalidApprover","inputs":[{"name":"approver","type":"address","internalType":"address"}]},{"type":"error","name":"ERC20InvalidReceiver","inputs":[{"name":"receiver","type":"address","internalType":"address"}]},{"type":"error","name":"ERC20InvalidSender","inputs":[{"name":"sender","type":"address","internalType":"address"}]},{"type":"error","name":"ERC20InvalidSpender","inputs":[{"name":"spender","type":"address","internalType":"address"}]},{"type":"error","name":"noPermission","inputs":[{"name":"adr","type":"address","internalType":"address"}]}],"bytecode":{"object":"0x60806040523480156200001157600080fd5b5060405162001226380380620012268339810160408190526200003491620001ac565b6040518060400160405280600981526020016829a0aa282a37b5b2b760b91b815250604051806040016040528060048152602001630534154560e41b815250816004908162000084919062000283565b50600562000093828262000283565b505050620000c87fb19546dff01e856fb3f010c267a7b1c60363cf8a4664e21cc89c26224620214e82620000fd60201b60201c565b50620000f57f52ba824bfabc2bcfcdf7f0edbb486ebb05e1836c90e78047efeb949990f72e5f82620000fd565b50506200034f565b6000828152602081815260408083206001600160a01b038516845290915281205460ff16620001a2576000838152602081815260408083206001600160a01b03861684529091529020805460ff19166001179055620001593390565b6001600160a01b0316826001600160a01b0316847f2f8788117e7eff1d82e926ec794901d17c78024a50270940304540a733656f0d60405160405180910390a4506001620001a6565b5060005b92915050565b600060208284031215620001bf57600080fd5b81516001600160a01b0381168114620001d757600080fd5b9392505050565b634e487b7160e01b600052604160045260246000fd5b600181811c908216806200020957607f821691505b6020821081036200022a57634e487b7160e01b600052602260045260246000fd5b50919050565b601f8211156200027e57600081815260208120601f850160051c81016020861015620002595750805b601f850160051c820191505b818110156200027a5782815560010162000265565b5050505b505050565b81516001600160401b038111156200029f576200029f620001de565b620002b781620002b08454620001f4565b8462000230565b602080601f831160018114620002ef5760008415620002d65750858301515b600019600386901b1c1916600185901b1785556200027a565b600085815260208120601f198616915b828110156200032057888601518255948401946001909101908401620002ff565b50858210156200033f5787850151600019600388901b60f8161c191681555b5050505050600190811b01905550565b610ec7806200035f6000396000f3fe608060405234801561001057600080fd5b50600436106101825760003560e01c806391d14854116100d8578063a9059cbb1161008c578063dd62ed3e11610066578063dd62ed3e1461034c578063e58378bb14610385578063ea134071146103ac57600080fd5b8063a9059cbb146102ff578063b5bfddea14610312578063d547741f1461033957600080fd5b80639dc29fac116100bd5780639dc29fac146102d1578063a217fddf146102e4578063a5e99b8e146102ec57600080fd5b806391d148541461029257806395d89b41146102c957600080fd5b8063248a9ca31161013a57806336568abe1161011457806336568abe1461024357806340c10f191461025657806370a082311461026957600080fd5b8063248a9ca3146101fc5780632f2ff15d1461021f578063313ce5671461023457600080fd5b8063095ea7b31161016b578063095ea7b3146101c457806318160ddd146101d757806323b872dd146101e957600080fd5b806301ffc9a71461018757806306fdde03146101af575b600080fd5b61019a610195366004610c99565b6103bf565b60405190151581526020015b60405180910390f35b6101b7610458565b6040516101a69190610ce2565b61019a6101d2366004610d4c565b6104ea565b6003545b6040519081526020016101a6565b61019a6101f7366004610d76565b610502565b6101db61020a366004610db2565b60009081526020819052604090206001015490565b61023261022d366004610dcb565b610526565b005b604051601281526020016101a6565b610232610251366004610dcb565b610551565b61019a610264366004610d4c565b6105a2565b6101db610277366004610df7565b6001600160a01b031660009081526001602052604090205490565b61019a6102a0366004610dcb565b6000918252602082815260408084206001600160a01b0393909316845291905290205460ff1690565b6101b76105d8565b61019a6102df366004610d4c565b6105e7565b6101db600081565b61019a6102fa366004610df7565b61061d565b61019a61030d366004610d4c565b61067f565b6101db7f52ba824bfabc2bcfcdf7f0edbb486ebb05e1836c90e78047efeb949990f72e5f81565b610232610347366004610dcb565b61068d565b6101db61035a366004610e12565b6001600160a01b03918216600090815260026020908152604080832093909416825291909152205490565b6101db7fb19546dff01e856fb3f010c267a7b1c60363cf8a4664e21cc89c26224620214e81565b61019a6103ba366004610df7565b6106b2565b60007fffffffff0000000000000000000000000000000000000000000000000000000082167f7965db0b00000000000000000000000000000000000000000000000000000000148061045257507f01ffc9a7000000000000000000000000000000000000000000000000000000007fffffffff000000000000000000000000000000000000000000000000000000008316145b92915050565b60606004805461046790610e3c565b80601f016020809104026020016040519081016040528092919081815260200182805461049390610e3c565b80156104e05780601f106104b5576101008083540402835291602001916104e0565b820191906000526020600020905b8154815290600101906020018083116104c357829003601f168201915b5050505050905090565b6000336104f881858561073c565b5060019392505050565b600033610510858285610749565b61051b8585856107da565b506001949350505050565b60008281526020819052604090206001015461054181610839565b61054b8383610846565b50505050565b6001600160a01b0381163314610593576040517f6697b23200000000000000000000000000000000000000000000000000000000815260040160405180910390fd5b61059d82826108f0565b505050565b60007f52ba824bfabc2bcfcdf7f0edbb486ebb05e1836c90e78047efeb949990f72e5f6105ce81610839565b6104f88484610973565b60606005805461046790610e3c565b60007f52ba824bfabc2bcfcdf7f0edbb486ebb05e1836c90e78047efeb949990f72e5f61061381610839565b6104f884846109ad565b60007fb19546dff01e856fb3f010c267a7b1c60363cf8a4664e21cc89c26224620214e61064981610839565b6106737f52ba824bfabc2bcfcdf7f0edbb486ebb05e1836c90e78047efeb949990f72e5f84610846565b50600191505b50919050565b6000336104f88185856107da565b6000828152602081905260409020600101546106a881610839565b61054b83836108f0565b6001600160a01b03811660009081527f7dcd276b72586271b4623598c6b3ecb5f3594881d1da5ce0d28e8f8adbf67787602052604081205460ff16156106fa57506001919050565b6040517f1aee145f0000000000000000000000000000000000000000000000000000000081526001600160a01b03831660048201526024015b60405180910390fd5b61059d83838360016109e3565b6001600160a01b03838116600090815260026020908152604080832093861683529290522054600019811461054b57818110156107cb576040517ffb8f41b20000000000000000000000000000000000000000000000000000000081526001600160a01b03841660048201526024810182905260448101839052606401610733565b61054b848484840360006109e3565b6001600160a01b03831661080457604051634b637e8f60e11b815260006004820152602401610733565b6001600160a01b03821661082e5760405163ec442f0560e01b815260006004820152602401610733565b61059d838383610aea565b6108438133610c2d565b50565b6000828152602081815260408083206001600160a01b038516845290915281205460ff166108e8576000838152602081815260408083206001600160a01b03861684529091529020805460ff191660011790556108a03390565b6001600160a01b0316826001600160a01b0316847f2f8788117e7eff1d82e926ec794901d17c78024a50270940304540a733656f0d60405160405180910390a4506001610452565b506000610452565b6000828152602081815260408083206001600160a01b038516845290915281205460ff16156108e8576000838152602081815260408083206001600160a01b0386168085529252808320805460ff1916905551339286917ff6391f5c32d9c69d2a47ea670b442974b53935d1edc7fd64eb21e047a839171b9190a4506001610452565b6001600160a01b03821661099d5760405163ec442f0560e01b815260006004820152602401610733565b6109a960008383610aea565b5050565b6001600160a01b0382166109d757604051634b637e8f60e11b815260006004820152602401610733565b6109a982600083610aea565b6001600160a01b038416610a26576040517fe602df0500000000000000000000000000000000000000000000000000000000815260006004820152602401610733565b6001600160a01b038316610a69576040517f94280d6200000000000000000000000000000000000000000000000000000000815260006004820152602401610733565b6001600160a01b038085166000908152600260209081526040808320938716835292905220829055801561054b57826001600160a01b0316846001600160a01b03167f8c5be1e5ebec7d5bd14f71427d1e84f3dd0314c0f7b2291e5b200ac8c7c3b92584604051610adc91815260200190565b60405180910390a350505050565b6001600160a01b038316610b15578060036000828254610b0a9190610e70565b90915550610ba09050565b6001600160a01b03831660009081526001602052604090205481811015610b81576040517fe450d38c0000000000000000000000000000000000000000000000000000000081526001600160a01b03851660048201526024810182905260448101839052606401610733565b6001600160a01b03841660009081526001602052604090209082900390555b6001600160a01b038216610bbc57600380548290039055610bdb565b6001600160a01b03821660009081526001602052604090208054820190555b816001600160a01b0316836001600160a01b03167fddf252ad1be2c89b69c2b068fc378daa952ba7f163c4a11628f55a4df523b3ef83604051610c2091815260200190565b60405180910390a3505050565b6000828152602081815260408083206001600160a01b038516845290915290205460ff166109a9576040517fe2517d3f0000000000000000000000000000000000000000000000000000000081526001600160a01b038216600482015260248101839052604401610733565b600060208284031215610cab57600080fd5b81357fffffffff0000000000000000000000000000000000000000000000000000000081168114610cdb57600080fd5b9392505050565b600060208083528351808285015260005b81811015610d0f57858101830151858201604001528201610cf3565b506000604082860101526040601f19601f8301168501019250505092915050565b80356001600160a01b0381168114610d4757600080fd5b919050565b60008060408385031215610d5f57600080fd5b610d6883610d30565b946020939093013593505050565b600080600060608486031215610d8b57600080fd5b610d9484610d30565b9250610da260208501610d30565b9150604084013590509250925092565b600060208284031215610dc457600080fd5b5035919050565b60008060408385031215610dde57600080fd5b82359150610dee60208401610d30565b90509250929050565b600060208284031215610e0957600080fd5b610cdb82610d30565b60008060408385031215610e2557600080fd5b610e2e83610d30565b9150610dee60208401610d30565b600181811c90821680610e5057607f821691505b60208210810361067957634e487b7160e01b600052602260045260246000fd5b8082018082111561045257634e487b7160e01b600052601160045260246000fdfea264697066735822122080f57a9600820664ab8859a1e07876e27eb5ea500e2ed80b8ab7c8d5ad185bfe64736f6c63430008140033","linkReferences":{}},"methodIdentifiers":{"BRIDGE_ROLE()":"b5bfddea","DEFAULT_ADMIN_ROLE()":"a217fddf","OWNER_ROLE()":"e58378bb","allowance(address,address)":"dd62ed3e","approve(address,uint256)":"095ea7b3","balanceOf(address)":"70a08231","burn(address,uint256)":"9dc29fac","decimals()":"313ce567","getRoleAdmin(bytes32)":"248a9ca3","grantBridgeRole(address)":"a5e99b8e","grantRole(bytes32,address)":"2f2ff15d","hasBridgeRole(address)":"ea134071","hasRole(bytes32,address)":"91d14854","mint(address,uint256)":"40c10f19","name()":"06fdde03","renounceRole(bytes32,address)":"36568abe","revokeRole(bytes32,address)":"d547741f","supportsInterface(bytes4)":"01ffc9a7","symbol()":"95d89b41","totalSupply()":"18160ddd","transfer(address,uint256)":"a9059cbb","transferFrom(address,address,uint256)":"23b872dd"},"id":14}