{
  "contractName": "HelloWorld",
  "abi": [
    {
      "inputs": [],
      "name": "sayHello",
      "outputs": [
        {
          "internalType": "string",
          "name": "",
          "type": "string"
        }
      ],
      "stateMutability": "pure",
      "type": "function"
    },
    {
      "inputs": [],
      "name": "getName",
      "outputs": [
        {
          "internalType": "string",
          "name": "",
          "type": "string"
        }
      ],
      "stateMutability": "view",
      "type": "function"
    },
    {
      "inputs": [
        {
          "internalType": "uint256",
          "name": "index",
          "type": "uint256"
        }
      ],
      "name": "getNameByIndex",
      "outputs": [
        {
          "internalType": "string",
          "name": "",
          "type": "string"
        }
      ],
      "stateMutability": "view",
      "type": "function"
    },
    {
      "inputs": [
        {
          "internalType": "string",
          "name": "newName",
          "type": "string"
        }
      ],
      "name": "setName",
      "outputs": [],
      "stateMutability": "nonpayable",
      "type": "function"
    }
  ],
  "bytecode": "60806040526040518060400160405280600d81526020017f4361707461696e436163747573000000000000000000000000000000000000008152506000908051906020019061004f929190610062565b5034801561005c57600080fd5b50610166565b82805461006e90610105565b90600052602060002090601f01602090048101928261009057600085556100d7565b82601f106100a957805160ff19168380011785556100d7565b828001600101855582156100d7579182015b828111156100d65782518255916020019190600101906100bb565b5b5090506100e491906100e8565b5090565b5b808211156101015760008160009055506001016100e9565b5090565b6000600282049050600182168061011d57607f821691505b6020821081141561013157610130610137565b5b50919050565b7f4e487b7100000000000000000000000000000000000000000000000000000000600052602260045260246000fd5b610670806101756000396000f3fe608060405234801561001057600080fd5b506004361061004c5760003560e01c806317d7de7c1461005157806359c293f11461006f578063c47f00271461009f578063ef5fb05b146100bb575b600080fd5b6100596100d9565b6040516100669190610497565b60405180910390f35b61008960048036038101906100849190610435565b61016b565b6040516100969190610497565b60405180910390f35b6100b960048036038101906100b491906103f4565b610241565b005b6100c3610297565b6040516100d09190610497565b60405180910390f35b6060600080546100e890610582565b80601f016020809104026020016040519081016040528092919081815260200182805461011490610582565b80156101615780601f1061013657610100808354040283529160200191610161565b820191906000526020600020905b81548152906001019060200180831161014457829003601f168201915b5050505050905090565b6060600182815481106101a7577f4e487b7100000000000000000000000000000000000000000000000000000000600052603260045260246000fd5b9060005260206000200180546101bc90610582565b80601f01602080910402602001604051908101604052809291908181526020018280546101e890610582565b80156102355780601f1061020a57610100808354040283529160200191610235565b820191906000526020600020905b81548152906001019060200180831161021857829003601f168201915b50505050509050919050565b80600090805190602001906102579291906102d4565b506001819080600181540180825580915050600190039060005260206000200160009091909190915090805190602001906102939291906102d4565b5050565b60606040518060400160405280600c81526020017f48656c6c6f20576f726c64210000000000000000000000000000000000000000815250905090565b8280546102e090610582565b90600052602060002090601f0160209004810192826103025760008555610349565b82601f1061031b57805160ff1916838001178555610349565b82800160010185558215610349579182015b8281111561034857825182559160200191906001019061032d565b5b509050610356919061035a565b5090565b5b8082111561037357600081600090555060010161035b565b5090565b600061038a610385846104ea565b6104b9565b9050828152602081018484840111156103a257600080fd5b6103ad848285610540565b509392505050565b600082601f8301126103c657600080fd5b81356103d6848260208601610377565b91505092915050565b6000813590506103ee81610623565b92915050565b60006020828403121561040657600080fd5b600082013567ffffffffffffffff81111561042057600080fd5b61042c848285016103b5565b91505092915050565b60006020828403121561044757600080fd5b6000610455848285016103df565b91505092915050565b60006104698261051a565b6104738185610525565b935061048381856020860161054f565b61048c81610612565b840191505092915050565b600060208201905081810360008301526104b1818461045e565b905092915050565b6000604051905081810181811067ffffffffffffffff821117156104e0576104df6105e3565b5b8060405250919050565b600067ffffffffffffffff821115610505576105046105e3565b5b601f19601f8301169050602081019050919050565b600081519050919050565b600082825260208201905092915050565b6000819050919050565b82818337600083830152505050565b60005b8381101561056d578082015181840152602081019050610552565b8381111561057c576000848401525b50505050565b6000600282049050600182168061059a57607f821691505b602082108114156105ae576105ad6105b4565b5b50919050565b7f4e487b7100000000000000000000000000000000000000000000000000000000600052602260045260246000fd5b7f4e487b7100000000000000000000000000000000000000000000000000000000600052604160045260246000fd5b6000601f19601f8301169050919050565b61062c81610536565b811461063757600080fd5b5056fea2646970667358221220c9934d53136ab6541d23237612f126b1ab087a7e071e69352f31f1a8ab1def7364736f6c63430008000033",
  "immutableReferences": {},
  "source": "// *****************************************************************************\n// IMPORTANT: If you update this code then make sure to recompile\n// it and update the .json file as well so that they\n// remain in sync for consistent test executions.\n// With that said, there shouldn't be any reason to recompile this, like ever...\n// *****************************************************************************\n\npragma solidity >=0.7.0;\n\ncontract HelloWorld {\n  string private name = \"CaptainCactus\";\n  string[] private names; \n\n  function sayHello () public pure returns (string memory) {\n    return 'Hello World!';\n  }\n\n  function getName() public view returns (string memory)\n  {\n      return name;\n  }\n\n  function getNameByIndex(uint256 index) public view returns (string memory)\n  {\n      return names[index];\n  }\n\n  function setName(string memory newName) public\n  {\n      name = newName;\n      names.push(newName);\n  }\n\n}\n",
  "sourcePath": "/Users/jordigironamezcua/pruebas/contracts/HelloWorld.sol",
  "compiler": {
    "name": "solc",
    "version": "0.8.0+commit.c7dfd78e.Emscripten.clang"
  },
  "schemaVersion": "3.3.3",
  "updatedAt": "2021-02-09T14:53:15.855Z",
  "devdoc": {
    "kind": "dev",
    "methods": {},
    "version": 1
  },
  "userdoc": {
    "kind": "user",
    "methods": {},
    "version": 1
  }
}