{
    "contractName": "LockAsset",
    "abi": [
        {
            "inputs": [
                {
                    "internalType": "string",
                    "name": "id",
                    "type": "string"
                },
                {
                    "internalType": "uint256",
                    "name": "size",
                    "type": "uint256"
                }
            ],
            "name": "createAsset",
            "outputs": [],
            "stateMutability": "nonpayable",
            "type": "function"
        },
        {
            "inputs": [
                {
                    "internalType": "string",
                    "name": "id",
                    "type": "string"
                }
            ],
            "name": "deleteAsset",
            "outputs": [],
            "stateMutability": "nonpayable",
            "type": "function"
        },
        {
            "inputs": [
                {
                    "internalType": "string",
                    "name": "id",
                    "type": "string"
                }
            ],
            "name": "getAsset",
            "outputs": [
                {
                    "components": [
                        {
                            "internalType": "address",
                            "name": "creator",
                            "type": "address"
                        },
                        {
                            "internalType": "bool",
                            "name": "isLock",
                            "type": "bool"
                        },
                        {
                            "internalType": "uint256",
                            "name": "size",
                            "type": "uint256"
                        }
                    ],
                    "internalType": "struct Asset",
                    "name": "",
                    "type": "tuple"
                }
            ],
            "stateMutability": "view",
            "type": "function"
        },
        {
            "inputs": [
                {
                    "internalType": "string",
                    "name": "id",
                    "type": "string"
                }
            ],
            "name": "isAssetLocked",
            "outputs": [
                {
                    "internalType": "bool",
                    "name": "",
                    "type": "bool"
                }
            ],
            "stateMutability": "view",
            "type": "function"
        },
        {
            "inputs": [
                {
                    "internalType": "string",
                    "name": "id",
                    "type": "string"
                }
            ],
            "name": "isPresent",
            "outputs": [
                {
                    "internalType": "bool",
                    "name": "",
                    "type": "bool"
                }
            ],
            "stateMutability": "view",
            "type": "function"
        },
        {
            "inputs": [
                {
                    "internalType": "string",
                    "name": "id",
                    "type": "string"
                }
            ],
            "name": "lockAsset",
            "outputs": [],
            "stateMutability": "nonpayable",
            "type": "function"
        },
        {
            "inputs": [
                {
                    "internalType": "string",
                    "name": "id",
                    "type": "string"
                }
            ],
            "name": "unLockAsset",
            "outputs": [],
            "stateMutability": "nonpayable",
            "type": "function"
        }
    ],
    "bytecode": "608060405234801561001057600080fd5b506105f9806100206000396000f3fe608060405234801561001057600080fd5b506004361061007d5760003560e01c8063cd5286d01161005b578063cd5286d0146100d2578063db9cc41014610112578063def60e0d14610125578063e24aa37c1461013857600080fd5b80631ae4eb68146100825780635e82d0a6146100aa578063bc548275146100bf575b600080fd5b610095610090366004610525565b61014b565b60405190151581526020015b60405180910390f35b6100bd6100b8366004610525565b6101b5565b005b6100956100cd366004610525565b61022a565b6100e56100e0366004610525565b610259565b6040805182516001600160a01b0316815260208084015115159082015291810151908201526060016100a1565b6100bd610120366004610567565b6102d1565b6100bd610133366004610525565b6103bc565b6100bd610146366004610525565b610402565b600080600184846040516101609291906105b3565b9081526040519081900360200190205460ff1690508061017f57600080fd5b600084846040516101919291906105b3565b9081526040519081900360200190205460ff600160a01b9091041691505092915050565b6000600183836040516101c99291906105b3565b9081526040519081900360200190205460ff169050806101e857600080fd5b6001600084846040516101fc9291906105b3565b9081526040519081900360200190208054911515600160a01b0260ff60a01b19909216919091179055505050565b60006001838360405161023e9291906105b3565b9081526040519081900360200190205460ff16905092915050565b6040805160608101825260008082526020820181905291810191909152600083836040516102889291906105b3565b908152604080516020928190038301812060608201835280546001600160a01b0381168352600160a01b900460ff16151593820193909352600190920154908201529392505050565b600081116102de57600080fd5b80600084846040516102f19291906105b3565b90815260200160405180910390206001018190555033600084846040516103199291906105b3565b90815260405190819003602001812080546001600160a01b03939093166001600160a01b031990931692909217909155600090819061035b90869086906105b3565b9081526040519081900360200181208054921515600160a01b0260ff60a01b1990931692909217909155600190819061039790869086906105b3565b908152604051908190036020019020805491151560ff19909216919091179055505050565b6000600183836040516103d09291906105b3565b9081526040519081900360200190205460ff169050806103ef57600080fd5b60008084846040516101fc9291906105b3565b6000600183836040516104169291906105b3565b9081526040519081900360200190205460ff1690508061043557600080fd5b60008084846040516104489291906105b3565b9081526040519081900360200190205460ff600160a01b9091041690508061046f57600080fd5b600084846040516104819291906105b3565b90815260405190819003602001812080546001600160a81b031916815560006001918201819055916104b690879087906105b3565b908152604051908190036020019020805491151560ff1990921691909117905550505050565b60008083601f8401126104ee57600080fd5b50813567ffffffffffffffff81111561050657600080fd5b60208301915083602082850101111561051e57600080fd5b9250929050565b6000806020838503121561053857600080fd5b823567ffffffffffffffff81111561054f57600080fd5b61055b858286016104dc565b90969095509350505050565b60008060006040848603121561057c57600080fd5b833567ffffffffffffffff81111561059357600080fd5b61059f868287016104dc565b909790965060209590950135949350505050565b818382376000910190815291905056fea2646970667358221220256d00c6b6e97111d048c9a6a3069f078880240932a634dae7aec643dc6ade7664736f6c634300080f0033",
    "sourcePath": "/home/andre_9a/cactus/packages/cactus-plugin-satp-hermes/src/test/solidity/lock-asset-contract/lock-asset.sol",
    "compiler": {
        "name": "solc",
        "version": "0.8.15+commit.e14f2714"
    },
    "functionHashes": {
        "createAsset(string,uint256)": "db9cc410",
        "deleteAsset(string)": "e24aa37c",
        "getAsset(string)": "cd5286d0",
        "isAssetLocked(string)": "1ae4eb68",
        "isPresent(string)": "bc548275",
        "lockAsset(string)": "5e82d0a6",
        "unLockAsset(string)": "def60e0d"
    },
    "gasEstimates": {
        "creation": {
            "codeDepositCost": "305800",
            "executionCost": "343",
            "totalCost": "306143"
        },
        "external": {
            "createAsset(string,uint256)": "infinite",
            "deleteAsset(string)": "infinite",
            "getAsset(string)": "infinite",
            "isAssetLocked(string)": "infinite",
            "isPresent(string)": "infinite",
            "lockAsset(string)": "infinite",
            "unLockAsset(string)": "infinite"
        }
    }
}