{"abi":[{"type":"function","name":"enhancedRecords","inputs":[{"name":"","type":"uint256","internalType":"uint256"}],"outputs":[{"name":"id","type":"string","internalType":"string"},{"name":"fabricProductId","type":"string","internalType":"string"},{"name":"name","type":"string","internalType":"string"},{"name":"shelfType","type":"string","internalType":"string"},{"name":"price","type":"uint256","internalType":"uint256"},{"name":"creationDate","type":"uint256","internalType":"uint256"},{"name":"status","type":"string","internalType":"string"}],"stateMutability":"view"},{"type":"function","name":"getAllEnhancedRecords","inputs":[],"outputs":[{"name":"","type":"tuple[]","internalType":"struct BookshelfRepository.EnhancedBookshelf[]","components":[{"name":"id","type":"string","internalType":"string"},{"name":"fabricProductId","type":"string","internalType":"string"},{"name":"name","type":"string","internalType":"string"},{"name":"shelfType","type":"string","internalType":"string"},{"name":"price","type":"uint256","internalType":"uint256"},{"name":"creationDate","type":"uint256","internalType":"uint256"},{"name":"status","type":"string","internalType":"string"}]}],"stateMutability":"view"},{"type":"function","name":"getAllOrders","inputs":[],"outputs":[{"name":"","type":"tuple[]","internalType":"struct BookshelfRepository.Order[]","components":[{"name":"orderId","type":"string","internalType":"string"},{"name":"bookshelfId","type":"string","internalType":"string"},{"name":"buyer","type":"address","internalType":"address"},{"name":"amount","type":"uint256","internalType":"uint256"},{"name":"status","type":"string","internalType":"string"},{"name":"timestamp","type":"uint256","internalType":"uint256"}]}],"stateMutability":"view"},{"type":"function","name":"getAllRecords","inputs":[],"outputs":[{"name":"","type":"tuple[]","internalType":"struct SupplyChainAppDataModelLib.BookshelfEntity[]","components":[{"name":"id","type":"string","internalType":"string"},{"name":"shelfCount","type":"uint8","internalType":"uint8"},{"name":"bambooHarvestId","type":"string","internalType":"string"}]}],"stateMutability":"view"},{"type":"function","name":"getOrder","inputs":[{"name":"orderId","type":"string","internalType":"string"}],"outputs":[{"name":"","type":"tuple","internalType":"struct BookshelfRepository.Order","components":[{"name":"orderId","type":"string","internalType":"string"},{"name":"bookshelfId","type":"string","internalType":"string"},{"name":"buyer","type":"address","internalType":"address"},{"name":"amount","type":"uint256","internalType":"uint256"},{"name":"status","type":"string","internalType":"string"},{"name":"timestamp","type":"uint256","internalType":"uint256"}]}],"stateMutability":"view"},{"type":"function","name":"getProduct","inputs":[{"name":"bookshelfId","type":"string","internalType":"string"}],"outputs":[{"name":"","type":"tuple","internalType":"struct BookshelfRepository.EnhancedBookshelf","components":[{"name":"id","type":"string","internalType":"string"},{"name":"fabricProductId","type":"string","internalType":"string"},{"name":"name","type":"string","internalType":"string"},{"name":"shelfType","type":"string","internalType":"string"},{"name":"price","type":"uint256","internalType":"uint256"},{"name":"creationDate","type":"uint256","internalType":"uint256"},{"name":"status","type":"string","internalType":"string"}]}],"stateMutability":"view"},{"type":"function","name":"insertEnhancedRecord","inputs":[{"name":"id","type":"string","internalType":"string"},{"name":"fabricProductId","type":"string","internalType":"string"},{"name":"name","type":"string","internalType":"string"},{"name":"shelfType","type":"string","internalType":"string"},{"name":"price","type":"uint256","internalType":"uint256"},{"name":"creationDate","type":"uint256","internalType":"uint256"}],"outputs":[{"name":"","type":"string","internalType":"string"}],"stateMutability":"nonpayable"},{"type":"function","name":"insertRecord","inputs":[{"name":"record","type":"tuple","internalType":"struct SupplyChainAppDataModelLib.BookshelfEntity","components":[{"name":"id","type":"string","internalType":"string"},{"name":"shelfCount","type":"uint8","internalType":"uint8"},{"name":"bambooHarvestId","type":"string","internalType":"string"}]}],"outputs":[{"name":"success","type":"bool","internalType":"bool"}],"stateMutability":"nonpayable"},{"type":"function","name":"orderIds","inputs":[{"name":"","type":"uint256","internalType":"uint256"}],"outputs":[{"name":"","type":"string","internalType":"string"}],"stateMutability":"view"},{"type":"function","name":"orders","inputs":[{"name":"","type":"string","internalType":"string"}],"outputs":[{"name":"orderId","type":"string","internalType":"string"},{"name":"bookshelfId","type":"string","internalType":"string"},{"name":"buyer","type":"address","internalType":"address"},{"name":"amount","type":"uint256","internalType":"uint256"},{"name":"status","type":"string","internalType":"string"},{"name":"timestamp","type":"uint256","internalType":"uint256"}],"stateMutability":"view"},{"type":"function","name":"placeOrder","inputs":[{"name":"bookshelfId","type":"string","internalType":"string"}],"outputs":[{"name":"","type":"string","internalType":"string"}],"stateMutability":"payable"},{"type":"function","name":"updateOrderStatus","inputs":[{"name":"orderId","type":"string","internalType":"string"},{"name":"status","type":"string","internalType":"string"}],"outputs":[],"stateMutability":"nonpayable"}],"bytecode":{"object":"0x608060405234801561001057600080fd5b506125ac806100206000396000f3fe6080604052600436106100a75760003560e01c8063712ca0f811610064578063712ca0f8146101a65780637bea0d1c146101d3578063a7f9fe72146101f5578063c55a2cae14610217578063edfa77d014610237578063f2fae9cc1461025957600080fd5b80631a948947146100ac57806323722084146100e75780633abae2be14610114578063453217f8146101365780634735f16c1461014957806368111cce14610179575b600080fd5b3480156100b857600080fd5b506100cc6100c7366004611d29565b61028c565b6040516100de96959493929190611db6565b60405180910390f35b3480156100f357600080fd5b50610107610102366004611e19565b610471565b6040516100de9190611e32565b34801561012057600080fd5b5061012961051d565b6040516100de9190611ee5565b610107610144366004611d29565b61086a565b34801561015557600080fd5b50610169610164366004611f47565b610c15565b60405190151581526020016100de565b34801561018557600080fd5b50610199610194366004611d29565b610c92565b6040516100de9190611ff1565b3480156101b257600080fd5b506101c66101c1366004611d29565b611098565b6040516100de919061207f565b3480156101df57600080fd5b506101e861131e565b6040516100de9190612092565b34801561020157600080fd5b5061020a6115e4565b6040516100de91906120e7565b34801561022357600080fd5b5061010761023236600461217b565b61176f565b34801561024357600080fd5b5061025761025236600461223a565b611884565b005b34801561026557600080fd5b50610279610274366004611e19565b611924565b6040516100de979695949392919061229e565b80516020818301810180516002825292820191909301209152805481906102b290612319565b80601f01602080910402602001604051908101604052809291908181526020018280546102de90612319565b801561032b5780601f106103005761010080835404028352916020019161032b565b820191906000526020600020905b81548152906001019060200180831161030e57829003601f168201915b50505050509080600101805461034090612319565b80601f016020809104026020016040519081016040528092919081815260200182805461036c90612319565b80156103b95780601f1061038e576101008083540402835291602001916103b9565b820191906000526020600020905b81548152906001019060200180831161039c57829003601f168201915b505050506002830154600384015460048501805494956001600160a01b0390931694919350906103e890612319565b80601f016020809104026020016040519081016040528092919081815260200182805461041490612319565b80156104615780601f1061043657610100808354040283529160200191610461565b820191906000526020600020905b81548152906001019060200180831161044457829003601f168201915b5050505050908060050154905086565b6003818154811061048157600080fd5b90600052602060002001600091509050805461049c90612319565b80601f01602080910402602001604051908101604052809291908181526020018280546104c890612319565b80156105155780601f106104ea57610100808354040283529160200191610515565b820191906000526020600020905b8154815290600101906020018083116104f857829003601f168201915b505050505081565b60606001805480602002602001604051908101604052809291908181526020016000905b8282101561086157838290600052602060002090600702016040518060e001604052908160008201805461057490612319565b80601f01602080910402602001604051908101604052809291908181526020018280546105a090612319565b80156105ed5780601f106105c2576101008083540402835291602001916105ed565b820191906000526020600020905b8154815290600101906020018083116105d057829003601f168201915b5050505050815260200160018201805461060690612319565b80601f016020809104026020016040519081016040528092919081815260200182805461063290612319565b801561067f5780601f106106545761010080835404028352916020019161067f565b820191906000526020600020905b81548152906001019060200180831161066257829003601f168201915b5050505050815260200160028201805461069890612319565b80601f01602080910402602001604051908101604052809291908181526020018280546106c490612319565b80156107115780601f106106e657610100808354040283529160200191610711565b820191906000526020600020905b8154815290600101906020018083116106f457829003601f168201915b5050505050815260200160038201805461072a90612319565b80601f016020809104026020016040519081016040528092919081815260200182805461075690612319565b80156107a35780601f10610778576101008083540402835291602001916107a3565b820191906000526020600020905b81548152906001019060200180831161078657829003601f168201915b5050505050815260200160048201548152602001600582015481526020016006820180546107d090612319565b80601f01602080910402602001604051908101604052809291908181526020018280546107fc90612319565b80156108495780601f1061081e57610100808354040283529160200191610849565b820191906000526020600020905b81548152906001019060200180831161082c57829003601f168201915b50505050508152505081526020019060010190610541565b50505050905090565b6060600080805b600154811015610a1a578480519060200120600182815481106108965761089661234d565b90600052602060002090600702016000016040516108b491906123d6565b604051809103902003610a0857604080518082019091526009815268415641494c41424c4560b81b602090910152600180547f5c7033c35df73bffb383718c231ed61a38b5a1899467d83e34142c6a420424da9190839081106109195761091961234d565b906000526020600020906007020160060160405161093791906123d6565b6040518091039020146109915760405162461bcd60e51b815260206004820152601760248201527f426f6f6b7368656c66206e6f7420617661696c61626c6500000000000000000060448201526064015b60405180910390fd5b600181815481106109a4576109a461234d565b9060005260206000209060070201600401543410156109fc5760405162461bcd60e51b8152602060048201526014602482015273125b9cdd59999a58da595b9d081c185e5b595b9d60621b6044820152606401610988565b60019250809150610a1a565b80610a12816123f8565b915050610871565b5081610a5e5760405162461bcd60e51b8152602060048201526013602482015272109bdbdadcda195b19881b9bdd08199bdd5b99606a1b6044820152606401610988565b6000612710610a6e600143612411565b610a7991904061242a565b6040516b4f524445522d5348454c462d60a01b6020820152602c810191909152604c0160408051601f1981840301815260c083018252808352602083810189905233848401523460608501528251808401845260048152631410525160e21b9181019190915260808401524260a08401529051909250600290610afd90849061244c565b90815260405190819003602001902081518190610b1a90826124b6565b5060208201516001820190610b2f90826124b6565b5060408201516002820180546001600160a01b0319166001600160a01b039092169190911790556060820151600382015560808201516004820190610b7490826124b6565b5060a082015181600501559050506040518060400160405280600481526020016314d3d31160e21b81525060018381548110610bb257610bb261234d565b90600052602060002090600702016006019081610bcf91906124b6565b50600380546001810182556000919091527fc2575a0e9e593c00f959f8c92f12db2869c3395a3b0502d05e2516446f71f85b01610c0c82826124b6565b50949350505050565b60008054600181018255818052825183916003027f290decd9548b62a8d60345a988386fc84ba6bc95484008f6362f93160ef3e56301908190610c5890826124b6565b50602082015160018201805460ff191660ff90921691909117905560408201516002820190610c8790826124b6565b506001949350505050565b610cd26040518060e00160405280606081526020016060815260200160608152602001606081526020016000815260200160008152602001606081525090565b60005b60015481101561105957828051906020012060018281548110610cfa57610cfa61234d565b9060005260206000209060070201600001604051610d1891906123d6565b6040518091039020036110475760018181548110610d3857610d3861234d565b90600052602060002090600702016040518060e0016040529081600082018054610d6190612319565b80601f0160208091040260200160405190810160405280929190818152602001828054610d8d90612319565b8015610dda5780601f10610daf57610100808354040283529160200191610dda565b820191906000526020600020905b815481529060010190602001808311610dbd57829003601f168201915b50505050508152602001600182018054610df390612319565b80601f0160208091040260200160405190810160405280929190818152602001828054610e1f90612319565b8015610e6c5780601f10610e4157610100808354040283529160200191610e6c565b820191906000526020600020905b815481529060010190602001808311610e4f57829003601f168201915b50505050508152602001600282018054610e8590612319565b80601f0160208091040260200160405190810160405280929190818152602001828054610eb190612319565b8015610efe5780601f10610ed357610100808354040283529160200191610efe565b820191906000526020600020905b815481529060010190602001808311610ee157829003601f168201915b50505050508152602001600382018054610f1790612319565b80601f0160208091040260200160405190810160405280929190818152602001828054610f4390612319565b8015610f905780601f10610f6557610100808354040283529160200191610f90565b820191906000526020600020905b815481529060010190602001808311610f7357829003601f168201915b505050505081526020016004820154815260200160058201548152602001600682018054610fbd90612319565b80601f0160208091040260200160405190810160405280929190818152602001828054610fe990612319565b80156110365780601f1061100b57610100808354040283529160200191611036565b820191906000526020600020905b81548152906001019060200180831161101957829003601f168201915b505050505081525050915050919050565b80611051816123f8565b915050610cd5565b5060405162461bcd60e51b8152602060048201526013602482015272109bdbdadcda195b19881b9bdd08199bdd5b99606a1b6044820152606401610988565b6110a0611c1e565b6002826040516110b0919061244c565b90815260405190819003602001902080546110ca90612319565b905060000361110d5760405162461bcd60e51b815260206004820152600f60248201526e13dc99195c881b9bdd08199bdd5b99608a1b6044820152606401610988565b60028260405161111d919061244c565b90815260200160405180910390206040518060c001604052908160008201805461114690612319565b80601f016020809104026020016040519081016040528092919081815260200182805461117290612319565b80156111bf5780601f10611194576101008083540402835291602001916111bf565b820191906000526020600020905b8154815290600101906020018083116111a257829003601f168201915b505050505081526020016001820180546111d890612319565b80601f016020809104026020016040519081016040528092919081815260200182805461120490612319565b80156112515780601f1061122657610100808354040283529160200191611251565b820191906000526020600020905b81548152906001019060200180831161123457829003601f168201915b505050918352505060028201546001600160a01b031660208201526003820154604082015260048201805460609092019161128b90612319565b80601f01602080910402602001604051908101604052809291908181526020018280546112b790612319565b80156113045780601f106112d957610100808354040283529160200191611304565b820191906000526020600020905b8154815290600101906020018083116112e757829003601f168201915b505050505081526020016005820154815250509050919050565b60035460609060009067ffffffffffffffff81111561133f5761133f611c5d565b60405190808252806020026020018201604052801561137857816020015b611365611c1e565b81526020019060019003908161135d5790505b50905060005b6003548110156115de5760026003828154811061139d5761139d61234d565b906000526020600020016040516113b491906123d6565b90815260200160405180910390206040518060c00160405290816000820180546113dd90612319565b80601f016020809104026020016040519081016040528092919081815260200182805461140990612319565b80156114565780601f1061142b57610100808354040283529160200191611456565b820191906000526020600020905b81548152906001019060200180831161143957829003601f168201915b5050505050815260200160018201805461146f90612319565b80601f016020809104026020016040519081016040528092919081815260200182805461149b90612319565b80156114e85780601f106114bd576101008083540402835291602001916114e8565b820191906000526020600020905b8154815290600101906020018083116114cb57829003601f168201915b505050918352505060028201546001600160a01b031660208201526003820154604082015260048201805460609092019161152290612319565b80601f016020809104026020016040519081016040528092919081815260200182805461154e90612319565b801561159b5780601f106115705761010080835404028352916020019161159b565b820191906000526020600020905b81548152906001019060200180831161157e57829003601f168201915b505050505081526020016005820154815250508282815181106115c0576115c061234d565b602002602001018190525080806115d6906123f8565b91505061137e565b50919050565b60606000805480602002602001604051908101604052809291908181526020016000905b82821015610861578382906000526020600020906003020160405180606001604052908160008201805461163b90612319565b80601f016020809104026020016040519081016040528092919081815260200182805461166790612319565b80156116b45780601f10611689576101008083540402835291602001916116b4565b820191906000526020600020905b81548152906001019060200180831161169757829003601f168201915b5050509183525050600182015460ff1660208201526002820180546040909201916116de90612319565b80601f016020809104026020016040519081016040528092919081815260200182805461170a90612319565b80156117575780601f1061172c57610100808354040283529160200191611757565b820191906000526020600020905b81548152906001019060200180831161173a57829003601f168201915b50505050508152505081526020019060010190611608565b6040805160e081018252878152602080820188905281830187905260608281018790526080830186905260a0830185905283518085019094526009845268415641494c41424c4560b81b9184019190915260c0820192909252600180548082018255600091909152815182916007027fb10e2d527612073b26eecdfd717e6a320cf44b4afac2b0732d9fcbe2b7fa0cf60190819061180d90826124b6565b506020820151600182019061182290826124b6565b506040820151600282019061183790826124b6565b506060820151600382019061184c90826124b6565b506080820151600482015560a0820151600582015560c0820151600682019061187590826124b6565b50989998505050505050505050565b600282604051611894919061244c565b90815260405190819003602001902080546118ae90612319565b90506000036118f15760405162461bcd60e51b815260206004820152600f60248201526e13dc99195c881b9bdd08199bdd5b99608a1b6044820152606401610988565b80600283604051611902919061244c565b9081526020016040518091039020600401908161191f91906124b6565b505050565b6001818154811061193457600080fd5b906000526020600020906007020160009150905080600001805461195790612319565b80601f016020809104026020016040519081016040528092919081815260200182805461198390612319565b80156119d05780601f106119a5576101008083540402835291602001916119d0565b820191906000526020600020905b8154815290600101906020018083116119b357829003601f168201915b5050505050908060010180546119e590612319565b80601f0160208091040260200160405190810160405280929190818152602001828054611a1190612319565b8015611a5e5780601f10611a3357610100808354040283529160200191611a5e565b820191906000526020600020905b815481529060010190602001808311611a4157829003601f168201915b505050505090806002018054611a7390612319565b80601f0160208091040260200160405190810160405280929190818152602001828054611a9f90612319565b8015611aec5780601f10611ac157610100808354040283529160200191611aec565b820191906000526020600020905b815481529060010190602001808311611acf57829003601f168201915b505050505090806003018054611b0190612319565b80601f0160208091040260200160405190810160405280929190818152602001828054611b2d90612319565b8015611b7a5780601f10611b4f57610100808354040283529160200191611b7a565b820191906000526020600020905b815481529060010190602001808311611b5d57829003601f168201915b505050505090806004015490806005015490806006018054611b9b90612319565b80601f0160208091040260200160405190810160405280929190818152602001828054611bc790612319565b8015611c145780601f10611be957610100808354040283529160200191611c14565b820191906000526020600020905b815481529060010190602001808311611bf757829003601f168201915b5050505050905087565b6040518060c00160405280606081526020016060815260200160006001600160a01b031681526020016000815260200160608152602001600081525090565b634e487b7160e01b600052604160045260246000fd5b6040516060810167ffffffffffffffff81118282101715611c9657611c96611c5d565b60405290565b600082601f830112611cad57600080fd5b813567ffffffffffffffff80821115611cc857611cc8611c5d565b604051601f8301601f19908116603f01168101908282118183101715611cf057611cf0611c5d565b81604052838152866020858801011115611d0957600080fd5b836020870160208301376000602085830101528094505050505092915050565b600060208284031215611d3b57600080fd5b813567ffffffffffffffff811115611d5257600080fd5b611d5e84828501611c9c565b949350505050565b60005b83811015611d81578181015183820152602001611d69565b50506000910152565b60008151808452611da2816020860160208601611d66565b601f01601f19169290920160200192915050565b60c081526000611dc960c0830189611d8a565b8281036020840152611ddb8189611d8a565b6001600160a01b03881660408501526060840187905283810360808501529050611e058186611d8a565b9150508260a0830152979650505050505050565b600060208284031215611e2b57600080fd5b5035919050565b602081526000611e456020830184611d8a565b9392505050565b6000815160e08452611e6160e0850182611d8a565b905060208301518482036020860152611e7a8282611d8a565b91505060408301518482036040860152611e948282611d8a565b91505060608301518482036060860152611eae8282611d8a565b9150506080830151608085015260a083015160a085015260c083015184820360c0860152611edc8282611d8a565b95945050505050565b6000602080830181845280855180835260408601915060408160051b870101925083870160005b82811015611f3a57603f19888603018452611f28858351611e4c565b94509285019290850190600101611f0c565b5092979650505050505050565b600060208284031215611f5957600080fd5b813567ffffffffffffffff80821115611f7157600080fd5b9083019060608286031215611f8557600080fd5b611f8d611c73565b823582811115611f9c57600080fd5b611fa887828601611c9c565b825250602083013560ff81168114611fbf57600080fd5b6020820152604083013582811115611fd657600080fd5b611fe287828601611c9c565b60408301525095945050505050565b602081526000611e456020830184611e4c565b6000815160c0845261201960c0850182611d8a565b9050602083015184820360208601526120328282611d8a565b91505060018060a01b03604084015116604085015260608301516060850152608083015184820360808601526120688282611d8a565b91505060a083015160a08501528091505092915050565b602081526000611e456020830184612004565b6000602080830181845280855180835260408601915060408160051b870101925083870160005b82811015611f3a57603f198886030184526120d5858351612004565b945092850192908501906001016120b9565b60006020808301818452808551808352604092508286019150828160051b87010184880160005b8381101561216d57603f1989840301855281516060815181865261213482870182611d8a565b91505060ff898301511689860152878201519150848103888601526121598183611d8a565b96890196945050509086019060010161210e565b509098975050505050505050565b60008060008060008060c0878903121561219457600080fd5b863567ffffffffffffffff808211156121ac57600080fd5b6121b88a838b01611c9c565b975060208901359150808211156121ce57600080fd5b6121da8a838b01611c9c565b965060408901359150808211156121f057600080fd5b6121fc8a838b01611c9c565b9550606089013591508082111561221257600080fd5b5061221f89828a01611c9c565b9350506080870135915060a087013590509295509295509295565b6000806040838503121561224d57600080fd5b823567ffffffffffffffff8082111561226557600080fd5b61227186838701611c9c565b9350602085013591508082111561228757600080fd5b5061229485828601611c9c565b9150509250929050565b60e0815260006122b160e083018a611d8a565b82810360208401526122c3818a611d8a565b905082810360408401526122d78189611d8a565b905082810360608401526122eb8188611d8a565b90508560808401528460a084015282810360c084015261230b8185611d8a565b9a9950505050505050505050565b600181811c9082168061232d57607f821691505b6020821081036115de57634e487b7160e01b600052602260045260246000fd5b634e487b7160e01b600052603260045260246000fd5b6000815461237081612319565b60018281168015612388576001811461239d576123cc565b60ff19841687528215158302870194506123cc565b8560005260208060002060005b858110156123c35781548a8201529084019082016123aa565b50505082870194505b5050505092915050565b6000611e458284612363565b634e487b7160e01b600052601160045260246000fd5b60006001820161240a5761240a6123e2565b5060010190565b81810381811115612424576124246123e2565b92915050565b60008261244757634e487b7160e01b600052601260045260246000fd5b500690565b6000825161245e818460208701611d66565b9190910192915050565b601f82111561191f57600081815260208120601f850160051c8101602086101561248f5750805b601f850160051c820191505b818110156124ae5782815560010161249b565b505050505050565b815167ffffffffffffffff8111156124d0576124d0611c5d565b6124e4816124de8454612319565b84612468565b602080601f83116001811461251957600084156125015750858301515b600019600386901b1c1916600185901b1785556124ae565b600085815260208120601f198616915b8281101561254857888601518255948401946001909101908401612529565b50858210156125665787850151600019600388901b60f8161c191681555b5050505050600190811b0190555056fea2646970667358221220a73d36c7d77e0e9e8ff6cf1ba6149eec43bcc101581e556f107fd5eb7a6c9d4564736f6c63430008130033","linkReferences":{}},"methodIdentifiers":{"enhancedRecords(uint256)":"f2fae9cc","getAllEnhancedRecords()":"3abae2be","getAllOrders()":"7bea0d1c","getAllRecords()":"a7f9fe72","getOrder(string)":"712ca0f8","getProduct(string)":"68111cce","insertEnhancedRecord(string,string,string,string,uint256,uint256)":"c55a2cae","insertRecord((string,uint8,string))":"4735f16c","orderIds(uint256)":"23722084","orders(string)":"1a948947","placeOrder(string)":"453217f8","updateOrderStatus(string,string)":"edfa77d0"},"id":1}