{
    "contractName": "DemoHelpers",
    "abi": [
        {
            "inputs": [
                {
                    "internalType": "string",
                    "name": "_key",
                    "type": "string"
                }
            ],
            "name": "getHash",
            "outputs": [
                {
                    "internalType": "bytes32",
                    "name": "result",
                    "type": "bytes32"
                }
            ],
            "stateMutability": "pure",
            "type": "function"
        },
        {
            "inputs": [],
            "name": "getTimestamp",
            "outputs": [
                {
                    "internalType": "uint256",
                    "name": "result",
                    "type": "uint256"
                }
            ],
            "stateMutability": "view",
            "type": "function"
        },
        {
            "inputs": [
                {
                    "internalType": "address",
                    "name": "sender",
                    "type": "address"
                },
                {
                    "internalType": "address",
                    "name": "receiver",
                    "type": "address"
                },
                {
                    "internalType": "uint256",
                    "name": "inputAmount",
                    "type": "uint256"
                },
                {
                    "internalType": "bytes32",
                    "name": "hashLock",
                    "type": "bytes32"
                },
                {
                    "internalType": "uint256",
                    "name": "expiration",
                    "type": "uint256"
                }
            ],
            "name": "getTxId",
            "outputs": [
                {
                    "internalType": "bytes32",
                    "name": "result",
                    "type": "bytes32"
                }
            ],
            "stateMutability": "pure",
            "type": "function"
        },
        {
            "inputs": [
                {
                    "internalType": "address",
                    "name": "sender",
                    "type": "address"
                },
                {
                    "internalType": "address",
                    "name": "receiver",
                    "type": "address"
                },
                {
                    "internalType": "uint256",
                    "name": "inputAmount",
                    "type": "uint256"
                },
                {
                    "internalType": "bytes32",
                    "name": "hashLock",
                    "type": "bytes32"
                },
                {
                    "internalType": "uint256",
                    "name": "expiration",
                    "type": "uint256"
                }
            ],
            "name": "getTxIdNoHash",
            "outputs": [
                {
                    "internalType": "bytes",
                    "name": "result",
                    "type": "bytes"
                }
            ],
            "stateMutability": "pure",
            "type": "function"
        }
    ],
    "bytecode": "608060405234801561001057600080fd5b50610331806100206000396000f3fe608060405234801561001057600080fd5b506004361061004c5760003560e01c8063188ec356146100515780635b6beeb914610066578063da9a187a14610079578063eeafc5e6146100d9575b600080fd5b425b6040519081526020015b60405180910390f35b610053610074366004610181565b61013b565b61005361008736600461024e565b604080516001600160a01b0396871660208083019190915295909616868201526060860193909352608085019190915260a0808501919091528151808503909101815260c09093019052815191012090565b61012e6100e736600461024e565b604080516001600160a01b03968716602082015294909516848601526060840192909252608083015260a0808301919091528251808303909101815260c090910190915290565b60405161005d91906102e1565b60008160405160200161014e91906102e1565b604051602081830303815290604052805190602001209050919050565b634e487b7160e01b600052604160045260246000fd5b60006020828403121561019357600080fd5b813567ffffffffffffffff808211156101ab57600080fd5b818401915084601f8301126101bf57600080fd5b8135818111156101d1576101d161016b565b604051601f8201601f19908116603f011681019083821181831017156101f9576101f961016b565b8160405282815287602084870101111561021257600080fd5b826020860160208301376000928101602001929092525095945050505050565b80356001600160a01b038116811461024957600080fd5b919050565b600080600080600060a0868803121561026657600080fd5b61026f86610232565b945061027d60208701610232565b94979496505050506040830135926060810135926080909101359150565b6000815180845260005b818110156102c1576020818501810151868301820152016102a5565b506000602082860101526020601f19601f83011685010191505092915050565b6020815260006102f4602083018461029b565b939250505056fea26469706673582212201b3a2adf5a65bbdbe7ad4c5c8d348c57fa7fcbaa7e5c5ea00da7302849109e6a64736f6c63430008130033",
    "sourcePath": "/home/peter/a/cacti-1/packages/cactus-test-plugin-htlc-eth-besu/src/test/solidity/contracts/DemoHelpers.sol",
    "compiler": {
        "name": "solc",
        "version": "0.8.19+commit.7dd6d404"
    },
    "functionHashes": {
        "getHash(string)": "5b6beeb9",
        "getTimestamp()": "188ec356",
        "getTxId(address,address,uint256,bytes32,uint256)": "da9a187a",
        "getTxIdNoHash(address,address,uint256,bytes32,uint256)": "eeafc5e6"
    },
    "gasEstimates": {
        "creation": {
            "codeDepositCost": "163400",
            "executionCost": "208",
            "totalCost": "163608"
        },
        "external": {
            "getHash(string)": "infinite",
            "getTimestamp()": "147",
            "getTxId(address,address,uint256,bytes32,uint256)": "infinite",
            "getTxIdNoHash(address,address,uint256,bytes32,uint256)": "infinite"
        }
    }
}