{
  "contractName": "DemoHelpers",
  "abi": [
    {
      "inputs": [
        {
          "internalType": "string",
          "name": "_key",
          "type": "string"
        }
      ],
      "name": "getHash",
      "outputs": [
        {
          "internalType": "bytes32",
          "name": "result",
          "type": "bytes32"
        }
      ],
      "stateMutability": "pure",
      "type": "function"
    },
    {
      "inputs": [],
      "name": "getTimestamp",
      "outputs": [
        {
          "internalType": "uint256",
          "name": "result",
          "type": "uint256"
        }
      ],
      "stateMutability": "view",
      "type": "function"
    },
    {
      "inputs": [
        {
          "internalType": "address",
          "name": "sender",
          "type": "address"
        },
        {
          "internalType": "address",
          "name": "receiver",
          "type": "address"
        },
        {
          "internalType": "uint256",
          "name": "inputAmount",
          "type": "uint256"
        },
        {
          "internalType": "bytes32",
          "name": "hashLock",
          "type": "bytes32"
        },
        {
          "internalType": "uint256",
          "name": "expiration",
          "type": "uint256"
        }
      ],
      "name": "getTxId",
      "outputs": [
        {
          "internalType": "bytes32",
          "name": "result",
          "type": "bytes32"
        }
      ],
      "stateMutability": "pure",
      "type": "function"
    }
  ],
  "bytecode": "608060405234801561001057600080fd5b50610316806100206000396000f3fe608060405234801561001057600080fd5b50600436106100415760003560e01c8063188ec356146100465780635b6beeb914610064578063da9a187a14610077575b600080fd5b61004e61008a565b60405161005b91906102a7565b60405180910390f35b61004e6100723660046101bb565b61008e565b61004e610085366004610157565b6100bf565b4290565b6000816040516020016100a1919061028b565b6040516020818303038152906040528051906020012090505b919050565b6000600286868686866040516020016100dc959493929190610250565b60408051601f19818403018152908290526100f69161028b565b602060405180830381855afa158015610113573d6000803e3d6000fd5b5050506040513d601f19601f8201168201806040525081019061013691906101a3565b9695505050505050565b80356001600160a01b03811681146100ba57600080fd5b600080600080600060a0868803121561016e578081fd5b61017786610140565b945061018560208701610140565b94979496505050506040830135926060810135926080909101359150565b6000602082840312156101b4578081fd5b5051919050565b600060208083850312156101cd578182fd5b823567ffffffffffffffff808211156101e4578384fd5b818501915085601f8301126101f7578384fd5b81358181111561020357fe5b604051601f8201601f191681018501838111828210171561022057fe5b6040528181528382018501881015610236578586fd5b818585018683013790810190930193909352509392505050565b6bffffffffffffffffffffffff19606096871b811682529490951b909316601485015260288401919091526048830152606882015260880190565b6000825161029d8184602087016102b0565b9190910192915050565b90815260200190565b60005b838110156102cb5781810151838201526020016102b3565b838111156102da576000848401525b5050505056fea26469706673582212206db05e050f05f0a12d9a68c11da172b3c5a26d79cf359a3ecefde4763e557dac64736f6c63430007030033",
  "immutableReferences": {},
  "source": "pragma solidity ^0.7.3;\npragma experimental ABIEncoderV2;\n\ncontract DemoHelpers {\n\n   \n    function getHash(string memory _key) public pure returns (bytes32 result) {\n       return keccak256(abi.encodePacked(_key));\n    }\n\n    function getTimestamp() public view returns (uint256 result) {\n        return block.timestamp;\n    }\n\n    function getTxId(address sender, address receiver, uint256 inputAmount, bytes32 hashLock, uint256 expiration) public pure returns (bytes32 result) {\n        return sha256(\n            abi.encodePacked(sender, receiver, inputAmount, hashLock, expiration)\n        );\n    }\n\n}\n",
  "sourcePath": "/Users/jordigironamezcua/Workspace/src/github.com/fork/cactus/extensions/cactus-plugin-htlc-eth-besu/src/main/contracts/contracts/DemoHelpers.sol",
  "compiler": {
    "name": "solc",
    "version": "0.7.3+commit.9bfce1f6.Emscripten.clang"
  },
  "schemaVersion": "3.3.3",
  "updatedAt": "2021-05-28T07:20:06.055Z",
  "devdoc": {
    "kind": "dev",
    "methods": {},
    "version": 1
  },
  "userdoc": {
    "kind": "user",
    "methods": {},
    "version": 1
  }
}