{"abi":[{"type":"constructor","inputs":[{"name":"_bridge_address","type":"address","internalType":"address"},{"name":"role_given","type":"bytes32","internalType":"bytes32"}],"stateMutability":"nonpayable"},{"type":"function","name":"BRIDGE_ROLE","inputs":[],"outputs":[{"name":"","type":"bytes32","internalType":"bytes32"}],"stateMutability":"view"},{"type":"function","name":"assign","inputs":[{"name":"tokenId","type":"string","internalType":"string"},{"name":"receiver_account","type":"address","internalType":"address"},{"name":"amount","type":"uint256","internalType":"uint256"}],"outputs":[{"name":"success","type":"bool","internalType":"bool"}],"stateMutability":"nonpayable"},{"type":"function","name":"bridge_address","inputs":[],"outputs":[{"name":"","type":"address","internalType":"address"}],"stateMutability":"view"},{"type":"function","name":"burn","inputs":[{"name":"tokenId","type":"string","internalType":"string"},{"name":"amount","type":"uint256","internalType":"uint256"}],"outputs":[{"name":"success","type":"bool","internalType":"bool"}],"stateMutability":"nonpayable"},{"type":"function","name":"getAllAssetsIDs","inputs":[],"outputs":[{"name":"","type":"string[]","internalType":"string[]"}],"stateMutability":"view"},{"type":"function","name":"getToken","inputs":[{"name":"tokenId","type":"string","internalType":"string"}],"outputs":[{"name":"token","type":"tuple","internalType":"struct Token","components":[{"name":"contractAddress","type":"address","internalType":"address"},{"name":"tokenType","type":"string","internalType":"string"},{"name":"tokenId","type":"string","internalType":"string"},{"name":"owner","type":"address","internalType":"address"},{"name":"amount","type":"uint256","internalType":"uint256"}]}],"stateMutability":"view"},{"type":"function","name":"lock","inputs":[{"name":"tokenId","type":"string","internalType":"string"},{"name":"amount","type":"uint256","internalType":"uint256"}],"outputs":[{"name":"success","type":"bool","internalType":"bool"}],"stateMutability":"nonpayable"},{"type":"function","name":"mint","inputs":[{"name":"tokenId","type":"string","internalType":"string"},{"name":"amount","type":"uint256","internalType":"uint256"}],"outputs":[{"name":"success","type":"bool","internalType":"bool"}],"stateMutability":"nonpayable"},{"type":"function","name":"owner","inputs":[],"outputs":[{"name":"","type":"address","internalType":"address"}],"stateMutability":"view"},{"type":"function","name":"renounceOwnership","inputs":[],"outputs":[],"stateMutability":"nonpayable"},{"type":"function","name":"tokens","inputs":[{"name":"","type":"string","internalType":"string"}],"outputs":[{"name":"contractAddress","type":"address","internalType":"address"},{"name":"tokenType","type":"string","internalType":"string"},{"name":"tokenId","type":"string","internalType":"string"},{"name":"owner","type":"address","internalType":"address"},{"name":"amount","type":"uint256","internalType":"uint256"}],"stateMutability":"view"},{"type":"function","name":"transferOwnership","inputs":[{"name":"newOwner","type":"address","internalType":"address"}],"outputs":[],"stateMutability":"nonpayable"},{"type":"function","name":"unlock","inputs":[{"name":"tokenId","type":"string","internalType":"string"},{"name":"amount","type":"uint256","internalType":"uint256"}],"outputs":[{"name":"success","type":"bool","internalType":"bool"}],"stateMutability":"nonpayable"},{"type":"function","name":"unwrap","inputs":[{"name":"tokenId","type":"string","internalType":"string"}],"outputs":[{"name":"success","type":"bool","internalType":"bool"}],"stateMutability":"nonpayable"},{"type":"function","name":"wrap","inputs":[{"name":"contractAddress","type":"address","internalType":"address"},{"name":"tokenType","type":"string","internalType":"string"},{"name":"tokenId","type":"string","internalType":"string"},{"name":"owner","type":"address","internalType":"address"}],"outputs":[{"name":"wrapSuccess","type":"bool","internalType":"bool"}],"stateMutability":"nonpayable"},{"type":"event","name":"Assign","inputs":[{"name":"tokenId","type":"string","indexed":false,"internalType":"string"},{"name":"receiver_account","type":"address","indexed":false,"internalType":"address"},{"name":"amount","type":"uint256","indexed":false,"internalType":"uint256"}],"anonymous":false},{"type":"event","name":"Burn","inputs":[{"name":"tokenId","type":"string","indexed":false,"internalType":"string"},{"name":"amount","type":"uint256","indexed":false,"internalType":"uint256"}],"anonymous":false},{"type":"event","name":"Changed","inputs":[{"name":"id","type":"string","indexed":true,"internalType":"string"},{"name":"value","type":"bytes[]","indexed":false,"internalType":"bytes[]"}],"anonymous":false},{"type":"event","name":"Lock","inputs":[{"name":"tokenId","type":"string","indexed":false,"internalType":"string"},{"name":"amount","type":"uint256","indexed":false,"internalType":"uint256"}],"anonymous":false},{"type":"event","name":"Mint","inputs":[{"name":"tokenId","type":"string","indexed":false,"internalType":"string"},{"name":"amount","type":"uint256","indexed":false,"internalType":"uint256"}],"anonymous":false},{"type":"event","name":"OwnershipTransferred","inputs":[{"name":"previousOwner","type":"address","indexed":true,"internalType":"address"},{"name":"newOwner","type":"address","indexed":true,"internalType":"address"}],"anonymous":false},{"type":"event","name":"Unlock","inputs":[{"name":"tokenId","type":"string","indexed":false,"internalType":"string"},{"name":"amount","type":"uint256","indexed":false,"internalType":"uint256"}],"anonymous":false},{"type":"event","name":"Unwrap","inputs":[{"name":"tokenId","type":"string","indexed":false,"internalType":"string"}],"anonymous":false},{"type":"event","name":"Wrap","inputs":[{"name":"contractAddress","type":"address","indexed":false,"internalType":"address"},{"name":"tokenType","type":"string","indexed":false,"internalType":"string"},{"name":"tokenId","type":"string","indexed":false,"internalType":"string"},{"name":"owner","type":"address","indexed":false,"internalType":"address"}],"anonymous":false},{"type":"error","name":"InsuficientAmountLocked","inputs":[{"name":"tokenId","type":"string","internalType":"string"},{"name":"amount","type":"uint256","internalType":"uint256"}]},{"type":"error","name":"OwnableInvalidOwner","inputs":[{"name":"owner","type":"address","internalType":"address"}]},{"type":"error","name":"OwnableUnauthorizedAccount","inputs":[{"name":"account","type":"address","internalType":"address"}]},{"type":"error","name":"TokenAlreadyWrapped","inputs":[{"name":"tokenId","type":"string","internalType":"string"}]},{"type":"error","name":"TokenLocked","inputs":[{"name":"tokenId","type":"string","internalType":"string"}]},{"type":"error","name":"TokenNotAvailable","inputs":[{"name":"tokenId","type":"string","internalType":"string"}]},{"type":"error","name":"TokenNotLocked","inputs":[{"name":"tokenId","type":"string","internalType":"string"}]},{"type":"error","name":"TokenNotUnlocked","inputs":[{"name":"tokenId","type":"string","internalType":"string"}]}],"bytecode":{"object":"0x60806040523480156200001157600080fd5b506040516200365638038062003656833981810160405281019062000037919062000278565b81600073ffffffffffffffffffffffffffffffffffffffff168173ffffffffffffffffffffffffffffffffffffffff1603620000ad5760006040517f1e4fbdf7000000000000000000000000000000000000000000000000000000008152600401620000a49190620002d0565b60405180910390fd5b620000be816200010f60201b60201c565b5081600460006101000a81548173ffffffffffffffffffffffffffffffffffffffff021916908373ffffffffffffffffffffffffffffffffffffffff160217905550806001819055505050620002ed565b60008060009054906101000a900473ffffffffffffffffffffffffffffffffffffffff169050816000806101000a81548173ffffffffffffffffffffffffffffffffffffffff021916908373ffffffffffffffffffffffffffffffffffffffff1602179055508173ffffffffffffffffffffffffffffffffffffffff168173ffffffffffffffffffffffffffffffffffffffff167f8be0079c531659141344cd1fd0a4f28419497f9722a3daafe3b4186f6b6457e060405160405180910390a35050565b600080fd5b600073ffffffffffffffffffffffffffffffffffffffff82169050919050565b60006200020582620001d8565b9050919050565b6200021781620001f8565b81146200022357600080fd5b50565b60008151905062000237816200020c565b92915050565b6000819050919050565b62000252816200023d565b81146200025e57600080fd5b50565b600081519050620002728162000247565b92915050565b60008060408385031215620002925762000291620001d3565b5b6000620002a28582860162000226565b9250506020620002b58582860162000261565b9150509250929050565b620002ca81620001f8565b82525050565b6000602082019050620002e76000830184620002bf565b92915050565b61335980620002fd6000396000f3fe608060405234801561001057600080fd5b50600436106100f55760003560e01c80638da5cb5b11610097578063c1733f6811610066578063c1733f68146102a0578063d9cf884c146102d0578063e1efb59614610300578063f2fde38b14610330576100f5565b80638da5cb5b14610204578063a1bc17c514610222578063b48272cc14610252578063b5bfddea14610282576100f5565b80634534ba17116100d35780634534ba171461017c5780635137b8a7146101ac578063715018a6146101ca5780638d7d180b146101d4576100f5565b806304c2320b146100fa578063056b01ce1461012e5780631255c1891461015e575b600080fd5b610114600480360381019061010f91906123da565b61034c565b6040516101259594939291906124fc565b60405180910390f35b61014860048036038101906101439190612589565b6104e8565b6040516101559190612600565b60405180910390f35b61016661078b565b604051610173919061261b565b60405180910390f35b61019660048036038101906101919190612662565b6107b1565b6040516101a39190612600565b60405180910390f35b6101b4610a1d565b6040516101c191906127dd565b60405180910390f35b6101d2610af6565b005b6101ee60048036038101906101e991906127ff565b610b0a565b6040516101fb9190612600565b60405180910390f35b61020c610eff565b604051610219919061261b565b60405180910390f35b61023c600480360381019061023791906123da565b610f28565b6040516102499190612600565b60405180910390f35b61026c60048036038101906102679190612589565b6111d4565b6040516102799190612600565b60405180910390f35b61028a61143b565b60405161029791906128b7565b60405180910390f35b6102ba60048036038101906102b591906123da565b611441565b6040516102c7919061296d565b60405180910390f35b6102ea60048036038101906102e59190612589565b611653565b6040516102f79190612600565b60405180910390f35b61031a60048036038101906103159190612589565b611b5c565b6040516103279190612600565b60405180910390f35b61034a6004803603810190610345919061298f565b611e5c565b005b6002818051602081018201805184825260208301602085012081835280955050505050506000915090508060000160009054906101000a900473ffffffffffffffffffffffffffffffffffffffff16908060010180546103ab906129eb565b80601f01602080910402602001604051908101604052809291908181526020018280546103d7906129eb565b80156104245780601f106103f957610100808354040283529160200191610424565b820191906000526020600020905b81548152906001019060200180831161040757829003601f168201915b505050505090806002018054610439906129eb565b80601f0160208091040260200160405190810160405280929190818152602001828054610465906129eb565b80156104b25780601f10610487576101008083540402835291602001916104b2565b820191906000526020600020905b81548152906001019060200180831161049557829003601f168201915b5050505050908060030160009054906101000a900473ffffffffffffffffffffffffffffffffffffffff16908060040154905085565b60006104f2611ee2565b600073ffffffffffffffffffffffffffffffffffffffff1660028460405161051a9190612a58565b908152602001604051809103902060000160009054906101000a900473ffffffffffffffffffffffffffffffffffffffff1673ffffffffffffffffffffffffffffffffffffffff16036105a457826040517fc0bab25f00000000000000000000000000000000000000000000000000000000815260040161059b9190612a6f565b60405180910390fd5b60006002846040516105b69190612a58565b908152602001604051809103902060000160009054906101000a900473ffffffffffffffffffffffffffffffffffffffff1673ffffffffffffffffffffffffffffffffffffffff163084604051602401610611929190612a91565b6040516020818303038152906040527f40c10f19000000000000000000000000000000000000000000000000000000007bffffffffffffffffffffffffffffffffffffffffffffffffffffffff19166020820180517bffffffffffffffffffffffffffffffffffffffffffffffffffffffff838183161783525050505060405161069b9190612b01565b6000604051808303816000865af19150503d80600081146106d8576040519150601f19603f3d011682016040523d82523d6000602084013e6106dd565b606091505b5050905080610721576040517f08c379a000000000000000000000000000000000000000000000000000000000815260040161071890612b64565b60405180910390fd5b826002856040516107329190612a58565b9081526020016040518091039020600401819055507f0a4e1e5035320483d096cf114513007c4eda3853a4dca806da2d9faec60470a68484604051610778929190612b84565b60405180910390a1600191505092915050565b600460009054906101000a900473ffffffffffffffffffffffffffffffffffffffff1681565b60006107bb611ee2565b816002856040516107cc9190612a58565b908152602001604051809103902060040154101561081f576040517f08c379a000000000000000000000000000000000000000000000000000000000815260040161081690612c00565b60405180910390fd5b60006002856040516108319190612a58565b908152602001604051809103902060000160009054906101000a900473ffffffffffffffffffffffffffffffffffffffff1673ffffffffffffffffffffffffffffffffffffffff1630858560405160240161088e93929190612c20565b6040516020818303038152906040527f5f52d44e000000000000000000000000000000000000000000000000000000007bffffffffffffffffffffffffffffffffffffffffffffffffffffffff19166020820180517bffffffffffffffffffffffffffffffffffffffffffffffffffffffff83818316178352505050506040516109189190612b01565b6000604051808303816000865af19150503d8060008114610955576040519150601f19603f3d011682016040523d82523d6000602084013e61095a565b606091505b505090508061099e576040517f08c379a000000000000000000000000000000000000000000000000000000000815260040161099590612ca3565b60405180910390fd5b826002866040516109af9190612a58565b908152602001604051809103902060040160008282546109cf9190612cf2565b925050819055507f0b3112bdbedc0251766a323a5c6ad4df77174bbc08bd61b944815ad9efe8d54c858585604051610a0993929190612d26565b60405180910390a160019150509392505050565b60606003805480602002602001604051908101604052809291908181526020016000905b82821015610aed578382906000526020600020018054610a60906129eb565b80601f0160208091040260200160405190810160405280929190818152602001828054610a8c906129eb565b8015610ad95780601f10610aae57610100808354040283529160200191610ad9565b820191906000526020600020905b815481529060010190602001808311610abc57829003601f168201915b505050505081526020019060010190610a41565b50505050905090565b610afe611ee2565b610b086000611f69565b565b6000610b14611ee2565b600073ffffffffffffffffffffffffffffffffffffffff16600284604051610b3c9190612a58565b908152602001604051809103902060000160009054906101000a900473ffffffffffffffffffffffffffffffffffffffff1673ffffffffffffffffffffffffffffffffffffffff1614610bc657826040517f67ab2344000000000000000000000000000000000000000000000000000000008152600401610bbd9190612a6f565b60405180910390fd5b60008573ffffffffffffffffffffffffffffffffffffffff1660015430604051602401610bf4929190612d64565b6040516020818303038152906040527f28545c0d000000000000000000000000000000000000000000000000000000007bffffffffffffffffffffffffffffffffffffffffffffffffffffffff19166020820180517bffffffffffffffffffffffffffffffffffffffffffffffffffffffff8381831617835250505050604051610c7e9190612b01565b6000604051808303816000865af19150503d8060008114610cbb576040519150601f19603f3d011682016040523d82523d6000602084013e610cc0565b606091505b5050905080610d4757600284604051610cd99190612a58565b908152602001604051809103902060000160009054906101000a900473ffffffffffffffffffffffffffffffffffffffff166040517f118cdaa7000000000000000000000000000000000000000000000000000000008152600401610d3e919061261b565b60405180910390fd5b6040518060a001604052808773ffffffffffffffffffffffffffffffffffffffff1681526020018681526020018581526020018473ffffffffffffffffffffffffffffffffffffffff1681526020016000815250600285604051610dab9190612a58565b908152602001604051809103902060008201518160000160006101000a81548173ffffffffffffffffffffffffffffffffffffffff021916908373ffffffffffffffffffffffffffffffffffffffff1602179055506020820151816001019081610e159190612f39565b506040820151816002019081610e2b9190612f39565b5060608201518160030160006101000a81548173ffffffffffffffffffffffffffffffffffffffff021916908373ffffffffffffffffffffffffffffffffffffffff16021790555060808201518160040155905050600384908060018154018082558091505060019003906000526020600020016000909190919091509081610eb49190612f39565b507f57951acaa6aa023b66ff5ae829f011ec74aedd1a40654570a33708280743e88186868686604051610eea949392919061300b565b60405180910390a16001915050949350505050565b60008060009054906101000a900473ffffffffffffffffffffffffffffffffffffffff16905090565b6000610f32611ee2565b600073ffffffffffffffffffffffffffffffffffffffff16600283604051610f5a9190612a58565b908152602001604051809103902060000160009054906101000a900473ffffffffffffffffffffffffffffffffffffffff1673ffffffffffffffffffffffffffffffffffffffff1603610fe457816040517fc0bab25f000000000000000000000000000000000000000000000000000000008152600401610fdb9190612a6f565b60405180910390fd5b6000600283604051610ff69190612a58565b908152602001604051809103902060040154111561104b57816040517fb7d2c10a0000000000000000000000000000000000000000000000000000000081526004016110429190612a6f565b60405180910390fd5b6110fd60028360405161105e9190612a58565b9081526020016040518091039020600201805461107a906129eb565b80601f01602080910402602001604051908101604052809291908181526020018280546110a6906129eb565b80156110f35780601f106110c8576101008083540402835291602001916110f3565b820191906000526020600020905b8154815290600101906020018083116110d657829003601f168201915b505050505061202d565b60028260405161110d9190612a58565b9081526020016040518091039020600080820160006101000a81549073ffffffffffffffffffffffffffffffffffffffff021916905560018201600061115391906121c8565b60028201600061116391906121c8565b6003820160006101000a81549073ffffffffffffffffffffffffffffffffffffffff0219169055600482016000905550507f3855d31914452a5e7361730662e60834555d7cb26d380140894d85fd0d13b854826040516111c39190612a6f565b60405180910390a160019050919050565b60006111de611ee2565b816002846040516111ef9190612a58565b9081526020016040518091039020600401541015611242576040517f08c379a0000000000000000000000000000000000000000000000000000000008152600401611239906130aa565b60405180910390fd5b60006002846040516112549190612a58565b908152602001604051809103902060000160009054906101000a900473ffffffffffffffffffffffffffffffffffffffff1673ffffffffffffffffffffffffffffffffffffffff1630846040516024016112af929190612a91565b6040516020818303038152906040527f9dc29fac000000000000000000000000000000000000000000000000000000007bffffffffffffffffffffffffffffffffffffffffffffffffffffffff19166020820180517bffffffffffffffffffffffffffffffffffffffffffffffffffffffff83818316178352505050506040516113399190612b01565b6000604051808303816000865af19150503d8060008114611376576040519150601f19603f3d011682016040523d82523d6000602084013e61137b565b606091505b50509050806113bf576040517f08c379a00000000000000000000000000000000000000000000000000000000081526004016113b690613116565b60405180910390fd5b826002856040516113d09190612a58565b908152602001604051809103902060040160008282546113f09190612cf2565b925050819055507fa0237080cf48d9e1fbb9ef1f82e33b11170d047b2b540a73b457d0916d53ee998484604051611428929190612b84565b60405180910390a1600191505092915050565b60015481565b611449612208565b6002826040516114599190612a58565b90815260200160405180910390206040518060a00160405290816000820160009054906101000a900473ffffffffffffffffffffffffffffffffffffffff1673ffffffffffffffffffffffffffffffffffffffff1673ffffffffffffffffffffffffffffffffffffffff1681526020016001820180546114d8906129eb565b80601f0160208091040260200160405190810160405280929190818152602001828054611504906129eb565b80156115515780601f1061152657610100808354040283529160200191611551565b820191906000526020600020905b81548152906001019060200180831161153457829003601f168201915b5050505050815260200160028201805461156a906129eb565b80601f0160208091040260200160405190810160405280929190818152602001828054611596906129eb565b80156115e35780601f106115b8576101008083540402835291602001916115e3565b820191906000526020600020905b8154815290600101906020018083116115c657829003601f168201915b505050505081526020016003820160009054906101000a900473ffffffffffffffffffffffffffffffffffffffff1673ffffffffffffffffffffffffffffffffffffffff1673ffffffffffffffffffffffffffffffffffffffff1681526020016004820154815250509050919050565b600061165d611ee2565b600073ffffffffffffffffffffffffffffffffffffffff166002846040516116859190612a58565b908152602001604051809103902060000160009054906101000a900473ffffffffffffffffffffffffffffffffffffffff1673ffffffffffffffffffffffffffffffffffffffff160361170f57826040517fc0bab25f0000000000000000000000000000000000000000000000000000000081526004016117069190612a6f565b60405180910390fd5b816002846040516117209190612a58565b90815260200160405180910390206004015410156117775782826040517fed579e6000000000000000000000000000000000000000000000000000000000815260040161176e929190612b84565b60405180910390fd5b60006002846040516117899190612a58565b908152602001604051809103902060000160009054906101000a900473ffffffffffffffffffffffffffffffffffffffff1673ffffffffffffffffffffffffffffffffffffffff1630846040516024016117e4929190612a91565b6040516020818303038152906040527f095ea7b3000000000000000000000000000000000000000000000000000000007bffffffffffffffffffffffffffffffffffffffffffffffffffffffff19166020820180517bffffffffffffffffffffffffffffffffffffffffffffffffffffffff838183161783525050505060405161186e9190612b01565b6000604051808303816000865af19150503d80600081146118ab576040519150601f19603f3d011682016040523d82523d6000602084013e6118b0565b606091505b50509050806118f657836040517f58300fe70000000000000000000000000000000000000000000000000000000081526004016118ed9190612a6f565b60405180910390fd5b60006002856040516119089190612a58565b908152602001604051809103902060000160009054906101000a900473ffffffffffffffffffffffffffffffffffffffff1673ffffffffffffffffffffffffffffffffffffffff16306002876040516119619190612a58565b908152602001604051809103902060030160009054906101000a900473ffffffffffffffffffffffffffffffffffffffff166002886040516119a39190612a58565b9081526020016040518091039020600401546040516024016119c793929190612c20565b6040516020818303038152906040527fbeabacc8000000000000000000000000000000000000000000000000000000007bffffffffffffffffffffffffffffffffffffffffffffffffffffffff19166020820180517bffffffffffffffffffffffffffffffffffffffffffffffffffffffff8381831617835250505050604051611a519190612b01565b6000604051808303816000865af19150503d8060008114611a8e576040519150601f19603f3d011682016040523d82523d6000602084013e611a93565b606091505b505090508015611b195783600286604051611aae9190612a58565b90815260200160405180910390206004016000828254611ace9190612cf2565b925050819055507f7b3c894115251262b174b7aeab24a57e00bc2e8853d1ef2f57a217edaa69c06e8585604051611b06929190612b84565b60405180910390a1600192505050611b56565b846040517f58300fe7000000000000000000000000000000000000000000000000000000008152600401611b4d9190612a6f565b60405180910390fd5b92915050565b6000611b66611ee2565b600073ffffffffffffffffffffffffffffffffffffffff16600284604051611b8e9190612a58565b908152602001604051809103902060000160009054906101000a900473ffffffffffffffffffffffffffffffffffffffff1673ffffffffffffffffffffffffffffffffffffffff1603611c1857826040517fc0bab25f000000000000000000000000000000000000000000000000000000008152600401611c0f9190612a6f565b60405180910390fd5b6000600284604051611c2a9190612a58565b908152602001604051809103902060000160009054906101000a900473ffffffffffffffffffffffffffffffffffffffff1673ffffffffffffffffffffffffffffffffffffffff16600285604051611c829190612a58565b908152602001604051809103902060030160009054906101000a900473ffffffffffffffffffffffffffffffffffffffff163085604051602401611cc893929190612c20565b6040516020818303038152906040527fbeabacc8000000000000000000000000000000000000000000000000000000007bffffffffffffffffffffffffffffffffffffffffffffffffffffffff19166020820180517bffffffffffffffffffffffffffffffffffffffffffffffffffffffff8381831617835250505050604051611d529190612b01565b6000604051808303816000865af19150503d8060008114611d8f576040519150601f19603f3d011682016040523d82523d6000602084013e611d94565b606091505b505090508015611e195782600285604051611daf9190612a58565b90815260200160405180910390206004016000828254611dcf9190613136565b925050819055507fc480ef4e831b2ca5eb0b2f95c6564d9a56af5b3fe2383393008e3f1708dc97978484604051611e07929190612b84565b60405180910390a16001915050611e56565b836040517f8244096a000000000000000000000000000000000000000000000000000000008152600401611e4d9190612a6f565b60405180910390fd5b92915050565b611e64611ee2565b600073ffffffffffffffffffffffffffffffffffffffff168173ffffffffffffffffffffffffffffffffffffffff1603611ed65760006040517f1e4fbdf7000000000000000000000000000000000000000000000000000000008152600401611ecd919061261b565b60405180910390fd5b611edf81611f69565b50565b611eea612198565b73ffffffffffffffffffffffffffffffffffffffff16611f08610eff565b73ffffffffffffffffffffffffffffffffffffffff1614611f6757611f2b612198565b6040517f118cdaa7000000000000000000000000000000000000000000000000000000008152600401611f5e919061261b565b60405180910390fd5b565b60008060009054906101000a900473ffffffffffffffffffffffffffffffffffffffff169050816000806101000a81548173ffffffffffffffffffffffffffffffffffffffff021916908373ffffffffffffffffffffffffffffffffffffffff1602179055508173ffffffffffffffffffffffffffffffffffffffff168173ffffffffffffffffffffffffffffffffffffffff167f8be0079c531659141344cd1fd0a4f28419497f9722a3daafe3b4186f6b6457e060405160405180910390a35050565b60005b600380549050811015612194576120ed600382815481106120545761205361316a565b5b906000526020600020018054612069906129eb565b80601f0160208091040260200160405190810160405280929190818152602001828054612095906129eb565b80156120e25780601f106120b7576101008083540402835291602001916120e2565b820191906000526020600020905b8154815290600101906020018083116120c557829003601f168201915b5050505050836121a0565b1561218157600360016003805490506121069190612cf2565b815481106121175761211661316a565b5b90600052602060002001600382815481106121355761213461316a565b5b90600052602060002001908161214b91906131c4565b50600380548061215e5761215d6132ac565b5b60019003818190600052602060002001600061217a91906121c8565b9055612194565b808061218c906132db565b915050612030565b5050565b600033905090565b6000815183511480156121c0575081805190602001208380519060200120145b905092915050565b5080546121d4906129eb565b6000825580601f106121e65750612205565b601f0160209004906000526020600020908101906122049190612263565b5b50565b6040518060a00160405280600073ffffffffffffffffffffffffffffffffffffffff1681526020016060815260200160608152602001600073ffffffffffffffffffffffffffffffffffffffff168152602001600081525090565b5b8082111561227c576000816000905550600101612264565b5090565b6000604051905090565b600080fd5b600080fd5b600080fd5b600080fd5b6000601f19601f8301169050919050565b7f4e487b7100000000000000000000000000000000000000000000000000000000600052604160045260246000fd5b6122e78261229e565b810181811067ffffffffffffffff82111715612306576123056122af565b5b80604052505050565b6000612319612280565b905061232582826122de565b919050565b600067ffffffffffffffff821115612345576123446122af565b5b61234e8261229e565b9050602081019050919050565b82818337600083830152505050565b600061237d6123788461232a565b61230f565b90508281526020810184848401111561239957612398612299565b5b6123a484828561235b565b509392505050565b600082601f8301126123c1576123c0612294565b5b81356123d184826020860161236a565b91505092915050565b6000602082840312156123f0576123ef61228a565b5b600082013567ffffffffffffffff81111561240e5761240d61228f565b5b61241a848285016123ac565b91505092915050565b600073ffffffffffffffffffffffffffffffffffffffff82169050919050565b600061244e82612423565b9050919050565b61245e81612443565b82525050565b600081519050919050565b600082825260208201905092915050565b60005b8381101561249e578082015181840152602081019050612483565b60008484015250505050565b60006124b582612464565b6124bf818561246f565b93506124cf818560208601612480565b6124d88161229e565b840191505092915050565b6000819050919050565b6124f6816124e3565b82525050565b600060a0820190506125116000830188612455565b818103602083015261252381876124aa565b9050818103604083015261253781866124aa565b90506125466060830185612455565b61255360808301846124ed565b9695505050505050565b612566816124e3565b811461257157600080fd5b50565b6000813590506125838161255d565b92915050565b600080604083850312156125a05761259f61228a565b5b600083013567ffffffffffffffff8111156125be576125bd61228f565b5b6125ca858286016123ac565b92505060206125db85828601612574565b9150509250929050565b60008115159050919050565b6125fa816125e5565b82525050565b600060208201905061261560008301846125f1565b92915050565b60006020820190506126306000830184612455565b92915050565b61263f81612443565b811461264a57600080fd5b50565b60008135905061265c81612636565b92915050565b60008060006060848603121561267b5761267a61228a565b5b600084013567ffffffffffffffff8111156126995761269861228f565b5b6126a5868287016123ac565b93505060206126b68682870161264d565b92505060406126c786828701612574565b9150509250925092565b600081519050919050565b600082825260208201905092915050565b6000819050602082019050919050565b600082825260208201905092915050565b600061271982612464565b61272381856126fd565b9350612733818560208601612480565b61273c8161229e565b840191505092915050565b6000612753838361270e565b905092915050565b6000602082019050919050565b6000612773826126d1565b61277d81856126dc565b93508360208202850161278f856126ed565b8060005b858110156127cb57848403895281516127ac8582612747565b94506127b78361275b565b925060208a01995050600181019050612793565b50829750879550505050505092915050565b600060208201905081810360008301526127f78184612768565b905092915050565b600080600080608085870312156128195761281861228a565b5b60006128278782880161264d565b945050602085013567ffffffffffffffff8111156128485761284761228f565b5b612854878288016123ac565b935050604085013567ffffffffffffffff8111156128755761287461228f565b5b612881878288016123ac565b92505060606128928782880161264d565b91505092959194509250565b6000819050919050565b6128b18161289e565b82525050565b60006020820190506128cc60008301846128a8565b92915050565b6128db81612443565b82525050565b6128ea816124e3565b82525050565b600060a08301600083015161290860008601826128d2565b5060208301518482036020860152612920828261270e565b9150506040830151848203604086015261293a828261270e565b915050606083015161294f60608601826128d2565b50608083015161296260808601826128e1565b508091505092915050565b6000602082019050818103600083015261298781846128f0565b905092915050565b6000602082840312156129a5576129a461228a565b5b60006129b38482850161264d565b91505092915050565b7f4e487b7100000000000000000000000000000000000000000000000000000000600052602260045260246000fd5b60006002820490506001821680612a0357607f821691505b602082108103612a1657612a156129bc565b5b50919050565b600081905092915050565b6000612a3282612464565b612a3c8185612a1c565b9350612a4c818560208601612480565b80840191505092915050565b6000612a648284612a27565b915081905092915050565b60006020820190508181036000830152612a8981846124aa565b905092915050565b6000604082019050612aa66000830185612455565b612ab360208301846124ed565b9392505050565b600081519050919050565b600081905092915050565b6000612adb82612aba565b612ae58185612ac5565b9350612af5818560208601612480565b80840191505092915050565b6000612b0d8284612ad0565b915081905092915050565b7f6d696e742061737365742063616c6c206661696c656400000000000000000000600082015250565b6000612b4e60168361246f565b9150612b5982612b18565b602082019050919050565b60006020820190508181036000830152612b7d81612b41565b9050919050565b60006040820190508181036000830152612b9e81856124aa565b9050612bad60208301846124ed565b9392505050565b7f61737369676e206173736574206173736574206973206e6f74206c6f636b6564600082015250565b6000612bea60208361246f565b9150612bf582612bb4565b602082019050919050565b60006020820190508181036000830152612c1981612bdd565b9050919050565b6000606082019050612c356000830186612455565b612c426020830185612455565b612c4f60408301846124ed565b949350505050565b7f61737369676e2061737365742063616c6c206661696c65640000000000000000600082015250565b6000612c8d60188361246f565b9150612c9882612c57565b602082019050919050565b60006020820190508181036000830152612cbc81612c80565b9050919050565b7f4e487b7100000000000000000000000000000000000000000000000000000000600052601160045260246000fd5b6000612cfd826124e3565b9150612d08836124e3565b9250828203905081811115612d2057612d1f612cc3565b5b92915050565b60006060820190508181036000830152612d4081866124aa565b9050612d4f6020830185612455565b612d5c60408301846124ed565b949350505050565b6000604082019050612d7960008301856128a8565b612d866020830184612455565b9392505050565b60008190508160005260206000209050919050565b60006020601f8301049050919050565b600082821b905092915050565b600060088302612def7fffffffffffffffffffffffffffffffffffffffffffffffffffffffffffffffff82612db2565b612df98683612db2565b95508019841693508086168417925050509392505050565b6000819050919050565b6000612e36612e31612e2c846124e3565b612e11565b6124e3565b9050919050565b6000819050919050565b612e5083612e1b565b612e64612e5c82612e3d565b848454612dbf565b825550505050565b600090565b612e79612e6c565b612e84818484612e47565b505050565b5b81811015612ea857612e9d600082612e71565b600181019050612e8a565b5050565b601f821115612eed57612ebe81612d8d565b612ec784612da2565b81016020851015612ed6578190505b612eea612ee285612da2565b830182612e89565b50505b505050565b600082821c905092915050565b6000612f1060001984600802612ef2565b1980831691505092915050565b6000612f298383612eff565b9150826002028217905092915050565b612f4282612464565b67ffffffffffffffff811115612f5b57612f5a6122af565b5b612f6582546129eb565b612f70828285612eac565b600060209050601f831160018114612fa35760008415612f91578287015190505b612f9b8582612f1d565b865550613003565b601f198416612fb186612d8d565b60005b82811015612fd957848901518255600182019150602085019450602081019050612fb4565b86831015612ff65784890151612ff2601f891682612eff565b8355505b6001600288020188555050505b505050505050565b60006080820190506130206000830187612455565b818103602083015261303281866124aa565b9050818103604083015261304681856124aa565b90506130556060830184612455565b95945050505050565b7f6275726e206173736574206173736574206973206e6f74206c6f636b65640000600082015250565b6000613094601e8361246f565b915061309f8261305e565b602082019050919050565b600060208201905081810360008301526130c381613087565b9050919050565b7f6275726e2061737365742063616c6c206661696c656400000000000000000000600082015250565b600061310060168361246f565b915061310b826130ca565b602082019050919050565b6000602082019050818103600083015261312f816130f3565b9050919050565b6000613141826124e3565b915061314c836124e3565b925082820190508082111561316457613163612cc3565b5b92915050565b7f4e487b7100000000000000000000000000000000000000000000000000000000600052603260045260246000fd5b6000815490506131a8816129eb565b9050919050565b60008190508160005260206000209050919050565b8181036131d25750506132aa565b6131db82613199565b67ffffffffffffffff8111156131f4576131f36122af565b5b6131fe82546129eb565b613209828285612eac565b6000601f8311600181146132385760008415613226578287015490505b6132308582612f1d565b8655506132a3565b601f198416613246876131af565b965061325186612d8d565b60005b8281101561327957848901548255600182019150600185019450602081019050613254565b868310156132965784890154613292601f891682612eff565b8355505b6001600288020188555050505b5050505050505b565b7f4e487b7100000000000000000000000000000000000000000000000000000000600052603160045260246000fd5b60006132e6826124e3565b91507fffffffffffffffffffffffffffffffffffffffffffffffffffffffffffffffff820361331857613317612cc3565b5b60018201905091905056fea26469706673582212202da103a1a06038acef785afadae571215820efdafbe7910b03a62b14769e712664736f6c63430008140033","linkReferences":{}},"methodIdentifiers":{"BRIDGE_ROLE()":"b5bfddea","assign(string,address,uint256)":"4534ba17","bridge_address()":"1255c189","burn(string,uint256)":"b48272cc","getAllAssetsIDs()":"5137b8a7","getToken(string)":"c1733f68","lock(string,uint256)":"e1efb596","mint(string,uint256)":"056b01ce","owner()":"8da5cb5b","renounceOwnership()":"715018a6","tokens(string)":"04c2320b","transferOwnership(address)":"f2fde38b","unlock(string,uint256)":"d9cf884c","unwrap(string)":"a1bc17c5","wrap(address,string,string,address)":"8d7d180b"},"id":6}